{"abi":[{"type":"function","name":"setTime","inputs":[{"name":"_timeStamp","type":"uint256","internalType":"uint256"}],"outputs":[],"stateMutability":"nonpayable"}],"bytecode":{"object":"0x6080604052348015600e575f5ffd5b50608880601a5f395ff3fe6080604052348015600e575f5ffd5b50600436106026575f3560e01c80633beb26c414602a575b5f5ffd5b603a6035366004603c565b600155565b005b5f60208284031215604b575f5ffd5b503591905056fea2646970667358221220b2c5b0db0f4dd532a7f99b6d07ba02e9eb6a68e207cdab071586cdb6ffe4e09364736f6c634300081c0033","linkReferences":{}},"methodIdentifiers":{"setTime(uint256)":"3beb26c4"},"id":0}