{"abi":[{"type":"constructor","inputs":[{"name":"_shop","type":"address","internalType":"address"}],"stateMutability":"nonpayable"},{"type":"function","name":"attack","inputs":[],"outputs":[],"stateMutability":"nonpayable"},{"type":"function","name":"price","inputs":[],"outputs":[{"name":"","type":"uint256","internalType":"uint256"}],"stateMutability":"view"}],"bytecode":{"object":"0x60a0604052348015600e575f5ffd5b50604051610257380380610257833981016040819052602b91603b565b6001600160a01b03166080526066565b5f60208284031215604a575f5ffd5b81516001600160a01b0381168114605f575f5ffd5b9392505050565b6080516101d46100835f395f8181605e015260dc01526101d45ff3fe608060405234801561000f575f5ffd5b5060043610610034575f3560e01c80639e5faafc14610038578063a035b1fe14610042575b5f5ffd5b61004061005c565b005b61004a6100d9565b60405190815260200160405180910390f35b7f000000000000000000000000000000000000000000000000000000000000000073ffffffffffffffffffffffffffffffffffffffff1663a6f2ae3a6040518163ffffffff1660e01b81526004015f604051808303815f87803b1580156100c1575f5ffd5b505af11580156100d3573d5f5f3e3d5ffd5b50505050565b5f7f000000000000000000000000000000000000000000000000000000000000000073ffffffffffffffffffffffffffffffffffffffff1663e852e7416040518163ffffffff1660e01b8152600401602060405180830381865afa158015610143573d5f5f3e3d5ffd5b505050506040513d601f19601f820116820180604052508101906101679190610178565b156101725750606390565b50606590565b5f60208284031215610188575f5ffd5b81518015158114610197575f5ffd5b939250505056fea2646970667358221220558ab93aae27fbb9526f51f0edd7055a0e63e45cfb7378598601e17f7dcf2bc264736f6c634300081c0033","linkReferences":{}},"methodIdentifiers":{"attack()":"9e5faafc","price()":"a035b1fe"},"id":0}