{"abi":[{"type":"constructor","inputs":[{"name":"_elevatorInstance","type":"address","internalType":"address"}],"stateMutability":"nonpayable"},{"type":"function","name":"attack","inputs":[],"outputs":[],"stateMutability":"nonpayable"},{"type":"function","name":"isLastFloor","inputs":[{"name":"","type":"uint256","internalType":"uint256"}],"outputs":[{"name":"","type":"bool","internalType":"bool"}],"stateMutability":"nonpayable"}],"bytecode":{"object":"0x60806040525f805460ff60a01b1916600160a01b1790553480156020575f5ffd5b50604051610226380380610226833981016040819052603d916060565b5f80546001600160a01b0319166001600160a01b0392909216919091179055608b565b5f60208284031215606f575f5ffd5b81516001600160a01b03811681146084575f5ffd5b9392505050565b61018e806100985f395ff3fe608060405234801561000f575f5ffd5b5060043610610034575f3560e01c80635f9a4bca146100385780639e5faafc1461005f575b5f5ffd5b61004b610046366004610141565b610069565b604051901515815260200160405180910390f35b6100676100c0565b005b5f805474010000000000000000000000000000000000000000900460ff16156100b85750505f80547fffffffffffffffffffffff00ffffffffffffffffffffffffffffffffffffffff16815590565b506001919050565b5f546040517fed9a7134000000000000000000000000000000000000000000000000000000008152610539600482015273ffffffffffffffffffffffffffffffffffffffff9091169063ed9a7134906024015f604051808303815f87803b158015610129575f5ffd5b505af115801561013b573d5f5f3e3d5ffd5b50505050565b5f60208284031215610151575f5ffd5b503591905056fea2646970667358221220fb4131de755908b7cb231deeb9f1b00da5627e5d7df72579519f788e64ea33ba64736f6c634300081c0033","linkReferences":{}},"methodIdentifiers":{"attack()":"9e5faafc","isLastFloor(uint256)":"5f9a4bca"},"id":0}