{"abi":[{"type":"constructor","inputs":[{"name":"_impersonator","type":"address","internalType":"address"}],"stateMutability":"nonpayable"},{"type":"function","name":"getFactory","inputs":[],"outputs":[{"name":"","type":"address","internalType":"address"}],"stateMutability":"view"},{"type":"function","name":"impersonator","inputs":[],"outputs":[{"name":"","type":"address","internalType":"address"}],"stateMutability":"view"},{"type":"function","name":"tryDelegatecall","inputs":[],"outputs":[{"name":"success","type":"bool","internalType":"bool"}],"stateMutability":"nonpayable"}],"bytecode":{"object":"0x6080604052348015600e575f5ffd5b506040516102e33803806102e3833981016040819052602b91604e565b5f80546001600160a01b0319166001600160a01b03929092169190911790556079565b5f60208284031215605d575f5ffd5b81516001600160a01b03811681146072575f5ffd5b9392505050565b61025d806100865f395ff3fe608060405234801561000f575f5ffd5b506004361061003f575f3560e01c80633c68d015146100435780638136fd901461006057806388cc58e41461008a575b5f5ffd5b61004b610092565b60405190151581526020015b60405180910390f35b5f54610072906001600160a01b031681565b6040516001600160a01b039091168152602001610057565b610072610155565b5f80546040513360248201526001600160a01b039091169060440160408051601f198184030181529181526020820180517bffffffffffffffffffffffffffffffffffffffffffffffffffffffff167ff2fde38b000000000000000000000000000000000000000000000000000000001790525161011091906101ce565b5f60405180830381855af49150503d805f8114610148576040519150601f19603f3d011682016040523d82523d5f602084013e61014d565b606091505b509092915050565b5f5f5f9054906101000a90046001600160a01b03166001600160a01b0316638da5cb5b6040518163ffffffff1660e01b8152600401602060405180830381865afa1580156101a5573d5f5f3e3d5ffd5b505050506040513d601f19601f820116820180604052508101906101c991906101fa565b905090565b5f82515f5b818110156101ed57602081860181015185830152016101d3565b505f920191825250919050565b5f6020828403121561020a575f5ffd5b81516001600160a01b0381168114610220575f5ffd5b939250505056fea26469706673582212207f0a1921408d6cff69699102bbac85132f3bc4456bab00dec2808f35313d490164736f6c634300081c0033","linkReferences":{}},"methodIdentifiers":{"getFactory()":"88cc58e4","impersonator()":"8136fd90","tryDelegatecall()":"3c68d015"},"id":0}