{"abi":[{"type":"constructor","inputs":[{"name":"_stake","type":"address","internalType":"address"},{"name":"_weth","type":"address","internalType":"address"}],"stateMutability":"nonpayable"},{"type":"receive","stateMutability":"payable"},{"type":"function","name":"attack","inputs":[],"outputs":[],"stateMutability":"nonpayable"},{"type":"function","name":"owner","inputs":[],"outputs":[{"name":"","type":"address","internalType":"address"}],"stateMutability":"view"},{"type":"function","name":"stake","inputs":[],"outputs":[{"name":"","type":"address","internalType":"contract IStake"}],"stateMutability":"view"},{"type":"function","name":"weth","inputs":[],"outputs":[{"name":"","type":"address","internalType":"contract IWETH"}],"stateMutability":"view"},{"type":"function","name":"withdraw","inputs":[],"outputs":[],"stateMutability":"nonpayable"}],"bytecode":{"object":"0x6080604052348015600e575f5ffd5b50604051610536380380610536833981016040819052602b916084565b5f80546001600160a01b039384166001600160a01b031991821617909155600180549290931691811691909117909155600280549091163317905560b0565b80516001600160a01b0381168114607f575f5ffd5b919050565b5f5f604083850312156094575f5ffd5b609b83606a565b915060a760208401606a565b90509250929050565b610479806100bd5f395ff3fe60806040526004361061005b575f3560e01c80633fc8cef3116100415780633fc8cef3146100b65780638da5cb5b146100d55780639e5faafc146100f4575f5ffd5b80633a4b66f1146100665780633ccfd60b146100a0575f5ffd5b3661006257005b5f5ffd5b348015610071575f5ffd5b505f54610084906001600160a01b031681565b6040516001600160a01b03909116815260200160405180910390f35b3480156100ab575f5ffd5b506100b4610108565b005b3480156100c1575f5ffd5b50600154610084906001600160a01b031681565b3480156100e0575f5ffd5b50600254610084906001600160a01b031681565b3480156100ff575f5ffd5b506100b461018d565b6002546001600160a01b031633146101545760405162461bcd60e51b815260206004820152600a60248201526927b7363c9037bbb732b960b11b60448201526064015b60405180910390fd5b6002546040516001600160a01b03909116904780156108fc02915f818181858888f1935050505015801561018a573d5f5f3e3d5ffd5b50565b6002546001600160a01b031633146101d45760405162461bcd60e51b815260206004820152600a60248201526927b7363c9037bbb732b960b11b604482015260640161014b565b6001545f546040517f095ea7b30000000000000000000000000000000000000000000000000000000081526001600160a01b0391821660048201525f19602482015291169063095ea7b3906044016020604051808303815f875af115801561023e573d5f5f3e3d5ffd5b505050506040513d601f19601f820116820180604052508101906102629190610406565b505f546040517f6e35c74000000000000000000000000000000000000000000000000000000000815268056bc75e2d6310000060048201819052916001600160a01b031690636e35c740906024016020604051808303815f875af11580156102cc573d5f5f3e3d5ffd5b505050506040513d601f19601f820116820180604052508101906102f09190610406565b505f80546040517f7b2333190000000000000000000000000000000000000000000000000000000081523060048201526001600160a01b0390911690637b23331990602401602060405180830381865afa158015610350573d5f5f3e3d5ffd5b505050506040513d601f19601f82011682018060405250810190610374919061042c565b90508015610402575f546040517ff1f1db1e000000000000000000000000000000000000000000000000000000008152600481018390526001600160a01b039091169063f1f1db1e906024016020604051808303815f875af11580156103dc573d5f5f3e3d5ffd5b505050506040513d601f19601f820116820180604052508101906104009190610406565b505b5050565b5f60208284031215610416575f5ffd5b81518015158114610425575f5ffd5b9392505050565b5f6020828403121561043c575f5ffd5b505191905056fea26469706673582212208b6f5a92ab3151d403939107e6bcd669793f3197cdbb83a9e8f6c928f625a75764736f6c634300081c0033","linkReferences":{}},"methodIdentifiers":{"attack()":"9e5faafc","owner()":"8da5cb5b","stake()":"3a4b66f1","weth()":"3fc8cef3","withdraw()":"3ccfd60b"},"id":0}