{"abi":[{"type":"constructor","inputs":[{"name":"_target","type":"address","internalType":"address"}],"stateMutability":"nonpayable"},{"type":"function","name":"forwardPwn","inputs":[],"outputs":[],"stateMutability":"nonpayable"},{"type":"function","name":"target","inputs":[],"outputs":[{"name":"","type":"address","internalType":"address"}],"stateMutability":"view"}],"bytecode":{"object":"0x6080604052348015600e575f5ffd5b506040516101ba3803806101ba833981016040819052602b91604e565b5f80546001600160a01b0319166001600160a01b03929092169190911790556079565b5f60208284031215605d575f5ffd5b81516001600160a01b03811681146072575f5ffd5b9392505050565b610134806100865f395ff3fe6080604052348015600e575f5ffd5b50600436106030575f3560e01c8063d4b83992146034578063fd0659a614607b575b5f5ffd5b5f5460529073ffffffffffffffffffffffffffffffffffffffff1681565b60405173ffffffffffffffffffffffffffffffffffffffff909116815260200160405180910390f35b60816083565b005b5f8054604080517fdd365b8b000000000000000000000000000000000000000000000000000000008152905173ffffffffffffffffffffffffffffffffffffffff9092169263dd365b8b9260048084019382900301818387803b15801560e7575f5ffd5b505af115801560f8573d5f5f3e3d5ffd5b5050505056fea2646970667358221220d4b0a6cc03fe3fefe4f7d7a91b4e50b7ca23de9219ad436f6cbacfd8c70ac8b564736f6c634300081c0033","linkReferences":{}},"methodIdentifiers":{"forwardPwn()":"fd0659a6","target()":"d4b83992"},"id":0}