{"abi":[{"type":"constructor","inputs":[],"stateMutability":"nonpayable"},{"type":"function","name":"dex","inputs":[],"outputs":[{"name":"","type":"address","internalType":"address"}],"stateMutability":"view"},{"type":"function","name":"drainTokens","inputs":[],"outputs":[],"stateMutability":"nonpayable"},{"type":"function","name":"token1","inputs":[],"outputs":[{"name":"","type":"address","internalType":"contract IERC20"}],"stateMutability":"view"},{"type":"function","name":"token2","inputs":[],"outputs":[{"name":"","type":"address","internalType":"contract IERC20"}],"stateMutability":"view"}],"bytecode":{"object":"0x60e060405273a16e02e87b7454126e5e10d957a927a7f5b5d2be608052348015610027575f5ffd5b506080516001600160a01b031663d21220a76040518163ffffffff1660e01b8152600401602060405180830381865afa158015610066573d5f5f3e3d5ffd5b505050506040513d601f19601f8201168201806040525081019061008a9190610116565b6001600160a01b031660a0816001600160a01b0316815250506080516001600160a01b03166325be124e6040518163ffffffff1660e01b8152600401602060405180830381865afa1580156100e1573d5f5f3e3d5ffd5b505050506040513d601f19601f820116820180604052508101906101059190610116565b6001600160a01b031660c052610143565b5f60208284031215610126575f5ffd5b81516001600160a01b038116811461013c575f5ffd5b9392505050565b60805160a05160c0516107a96101da5f395f8181605301528181610198015281816102f90152818161039f0152818161042e015281816104e50152818161056701526106bf01525f818160bd015281816101030152818161024f015281816102d10152818161058f015261063201525f818160960152818161022001528181610328015281816104b601526105be01526107a95ff3fe608060405234801561000f575f5ffd5b506004361061004a575f3560e01c806325be124e1461004e578063692058c214610091578063d21220a7146100b8578063ef1706ce146100df575b5f5ffd5b6100757f000000000000000000000000000000000000000000000000000000000000000081565b6040516001600160a01b03909116815260200160405180910390f35b6100757f000000000000000000000000000000000000000000000000000000000000000081565b6100757f000000000000000000000000000000000000000000000000000000000000000081565b6100e76100e9565b005b6040516370a0823160e01b81523060048201819052905f907f00000000000000000000000000000000000000000000000000000000000000006001600160a01b0316906370a0823190602401602060405180830381865afa158015610150573d5f5f3e3d5ffd5b505050506040513d601f19601f820116820180604052508101906101749190610736565b6040516370a0823160e01b81526001600160a01b0384811660048301529192505f917f000000000000000000000000000000000000000000000000000000000000000016906370a0823190602401602060405180830381865afa1580156101dd573d5f5f3e3d5ffd5b505050506040513d601f19601f820116820180604052508101906102019190610736565b9050811561040d5760405163095ea7b360e01b81526001600160a01b037f000000000000000000000000000000000000000000000000000000000000000081166004830152602482018490527f0000000000000000000000000000000000000000000000000000000000000000169063095ea7b3906044016020604051808303815f875af1158015610295573d5f5f3e3d5ffd5b505050506040513d601f19601f820116820180604052508101906102b9919061074d565b50604051630df791e560e41b81526001600160a01b037f0000000000000000000000000000000000000000000000000000000000000000811660048301527f000000000000000000000000000000000000000000000000000000000000000081166024830152604482018490527f0000000000000000000000000000000000000000000000000000000000000000169063df791e50906064015f604051808303815f87803b158015610369575f5ffd5b505af115801561037b573d5f5f3e3d5ffd5b50506040516370a0823160e01b81526001600160a01b0386811660048301525f95507f00000000000000000000000000000000000000000000000000000000000000001692506370a082319150602401602060405180830381865afa1580156103e6573d5f5f3e3d5ffd5b505050506040513d601f19601f8201168201806040525081019061040a9190610736565b90505b6040516370a0823160e01b81526001600160a01b0384811660048301525f917f0000000000000000000000000000000000000000000000000000000000000000909116906370a0823190602401602060405180830381865afa158015610475573d5f5f3e3d5ffd5b505050506040513d601f19601f820116820180604052508101906104999190610736565b11156107315760405163095ea7b360e01b81526001600160a01b037f000000000000000000000000000000000000000000000000000000000000000081166004830152602482018390527f0000000000000000000000000000000000000000000000000000000000000000169063095ea7b3906044016020604051808303815f875af115801561052b573d5f5f3e3d5ffd5b505050506040513d601f19601f8201168201806040525081019061054f919061074d565b50604051630df791e560e41b81526001600160a01b037f0000000000000000000000000000000000000000000000000000000000000000811660048301527f000000000000000000000000000000000000000000000000000000000000000081166024830152604482018390527f0000000000000000000000000000000000000000000000000000000000000000169063df791e50906064015f604051808303815f87803b1580156105ff575f5ffd5b505af1158015610611573d5f5f3e3d5ffd5b50506040516370a0823160e01b81526001600160a01b0386811660048301527f00000000000000000000000000000000000000000000000000000000000000001692506370a082319150602401602060405180830381865afa158015610679573d5f5f3e3d5ffd5b505050506040513d601f19601f8201168201806040525081019061069d9190610736565b6040516370a0823160e01b81526001600160a01b0385811660048301529193507f0000000000000000000000000000000000000000000000000000000000000000909116906370a0823190602401602060405180830381865afa158015610706573d5f5f3e3d5ffd5b505050506040513d601f19601f8201168201806040525081019061072a9190610736565b905061040d565b505050565b5f60208284031215610746575f5ffd5b5051919050565b5f6020828403121561075d575f5ffd5b8151801515811461076c575f5ffd5b939250505056fea264697066735822122023f63baa8baf8973d24a2a9511a21cf80c91d39a4ace5c94da61602ed67cfd2d64736f6c634300081c0033","linkReferences":{}},"methodIdentifiers":{"dex()":"692058c2","drainTokens()":"ef1706ce","token1()":"d21220a7","token2()":"25be124e"},"id":1}