{"abi":[{"type":"constructor","inputs":[{"name":"_instance","type":"address","internalType":"address payable"},{"name":"_player","type":"address","internalType":"address"}],"stateMutability":"nonpayable"},{"type":"function","name":"attack","inputs":[],"outputs":[],"stateMutability":"nonpayable"},{"type":"function","name":"claim","inputs":[],"outputs":[],"stateMutability":"nonpayable"},{"type":"function","name":"notify","inputs":[{"name":"amount","type":"uint256","internalType":"uint256"}],"outputs":[],"stateMutability":"nonpayable"},{"type":"function","name":"player","inputs":[],"outputs":[{"name":"","type":"address","internalType":"address"}],"stateMutability":"view"}],"bytecode":{"object":"0x6080604052348015600e575f5ffd5b506040516103f53803806103f5833981016040819052602b916070565b5f80546001600160a01b039384166001600160a01b0319918216179091556001805492909316911617905560a3565b6001600160a01b0381168114606d575f5ffd5b50565b5f5f604083850312156080575f5ffd5b8251608981605a565b6020840151909250609881605a565b809150509250929050565b610345806100b05f395ff3fe608060405234801561000f575f5ffd5b506004361061004a575f3560e01c806348db5f891461004e5780634e71d92d1461007d57806398d078b4146100875780639e5faafc1461009a575b5f5ffd5b600154610061906001600160a01b031681565b6040516001600160a01b03909116815260200160405180910390f35b6100856100a2565b005b6100856100953660046102b4565b61021e565b61008561025d565b5f5f5f9054906101000a90046001600160a01b03166001600160a01b03166311df99956040518163ffffffff1660e01b81526004016020604051808303815f875af11580156100f3573d5f5f3e3d5ffd5b505050506040513d601f19601f8201168201806040525081019061011791906102cb565b6001546040517f27e235e30000000000000000000000000000000000000000000000000000000081523060048201529192506001600160a01b038084169263a9059cbb92919091169083906327e235e390602401602060405180830381865afa158015610186573d5f5f3e3d5ffd5b505050506040513d601f19601f820116820180604052508101906101aa91906102f8565b6040517fffffffff0000000000000000000000000000000000000000000000000000000060e085901b1681526001600160a01b03909216600483015260248201526044015f604051808303815f87803b158015610205575f5ffd5b505af1158015610217573d5f5f3e3d5ffd5b5050505050565b5f8054604080516304a286c760e31b815290516001600160a01b039092169263251436389260048084019382900301818387803b158015610205575f5ffd5b5f8054604080516304a286c760e31b815290516001600160a01b039092169263251436389260048084019382900301818387803b15801561029c575f5ffd5b505af11580156102ae573d5f5f3e3d5ffd5b50505050565b5f602082840312156102c4575f5ffd5b5035919050565b5f602082840312156102db575f5ffd5b81516001600160a01b03811681146102f1575f5ffd5b9392505050565b5f60208284031215610308575f5ffd5b505191905056fea2646970667358221220525e2fe1cac3e12daa13e96c31d74b9fc31e4409628683950b95030801b8b92564736f6c634300081c0033","linkReferences":{}},"methodIdentifiers":{"attack()":"9e5faafc","claim()":"4e71d92d","notify(uint256)":"98d078b4","player()":"48db5f89"},"id":0}