{"abi":[{"type":"constructor","inputs":[{"name":"_instanceAddress","type":"address","internalType":"address"}],"stateMutability":"nonpayable"},{"type":"function","name":"authenticate","inputs":[],"outputs":[],"stateMutability":"nonpayable"},{"type":"function","name":"instance","inputs":[],"outputs":[{"name":"","type":"address","internalType":"contract IInstance"}],"stateMutability":"view"},{"type":"function","name":"retrievePassword","inputs":[],"outputs":[{"name":"","type":"string","internalType":"string"}],"stateMutability":"view"}],"bytecode":{"object":"0x6080604052348015600e575f5ffd5b50604051610361380380610361833981016040819052602b91604e565b5f80546001600160a01b0319166001600160a01b03929092169190911790556079565b5f60208284031215605d575f5ffd5b81516001600160a01b03811681146072575f5ffd5b9392505050565b6102db806100865f395ff3fe608060405234801561000f575f5ffd5b506004361061003f575f3560e01c8063022ec09514610043578063380c7a671461008c5780634b01004514610096575b5f5ffd5b5f546100629073ffffffffffffffffffffffffffffffffffffffff1681565b60405173ffffffffffffffffffffffffffffffffffffffff90911681526020015b60405180910390f35b6100946100ab565b005b61009e61013a565b6040516100839190610196565b5f6100b461013a565b5f546040517faa613b2900000000000000000000000000000000000000000000000000000000815291925073ffffffffffffffffffffffffffffffffffffffff169063aa613b299061010a908490600401610196565b5f604051808303815f87803b158015610121575f5ffd5b505af1158015610133573d5f5f3e3d5ffd5b5050505050565b5f546040805160208101839052606092910160405160208183030381529060405280602001905181019061016e91906101f5565b91505090565b5f5b8381101561018e578181015183820152602001610176565b50505f910152565b602081525f82518060208401526101b4816040850160208701610174565b601f01601f19169190910160400192915050565b7f4e487b71000000000000000000000000000000000000000000000000000000005f52604160045260245ffd5b5f60208284031215610205575f5ffd5b815167ffffffffffffffff81111561021b575f5ffd5b8201601f8101841361022b575f5ffd5b805167ffffffffffffffff811115610245576102456101c8565b604051601f8201601f19908116603f0116810167ffffffffffffffff81118282101715610274576102746101c8565b60405281815282820160200186101561028b575f5ffd5b61029c826020830160208601610174565b9594505050505056fea2646970667358221220cd24d569182f82e689bbd6fa03828efce5d3bdf385c05d952d3ef28b60f5e3b064736f6c634300081c0033","linkReferences":{}},"methodIdentifiers":{"authenticate()":"380c7a67","instance()":"022ec095","retrievePassword()":"4b010045"},"id":0}