{"abi":[{"type":"function","name":"computeMsgHash","inputs":[{"name":"lockId","type":"uint256","internalType":"uint256"}],"outputs":[{"name":"","type":"bytes32","internalType":"bytes32"}],"stateMutability":"pure"},{"type":"function","name":"exploitLocker","inputs":[{"name":"locker","type":"address","internalType":"address"}],"outputs":[],"stateMutability":"nonpayable"},{"type":"function","name":"findCollision","inputs":[],"outputs":[{"name":"v1","type":"uint8","internalType":"uint8"},{"name":"r1","type":"bytes32","internalType":"bytes32"},{"name":"s1","type":"bytes32","internalType":"bytes32"},{"name":"v2","type":"uint8","internalType":"uint8"},{"name":"r2","type":"bytes32","internalType":"bytes32"},{"name":"s2","type":"bytes32","internalType":"bytes32"}],"stateMutability":"pure"},{"type":"function","name":"getArrayEncoding","inputs":[{"name":"r","type":"uint256","internalType":"uint256"},{"name":"s","type":"uint256","internalType":"uint256"},{"name":"v","type":"uint256","internalType":"uint256"}],"outputs":[{"name":"","type":"bytes","internalType":"bytes"}],"stateMutability":"pure"},{"type":"function","name":"getProperEncoding","inputs":[{"name":"r","type":"uint256","internalType":"uint256"},{"name":"s","type":"uint256","internalType":"uint256"},{"name":"v","type":"uint256","internalType":"uint256"}],"outputs":[{"name":"","type":"bytes","internalType":"bytes"}],"stateMutability":"pure"}],"bytecode":{"object":"0x6080604052348015600e575f5ffd5b506103ec8061001c5f395ff3fe608060405234801561000f575f5ffd5b5060043610610064575f3560e01c80638fc6246b1161004d5780638fc6246b146100c65780639c356133146100db578063f22c4d4a146100ee575f5ffd5b80631b8a70e61461006857806386af895414610091575b5f5ffd5b61007b610076366004610283565b61013c565b60405161008891906102ac565b60405180910390f35b60408051601b81526001602082018190526002928201839052601c6060830152608082015260a081019190915260c001610088565b6100d96100d436600461031b565b610172565b005b61007b6100e9366004610283565b610256565b61012e6100fc36600461033d565b7f19457468657265756d205369676e6564204d6573736167653a0a3332000000005f908152601c91909152603c902090565b604051908152602001610088565b60408051602081018590529081018390526060818101839052906080015b60405160208183030381529060405290509392505050565b5f8173ffffffffffffffffffffffffffffffffffffffff1663e4e6cf4f6040518163ffffffff1660e01b8152600401602060405180830381865afa1580156101bc573d5f5f3e3d5ffd5b505050506040513d601f19601f820116820180604052508101906101e09190610354565b90505f8273ffffffffffffffffffffffffffffffffffffffff1663f77c47916040518163ffffffff1660e01b8152600401602060405180830381865afa15801561022c573d5f5f3e3d5ffd5b505050506040513d601f19601f82011682018060405250810190610250919061036b565b50505050565b606060405180606001604052808581526020018481526020018381525060405160200161015a9190610386565b5f5f5f60608486031215610295575f5ffd5b505081359360208301359350604090920135919050565b602081525f82518060208401525f5b818110156102d857602081860181015160408684010152016102bb565b505f604082850101526040601f19601f83011684010191505092915050565b73ffffffffffffffffffffffffffffffffffffffff81168114610318575f5ffd5b50565b5f6020828403121561032b575f5ffd5b8135610336816102f7565b9392505050565b5f6020828403121561034d575f5ffd5b5035919050565b5f60208284031215610364575f5ffd5b5051919050565b5f6020828403121561037b575f5ffd5b8151610336816102f7565b6060810181835f5b60038110156103ad57815183526020928301929091019060010161038e565b5050509291505056fea2646970667358221220a40969865ff6990b3cfdfb2692d9f7ebc93a4c99807146afb91d7c5880615d7264736f6c634300081c0033","linkReferences":{}},"methodIdentifiers":{"computeMsgHash(uint256)":"f22c4d4a","exploitLocker(address)":"8fc6246b","findCollision()":"86af8954","getArrayEncoding(uint256,uint256,uint256)":"9c356133","getProperEncoding(uint256,uint256,uint256)":"1b8a70e6"},"id":0}