{"abi":[{"type":"function","name":"doApprove","inputs":[{"name":"token","type":"address","internalType":"contract NaughtCoin"},{"name":"spender","type":"address","internalType":"address"},{"name":"amount","type":"uint256","internalType":"uint256"}],"outputs":[{"name":"","type":"bool","internalType":"bool"}],"stateMutability":"nonpayable"}],"bytecode":{"object":"0x6080604052348015600e575f5ffd5b506101b38061001c5f395ff3fe608060405234801561000f575f5ffd5b5060043610610029575f3560e01c8063dfc4a5161461002d575b5f5ffd5b61004061003b366004610119565b610054565b604051901515815260200160405180910390f35b6040517f095ea7b300000000000000000000000000000000000000000000000000000000815273ffffffffffffffffffffffffffffffffffffffff8381166004830152602482018390525f919085169063095ea7b3906044016020604051808303815f875af11580156100c9573d5f5f3e3d5ffd5b505050506040513d601f19601f820116820180604052508101906100ed9190610157565b949350505050565b73ffffffffffffffffffffffffffffffffffffffff81168114610116575f5ffd5b50565b5f5f5f6060848603121561012b575f5ffd5b8335610136816100f5565b92506020840135610146816100f5565b929592945050506040919091013590565b5f60208284031215610167575f5ffd5b81518015158114610176575f5ffd5b939250505056fea26469706673582212203a010ca1d387c5c061e0ae9f9a088b2fb0f9a9d14b14a41f567bebdf0567c53d64736f6c634300081c0033","linkReferences":{}},"methodIdentifiers":{"doApprove(address,address,uint256)":"dfc4a516"},"id":4}