{"abi":[{"type":"constructor","inputs":[{"name":"_target","type":"address","internalType":"address"}],"stateMutability":"nonpayable"},{"type":"function","name":"attack","inputs":[],"outputs":[],"stateMutability":"nonpayable"},{"type":"function","name":"deployer","inputs":[],"outputs":[{"name":"","type":"address","internalType":"address"}],"stateMutability":"view"},{"type":"function","name":"originalOwner","inputs":[],"outputs":[{"name":"","type":"address","internalType":"address"}],"stateMutability":"view"},{"type":"function","name":"target","inputs":[],"outputs":[{"name":"","type":"address","internalType":"contract AlienCodex"}],"stateMutability":"view"}],"bytecode":{"object":"0x6080604052600180546001600160a01b0319908116735fbdb2315678afecb367f032d93f642f64180aa3179091556002805490911673f39fd6e51aad88f6f4ce6ab8827279cfffb9226617905534801561005857600080fd5b5060405161032b38038061032b8339818101604052602081101561007b57600080fd5b5051600080546001600160a01b039092166001600160a01b031990921691909117905561027e806100ad6000396000f3fe608060405234801561001057600080fd5b506004361061004c5760003560e01c80639e5faafc14610051578063d4b839921461005b578063d5f394881461007f578063f1fffdcb14610087575b600080fd5b61005961008f565b005b61006361021c565b604080516001600160a01b039092168252519081900360200190f35b61006361022b565b61006361023a565b60008054604080517f328b52cb00000000000000000000000000000000000000000000000000000000815290516001600160a01b039092169263328b52cb9260048084019382900301818387803b1580156100e957600080fd5b505af11580156100fd573d6000803e3d6000fd5b505060008054604080517f47f57b3200000000000000000000000000000000000000000000000000000000815290516001600160a01b0390921694506347f57b329350600480820193929182900301818387803b15801561015d57600080fd5b505af1158015610171573d6000803e3d6000fd5b5050602060022060008054604080517f0339f3000000000000000000000000000000000000000000000000000000000081528484036004820181905273f39fd6e51aad88f6f4ce6ab8827279cfffb92266602483018190529251959750955090936001600160a01b0390921692630339f3009260448084019382900301818387803b1580156101ff57600080fd5b505af1158015610213573d6000803e3d6000fd5b50505050505050565b6000546001600160a01b031681565b6002546001600160a01b031681565b6001546001600160a01b03168156fea265627a7a72315820253a8eead7cc4a5826e33d86c5feb5f779b64e5df9d2089773d1a1667c3cd61064736f6c63430005110032","linkReferences":{}},"methodIdentifiers":{"attack()":"9e5faafc","deployer()":"d5f39488","originalOwner()":"f1fffdcb","target()":"d4b83992"},"id":0}