{"abi":[{"type":"function","name":"callAllowance","inputs":[{"name":"weth","type":"address","internalType":"address"},{"name":"owner","type":"address","internalType":"address"},{"name":"spender","type":"address","internalType":"address"}],"outputs":[{"name":"success","type":"bool","internalType":"bool"},{"name":"data","type":"bytes","internalType":"bytes"}],"stateMutability":"nonpayable"},{"type":"function","name":"checkCode","inputs":[{"name":"target","type":"address","internalType":"address"}],"outputs":[{"name":"size","type":"uint256","internalType":"uint256"},{"name":"codehash","type":"bytes32","internalType":"bytes32"}],"stateMutability":"view"}],"bytecode":{"object":"0x6080604052348015600e575f5ffd5b506102a98061001c5f395ff3fe608060405234801561000f575f5ffd5b5060043610610034575f3560e01c80635b6485fa146100385780637b8de5ef14610062575b5f5ffd5b61004b61004636600461019b565b61008d565b6040516100599291906101fd565b60405180910390f35b610078610070366004610238565b803b91903f90565b60408051928352602083019190915201610059565b6040805173ffffffffffffffffffffffffffffffffffffffff848116602483015283811660448084019190915283518084039091018152606490920183526020820180517bffffffffffffffffffffffffffffffffffffffffffffffffffffffff167fdd62ed3e0000000000000000000000000000000000000000000000000000000017905291515f92606092908716916101289190610258565b5f604051808303815f865af19150503d805f8114610161576040519150601f19603f3d011682016040523d82523d5f602084013e610166565b606091505b5090969095509350505050565b803573ffffffffffffffffffffffffffffffffffffffff81168114610196575f5ffd5b919050565b5f5f5f606084860312156101ad575f5ffd5b6101b684610173565b92506101c460208501610173565b91506101d260408501610173565b90509250925092565b5f5b838110156101f55781810151838201526020016101dd565b50505f910152565b8215158152604060208201525f82518060408401526102238160608501602087016101db565b601f01601f1916919091016060019392505050565b5f60208284031215610248575f5ffd5b61025182610173565b9392505050565b5f82516102698184602087016101db565b919091019291505056fea26469706673582212203ed8a85cf03a569e35a62efc0d0453f5e2c97ce844e182c11f399d5f6c0cbfad64736f6c634300081c0033","linkReferences":{}},"methodIdentifiers":{"callAllowance(address,address,address)":"5b6485fa","checkCode(address)":"7b8de5ef"},"id":0}