{"abi":[{"type":"function","name":"isContract","inputs":[{"name":"addr","type":"address","internalType":"address"}],"outputs":[{"name":"","type":"bool","internalType":"bool"}],"stateMutability":"view"}],"bytecode":{"object":"0x6080604052348015600e575f5ffd5b5060bd80601a5f395ff3fe6080604052348015600e575f5ffd5b50600436106026575f3560e01c80631627905514602a575b5f5ffd5b603b6035366004604f565b3b151590565b604051901515815260200160405180910390f35b5f60208284031215605e575f5ffd5b813573ffffffffffffffffffffffffffffffffffffffff811681146080575f5ffd5b939250505056fea2646970667358221220ee0a53bc3e9d78146ef8742c53efb5119855666bbe72414c8dbf4497f33e82fe64736f6c634300081c0033","linkReferences":{}},"methodIdentifiers":{"isContract(address)":"16279055"},"id":0}