{"abi":[{"type":"function","name":"execute","inputs":[],"outputs":[],"stateMutability":"nonpayable"}],"bytecode":{"object":"0x6080604052348015600e575f5ffd5b5061030e8061001c5f395ff3fe608060405234801561000f575f5ffd5b5060043610610029575f3560e01c8063614619541461002d575b5f5ffd5b610035610037565b005b5f6040516100449061016c565b604051809103905ff08015801561005d573d5f5f3e3d5ffd5b506040517ff2fde38b00000000000000000000000000000000000000000000000000000000815273ffffffffffffffffffffffffffffffffffffffff82166004820152909150735fbdb2315678afecb367f032d93f642f64180aa39063f2fde38b906024015f604051808303815f87803b1580156100d9575f5ffd5b505af11580156100eb573d5f5f3e3d5ffd5b50506040517f32eeb2ab00000000000000000000000000000000000000000000000000000000815233600482015273ffffffffffffffffffffffffffffffffffffffff841692506332eeb2ab91506024015f604051808303815f87803b158015610153575f5ffd5b505af1158015610165573d5f5f3e3d5ffd5b5050505050565b61015f8061017a8339019056fe6080604052348015600e575f5ffd5b506101438061001c5f395ff3fe608060405234801561000f575f5ffd5b5060043610610029575f3560e01c806332eeb2ab1461002d575b5f5ffd5b61004061003b3660046100d3565b610042565b005b6040517ff2fde38b00000000000000000000000000000000000000000000000000000000815273ffffffffffffffffffffffffffffffffffffffff8216600482015273a16e02e87b7454126e5e10d957a927a7f5b5d2be9063f2fde38b906024015f604051808303815f87803b1580156100ba575f5ffd5b505af11580156100cc573d5f5f3e3d5ffd5b5050505050565b5f602082840312156100e3575f5ffd5b813573ffffffffffffffffffffffffffffffffffffffff81168114610106575f5ffd5b939250505056fea264697066735822122099c7cd19a8ffca429121e5c447afddce5e2e5c1c93562f19c7c39ecdf1ce0ee664736f6c634300081c0033a2646970667358221220fef690a8f5fab74e64300623f3be954e547a430827a5574d35c9d19f8cd6b7ba64736f6c634300081c0033","linkReferences":{}},"methodIdentifiers":{"execute()":"61461954"},"id":0}