{"abi":[{"type":"function","name":"transferInstanceOwnership","inputs":[{"name":"newOwner","type":"address","internalType":"address"}],"outputs":[],"stateMutability":"nonpayable"}],"bytecode":{"object":"0x6080604052348015600e575f5ffd5b506101438061001c5f395ff3fe608060405234801561000f575f5ffd5b5060043610610029575f3560e01c806332eeb2ab1461002d575b5f5ffd5b61004061003b3660046100d3565b610042565b005b6040517ff2fde38b00000000000000000000000000000000000000000000000000000000815273ffffffffffffffffffffffffffffffffffffffff8216600482015273a16e02e87b7454126e5e10d957a927a7f5b5d2be9063f2fde38b906024015f604051808303815f87803b1580156100ba575f5ffd5b505af11580156100cc573d5f5f3e3d5ffd5b5050505050565b5f602082840312156100e3575f5ffd5b813573ffffffffffffffffffffffffffffffffffffffff81168114610106575f5ffd5b939250505056fea264697066735822122099c7cd19a8ffca429121e5c447afddce5e2e5c1c93562f19c7c39ecdf1ce0ee664736f6c634300081c0033","linkReferences":{}},"methodIdentifiers":{"transferInstanceOwnership(address)":"32eeb2ab"},"id":0}