{"abi":[{"type":"constructor","inputs":[{"name":"_instance","type":"address","internalType":"address"}],"stateMutability":"nonpayable"},{"type":"function","name":"callOwner","inputs":[],"outputs":[{"name":"","type":"address","internalType":"address"}],"stateMutability":"view"}],"bytecode":{"object":"0x6080604052348015600e575f5ffd5b506040516101e73803806101e7833981016040819052602b91604e565b5f80546001600160a01b0319166001600160a01b03929092169190911790556079565b5f60208284031215605d575f5ffd5b81516001600160a01b03811681146072575f5ffd5b9392505050565b610161806100865f395ff3fe608060405234801561000f575f5ffd5b5060043610610029575f3560e01c80634fd195f91461002d575b5f5ffd5b61003561005e565b60405173ffffffffffffffffffffffffffffffffffffffff909116815260200160405180910390f35b5f5f5f9054906101000a900473ffffffffffffffffffffffffffffffffffffffff1673ffffffffffffffffffffffffffffffffffffffff16638da5cb5b6040518163ffffffff1660e01b8152600401602060405180830381865afa1580156100c8573d5f5f3e3d5ffd5b505050506040513d601f19601f820116820180604052508101906100ec91906100f1565b905090565b5f60208284031215610101575f5ffd5b815173ffffffffffffffffffffffffffffffffffffffff81168114610124575f5ffd5b939250505056fea2646970667358221220a1b372147ff18437a7e6e6c3f52a3c5ceb6c12c8c62d305b1e2cd135798104e064736f6c634300081c0033","linkReferences":{}},"methodIdentifiers":{"callOwner()":"4fd195f9"},"id":0}