{"abi":[{"type":"constructor","inputs":[{"name":"_stake","type":"address","internalType":"address"}],"stateMutability":"nonpayable"},{"type":"receive","stateMutability":"payable"},{"type":"function","name":"WETH","inputs":[],"outputs":[{"name":"","type":"address","internalType":"address"}],"stateMutability":"view"},{"type":"function","name":"amount","inputs":[],"outputs":[{"name":"","type":"uint256","internalType":"uint256"}],"stateMutability":"view"},{"type":"function","name":"approve","inputs":[],"outputs":[],"stateMutability":"nonpayable"},{"type":"function","name":"stake","inputs":[],"outputs":[{"name":"","type":"address","internalType":"contract Stake"}],"stateMutability":"view"},{"type":"function","name":"stakeWETH","inputs":[],"outputs":[],"stateMutability":"nonpayable"}],"bytecode":{"object":"0x6080604052348015600e575f5ffd5b5060405161048d38038061048d833981016040819052602b916061565b5f80546001600160a01b039092166001600160a01b0319928316179055600180549091169055670de0b6b3a7640000600255608c565b5f602082840312156070575f5ffd5b81516001600160a01b03811681146085575f5ffd5b9392505050565b6103f4806100995f395ff3fe60806040526004361061005b575f3560e01c8063801435d511610041578063801435d51461014f578063aa8c217c14610163578063ad5c464814610186575f5ffd5b806312424e3f146101005780633a4b66f114610114575f5ffd5b366100fc57600254156100fa575f6002819055546040517ff1f1db1e00000000000000000000000000000000000000000000000000000000815267016345785d8a000060048201526001600160a01b039091169063f1f1db1e906024016020604051808303815f875af11580156100d4573d5f5f3e3d5ffd5b505050506040513d601f19601f820116820180604052508101906100f8919061036c565b505b005b5f5ffd5b34801561010b575f5ffd5b506100fa6101a5565b34801561011f575f5ffd5b505f54610132906001600160a01b031681565b6040516001600160a01b0390911681526020015b60405180910390f35b34801561015a575f5ffd5b506100fa6102e3565b34801561016e575f5ffd5b5061017860025481565b604051908152602001610146565b348015610191575f5ffd5b50600154610132906001600160a01b031681565b6001545f80546002546040516001600160a01b03928316602482015260448101919091529192169060640160408051601f198184030181529181526020820180517bffffffffffffffffffffffffffffffffffffffffffffffffffffffff167f095ea7b300000000000000000000000000000000000000000000000000000000179052516102339190610392565b5f604051808303815f865af19150503d805f811461026c576040519150601f19603f3d011682016040523d82523d5f602084013e610271565b606091505b50509050806102e0576040517f08c379a000000000000000000000000000000000000000000000000000000000815260206004820152600f60248201527f417070726f76616c206661696c65640000000000000000000000000000000000604482015260640160405180910390fd5b50565b5f546002546040517f6e35c7400000000000000000000000000000000000000000000000000000000081526001600160a01b0390921691636e35c740916103309160040190815260200190565b6020604051808303815f875af115801561034c573d5f5f3e3d5ffd5b505050506040513d601f19601f820116820180604052508101906102e091905b5f6020828403121561037c575f5ffd5b8151801515811461038b575f5ffd5b9392505050565b5f82515f5b818110156103b15760208186018101518583015201610397565b505f92019182525091905056fea26469706673582212206d7d052843161ff2ae6ed87492ad1402f751c9d27a6aec1d30e0b5fa905bac2764736f6c634300081c0033","linkReferences":{}},"methodIdentifiers":{"WETH()":"ad5c4648","amount()":"aa8c217c","approve()":"12424e3f","stake()":"3a4b66f1","stakeWETH()":"801435d5"},"id":0}