{"abi":[{"type":"fallback","stateMutability":"payable"},{"type":"function","name":"x","inputs":[],"outputs":[{"name":"","type":"uint256","internalType":"uint256"}],"stateMutability":"view"}],"bytecode":{"object":"0x6080604052348015600e575f5ffd5b5060cb80601a5f395ff3fe608060405260043610601b575f3560e01c80630c55699c146034575b60015f5f828254602a91906058565b90915550601b9050565b348015603e575f5ffd5b5060465f5481565b60405190815260200160405180910390f35b80820180821115608f577f4e487b71000000000000000000000000000000000000000000000000000000005f52601160045260245ffd5b9291505056fea2646970667358221220cb65c41247e32a7c3e17b3ca9133a43ee9e46d4f8ddc029a348abcaff4425b7364736f6c634300081c0033","linkReferences":{}},"methodIdentifiers":{"x()":"0c55699c"},"id":0}