{"abi":[{"type":"function","name":"setHorsePowerToZero","inputs":[{"name":"proxy","type":"address","internalType":"address"}],"outputs":[],"stateMutability":"nonpayable"}],"bytecode":{"object":"0x6080604052348015600f57600080fd5b50609c8061001e6000396000f3fe6080604052348015600f57600080fd5b506004361060285760003560e01c8063cf41535214602d575b600080fd5b605d60048036036020811015604157600080fd5b503573ffffffffffffffffffffffffffffffffffffffff16605f565b005b506000805556fea26469706673582212202e9cfb90db323cfae50dae83908cee5d603bdb90353cf432e9405f8a4c885ca964736f6c634300060c0033","linkReferences":{}},"methodIdentifiers":{"setHorsePowerToZero(address)":"cf415352"},"id":2}