{"abi":[{"type":"constructor","inputs":[{"name":"_shop","type":"address","internalType":"address"}],"stateMutability":"nonpayable"},{"type":"function","name":"maliciousBuy","inputs":[],"outputs":[],"stateMutability":"nonpayable"},{"type":"function","name":"price","inputs":[],"outputs":[{"name":"","type":"uint256","internalType":"uint256"}],"stateMutability":"view"},{"type":"function","name":"shop","inputs":[],"outputs":[{"name":"","type":"address","internalType":"contract Shop"}],"stateMutability":"view"}],"bytecode":{"object":"0x60a0604052348015600e575f5ffd5b506040516102bb3803806102bb833981016040819052602b91603b565b6001600160a01b03166080526066565b5f60208284031215604a575f5ffd5b81516001600160a01b0381168114605f575f5ffd5b9392505050565b60805161023161008a5f395f818160480152818160b6015261013401526102315ff3fe608060405234801561000f575f5ffd5b506004361061003f575f3560e01c80630881fa0d146100435780630b1431f314610094578063a035b1fe1461009e575b5f5ffd5b61006a7f000000000000000000000000000000000000000000000000000000000000000081565b60405173ffffffffffffffffffffffffffffffffffffffff90911681526020015b60405180910390f35b61009c6100b4565b005b6100a6610131565b60405190815260200161008b565b7f000000000000000000000000000000000000000000000000000000000000000073ffffffffffffffffffffffffffffffffffffffff1663a6f2ae3a6040518163ffffffff1660e01b81526004015f604051808303815f87803b158015610119575f5ffd5b505af115801561012b573d5f5f3e3d5ffd5b50505050565b5f7f000000000000000000000000000000000000000000000000000000000000000073ffffffffffffffffffffffffffffffffffffffff1663e852e7416040518163ffffffff1660e01b8152600401602060405180830381865afa15801561019b573d5f5f3e3d5ffd5b505050506040513d601f19601f820116820180604052508101906101bf91906101d5565b6101ca5760646101cd565b60635b60ff16905090565b5f602082840312156101e5575f5ffd5b815180151581146101f4575f5ffd5b939250505056fea2646970667358221220d8f564f020aae0906c9641ee14e2f8ef12c7a5db5e14fc65c514486133a9e2d564736f6c634300081c0033","linkReferences":{}},"methodIdentifiers":{"maliciousBuy()":"0b1431f3","price()":"a035b1fe","shop()":"0881fa0d"},"id":0}