{"abi":[{"type":"function","name":"doTransfer","inputs":[{"name":"token","type":"address","internalType":"address"},{"name":"from","type":"address","internalType":"address"},{"name":"to","type":"address","internalType":"address"},{"name":"amount","type":"uint256","internalType":"uint256"}],"outputs":[],"stateMutability":"nonpayable"}],"bytecode":{"object":"0x6080604052348015600e575f5ffd5b506101b38061001c5f395ff3fe608060405234801561000f575f5ffd5b5060043610610029575f3560e01c8063e5654a4c1461002d575b5f5ffd5b61004061003b36600461010f565b610042565b005b6040517f23b872dd00000000000000000000000000000000000000000000000000000000815273ffffffffffffffffffffffffffffffffffffffff84811660048301528381166024830152604482018390528516906323b872dd906064016020604051808303815f875af11580156100bc573d5f5f3e3d5ffd5b505050506040513d601f19601f820116820180604052508101906100e09190610157565b5050505050565b803573ffffffffffffffffffffffffffffffffffffffff8116811461010a575f5ffd5b919050565b5f5f5f5f60808587031215610122575f5ffd5b61012b856100e7565b9350610139602086016100e7565b9250610147604086016100e7565b9396929550929360600135925050565b5f60208284031215610167575f5ffd5b81518015158114610176575f5ffd5b939250505056fea2646970667358221220f508545e2e442dfb633133119e025cc992d8a90fe1d1e03f00d59c3b289cf9be64736f6c634300081c0033","linkReferences":{}},"methodIdentifiers":{"doTransfer(address,address,address,uint256)":"e5654a4c"},"id":0}