{"abi":[{"type":"constructor","inputs":[{"name":"_denialInstance","type":"address","internalType":"address payable"}],"stateMutability":"nonpayable"},{"type":"receive","stateMutability":"payable"},{"type":"function","name":"denialInstance","inputs":[],"outputs":[{"name":"","type":"address","internalType":"address"}],"stateMutability":"view"},{"type":"function","name":"setPartner","inputs":[],"outputs":[],"stateMutability":"nonpayable"}],"bytecode":{"object":"0x6080604052348015600e575f5ffd5b50604051610393380380610393833981016040819052602b91604e565b5f80546001600160a01b0319166001600160a01b03929092169190911790556079565b5f60208284031215605d575f5ffd5b81516001600160a01b03811681146072575f5ffd5b9392505050565b61030d806100865f395ff3fe60806040526004361061002b575f3560e01c80632c88c5f81461014d578063721c5a8814610161575f5ffd5b36610149575f546001600160a01b03163115610147575f805460408051600481526024810182526020810180517bffffffffffffffffffffffffffffffffffffffffffffffffffffffff167f3ccfd60b0000000000000000000000000000000000000000000000000000000017905290516001600160a01b03909216916100b291906102ab565b5f60405180830381855af49150503d805f81146100ea576040519150601f19603f3d011682016040523d82523d5f602084013e6100ef565b606091505b50509050806101455760405162461bcd60e51b815260206004820152601660248201527f5265656e7472616e63792063616c6c206661696c65640000000000000000000060448201526064015b60405180910390fd5b505b005b5f5ffd5b348015610158575f5ffd5b5061014761019b565b34801561016c575f5ffd5b505f5461017f906001600160a01b031681565b6040516001600160a01b03909116815260200160405180910390f35b5f80546040513060248201526001600160a01b039091169060440160408051601f198184030181529181526020820180517bffffffffffffffffffffffffffffffffffffffffffffffffffffffff167f4e1c5914000000000000000000000000000000000000000000000000000000001790525161021991906102ab565b5f604051808303815f865af19150503d805f8114610252576040519150601f19603f3d011682016040523d82523d5f602084013e610257565b606091505b50509050806102a85760405162461bcd60e51b815260206004820152601560248201527f4661696c656420746f2073657420706172746e65720000000000000000000000604482015260640161013c565b50565b5f82515f5b818110156102ca57602081860181015185830152016102b0565b505f92019182525091905056fea26469706673582212205de075614c569e5f294de340632e2a230450656f37c606fd30a48e5e081c099d64736f6c634300081c0033","linkReferences":{}},"methodIdentifiers":{"denialInstance()":"721c5a88","setPartner()":"2c88c5f8"},"id":0}