{"abi":[{"type":"receive","stateMutability":"payable"},{"type":"function","name":"withdrawFunds","inputs":[],"outputs":[],"stateMutability":"nonpayable"}],"bytecode":{"object":"0x6080604052348015600e575f5ffd5b5060ec8061001b5f395ff3fe608060405260043610601e575f3560e01c806324600fc3146042575f5ffd5b36603e575f5b6108fc5a1115603c5780603581607a565b9150506024565b005b5f5ffd5b348015604c575f5ffd5b50603c60405133904780156108fc02915f818181858888f193505050501580156077573d5f5f3e3d5ffd5b50565b5f6001820160af577f4e487b71000000000000000000000000000000000000000000000000000000005f52601160045260245ffd5b506001019056fea264697066735822122011399e4bda38c20fc0b3108d222a9657800f7ecb0643029b5c9c6e43c5d2940a64736f6c634300081c0033","linkReferences":{}},"methodIdentifiers":{"withdrawFunds()":"24600fc3"},"id":0}