{"abi":[{"type":"function","name":"checkDexState","inputs":[{"name":"dexAddr","type":"address","internalType":"address"}],"outputs":[{"name":"owner","type":"address","internalType":"address"},{"name":"token1","type":"address","internalType":"address"},{"name":"token2","type":"address","internalType":"address"},{"name":"hasTokens","type":"bool","internalType":"bool"}],"stateMutability":"view"}],"bytecode":{"object":"0x6080604052348015600e575f5ffd5b506102758061001c5f395ff3fe608060405234801561000f575f5ffd5b5060043610610029575f3560e01c806381ae619c1461002d575b5f5ffd5b61004061003b366004610202565b61007e565b60405161007594939291906001600160a01b039485168152928416602084015292166040820152901515606082015260800190565b60405180910390f35b5f5f5f5f5f859050806001600160a01b0316638da5cb5b6040518163ffffffff1660e01b8152600401602060405180830381865afa9250505080156100e0575060408051601f3d908101601f191682019092526100dd91810190610224565b60015b6100ec575f94506100ef565b94505b806001600160a01b031663d21220a76040518163ffffffff1660e01b8152600401602060405180830381865afa925050508015610149575060408051601f3d908101601f1916820190925261014691810190610224565b60015b610155575f9350610158565b93505b806001600160a01b03166325be124e6040518163ffffffff1660e01b8152600401602060405180830381865afa9250505080156101b2575060408051601f3d908101601f191682019092526101af91810190610224565b60015b6101be575f92506101c1565b92505b6001600160a01b038416158015906101e157506001600160a01b03831615155b9150509193509193565b6001600160a01b03811681146101ff575f5ffd5b50565b5f60208284031215610212575f5ffd5b813561021d816101eb565b9392505050565b5f60208284031215610234575f5ffd5b815161021d816101eb56fea2646970667358221220f16be5a061be26b3422b19e1525aa36a985f33126f9335db3bf1f927e777316b64736f6c634300081c0033","linkReferences":{}},"methodIdentifiers":{"checkDexState(address)":"81ae619c"},"id":5}