{"abi":[{"type":"constructor","inputs":[{"name":"_admin","type":"address","internalType":"address"},{"name":"_implementation","type":"address","internalType":"address"},{"name":"_initData","type":"bytes","internalType":"bytes"}],"stateMutability":"nonpayable"},{"type":"fallback","stateMutability":"payable"},{"type":"receive","stateMutability":"payable"},{"type":"function","name":"admin","inputs":[],"outputs":[{"name":"","type":"address","internalType":"address"}],"stateMutability":"view"},{"type":"function","name":"approveNewAdmin","inputs":[{"name":"_expectedAdmin","type":"address","internalType":"address"}],"outputs":[],"stateMutability":"nonpayable"},{"type":"function","name":"pendingAdmin","inputs":[],"outputs":[{"name":"","type":"address","internalType":"address"}],"stateMutability":"view"},{"type":"function","name":"proposeNewAdmin","inputs":[{"name":"_newAdmin","type":"address","internalType":"address"}],"outputs":[],"stateMutability":"nonpayable"},{"type":"function","name":"upgradeTo","inputs":[{"name":"_newImplementation","type":"address","internalType":"address"}],"outputs":[],"stateMutability":"nonpayable"},{"type":"event","name":"Upgraded","inputs":[{"name":"implementation","type":"address","indexed":true,"internalType":"address"}],"anonymous":false}],"bytecode":{"object":"0x608060405234801561000f575f5ffd5b506040516107aa3803806107aa83398101604081905261002e916101f9565b818161005b60017f360894a13ba1a3210667c828492db98dca3e2076cc3735a920a3ca505d382bbd6102c9565b5f51602061078a5f395f51905f5214610076576100766102ee565b61007f82610116565b8051156100eb575f826001600160a01b03168260405161009f9190610302565b5f60405180830381855af49150503d805f81146100d7576040519150601f19603f3d011682016040523d82523d5f602084013e6100dc565b606091505b50509050806100e9575f5ffd5b505b5050600180546001600160a01b0319166001600160a01b0394909416939093179092555061031d9050565b6001600160a01b0381163b6101975760405162461bcd60e51b815260206004820152603660248201527f5570677261646561626c6550726f78793a206e657720696d706c656d656e746160448201527f74696f6e206973206e6f74206120636f6e747261637400000000000000000000606482015260840160405180910390fd5b5f51602061078a5f395f51905f5255565b80516001600160a01b03811681146101be575f5ffd5b919050565b634e487b7160e01b5f52604160045260245ffd5b5f5b838110156101f15781810151838201526020016101d9565b50505f910152565b5f5f5f6060848603121561020b575f5ffd5b610214846101a8565b9250610222602085016101a8565b60408501519092506001600160401b0381111561023d575f5ffd5b8401601f8101861361024d575f5ffd5b80516001600160401b03811115610266576102666101c3565b604051601f8201601f19908116603f011681016001600160401b0381118282101715610294576102946101c3565b6040528181528282016020018810156102ab575f5ffd5b6102bc8260208301602086016101d7565b8093505050509250925092565b818103818111156102e857634e487b7160e01b5f52601160045260245ffd5b92915050565b634e487b7160e01b5f52600160045260245ffd5b5f82516103138184602087016101d7565b9190910192915050565b6104608061032a5f395ff3fe60806040526004361061005d575f3560e01c8063a02fcc0a11610042578063a02fcc0a146100cd578063a6376746146100ec578063f851a440146101345761006c565b806326782247146100745780633659cfe6146100ae5761006c565b3661006c5761006a610153565b005b61006a610153565b34801561007f575f5ffd5b505f54610092906001600160a01b031681565b6040516001600160a01b03909116815260200160405180910390f35b3480156100b9575f5ffd5b5061006a6100c83660046103fd565b610185565b3480156100d8575f5ffd5b5061006a6100e73660046103fd565b6101f0565b3480156100f7575f5ffd5b5061006a6101063660046103fd565b5f805473ffffffffffffffffffffffffffffffffffffffff19166001600160a01b0392909216919091179055565b34801561013f575f5ffd5b50600154610092906001600160a01b031681565b61018361017e7f360894a13ba1a3210667c828492db98dca3e2076cc3735a920a3ca505d382bbc5490565b6102ff565b565b6001546001600160a01b031633146101e45760405162461bcd60e51b815260206004820152601760248201527f43616c6c6572206973206e6f74207468652061646d696e00000000000000000060448201526064015b60405180910390fd5b6101ed8161031d565b50565b6001546001600160a01b0316331461024a5760405162461bcd60e51b815260206004820152601760248201527f43616c6c6572206973206e6f74207468652061646d696e00000000000000000060448201526064016101db565b5f546001600160a01b038281169116146102ce576040805162461bcd60e51b81526020600482015260248101919091527f4578706563746564206e65772061646d696e206279207468652063757272656e60448201527f742061646d696e206973206e6f74207468652070656e64696e672061646d696e60648201526084016101db565b505f546001805473ffffffffffffffffffffffffffffffffffffffff19166001600160a01b03909216919091179055565b365f5f375f5f365f845af43d5f5f3e808015610319573d5ff35b3d5ffd5b6103268161035c565b6040516001600160a01b038216907fbc7cd75a20ee27fd9adebab32041f755214dbc6bffa90cc0225b39da2e5c2d3b905f90a250565b6001600160a01b0381163b6103d95760405162461bcd60e51b815260206004820152603660248201527f5570677261646561626c6550726f78793a206e657720696d706c656d656e746160448201527f74696f6e206973206e6f74206120636f6e74726163740000000000000000000060648201526084016101db565b7f360894a13ba1a3210667c828492db98dca3e2076cc3735a920a3ca505d382bbc55565b5f6020828403121561040d575f5ffd5b81356001600160a01b0381168114610423575f5ffd5b939250505056fea264697066735822122006b54fac74a91687bad4a0eacc6b0df26c3506bb987629cff00edda74bf6ae8964736f6c634300081c0033360894a13ba1a3210667c828492db98dca3e2076cc3735a920a3ca505d382bbc","linkReferences":{}},"methodIdentifiers":{"admin()":"f851a440","approveNewAdmin(address)":"a02fcc0a","pendingAdmin()":"26782247","proposeNewAdmin(address)":"a6376746","upgradeTo(address)":"3659cfe6"},"id":5}