{"abi":[{"type":"constructor","inputs":[{"name":"_target","type":"address","internalType":"address"}],"stateMutability":"nonpayable"},{"type":"function","name":"drain","inputs":[],"outputs":[],"stateMutability":"nonpayable"},{"type":"function","name":"target","inputs":[],"outputs":[{"name":"","type":"address","internalType":"contract IDex"}],"stateMutability":"view"}],"bytecode":{"object":"0x60a060405234801561000f575f5ffd5b5060405161061338038061061383398101604081905261002e9161003f565b6001600160a01b031660805261006c565b5f6020828403121561004f575f5ffd5b81516001600160a01b0381168114610065575f5ffd5b9392505050565b6080516105596100ba5f395f818160470152818160880152818161010b015281816101a301528181610234015281816102c40152818161034f015281816103f6015261047b01526105595ff3fe608060405234801561000f575f5ffd5b5060043610610034575f3560e01c80639890220b14610038578063d4b8399214610042575b5f5ffd5b610040610085565b005b6100697f000000000000000000000000000000000000000000000000000000000000000081565b6040516001600160a01b03909116815260200160405180910390f35b5f7f00000000000000000000000000000000000000000000000000000000000000006001600160a01b031663d21220a76040518163ffffffff1660e01b8152600401602060405180830381865afa1580156100e2573d5f5f3e3d5ffd5b505050506040513d601f19601f8201168201806040525081019061010691906104df565b90505f7f00000000000000000000000000000000000000000000000000000000000000006001600160a01b03166325be124e6040518163ffffffff1660e01b8152600401602060405180830381865afa158015610165573d5f5f3e3d5ffd5b505050506040513d601f19601f8201168201806040525081019061018991906104df565b90505b6040516370a0823160e01b81526001600160a01b037f0000000000000000000000000000000000000000000000000000000000000000811660048301528316906370a0823190602401602060405180830381865afa1580156101f0573d5f5f3e3d5ffd5b505050506040513d601f19601f82011682018060405250810190610214919061050c565b158015906102a857506040516370a0823160e01b81526001600160a01b037f0000000000000000000000000000000000000000000000000000000000000000811660048301528216906370a0823190602401602060405180830381865afa158015610281573d5f5f3e3d5ffd5b505050506040513d601f19601f820116820180604052508101906102a5919061050c565b15155b156104db576040516370a0823160e01b81526001600160a01b037f0000000000000000000000000000000000000000000000000000000000000000811660048301525f91908416906370a0823190602401602060405180830381865afa158015610314573d5f5f3e3d5ffd5b505050506040513d601f19601f82011682018060405250810190610338919061050c565b6040516370a0823160e01b81526001600160a01b037f0000000000000000000000000000000000000000000000000000000000000000811660048301529192505f918416906370a0823190602401602060405180830381865afa1580156103a1573d5f5f3e3d5ffd5b505050506040513d601f19601f820116820180604052508101906103c5919061050c565b604051630df791e560e41b81526001600160a01b0386811660048301528581166024830152604482018590529192507f00000000000000000000000000000000000000000000000000000000000000009091169063df791e50906064015f604051808303815f87803b158015610439575f5ffd5b505af115801561044b573d5f5f3e3d5ffd5b5050604051630df791e560e41b81526001600160a01b0386811660048301528781166024830152604482018590527f000000000000000000000000000000000000000000000000000000000000000016925063df791e5091506064015f604051808303815f87803b1580156104be575f5ffd5b505af11580156104d0573d5f5f3e3d5ffd5b50505050505061018c565b5050565b5f602082840312156104ef575f5ffd5b81516001600160a01b0381168114610505575f5ffd5b9392505050565b5f6020828403121561051c575f5ffd5b505191905056fea26469706673582212209e69027912dc2ee038518fc73572251c700ecc064306ffeda94d8bbc27c8679c64736f6c634300081c0033","linkReferences":{}},"methodIdentifiers":{"drain()":"9890220b","target()":"d4b83992"},"id":1}