{"abi":[{"type":"function","name":"attackBuy","inputs":[],"outputs":[],"stateMutability":"nonpayable"},{"type":"function","name":"price","inputs":[],"outputs":[{"name":"","type":"uint256","internalType":"uint256"}],"stateMutability":"view"},{"type":"function","name":"shopContractAddress","inputs":[],"outputs":[{"name":"","type":"address","internalType":"address"}],"stateMutability":"view"}],"bytecode":{"object":"0x60806040525f80546001600160a01b03191673a16e02e87b7454126e5e10d957a927a7f5b5d2be1790553480156033575f5ffd5b506101c8806100415f395ff3fe608060405234801561000f575f5ffd5b506004361061003f575f3560e01c8063259e31ac146100435780633f06a5511461004d578063a035b1fe1461007c575b5f5ffd5b61004b610092565b005b5f5461005f906001600160a01b031681565b6040516001600160a01b0390911681526020015b60405180910390f35b610084610102565b604051908152602001610073565b5f8054604080517fa6f2ae3a00000000000000000000000000000000000000000000000000000000815290516001600160a01b039092169263a6f2ae3a9260048084019382900301818387803b1580156100ea575f5ffd5b505af11580156100fc573d5f5f3e3d5ffd5b50505050565b5f5f5f9054906101000a90046001600160a01b03166001600160a01b031663a035b1fe6040518163ffffffff1660e01b8152600401602060405180830381865afa158015610152573d5f5f3e3d5ffd5b505050506040513d601f19601f82011682018060405250810190610176919061017b565b905090565b5f6020828403121561018b575f5ffd5b505191905056fea2646970667358221220a247684aba948f962d270b44e392927c99983fc3bf10a5751441bed51a505b1b64736f6c634300081c0033","linkReferences":{}},"methodIdentifiers":{"attackBuy()":"259e31ac","price()":"a035b1fe","shopContractAddress()":"3f06a551"},"id":0}