{"abi":[{"type":"function","name":"getCode","inputs":[{"name":"addr","type":"address","internalType":"address"}],"outputs":[{"name":"","type":"bytes","internalType":"bytes"}],"stateMutability":"view"},{"type":"function","name":"getCodeSize","inputs":[{"name":"addr","type":"address","internalType":"address"}],"outputs":[{"name":"","type":"uint256","internalType":"uint256"}],"stateMutability":"view"}],"bytecode":{"object":"0x6080604052348015600e575f5ffd5b506101c38061001c5f395ff3fe608060405234801561000f575f5ffd5b5060043610610034575f3560e01c80637e105ce214610038578063b51c4f9614610061575b5f5ffd5b61004b6100463660046100db565b610081565b6040516100589190610115565b60405180910390f35b61007361006f3660046100db565b3b90565b604051908152602001610058565b6060813b5f8167ffffffffffffffff81111561009f5761009f610160565b6040519080825280601f01601f1916602001820160405280156100c9576020820181803683370190505b509050815f60208301863c9392505050565b5f602082840312156100eb575f5ffd5b813573ffffffffffffffffffffffffffffffffffffffff8116811461010e575f5ffd5b9392505050565b602081525f82518060208401525f5b818110156101415760208186018101516040868401015201610124565b505f604082850101526040601f19601f83011684010191505092915050565b7f4e487b71000000000000000000000000000000000000000000000000000000005f52604160045260245ffdfea2646970667358221220d405a9e2ec9deea89f20735182f768df29463f039c752003ad3cb1056a04860664736f6c634300081c0033","linkReferences":{}},"methodIdentifiers":{"getCode(address)":"7e105ce2","getCodeSize(address)":"b51c4f96"},"id":0}