{"abi":[{"type":"function","name":"setTime","inputs":[{"name":"_time","type":"uint256","internalType":"uint256"}],"outputs":[],"stateMutability":"nonpayable"}],"bytecode":{"object":"0x6080604052348015600e575f5ffd5b50608780601a5f395ff3fe6080604052348015600e575f5ffd5b50600436106026575f3560e01c80633beb26c414602a575b5f5ffd5b60396035366004603b565b5f55565b005b5f60208284031215604a575f5ffd5b503591905056fea26469706673582212203d58f4c8053826b14a31e8fd9056ac5824166ec4197396bb310df791e31905ad64736f6c634300081c0033","linkReferences":{}},"methodIdentifiers":{"setTime(uint256)":"3beb26c4"},"id":2}