{"abi":[{"type":"constructor","inputs":[{"name":"recipient","type":"address","internalType":"address"}],"stateMutability":"nonpayable"},{"type":"function","name":"setUnderlying","inputs":[{"name":"latestToken","type":"address","internalType":"address"}],"outputs":[],"stateMutability":"nonpayable"},{"type":"function","name":"sweepToken","inputs":[{"name":"token","type":"address","internalType":"contract IERC20"}],"outputs":[],"stateMutability":"nonpayable"},{"type":"function","name":"sweptTokensRecipient","inputs":[],"outputs":[{"name":"","type":"address","internalType":"address"}],"stateMutability":"view"},{"type":"function","name":"underlying","inputs":[],"outputs":[{"name":"","type":"address","internalType":"contract IERC20"}],"stateMutability":"view"}],"bytecode":{"object":"0x6080604052348015600e575f5ffd5b506040516103ed3803806103ed833981016040819052602b91604e565b5f80546001600160a01b0319166001600160a01b03929092169190911790556079565b5f60208284031215605d575f5ffd5b81516001600160a01b03811681146072575f5ffd5b9392505050565b610367806100865f395ff3fe608060405234801561000f575f5ffd5b506004361061004a575f3560e01c80631be195601461004e5780633234a197146100635780636f307dc314610091578063bdb2321f146100a4575b5f5ffd5b61006161005c3660046102d9565b6100b7565b005b5f54610075906001600160a01b031681565b6040516001600160a01b03909116815260200160405180910390f35b600154610075906001600160a01b031681565b6100616100b23660046102d9565b61022f565b6001546001600160a01b039081169082160361011a5760405162461bcd60e51b815260206004820152601f60248201527f43616e2774207472616e7366657220756e6465726c79696e6720746f6b656e0060448201526064015b60405180910390fd5b5f546040517f70a082310000000000000000000000000000000000000000000000000000000081523060048201526001600160a01b038381169263a9059cbb9291169083906370a0823190602401602060405180830381865afa158015610183573d5f5f3e3d5ffd5b505050506040513d601f19601f820116820180604052508101906101a791906102fb565b6040517fffffffff0000000000000000000000000000000000000000000000000000000060e085901b1681526001600160a01b03909216600483015260248201526044016020604051808303815f875af1158015610207573d5f5f3e3d5ffd5b505050506040513d601f19601f8201168201806040525081019061022b9190610312565b5050565b6001546001600160a01b0316156102885760405162461bcd60e51b815260206004820152600b60248201527f416c7265616479207365740000000000000000000000000000000000000000006044820152606401610111565b600180547fffffffffffffffffffffffff0000000000000000000000000000000000000000166001600160a01b0392909216919091179055565b6001600160a01b03811681146102d6575f5ffd5b50565b5f602082840312156102e9575f5ffd5b81356102f4816102c2565b9392505050565b5f6020828403121561030b575f5ffd5b5051919050565b5f60208284031215610322575f5ffd5b815180151581146102f4575f5ffdfea264697066735822122004a6957951dcacb96e5ac170c65fa3c01aeaba88dd43b809fbde1fd52d2ff49464736f6c634300081c0033","linkReferences":{}},"methodIdentifiers":{"setUnderlying(address)":"bdb2321f","sweepToken(address)":"1be19560","sweptTokensRecipient()":"3234a197","underlying()":"6f307dc3"},"id":5}