{"abi":[{"type":"function","name":"botRaisedAlerts","inputs":[{"name":"","type":"address","internalType":"address"}],"outputs":[{"name":"","type":"uint256","internalType":"uint256"}],"stateMutability":"view"},{"type":"function","name":"notify","inputs":[{"name":"user","type":"address","internalType":"address"},{"name":"msgData","type":"bytes","internalType":"bytes"}],"outputs":[],"stateMutability":"nonpayable"},{"type":"function","name":"raiseAlert","inputs":[{"name":"user","type":"address","internalType":"address"}],"outputs":[],"stateMutability":"nonpayable"},{"type":"function","name":"setDetectionBot","inputs":[{"name":"detectionBotAddress","type":"address","internalType":"address"}],"outputs":[],"stateMutability":"nonpayable"},{"type":"function","name":"usersDetectionBots","inputs":[{"name":"","type":"address","internalType":"address"}],"outputs":[{"name":"","type":"address","internalType":"contract IDetectionBot"}],"stateMutability":"view"}],"bytecode":{"object":"0x6080604052348015600e575f5ffd5b506103b98061001c5f395ff3fe608060405234801561000f575f5ffd5b5060043610610064575f3560e01c80639e927c681161004d5780639e927c68146100c2578063dc702fa014610116578063fa1fd28c14610143575f5ffd5b8063087a43c1146100685780639e1083ca1461007d575b5f5ffd5b61007b610076366004610269565b610156565b005b6100a561008b366004610269565b5f602081905290815260409020546001600160a01b031681565b6040516001600160a01b0390911681526020015b60405180910390f35b61007b6100d0366004610269565b335f90815260208190526040902080547fffffffffffffffffffffffff0000000000000000000000000000000000000000166001600160a01b0392909216919091179055565b610135610124366004610269565b60016020525f908152604090205481565b6040519081526020016100b9565b61007b610151366004610289565b6101a2565b6001600160a01b038181165f908152602081905260409020541633146101795750565b335f908152600160208190526040822080549192909161019a908490610307565b909155505050565b6001600160a01b038381165f90815260208190526040902054166101c557505050565b6001600160a01b038084165f90815260208190526040908190205490517f220ab6aa00000000000000000000000000000000000000000000000000000000815291169063220ab6aa9061022090869086908690600401610345565b5f604051808303815f87803b158015610237575f5ffd5b505af1925050508015610248575060015b50505050565b80356001600160a01b0381168114610264575f5ffd5b919050565b5f60208284031215610279575f5ffd5b6102828261024e565b9392505050565b5f5f5f6040848603121561029b575f5ffd5b6102a48461024e565b9250602084013567ffffffffffffffff8111156102bf575f5ffd5b8401601f810186136102cf575f5ffd5b803567ffffffffffffffff8111156102e5575f5ffd5b8660208284010111156102f6575f5ffd5b939660209190910195509293505050565b8082018082111561033f577f4e487b71000000000000000000000000000000000000000000000000000000005f52601160045260245ffd5b92915050565b6001600160a01b038416815260406020820152816040820152818360608301375f818301606090810191909152601f909201601f191601019291505056fea26469706673582212205bcae873b5b3f4a318002b86ddbb43d699eac7a64374c4e63a16fa8346128cdb64736f6c634300081c0033","linkReferences":{}},"methodIdentifiers":{"botRaisedAlerts(address)":"dc702fa0","notify(address,bytes)":"fa1fd28c","raiseAlert(address)":"087a43c1","setDetectionBot(address)":"9e927c68","usersDetectionBots(address)":"9e1083ca"},"id":5}