{"abi":[{"type":"function","name":"allowance","inputs":[{"name":"owner","type":"address","internalType":"address"},{"name":"spender","type":"address","internalType":"address"}],"outputs":[{"name":"","type":"uint256","internalType":"uint256"}],"stateMutability":"view"},{"type":"function","name":"approve","inputs":[{"name":"spender","type":"address","internalType":"address"},{"name":"amount","type":"uint256","internalType":"uint256"}],"outputs":[{"name":"","type":"bool","internalType":"bool"}],"stateMutability":"nonpayable"},{"type":"function","name":"balanceOf","inputs":[{"name":"account","type":"address","internalType":"address"}],"outputs":[{"name":"","type":"uint256","internalType":"uint256"}],"stateMutability":"view"},{"type":"function","name":"decimals","inputs":[],"outputs":[{"name":"","type":"uint8","internalType":"uint8"}],"stateMutability":"view"},{"type":"function","name":"decreaseAllowance","inputs":[{"name":"spender","type":"address","internalType":"address"},{"name":"subtractedValue","type":"uint256","internalType":"uint256"}],"outputs":[{"name":"","type":"bool","internalType":"bool"}],"stateMutability":"nonpayable"},{"type":"function","name":"delegate","inputs":[],"outputs":[{"name":"","type":"address","internalType":"contract DelegateERC20"}],"stateMutability":"view"},{"type":"function","name":"delegateToNewContract","inputs":[{"name":"newContract","type":"address","internalType":"contract DelegateERC20"}],"outputs":[],"stateMutability":"nonpayable"},{"type":"function","name":"increaseAllowance","inputs":[{"name":"spender","type":"address","internalType":"address"},{"name":"addedValue","type":"uint256","internalType":"uint256"}],"outputs":[{"name":"","type":"bool","internalType":"bool"}],"stateMutability":"nonpayable"},{"type":"function","name":"mint","inputs":[{"name":"to","type":"address","internalType":"address"},{"name":"amount","type":"uint256","internalType":"uint256"}],"outputs":[],"stateMutability":"nonpayable"},{"type":"function","name":"name","inputs":[],"outputs":[{"name":"","type":"string","internalType":"string"}],"stateMutability":"view"},{"type":"function","name":"owner","inputs":[],"outputs":[{"name":"","type":"address","internalType":"address"}],"stateMutability":"view"},{"type":"function","name":"renounceOwnership","inputs":[],"outputs":[],"stateMutability":"nonpayable"},{"type":"function","name":"symbol","inputs":[],"outputs":[{"name":"","type":"string","internalType":"string"}],"stateMutability":"view"},{"type":"function","name":"totalSupply","inputs":[],"outputs":[{"name":"","type":"uint256","internalType":"uint256"}],"stateMutability":"view"},{"type":"function","name":"transfer","inputs":[{"name":"to","type":"address","internalType":"address"},{"name":"value","type":"uint256","internalType":"uint256"}],"outputs":[{"name":"","type":"bool","internalType":"bool"}],"stateMutability":"nonpayable"},{"type":"function","name":"transferFrom","inputs":[{"name":"from","type":"address","internalType":"address"},{"name":"to","type":"address","internalType":"address"},{"name":"amount","type":"uint256","internalType":"uint256"}],"outputs":[{"name":"","type":"bool","internalType":"bool"}],"stateMutability":"nonpayable"},{"type":"function","name":"transferOwnership","inputs":[{"name":"newOwner","type":"address","internalType":"address"}],"outputs":[],"stateMutability":"nonpayable"},{"type":"event","name":"Approval","inputs":[{"name":"owner","type":"address","indexed":true,"internalType":"address"},{"name":"spender","type":"address","indexed":true,"internalType":"address"},{"name":"value","type":"uint256","indexed":false,"internalType":"uint256"}],"anonymous":false},{"type":"event","name":"OwnershipTransferred","inputs":[{"name":"previousOwner","type":"address","indexed":true,"internalType":"address"},{"name":"newOwner","type":"address","indexed":true,"internalType":"address"}],"anonymous":false},{"type":"event","name":"Transfer","inputs":[{"name":"from","type":"address","indexed":true,"internalType":"address"},{"name":"to","type":"address","indexed":true,"internalType":"address"},{"name":"value","type":"uint256","indexed":false,"internalType":"uint256"}],"anonymous":false}],"bytecode":{"object":"0x608060405234801561000f575f5ffd5b506040518060400160405280600b81526020016a2632b3b0b1bcaa37b5b2b760a91b815250604051806040016040528060038152602001621311d560ea1b815250816003908161005f9190610177565b50600461006c8282610177565b50505061008561008061008a60201b60201c565b61008e565b610231565b3390565b600580546001600160a01b038381166001600160a01b0319831681179093556040519116919082907f8be0079c531659141344cd1fd0a4f28419497f9722a3daafe3b4186f6b6457e0905f90a35050565b634e487b7160e01b5f52604160045260245ffd5b600181811c9082168061010757607f821691505b60208210810361012557634e487b7160e01b5f52602260045260245ffd5b50919050565b601f82111561017257805f5260205f20601f840160051c810160208510156101505750805b601f840160051c820191505b8181101561016f575f815560010161015c565b50505b505050565b81516001600160401b03811115610190576101906100df565b6101a48161019e84546100f3565b8461012b565b6020601f8211600181146101d6575f83156101bf5750848201515b5f19600385901b1c1916600184901b17845561016f565b5f84815260208120601f198516915b8281101561020557878501518255602094850194600190920191016101e5565b508482101561022257868401515f19600387901b60f8161c191681555b50505050600190811b01905550565b610d808061023e5f395ff3fe608060405234801561000f575f5ffd5b5060043610610115575f3560e01c806370a08231116100ad578063a457c2d71161007d578063c89e436111610063578063c89e43611461024c578063dd62ed3e1461025f578063f2fde38b14610297575f5ffd5b8063a457c2d714610226578063a9059cbb14610239575f5ffd5b806370a08231146101c9578063715018a6146101f15780638da5cb5b146101f957806395d89b411461021e575f5ffd5b806323b872dd116100e857806323b872dd14610181578063313ce5671461019457806339509351146101a357806340c10f19146101b6575f5ffd5b806306fdde0314610119578063095ea7b31461013757806318160ddd1461015a5780631d2d84001461016c575b5f5ffd5b6101216102aa565b60405161012e9190610bb4565b60405180910390f35b61014a610145366004610c13565b61033a565b604051901515815260200161012e565b6002545b60405190815260200161012e565b61017f61017a366004610c3d565b610353565b005b61014a61018f366004610c5f565b61038a565b6040516012815260200161012e565b61014a6101b1366004610c13565b6103ad565b61017f6101c4366004610c13565b6103eb565b61015e6101d7366004610c3d565b6001600160a01b03165f9081526020819052604090205490565b61017f610401565b6005546001600160a01b03165b6040516001600160a01b03909116815260200161012e565b610121610414565b61014a610234366004610c13565b610423565b61014a610247366004610c13565b6104d1565b600654610206906001600160a01b031681565b61015e61026d366004610c9d565b6001600160a01b039182165f90815260016020908152604080832093909416825291909152205490565b61017f6102a5366004610c3d565b610587565b6060600380546102b990610cd4565b80601f01602080910402602001604051908101604052809291908181526020018280546102e590610cd4565b80156103305780601f1061030757610100808354040283529160200191610330565b820191905f5260205f20905b81548152906001019060200180831161031357829003601f168201915b5050505050905090565b5f33610347818585610617565b60019150505b92915050565b61035b61076e565b6006805473ffffffffffffffffffffffffffffffffffffffff19166001600160a01b0392909216919091179055565b5f336103978582856107c8565b6103a2858585610858565b506001949350505050565b335f8181526001602090815260408083206001600160a01b038716845290915281205490919061034790829086906103e6908790610d0c565b610617565b6103f361076e565b6103fd8282610a6d565b5050565b61040961076e565b6104125f610b49565b565b6060600480546102b990610cd4565b335f8181526001602090815260408083206001600160a01b0387168452909152812054909190838110156104c45760405162461bcd60e51b815260206004820152602560248201527f45524332303a2064656372656173656420616c6c6f77616e63652062656c6f7760448201527f207a65726f00000000000000000000000000000000000000000000000000000060648201526084015b60405180910390fd5b6103a28286868403610617565b6006545f906001600160a01b03166104f4576104ed8383610ba7565b905061034d565b6006546040517f9cd1a1210000000000000000000000000000000000000000000000000000000081526001600160a01b0385811660048301526024820185905233604483015290911690639cd1a121906064016020604051808303815f875af1158015610563573d5f5f3e3d5ffd5b505050506040513d601f19601f820116820180604052508101906104ed9190610d2b565b61058f61076e565b6001600160a01b03811661060b5760405162461bcd60e51b815260206004820152602660248201527f4f776e61626c653a206e6577206f776e657220697320746865207a65726f206160448201527f646472657373000000000000000000000000000000000000000000000000000060648201526084016104bb565b61061481610b49565b50565b6001600160a01b0383166106925760405162461bcd60e51b8152602060048201526024808201527f45524332303a20617070726f76652066726f6d20746865207a65726f2061646460448201527f726573730000000000000000000000000000000000000000000000000000000060648201526084016104bb565b6001600160a01b03821661070e5760405162461bcd60e51b815260206004820152602260248201527f45524332303a20617070726f766520746f20746865207a65726f20616464726560448201527f737300000000000000000000000000000000000000000000000000000000000060648201526084016104bb565b6001600160a01b038381165f8181526001602090815260408083209487168084529482529182902085905590518481527f8c5be1e5ebec7d5bd14f71427d1e84f3dd0314c0f7b2291e5b200ac8c7c3b925910160405180910390a3505050565b6005546001600160a01b031633146104125760405162461bcd60e51b815260206004820181905260248201527f4f776e61626c653a2063616c6c6572206973206e6f7420746865206f776e657260448201526064016104bb565b6001600160a01b038381165f908152600160209081526040808320938616835292905220545f19811461085257818110156108455760405162461bcd60e51b815260206004820152601d60248201527f45524332303a20696e73756666696369656e7420616c6c6f77616e636500000060448201526064016104bb565b6108528484848403610617565b50505050565b6001600160a01b0383166108d45760405162461bcd60e51b815260206004820152602560248201527f45524332303a207472616e736665722066726f6d20746865207a65726f20616460448201527f647265737300000000000000000000000000000000000000000000000000000060648201526084016104bb565b6001600160a01b0382166109505760405162461bcd60e51b815260206004820152602360248201527f45524332303a207472616e7366657220746f20746865207a65726f206164647260448201527f657373000000000000000000000000000000000000000000000000000000000060648201526084016104bb565b6001600160a01b0383165f90815260208190526040902054818110156109de5760405162461bcd60e51b815260206004820152602660248201527f45524332303a207472616e7366657220616d6f756e742065786365656473206260448201527f616c616e6365000000000000000000000000000000000000000000000000000060648201526084016104bb565b6001600160a01b038085165f90815260208190526040808220858503905591851681529081208054849290610a14908490610d0c565b92505081905550826001600160a01b0316846001600160a01b03167fddf252ad1be2c89b69c2b068fc378daa952ba7f163c4a11628f55a4df523b3ef84604051610a6091815260200190565b60405180910390a3610852565b6001600160a01b038216610ac35760405162461bcd60e51b815260206004820152601f60248201527f45524332303a206d696e7420746f20746865207a65726f20616464726573730060448201526064016104bb565b8060025f828254610ad49190610d0c565b90915550506001600160a01b0382165f9081526020819052604081208054839290610b00908490610d0c565b90915550506040518181526001600160a01b038316905f907fddf252ad1be2c89b69c2b068fc378daa952ba7f163c4a11628f55a4df523b3ef9060200160405180910390a35050565b600580546001600160a01b0383811673ffffffffffffffffffffffffffffffffffffffff19831681179093556040519116919082907f8be0079c531659141344cd1fd0a4f28419497f9722a3daafe3b4186f6b6457e0905f90a35050565b5f33610347818585610858565b602081525f82518060208401525f5b81811015610be05760208186018101516040868401015201610bc3565b505f604082850101526040601f19601f83011684010191505092915050565b6001600160a01b0381168114610614575f5ffd5b5f5f60408385031215610c24575f5ffd5b8235610c2f81610bff565b946020939093013593505050565b5f60208284031215610c4d575f5ffd5b8135610c5881610bff565b9392505050565b5f5f5f60608486031215610c71575f5ffd5b8335610c7c81610bff565b92506020840135610c8c81610bff565b929592945050506040919091013590565b5f5f60408385031215610cae575f5ffd5b8235610cb981610bff565b91506020830135610cc981610bff565b809150509250929050565b600181811c90821680610ce857607f821691505b602082108103610d0657634e487b7160e01b5f52602260045260245ffd5b50919050565b8082018082111561034d57634e487b7160e01b5f52601160045260245ffd5b5f60208284031215610d3b575f5ffd5b81518015158114610c58575f5ffdfea264697066735822122061d71ac08354f5990b72ad6c5ed0e14fdebb10dd995fa7b19c5819e99cdd705a64736f6c634300081c0033","linkReferences":{}},"methodIdentifiers":{"allowance(address,address)":"dd62ed3e","approve(address,uint256)":"095ea7b3","balanceOf(address)":"70a08231","decimals()":"313ce567","decreaseAllowance(address,uint256)":"a457c2d7","delegate()":"c89e4361","delegateToNewContract(address)":"1d2d8400","increaseAllowance(address,uint256)":"39509351","mint(address,uint256)":"40c10f19","name()":"06fdde03","owner()":"8da5cb5b","renounceOwnership()":"715018a6","symbol()":"95d89b41","totalSupply()":"18160ddd","transfer(address,uint256)":"a9059cbb","transferFrom(address,address,uint256)":"23b872dd","transferOwnership(address)":"f2fde38b"},"id":5}