{"abi":[{"type":"function","name":"testEncode","inputs":[{"name":"r","type":"uint256","internalType":"uint256"},{"name":"s","type":"uint256","internalType":"uint256"},{"name":"v","type":"uint256","internalType":"uint256"}],"outputs":[{"name":"","type":"bytes","internalType":"bytes"}],"stateMutability":"pure"},{"type":"function","name":"testEncodeProper","inputs":[{"name":"r","type":"uint256","internalType":"uint256"},{"name":"s","type":"uint256","internalType":"uint256"},{"name":"v","type":"uint256","internalType":"uint256"}],"outputs":[{"name":"","type":"bytes","internalType":"bytes"}],"stateMutability":"pure"},{"type":"function","name":"testHash","inputs":[{"name":"r","type":"uint256","internalType":"uint256"},{"name":"s","type":"uint256","internalType":"uint256"},{"name":"v","type":"uint256","internalType":"uint256"}],"outputs":[{"name":"","type":"bytes32","internalType":"bytes32"}],"stateMutability":"pure"}],"bytecode":{"object":"0x6080604052348015600e575f5ffd5b506102288061001c5f395ff3fe608060405234801561000f575f5ffd5b506004361061003f575f3560e01c8063193d5d081461004357806343a2c1921461006c578063acfc1eff1461008d575b5f5ffd5b61005661005136600461014e565b6100a0565b6040516100639190610177565b60405180910390f35b61007f61007a36600461014e565b6100d6565b604051908152602001610063565b61005661009b36600461014e565b610121565b60408051602081018590529081018390526060818101839052906080015b60405160208183030381529060405290509392505050565b5f60405180606001604052808581526020018481526020018381525060405160200161010291906101c2565b6040516020818303038152906040528051906020012090509392505050565b60606040518060600160405280858152602001848152602001838152506040516020016100be91906101c2565b5f5f5f60608486031215610160575f5ffd5b505081359360208301359350604090920135919050565b602081525f82518060208401525f5b818110156101a35760208186018101516040868401015201610186565b505f604082850101526040601f19601f83011684010191505092915050565b6060810181835f5b60038110156101e95781518352602092830192909101906001016101ca565b5050509291505056fea2646970667358221220a3e9a788ea8bd8950b0c67302ec7b496d24c7e3e6bec8210d8d83bdb592f620b64736f6c634300081c0033","linkReferences":{}},"methodIdentifiers":{"testEncode(uint256,uint256,uint256)":"acfc1eff","testEncodeProper(uint256,uint256,uint256)":"193d5d08","testHash(uint256,uint256,uint256)":"43a2c192"},"id":0}