{"abi":[{"type":"constructor","inputs":[{"name":"_elevator","type":"address","internalType":"address"}],"stateMutability":"nonpayable"},{"type":"function","name":"attack","inputs":[],"outputs":[],"stateMutability":"nonpayable"},{"type":"function","name":"elevator","inputs":[],"outputs":[{"name":"","type":"address","internalType":"address"}],"stateMutability":"view"},{"type":"function","name":"isLastFloor","inputs":[{"name":"","type":"uint256","internalType":"uint256"}],"outputs":[{"name":"","type":"bool","internalType":"bool"}],"stateMutability":"nonpayable"}],"bytecode":{"object":"0x60a06040525f805460ff191690553480156017575f5ffd5b506040516102ba3803806102ba8339810160408190526034916044565b6001600160a01b0316608052606f565b5f602082840312156053575f5ffd5b81516001600160a01b03811681146068575f5ffd5b9392505050565b60805161022d61008d5f395f8181607a015261012e015261022d5ff3fe608060405234801561000f575f5ffd5b506004361061003f575f3560e01c80635f9a4bca146100435780639e5faafc1461006b578063b0cb4ff014610075575b5f5ffd5b61005661005136600461019c565b6100c1565b60405190151581526020015b60405180910390f35b6100736100fe565b005b61009c7f000000000000000000000000000000000000000000000000000000000000000081565b60405173ffffffffffffffffffffffffffffffffffffffff9091168152602001610062565b5f805460ff16801590600190839081906100dc9084906101b3565b92506101000a81548160ff021916908360ff1602179055508015915050919050565b6040517fed9a713400000000000000000000000000000000000000000000000000000000815261053960048201527f000000000000000000000000000000000000000000000000000000000000000073ffffffffffffffffffffffffffffffffffffffff169063ed9a7134906024015f604051808303815f87803b158015610184575f5ffd5b505af1158015610196573d5f5f3e3d5ffd5b50505050565b5f602082840312156101ac575f5ffd5b5035919050565b60ff81811683821601908111156101f1577f4e487b71000000000000000000000000000000000000000000000000000000005f52601160045260245ffd5b9291505056fea26469706673582212202a4541b994b350953658e221556c3b1a39c2af520883b337a7fca10dad945bc964736f6c634300081c0033","linkReferences":{}},"methodIdentifiers":{"attack()":"9e5faafc","elevator()":"b0cb4ff0","isLastFloor(uint256)":"5f9a4bca"},"id":0}