{"abi":[{"type":"function","name":"magic","inputs":[],"outputs":[{"name":"","type":"bytes32","internalType":"bytes32"}],"stateMutability":"pure"}],"bytecode":{"object":"0x6080604052348015600e575f5ffd5b50609380601a5f395ff3fe6080604052348015600e575f5ffd5b50600436106026575f3560e01c80630d85464614602a575b5f5ffd5b7fac154747a900000000000000000000000000000000000000000000000000000060405190815260200160405180910390f3fea2646970667358221220a50f24178009b698fda7b2b38a6dbf852d80c1bd56dba27904fdf9bbc392828a64736f6c634300081c0033","linkReferences":{}},"methodIdentifiers":{"magic()":"0d854646"},"id":0}