{"abi":[{"type":"constructor","inputs":[],"stateMutability":"nonpayable"},{"type":"function","name":"drain","inputs":[],"outputs":[],"stateMutability":"nonpayable"},{"type":"function","name":"naughtCoin","inputs":[],"outputs":[{"name":"","type":"address","internalType":"contract INaughtCoin"}],"stateMutability":"view"},{"type":"function","name":"player","inputs":[],"outputs":[{"name":"","type":"address","internalType":"address"}],"stateMutability":"view"}],"bytecode":{"object":"0x6080604052600180546001600160a01b03191673f39fd6e51aad88f6f4ce6ab8827279cfffb922661790553480156034575f5ffd5b505f80546001600160a01b03191673a16e02e87b7454126e5e10d957a927a7f5b5d2be1790556101be806100675f395ff3fe608060405234801561000f575f5ffd5b506004361061003f575f3560e01c806348db5f89146100435780636856876d1461008c5780639890220b146100ab575b5f5ffd5b6001546100639073ffffffffffffffffffffffffffffffffffffffff1681565b60405173ffffffffffffffffffffffffffffffffffffffff909116815260200160405180910390f35b5f546100639073ffffffffffffffffffffffffffffffffffffffff1681565b6100b36100b5565b005b5f546001546040517f23b872dd00000000000000000000000000000000000000000000000000000000815273ffffffffffffffffffffffffffffffffffffffff918216600482015230602482015269d3c21bcecceda100000060448201529116906323b872dd906064016020604051808303815f875af115801561013b573d5f5f3e3d5ffd5b505050506040513d601f19601f8201168201806040525081019061015f9190610162565b50565b5f60208284031215610172575f5ffd5b81518015158114610181575f5ffd5b939250505056fea2646970667358221220c62a5c07242235a67cf29ad3e352670dd2cb79b613ade44a426f836999b0279664736f6c634300081c0033","linkReferences":{}},"methodIdentifiers":{"drain()":"9890220b","naughtCoin()":"6856876d","player()":"48db5f89"},"id":0}