{"abi":[{"type":"function","name":"decode","inputs":[{"name":"value","type":"uint256","internalType":"uint256"}],"outputs":[{"name":"owner","type":"address","internalType":"address"},{"name":"nextId","type":"uint16","internalType":"uint16"},{"name":"animal","type":"uint80","internalType":"uint80"}],"stateMutability":"pure"}],"bytecode":{"object":"0x6080604052348015600e575f5ffd5b5060ee8061001b5f395ff3fe6080604052348015600e575f5ffd5b50600436106026575f3560e01c806361a7690014602a575b5f5ffd5b605d603536600460a2565b73ffffffffffffffffffffffffffffffffffffffff81169160a082901c61ffff169160b01c90565b6040805173ffffffffffffffffffffffffffffffffffffffff909416845261ffff909216602084015269ffffffffffffffffffff169082015260600160405180910390f35b5f6020828403121560b1575f5ffd5b503591905056fea2646970667358221220e9cf67db0ff3cfcc06bf7e9901e38379a2bb686f058414957c0a0a921347467164736f6c634300081c0033","linkReferences":{}},"methodIdentifiers":{"decode(uint256)":"61a76900"},"id":0}