{"abi":[{"type":"constructor","inputs":[],"stateMutability":"nonpayable"},{"type":"function","name":"allowance","inputs":[{"name":"","type":"address","internalType":"address"},{"name":"","type":"address","internalType":"address"}],"outputs":[{"name":"","type":"uint256","internalType":"uint256"}],"stateMutability":"view"},{"type":"function","name":"approve","inputs":[{"name":"spender","type":"address","internalType":"address"},{"name":"amount","type":"uint256","internalType":"uint256"}],"outputs":[{"name":"","type":"bool","internalType":"bool"}],"stateMutability":"nonpayable"},{"type":"function","name":"balanceOf","inputs":[{"name":"","type":"address","internalType":"address"}],"outputs":[{"name":"","type":"uint256","internalType":"uint256"}],"stateMutability":"view"},{"type":"function","name":"transfer","inputs":[{"name":"to","type":"address","internalType":"address"},{"name":"amount","type":"uint256","internalType":"uint256"}],"outputs":[{"name":"","type":"bool","internalType":"bool"}],"stateMutability":"nonpayable"},{"type":"function","name":"transferFrom","inputs":[{"name":"from","type":"address","internalType":"address"},{"name":"to","type":"address","internalType":"address"},{"name":"amount","type":"uint256","internalType":"uint256"}],"outputs":[{"name":"","type":"bool","internalType":"bool"}],"stateMutability":"nonpayable"}],"bytecode":{"object":"0x6080604052348015600e575f5ffd5b50335f9081526020819052604090206103e890556104be8061002f5f395ff3fe608060405234801561000f575f5ffd5b5060043610610064575f3560e01c806370a082311161004d57806370a08231146100a3578063a9059cbb146100d0578063dd62ed3e146100e3575f5ffd5b8063095ea7b31461006857806323b872dd14610090575b5f5ffd5b61007b610076366004610382565b61010d565b60405190151581526020015b60405180910390f35b61007b61009e3660046103aa565b61013a565b6100c26100b13660046103e4565b5f6020819052908152604090205481565b604051908152602001610087565b61007b6100de366004610382565b6102b1565b6100c26100f1366004610404565b600160209081525f928352604080842090915290825290205481565b335f9081526001602081815260408084206001600160a01b03871685529091529091208290555b92915050565b6001600160a01b0383165f908152602081905260408120548211156101a65760405162461bcd60e51b815260206004820152601460248201527f496e73756666696369656e742062616c616e636500000000000000000000000060448201526064015b60405180910390fd5b6001600160a01b0384165f9081526001602090815260408083203384529091529020548211156102185760405162461bcd60e51b815260206004820152601660248201527f496e73756666696369656e7420616c6c6f77616e636500000000000000000000604482015260640161019d565b6001600160a01b0384165f908152602081905260408120805484929061023f908490610462565b90915550506001600160a01b0383165f908152602081905260408120805484929061026b908490610475565b90915550506001600160a01b0384165f908152600160209081526040808320338452909152812080548492906102a2908490610462565b90915550600195945050505050565b335f9081526020819052604081205482111561030f5760405162461bcd60e51b815260206004820152601460248201527f496e73756666696369656e742062616c616e6365000000000000000000000000604482015260640161019d565b335f908152602081905260408120805484929061032d908490610462565b90915550506001600160a01b0383165f9081526020819052604081208054849290610359908490610475565b909155506001949350505050565b80356001600160a01b038116811461037d575f5ffd5b919050565b5f5f60408385031215610393575f5ffd5b61039c83610367565b946020939093013593505050565b5f5f5f606084860312156103bc575f5ffd5b6103c584610367565b92506103d360208501610367565b929592945050506040919091013590565b5f602082840312156103f4575f5ffd5b6103fd82610367565b9392505050565b5f5f60408385031215610415575f5ffd5b61041e83610367565b915061042c60208401610367565b90509250929050565b7f4e487b71000000000000000000000000000000000000000000000000000000005f52601160045260245ffd5b8181038181111561013457610134610435565b808201808211156101345761013461043556fea26469706673582212204317781ca3e6fd1f5f0b3515428cf160dbbac0a030344848a1152fdfed54172064736f6c634300081c0033","linkReferences":{}},"methodIdentifiers":{"allowance(address,address)":"dd62ed3e","approve(address,uint256)":"095ea7b3","balanceOf(address)":"70a08231","transfer(address,uint256)":"a9059cbb","transferFrom(address,address,uint256)":"23b872dd"},"id":0}