{"abi":[{"type":"function","name":"destroy","inputs":[],"outputs":[],"stateMutability":"nonpayable"},{"type":"function","name":"findAndExploit","inputs":[],"outputs":[],"stateMutability":"nonpayable"},{"type":"event","name":"EngineFound","inputs":[{"name":"engine","type":"address","indexed":false,"internalType":"address"}],"anonymous":false},{"type":"event","name":"ExploitSuccess","inputs":[{"name":"engine","type":"address","indexed":false,"internalType":"address"}],"anonymous":false}],"bytecode":{"object":"0x608060405234801561001057600080fd5b5061050d806100206000396000f3fe608060405234801561001057600080fd5b50600436106100365760003560e01c806383197ef01461003b578063d83015f814610045575b600080fd5b61004361004d565b005b610043610051565b6000ff5b60408051600580825260c082019092526060916020820160a08036833701905050905073e7f1725e7734ce288f8367e1bb143e90bb3f05128160008151811061009657fe5b60200260200101906001600160a01b031690816001600160a01b031681525050739fe46736679d2d9a65f0992f2272de9f3c7fa6e0816001815181106100d857fe5b60200260200101906001600160a01b031690816001600160a01b03168152505073cf7ed3acca5a467e9e704c703e8d87f634fb0fc98160028151811061011a57fe5b60200260200101906001600160a01b031690816001600160a01b03168152505073dc64a140aa3e981100a9beca4e685f962f0cf6c98160038151811061015c57fe5b60200260200101906001600160a01b031690816001600160a01b031681525050735fc8d32690cc91d4c39d9d3abcbd16989f8757078160048151811061019e57fe5b60200260200101906001600160a01b031690816001600160a01b03168152505060005b81518110156102ba576101e68282815181106101d957fe5b60200260200101516102be565b156102b2577f786f9f5820512d6cca018647beac8737a0717b5d95d40f0d1fe7c25c7cf2494682828151811061021857fe5b602002602001015160405180826001600160a01b0316815260200191505060405180910390a161025a82828151811061024d57fe5b602002602001015161034f565b7f5dc103ff0a80836283ab3ca5e19f27ceb9a0816f32bdf57af0a750830ede723f82828151811061028757fe5b602002602001015160405180826001600160a01b0316815260200191505060405180910390a16102ba565b6001016101c1565b5050565b6000813b806102d157600091505061034a565b826001600160a01b031663564f6d716040518163ffffffff1660e01b815260040160206040518083038186803b15801561030a57600080fd5b505afa92505050801561032f57506040513d602081101561032a57600080fd5b505160015b61033d57600091505061034a565b6103e814915061034a9050565b919050565b806001600160a01b0316638129fc1c6040518163ffffffff1660e01b8152600401600060405180830381600087803b15801561038a57600080fd5b505af115801561039e573d6000803e3d6000fd5b5050604080516004808252602480830184526020830180517bffffffffffffffffffffffffffffffffffffffffffffffffffffffff167f83197ef00000000000000000000000000000000000000000000000000000000017815284517f4f1ef286000000000000000000000000000000000000000000000000000000008152309381018481529281019586528451604482015284516001600160a01b038a169850634f1ef2869750939592936064909101919080838360005b8381101561046f578181015183820152602001610457565b50505050905090810190601f16801561049c5780820380516001836020036101000a031916815260200191505b509350505050600060405180830381600087803b1580156104bc57600080fd5b505af11580156104d0573d6000803e3d6000fd5b505050505056fea264697066735822122018b2f876d4b2dcc36467895632314bf17ca4b63749b3c75aa3133791c426ddca64736f6c634300060c0033","linkReferences":{}},"methodIdentifiers":{"destroy()":"83197ef0","findAndExploit()":"d83015f8"},"id":0}