{"abi":[{"type":"function","name":"floor","inputs":[],"outputs":[{"name":"","type":"uint256","internalType":"uint256"}],"stateMutability":"view"},{"type":"function","name":"goTo","inputs":[{"name":"_floor","type":"uint256","internalType":"uint256"}],"outputs":[],"stateMutability":"nonpayable"},{"type":"function","name":"top","inputs":[],"outputs":[{"name":"","type":"bool","internalType":"bool"}],"stateMutability":"view"}],"bytecode":{"object":"0x6080604052348015600e575f5ffd5b506101f78061001c5f395ff3fe608060405234801561000f575f5ffd5b506004361061003f575f3560e01c80634069536314610043578063ed9a71341461005f578063fe6dcdba14610074575b5f5ffd5b61004c60015481565b6040519081526020015b60405180910390f35b61007261006d366004610184565b610090565b005b5f546100809060ff1681565b6040519015158152602001610056565b604051632fcd25e560e11b81526004810182905233908190635f9a4bca906024016020604051808303815f875af11580156100cd573d5f5f3e3d5ffd5b505050506040513d601f19601f820116820180604052508101906100f1919061019b565b610180576001829055604051632fcd25e560e11b81526004810183905273ffffffffffffffffffffffffffffffffffffffff821690635f9a4bca906024016020604051808303815f875af115801561014b573d5f5f3e3d5ffd5b505050506040513d601f19601f8201168201806040525081019061016f919061019b565b5f805460ff19169115159190911790555b5050565b5f60208284031215610194575f5ffd5b5035919050565b5f602082840312156101ab575f5ffd5b815180151581146101ba575f5ffd5b939250505056fea264697066735822122030044843dd94f529443f05d8ac9ebda26706baebef08a6a278f27283e3566a8f64736f6c634300081c0033","linkReferences":{}},"methodIdentifiers":{"floor()":"40695363","goTo(uint256)":"ed9a7134","top()":"fe6dcdba"},"id":0}