{"abi":[{"type":"constructor","inputs":[{"name":"_denial","type":"address","internalType":"address"}],"stateMutability":"nonpayable"},{"type":"receive","stateMutability":"payable"},{"type":"function","name":"attack","inputs":[],"outputs":[],"stateMutability":"nonpayable"},{"type":"function","name":"setPartner","inputs":[{"name":"denial","type":"address","internalType":"address"}],"outputs":[],"stateMutability":"nonpayable"}],"bytecode":{"object":"0x60a0604052348015600e575f5ffd5b5060405161048c38038061048c833981016040819052602b91603b565b6001600160a01b03166080526066565b5f60208284031215604a575f5ffd5b81516001600160a01b0381168114605f575f5ffd5b9392505050565b6080516104086100845f395f8181609c015261013101526104085ff3fe60806040526004361061002b575f3560e01c80639e5faafc14610064578063a16d596014610078575f5ffd5b36610060575f5b61271081101561005e575f610047828061033c565b9050610054600182610359565b5050600101610032565b005b5f5ffd5b34801561006f575f5ffd5b5061005e610097565b348015610083575f5ffd5b5061005e61009236600461036c565b6101f3565b6100c07f00000000000000000000000000000000000000000000000000000000000000006101f3565b60408051600481526024810182526020810180517bffffffffffffffffffffffffffffffffffffffffffffffffffffffff167f3ccfd60b0000000000000000000000000000000000000000000000000000000017905290515f9173ffffffffffffffffffffffffffffffffffffffff7f0000000000000000000000000000000000000000000000000000000000000000169161015c91906103a6565b5f604051808303815f865af19150503d805f8114610195576040519150601f19603f3d011682016040523d82523d5f602084013e61019a565b606091505b50509050806101f05760405162461bcd60e51b815260206004820152601760248201527f4669727374207769746864726177616c206661696c656400000000000000000060448201526064015b60405180910390fd5b50565b6040513060248201525f9073ffffffffffffffffffffffffffffffffffffffff83169060440160408051601f198184030181529181526020820180517bffffffffffffffffffffffffffffffffffffffffffffffffffffffff167f4e1c5914000000000000000000000000000000000000000000000000000000001790525161027c91906103a6565b5f604051808303815f865af19150503d805f81146102b5576040519150601f19603f3d011682016040523d82523d5f602084013e6102ba565b606091505b505090508061030b5760405162461bcd60e51b815260206004820152601260248201527f53657420706172746e6572206661696c6564000000000000000000000000000060448201526064016101e7565b5050565b7f4e487b71000000000000000000000000000000000000000000000000000000005f52601160045260245ffd5b80820281158282048414176103535761035361030f565b92915050565b808201808211156103535761035361030f565b5f6020828403121561037c575f5ffd5b813573ffffffffffffffffffffffffffffffffffffffff8116811461039f575f5ffd5b9392505050565b5f82515f5b818110156103c557602081860181015185830152016103ab565b505f92019182525091905056fea2646970667358221220af98e3128000c5441d0b4468f576aba0c71a46f2c87db075164cbd4bfdf84bd464736f6c634300081c0033","linkReferences":{}},"methodIdentifiers":{"attack()":"9e5faafc","setPartner(address)":"a16d5960"},"id":0}