{"abi":[{"type":"constructor","inputs":[{"name":"_denial","type":"address","internalType":"address payable"}],"stateMutability":"nonpayable"},{"type":"fallback","stateMutability":"payable"},{"type":"receive","stateMutability":"payable"},{"type":"function","name":"denial","inputs":[],"outputs":[{"name":"","type":"address","internalType":"address"}],"stateMutability":"view"},{"type":"function","name":"setPartner","inputs":[],"outputs":[],"stateMutability":"nonpayable"}],"bytecode":{"object":"0x6080604052348015600e575f5ffd5b50604051610335380380610335833981016040819052602b91604e565b5f80546001600160a01b0319166001600160a01b03929092169190911790556079565b5f60208284031215605d575f5ffd5b81516001600160a01b03811681146072575f5ffd5b9392505050565b6102af806100865f395ff3fe60806040526004361061002c575f3560e01c80632c88c5f8146100c657806377fa5295146100dc5761007e565b3661007e5760405162461bcd60e51b815260206004820152600e60248201527f41747461636b207265636569766500000000000000000000000000000000000060448201526064015b60405180910390fd5b60405162461bcd60e51b815260206004820152600660248201527f41747461636b00000000000000000000000000000000000000000000000000006044820152606401610075565b3480156100d1575f5ffd5b506100da610130565b005b3480156100e7575f5ffd5b505f546101079073ffffffffffffffffffffffffffffffffffffffff1681565b60405173ffffffffffffffffffffffffffffffffffffffff909116815260200160405180910390f35b5f805460405130602482015273ffffffffffffffffffffffffffffffffffffffff9091169060440160408051601f198184030181529181526020820180517bffffffffffffffffffffffffffffffffffffffffffffffffffffffff167f4e1c591400000000000000000000000000000000000000000000000000000000179052516101bb919061024d565b5f604051808303815f865af19150503d805f81146101f4576040519150601f19603f3d011682016040523d82523d5f602084013e6101f9565b606091505b505090508061024a5760405162461bcd60e51b815260206004820152601560248201527f4661696c656420746f2073657420706172746e657200000000000000000000006044820152606401610075565b50565b5f82515f5b8181101561026c5760208186018101518583015201610252565b505f92019182525091905056fea2646970667358221220a134984cd1b5449f6282001bd282c0e0870ffd88e9e4372e8868952ad352be6464736f6c634300081c0033","linkReferences":{}},"methodIdentifiers":{"denial()":"77fa5295","setPartner()":"2c88c5f8"},"id":0}