{"abi":[{"type":"function","name":"getBalances","inputs":[{"name":"_dex","type":"address","internalType":"address"}],"outputs":[{"name":"token1","type":"address","internalType":"address"},{"name":"token2","type":"address","internalType":"address"},{"name":"b1","type":"uint256","internalType":"uint256"},{"name":"b2","type":"uint256","internalType":"uint256"}],"stateMutability":"view"}],"bytecode":{"object":"0x6080604052348015600e575f5ffd5b506102b18061001c5f395ff3fe608060405234801561000f575f5ffd5b5060043610610029575f3560e01c8063c84aae171461002d575b5f5ffd5b61004061003b366004610227565b61006f565b604080516001600160a01b03958616815294909316602085015291830152606082015260800160405180910390f35b5f5f5f5f846001600160a01b031663d21220a76040518163ffffffff1660e01b8152600401602060405180830381865afa1580156100af573d5f5f3e3d5ffd5b505050506040513d601f19601f820116820180604052508101906100d39190610249565b9350846001600160a01b03166325be124e6040518163ffffffff1660e01b8152600401602060405180830381865afa158015610111573d5f5f3e3d5ffd5b505050506040513d601f19601f820116820180604052508101906101359190610249565b6040516370a0823160e01b81523360048201529093506001600160a01b038516906370a0823190602401602060405180830381865afa15801561017a573d5f5f3e3d5ffd5b505050506040513d601f19601f8201168201806040525081019061019e9190610264565b6040516370a0823160e01b81523360048201529092506001600160a01b038416906370a0823190602401602060405180830381865afa1580156101e3573d5f5f3e3d5ffd5b505050506040513d601f19601f820116820180604052508101906102079190610264565b90509193509193565b6001600160a01b0381168114610224575f5ffd5b50565b5f60208284031215610237575f5ffd5b813561024281610210565b9392505050565b5f60208284031215610259575f5ffd5b815161024281610210565b5f60208284031215610274575f5ffd5b505191905056fea26469706673582212206eaac182c780810d2e8ba2160b018794ee67f9abdacedf75ffd4d4bbafd9bfa964736f6c634300081c0033","linkReferences":{}},"methodIdentifiers":{"getBalances(address)":"c84aae17"},"id":1}