{"abi":[{"type":"constructor","inputs":[{"name":"_targetInstance","type":"address","internalType":"address"}],"stateMutability":"nonpayable"},{"type":"fallback","stateMutability":"nonpayable"},{"type":"function","name":"setSolver","inputs":[],"outputs":[],"stateMutability":"nonpayable"},{"type":"function","name":"solverAddress","inputs":[],"outputs":[{"name":"","type":"address","internalType":"address"}],"stateMutability":"view"},{"type":"function","name":"targetInstance","inputs":[],"outputs":[{"name":"","type":"address","internalType":"address"}],"stateMutability":"view"}],"bytecode":{"object":"0x6080604052600180546001600160a01b03191673f39fd6e51aad88f6f4ce6ab8827279cfffb922661790553480156034575f5ffd5b506040516103903803806103908339810160408190526051916074565b5f80546001600160a01b0319166001600160a01b0392909216919091179055609f565b5f602082840312156083575f5ffd5b81516001600160a01b03811681146098575f5ffd5b9392505050565b6102e4806100ac5f395ff3fe608060405234801561000f575f5ffd5b506004361061003f575f3560e01c806357c7dfb61461013e578063650455b414610146578063f769c3e014610175575b5f80546001546040516001600160a01b03918216602482015291169060440160408051601f198184030181529181526020820180517bffffffffffffffffffffffffffffffffffffffffffffffffffffffff16631f87943360e01b179052516100a89190610282565b5f604051808303815f865af19150503d805f81146100e1576040519150601f19603f3d011682016040523d82523d5f602084013e6100e6565b606091505b505090508061013c5760405162461bcd60e51b815260206004820152601460248201527f46616c6c6261636b2063616c6c206661696c656400000000000000000000000060448201526064015b60405180910390fd5b005b61013c610187565b600154610159906001600160a01b031681565b6040516001600160a01b03909116815260200160405180910390f35b5f54610159906001600160a01b031681565b5f80546001546040516001600160a01b03918216602482015291169060440160408051601f198184030181529181526020820180517bffffffffffffffffffffffffffffffffffffffffffffffffffffffff16631f87943360e01b179052516101f09190610282565b5f604051808303815f865af19150503d805f8114610229576040519150601f19603f3d011682016040523d82523d5f602084013e61022e565b606091505b505090508061027f5760405162461bcd60e51b815260206004820152600b60248201527f43616c6c206661696c65640000000000000000000000000000000000000000006044820152606401610133565b50565b5f82515f5b818110156102a15760208186018101518583015201610287565b505f92019182525091905056fea264697066735822122071f06e1d0af36ac0c5fb33ac698e95986c06244aed94fbd98e8df009a36418b964736f6c634300081c0033","linkReferences":{}},"methodIdentifiers":{"setSolver()":"57c7dfb6","solverAddress()":"650455b4","targetInstance()":"f769c3e0"},"id":0}