{"abi":[{"type":"constructor","inputs":[],"stateMutability":"nonpayable"},{"type":"function","name":"drain","inputs":[],"outputs":[],"stateMutability":"nonpayable"},{"type":"function","name":"takeInitialTokens","inputs":[],"outputs":[],"stateMutability":"nonpayable"},{"type":"function","name":"user","inputs":[],"outputs":[{"name":"","type":"address","internalType":"address"}],"stateMutability":"view"}],"bytecode":{"object":"0x60806040525f80546001600160a01b031990811673b7a5bd0345ef1cc5e66bf61bdec17d2461fbd9681790915560018054821673eebe00ac0756308ac4aabfd76c05c4f3088b888317905560028054821673f39fd6e51aad88f6f4ce6ab8827279cfffb922661790556003805490911673a16e02e87b7454126e5e10d957a927a7f5b5d2be1790553480156091575f5ffd5b506106208061009f5f395ff3fe608060405234801561000f575f5ffd5b506004361061003f575f3560e01c80634f8632ba146100435780639890220b14610072578063ec2a385d1461007c575b5f5ffd5b600254610056906001600160a01b031681565b6040516001600160a01b03909116815260200160405180910390f35b61007a610084565b005b61007a610413565b5f80546040516370a0823160e01b81523060048201526001600160a01b03909116906370a0823190602401602060405180830381865afa1580156100ca573d5f5f3e3d5ffd5b505050506040513d601f19601f820116820180604052508101906100ee91906105ad565b6001546040516370a0823160e01b81523060048201529192505f916001600160a01b03909116906370a0823190602401602060405180830381865afa158015610139573d5f5f3e3d5ffd5b505050506040513d601f19601f8201168201806040525081019061015d91906105ad565b90505b5f546003546040516370a0823160e01b81526001600160a01b0391821660048201529116906370a0823190602401602060405180830381865afa1580156101a9573d5f5f3e3d5ffd5b505050506040513d601f19601f820116820180604052508101906101cd91906105ad565b15158061024657506001546003546040516370a0823160e01b81526001600160a01b0391821660048201529116906370a0823190602401602060405180830381865afa15801561021f573d5f5f3e3d5ffd5b505050506040513d601f19601f8201168201806040525081019061024391906105ad565b15155b1561040f57811561032b576003545f54600154604051630df791e560e41b81526001600160a01b03928316600482015290821660248201526044810185905291169063df791e50906064015f604051808303815f87803b1580156102a8575f5ffd5b505af11580156102ba573d5f5f3e3d5ffd5b50506001546040516370a0823160e01b81523060048201526001600160a01b0390911692506370a082319150602401602060405180830381865afa158015610304573d5f5f3e3d5ffd5b505050506040513d601f19601f8201168201806040525081019061032891906105ad565b90505b801561040a576003546001545f54604051630df791e560e41b81526001600160a01b03928316600482015290821660248201526044810184905291169063df791e50906064015f604051808303815f87803b158015610388575f5ffd5b505af115801561039a573d5f5f3e3d5ffd5b50505f546040516370a0823160e01b81523060048201526001600160a01b0390911692506370a082319150602401602060405180830381865afa1580156103e3573d5f5f3e3d5ffd5b505050506040513d601f19601f8201168201806040525081019061040791906105ad565b91505b610160565b5050565b5f546002546040516323b872dd60e01b81526001600160a01b039182166004820152306024820152620f424060448201529116906323b872dd906064016020604051808303815f875af115801561046c573d5f5f3e3d5ffd5b505050506040513d601f19601f8201168201806040525081019061049091906105c4565b6104e15760405162461bcd60e51b815260206004820152601660248201527f546f6b656e31207472616e73666572206661696c65640000000000000000000060448201526064015b60405180910390fd5b6001546002546040516323b872dd60e01b81526001600160a01b039182166004820152306024820152620f424060448201529116906323b872dd906064016020604051808303815f875af115801561053b573d5f5f3e3d5ffd5b505050506040513d601f19601f8201168201806040525081019061055f91906105c4565b6105ab5760405162461bcd60e51b815260206004820152601660248201527f546f6b656e32207472616e73666572206661696c65640000000000000000000060448201526064016104d8565b565b5f602082840312156105bd575f5ffd5b5051919050565b5f602082840312156105d4575f5ffd5b815180151581146105e3575f5ffd5b939250505056fea264697066735822122064d38bfce3cdede5fa00a4efc32b9dddbb8a686409345623f5b11175437b020864736f6c634300081c0033","linkReferences":{}},"methodIdentifiers":{"drain()":"9890220b","takeInitialTokens()":"ec2a385d","user()":"4f8632ba"},"id":0}