{"abi":[{"type":"function","name":"handleTransaction","inputs":[{"name":"user","type":"address","internalType":"address"},{"name":"msgData","type":"bytes","internalType":"bytes"}],"outputs":[],"stateMutability":"nonpayable"}],"bytecode":{"object":"0x6080604052348015600e575f5ffd5b506101048061001c5f395ff3fe6080604052348015600e575f5ffd5b50600436106026575f3560e01c8063220ab6aa14602a575b5f5ffd5b603a6035366004603c565b505050565b005b5f5f5f60408486031215604d575f5ffd5b833573ffffffffffffffffffffffffffffffffffffffff81168114606f575f5ffd5b9250602084013567ffffffffffffffff8111156089575f5ffd5b8401601f810186136098575f5ffd5b803567ffffffffffffffff81111560ad575f5ffd5b86602082840101111560bd575f5ffd5b93966020919091019550929350505056fea26469706673582212201ac06448acd8eb214bc3496144e1b924503cee724103b5f2bc00d993ab0bf20e64736f6c634300081c0033","linkReferences":{}},"methodIdentifiers":{"handleTransaction(address,bytes)":"220ab6aa"},"id":0}