{"abi":[{"type":"function","name":"attack","inputs":[],"outputs":[],"stateMutability":"nonpayable"},{"type":"function","name":"destroy","inputs":[],"outputs":[],"stateMutability":"nonpayable"},{"type":"event","name":"AttackComplete","inputs":[],"anonymous":false},{"type":"event","name":"EngineAddress","inputs":[{"name":"","type":"address","indexed":false,"internalType":"address"}],"anonymous":false}],"bytecode":{"object":"0x608060405234801561001057600080fd5b50610350806100206000396000f3fe608060405234801561001057600080fd5b50600436106100365760003560e01c806383197ef01461003b5780639e5faafc14610045575b600080fd5b61004361004d565b005b610043610051565b6000ff5b604080517fd6000000000000000000000000000000000000000000000000000000000000006020808301919091527f940000000000000000000000000000000000000000000000000000000000000060218301527f5fbdb2315678afecb367f032d93f642f64180aa300000000000000000000000060228301527f0100000000000000000000000000000000000000000000000000000000000000603683015282516017818403018152603783018085528151919092012073ffffffffffffffffffffffffffffffffffffffff811690915291517f109c0e89a1a2baed2788ee4cc3a358e294b830dd00396dd487d7f5b09d46029a9181900360570190a18073ffffffffffffffffffffffffffffffffffffffff16638129fc1c6040518163ffffffff1660e01b8152600401600060405180830381600087803b15801561019757600080fd5b505af11580156101ab573d6000803e3d6000fd5b5050604080516004808252602480830184526020830180517bffffffffffffffffffffffffffffffffffffffffffffffffffffffff167f83197ef00000000000000000000000000000000000000000000000000000000017815284517f4f1ef2860000000000000000000000000000000000000000000000000000000081523093810184815292810195865284516044820152845173ffffffffffffffffffffffffffffffffffffffff8a169850634f1ef2869750939592936064909101919080838360005b83811015610289578181015183820152602001610271565b50505050905090810190601f1680156102b65780820380516001836020036101000a031916815260200191505b509350505050600060405180830381600087803b1580156102d657600080fd5b505af11580156102ea573d6000803e3d6000fd5b50506040517f8845e68b3dc814cc741ddcb4e571dda5d8564f7a170d6089736126e9f4b963c7925060009150a15056fea2646970667358221220e422c64ae8d858acb14d5377c1a6337a64b39222e74b627f15b380fc33aae1de64736f6c634300060c0033","linkReferences":{}},"methodIdentifiers":{"attack()":"9e5faafc","destroy()":"83197ef0"},"id":0}