{"abi":[{"type":"constructor","inputs":[{"name":"_instance","type":"address","internalType":"address payable"}],"stateMutability":"nonpayable"},{"type":"receive","stateMutability":"payable"},{"type":"function","name":"attack","inputs":[],"outputs":[],"stateMutability":"payable"}],"bytecode":{"object":"0x6080604052348015600e575f5ffd5b50604051610105380380610105833981016040819052602b91604e565b5f80546001600160a01b0319166001600160a01b03929092169190911790556079565b5f60208284031215605d575f5ffd5b81516001600160a01b03811681146072575f5ffd5b9392505050565b6080806100855f395ff3fe608060405260043610601e575f3560e01c80639e5faafc146028575f5ffd5b36602457005b5f5ffd5b602e6030565b005b5f5473ffffffffffffffffffffffffffffffffffffffff16fffea26469706673582212201410c020c20374ac019e66502570b075aedf6380f612deace6892b8ee2c76c6e64736f6c634300081c0033","linkReferences":{}},"methodIdentifiers":{"attack()":"9e5faafc"},"id":0}