{"abi":[{"type":"function","name":"destroyToken","inputs":[{"name":"instance","type":"address","internalType":"address"},{"name":"to","type":"address","internalType":"address payable"}],"outputs":[],"stateMutability":"nonpayable"}],"bytecode":{"object":"0x6080604052348015600e575f5ffd5b506101668061001c5f395ff3fe608060405234801561000f575f5ffd5b5060043610610029575f3560e01c8063e6acd3071461002d575b5f5ffd5b61004061003b3660046100f9565b610042565b005b6040517ef55d9d00000000000000000000000000000000000000000000000000000000815273ffffffffffffffffffffffffffffffffffffffff82166004820152730baf607c0819cdfb946180a52e0f1f57983fca8590819062f55d9d906024015f604051808303815f87803b1580156100ba575f5ffd5b505af11580156100cc573d5f5f3e3d5ffd5b50505050505050565b73ffffffffffffffffffffffffffffffffffffffff811681146100f6575f5ffd5b50565b5f5f6040838503121561010a575f5ffd5b8235610115816100d5565b91506020830135610125816100d5565b80915050925092905056fea2646970667358221220aa7da12ba42b4a1092bd561fb539073f6bf6950dbe222c9d6ea21fa2775a87af64736f6c634300081c0033","linkReferences":{}},"methodIdentifiers":{"destroyToken(address,address)":"e6acd307"},"id":0}