{"abi":[{"type":"constructor","inputs":[{"name":"_recoveryInstance","type":"address","internalType":"address"}],"stateMutability":"nonpayable"},{"type":"receive","stateMutability":"payable"},{"type":"function","name":"attack","inputs":[],"outputs":[],"stateMutability":"nonpayable"},{"type":"function","name":"computeTokenAddress","inputs":[],"outputs":[{"name":"","type":"address","internalType":"address"}],"stateMutability":"view"},{"type":"function","name":"getRecoveryInstance","inputs":[],"outputs":[{"name":"","type":"address","internalType":"address"}],"stateMutability":"view"},{"type":"function","name":"getSalt","inputs":[],"outputs":[{"name":"","type":"uint256","internalType":"uint256"}],"stateMutability":"view"},{"type":"function","name":"recoveryInstance","inputs":[],"outputs":[{"name":"","type":"address","internalType":"address"}],"stateMutability":"view"}],"bytecode":{"object":"0x6080604052600180553480156012575f5ffd5b50604051610312380380610312833981016040819052602f916052565b5f80546001600160a01b0319166001600160a01b0392909216919091179055607d565b5f602082840312156061575f5ffd5b81516001600160a01b03811681146076575f5ffd5b9392505050565b6102888061008a5f395ff3fe60806040526004361061005b575f3560e01c806387684d5e1161004157806387684d5e146100b85780639e5faafc146100cc578063f775b286146100e2575f5ffd5b806313a9589c146100665780634c6dff2614610088575f5ffd5b3661006257005b5f5ffd5b348015610071575f5ffd5b506001546040519081526020015b60405180910390f35b348015610093575f5ffd5b505f546001600160a01b03165b6040516001600160a01b03909116815260200161007f565b3480156100c3575f5ffd5b506100a0610100565b3480156100d7575f5ffd5b506100e0610180565b005b3480156100ed575f5ffd5b505f546100a0906001600160a01b031681565b5f8054600154604080516001600160a01b03909316602084015282015281907fcdcd77c0000000000000000000000000000000000000000000000000000000009060600160408051601f198184030181529082905261016292916020016101fa565b60408051601f19818403018152919052805160209091012092915050565b5f610189610100565b6040517ef55d9d0000000000000000000000000000000000000000000000000000000081523360048201529091506001600160a01b0382169062f55d9d906024015f604051808303815f87803b1580156101e1575f5ffd5b505af11580156101f3573d5f5f3e3d5ffd5b5050505050565b7fffffffff00000000000000000000000000000000000000000000000000000000831681525f82515f5b818110156102415760208186018101516004868401015201610224565b505f9201600401918252509291505056fea264697066735822122066f0c739d75e7a6f83ffc7a1f6afabbc2bfc11a32ad4666db5a98b94f0f6176f64736f6c634300081c0033","linkReferences":{}},"methodIdentifiers":{"attack()":"9e5faafc","computeTokenAddress()":"87684d5e","getRecoveryInstance()":"4c6dff26","getSalt()":"13a9589c","recoveryInstance()":"f775b286"},"id":0}