{"abi":[{"type":"function","name":"testAllowance","inputs":[{"name":"weth","type":"address","internalType":"address"},{"name":"owner","type":"address","internalType":"address"},{"name":"spender","type":"address","internalType":"address"}],"outputs":[],"stateMutability":"nonpayable"},{"type":"function","name":"testTransferFrom","inputs":[{"name":"weth","type":"address","internalType":"address"},{"name":"from","type":"address","internalType":"address"},{"name":"to","type":"address","internalType":"address"},{"name":"amount","type":"uint256","internalType":"uint256"}],"outputs":[],"stateMutability":"nonpayable"},{"type":"event","name":"AllowanceResult","inputs":[{"name":"success","type":"bool","indexed":false,"internalType":"bool"},{"name":"dataLength","type":"uint256","indexed":false,"internalType":"uint256"},{"name":"data","type":"bytes","indexed":false,"internalType":"bytes"}],"anonymous":false},{"type":"event","name":"TransferFromResult","inputs":[{"name":"success","type":"bool","indexed":false,"internalType":"bool"},{"name":"dataLength","type":"uint256","indexed":false,"internalType":"uint256"},{"name":"data","type":"bytes","indexed":false,"internalType":"bytes"}],"anonymous":false}],"bytecode":{"object":"0x6080604052348015600e575f5ffd5b5061040a8061001c5f395ff3fe608060405234801561000f575f5ffd5b5060043610610034575f3560e01c8063c380abcc14610038578063dea001241461004d575b5f5ffd5b61004b6100463660046102cd565b610060565b005b61004b61005b366004610315565b610185565b6040805173ffffffffffffffffffffffffffffffffffffffff85811660248301528481166044830152606480830185905283518084039091018152608490920183526020820180517bffffffffffffffffffffffffffffffffffffffffffffffffffffffff167f23b872dd0000000000000000000000000000000000000000000000000000000017905291515f928392908816916100fe9190610377565b5f604051808303815f865af19150503d805f8114610137576040519150601f19603f3d011682016040523d82523d5f602084013e61013c565b606091505b50915091507f2d4fc7368b6e1856f8411ea50c0b502c5cbea7b7d3cda5a5717b1f4f1698073b8282518360405161017593929190610392565b60405180910390a1505050505050565b6040805173ffffffffffffffffffffffffffffffffffffffff848116602483015283811660448084019190915283518084039091018152606490920183526020820180517bffffffffffffffffffffffffffffffffffffffffffffffffffffffff167fdd62ed3e0000000000000000000000000000000000000000000000000000000017905291515f9283929087169161021f9190610377565b5f604051808303815f865af19150503d805f8114610258576040519150601f19603f3d011682016040523d82523d5f602084013e61025d565b606091505b50915091507f3a60e126036ec8ca5bcf5516c43b3490476ad200303017141df413f1950eceac8282518360405161029693929190610392565b60405180910390a15050505050565b803573ffffffffffffffffffffffffffffffffffffffff811681146102c8575f5ffd5b919050565b5f5f5f5f608085870312156102e0575f5ffd5b6102e9856102a5565b93506102f7602086016102a5565b9250610305604086016102a5565b9396929550929360600135925050565b5f5f5f60608486031215610327575f5ffd5b610330846102a5565b925061033e602085016102a5565b915061034c604085016102a5565b90509250925092565b5f5b8381101561036f578181015183820152602001610357565b50505f910152565b5f8251610388818460208701610355565b9190910192915050565b8315158152826020820152606060408201525f82518060608401526103be816080850160208701610355565b601f01601f19169190910160800194935050505056fea26469706673582212201af0e09ccb7bc4d9d25527eb8491d3f11dbcc4db24646e5ee48c4263f006863564736f6c634300081c0033","linkReferences":{}},"methodIdentifiers":{"testAllowance(address,address,address)":"dea00124","testTransferFrom(address,address,address,uint256)":"c380abcc"},"id":0}