{"abi":[{"type":"function","name":"destroySimpleToken","inputs":[{"name":"token","type":"address","internalType":"address"},{"name":"to","type":"address","internalType":"address payable"}],"outputs":[],"stateMutability":"nonpayable"},{"type":"function","name":"findTokenAddress","inputs":[{"name":"instance","type":"address","internalType":"address"}],"outputs":[{"name":"","type":"address","internalType":"address"}],"stateMutability":"view"}],"bytecode":{"object":"0x6080604052348015600e575f5ffd5b506102ae8061001c5f395ff3fe608060405234801561000f575f5ffd5b5060043610610034575f3560e01c80630926634114610038578063aae6a8c714610074575b5f5ffd5b61004b6100463660046101dc565b610089565b60405173ffffffffffffffffffffffffffffffffffffffff909116815260200160405180910390f35b6100876100823660046101fe565b61013a565b005b5f8060015b60c88160ff161161013357604080516bffffffffffffffffffffffff19606087901b166020808301919091527fff0000000000000000000000000000000000000000000000000000000000000060f885901b166034830152825180830360150181526035909201909252805191012073ffffffffffffffffffffffffffffffffffffffff811615610120579150610133565b508061012b81610235565b91505061008e565b5092915050565b6040517ef55d9d00000000000000000000000000000000000000000000000000000000815273ffffffffffffffffffffffffffffffffffffffff828116600483015283169062f55d9d906024015f604051808303815f87803b15801561019e575f5ffd5b505af11580156101b0573d5f5f3e3d5ffd5b505050505050565b73ffffffffffffffffffffffffffffffffffffffff811681146101d9575f5ffd5b50565b5f602082840312156101ec575f5ffd5b81356101f7816101b8565b9392505050565b5f5f6040838503121561020f575f5ffd5b823561021a816101b8565b9150602083013561022a816101b8565b809150509250929050565b5f60ff821660ff810361026f577f4e487b71000000000000000000000000000000000000000000000000000000005f52601160045260245ffd5b6001019291505056fea26469706673582212201b509bb08bf4efec8a699033fc1175cfaf00ea2b7e13b30174c5676c83284fa664736f6c634300081c0033","linkReferences":{}},"methodIdentifiers":{"destroySimpleToken(address,address)":"aae6a8c7","findTokenAddress(address)":"09266341"},"id":0}