{"abi":[{"type":"function","name":"destroy","inputs":[{"name":"_to","type":"address","internalType":"address payable"}],"outputs":[],"stateMutability":"nonpayable"}],"bytecode":{"object":"0x6080604052348015600e575f5ffd5b5060c180601a5f395ff3fe6080604052348015600e575f5ffd5b50600436106025575f3560e01c8062f55d9d146029575b5f5ffd5b603860343660046053565b603a565b005b8073ffffffffffffffffffffffffffffffffffffffff16ff5b5f602082840312156062575f5ffd5b813573ffffffffffffffffffffffffffffffffffffffff811681146084575f5ffd5b939250505056fea264697066735822122073b1d4ef4c9d696907605c0850a18c141ceff10e98c98e6cf6b299646e445bb664736f6c634300081c0033","linkReferences":{}},"methodIdentifiers":{"destroy(address)":"00f55d9d"},"id":0}