{"abi":[{"type":"function","name":"forta","inputs":[],"outputs":[{"name":"","type":"address","internalType":"contract IForta"}],"stateMutability":"view"},{"type":"function","name":"setDetectionBot","inputs":[{"name":"detectionBotAddress","type":"address","internalType":"address"}],"outputs":[],"stateMutability":"nonpayable"}],"bytecode":{"object":"0x60806040525f80546001600160a01b031916735fbdb2315678afecb367f032d93f642f64180aa31790553480156033575f5ffd5b50610187806100415f395ff3fe608060405234801561000f575f5ffd5b5060043610610034575f3560e01c80639e927c6814610038578063d8670e1f1461004d575b5f5ffd5b61004b610046366004610117565b610095565b005b5f5461006c9073ffffffffffffffffffffffffffffffffffffffff1681565b60405173ffffffffffffffffffffffffffffffffffffffff909116815260200160405180910390f35b5f546040517f9e927c6800000000000000000000000000000000000000000000000000000000815273ffffffffffffffffffffffffffffffffffffffff838116600483015290911690639e927c68906024015f604051808303815f87803b1580156100fe575f5ffd5b505af1158015610110573d5f5f3e3d5ffd5b5050505050565b5f60208284031215610127575f5ffd5b813573ffffffffffffffffffffffffffffffffffffffff8116811461014a575f5ffd5b939250505056fea26469706673582212205befb52967b0b213fe506e5e021cc6df89a96f09a0652fad251bf3cf1ef1598a64736f6c634300081c0033","linkReferences":{}},"methodIdentifiers":{"forta()":"d8670e1f","setDetectionBot(address)":"9e927c68"},"id":0}