{"abi":[{"type":"function","name":"enter","inputs":[{"name":"payload","type":"bytes32","internalType":"bytes32"}],"outputs":[],"stateMutability":"nonpayable"}],"bytecode":{"object":"0x6080604052348015600e575f5ffd5b50608680601a5f395ff3fe6080604052348015600e575f5ffd5b50600436106026575f3560e01c8063568ab21e14602a575b5f5ffd5b60386035366004603a565b50565b005b5f602082840312156049575f5ffd5b503591905056fea264697066735822122090ba4685f4ef53ddbf03614b8e01514bc548182a91ba743461a2afb2e8f63dae64736f6c634300081c0033","linkReferences":{}},"methodIdentifiers":{"enter(bytes32)":"568ab21e"},"id":0}