{"abi":[{"type":"constructor","inputs":[{"name":"_target","type":"address","internalType":"address"}],"stateMutability":"nonpayable"},{"type":"function","name":"readOwnerSlot","inputs":[],"outputs":[{"name":"","type":"bytes32","internalType":"bytes32"}],"stateMutability":"view"},{"type":"function","name":"readSlot0","inputs":[],"outputs":[{"name":"","type":"address","internalType":"address"}],"stateMutability":"view"},{"type":"function","name":"target","inputs":[],"outputs":[{"name":"","type":"address","internalType":"address"}],"stateMutability":"view"},{"type":"function","name":"tryGetLockCounter","inputs":[],"outputs":[{"name":"success","type":"bool","internalType":"bool"},{"name":"data","type":"bytes","internalType":"bytes"}],"stateMutability":"view"},{"type":"function","name":"tryGetOwner","inputs":[],"outputs":[{"name":"success","type":"bool","internalType":"bool"},{"name":"data","type":"bytes","internalType":"bytes"}],"stateMutability":"view"}],"bytecode":{"object":"0x6080604052348015600e575f5ffd5b506040516103d03803806103d0833981016040819052602b91604e565b5f80546001600160a01b0319166001600160a01b03929092169190911790556079565b5f60208284031215605d575f5ffd5b81516001600160a01b03811681146072575f5ffd5b9392505050565b61034a806100865f395ff3fe608060405234801561000f575f5ffd5b5060043610610063575f3560e01c8063578cd3db1161004d578063578cd3db146100aa578063d4b83992146100c0578063e98dbdee146100df575f5ffd5b80629aeffb146100675780634b5ffd4a14610094575b5f5ffd5b5f545b60405173ffffffffffffffffffffffffffffffffffffffff90911681526020015b60405180910390f35b61009c6100e7565b60405161008b929190610280565b6100b26101ac565b60405190815260200161008b565b5f5461006a9073ffffffffffffffffffffffffffffffffffffffff1681565b61009c6101e0565b5f805460408051600481526024810182526020810180517bffffffffffffffffffffffffffffffffffffffffffffffffffffffff167f8db564c200000000000000000000000000000000000000000000000000000000179052905160609273ffffffffffffffffffffffffffffffffffffffff1691610165916102bb565b5f60405180830381855afa9150503d805f811461019d576040519150601f19603f3d011682016040523d82523d5f602084013e6101a2565b606091505b5090939092509050565b5f806101d960017fa7b53796fd2d99cb1f5ae019b54f9e024446c3d12b483f733ccc62ed04eb126b6102d6565b5492915050565b5f805460408051600481526024810182526020810180517bffffffffffffffffffffffffffffffffffffffffffffffffffffffff167f8da5cb5b00000000000000000000000000000000000000000000000000000000179052905160609273ffffffffffffffffffffffffffffffffffffffff1691610165916102bb565b5f5b83811015610278578181015183820152602001610260565b50505f910152565b8215158152604060208201525f82518060408401526102a681606085016020870161025e565b601f01601f1916919091016060019392505050565b5f82516102cc81846020870161025e565b9190910192915050565b8181038181111561030e577f4e487b71000000000000000000000000000000000000000000000000000000005f52601160045260245ffd5b9291505056fea2646970667358221220277c7a118e33ff6d1f2948377b6a4e65d942595087dc976487cc104c18b5d1be64736f6c634300081c0033","linkReferences":{}},"methodIdentifiers":{"readOwnerSlot()":"578cd3db","readSlot0()":"009aeffb","target()":"d4b83992","tryGetLockCounter()":"4b5ffd4a","tryGetOwner()":"e98dbdee"},"id":0}