{"abi":[{"type":"function","name":"checkPlayerBalance","inputs":[{"name":"coin","type":"address","internalType":"contract NaughtCoin"}],"outputs":[{"name":"","type":"uint256","internalType":"uint256"}],"stateMutability":"view"},{"type":"function","name":"drainTokens","inputs":[{"name":"coin","type":"address","internalType":"contract NaughtCoin"}],"outputs":[],"stateMutability":"nonpayable"}],"bytecode":{"object":"0x6080604052348015600e575f5ffd5b506103a68061001c5f395ff3fe608060405234801561000f575f5ffd5b5060043610610034575f3560e01c8063a4f7690314610038578063fc0c833a1461005d575b5f5ffd5b61004b6100463660046102fd565b610072565b60405190815260200160405180910390f35b61007061006b3660046102fd565b610166565b005b5f816001600160a01b03166370a08231836001600160a01b03166348db5f896040518163ffffffff1660e01b8152600401602060405180830381865afa1580156100be573d5f5f3e3d5ffd5b505050506040513d601f19601f820116820180604052508101906100e2919061031f565b6040517fffffffff0000000000000000000000000000000000000000000000000000000060e084901b1681526001600160a01b039091166004820152602401602060405180830381865afa15801561013c573d5f5f3e3d5ffd5b505050506040513d601f19601f82011682018060405250810190610160919061033a565b92915050565b5f816001600160a01b03166348db5f896040518163ffffffff1660e01b8152600401602060405180830381865afa1580156101a3573d5f5f3e3d5ffd5b505050506040513d601f19601f820116820180604052508101906101c7919061031f565b6040517f70a082310000000000000000000000000000000000000000000000000000000081526001600160a01b0380831660048301529192505f918416906370a0823190602401602060405180830381865afa158015610229573d5f5f3e3d5ffd5b505050506040513d601f19601f8201168201806040525081019061024d919061033a565b6040517f23b872dd0000000000000000000000000000000000000000000000000000000081526001600160a01b03848116600483015230602483015260448201839052919250908416906323b872dd906064016020604051808303815f875af11580156102bc573d5f5f3e3d5ffd5b505050506040513d601f19601f820116820180604052508101906102e09190610351565b50505050565b6001600160a01b03811681146102fa575f5ffd5b50565b5f6020828403121561030d575f5ffd5b8135610318816102e6565b9392505050565b5f6020828403121561032f575f5ffd5b8151610318816102e6565b5f6020828403121561034a575f5ffd5b5051919050565b5f60208284031215610361575f5ffd5b81518015158114610318575f5ffdfea2646970667358221220ed558c09f45826f0cc810cc9c182959429e0eeeafcc70cdb2d275792a984807764736f6c634300081c0033","linkReferences":{}},"methodIdentifiers":{"checkPlayerBalance(address)":"a4f76903","drainTokens(address)":"fc0c833a"},"id":4}