{"abi":[{"type":"function","name":"AttackCall","inputs":[{"name":"_TelephoneAddress","type":"address","internalType":"address"},{"name":"_owner","type":"address","internalType":"address"}],"outputs":[],"stateMutability":"nonpayable"}],"bytecode":{"object":"0x6080604052348015600e575f5ffd5b506101518061001c5f395ff3fe608060405234801561000f575f5ffd5b5060043610610029575f3560e01c8063c798dfec1461002d575b5f5ffd5b61004061003b3660046100ea565b610042565b005b6040517fa6f9dae100000000000000000000000000000000000000000000000000000000815273ffffffffffffffffffffffffffffffffffffffff828116600483015283169063a6f9dae1906024015f604051808303815f87803b1580156100a8575f5ffd5b505af11580156100ba573d5f5f3e3d5ffd5b505050505050565b803573ffffffffffffffffffffffffffffffffffffffff811681146100e5575f5ffd5b919050565b5f5f604083850312156100fb575f5ffd5b610104836100c2565b9150610112602084016100c2565b9050925092905056fea2646970667358221220d644d7d2ec4781cd4345b1bde56d39f3888f5f5aba48f98231464ed2af56dff664736f6c634300081c0033","linkReferences":{}},"methodIdentifiers":{"AttackCall(address,address)":"c798dfec"},"id":0}