{"abi":[{"type":"constructor","inputs":[],"stateMutability":"payable"},{"type":"receive","stateMutability":"payable"},{"type":"function","name":"attack","inputs":[{"name":"_target","type":"address","internalType":"address"}],"outputs":[],"stateMutability":"payable"}],"bytecode":{"object":"0x608060405260c080600f5f395ff3fe608060405260043610601e575f3560e01c8063d018db3e146028575f5ffd5b36602457005b5f5ffd5b603760333660046052565b6039565b005b8073ffffffffffffffffffffffffffffffffffffffff16ff5b5f602082840312156061575f5ffd5b813573ffffffffffffffffffffffffffffffffffffffff811681146083575f5ffd5b939250505056fea2646970667358221220360dbd2539791c27f8d00509d117f1518dc10f8c3b83722d3e2a389c7b94440064736f6c634300081c0033","linkReferences":{}},"methodIdentifiers":{"attack(address)":"d018db3e"},"id":0}