{"abi":[{"type":"constructor","inputs":[{"name":"_token","type":"address","internalType":"address"}],"stateMutability":"nonpayable"},{"type":"function","name":"consecutiveWins","inputs":[],"outputs":[{"name":"","type":"uint256","internalType":"uint256"}],"stateMutability":"view"},{"type":"function","name":"executeAttack","inputs":[],"outputs":[],"stateMutability":"nonpayable"},{"type":"function","name":"target","inputs":[],"outputs":[{"name":"","type":"address","internalType":"contract ICoinFlip"}],"stateMutability":"view"}],"bytecode":{"object":"0x6080604052600160ff1b6002553480156016575f5ffd5b506040516102a93803806102a98339810160408190526033916057565b600180546001600160a01b0319166001600160a01b03929092169190911790556082565b5f602082840312156066575f5ffd5b81516001600160a01b0381168114607b575f5ffd5b9392505050565b61021a8061008f5f395ff3fe608060405234801561000f575f5ffd5b506004361061003f575f3560e01c8063422490ee14610043578063d4b839921461004d578063e6f334d714610097575b5f5ffd5b61004b6100ad565b005b60015461006d9073ffffffffffffffffffffffffffffffffffffffff1681565b60405173ffffffffffffffffffffffffffffffffffffffff90911681526020015b60405180910390f35b61009f5f5481565b60405190815260200161008e565b5f6100b960014361017a565b600254904091505f906100cc908361019f565b90505f816001146100dd575f6100e0565b60015b6001546040517f1d263f67000000000000000000000000000000000000000000000000000000008152821515600482015291925073ffffffffffffffffffffffffffffffffffffffff1690631d263f67906024016020604051808303815f875af1158015610150573d5f5f3e3d5ffd5b505050506040513d601f19601f8201168201806040525081019061017491906101be565b50505050565b8181038181111561019957634e487b7160e01b5f52601160045260245ffd5b92915050565b5f826101b957634e487b7160e01b5f52601260045260245ffd5b500490565b5f602082840312156101ce575f5ffd5b815180151581146101dd575f5ffd5b939250505056fea26469706673582212202dde0b4784230245cba55869eecc767f97f61319a9d3969ae624e1028289d58864736f6c634300081c0033","linkReferences":{}},"methodIdentifiers":{"consecutiveWins()":"e6f334d7","executeAttack()":"422490ee","target()":"d4b83992"},"id":0}