{"abi":[{"type":"constructor","inputs":[{"name":"_shopAddress","type":"address","internalType":"address"}],"stateMutability":"nonpayable"},{"type":"function","name":"attack","inputs":[],"outputs":[],"stateMutability":"nonpayable"},{"type":"function","name":"price","inputs":[],"outputs":[{"name":"","type":"uint256","internalType":"uint256"}],"stateMutability":"view"},{"type":"function","name":"targetPrice","inputs":[],"outputs":[{"name":"","type":"uint256","internalType":"uint256"}],"stateMutability":"view"}],"bytecode":{"object":"0x608060405260646001553480156013575f5ffd5b506040516101a03803806101a08339810160408190526030916053565b5f80546001600160a01b0319166001600160a01b0392909216919091179055607e565b5f602082840312156062575f5ffd5b81516001600160a01b03811681146077575f5ffd5b9392505050565b6101158061008b5f395ff3fe6080604052348015600e575f5ffd5b5060043610603a575f3560e01c80639e5faafc14603e578063a035b1fe146046578063dc38679c14605c575b5f5ffd5b60446064565b005b6001545b60405190815260200160405180910390f35b604a60015481565b5f8054604080517fa6f2ae3a000000000000000000000000000000000000000000000000000000008152905173ffffffffffffffffffffffffffffffffffffffff9092169263a6f2ae3a9260048084019382900301818387803b15801560c8575f5ffd5b505af115801560d9573d5f5f3e3d5ffd5b5050505056fea2646970667358221220e0a7f2abd1347d19adfbcc6514a88cd73f07087b3d554a2acd3a6a3d2952072e64736f6c634300081c0033","linkReferences":{}},"methodIdentifiers":{"attack()":"9e5faafc","price()":"a035b1fe","targetPrice()":"dc38679c"},"id":0}