{"abi":[{"type":"function","name":"drainDex","inputs":[{"name":"dexAddress","type":"address","internalType":"address"}],"outputs":[],"stateMutability":"nonpayable"}],"bytecode":{"object":"0x6080604052348015600e575f5ffd5b506107f18061001c5f395ff3fe608060405234801561000f575f5ffd5b5060043610610029575f3560e01c8063797d0d0e1461002d575b5f5ffd5b61004061003b366004610700565b610042565b005b5f8190505f816001600160a01b031663d21220a76040518163ffffffff1660e01b8152600401602060405180830381865afa158015610083573d5f5f3e3d5ffd5b505050506040513d601f19601f820116820180604052508101906100a79190610722565b90505f826001600160a01b03166325be124e6040518163ffffffff1660e01b8152600401602060405180830381865afa1580156100e6573d5f5f3e3d5ffd5b505050506040513d601f19601f8201168201806040525081019061010a9190610722565b60405163095ea7b360e01b81526001600160a01b0386811660048301525f1960248301529192509083169063095ea7b3906044016020604051808303815f875af115801561015a573d5f5f3e3d5ffd5b505050506040513d601f19601f8201168201806040525081019061017e919061073d565b5060405163095ea7b360e01b81526001600160a01b0385811660048301525f19602483015282169063095ea7b3906044016020604051808303815f875af11580156101cb573d5f5f3e3d5ffd5b505050506040513d601f19601f820116820180604052508101906101ef919061073d565b50604051630df791e560e41b81526001600160a01b0383811660048301528281166024830152600a604483015284169063df791e50906064015f604051808303815f87803b15801561023f575f5ffd5b505af1158015610251573d5f5f3e3d5ffd5b5050604051630df791e560e41b81526001600160a01b0384811660048301528581166024830152601460448301528616925063df791e5091506064015f604051808303815f87803b1580156102a4575f5ffd5b505af11580156102b6573d5f5f3e3d5ffd5b5050604051630df791e560e41b81526001600160a01b0385811660048301528481166024830152601860448301528616925063df791e5091506064015f604051808303815f87803b158015610309575f5ffd5b505af115801561031b573d5f5f3e3d5ffd5b5050604051630df791e560e41b81526001600160a01b0384811660048301528581166024830152601e60448301528616925063df791e5091506064015f604051808303815f87803b15801561036e575f5ffd5b505af1158015610380573d5f5f3e3d5ffd5b5050604051630df791e560e41b81526001600160a01b0385811660048301528481166024830152602960448301528616925063df791e5091506064015f604051808303815f87803b1580156103d3575f5ffd5b505af11580156103e5573d5f5f3e3d5ffd5b5050604051633de222bb60e21b81526001600160a01b0385811660048301528616602482018190525f9350915063f7888aec90604401602060405180830381865afa158015610436573d5f5f3e3d5ffd5b505050506040513d601f19601f8201168201806040525081019061045a919061075c565b604051633de222bb60e21b81526001600160a01b0384811660048301528616602482018190529192505f919063f7888aec90604401602060405180830381865afa1580156104aa573d5f5f3e3d5ffd5b505050506040513d601f19601f820116820180604052508101906104ce919061075c565b6040517f70a082310000000000000000000000000000000000000000000000000000000081523060048201529091505f906001600160a01b038516906370a0823190602401602060405180830381865afa15801561052e573d5f5f3e3d5ffd5b505050506040513d601f19601f82011682018060405250810190610552919061075c565b90505f836105608482610773565b61056a919061079c565b9050818111156105775750805b6040517fbfd7e00d0000000000000000000000000000000000000000000000000000000081526001600160a01b03868116600483015287811660248301526044820183905285919089169063bfd7e00d90606401602060405180830381865afa1580156105e6573d5f5f3e3d5ffd5b505050506040513d601f19601f8201168201806040525081019061060a919061075c565b0361067957604051630df791e560e41b81526001600160a01b03868116600483015287811660248301526044820183905288169063df791e50906064015f604051808303815f87803b15801561065e575f5ffd5b505af1158015610670573d5f5f3e3d5ffd5b505050506106df565b604051630df791e560e41b81526001600160a01b0386811660048301528781166024830152602d604483015288169063df791e50906064015f604051808303815f87803b1580156106c8575f5ffd5b505af11580156106da573d5f5f3e3d5ffd5b505050505b5050505050505050565b6001600160a01b03811681146106fd575f5ffd5b50565b5f60208284031215610710575f5ffd5b813561071b816106e9565b9392505050565b5f60208284031215610732575f5ffd5b815161071b816106e9565b5f6020828403121561074d575f5ffd5b8151801515811461071b575f5ffd5b5f6020828403121561076c575f5ffd5b5051919050565b808202811582820484141761079657634e487b7160e01b5f52601160045260245ffd5b92915050565b5f826107b657634e487b7160e01b5f52601260045260245ffd5b50049056fea26469706673582212201ef34ba21d7ce4ef09b65ee434d767e4bf50cf2219ad7acdebf82630849833a364736f6c634300081c0033","linkReferences":{}},"methodIdentifiers":{"drainDex(address)":"797d0d0e"},"id":0}