{"abi":[{"type":"constructor","inputs":[{"name":"_target","type":"address","internalType":"address"}],"stateMutability":"nonpayable"},{"type":"function","name":"attemptWin","inputs":[],"outputs":[],"stateMutability":"nonpayable"},{"type":"function","name":"exploitMaskBug","inputs":[],"outputs":[],"stateMutability":"nonpayable"},{"type":"function","name":"win","inputs":[],"outputs":[],"stateMutability":"nonpayable"}],"bytecode":{"object":"0x6080604052348015600e575f5ffd5b50604051610356380380610356833981016040819052602b91604e565b5f80546001600160a01b0319166001600160a01b03929092169190911790556079565b5f60208284031215605d575f5ffd5b81516001600160a01b03811681146072575f5ffd5b9392505050565b6102d0806100865f395ff3fe608060405234801561000f575f5ffd5b506004361061003f575f3560e01c806324dc00ce14610043578063428dcbee1461004b578063473ca96c1461004d575b5f5ffd5b61004b610055565b005b61004b6101fb565b5f5f5f9054906101000a90046001600160a01b03166001600160a01b03166326bad99e6040518163ffffffff1660e01b8152600401602060405180830381865afa1580156100a5573d5f5f3e3d5ffd5b505050506040513d601f19601f820116820180604052508101906100c99190610283565b90505b80158015906100db5750606481105b156101f8575f546040517fab3b922400000000000000000000000000000000000000000000000000000000815260206004820152600160248201527f410000000000000000000000000000000000000000000000000000000000000060448201526001600160a01b039091169063ab3b9224906064015f604051808303815f87803b158015610168575f5ffd5b505af115801561017a573d5f5f3e3d5ffd5b505050505f5f9054906101000a90046001600160a01b03166001600160a01b03166326bad99e6040518163ffffffff1660e01b8152600401602060405180830381865afa1580156101cd573d5f5f3e3d5ffd5b505050506040513d601f19601f820116820180604052508101906101f19190610283565b90506100cc565b50565b5f80546040517f93684bd4000000000000000000000000000000000000000000000000000000008152600481018390526001600160a01b03909116906393684bd490602401602060405180830381865afa15801561025b573d5f5f3e3d5ffd5b505050506040513d601f19601f8201168201806040525081019061027f9190610283565b5050565b5f60208284031215610293575f5ffd5b505191905056fea2646970667358221220dc457041e347c405c34fff079192009e76ed6434211537bcb2a054990f59f23164736f6c634300081c0033","linkReferences":{}},"methodIdentifiers":{"attemptWin()":"24dc00ce","exploitMaskBug()":"428dcbee","win()":"473ca96c"},"id":0}