{"abi":[{"type":"function","name":"getCorrectAddress","inputs":[{"name":"creator","type":"address","internalType":"address"},{"name":"nonce","type":"uint256","internalType":"uint256"}],"outputs":[{"name":"","type":"address","internalType":"address"}],"stateMutability":"pure"}],"bytecode":{"object":"0x6080604052348015600e575f5ffd5b506101108061001c5f395ff3fe6080604052348015600e575f5ffd5b50600436106026575f3560e01c8063342697a014602a575b5f5ffd5b60396035366004609a565b6062565b60405173ffffffffffffffffffffffffffffffffffffffff909116815260200160405180910390f35b5f5f60405160ff81536014810194909452505060f01c60348201526035902073ffffffffffffffffffffffffffffffffffffffff1690565b5f5f6040838503121560aa575f5ffd5b823573ffffffffffffffffffffffffffffffffffffffff8116811460cc575f5ffd5b94602093909301359350505056fea26469706673582212204accfedbf22ad92db46e80961b7b5a50c7d1644cbf1398a7b1d5922e6bea94cb64736f6c634300081c0033","linkReferences":{}},"methodIdentifiers":{"getCorrectAddress(address,uint256)":"342697a0"},"id":0}