{"abi":[{"type":"function","name":"horsePower","inputs":[],"outputs":[{"name":"","type":"uint256","internalType":"uint256"}],"stateMutability":"view"},{"type":"function","name":"upgradeToAndCall","inputs":[{"name":"newImplementation","type":"address","internalType":"address"},{"name":"data","type":"bytes","internalType":"bytes"}],"outputs":[],"stateMutability":"nonpayable"},{"type":"function","name":"upgrader","inputs":[],"outputs":[{"name":"","type":"address","internalType":"address"}],"stateMutability":"view"}],"bytecode":{"object":"0x6080604052348015600e575f5ffd5b506102878061001c5f395ff3fe608060405234801561000f575f5ffd5b506004361061003f575f3560e01c80634f1ef28614610043578063564f6d7114610058578063af26974514610074575b5f5ffd5b610056610051366004610173565b6100b8565b005b61006160015481565b6040519081526020015b60405180910390f35b5f546100939073ffffffffffffffffffffffffffffffffffffffff1681565b60405173ffffffffffffffffffffffffffffffffffffffff909116815260200161006b565b5f5473ffffffffffffffffffffffffffffffffffffffff16331461013c576040517f08c379a000000000000000000000000000000000000000000000000000000000815260206004820152600d60248201527f43616e2774207570677261646500000000000000000000000000000000000000604482015260640160405180910390fd5b50506107d0600155565b7f4e487b71000000000000000000000000000000000000000000000000000000005f52604160045260245ffd5b5f5f60408385031215610184575f5ffd5b823573ffffffffffffffffffffffffffffffffffffffff811681146101a7575f5ffd5b9150602083013567ffffffffffffffff8111156101c2575f5ffd5b8301601f810185136101d2575f5ffd5b803567ffffffffffffffff8111156101ec576101ec610146565b604051601f8201601f19908116603f0116810167ffffffffffffffff8111828210171561021b5761021b610146565b604052818152828201602001871015610232575f5ffd5b816020840160208301375f60208383010152809350505050925092905056fea2646970667358221220d484b08588a965674f1375ec354bfca50f06a3a4df655323ed02abdf2443a1ba64736f6c634300081c0033","linkReferences":{}},"methodIdentifiers":{"horsePower()":"564f6d71","upgradeToAndCall(address,bytes)":"4f1ef286","upgrader()":"af269745"},"id":0}