{"abi":[{"type":"constructor","inputs":[{"name":"_higherOrder","type":"address","internalType":"address"}],"stateMutability":"nonpayable"},{"type":"function","name":"attack","inputs":[],"outputs":[],"stateMutability":"nonpayable"},{"type":"function","name":"callClaimLeadership","inputs":[],"outputs":[],"stateMutability":"nonpayable"}],"bytecode":{"object":"0x608060405234801561001057600080fd5b506040516103be3803806103be8339818101604052602081101561003357600080fd5b5051600080546001600160a01b039092166001600160a01b0319909216919091179055610359806100656000396000f3fe608060405234801561001057600080fd5b50600436106100365760003560e01c80635612532e1461003b5780639e5faafc14610045575b600080fd5b61004361004d565b005b6100436101c3565b6000805460408051602060248201819052604482018590528251808303606401815260849092018352810180517bffffffffffffffffffffffffffffffffffffffffffffffffffffffff167f2e24a5db000000000000000000000000000000000000000000000000000000001781529151815173ffffffffffffffffffffffffffffffffffffffff90941693919290918291908083835b602083106101035780518252601f1990920191602091820191016100e4565b6001836020036101000a0380198251168184511680821785525050505050509050019150506000604051808303816000865af19150503d8060008114610165576040519150601f19603f3d011682016040523d82523d6000602084013e61016a565b606091505b50509050806101c0576040805162461bcd60e51b815260206004820152600c60248201527f636c61696d206661696c65640000000000000000000000000000000000000000604482015290519081900360640190fd5b50565b60008054604080517f335f1b800000000000000000000000000000000000000000000000000000000060208083018290526101006024808501829052855180860390910181526044909401948590528351929690958795919473ffffffffffffffffffffffffffffffffffffffff9091169390928291908401908083835b602083106102605780518252601f199092019160209182019101610241565b6001836020036101000a0380198251168184511680821785525050505050509050019150506000604051808303816000865af19150503d80600081146102c2576040519150601f19603f3d011682016040523d82523d6000602084013e6102c7565b606091505b505090508061031d576040805162461bcd60e51b815260206004820152600b60248201527f63616c6c206661696c6564000000000000000000000000000000000000000000604482015290519081900360640190fd5b5050505056fea26469706673582212203b541d5f09b0b32f30baf09709c837fa27eddfa33beea4fdaa9127e81a7b449664736f6c634300060c0033","linkReferences":{}},"methodIdentifiers":{"attack()":"9e5faafc","callClaimLeadership()":"5612532e"},"id":0}