{"abi":[{"type":"constructor","inputs":[{"name":"_tokenAddress","type":"address","internalType":"address"}],"stateMutability":"nonpayable"},{"type":"function","name":"drainTokens","inputs":[],"outputs":[],"stateMutability":"nonpayable"}],"bytecode":{"object":"0x608060405234801561001057600080fd5b506040516101783803806101788339818101604052602081101561003357600080fd5b5051600080546001600160a01b039092166001600160a01b0319909216919091179055610113806100656000396000f3fe6080604052348015600f57600080fd5b506004361060285760003560e01c8063ef1706ce14602d575b600080fd5b60336035565b005b60008054604080517fa9059cbb000000000000000000000000000000000000000000000000000000008152336004820152629896806024820152905173ffffffffffffffffffffffffffffffffffffffff9092169263a9059cbb926044808401936020939083900390910190829087803b15801560b157600080fd5b505af115801560c4573d6000803e3d6000fd5b505050506040513d602081101560d957600080fd5b505056fea26469706673582212208181302dc6557541a2b2bea124939f57d1b51977c930f902b56d56afb3acfb9864736f6c634300060c0033","linkReferences":{}},"methodIdentifiers":{"drainTokens()":"ef1706ce"},"id":0}