{"abi":[{"type":"constructor","inputs":[{"name":"_stake","type":"address","internalType":"address"}],"stateMutability":"nonpayable"},{"type":"fallback","stateMutability":"payable"},{"type":"function","name":"fakeWETH","inputs":[],"outputs":[{"name":"","type":"address","internalType":"contract FakeWETH"}],"stateMutability":"view"},{"type":"function","name":"stakeInstance","inputs":[],"outputs":[{"name":"","type":"address","internalType":"address"}],"stateMutability":"view"},{"type":"function","name":"startAttack","inputs":[],"outputs":[],"stateMutability":"payable"}],"bytecode":{"object":"0x6080604052348015600e575f5ffd5b50604051610702380380610702833981016040819052602b9160ad565b600180546001600160a01b0319166001600160a01b03831690811790915560405160539060a0565b6001600160a01b039091168152602001604051809103905ff080158015607b573d5f5f3e3d5ffd5b505f80546001600160a01b0319166001600160a01b03929092169190911790555060d8565b61021e806104e483390190565b5f6020828403121560bc575f5ffd5b81516001600160a01b038116811460d1575f5ffd5b9392505050565b6103ff806100e55f395ff3fe608060405260043610610032575f3560e01c8062ceb0ce1461003457806377c00de01461006e578063d3882f1e14610076575b005b34801561003f575f5ffd5b505f54610052906001600160a01b031681565b6040516001600160a01b03909116815260200160405180910390f35b610032610095565b348015610081575f5ffd5b50600154610052906001600160a01b031681565b60015460408051600481526024810182526020810180516001600160e01b03167f0a5b9e4d0000000000000000000000000000000000000000000000000000000017905290515f926001600160a01b03169166071afd498d0000916100fa919061039d565b5f6040518083038185875af1925050503d805f8114610134576040519150601f19603f3d011682016040523d82523d5f602084013e610139565b606091505b505090508061018f5760405162461bcd60e51b815260206004820152600f60248201527f5374616b65455448206661696c6564000000000000000000000000000000000060448201526064015b60405180910390fd5b5060015460408051670de0b6b3a764000060248083019190915282518083039091018152604490910182526020810180516001600160e01b03167fb3c4f8150000000000000000000000000000000000000000000000000000000017905290515f926001600160a01b0316916102049161039d565b5f604051808303815f865af19150503d805f811461023d576040519150601f19603f3d011682016040523d82523d5f602084013e610242565b606091505b505080915050806102955760405162461bcd60e51b815260206004820152601060248201527f5374616b6557455448206661696c6564000000000000000000000000000000006044820152606401610186565b6001546040805166071afd498d000060248083019190915282518083039091018152604490910182526020810180516001600160e01b03167f1b44f4540000000000000000000000000000000000000000000000000000000017905290516001600160a01b0390921691610309919061039d565b5f604051808303815f865af19150503d805f8114610342576040519150601f19603f3d011682016040523d82523d5f602084013e610347565b606091505b5050809150508061039a5760405162461bcd60e51b815260206004820152600e60248201527f556e7374616b65206661696c65640000000000000000000000000000000000006044820152606401610186565b50565b5f82515f5b818110156103bc57602081860181015185830152016103a2565b505f92019182525091905056fea26469706673582212203dd5cb52b121778f7b81e220c462e8ef0a19d288d102d7b8b871cc12c322b82a64736f6c634300081c00336080604052348015600e575f5ffd5b5060405161021e38038061021e833981016040819052602b916030565b50605b565b5f60208284031215603f575f5ffd5b81516001600160a01b03811681146054575f5ffd5b9392505050565b6101b6806100685f395ff3fe608060405234801561000f575f5ffd5b506004361061004a575f3560e01c8063095ea7b31461004e57806323b872dd146100835780636aeac3631461009a578063dd62ed3e146100b0575b5f5ffd5b61006e61005c3660046100ed565b5050670de0b6b3a76400005f55600190565b60405190151581526020015b60405180910390f35b61006e610091366004610115565b60019392505050565b6100a25f5481565b60405190815260200161007a565b6100a26100be36600461014f565b50505f5490565b803573ffffffffffffffffffffffffffffffffffffffff811681146100e8575f5ffd5b919050565b5f5f604083850312156100fe575f5ffd5b610107836100c5565b946020939093013593505050565b5f5f5f60608486031215610127575f5ffd5b610130846100c5565b925061013e602085016100c5565b929592945050506040919091013590565b5f5f60408385031215610160575f5ffd5b610169836100c5565b9150610177602084016100c5565b9050925092905056fea2646970667358221220f3bafc1826ce92b1cfa5a4870e2490054ad12758629aa14c4fe9e34e0a860c9964736f6c634300081c0033","linkReferences":{}},"methodIdentifiers":{"fakeWETH()":"00ceb0ce","stakeInstance()":"d3882f1e","startAttack()":"77c00de0"},"id":0}