{"abi":[{"type":"constructor","inputs":[{"name":"_instance","type":"address","internalType":"address"}],"stateMutability":"nonpayable"},{"type":"function","name":"drain","inputs":[{"name":"approver","type":"address","internalType":"address"}],"outputs":[],"stateMutability":"nonpayable"}],"bytecode":{"object":"0x60e060405234801561000f575f5ffd5b5060405161067038038061067083398101604081905261002e91610129565b6001600160a01b03811660808190526040805163d21220a760e01b8152905163d21220a79160048082019260209290919082900301815f875af1158015610077573d5f5f3e3d5ffd5b505050506040513d601f19601f8201168201806040525081019061009b9190610129565b6001600160a01b031660a0816001600160a01b0316815250506080516001600160a01b03166325be124e6040518163ffffffff1660e01b81526004016020604051808303815f875af11580156100f3573d5f5f3e3d5ffd5b505050506040513d601f19601f820116820180604052508101906101179190610129565b6001600160a01b031660c05250610156565b5f60208284031215610139575f5ffd5b81516001600160a01b038116811461014f575f5ffd5b9392505050565b60805160a05160c0516104b36101bd5f395f81816101b00152818161028701528181610300015261038101525f81816090015281816101070152818161018801526103a901525f81816061015281816101e20152818161025801526103db01526104b35ff3fe608060405234801561000f575f5ffd5b5060043610610029575f3560e01c8063ece531321461002d575b5f5ffd5b61004061003b366004610439565b610042565b005b60405163e1f21c6760e01b81526001600160a01b0382811660048301527f0000000000000000000000000000000000000000000000000000000000000000811660248301525f1960448301527f0000000000000000000000000000000000000000000000000000000000000000169063e1f21c67906064015f604051808303815f87803b1580156100d1575f5ffd5b505af11580156100e3573d5f5f3e3d5ffd5b50506040516370a0823160e01b81526001600160a01b0384811660048301525f93507f00000000000000000000000000000000000000000000000000000000000000001691506370a0823190602401602060405180830381865afa15801561014d573d5f5f3e3d5ffd5b505050506040513d601f19601f820116820180604052508101906101719190610466565b604051630df791e560e41b81526001600160a01b037f0000000000000000000000000000000000000000000000000000000000000000811660048301527f000000000000000000000000000000000000000000000000000000000000000081166024830152604482018390529192507f00000000000000000000000000000000000000000000000000000000000000009091169063df791e50906064015f604051808303815f87803b158015610225575f5ffd5b505af1158015610237573d5f5f3e3d5ffd5b505060405163e1f21c6760e01b81526001600160a01b0385811660048301527f0000000000000000000000000000000000000000000000000000000000000000811660248301525f1960448301527f000000000000000000000000000000000000000000000000000000000000000016925063e1f21c6791506064015f604051808303815f87803b1580156102ca575f5ffd5b505af11580156102dc573d5f5f3e3d5ffd5b50506040516370a0823160e01b81526001600160a01b0385811660048301525f93507f00000000000000000000000000000000000000000000000000000000000000001691506370a0823190602401602060405180830381865afa158015610346573d5f5f3e3d5ffd5b505050506040513d601f19601f8201168201806040525081019061036a9190610466565b604051630df791e560e41b81526001600160a01b037f0000000000000000000000000000000000000000000000000000000000000000811660048301527f000000000000000000000000000000000000000000000000000000000000000081166024830152604482018390529192507f00000000000000000000000000000000000000000000000000000000000000009091169063df791e50906064015f604051808303815f87803b15801561041e575f5ffd5b505af1158015610430573d5f5f3e3d5ffd5b50505050505050565b5f60208284031215610449575f5ffd5b81356001600160a01b038116811461045f575f5ffd5b9392505050565b5f60208284031215610476575f5ffd5b505191905056fea26469706673582212201d64679dacd8b627303450aa424738d6520c46f5d3afa191da33b511db0285aa64736f6c634300081c0033","linkReferences":{}},"methodIdentifiers":{"drain(address)":"ece53132"},"id":0}