{"abi":[{"type":"function","name":"getTokens","inputs":[],"outputs":[{"name":"","type":"address","internalType":"address"},{"name":"","type":"address","internalType":"address"}],"stateMutability":"view"},{"type":"function","name":"swap","inputs":[{"name":"from","type":"address","internalType":"address"},{"name":"to","type":"address","internalType":"address"},{"name":"amount","type":"uint256","internalType":"uint256"}],"outputs":[],"stateMutability":"nonpayable"},{"type":"function","name":"token1","inputs":[],"outputs":[{"name":"","type":"address","internalType":"address"}],"stateMutability":"view"},{"type":"function","name":"token2","inputs":[],"outputs":[{"name":"","type":"address","internalType":"address"}],"stateMutability":"view"}],"bytecode":{"object":"0x6080604052348015600e575f5ffd5b5061043c8061001c5f395ff3fe608060405234801561000f575f5ffd5b506004361061004a575f3560e01c806325be124e1461004e578063aa6ca8081461007e578063d21220a7146100a3578063df791e50146100b5575b5f5ffd5b600154610061906001600160a01b031681565b6040516001600160a01b0390911681526020015b60405180910390f35b5f54600154604080516001600160a01b03938416815292909116602083015201610075565b5f54610061906001600160a01b031681565b6100c86100c3366004610348565b6100ca565b005b6040516370a0823160e01b81523060048201525f906001600160a01b038516906370a0823190602401602060405180830381865afa15801561010e573d5f5f3e3d5ffd5b505050506040513d601f19601f820116820180604052508101906101329190610381565b6040516370a0823160e01b81523060048201526001600160a01b038516906370a0823190602401602060405180830381865afa158015610174573d5f5f3e3d5ffd5b505050506040513d601f19601f820116820180604052508101906101989190610381565b6101a29084610398565b6101ac91906103c1565b6040516323b872dd60e01b8152336004820152306024820152604481018490529091506001600160a01b038516906323b872dd906064016020604051808303815f875af11580156101ff573d5f5f3e3d5ffd5b505050506040513d601f19601f8201168201806040525081019061022391906103e0565b506040517fe1f21c67000000000000000000000000000000000000000000000000000000008152336004820152306024820152604481018290526001600160a01b0384169063e1f21c67906064016020604051808303815f875af115801561028d573d5f5f3e3d5ffd5b505050506040513d601f19601f820116820180604052508101906102b191906103e0565b506040516323b872dd60e01b8152306004820152336024820152604481018290526001600160a01b038416906323b872dd906064016020604051808303815f875af1158015610302573d5f5f3e3d5ffd5b505050506040513d601f19601f8201168201806040525081019061032691906103e0565b5050505050565b80356001600160a01b0381168114610343575f5ffd5b919050565b5f5f5f6060848603121561035a575f5ffd5b6103638461032d565b92506103716020850161032d565b9150604084013590509250925092565b5f60208284031215610391575f5ffd5b5051919050565b80820281158282048414176103bb57634e487b7160e01b5f52601160045260245ffd5b92915050565b5f826103db57634e487b7160e01b5f52601260045260245ffd5b500490565b5f602082840312156103f0575f5ffd5b815180151581146103ff575f5ffd5b939250505056fea2646970667358221220d86f172403dd2a7593c2f3a100ac45844d9d768b0ffffb7c7f8cbe6b24f9e6c164736f6c634300081c0033","linkReferences":{}},"methodIdentifiers":{"getTokens()":"aa6ca808","swap(address,address,uint256)":"df791e50","token1()":"d21220a7","token2()":"25be124e"},"id":0}