{"abi":[{"type":"constructor","inputs":[{"name":"","type":"address","internalType":"address"}],"stateMutability":"nonpayable"},{"type":"function","name":"_allowance","inputs":[],"outputs":[{"name":"","type":"uint256","internalType":"uint256"}],"stateMutability":"view"},{"type":"function","name":"allowance","inputs":[{"name":"owner","type":"address","internalType":"address"},{"name":"","type":"address","internalType":"address"}],"outputs":[{"name":"","type":"uint256","internalType":"uint256"}],"stateMutability":"view"},{"type":"function","name":"approve","inputs":[{"name":"","type":"address","internalType":"address"},{"name":"","type":"uint256","internalType":"uint256"}],"outputs":[{"name":"","type":"bool","internalType":"bool"}],"stateMutability":"nonpayable"},{"type":"function","name":"transferFrom","inputs":[{"name":"","type":"address","internalType":"address"},{"name":"","type":"address","internalType":"address"},{"name":"","type":"uint256","internalType":"uint256"}],"outputs":[{"name":"","type":"bool","internalType":"bool"}],"stateMutability":"nonpayable"}],"bytecode":{"object":"0x6080604052348015600e575f5ffd5b5060405161021e38038061021e833981016040819052602b916030565b50605b565b5f60208284031215603f575f5ffd5b81516001600160a01b03811681146054575f5ffd5b9392505050565b6101b6806100685f395ff3fe608060405234801561000f575f5ffd5b506004361061004a575f3560e01c8063095ea7b31461004e57806323b872dd146100835780636aeac3631461009a578063dd62ed3e146100b0575b5f5ffd5b61006e61005c3660046100ed565b5050670de0b6b3a76400005f55600190565b60405190151581526020015b60405180910390f35b61006e610091366004610115565b60019392505050565b6100a25f5481565b60405190815260200161007a565b6100a26100be36600461014f565b50505f5490565b803573ffffffffffffffffffffffffffffffffffffffff811681146100e8575f5ffd5b919050565b5f5f604083850312156100fe575f5ffd5b610107836100c5565b946020939093013593505050565b5f5f5f60608486031215610127575f5ffd5b610130846100c5565b925061013e602085016100c5565b929592945050506040919091013590565b5f5f60408385031215610160575f5ffd5b610169836100c5565b9150610177602084016100c5565b9050925092905056fea2646970667358221220f3bafc1826ce92b1cfa5a4870e2490054ad12758629aa14c4fe9e34e0a860c9964736f6c634300081c0033","linkReferences":{}},"methodIdentifiers":{"_allowance()":"6aeac363","allowance(address,address)":"dd62ed3e","approve(address,uint256)":"095ea7b3","transferFrom(address,address,uint256)":"23b872dd"},"id":0}