{"abi":[{"type":"constructor","inputs":[{"name":"goodSamaritanAddr","type":"address","internalType":"address"}],"stateMutability":"nonpayable"},{"type":"function","name":"goodSamaritan","inputs":[],"outputs":[{"name":"","type":"address","internalType":"contract GoodSamaritan"}],"stateMutability":"view"},{"type":"function","name":"notify","inputs":[{"name":"amount","type":"uint256","internalType":"uint256"}],"outputs":[],"stateMutability":"nonpayable"},{"type":"function","name":"startAttack","inputs":[],"outputs":[],"stateMutability":"nonpayable"}],"bytecode":{"object":"0x6080604052348015600e575f5ffd5b50604051610280380380610280833981016040819052602b91604e565b5f80546001600160a01b0319166001600160a01b03929092169190911790556079565b5f60208284031215605d575f5ffd5b81516001600160a01b03811681146072575f5ffd5b9392505050565b6101fa806100865f395ff3fe608060405234801561000f575f5ffd5b506004361061003f575f3560e01c80636e9c9da51461004357806377c00de01461007157806398d078b41461007b575b5f5ffd5b5f54610055906001600160a01b031681565b6040516001600160a01b03909116815260200160405180910390f35b61007961008e565b005b610079610089366004610187565b610105565b5f5f9054906101000a90046001600160a01b03166001600160a01b031663251436386040518163ffffffff1660e01b81526004016020604051808303815f875af11580156100de573d5f5f3e3d5ffd5b505050506040513d601f19601f82011682018060405250810190610102919061019e565b50565b620f42408111610102575f5f9054906101000a90046001600160a01b03166001600160a01b031663251436386040518163ffffffff1660e01b81526004016020604051808303815f875af115801561015f573d5f5f3e3d5ffd5b505050506040513d601f19601f82011682018060405250810190610183919061019e565b5050565b5f60208284031215610197575f5ffd5b5035919050565b5f602082840312156101ae575f5ffd5b815180151581146101bd575f5ffd5b939250505056fea26469706673582212207a92a05f50b6a35e39829206619ac341587729c8d62b41452a44266593e9e02d64736f6c634300081c0033","linkReferences":{}},"methodIdentifiers":{"goodSamaritan()":"6e9c9da5","notify(uint256)":"98d078b4","startAttack()":"77c00de0"},"id":0}