{"abi":[{"type":"function","name":"StakeWETH","inputs":[{"name":"amount","type":"uint256","internalType":"uint256"}],"outputs":[{"name":"","type":"bool","internalType":"bool"}],"stateMutability":"nonpayable"},{"type":"function","name":"UserStake","inputs":[{"name":"user","type":"address","internalType":"address"}],"outputs":[{"name":"","type":"uint256","internalType":"uint256"}],"stateMutability":"view"},{"type":"function","name":"totalStaked","inputs":[],"outputs":[{"name":"","type":"uint256","internalType":"uint256"}],"stateMutability":"view"}],"bytecode":{"object":"0x6080604052348015600e575f5ffd5b506101048061001c5f395ff3fe6080604052348015600e575f5ffd5b5060043610603a575f3560e01c80636e35c74014603e5780637b233319146063578063817b1cd214607b575b5f5ffd5b604e60493660046080565b505f90565b60405190151581526020015b60405180910390f35b606e60493660046096565b604051908152602001605a565b5f606e565b5f60208284031215608f575f5ffd5b5035919050565b5f6020828403121560a5575f5ffd5b813573ffffffffffffffffffffffffffffffffffffffff8116811460c7575f5ffd5b939250505056fea26469706673582212200a8cf184ea4613f074e19d9094d1528ab593a18f2fdd8f24c1afbd9418f6793a64736f6c634300081c0033","linkReferences":{}},"methodIdentifiers":{"StakeWETH(uint256)":"6e35c740","UserStake(address)":"7b233319","totalStaked()":"817b1cd2"},"id":0}