{"abi":[{"type":"function","name":"allowance","inputs":[{"name":"","type":"address","internalType":"address"},{"name":"","type":"address","internalType":"address"}],"outputs":[{"name":"","type":"uint256","internalType":"uint256"}],"stateMutability":"view"},{"type":"function","name":"approve","inputs":[{"name":"spender","type":"address","internalType":"address"},{"name":"amount","type":"uint256","internalType":"uint256"}],"outputs":[{"name":"","type":"bool","internalType":"bool"}],"stateMutability":"nonpayable"},{"type":"function","name":"balanceOf","inputs":[{"name":"","type":"address","internalType":"address"}],"outputs":[{"name":"","type":"uint256","internalType":"uint256"}],"stateMutability":"view"},{"type":"function","name":"transferFrom","inputs":[{"name":"sender","type":"address","internalType":"address"},{"name":"recipient","type":"address","internalType":"address"},{"name":"amount","type":"uint256","internalType":"uint256"}],"outputs":[{"name":"","type":"bool","internalType":"bool"}],"stateMutability":"nonpayable"}],"bytecode":{"object":"0x6080604052348015600e575f5ffd5b506102258061001c5f395ff3fe608060405234801561000f575f5ffd5b506004361061004a575f3560e01c8063095ea7b31461004e57806323b872dd146100a757806370a08231146100bd578063dd62ed3e146100ea575b5f5ffd5b61009261005c36600461013c565b335f90815260016020818152604080842073ffffffffffffffffffffffffffffffffffffffff9690961684529490529290205590565b60405190151581526020015b60405180910390f35b6100926100b5366004610164565b5f9392505050565b6100dc6100cb36600461019e565b5f6020819052908152604090205481565b60405190815260200161009e565b6100dc6100f83660046101be565b600160209081525f928352604080842090915290825290205481565b803573ffffffffffffffffffffffffffffffffffffffff81168114610137575f5ffd5b919050565b5f5f6040838503121561014d575f5ffd5b61015683610114565b946020939093013593505050565b5f5f5f60608486031215610176575f5ffd5b61017f84610114565b925061018d60208501610114565b929592945050506040919091013590565b5f602082840312156101ae575f5ffd5b6101b782610114565b9392505050565b5f5f604083850312156101cf575f5ffd5b6101d883610114565b91506101e660208401610114565b9050925092905056fea264697066735822122018a460116d07810bbbe402531d829cb1b28f4b4f4f8b2a341d5a392b72105f9b64736f6c634300081c0033","linkReferences":{}},"methodIdentifiers":{"allowance(address,address)":"dd62ed3e","approve(address,uint256)":"095ea7b3","balanceOf(address)":"70a08231","transferFrom(address,address,uint256)":"23b872dd"},"id":0}