{"abi":[{"type":"constructor","inputs":[{"name":"_target","type":"address","internalType":"address payable"}],"stateMutability":"nonpayable"},{"type":"fallback","stateMutability":"payable"},{"type":"function","name":"end","inputs":[],"outputs":[],"stateMutability":"nonpayable"}],"bytecode":{"object":"0x6080604052348015600e575f5ffd5b506040516100ff3803806100ff833981016040819052602b91604e565b5f80546001600160a01b0319166001600160a01b03929092169190911790556079565b5f60208284031215605d575f5ffd5b81516001600160a01b03811681146072575f5ffd5b9392505050565b607a806100855f395ff3fe608060405260043610601b575f3560e01c8063efbe1c1c14601d575b005b3480156027575f5ffd5b50601b5f5473ffffffffffffffffffffffffffffffffffffffff16fffea2646970667358221220b2ef74ddfd77d9a61fb298cca6f87cd161407576e9c8d288a701f9c5ef61371064736f6c634300081c0033","linkReferences":{}},"methodIdentifiers":{"end()":"efbe1c1c"},"id":0}