{"abi":[{"type":"function","name":"analyze","inputs":[],"outputs":[{"name":"factoryOwner","type":"address","internalType":"address"},{"name":"lockCounter","type":"uint256","internalType":"uint256"},{"name":"firstLocker","type":"address","internalType":"address"},{"name":"lockerController","type":"address","internalType":"address"},{"name":"lockerMsgHash","type":"bytes32","internalType":"bytes32"},{"name":"lockerId","type":"uint256","internalType":"uint256"}],"stateMutability":"view"},{"type":"function","name":"checkWinCondition","inputs":[],"outputs":[{"name":"","type":"bool","internalType":"bool"}],"stateMutability":"view"},{"type":"function","name":"craftSignature","inputs":[],"outputs":[{"name":"","type":"bytes","internalType":"bytes"}],"stateMutability":"pure"}],"bytecode":{"object":"0x6080604052348015600e575f5ffd5b5061050e8061001c5f395ff3fe608060405234801561000f575f5ffd5b506004361061003f575f3560e01c80636006188c14610043578063857a874714610060578063a7506c00146100aa575b5f5ffd5b61004b6100bf565b60405190151581526020015b60405180910390f35b610068610161565b604080516001600160a01b03978816815260208101969096529386169385019390935293166060830152608082019290925260a081019190915260c001610057565b6100b2610423565b6040516100579190610449565b5f73f39fd6e51aad88f6f4ce6ab8827279cfffb922666001600160a01b031673a16e02e87b7454126e5e10d957a927a7f5b5d2be6001600160a01b0316638da5cb5b6040518163ffffffff1660e01b8152600401602060405180830381865afa15801561012e573d5f5f3e3d5ffd5b505050506040513d601f19601f820116820180604052508101906101529190610494565b6001600160a01b031614905090565b5f5f5f5f5f5f73a16e02e87b7454126e5e10d957a927a7f5b5d2be6001600160a01b0316638da5cb5b6040518163ffffffff1660e01b8152600401602060405180830381865afa1580156101b7573d5f5f3e3d5ffd5b505050506040513d601f19601f820116820180604052508101906101db9190610494565b955073a16e02e87b7454126e5e10d957a927a7f5b5d2be6001600160a01b0316638db564c26040518163ffffffff1660e01b8152600401602060405180830381865afa15801561022d573d5f5f3e3d5ffd5b505050506040513d601f19601f8201168201806040525081019061025191906104c1565b6040517f809aab920000000000000000000000000000000000000000000000000000000081525f600482015290955073a16e02e87b7454126e5e10d957a927a7f5b5d2be9063809aab9290602401602060405180830381865afa1580156102ba573d5f5f3e3d5ffd5b505050506040513d601f19601f820116820180604052508101906102de9190610494565b93506001600160a01b0384161561041b575f849050806001600160a01b031663f77c47916040518163ffffffff1660e01b8152600401602060405180830381865afa15801561032f573d5f5f3e3d5ffd5b505050506040513d601f19601f820116820180604052508101906103539190610494565b9350806001600160a01b031663e4e6cf4f6040518163ffffffff1660e01b8152600401602060405180830381865afa158015610391573d5f5f3e3d5ffd5b505050506040513d601f19601f820116820180604052508101906103b591906104c1565b9250806001600160a01b03166366fa19326040518163ffffffff1660e01b8152600401602060405180830381865afa1580156103f3573d5f5f3e3d5ffd5b505050506040513d601f19601f8201168201806040525081019061041791906104c1565b9150505b909192939495565b604080516060808252608082019092525f90826020820181803683370190505092915050565b602081525f82518060208401525f5b818110156104755760208186018101516040868401015201610458565b505f604082850101526040601f19601f83011684010191505092915050565b5f602082840312156104a4575f5ffd5b81516001600160a01b03811681146104ba575f5ffd5b9392505050565b5f602082840312156104d1575f5ffd5b505191905056fea2646970667358221220870e1f3c4de7ba0a0abe2c867be45b09ad846b82a982fbd4ac6530662509321864736f6c634300081c0033","linkReferences":{}},"methodIdentifiers":{"analyze()":"857a8747","checkWinCondition()":"6006188c","craftSignature()":"a7506c00"},"id":0}