{"abi":[{"type":"constructor","inputs":[{"name":"_dex","type":"address","internalType":"address"}],"stateMutability":"nonpayable"},{"type":"function","name":"dex","inputs":[],"outputs":[{"name":"","type":"address","internalType":"contract DexTwo"}],"stateMutability":"view"},{"type":"function","name":"drainDex","inputs":[{"name":"malToken","type":"address","internalType":"address"}],"outputs":[],"stateMutability":"nonpayable"},{"type":"function","name":"getTokenAddresses","inputs":[],"outputs":[{"name":"","type":"address","internalType":"address"},{"name":"","type":"address","internalType":"address"},{"name":"","type":"bool","internalType":"bool"}],"stateMutability":"view"}],"bytecode":{"object":"0x6080604052348015600e575f5ffd5b506040516107b53803806107b5833981016040819052602b91604e565b5f80546001600160a01b0319166001600160a01b03929092169190911790556079565b5f60208284031215605d575f5ffd5b81516001600160a01b03811681146072575f5ffd5b9392505050565b61072f806100865f395ff3fe608060405234801561000f575f5ffd5b506004361061003f575f3560e01c8063692058c214610043578063797d0d0e14610072578063ee8c24b814610087575b5f5ffd5b5f54610055906001600160a01b031681565b6040516001600160a01b0390911681526020015b60405180910390f35b610085610080366004610686565b6100b7565b005b61008f610565565b604080516001600160a01b039485168152939092166020840152151590820152606001610069565b5f5f5f9054906101000a90046001600160a01b03166001600160a01b031663d21220a76040518163ffffffff1660e01b8152600401602060405180830381865afa158015610107573d5f5f3e3d5ffd5b505050506040513d601f19601f8201168201806040525081019061012b91906106a8565b90505f5f5f9054906101000a90046001600160a01b03166001600160a01b03166325be124e6040518163ffffffff1660e01b8152600401602060405180830381865afa15801561017d573d5f5f3e3d5ffd5b505050506040513d601f19601f820116820180604052508101906101a191906106a8565b90506001600160a01b038216158015906101c357506001600160a01b03811615155b61022d576040517f08c379a000000000000000000000000000000000000000000000000000000000815260206004820152600e60248201527f546f6b656e73206e6f7420736574000000000000000000000000000000000000604482015260640160405180910390fd5b5f5460405163a9059cbb60e01b81526001600160a01b039182166004820152606460248201529084169063a9059cbb906044016020604051808303815f875af115801561027c573d5f5f3e3d5ffd5b505050506040513d601f19601f820116820180604052508101906102a091906106c3565b505f546040517f095ea7b30000000000000000000000000000000000000000000000000000000081526001600160a01b0391821660048201525f1960248201529084169063095ea7b3906044016020604051808303815f875af1158015610309573d5f5f3e3d5ffd5b505050506040513d601f19601f8201168201806040525081019061032d91906106c3565b505f80546040516370a0823160e01b81526001600160a01b039182166004820152908416906370a0823190602401602060405180830381865afa158015610376573d5f5f3e3d5ffd5b505050506040513d601f19601f8201168201806040525081019061039a91906106e2565b5f80546040516370a0823160e01b81526001600160a01b0391821660048201529293509091908416906370a0823190602401602060405180830381865afa1580156103e7573d5f5f3e3d5ffd5b505050506040513d601f19601f8201168201806040525081019061040b91906106e2565b9050811561047b575f54604051630df791e560e41b81526001600160a01b038781166004830152868116602483015260646044830181905292169163df791e5091015f604051808303815f87803b158015610464575f5ffd5b505af1158015610476573d5f5f3e3d5ffd5b505050505b5f5460405163a9059cbb60e01b81526001600160a01b03918216600482015260c860248201529086169063a9059cbb906044016020604051808303815f875af11580156104ca573d5f5f3e3d5ffd5b505050506040513d601f19601f820116820180604052508101906104ee91906106c3565b50801561055e575f54604051630df791e560e41b81526001600160a01b038781166004830152858116602483015260c860448301529091169063df791e50906064015f604051808303815f87803b158015610547575f5ffd5b505af1158015610559573d5f5f3e3d5ffd5b505050505b5050505050565b5f5f5f5f5f9054906101000a90046001600160a01b03166001600160a01b031663d21220a76040518163ffffffff1660e01b8152600401602060405180830381865afa9250505080156105d5575060408051601f3d908101601f191682019092526105d2918101906106a8565b60015b6105e457505f92839250829150565b5f5f9054906101000a90046001600160a01b03166001600160a01b03166325be124e6040518163ffffffff1660e01b8152600401602060405180830381865afa925050508015610651575060408051601f3d908101601f1916820190925261064e918101906106a8565b60015b61066257505f938493508392509050565b9094909350600192509050565b6001600160a01b0381168114610683575f5ffd5b50565b5f60208284031215610696575f5ffd5b81356106a18161066f565b9392505050565b5f602082840312156106b8575f5ffd5b81516106a18161066f565b5f602082840312156106d3575f5ffd5b815180151581146106a1575f5ffd5b5f602082840312156106f2575f5ffd5b505191905056fea2646970667358221220c95134aefff043501f9405ee4abcf83ed19acc736e74db661cbeac9e5601fda264736f6c634300081c0033","linkReferences":{}},"methodIdentifiers":{"dex()":"692058c2","drainDex(address)":"797d0d0e","getTokenAddresses()":"ee8c24b8"},"id":5}