{"abi":[{"type":"function","name":"getArraySlot","inputs":[{"name":"baseSlot","type":"uint256","internalType":"uint256"}],"outputs":[{"name":"","type":"bytes32","internalType":"bytes32"}],"stateMutability":"pure"},{"type":"function","name":"getSlotAsUint","inputs":[{"name":"slot","type":"bytes32","internalType":"bytes32"}],"outputs":[{"name":"","type":"uint256","internalType":"uint256"}],"stateMutability":"pure"}],"bytecode":{"object":"0x6080604052348015600e575f5ffd5b5060df80601a5f395ff3fe6080604052348015600e575f5ffd5b50600436106030575f3560e01c8063016737f71460345780636c062b92146055575b5f5ffd5b6043603f3660046093565b6063565b60405190815260200160405180910390f35b604360603660046093565b90565b5f81604051602001607691815260200190565b604051602081830303815290604052805190602001209050919050565b5f6020828403121560a2575f5ffd5b503591905056fea2646970667358221220b944cec9a99c176c29e1ea86ebc714ac1cba48d93795c2bb7368415bf5a6696364736f6c634300081c0033","linkReferences":{}},"methodIdentifiers":{"getArraySlot(uint256)":"016737f7","getSlotAsUint(bytes32)":"6c062b92"},"id":0}