{"abi":[{"type":"constructor","inputs":[{"name":"_denial","type":"address","internalType":"address"}],"stateMutability":"nonpayable"},{"type":"receive","stateMutability":"payable"},{"type":"function","name":"denial","inputs":[],"outputs":[{"name":"","type":"address","internalType":"address"}],"stateMutability":"view"}],"bytecode":{"object":"0x6080604052348015600e575f5ffd5b506040516101a73803806101a7833981016040819052602b91604e565b5f80546001600160a01b0319166001600160a01b03929092169190911790556079565b5f60208284031215605d575f5ffd5b81516001600160a01b03811681146072575f5ffd5b9392505050565b610121806100865f395ff3fe608060405260043610601e575f3560e01c806377fa5295146058575f5ffd5b366054575f5a90505b6127108111156054575a90505f5b610400811015604f576046828060aa565b91506001016035565b506027565b5f5ffd5b3480156062575f5ffd5b505f5460819073ffffffffffffffffffffffffffffffffffffffff1681565b60405173ffffffffffffffffffffffffffffffffffffffff909116815260200160405180910390f35b808202811582820484141760e5577f4e487b71000000000000000000000000000000000000000000000000000000005f52601160045260245ffd5b9291505056fea2646970667358221220688c1209862e1b74adc90e8ba5001bab52fa8fa8da519abea366ba04fe72999064736f6c634300081c0033","linkReferences":{}},"methodIdentifiers":{"denial()":"77fa5295"},"id":0}