{"abi":[{"type":"function","name":"spinCarousel","inputs":[{"name":"maxCapacity","type":"uint16","internalType":"uint16"}],"outputs":[],"stateMutability":"nonpayable"}],"bytecode":{"object":"0x6080604052348015600e575f5ffd5b50609680601a5f395ff3fe6080604052348015600e575f5ffd5b50600436106026575f3560e01c80633d51485e14602a575b5f5ffd5b60386035366004603a565b50565b005b5f602082840312156049575f5ffd5b813561ffff811681146059575f5ffd5b939250505056fea2646970667358221220a69653f3662e9e00733582375e2d111341f597676d1061423946b56952bdf1f864736f6c634300081c0033","linkReferences":{}},"methodIdentifiers":{"spinCarousel(uint16)":"3d51485e"},"id":0}