{"abi":[{"type":"function","name":"testActualBroken","inputs":[],"outputs":[{"name":"","type":"bytes","internalType":"bytes"}],"stateMutability":"pure"},{"type":"function","name":"testEncoding","inputs":[{"name":"r","type":"uint256","internalType":"uint256"},{"name":"s","type":"uint256","internalType":"uint256"},{"name":"v","type":"uint256","internalType":"uint256"}],"outputs":[{"name":"","type":"bytes32","internalType":"bytes32"}],"stateMutability":"pure"},{"type":"function","name":"testEncoding2","inputs":[{"name":"r","type":"uint256","internalType":"uint256"},{"name":"s","type":"uint256","internalType":"uint256"},{"name":"v","type":"uint256","internalType":"uint256"}],"outputs":[{"name":"","type":"bytes32","internalType":"bytes32"}],"stateMutability":"pure"}],"bytecode":{"object":"0x6080604052348015600e575f5ffd5b506102908061001c5f395ff3fe608060405234801561000f575f5ffd5b506004361061003f575f3560e01c80637f889b3b14610043578063852cfda31461009b578063b7edd224146100b4575b5f5ffd5b610088610051366004610177565b6040805160208082019590955280820193909352606080840192909252805180840390920182526080909201909152805191012090565b6040519081526020015b60405180910390f35b604080516020810182525f8152905161009291906101a0565b6100886100c2366004610177565b604080516003808252608082019092525f918291906020820160608036833701905050905084815f815181106100fa576100fa6101eb565b602002602001018181525050838160018151811061011a5761011a6101eb565b602002602001018181525050828160028151811061013a5761013a6101eb565b602002602001018181525050806040516020016101579190610218565b604051602081830303815290604052805190602001209150509392505050565b5f5f5f60608486031215610189575f5ffd5b505081359360208301359350604090920135919050565b602081525f82518060208401525f5b818110156101cc57602081860181015160408684010152016101af565b505f604082850101526040601f19601f83011684010191505092915050565b7f4e487b71000000000000000000000000000000000000000000000000000000005f52603260045260245ffd5b602080825282518282018190525f918401906040840190835b8181101561024f578351835260209384019390920191600101610231565b50909594505050505056fea2646970667358221220f0fbee12a6e6477a4bbba0ab8cbe83d0018f50e9d739e8e33f5367f00ce5e00a64736f6c634300081c0033","linkReferences":{}},"methodIdentifiers":{"testActualBroken()":"852cfda3","testEncoding(uint256,uint256,uint256)":"b7edd224","testEncoding2(uint256,uint256,uint256)":"7f889b3b"},"id":0}