{"abi":[{"type":"fallback","stateMutability":"payable"},{"type":"function","name":"MAGIC","inputs":[],"outputs":[{"name":"","type":"bytes4","internalType":"bytes4"}],"stateMutability":"view"}],"bytecode":{"object":"0x6080604052348015600e575f5ffd5b5060b080601a5f395ff3fe608060405260043610601b575f3560e01c80635e41813d14602d575b60405163c3608e9160e01b8152600481f35b3480156037575f5ffd5b50604563c3608e9160e01b81565b6040517fffffffff00000000000000000000000000000000000000000000000000000000909116815260200160405180910390f3fea26469706673582212207c6e165f05fde4927a6ba151242ea1e5b487929d53f5510921d5cb8e1cda953d64736f6c634300081c0033","linkReferences":{}},"methodIdentifiers":{"MAGIC()":"5e41813d"},"id":0}