{"abi":[{"type":"function","name":"solve","inputs":[{"name":"dexAddress","type":"address","internalType":"address"}],"outputs":[],"stateMutability":"nonpayable"}],"bytecode":{"object":"0x6080604052348015600e575f5ffd5b506109318061001c5f395ff3fe608060405234801561000f575f5ffd5b5060043610610029575f3560e01c80635a1073141461002d575b5f5ffd5b61004061003b3660046108a7565b610042565b005b5f8190505f5f826001600160a01b031663d21220a76040518163ffffffff1660e01b8152600401602060405180830381865afa9250505080156100a2575060408051601f3d908101601f1916820190925261009f918101906108c9565b60015b6100ac5750505050565b9150826001600160a01b03166325be124e6040518163ffffffff1660e01b8152600401602060405180830381865afa925050508015610108575060408051601f3d908101601f19168201909252610105918101906108c9565b60015b6101125750505050565b6040517f095ea7b30000000000000000000000000000000000000000000000000000000081526001600160a01b038516600482018190525f19602483015291925063095ea7b3906044015f604051808303815f87803b158015610173575f5ffd5b505af1158015610185573d5f5f3e3d5ffd5b50506040516370a0823160e01b81523360048201525f92506001600160a01b03851691506370a0823190602401602060405180830381865afa1580156101cd573d5f5f3e3d5ffd5b505050506040513d601f19601f820116820180604052508101906101f191906108e4565b6040516370a0823160e01b81523360048201529091505f906001600160a01b038416906370a0823190602401602060405180830381865afa158015610238573d5f5f3e3d5ffd5b505050506040513d601f19601f8201168201806040525081019061025c91906108e4565b6040516370a0823160e01b81526001600160a01b0387811660048301529192505f918616906370a0823190602401602060405180830381865afa1580156102a5573d5f5f3e3d5ffd5b505050506040513d601f19601f820116820180604052508101906102c991906108e4565b6040516370a0823160e01b81526001600160a01b0388811660048301529192505f918616906370a0823190602401602060405180830381865afa158015610312573d5f5f3e3d5ffd5b505050506040513d601f19601f8201168201806040525081019061033691906108e4565b9050600a84101580156103495750816064145b80156103555750806064145b156105bd57604051630df791e560e41b81526001600160a01b0387811660048301528681166024830152600a604483015288169063df791e50906064015f604051808303815f87803b1580156103a9575f5ffd5b505af11580156103bb573d5f5f3e3d5ffd5b5050604051630df791e560e41b81526001600160a01b0388811660048301528981166024830152601460448301528a16925063df791e5091506064015f604051808303815f87803b15801561040e575f5ffd5b505af1158015610420573d5f5f3e3d5ffd5b5050604051630df791e560e41b81526001600160a01b0389811660048301528881166024830152601860448301528a16925063df791e5091506064015f604051808303815f87803b158015610473575f5ffd5b505af1158015610485573d5f5f3e3d5ffd5b5050604051630df791e560e41b81526001600160a01b0388811660048301528981166024830152601e60448301528a16925063df791e5091506064015f604051808303815f87803b1580156104d8575f5ffd5b505af11580156104ea573d5f5f3e3d5ffd5b5050604051630df791e560e41b81526001600160a01b0389811660048301528881166024830152602960448301528a16925063df791e5091506064015f604051808303815f87803b15801561053d575f5ffd5b505af115801561054f573d5f5f3e3d5ffd5b5050604051630df791e560e41b81526001600160a01b0388811660048301528981166024830152602d60448301528a16925063df791e5091506064015f604051808303815f87803b1580156105a2575f5ffd5b505af11580156105b4573d5f5f3e3d5ffd5b50505050610886565b85855f5b600a81101561088257604051633de222bb60e21b81526001600160a01b0384811660048301523360248301525f91908c169063f7888aec90604401602060405180830381865afa158015610617573d5f5f3e3d5ffd5b505050506040513d601f19601f8201168201806040525081019061063b91906108e4565b604051633de222bb60e21b81526001600160a01b0386811660048301528d16602482018190529192505f919063f7888aec90604401602060405180830381865afa15801561068b573d5f5f3e3d5ffd5b505050506040513d601f19601f820116820180604052508101906106af91906108e4565b604051633de222bb60e21b81526001600160a01b0386811660048301528e16602482018190529192505f919063f7888aec90604401602060405180830381865afa1580156106ff573d5f5f3e3d5ffd5b505050506040513d601f19601f8201168201806040525081019061072391906108e4565b9050811580610730575080155b1561073d57505050610882565b5f8390505f8e6001600160a01b031663bfd7e00d8989856040518463ffffffff1660e01b8152600401610791939291906001600160a01b039384168152919092166020820152604081019190915260600190565b602060405180830381865afa1580156107ac573d5f5f3e3d5ffd5b505050506040513d601f19601f820116820180604052508101906107d091906108e4565b90508281106107dd578391505b5f821180156107ec5750848211155b1561086e578e6001600160a01b031663df791e508989856040518463ffffffff1660e01b8152600401610840939291906001600160a01b039384168152919092166020820152604081019190915260600190565b5f604051808303815f87803b158015610857575f5ffd5b505af1158015610869573d5f5f3e3d5ffd5b505050505b509495945050600190920191506105c19050565b5050505b5050505050505050565b6001600160a01b03811681146108a4575f5ffd5b50565b5f602082840312156108b7575f5ffd5b81356108c281610890565b9392505050565b5f602082840312156108d9575f5ffd5b81516108c281610890565b5f602082840312156108f4575f5ffd5b505191905056fea264697066735822122082fe269bb3ea2738117cddfec23ca86f59ea77823124dff526732748ded6b14164736f6c634300081c0033","linkReferences":{}},"methodIdentifiers":{"solve(address)":"5a107314"},"id":0}