{"abi":[{"type":"function","name":"explode","inputs":[],"outputs":[],"stateMutability":"nonpayable"}],"bytecode":{"object":"0x6080604052348015600f57600080fd5b50606f80601d6000396000f3fe6080604052348015600f57600080fd5b506004361060285760003560e01c8063b8b3dbc614602d575b600080fd5b60336035565b005b6000fffea2646970667358221220e5d2e3fe2fd52252e60c7c869bd6f3a85b3f25c2d170afc224d4d1d9c0fc781b64736f6c634300060c0033","linkReferences":{}},"methodIdentifiers":{"explode()":"b8b3dbc6"},"id":0}