{"abi":[{"type":"function","name":"getImplementationAddress","inputs":[{"name":"proxy","type":"address","internalType":"address"}],"outputs":[{"name":"","type":"address","internalType":"address"}],"stateMutability":"view"},{"type":"function","name":"getStorageAt","inputs":[{"name":"target","type":"address","internalType":"address"},{"name":"position","type":"uint256","internalType":"uint256"}],"outputs":[{"name":"","type":"bytes32","internalType":"bytes32"}],"stateMutability":"view"}],"bytecode":{"object":"0x608060405234801561001057600080fd5b5061016e806100206000396000f3fe608060405234801561001057600080fd5b50600436106100365760003560e01c8063a169625f1461003b578063b51889c814610086575b600080fd5b6100746004803603604081101561005157600080fd5b5073ffffffffffffffffffffffffffffffffffffffff81351690602001356100e2565b60408051918252519081900360200190f35b6100b96004803603602081101561009c57600080fd5b503573ffffffffffffffffffffffffffffffffffffffff166100e8565b6040805173ffffffffffffffffffffffffffffffffffffffff9092168252519081900360200190f35b54919050565b6040516000907f360894a13ba1a3210667c828492db98dca3e2076cc3735a920a3ca505d382bbc9082906020818380885afa9050826000526020600060206000885afa505060005194935050505056fea2646970667358221220fc419c12e8341bb3316c56670892608dd4194f7c1501715aecfdcd6ffee543a164736f6c634300060c0033","linkReferences":{}},"methodIdentifiers":{"getImplementationAddress(address)":"b51889c8","getStorageAt(address,uint256)":"a169625f"},"id":0}