{"abi":[{"type":"function","name":"explode","inputs":[],"outputs":[],"stateMutability":"nonpayable"}],"bytecode":{"object":"0x6080604052348015600f57600080fd5b50606e80601d6000396000f3fe6080604052348015600f57600080fd5b506004361060285760003560e01c8063b8b3dbc614602d575b600080fd5b60336035565b005b33fffea2646970667358221220a08cf51a183286c8ab255cb1f0d8603075901d3a8b43dcfd296373a93efbb39064736f6c634300060c0033","linkReferences":{}},"methodIdentifiers":{"explode()":"b8b3dbc6"},"id":0}