{"abi":[{"type":"function","name":"destroy","inputs":[],"outputs":[],"stateMutability":"nonpayable"},{"type":"function","name":"exploit","inputs":[{"name":"engine","type":"address","internalType":"address"}],"outputs":[],"stateMutability":"nonpayable"},{"type":"function","name":"isEngine","inputs":[{"name":"addr","type":"address","internalType":"address"}],"outputs":[{"name":"","type":"bool","internalType":"bool"}],"stateMutability":"view"}],"bytecode":{"object":"0x608060405234801561001057600080fd5b506103de806100206000396000f3fe608060405234801561001057600080fd5b50600436106100415760003560e01c80630aeb4ddf1461004657806383197ef01461006e578063aec9beb714610076575b600080fd5b61006c6004803603602081101561005c57600080fd5b50356001600160a01b03166100b0565b005b61006c610319565b61009c6004803603602081101561008c57600080fd5b50356001600160a01b031661031d565b604080519115158252519081900360200190f35b806001600160a01b0316638129fc1c6040518163ffffffff1660e01b8152600401600060405180830381600087803b1580156100eb57600080fd5b505af11580156100ff573d6000803e3d6000fd5b50505050306001600160a01b0316816001600160a01b031663af2697456040518163ffffffff1660e01b815260040160206040518083038186803b15801561014657600080fd5b505afa15801561015a573d6000803e3d6000fd5b505050506040513d602081101561017057600080fd5b50516001600160a01b0316146101e757604080517f08c379a000000000000000000000000000000000000000000000000000000000815260206004820152600c60248201527f4e6f742075706772616465720000000000000000000000000000000000000000604482015290519081900360640190fd5b604080516004808252602480830184526020830180517bffffffffffffffffffffffffffffffffffffffffffffffffffffffff167f83197ef00000000000000000000000000000000000000000000000000000000017815284517f4f1ef286000000000000000000000000000000000000000000000000000000008152309381018481529281019586528451604482015284516001600160a01b03881696634f1ef28696949390926064019180838360005b838110156102b1578181015183820152602001610299565b50505050905090810190601f1680156102de5780820380516001836020036101000a031916815260200191505b509350505050600060405180830381600087803b1580156102fe57600080fd5b505af1158015610312573d6000803e3d6000fd5b5050505050565b6000ff5b6000813b806103305760009150506103a3565b826001600160a01b031663564f6d716040518163ffffffff1660e01b815260040160206040518083038186803b15801561036957600080fd5b505afa92505050801561038e57506040513d602081101561038957600080fd5b505160015b61039c5760009150506103a3565b6001925050505b91905056fea2646970667358221220832fe8de003fb37b04bc343aa77f1bb2ab6d2a98ff8ae45600d737b9978b8fec64736f6c634300060c0033","linkReferences":{}},"methodIdentifiers":{"destroy()":"83197ef0","exploit(address)":"0aeb4ddf","isEngine(address)":"aec9beb7"},"id":0}