{"abi":[{"type":"constructor","inputs":[{"name":"_denial","type":"address","internalType":"address"}],"stateMutability":"nonpayable"},{"type":"fallback","stateMutability":"payable"},{"type":"receive","stateMutability":"payable"},{"type":"function","name":"denial","inputs":[],"outputs":[{"name":"","type":"address","internalType":"address"}],"stateMutability":"view"},{"type":"function","name":"drain","inputs":[],"outputs":[],"stateMutability":"nonpayable"}],"bytecode":{"object":"0x6080604052348015600e575f5ffd5b506040516102a03803806102a0833981016040819052602b916094565b5f80546001600160a01b0319166001600160a01b038316908117909155604051631387164560e21b8152306004820152634e1c5914906024015f604051808303815f87803b158015607a575f5ffd5b505af1158015608b573d5f5f3e3d5ffd5b505050505060bf565b5f6020828403121560a3575f5ffd5b81516001600160a01b038116811460b8575f5ffd5b9392505050565b6101d4806100cc5f395ff3fe60806040526004361061002c575f3560e01c806377fa5295146100fe5780639890220b14610138576100a4565b366100a4575f5466038d7ea4c680006001600160a01b0390911631106100a2575f805460408051633ccfd60b60e01b815290516001600160a01b0390921692633ccfd60b9260048084019382900301818387803b15801561008b575f5ffd5b505af115801561009d573d5f5f3e3d5ffd5b505050505b005b5f5466038d7ea4c680006001600160a01b0390911631106100a2575f805460408051633ccfd60b60e01b815290516001600160a01b0390921692633ccfd60b9260048084019382900301818387803b15801561008b575f5ffd5b348015610109575f5ffd5b505f5461011c906001600160a01b031681565b6040516001600160a01b03909116815260200160405180910390f35b348015610143575f5ffd5b506100a25f805460408051633ccfd60b60e01b815290516001600160a01b0390921692633ccfd60b9260048084019382900301818387803b158015610186575f5ffd5b505af1158015610198573d5f5f3e3d5ffd5b5050505056fea2646970667358221220535a8602155ca84b85af7d822f4d2856bf88953028a0d736cd2310a3c5e9b29864736f6c634300081c0033","linkReferences":{}},"methodIdentifiers":{"denial()":"77fa5295","drain()":"9890220b"},"id":0}