{"abi":[{"type":"function","name":"forceSend","inputs":[{"name":"_target","type":"address","internalType":"address payable"}],"outputs":[],"stateMutability":"payable"}],"bytecode":{"object":"0x6080604052348015600e575f5ffd5b5060b780601a5f395ff3fe608060405260043610601b575f3560e01c8063f2adf1cb14601f575b5f5ffd5b602e602a3660046049565b6030565b005b8073ffffffffffffffffffffffffffffffffffffffff16ff5b5f602082840312156058575f5ffd5b813573ffffffffffffffffffffffffffffffffffffffff81168114607a575f5ffd5b939250505056fea26469706673582212202f16c57a219a9fcbf639d6025cda896671a25cc5f3a2d09ecb796f0a2b86c5d064736f6c634300081c0033","linkReferences":{}},"methodIdentifiers":{"forceSend(address)":"f2adf1cb"},"id":0}