{"abi":[{"type":"constructor","inputs":[{"name":"_impersonator","type":"address","internalType":"address"}],"stateMutability":"nonpayable"},{"type":"function","name":"attack","inputs":[],"outputs":[],"stateMutability":"nonpayable"},{"type":"function","name":"attackWithCraftedSignature","inputs":[],"outputs":[],"stateMutability":"nonpayable"},{"type":"function","name":"computeMsgHash","inputs":[{"name":"lockId","type":"uint256","internalType":"uint256"}],"outputs":[{"name":"","type":"bytes32","internalType":"bytes32"}],"stateMutability":"pure"},{"type":"function","name":"deployer","inputs":[],"outputs":[{"name":"","type":"address","internalType":"address"}],"stateMutability":"view"},{"type":"function","name":"impersonator","inputs":[],"outputs":[{"name":"","type":"address","internalType":"address"}],"stateMutability":"view"}],"bytecode":{"object":"0x60c060405234801561000f575f5ffd5b506040516103c53803806103c583398101604081905261002e91610043565b6001600160a01b03166080523360a052610070565b5f60208284031215610053575f5ffd5b81516001600160a01b0381168114610069575f5ffd5b9392505050565b60805160a05161032861009d5f395f60d001525f8181607701528181610170015261021a01526103285ff3fe608060405234801561000f575f5ffd5b5060043610610064575f3560e01c80639e5faafc1161004d5780639e5faafc146100c3578063d5f39488146100cb578063f22c4d4a146100f2575f5ffd5b80636e60c217146100685780638136fd9014610072575b5f5ffd5b610070610140565b005b6100997f000000000000000000000000000000000000000000000000000000000000000081565b60405173ffffffffffffffffffffffffffffffffffffffff90911681526020015b60405180910390f35b6100706101ea565b6100997f000000000000000000000000000000000000000000000000000000000000000081565b610132610100366004610290565b7f19457468657265756d205369676e6564204d6573736167653a0a3332000000005f908152601c91909152603c902090565b6040519081526020016100ba565b60408051608080825260a082019092525f9160208201818036833750506040516361a423b160e01b8152919250507f000000000000000000000000000000000000000000000000000000000000000073ffffffffffffffffffffffffffffffffffffffff16906361a423b1906101ba9084906004016102a7565b5f604051808303815f87803b1580156101d1575f5ffd5b505af11580156101e3573d5f5f3e3d5ffd5b5050505050565b60408051608080825260a082019092525f9160208201818036833750506040516361a423b160e01b8152919250507f000000000000000000000000000000000000000000000000000000000000000073ffffffffffffffffffffffffffffffffffffffff16906361a423b1906102649084906004016102a7565b5f604051808303815f87803b15801561027b575f5ffd5b505af192505050801561028c575060015b5050565b5f602082840312156102a0575f5ffd5b5035919050565b602081525f82518060208401525f5b818110156102d357602081860181015160408684010152016102b6565b505f604082850101526040601f19601f8301168401019150509291505056fea2646970667358221220ae572bf692e27004e61baca53e33e66dfd629124bd4ea17e3398e1e2bb45864564736f6c634300081c0033","linkReferences":{}},"methodIdentifiers":{"attack()":"9e5faafc","attackWithCraftedSignature()":"6e60c217","computeMsgHash(uint256)":"f22c4d4a","deployer()":"d5f39488","impersonator()":"8136fd90"},"id":0}