{"abi":[{"type":"constructor","inputs":[{"name":"_magicNumInstance","type":"address","internalType":"address"}],"stateMutability":"nonpayable"},{"type":"function","name":"attack","inputs":[],"outputs":[],"stateMutability":"nonpayable"},{"type":"function","name":"magic","inputs":[],"outputs":[{"name":"","type":"uint256","internalType":"uint256"}],"stateMutability":"pure"},{"type":"function","name":"magicNumInstance","inputs":[],"outputs":[{"name":"","type":"address","internalType":"address"}],"stateMutability":"view"}],"bytecode":{"object":"0x6080604052348015600e575f5ffd5b506040516101f13803806101f1833981016040819052602b91604e565b5f80546001600160a01b0319166001600160a01b03929092169190911790556079565b5f60208284031215605d575f5ffd5b81516001600160a01b03811681146072575f5ffd5b9392505050565b61016b806100865f395ff3fe608060405234801561000f575f5ffd5b506004361061003f575f3560e01c80630d854646146100435780639e5faafc1461005e578063e4accff314610068575b5f5ffd5b61004b6100ac565b6040519081526020015b60405180910390f35b6100666100b6565b005b5f546100879073ffffffffffffffffffffffffffffffffffffffff1681565b60405173ffffffffffffffffffffffffffffffffffffffff9091168152602001610055565b5f60585f5260205ff35b5f546040517f1f87943300000000000000000000000000000000000000000000000000000000815230600482015273ffffffffffffffffffffffffffffffffffffffff90911690631f879433906024015f604051808303815f87803b15801561011d575f5ffd5b505af115801561012f573d5f5f3e3d5ffd5b5050505056fea2646970667358221220075bb41a176b2cb9ad8604381f989afdd831f2a53db86819876c8ca33266370764736f6c634300081c0033","linkReferences":{}},"methodIdentifiers":{"attack()":"9e5faafc","magic()":"0d854646","magicNumInstance()":"e4accff3"},"id":0}