{"abi":[{"type":"function","name":"checkFactory","inputs":[{"name":"factory","type":"address","internalType":"address"}],"outputs":[{"name":"","type":"bytes","internalType":"bytes"}],"stateMutability":"view"},{"type":"function","name":"debugDex","inputs":[{"name":"dex","type":"address","internalType":"address"}],"outputs":[{"name":"hasCode","type":"bool","internalType":"bool"},{"name":"owner","type":"address","internalType":"address"},{"name":"token1CallResult","type":"bytes","internalType":"bytes"},{"name":"token2CallResult","type":"bytes","internalType":"bytes"}],"stateMutability":"view"}],"bytecode":{"object":"0x6080604052348015600e575f5ffd5b5061037d8061001c5f395ff3fe608060405234801561000f575f5ffd5b5060043610610034575f3560e01c8063930280ed1461003857806398c4e97214610064575b5f5ffd5b61004b61004636600461025a565b610084565b60405161005b94939291906102d4565b60405180910390f35b61007761007236600461025a565b610202565b60405161005b919061031a565b5f805460408051600481526024810182526020810180517bffffffffffffffffffffffffffffffffffffffffffffffffffffffff167fd21220a7000000000000000000000000000000000000000000000000000000001790529051843b80151594606093849386929182916001600160a01b038b16916101039161032c565b5f60405180830381855afa9150503d805f811461013b576040519150601f19603f3d011682016040523d82523d5f602084013e610140565b606091505b5060408051600481526024810182526020810180517bffffffffffffffffffffffffffffffffffffffffffffffffffffffff167f25be124e0000000000000000000000000000000000000000000000000000000017905290519198509193506001600160a01b038b16916101b39161032c565b5f60405180830381855afa9150503d805f81146101eb576040519150601f19603f3d011682016040523d82523d5f602084013e6101f0565b606091505b50989a97995095979695505050505050565b60605f5f836001600160a01b03166040515f60405180830381855afa9150503d805f811461024b576040519150601f19603f3d011682016040523d82523d5f602084013e610250565b606091505b5095945050505050565b5f6020828403121561026a575f5ffd5b81356001600160a01b0381168114610280575f5ffd5b9392505050565b5f5b838110156102a1578181015183820152602001610289565b50505f910152565b5f81518084526102c0816020860160208601610287565b601f01601f19169290920160200192915050565b84151581526001600160a01b0384166020820152608060408201525f6102fd60808301856102a9565b828103606084015261030f81856102a9565b979650505050505050565b602081525f61028060208301846102a9565b5f825161033d818460208701610287565b919091019291505056fea264697066735822122060c5adc8790d0ba18b9584734665d6e88d412111b2a2ecba8236df0cc181cc0864736f6c634300081c0033","linkReferences":{}},"methodIdentifiers":{"checkFactory(address)":"98c4e972","debugDex(address)":"930280ed"},"id":0}