{"abi":[{"type":"constructor","inputs":[{"name":"_carousel","type":"address","internalType":"address"},{"name":"_player","type":"address","internalType":"address"}],"stateMutability":"nonpayable"},{"type":"function","name":"carousel","inputs":[],"outputs":[{"name":"","type":"address","internalType":"contract IMagicAnimalCarousel"}],"stateMutability":"view"},{"type":"function","name":"player","inputs":[],"outputs":[{"name":"","type":"address","internalType":"address"}],"stateMutability":"view"},{"type":"function","name":"prepareAttack","inputs":[],"outputs":[],"stateMutability":"nonpayable"}],"bytecode":{"object":"0x6080604052348015600e575f5ffd5b5060405161050e38038061050e833981016040819052602b916074565b5f80546001600160a01b039384166001600160a01b0319918216179091556001805492909316911617905560a0565b80516001600160a01b0381168114606f575f5ffd5b919050565b5f5f604083850312156084575f5ffd5b608b83605a565b9150609760208401605a565b90509250929050565b610461806100ad5f395ff3fe608060405234801561000f575f5ffd5b506004361061003f575f3560e01c806348db5f891461004357806375c568c0146100725780638f8fa52f1461007c575b5f5ffd5b600154610056906001600160a01b031681565b6040516001600160a01b03909116815260200160405180910390f35b61007a61008e565b005b5f54610056906001600160a01b031681565b5f54604051632acee48960e21b815260206004820152600560248201527f736574757000000000000000000000000000000000000000000000000000000060448201526001600160a01b039091169063ab3b9224906064015f604051808303815f87803b1580156100fd575f5ffd5b505af115801561010f573d5f5f3e3d5ffd5b505050505f5f5f9054906101000a90046001600160a01b03166001600160a01b03166326bad99e6040518163ffffffff1660e01b8152600401602060405180830381865afa158015610163573d5f5f3e3d5ffd5b505050506040513d601f19601f820116820180604052508101906101879190610395565b60408051600c8082528183019092529192505f91906020820181803683370190505090505f60f81b815f815181106101c1576101c16103ac565b60200101906001600160f81b03191690815f1a9053505f60f81b816001815181106101ee576101ee6103ac565b60200101906001600160f81b03191690815f1a90535060025b600c81101561024557604260f81b828281518110610227576102276103ac565b60200101906001600160f81b03191690815f1a905350600101610207565b505f546040516324c8a27360e21b81526001600160a01b039091169063932289cc9061027790849086906004016103d9565b5f604051808303815f87803b15801561028e575f5ffd5b505af11580156102a0573d5f5f3e3d5ffd5b50505f54604051632acee48960e21b815260206004820152600560248201527f676f746f3000000000000000000000000000000000000000000000000000000060448201526001600160a01b03909116925063ab3b922491506064015f604051808303815f87803b158015610313575f5ffd5b505af1158015610325573d5f5f3e3d5ffd5b50505f8054604080516324c8a27360e21b815260048101919091526044810183905260248101929092526001600160a01b0316925063932289cc91506064015f604051808303815f87803b15801561037b575f5ffd5b505af115801561038d573d5f5f3e3d5ffd5b505050505050565b5f602082840312156103a5575f5ffd5b5051919050565b7f4e487b71000000000000000000000000000000000000000000000000000000005f52603260045260245ffd5b604081525f83518060408401525f5b8181101561040557602081870181015160608684010152016103e8565b505f606082850101526060601f19601f830116840101915050826020830152939250505056fea2646970667358221220be82fa2d8db5acefbbb77cf9d3f70ff866aaa63db89558099dd0d8531a95ec4864736f6c634300081c0033","linkReferences":{}},"methodIdentifiers":{"carousel()":"8f8fa52f","player()":"48db5f89","prepareAttack()":"75c568c0"},"id":0}