{"abi":[{"type":"constructor","inputs":[{"name":"_target","type":"address","internalType":"address"}],"stateMutability":"nonpayable"},{"type":"function","name":"analyzeEncoding","inputs":[{"name":"animal","type":"string","internalType":"string"}],"outputs":[{"name":"encoded","type":"uint256","internalType":"uint256"},{"name":"shiftedWrong","type":"uint256","internalType":"uint256"},{"name":"shiftedCorrect","type":"uint256","internalType":"uint256"}],"stateMutability":"view"},{"type":"function","name":"checkProgress","inputs":[],"outputs":[{"name":"currentId","type":"uint256","internalType":"uint256"},{"name":"crate0","type":"uint256","internalType":"uint256"},{"name":"crate1","type":"uint256","internalType":"uint256"},{"name":"crate65535","type":"uint256","internalType":"uint256"}],"stateMutability":"view"},{"type":"function","name":"directApproach","inputs":[],"outputs":[],"stateMutability":"nonpayable"},{"type":"function","name":"exploitOverflow","inputs":[],"outputs":[],"stateMutability":"nonpayable"},{"type":"function","name":"target","inputs":[],"outputs":[{"name":"","type":"address","internalType":"contract IMagicAnimalCarousel"}],"stateMutability":"view"}],"bytecode":{"object":"0x6080604052348015600e575f5ffd5b506040516106e93803806106e9833981016040819052602b91604e565b5f80546001600160a01b0319166001600160a01b03929092169190911790556079565b5f60208284031215605d575f5ffd5b81516001600160a01b03811681146072575f5ffd5b9392505050565b610663806100865f395ff3fe608060405234801561000f575f5ffd5b5060043610610064575f3560e01c8063d4b839921161004d578063d4b83992146100a5578063e4c35e29146100cf578063e9a8df0a146100d7575f5ffd5b806346c7257f14610068578063bd69bc1d14610072575b5f5ffd5b6100706100ff565b005b610085610080366004610504565b610209565b604080519384526020840192909252908201526060015b60405180910390f35b5f546100b7906001600160a01b031681565b6040516001600160a01b03909116815260200161009c565b6100706102c7565b6100df610328565b60408051948552602085019390935291830152606082015260800161009c565b60408051600c8082528183019092525f9160208201818036833701905050905060ff60f81b815f81518110610136576101366105b7565b60200101907effffffffffffffffffffffffffffffffffffffffffffffffffffffffffffff191690815f1a90535060ff60f81b8160018151811061017c5761017c6105b7565b60200101907effffffffffffffffffffffffffffffffffffffffffffffffffffffffffffff191690815f1a9053505f54604051632acee48960e21b81526001600160a01b039091169063ab3b9224906101d99084906004016105cb565b5f604051808303815f87803b1580156101f0575f5ffd5b505af1158015610202573d5f5f3e3d5ffd5b5050505050565b5f80546040517f76997b75000000000000000000000000000000000000000000000000000000008152829182916001600160a01b03909116906376997b75906102569087906004016105cb565b602060405180830381865afa158015610271573d5f5f3e3d5ffd5b505050506040513d601f19601f820116820180604052508101906102959190610616565b947fffffffffffffffffffff0000000000000000000000000000000000000000000060a087901b169450849350915050565b604080518082018252600c81527ff09fa684f09fa684f09fa684000000000000000000000000000000000000000060208201525f549151632acee48960e21b815290916001600160a01b03169063ab3b9224906101d99084906004016105cb565b5f5f5f5f5f5f9054906101000a90046001600160a01b03166001600160a01b03166326bad99e6040518163ffffffff1660e01b8152600401602060405180830381865afa15801561037b573d5f5f3e3d5ffd5b505050506040513d601f19601f8201168201806040525081019061039f9190610616565b5f80546040516324da12f560e21b81529296506001600160a01b0316916393684bd4916103d29160040190815260200190565b602060405180830381865afa1580156103ed573d5f5f3e3d5ffd5b505050506040513d601f19601f820116820180604052508101906104119190610616565b5f546040516324da12f560e21b8152600160048201529194506001600160a01b0316906393684bd490602401602060405180830381865afa158015610458573d5f5f3e3d5ffd5b505050506040513d601f19601f8201168201806040525081019061047c9190610616565b5f546040516324da12f560e21b815261ffff60048201529193506001600160a01b0316906393684bd490602401602060405180830381865afa1580156104c4573d5f5f3e3d5ffd5b505050506040513d601f19601f820116820180604052508101906104e89190610616565b905090919293565b634e487b7160e01b5f52604160045260245ffd5b5f60208284031215610514575f5ffd5b813567ffffffffffffffff81111561052a575f5ffd5b8201601f8101841361053a575f5ffd5b803567ffffffffffffffff811115610554576105546104f0565b604051601f8201601f19908116603f0116810167ffffffffffffffff81118282101715610583576105836104f0565b60405281815282820160200186101561059a575f5ffd5b816020840160208301375f91810160200191909152949350505050565b634e487b7160e01b5f52603260045260245ffd5b602081525f82518060208401525f5b818110156105f757602081860181015160408684010152016105da565b505f604082850101526040601f19601f83011684010191505092915050565b5f60208284031215610626575f5ffd5b505191905056fea26469706673582212205558726d0154e003a0c75121c954fef89ed3b93e0f71c714569d6933ee15222e64736f6c634300081c0033","linkReferences":{}},"methodIdentifiers":{"analyzeEncoding(string)":"bd69bc1d","checkProgress()":"e9a8df0a","directApproach()":"46c7257f","exploitOverflow()":"e4c35e29","target()":"d4b83992"},"id":0}