{"abi":[{"type":"function","name":"destroyToken","inputs":[],"outputs":[],"stateMutability":"nonpayable"},{"type":"function","name":"getSimpleAddress","inputs":[{"name":"recovery","type":"address","internalType":"address"},{"name":"nonce","type":"uint256","internalType":"uint256"}],"outputs":[{"name":"","type":"address","internalType":"address"}],"stateMutability":"pure"}],"bytecode":{"object":"0x6080604052348015600e575f5ffd5b506102218061001c5f395ff3fe608060405234801561000f575f5ffd5b5060043610610034575f3560e01c806311e8ca25146100385780632e4eaa15146100b5575b5f5ffd5b61008c6100463660046101a9565b60408051606093841b6bffffffffffffffffffffffff19166020808301919091526034808301949094528251808303909401845260549091019091528151910120901c90565b60405173ffffffffffffffffffffffffffffffffffffffff909116815260200160405180910390f35b6100bd6100bf565b005b604080517fa16e02e87b7454126e5e10d957a927a7f5b5d2be0000000000000000000000006020808301919091526001603480840191909152835180840390910181526054909201909252805191012073a16e02e87b7454126e5e10d957a927a7f5b5d2be905f9060601c6040517ef55d9d00000000000000000000000000000000000000000000000000000000815233600482015290915073ffffffffffffffffffffffffffffffffffffffff82169062f55d9d906024015f604051808303815f87803b15801561018f575f5ffd5b505af11580156101a1573d5f5f3e3d5ffd5b505050505050565b5f5f604083850312156101ba575f5ffd5b823573ffffffffffffffffffffffffffffffffffffffff811681146101dd575f5ffd5b94602093909301359350505056fea26469706673582212202dc631820ea00444b1725425069da2533485d63e3af59411f9e3bfdba24ade5d64736f6c634300081c0033","linkReferences":{}},"methodIdentifiers":{"destroyToken()":"2e4eaa15","getSimpleAddress(address,uint256)":"11e8ca25"},"id":0}