{"abi":[{"type":"constructor","inputs":[{"name":"_instance","type":"address","internalType":"address"}],"stateMutability":"nonpayable"},{"type":"receive","stateMutability":"payable"},{"type":"function","name":"alienCodex","inputs":[],"outputs":[{"name":"","type":"address","internalType":"contract IAlienCodex"}],"stateMutability":"view"},{"type":"function","name":"attack","inputs":[],"outputs":[],"stateMutability":"nonpayable"}],"bytecode":{"object":"0x6080604052348015600e575f5ffd5b506040516102e83803806102e8833981016040819052602b91604e565b5f80546001600160a01b0319166001600160a01b03929092169190911790556079565b5f60208284031215605d575f5ffd5b81516001600160a01b03811681146072575f5ffd5b9392505050565b610262806100865f395ff3fe60806040526004361061002b575f3560e01c806326219a2e146100365780639e5faafc14610070575f5ffd5b3661003257005b5f5ffd5b348015610041575f5ffd5b505f54610054906001600160a01b031681565b6040516001600160a01b03909116815260200160405180910390f35b34801561007b575f5ffd5b50610084610086565b005b5f8054604080517f328b52cb00000000000000000000000000000000000000000000000000000000815290516001600160a01b039092169263328b52cb9260048084019382900301818387803b1580156100de575f5ffd5b505af11580156100f0573d5f5f3e3d5ffd5b50505f8054604080517f47f57b3200000000000000000000000000000000000000000000000000000000815290516001600160a01b0390921694506347f57b329350600480820193929182900301818387803b15801561014e575f5ffd5b505af1158015610160573d5f5f3e3d5ffd5b50507f01000000000000000000000000000000000000000000000000000000000000005f818152546040517f0339f3000000000000000000000000000000000000000000000000000000000081527fb7f873012a9cc615ab69d18d3c8380a7703b071a43e8c7d8458a34ef59c5695b60048201819052306024830181905293955093508392916001600160a01b031690630339f300906044015f604051808303815f87803b158015610210575f5ffd5b505af1158015610222573d5f5f3e3d5ffd5b505050505050505056fea2646970667358221220203512a0579d8e0383cb1ae56a05e416eae060ffa1f18d868156f045e865013d64736f6c634300081c0033","linkReferences":{}},"methodIdentifiers":{"alienCodex()":"26219a2e","attack()":"9e5faafc"},"id":0}