{"abi":[{"type":"constructor","inputs":[],"stateMutability":"nonpayable"},{"type":"function","name":"MAX_CAPACITY","inputs":[],"outputs":[{"name":"","type":"uint16","internalType":"uint16"}],"stateMutability":"view"},{"type":"function","name":"carousel","inputs":[{"name":"crateId","type":"uint256","internalType":"uint256"}],"outputs":[{"name":"animalInside","type":"uint256","internalType":"uint256"}],"stateMutability":"view"},{"type":"function","name":"changeAnimal","inputs":[{"name":"animal","type":"string","internalType":"string"},{"name":"crateId","type":"uint256","internalType":"uint256"}],"outputs":[],"stateMutability":"nonpayable"},{"type":"function","name":"currentCrateId","inputs":[],"outputs":[{"name":"","type":"uint256","internalType":"uint256"}],"stateMutability":"view"},{"type":"function","name":"encodeAnimalName","inputs":[{"name":"animalName","type":"string","internalType":"string"}],"outputs":[{"name":"","type":"uint256","internalType":"uint256"}],"stateMutability":"pure"},{"type":"function","name":"setAnimalAndSpin","inputs":[{"name":"animal","type":"string","internalType":"string"}],"outputs":[],"stateMutability":"nonpayable"},{"type":"error","name":"AnimalNameTooLong","inputs":[]}],"bytecode":{"object":"0x6080604052348015600e575f5ffd5b505f805260016020527fa6eef7e35abe7026729641147f7915573c7e97b47efa546f5f6e3230263bcb498054600160a01b1890556104768061004f5f395ff3fe608060405234801561000f575f5ffd5b506004361061006f575f3560e01c8063932289cc1161004d578063932289cc146100bd57806393684bd4146100d2578063ab3b9224146100f1575f5ffd5b806326bad99e146100735780633a5ddf301461008e57806376997b75146100aa575b5f5ffd5b61007b5f5481565b6040519081526020015b60405180910390f35b61009761ffff81565b60405161ffff9091168152602001610085565b61007b6100b836600461032f565b610104565b6100d06100cb36600461036e565b61015f565b005b61007b6100e03660046103b6565b60016020525f908152604090205481565b6100d06100ff36600461032f565b610230565b5f600c82111561012757604051630b3d107360e01b815260040160405180910390fd5b60a0838360405160200161013c9291906103cd565b604051602081830303815290604052610154906103dc565b901c90505b92915050565b5f8181526001602052604090205473ffffffffffffffffffffffffffffffffffffffff1680156101aa573373ffffffffffffffffffffffffffffffffffffffff8216146101aa575f5ffd5b5f6101b58585610104565b905080156101f5575f83815260016020526040902080543375ffff000000000000000000000000000000000000000090911660a084901b17179055610229565b5f83815260016020526040902080547fffffffffffffffffffffffff00000000000000000000000000000000000000001690555b5050505050565b5f601061023d8484610104565b5f8054815260016020526040902054911c915060a01c61ffff1669ffffffffffffffffffff82111561028257604051630b3d107360e01b815260040160405180910390fd5b3360a061ffff610293846001610402565b61029d9190610421565b5f84815260016020526040812080547fffffffffffffffffffff0000ffffffffffffffffffffffffffffffffffffffff1660b09790971b969096189190921b179190911790925590555050565b5f5f83601f8401126102fa575f5ffd5b50813567ffffffffffffffff811115610311575f5ffd5b602083019150836020828501011115610328575f5ffd5b9250929050565b5f5f60208385031215610340575f5ffd5b823567ffffffffffffffff811115610356575f5ffd5b610362858286016102ea565b90969095509350505050565b5f5f5f60408486031215610380575f5ffd5b833567ffffffffffffffff811115610396575f5ffd5b6103a2868287016102ea565b909790965060209590950135949350505050565b5f602082840312156103c6575f5ffd5b5035919050565b818382375f9101908152919050565b805160208083015191908110156103fc575f198160200360031b1b821691505b50919050565b8082018082111561015957634e487b7160e01b5f52601160045260245ffd5b5f8261043b57634e487b7160e01b5f52601260045260245ffd5b50069056fea26469706673582212202d0a2f5873156aa2b9333cdda1e2829d74bc9fd83df6161903b056fd390d18b564736f6c634300081c0033","linkReferences":{}},"methodIdentifiers":{"MAX_CAPACITY()":"3a5ddf30","carousel(uint256)":"93684bd4","changeAnimal(string,uint256)":"932289cc","currentCrateId()":"26bad99e","encodeAnimalName(string)":"76997b75","setAnimalAndSpin(string)":"ab3b9224"},"id":2}