{"abi":[{"type":"constructor","inputs":[],"stateMutability":"nonpayable"},{"type":"function","name":"deployer","inputs":[],"outputs":[{"name":"","type":"address","internalType":"address"}],"stateMutability":"view"},{"type":"function","name":"destruct","inputs":[],"outputs":[],"stateMutability":"nonpayable"},{"type":"function","name":"token","inputs":[],"outputs":[{"name":"","type":"address","internalType":"contract ISimpleToken"}],"stateMutability":"view"}],"bytecode":{"object":"0x6080604052600180546001600160a01b03191673f39fd6e51aad88f6f4ce6ab8827279cfffb922661790553480156034575f5ffd5b50604080517fa16e02e87b7454126e5e10d957a927a7f5b5d2be0000000000000000000000006020808301919091525f603483018190528351808403601c018152603c909301909352815191012081546001600160a01b0319166001600160a01b0390911617905561016c806100a95f395ff3fe608060405234801561000f575f5ffd5b506004361061003f575f3560e01c80632b68b9c614610043578063d5f394881461004d578063fc0c546a14610096575b5f5ffd5b61004b6100b5565b005b60015461006d9073ffffffffffffffffffffffffffffffffffffffff1681565b60405173ffffffffffffffffffffffffffffffffffffffff909116815260200160405180910390f35b5f5461006d9073ffffffffffffffffffffffffffffffffffffffff1681565b5f546001546040517ef55d9d00000000000000000000000000000000000000000000000000000000815273ffffffffffffffffffffffffffffffffffffffff918216600482015291169062f55d9d906024015f604051808303815f87803b15801561011e575f5ffd5b505af1158015610130573d5f5f3e3d5ffd5b5050505056fea2646970667358221220f1a00e9f6020a9af7dd210e1085afcec9fa05ea393e468dde3425dba45a5f5de64736f6c634300081c0033","linkReferences":{}},"methodIdentifiers":{"deployer()":"d5f39488","destruct()":"2b68b9c6","token()":"fc0c546a"},"id":0}