{"abi":[{"type":"function","name":"getApproveData","inputs":[{"name":"spender","type":"address","internalType":"address"},{"name":"amount","type":"uint256","internalType":"uint256"}],"outputs":[{"name":"","type":"bytes","internalType":"bytes"}],"stateMutability":"pure"},{"type":"function","name":"getTransferFromData","inputs":[{"name":"from","type":"address","internalType":"address"},{"name":"to","type":"address","internalType":"address"},{"name":"amount","type":"uint256","internalType":"uint256"}],"outputs":[{"name":"","type":"bytes","internalType":"bytes"}],"stateMutability":"pure"}],"bytecode":{"object":"0x6080604052348015600e575f5ffd5b506102968061001c5f395ff3fe608060405234801561000f575f5ffd5b5060043610610034575f3560e01c80630bab9b0c1461003857806374108dbe146100e8575b5f5ffd5b6100d26100463660046101b3565b60405173ffffffffffffffffffffffffffffffffffffffff831660248201526044810182905260609060640160408051601f198184030181529190526020810180517bffffffffffffffffffffffffffffffffffffffffffffffffffffffff167f095ea7b300000000000000000000000000000000000000000000000000000000179052905092915050565b6040516100df91906101db565b60405180910390f35b6100d26100f6366004610226565b60405173ffffffffffffffffffffffffffffffffffffffff8085166024830152831660448201526064810182905260609060840160408051601f198184030181529190526020810180517bffffffffffffffffffffffffffffffffffffffffffffffffffffffff167f23b872dd0000000000000000000000000000000000000000000000000000000017905290509392505050565b803573ffffffffffffffffffffffffffffffffffffffff811681146101ae575f5ffd5b919050565b5f5f604083850312156101c4575f5ffd5b6101cd8361018b565b946020939093013593505050565b602081525f82518060208401525f5b8181101561020757602081860181015160408684010152016101ea565b505f604082850101526040601f19601f83011684010191505092915050565b5f5f5f60608486031215610238575f5ffd5b6102418461018b565b925061024f6020850161018b565b92959294505050604091909101359056fea26469706673582212202847942f6d6fd8bc2a2f86fe0499976a85f9408575048f969a0a040ef4f74af764736f6c634300081c0033","linkReferences":{}},"methodIdentifiers":{"getApproveData(address,uint256)":"0bab9b0c","getTransferFromData(address,address,uint256)":"74108dbe"},"id":0}