{"abi":[{"type":"constructor","inputs":[{"name":"_denial","type":"address","internalType":"address"}],"stateMutability":"nonpayable"},{"type":"receive","stateMutability":"payable"},{"type":"function","name":"attack","inputs":[],"outputs":[],"stateMutability":"nonpayable"},{"type":"function","name":"setPartner","inputs":[{"name":"denial","type":"address","internalType":"address"}],"outputs":[],"stateMutability":"nonpayable"}],"bytecode":{"object":"0x60a0604052348015600e575f5ffd5b5060405161048d38038061048d833981016040819052602b91603b565b6001600160a01b03166080526066565b5f60208284031215604a575f5ffd5b81516001600160a01b0381168114605f575f5ffd5b9392505050565b6080516104096100845f395f8181609d015261013201526104095ff3fe60806040526004361061002b575f3560e01c80639e5faafc14610065578063a16d596014610079575f5ffd5b36610061575f5b620186a081101561005f575f610048828061033d565b905061005560018261035a565b5050600101610032565b005b5f5ffd5b348015610070575f5ffd5b5061005f610098565b348015610084575f5ffd5b5061005f61009336600461036d565b6101f4565b6100c17f00000000000000000000000000000000000000000000000000000000000000006101f4565b60408051600481526024810182526020810180517bffffffffffffffffffffffffffffffffffffffffffffffffffffffff167f3ccfd60b0000000000000000000000000000000000000000000000000000000017905290515f9173ffffffffffffffffffffffffffffffffffffffff7f0000000000000000000000000000000000000000000000000000000000000000169161015d91906103a7565b5f604051808303815f865af19150503d805f8114610196576040519150601f19603f3d011682016040523d82523d5f602084013e61019b565b606091505b50509050806101f15760405162461bcd60e51b815260206004820152601760248201527f4669727374207769746864726177616c206661696c656400000000000000000060448201526064015b60405180910390fd5b50565b6040513060248201525f9073ffffffffffffffffffffffffffffffffffffffff83169060440160408051601f198184030181529181526020820180517bffffffffffffffffffffffffffffffffffffffffffffffffffffffff167f4e1c5914000000000000000000000000000000000000000000000000000000001790525161027d91906103a7565b5f604051808303815f865af19150503d805f81146102b6576040519150601f19603f3d011682016040523d82523d5f602084013e6102bb565b606091505b505090508061030c5760405162461bcd60e51b815260206004820152601260248201527f53657420706172746e6572206661696c6564000000000000000000000000000060448201526064016101e8565b5050565b7f4e487b71000000000000000000000000000000000000000000000000000000005f52601160045260245ffd5b808202811582820484141761035457610354610310565b92915050565b8082018082111561035457610354610310565b5f6020828403121561037d575f5ffd5b813573ffffffffffffffffffffffffffffffffffffffff811681146103a0575f5ffd5b9392505050565b5f82515f5b818110156103c657602081860181015185830152016103ac565b505f92019182525091905056fea2646970667358221220e712ccb7b8b8befa1582321cbe0a742c064be4fffbae5723768ffdcd9437120464736f6c634300081c0033","linkReferences":{}},"methodIdentifiers":{"attack()":"9e5faafc","setPartner(address)":"a16d5960"},"id":0}