{"abi":[{"type":"constructor","inputs":[{"name":"_weth","type":"address","internalType":"address"},{"name":"_stake","type":"address","internalType":"address"}],"stateMutability":"nonpayable"},{"type":"function","name":"approveStake","inputs":[{"name":"amount","type":"uint256","internalType":"uint256"}],"outputs":[],"stateMutability":"nonpayable"},{"type":"function","name":"checkAllowance","inputs":[],"outputs":[{"name":"","type":"uint256","internalType":"uint256"}],"stateMutability":"view"},{"type":"function","name":"checkBalance","inputs":[],"outputs":[{"name":"","type":"uint256","internalType":"uint256"}],"stateMutability":"view"},{"type":"function","name":"stakeContract","inputs":[],"outputs":[{"name":"","type":"address","internalType":"address"}],"stateMutability":"view"},{"type":"function","name":"weth","inputs":[],"outputs":[{"name":"","type":"address","internalType":"contract IWETH"}],"stateMutability":"view"}],"bytecode":{"object":"0x6080604052348015600e575f5ffd5b50604051610382380380610382833981016040819052602b916074565b5f80546001600160a01b039384166001600160a01b0319918216179091556001805492909316911617905560a0565b80516001600160a01b0381168114606f575f5ffd5b919050565b5f5f604083850312156084575f5ffd5b608b83605a565b9150609760208401605a565b90509250929050565b6102d5806100ad5f395ff3fe608060405234801561000f575f5ffd5b5060043610610064575f3560e01c80633fc8cef31161004d5780633fc8cef3146100ad5780639405de64146100bf578063c71daccb146100d5575f5ffd5b80631411ed65146100685780631a1862271461007d575b5f5ffd5b61007b61007636600461024b565b6100dd565b005b600154610090906001600160a01b031681565b6040516001600160a01b0390911681526020015b60405180910390f35b5f54610090906001600160a01b031681565b6100c761016f565b6040519081526020016100a4565b6100c7610202565b5f546001546040517f095ea7b30000000000000000000000000000000000000000000000000000000081526001600160a01b0391821660048201526024810184905291169063095ea7b3906044016020604051808303815f875af1158015610147573d5f5f3e3d5ffd5b505050506040513d601f19601f8201168201806040525081019061016b9190610262565b5050565b5f80546001546040517fdd62ed3e0000000000000000000000000000000000000000000000000000000081523060048201526001600160a01b03918216602482015291169063dd62ed3e906044015b602060405180830381865afa1580156101d9573d5f5f3e3d5ffd5b505050506040513d601f19601f820116820180604052508101906101fd9190610288565b905090565b5f80546040517f70a082310000000000000000000000000000000000000000000000000000000081523060048201526001600160a01b03909116906370a08231906024016101be565b5f6020828403121561025b575f5ffd5b5035919050565b5f60208284031215610272575f5ffd5b81518015158114610281575f5ffd5b9392505050565b5f60208284031215610298575f5ffd5b505191905056fea2646970667358221220a740c97535627f20db053b604a559ed12e0ccb6f8fbcb412a156bb6caf53ab0c64736f6c634300081c0033","linkReferences":{}},"methodIdentifiers":{"approveStake(uint256)":"1411ed65","checkAllowance()":"9405de64","checkBalance()":"c71daccb","stakeContract()":"1a186227","weth()":"3fc8cef3"},"id":0}