{"abi":[{"type":"constructor","inputs":[{"name":"_target","type":"address","internalType":"address"}],"stateMutability":"nonpayable"},{"type":"receive","stateMutability":"payable"},{"type":"function","name":"target","inputs":[],"outputs":[{"name":"","type":"address","internalType":"address"}],"stateMutability":"view"},{"type":"function","name":"triggerDestroy","inputs":[],"outputs":[],"stateMutability":"nonpayable"}],"bytecode":{"object":"0x6080604052348015600e575f5ffd5b5060405161016c38038061016c833981016040819052602b91604e565b5f80546001600160a01b0319166001600160a01b03929092169190911790556079565b5f60208284031215605d575f5ffd5b81516001600160a01b03811681146072575f5ffd5b9392505050565b60e7806100855f395ff3fe6080604052600436106028575f3560e01c806394dd293c146032578063d4b83992146045575f5ffd5b36602e57005b5f5ffd5b348015603c575f5ffd5b5060436097565b005b348015604f575f5ffd5b505f54606e9073ffffffffffffffffffffffffffffffffffffffff1681565b60405173ffffffffffffffffffffffffffffffffffffffff909116815260200160405180910390f35b5f5473ffffffffffffffffffffffffffffffffffffffff16fffea26469706673582212207ad7b1739cfe212c830b5cebc6e542847b269fb3e82c17379310a7096cc3a56364736f6c634300081c0033","linkReferences":{}},"methodIdentifiers":{"target()":"d4b83992","triggerDestroy()":"94dd293c"},"id":0}