{"abi":[{"type":"function","name":"owner","inputs":[],"outputs":[{"name":"","type":"address","internalType":"address"}],"stateMutability":"view"},{"type":"function","name":"setTime","inputs":[{"name":"_time","type":"uint256","internalType":"uint256"}],"outputs":[],"stateMutability":"nonpayable"}],"bytecode":{"object":"0x6080604052348015600e575f5ffd5b506101088061001c5f395ff3fe6080604052348015600e575f5ffd5b50600436106030575f3560e01c80633beb26c41460345780638da5cb5b146074575b5f5ffd5b6072603f36600460bc565b5f819055600155600280547fffffffffffffffffffffffff00000000000000000000000000000000000000001633179055565b005b60025460939073ffffffffffffffffffffffffffffffffffffffff1681565b60405173ffffffffffffffffffffffffffffffffffffffff909116815260200160405180910390f35b5f6020828403121560cb575f5ffd5b503591905056fea2646970667358221220ac0d6df8f4dc3914dd1d1d4d4965dd2b364eb6146c6e3ef504b84142c8325bef64736f6c634300081c0033","linkReferences":{}},"methodIdentifiers":{"owner()":"8da5cb5b","setTime(uint256)":"3beb26c4"},"id":0}