{"abi":[{"type":"function","name":"deployAndBuyAgain","inputs":[{"name":"shopAddress","type":"address","internalType":"address"}],"outputs":[],"stateMutability":"nonpayable"},{"type":"function","name":"price","inputs":[],"outputs":[{"name":"","type":"uint256","internalType":"uint256"}],"stateMutability":"view"}],"bytecode":{"object":"0x608060405260645f553480156012575f5ffd5b50610123806100205f395ff3fe6080604052348015600e575f5ffd5b50600436106030575f3560e01c80633f73374f146034578063a035b1fe146045575b5f5ffd5b6043603f36600460b5565b6059565b005b5f5460405190815260200160405180910390f35b8073ffffffffffffffffffffffffffffffffffffffff1663a6f2ae3a6040518163ffffffff1660e01b81526004015f604051808303815f87803b158015609d575f5ffd5b505af115801560ae573d5f5f3e3d5ffd5b5050505050565b5f6020828403121560c4575f5ffd5b813573ffffffffffffffffffffffffffffffffffffffff8116811460e6575f5ffd5b939250505056fea264697066735822122059c7149f4057429f30b9471936344918f706ed3b6ad6325455e13b1267c5a33264736f6c634300081c0033","linkReferences":{}},"methodIdentifiers":{"deployAndBuyAgain(address)":"3f73374f","price()":"a035b1fe"},"id":0}