{"abi":[{"type":"fallback","stateMutability":"payable"},{"type":"function","name":"magic","inputs":[],"outputs":[],"stateMutability":"pure"}],"bytecode":{"object":"0x6080604052348015600e575f5ffd5b50606d80601a5f395ff3fe608060405260043610601b575f3560e01c80630d854646146023575b60216031565b005b348015602d575f5ffd5b5060215b60046030f3fea264697066735822122071f5a4c335ece37679b9822fe5705f65bdb90e58055eec8626933f37a3020e5864736f6c634300081c0033","linkReferences":{}},"methodIdentifiers":{"magic()":"0d854646"},"id":0}