{"abi":[{"type":"function","name":"getCodeSize","inputs":[{"name":"addr","type":"address","internalType":"address"}],"outputs":[{"name":"","type":"uint256","internalType":"uint256"}],"stateMutability":"view"}],"bytecode":{"object":"0x6080604052348015600e575f5ffd5b5060b980601a5f395ff3fe6080604052348015600e575f5ffd5b50600436106026575f3560e01c8063b51c4f9614602a575b5f5ffd5b60396035366004604b565b3b90565b60405190815260200160405180910390f35b5f60208284031215605a575f5ffd5b813573ffffffffffffffffffffffffffffffffffffffff81168114607c575f5ffd5b939250505056fea2646970667358221220156919f05b3abcd2376271835e98a0ef73232569eb5b530e60eb576715f6542164736f6c634300081c0033","linkReferences":{}},"methodIdentifiers":{"getCodeSize(address)":"b51c4f96"},"id":0}