{"abi":[{"type":"function","name":"getEncodedApprove","inputs":[{"name":"spender","type":"address","internalType":"address"},{"name":"amount","type":"uint256","internalType":"uint256"}],"outputs":[{"name":"","type":"bytes","internalType":"bytes"}],"stateMutability":"pure"},{"type":"function","name":"toHex","inputs":[{"name":"value","type":"uint256","internalType":"uint256"}],"outputs":[{"name":"","type":"bytes32","internalType":"bytes32"}],"stateMutability":"pure"}],"bytecode":{"object":"0x6080604052348015600e575f5ffd5b506101dd8061001c5f395ff3fe608060405234801561000f575f5ffd5b5060043610610034575f3560e01c8063bf1792b314610038578063e17d4b5e1461005c575b5f5ffd5b610049610046366004610103565b90565b6040519081526020015b60405180910390f35b6100f661006a36600461011a565b60405173ffffffffffffffffffffffffffffffffffffffff831660248201526044810182905260609060640160408051601f198184030181529190526020810180517bffffffffffffffffffffffffffffffffffffffffffffffffffffffff167f095ea7b300000000000000000000000000000000000000000000000000000000179052905092915050565b604051610053919061015c565b5f60208284031215610113575f5ffd5b5035919050565b5f5f6040838503121561012b575f5ffd5b823573ffffffffffffffffffffffffffffffffffffffff8116811461014e575f5ffd5b946020939093013593505050565b602081525f82518060208401525f5b81811015610188576020818601810151604086840101520161016b565b505f604082850101526040601f19601f8301168401019150509291505056fea264697066735822122060cb93f3f2766136249c1b3cf0e9e99b2f55c0dd5e3ca96675bdf1ec642f32de64736f6c634300081c0033","linkReferences":{}},"methodIdentifiers":{"getEncodedApprove(address,uint256)":"e17d4b5e","toHex(uint256)":"bf1792b3"},"id":0}