{"abi":[{"type":"function","name":"executeApprove","inputs":[{"name":"token","type":"address","internalType":"address"},{"name":"spender","type":"address","internalType":"address"}],"outputs":[{"name":"","type":"bool","internalType":"bool"}],"stateMutability":"nonpayable"},{"type":"function","name":"executeTransferFrom","inputs":[{"name":"token","type":"address","internalType":"address"},{"name":"from","type":"address","internalType":"address"},{"name":"to","type":"address","internalType":"address"}],"outputs":[{"name":"","type":"bool","internalType":"bool"}],"stateMutability":"nonpayable"}],"bytecode":{"object":"0x6080604052348015600e575f5ffd5b506104318061001c5f395ff3fe608060405234801561000f575f5ffd5b5060043610610034575f3560e01c8063399c775c14610038578063426375a91461005f575b5f5ffd5b61004b610046366004610338565b610072565b604051901515815260200160405180910390f35b61004b61006d366004610378565b6101d0565b6040516001600160a01b0380841660248301528216604482015269d3c21bcecceda1000000606482018190525f91829060840160408051601f198184030181529181526020820180517bffffffffffffffffffffffffffffffffffffffffffffffffffffffff167f23b872dd00000000000000000000000000000000000000000000000000000000179052519091505f9081906001600160a01b0389169061011b9085906103a9565b5f604051808303815f865af19150503d805f8114610154576040519150601f19603f3d011682016040523d82523d5f602084013e610159565b606091505b5091509150816101b05760405162461bcd60e51b815260206004820152601360248201527f5472616e7366657246726f6d206661696c65640000000000000000000000000060448201526064015b60405180910390fd5b808060200190518101906101c491906103d5565b98975050505050505050565b6040516001600160a01b038216602482015269d3c21bcecceda100000060448201525f90819060640160408051601f198184030181529181526020820180517bffffffffffffffffffffffffffffffffffffffffffffffffffffffff167f095ea7b300000000000000000000000000000000000000000000000000000000179052519091505f9081906001600160a01b0387169061026f9085906103a9565b5f604051808303815f865af19150503d805f81146102a8576040519150601f19603f3d011682016040523d82523d5f602084013e6102ad565b606091505b5091509150816102ff5760405162461bcd60e51b815260206004820152600e60248201527f417070726f7665206661696c656400000000000000000000000000000000000060448201526064016101a7565b8080602001905181019061031391906103d5565b9695505050505050565b80356001600160a01b0381168114610333575f5ffd5b919050565b5f5f5f6060848603121561034a575f5ffd5b6103538461031d565b92506103616020850161031d565b915061036f6040850161031d565b90509250925092565b5f5f60408385031215610389575f5ffd5b6103928361031d565b91506103a06020840161031d565b90509250929050565b5f82515f5b818110156103c857602081860181015185830152016103ae565b505f920191825250919050565b5f602082840312156103e5575f5ffd5b815180151581146103f4575f5ffd5b939250505056fea26469706673582212203181cd7a9d72eda5b20411d7a8e00937c00819d7c6bb574b9a5432a735814ad964736f6c634300081c0033","linkReferences":{}},"methodIdentifiers":{"executeApprove(address,address)":"426375a9","executeTransferFrom(address,address,address)":"399c775c"},"id":0}