{"abi":[{"type":"function","name":"getOwnerBytes","inputs":[{"name":"newOwner","type":"address","internalType":"address"}],"outputs":[{"name":"","type":"bytes32","internalType":"bytes32"}],"stateMutability":"pure"}],"bytecode":{"object":"0x6080604052348015600e575f5ffd5b5060ce80601a5f395ff3fe6080604052348015600e575f5ffd5b50600436106026575f3560e01c8063ccb10d3814602a575b5f5ffd5b604e60353660046060565b73ffffffffffffffffffffffffffffffffffffffff1690565b60405190815260200160405180910390f35b5f60208284031215606f575f5ffd5b813573ffffffffffffffffffffffffffffffffffffffff811681146091575f5ffd5b939250505056fea264697066735822122080f6844d6a3f12cfc3434bcd6371ccfbb21e6094c3bf0cd1698d4e1eb1fa617464736f6c634300081c0033","linkReferences":{}},"methodIdentifiers":{"getOwnerBytes(address)":"ccb10d38"},"id":0}