{"abi":[{"type":"constructor","inputs":[{"name":"_weth","type":"address","internalType":"address payable"},{"name":"_stake","type":"address","internalType":"address payable"}],"stateMutability":"nonpayable"},{"type":"function","name":"approve","inputs":[],"outputs":[],"stateMutability":"nonpayable"},{"type":"function","name":"stake","inputs":[],"outputs":[{"name":"","type":"address","internalType":"address"}],"stateMutability":"view"},{"type":"function","name":"weth","inputs":[],"outputs":[{"name":"","type":"address","internalType":"contract IERC20"}],"stateMutability":"view"}],"bytecode":{"object":"0x6080604052348015600e575f5ffd5b50604051610269380380610269833981016040819052602b916074565b5f80546001600160a01b039384166001600160a01b0319918216179091556001805492909316911617905560a0565b80516001600160a01b0381168114606f575f5ffd5b919050565b5f5f604083850312156084575f5ffd5b608b83605a565b9150609760208401605a565b90509250929050565b6101bc806100ad5f395ff3fe608060405234801561000f575f5ffd5b506004361061003f575f3560e01c806312424e3f146100435780633a4b66f11461004d5780633fc8cef314610096575b5f5ffd5b61004b6100b5565b005b60015461006d9073ffffffffffffffffffffffffffffffffffffffff1681565b60405173ffffffffffffffffffffffffffffffffffffffff909116815260200160405180910390f35b5f5461006d9073ffffffffffffffffffffffffffffffffffffffff1681565b5f546001546040517f095ea7b300000000000000000000000000000000000000000000000000000000815273ffffffffffffffffffffffffffffffffffffffff9182166004820152670de0b6b3a76400006024820181905292919091169063095ea7b3906044016020604051808303815f875af1158015610138573d5f5f3e3d5ffd5b505050506040513d601f19601f8201168201806040525081019061015c9190610160565b5050565b5f60208284031215610170575f5ffd5b8151801515811461017f575f5ffd5b939250505056fea2646970667358221220f3ec1c30bb23f60d94d40db0a28ef16c04232ff1fb3554daba71c163a0ef678764736f6c634300081c0033","linkReferences":{}},"methodIdentifiers":{"approve()":"12424e3f","stake()":"3a4b66f1","weth()":"3fc8cef3"},"id":0}