{"abi":[{"type":"constructor","inputs":[{"name":"_target","type":"address","internalType":"address"}],"stateMutability":"nonpayable"},{"type":"function","name":"attack","inputs":[],"outputs":[],"stateMutability":"nonpayable"},{"type":"function","name":"target","inputs":[],"outputs":[{"name":"","type":"address","internalType":"address"}],"stateMutability":"view"}],"bytecode":{"object":"0x6080604052348015600e575f5ffd5b50604051610203380380610203833981016040819052602b91604e565b5f80546001600160a01b0319166001600160a01b03929092169190911790556079565b5f60208284031215605d575f5ffd5b81516001600160a01b03811681146072575f5ffd5b9392505050565b61017d806100865f395ff3fe608060405234801561000f575f5ffd5b5060043610610034575f3560e01c80639e5faafc14610038578063d4b8399214610042575b5f5ffd5b61004061008a565b005b5f546100619073ffffffffffffffffffffffffffffffffffffffff1681565b60405173ffffffffffffffffffffffffffffffffffffffff909116815260200160405180910390f35b5f805460405160609190911b6bffffffffffffffffffffffff191660208201526001603482015260540160408051808303601f190181529082905280516020909101207ef55d9d000000000000000000000000000000000000000000000000000000008252336004830152915073ffffffffffffffffffffffffffffffffffffffff82169062f55d9d906024015f604051808303815f87803b15801561012e575f5ffd5b505af1158015610140573d5f5f3e3d5ffd5b505050505056fea264697066735822122072aa5542e23d8c777a7a4081501025f67b76c2a688ae9e5a201fb123cd4190bf64736f6c634300081c0033","linkReferences":{}},"methodIdentifiers":{"attack()":"9e5faafc","target()":"d4b83992"},"id":0}