{"abi":[{"type":"function","name":"destroy","inputs":[{"name":"_to","type":"address","internalType":"address payable"}],"outputs":[],"stateMutability":"nonpayable"}],"bytecode":{"object":"0x6080604052348015600e575f5ffd5b5060c180601a5f395ff3fe6080604052348015600e575f5ffd5b50600436106025575f3560e01c8062f55d9d146029575b5f5ffd5b603860343660046053565b603a565b005b8073ffffffffffffffffffffffffffffffffffffffff16ff5b5f602082840312156062575f5ffd5b813573ffffffffffffffffffffffffffffffffffffffff811681146084575f5ffd5b939250505056fea2646970667358221220f6d456434b6a63fa76c04c9d77480b9c2a65638106971de88c13664ed0d9ae2164736f6c634300081c0033","linkReferences":{}},"methodIdentifiers":{"destroy(address)":"00f55d9d"},"id":0}