{"abi":[{"type":"function","name":"getState","inputs":[],"outputs":[{"name":"controller","type":"address","internalType":"address"},{"name":"lockId","type":"uint256","internalType":"uint256"},{"name":"msgHash","type":"bytes32","internalType":"bytes32"}],"stateMutability":"view"},{"type":"function","name":"showArrayEncoding","inputs":[{"name":"r","type":"bytes32","internalType":"bytes32"},{"name":"s","type":"bytes32","internalType":"bytes32"},{"name":"v","type":"uint8","internalType":"uint8"}],"outputs":[{"name":"encoded","type":"bytes","internalType":"bytes"},{"name":"hash","type":"bytes32","internalType":"bytes32"}],"stateMutability":"pure"}],"bytecode":{"object":"0x6080604052348015600e575f5ffd5b506103818061001c5f395ff3fe608060405234801561000f575f5ffd5b5060043610610034575f3560e01c80631865c57d1461003857806385c6bbba1461006a575b5f5ffd5b61004061008b565b604080516001600160a01b0390941684526020840192909252908201526060015b60405180910390f35b61007d61007836600461024a565b6101f5565b604051610061929190610285565b5f5f5f73b7a5bd0345ef1cc5e66bf61bdec17d2461fbd9686001600160a01b031663f77c47916040518163ffffffff1660e01b8152600401602060405180830381865afa1580156100de573d5f5f3e3d5ffd5b505050506040513d601f19601f8201168201806040525081019061010291906102d7565b925073b7a5bd0345ef1cc5e66bf61bdec17d2461fbd9686001600160a01b03166366fa19326040518163ffffffff1660e01b8152600401602060405180830381865afa158015610154573d5f5f3e3d5ffd5b505050506040513d601f19601f820116820180604052508101906101789190610304565b915073b7a5bd0345ef1cc5e66bf61bdec17d2461fbd9686001600160a01b031663e4e6cf4f6040518163ffffffff1660e01b8152600401602060405180830381865afa1580156101ca573d5f5f3e3d5ffd5b505050506040513d601f19601f820116820180604052508101906101ee9190610304565b9050909192565b6040805160608181018352858252602080830186905260ff851683850152925190925f92916102269183910161031b565b60405160208183030381529060405292508280519060200120915050935093915050565b5f5f5f6060848603121561025c575f5ffd5b8335925060208401359150604084013560ff8116811461027a575f5ffd5b809150509250925092565b604081525f83518060408401525f5b818110156102b15760208187018101516060868401015201610294565b505f606082850101526060601f19601f8301168401019150508260208301529392505050565b5f602082840312156102e7575f5ffd5b81516001600160a01b03811681146102fd575f5ffd5b9392505050565b5f60208284031215610314575f5ffd5b5051919050565b6060810181835f5b6003811015610342578151835260209283019290910190600101610323565b5050509291505056fea264697066735822122097ca5a5c6222773d580d5b846d2641ca337400aec0c47811abc5e91ce207640464736f6c634300081c0033","linkReferences":{}},"methodIdentifiers":{"getState()":"1865c57d","showArrayEncoding(bytes32,bytes32,uint8)":"85c6bbba"},"id":0}