{"abi":[{"type":"function","name":"checkDex","inputs":[{"name":"dex","type":"address","internalType":"address"}],"outputs":[{"name":"token1","type":"address","internalType":"address"},{"name":"token2","type":"address","internalType":"address"}],"stateMutability":"view"}],"bytecode":{"object":"0x6080604052348015600e575f5ffd5b5060df80601a5f395ff3fe6080604052348015600e575f5ffd5b50600436106026575f3560e01c80631844783214602a575b5f5ffd5b604060353660046071565b506001546002549091565b6040805173ffffffffffffffffffffffffffffffffffffffff93841681529290911660208301520160405180910390f35b5f602082840312156080575f5ffd5b813573ffffffffffffffffffffffffffffffffffffffff8116811460a2575f5ffd5b939250505056fea2646970667358221220d5851c45465ae7fb240361389333100d57075e00380829896824ddbe1871174c64736f6c634300081c0033","linkReferences":{}},"methodIdentifiers":{"checkDex(address)":"18447832"},"id":0}