{"abi":[{"type":"function","name":"changeHorsePower","inputs":[{"name":"_newPower","type":"uint256","internalType":"uint256"}],"outputs":[],"stateMutability":"nonpayable"},{"type":"function","name":"horsePower","inputs":[],"outputs":[{"name":"","type":"uint256","internalType":"uint256"}],"stateMutability":"view"},{"type":"function","name":"initialize","inputs":[],"outputs":[],"stateMutability":"nonpayable"},{"type":"function","name":"upgrader","inputs":[],"outputs":[{"name":"","type":"address","internalType":"address"}],"stateMutability":"view"}],"bytecode":{"object":"0x608060405261270f60015534801561001657600080fd5b5061025c806100266000396000f3fe608060405234801561001057600080fd5b506004361061004c5760003560e01c80635309869114610051578063564f6d71146100705780638129fc1c1461008a578063af26974514610092575b600080fd5b61006e6004803603602081101561006757600080fd5b50356100c3565b005b6100786100c8565b60408051918252519081900360200190f35b61006e6100ce565b61009a6101bf565b6040805173ffffffffffffffffffffffffffffffffffffffff9092168252519081900360200190f35b600155565b60015481565b600054610100900460ff16806100e757506100e76101e1565b806100f5575060005460ff16155b61014a576040517f08c379a000000000000000000000000000000000000000000000000000000000815260040180806020018281038252602e8152602001806101f9602e913960400191505060405180910390fd5b600054610100900460ff16158015610175576000805460ff1961ff0019909116610100171660011790555b61270f600155600080547fffffffffffffffffffff0000000000000000000000000000000000000000ffff1633620100000217905580156101bc576000805461ff00191690555b50565b60005462010000900473ffffffffffffffffffffffffffffffffffffffff1681565b60006101ec306101f2565b15905090565b3b15159056fe496e697469616c697a61626c653a20636f6e747261637420697320616c726561647920696e697469616c697a6564a2646970667358221220df98b7a076c7b9fe2a2031442738bc219dc28f7ebaccee5eb96f174f80baa53364736f6c634300060c0033","linkReferences":{}},"methodIdentifiers":{"changeHorsePower(uint256)":"53098691","horsePower()":"564f6d71","initialize()":"8129fc1c","upgrader()":"af269745"},"id":2}