{"abi":[{"type":"constructor","inputs":[{"name":"samaritanInstance","type":"address","internalType":"address payable"}],"stateMutability":"nonpayable"},{"type":"function","name":"attack","inputs":[],"outputs":[],"stateMutability":"nonpayable"},{"type":"function","name":"notify","inputs":[{"name":"amount","type":"uint256","internalType":"uint256"}],"outputs":[],"stateMutability":"nonpayable"}],"bytecode":{"object":"0x6080604052348015600e575f5ffd5b506040516101f13803806101f1833981016040819052602b91604e565b5f80546001600160a01b0319166001600160a01b03929092169190911790556079565b5f60208284031215605d575f5ffd5b81516001600160a01b03811681146072575f5ffd5b9392505050565b61016b806100865f395ff3fe608060405234801561000f575f5ffd5b5060043610610034575f3560e01c806398d078b4146100385780639e5faafc1461004d575b5f5ffd5b61004b61004636600461011e565b610055565b005b61004b6100ba565b5f8054604080516304a286c760e31b8152905173ffffffffffffffffffffffffffffffffffffffff9092169263251436389260048084019382900301818387803b1580156100a1575f5ffd5b505af11580156100b3573d5f5f3e3d5ffd5b5050505050565b5f8054604080516304a286c760e31b8152905173ffffffffffffffffffffffffffffffffffffffff9092169263251436389260048084019382900301818387803b158015610106575f5ffd5b505af1158015610118573d5f5f3e3d5ffd5b50505050565b5f6020828403121561012e575f5ffd5b503591905056fea26469706673582212203bea26cfaf491962872dcb50ca20028c5e951a970e373a52823ad9bb7735bfdb64736f6c634300081c0033","linkReferences":{}},"methodIdentifiers":{"attack()":"9e5faafc","notify(uint256)":"98d078b4"},"id":0}