{"abi":[{"type":"function","name":"checkWinCondition","inputs":[{"name":"factory","type":"address","internalType":"address"},{"name":"instance","type":"address","internalType":"address"},{"name":"player","type":"address","internalType":"address"}],"outputs":[{"name":"","type":"bool","internalType":"bool"}],"stateMutability":"view"}],"bytecode":{"object":"0x6080604052348015600e575f5ffd5b506101b98061001c5f395ff3fe608060405234801561000f575f5ffd5b5060043610610029575f3560e01c80631fe916281461002d575b5f5ffd5b61004061003b366004610124565b610054565b604051901515815260200160405180910390f35b6040517fd38def5b00000000000000000000000000000000000000000000000000000000815273ffffffffffffffffffffffffffffffffffffffff838116600483015282811660248301525f919085169063d38def5b90604401602060405180830381865afa9250505080156100e7575060408051601f3d908101601f191682019092526100e491810190610164565b60015b6100f257505f6100f5565b90505b9392505050565b803573ffffffffffffffffffffffffffffffffffffffff8116811461011f575f5ffd5b919050565b5f5f5f60608486031215610136575f5ffd5b61013f846100fc565b925061014d602085016100fc565b915061015b604085016100fc565b90509250925092565b5f60208284031215610174575f5ffd5b815180151581146100f5575f5ffdfea26469706673582212208152fb06c95c1c272bf2f1d5ba058edc985bfd4416f3a8c263a417d26aca24ef64736f6c634300081c0033","linkReferences":{}},"methodIdentifiers":{"checkWinCondition(address,address,address)":"1fe91628"},"id":0}