{"abi":[{"type":"constructor","inputs":[{"name":"_stake","type":"address","internalType":"address"}],"stateMutability":"nonpayable"},{"type":"fallback","stateMutability":"payable"},{"type":"receive","stateMutability":"payable"},{"type":"function","name":"attackWETH","inputs":[],"outputs":[],"stateMutability":"nonpayable"},{"type":"function","name":"stake","inputs":[],"outputs":[{"name":"","type":"address","internalType":"contract Stake"}],"stateMutability":"view"}],"bytecode":{"object":"0x6080604052348015600e575f5ffd5b506040516102a83803806102a8833981016040819052602b91604e565b5f80546001600160a01b0319166001600160a01b03929092169190911790556079565b5f60208284031215605d575f5ffd5b81516001600160a01b03811681146072575f5ffd5b9392505050565b610222806100865f395ff3fe608060405260043610610028575f3560e01c80631243f18c1461002a5780633a4b66f11461003e575b005b348015610035575f5ffd5b50610028610092565b348015610049575f5ffd5b505f546100699073ffffffffffffffffffffffffffffffffffffffff1681565b60405173ffffffffffffffffffffffffffffffffffffffff909116815260200160405180910390f35b5f546040517f6e35c740000000000000000000000000000000000000000000000000000000008152670de0b6b3a7640000600482015273ffffffffffffffffffffffffffffffffffffffff90911690636e35c740906024016020604051808303815f875af1158015610106573d5f5f3e3d5ffd5b505050506040513d601f19601f8201168201806040525081019061012a91906101c6565b505f546040517ff1f1db1e000000000000000000000000000000000000000000000000000000008152670de0b6b3a7640000600482015273ffffffffffffffffffffffffffffffffffffffff9091169063f1f1db1e906024016020604051808303815f875af115801561019f573d5f5f3e3d5ffd5b505050506040513d601f19601f820116820180604052508101906101c391906101c6565b50565b5f602082840312156101d6575f5ffd5b815180151581146101e5575f5ffd5b939250505056fea264697066735822122079bc0eed8f97f4701ffe46c99dbc5ac06480f38585f24b0f4e2789502cdf64e264736f6c634300081c0033","linkReferences":{}},"methodIdentifiers":{"attackWETH()":"1243f18c","stake()":"3a4b66f1"},"id":0}