{"abi":[{"type":"constructor","inputs":[],"stateMutability":"payable"},{"type":"function","name":"forceSend","inputs":[{"name":"target","type":"address","internalType":"address payable"}],"outputs":[],"stateMutability":"nonpayable"}],"bytecode":{"object":"0x608060405260c280600f5f395ff3fe6080604052348015600e575f5ffd5b50600436106026575f3560e01c8063f2adf1cb14602a575b5f5ffd5b603960353660046054565b603b565b005b8073ffffffffffffffffffffffffffffffffffffffff16ff5b5f602082840312156063575f5ffd5b813573ffffffffffffffffffffffffffffffffffffffff811681146085575f5ffd5b939250505056fea26469706673582212203978097c15270a5b1c0cd5071bf62dc62622f8c597cb5c53daebc40f1d6e3d4564736f6c634300081c0033","linkReferences":{}},"methodIdentifiers":{"forceSend(address)":"f2adf1cb"},"id":0}