{"abi":[{"type":"function","name":"approveMax","inputs":[{"name":"token","type":"address","internalType":"address"},{"name":"spender","type":"address","internalType":"address"}],"outputs":[],"stateMutability":"nonpayable"}],"bytecode":{"object":"0x6080604052348015600e575f5ffd5b5061023f8061001c5f395ff3fe608060405234801561000f575f5ffd5b5060043610610029575f3560e01c8063aec42a171461002d575b5f5ffd5b61004061003b36600461019b565b610042565b005b6040517f70a0823100000000000000000000000000000000000000000000000000000000815233600482015282905f9073ffffffffffffffffffffffffffffffffffffffff8316906370a0823190602401602060405180830381865afa1580156100ae573d5f5f3e3d5ffd5b505050506040513d601f19601f820116820180604052508101906100d291906101cc565b6040517f095ea7b300000000000000000000000000000000000000000000000000000000815273ffffffffffffffffffffffffffffffffffffffff8581166004830152602482018390529192509083169063095ea7b3906044016020604051808303815f875af1158015610148573d5f5f3e3d5ffd5b505050506040513d601f19601f8201168201806040525081019061016c91906101e3565b5050505050565b803573ffffffffffffffffffffffffffffffffffffffff81168114610196575f5ffd5b919050565b5f5f604083850312156101ac575f5ffd5b6101b583610173565b91506101c360208401610173565b90509250929050565b5f602082840312156101dc575f5ffd5b5051919050565b5f602082840312156101f3575f5ffd5b81518015158114610202575f5ffd5b939250505056fea26469706673582212200163c4d1e2de15c93f96acfa050d11afe57c87546f0ef81d634c29c494a972d264736f6c634300081c0033","linkReferences":{}},"methodIdentifiers":{"approveMax(address,address)":"aec42a17"},"id":0}