{"abi":[{"type":"constructor","inputs":[{"name":"_target","type":"address","internalType":"address"}],"stateMutability":"nonpayable"},{"type":"function","name":"FACTOR","inputs":[],"outputs":[{"name":"","type":"uint256","internalType":"uint256"}],"stateMutability":"view"},{"type":"function","name":"calculateGuess","inputs":[],"outputs":[{"name":"","type":"bool","internalType":"bool"}],"stateMutability":"view"},{"type":"function","name":"exploit","inputs":[],"outputs":[],"stateMutability":"nonpayable"},{"type":"function","name":"target","inputs":[],"outputs":[{"name":"","type":"address","internalType":"contract ICoinFlip"}],"stateMutability":"view"}],"bytecode":{"object":"0x6080604052348015600e575f5ffd5b506040516102d13803806102d1833981016040819052602b91604e565b5f80546001600160a01b0319166001600160a01b03929092169190911790556079565b5f60208284031215605d575f5ffd5b81516001600160a01b03811681146072575f5ffd5b9392505050565b61024b806100865f395ff3fe608060405234801561000f575f5ffd5b506004361061004a575f3560e01c8063110634b21461004e57806335815b951461006b57806363d9b77014610084578063d4b839921461008e575b5f5ffd5b6100566100d2565b60405190151581526020015b60405180910390f35b610076600160ff1b81565b604051908152602001610062565b61008c61010b565b005b5f546100ad9073ffffffffffffffffffffffffffffffffffffffff1681565b60405173ffffffffffffffffffffffffffffffffffffffff9091168152602001610062565b5f806100df6001436101ab565b4090505f6100f1600160ff1b836101d0565b905080600114610101575f610104565b60015b9250505090565b5f6101146100d2565b5f546040517f1d263f67000000000000000000000000000000000000000000000000000000008152821515600482015291925073ffffffffffffffffffffffffffffffffffffffff1690631d263f67906024016020604051808303815f875af1158015610183573d5f5f3e3d5ffd5b505050506040513d601f19601f820116820180604052508101906101a791906101ef565b5050565b818103818111156101ca57634e487b7160e01b5f52601160045260245ffd5b92915050565b5f826101ea57634e487b7160e01b5f52601260045260245ffd5b500490565b5f602082840312156101ff575f5ffd5b8151801515811461020e575f5ffd5b939250505056fea2646970667358221220eff15d42a3840da8246cfbe15cc9a783d7b6f1745b60a6e98e45e0cca0b64f7e64736f6c634300081c0033","linkReferences":{}},"methodIdentifiers":{"FACTOR()":"35815b95","calculateGuess()":"110634b2","exploit()":"63d9b770","target()":"d4b83992"},"id":0}