{"abi":[{"type":"constructor","inputs":[{"name":"_instance","type":"address","internalType":"address"}],"stateMutability":"nonpayable"},{"type":"function","name":"attack","inputs":[],"outputs":[],"stateMutability":"nonpayable"},{"type":"function","name":"instance","inputs":[],"outputs":[{"name":"","type":"address","internalType":"contract CoinFlip"}],"stateMutability":"view"}],"bytecode":{"object":"0x6080604052348015600e575f5ffd5b50604051610297380380610297833981016040819052602b91604e565b5f80546001600160a01b0319166001600160a01b03929092169190911790556079565b5f60208284031215605d575f5ffd5b81516001600160a01b03811681146072575f5ffd5b9392505050565b610211806100865f395ff3fe608060405234801561000f575f5ffd5b5060043610610034575f3560e01c8063022ec095146100385780639e5faafc14610080575b5f5ffd5b5f546100579073ffffffffffffffffffffffffffffffffffffffff1681565b60405173ffffffffffffffffffffffffffffffffffffffff909116815260200160405180910390f35b61008861008a565b005b5f610096600143610171565b4090505f6100c47f800000000000000000000000000000000000000000000000000000000000000083610196565b90505f816001146100d5575f6100d8565b60015b5f546040517f1d263f67000000000000000000000000000000000000000000000000000000008152821515600482015291925073ffffffffffffffffffffffffffffffffffffffff1690631d263f67906024016020604051808303815f875af1158015610147573d5f5f3e3d5ffd5b505050506040513d601f19601f8201168201806040525081019061016b91906101b5565b50505050565b8181038181111561019057634e487b7160e01b5f52601160045260245ffd5b92915050565b5f826101b057634e487b7160e01b5f52601260045260245ffd5b500490565b5f602082840312156101c5575f5ffd5b815180151581146101d4575f5ffd5b939250505056fea264697066735822122052fea3da3739ec40b05cd5018a47836c3e49646b8da918277954603438c4032f64736f6c634300081c0033","linkReferences":{}},"methodIdentifiers":{"attack()":"9e5faafc","instance()":"022ec095"},"id":0}