{"abi":[{"type":"constructor","inputs":[{"name":"_target","type":"address","internalType":"address"}],"stateMutability":"nonpayable"},{"type":"function","name":"attack","inputs":[],"outputs":[],"stateMutability":"nonpayable"},{"type":"function","name":"target","inputs":[],"outputs":[{"name":"","type":"address","internalType":"address"}],"stateMutability":"view"}],"bytecode":{"object":"0x6080604052348015600e575f5ffd5b506040516102e83803806102e8833981016040819052602b91604e565b5f80546001600160a01b0319166001600160a01b03929092169190911790556079565b5f60208284031215605d575f5ffd5b81516001600160a01b03811681146072575f5ffd5b9392505050565b610262806100865f395ff3fe608060405234801561000f575f5ffd5b5060043610610034575f3560e01c80639e5faafc14610038578063d4b8399214610042575b5f5ffd5b61004061008a565b005b5f546100619073ffffffffffffffffffffffffffffffffffffffff1681565b60405173ffffffffffffffffffffffffffffffffffffffff909116815260200160405180910390f35b3264010000000061ffff82161760c081901b611fff5b620186a081116101bc575f80546040517fffffffffffffffff0000000000000000000000000000000000000000000000008516602482015273ffffffffffffffffffffffffffffffffffffffff90911690839060440160408051601f198184030181529181526020820180517bffffffffffffffffffffffffffffffffffffffffffffffffffffffff167f3370204e000000000000000000000000000000000000000000000000000000001790525161015991906101c2565b5f604051808303815f8787f1925050503d805f8114610193576040519150601f19603f3d011682016040523d82523d5f602084013e610198565b606091505b5050905080156101a857506101bc565b506101b5611fff826101ee565b90506100a0565b50505050565b5f82515f5b818110156101e157602081860181015185830152016101c7565b505f920191825250919050565b80820180821115610226577f4e487b71000000000000000000000000000000000000000000000000000000005f52601160045260245ffd5b9291505056fea264697066735822122097ada54cf3302b9ac1d3f5ae400e45523b72a9e3acbbee68e80565295b2ec67f64736f6c634300081c0033","linkReferences":{}},"methodIdentifiers":{"attack()":"9e5faafc","target()":"d4b83992"},"id":0}