{"abi":[{"type":"constructor","inputs":[{"name":"_denialAddress","type":"address","internalType":"address"}],"stateMutability":"nonpayable"},{"type":"receive","stateMutability":"payable"},{"type":"function","name":"denialInstance","inputs":[],"outputs":[{"name":"","type":"address","internalType":"address"}],"stateMutability":"view"}],"bytecode":{"object":"0x6080604052348015600e575f5ffd5b5060405161014e38038061014e833981016040819052602b91604e565b5f80546001600160a01b0319166001600160a01b03929092169190911790556079565b5f60208284031215605d575f5ffd5b81516001600160a01b03811681146072575f5ffd5b9392505050565b60c9806100855f395ff3fe608060405260043610601e575f3560e01c8063721c5a88146041575f5ffd5b36603d57475f5b670de0b6b3a7640000811015603b576001016025565b005b5f5ffd5b348015604b575f5ffd5b505f54606a9073ffffffffffffffffffffffffffffffffffffffff1681565b60405173ffffffffffffffffffffffffffffffffffffffff909116815260200160405180910390f3fea264697066735822122025eb1610e7b71cdb4d8067b21111d7461a73025327b342d7732707acb4b9b42e64736f6c634300081c0033","linkReferences":{}},"methodIdentifiers":{"denialInstance()":"721c5a88"},"id":0}