{"abi":[{"type":"receive","stateMutability":"payable"},{"type":"function","name":"setWithdrawPartner","inputs":[{"name":"denial","type":"address","internalType":"address"}],"outputs":[],"stateMutability":"nonpayable"}],"bytecode":{"object":"0x6080604052348015600e575f5ffd5b506101bb8061001c5f395ff3fe608060405260043610610020575f3560e01c80634e1c591414610044575f5ffd5b366100405765ffffffffffff5f5b8181101561003e5760010161002e565b005b5f5ffd5b34801561004f575f5ffd5b5061003e61005e36600461011f565b60408051600481526024810182526020810180517bffffffffffffffffffffffffffffffffffffffffffffffffffffffff167f4e1c59140000000000000000000000000000000000000000000000000000000017905290515f9173ffffffffffffffffffffffffffffffffffffffff8416916100da9190610159565b5f604051808303815f865af19150503d805f8114610113576040519150601f19603f3d011682016040523d82523d5f602084013e610118565b606091505b5050505050565b5f6020828403121561012f575f5ffd5b813573ffffffffffffffffffffffffffffffffffffffff81168114610152575f5ffd5b9392505050565b5f82515f5b81811015610178576020818601810151858301520161015e565b505f92019182525091905056fea2646970667358221220e9867598d440bab9e002dd100b09a0aaca7f8e60f8a18b2dd9a34d15cbe6892064736f6c634300081c0033","linkReferences":{}},"methodIdentifiers":{"setWithdrawPartner(address)":"4e1c5914"},"id":0}