{"abi":[{"type":"function","name":"attack","inputs":[],"outputs":[],"stateMutability":"nonpayable"},{"type":"function","name":"computeMsgHash","inputs":[],"outputs":[{"name":"","type":"bytes32","internalType":"bytes32"}],"stateMutability":"pure"}],"bytecode":{"object":"0x6080604052348015600e575f5ffd5b506104b38061001c5f395ff3fe608060405234801561000f575f5ffd5b5060043610610034575f3560e01c8063676fc304146100385780639e5faafc14610079575b5f5ffd5b7f19457468657265756d205369676e6564204d6573736167653a0a3332000000005f908152610539601c52603c902060405190815260200160405180910390f35b610081610083565b005b61008f5f6001806100bd565b505f5b60ff8160ff1610156100ba576100aa816001806100bd565b156100b25750565b600101610092565b50565b604080516003808252608082019092525f9182919060208201606080368337019050509050835f1c815f815181106100f7576100f76103d8565b602002602001018181525050825f1c81600181518110610119576101196103d8565b6020026020010181815250508460ff168160028151811061013c5761013c6103d8565b6020026020010181815250505f8160405160200161015a9190610405565b60408051808303601f190181529082905280516020909101207ff978fd61000000000000000000000000000000000000000000000000000000008252600482018190529150738ff3801288a85ea261e4277d44e1131ea736f77b9063f978fd6190602401602060405180830381865afa1580156101d9573d5f5f3e3d5ffd5b505050506040513d601f19601f820116820180604052508101906101fd9190610447565b1561020c575f925050506103d1565b5f738ff3801288a85ea261e4277d44e1131ea736f77b73ffffffffffffffffffffffffffffffffffffffff1663e4e6cf4f6040518163ffffffff1660e01b8152600401602060405180830381865afa15801561026a573d5f5f3e3d5ffd5b505050506040513d601f19601f8201168201806040525081019061028e9190610466565b604080515f8082526020820180845284905260ff8b169282019290925260608101899052608081018890529192509060019060a0016020604051602081039080840390855afa1580156102e3573d5f5f3e3d5ffd5b5050604051601f1901519150507fffffffffffffffffffffffffbdf9627d26a6d66e8fb191be40da76589152e56f73ffffffffffffffffffffffffffffffffffffffff8216016103c9576040517f3e8cd57000000000000000000000000000000000000000000000000000000000815260ff891660048201526024810188905260448101879052336064820152738ff3801288a85ea261e4277d44e1131ea736f77b90633e8cd570906084015f604051808303815f87803b1580156103a6575f5ffd5b505af11580156103b8573d5f5f3e3d5ffd5b5050505060019450505050506103d1565b5f9450505050505b9392505050565b7f4e487b71000000000000000000000000000000000000000000000000000000005f52603260045260245ffd5b602080825282518282018190525f918401906040840190835b8181101561043c57835183526020938401939092019160010161041e565b509095945050505050565b5f60208284031215610457575f5ffd5b815180151581146103d1575f5ffd5b5f60208284031215610476575f5ffd5b505191905056fea26469706673582212208b163e692de68100c11a25cf79945925bd02755b4dd9f90ff40fd801963b409b64736f6c634300081c0033","linkReferences":{}},"methodIdentifiers":{"attack()":"9e5faafc","computeMsgHash()":"676fc304"},"id":0}