{"abi":[{"type":"constructor","inputs":[{"name":"_target","type":"address","internalType":"address"}],"stateMutability":"nonpayable"},{"type":"function","name":"callEnter","inputs":[],"outputs":[],"stateMutability":"nonpayable"},{"type":"function","name":"checkAllowance","inputs":[{"name":"password","type":"uint256","internalType":"uint256"}],"outputs":[],"stateMutability":"nonpayable"},{"type":"function","name":"deployAndSetTrick","inputs":[],"outputs":[],"stateMutability":"nonpayable"},{"type":"function","name":"takeoverOwnership","inputs":[],"outputs":[],"stateMutability":"nonpayable"},{"type":"function","name":"target","inputs":[],"outputs":[{"name":"","type":"address","internalType":"contract IGatekeeperThree"}],"stateMutability":"view"}],"bytecode":{"object":"0x6080604052348015600e575f5ffd5b5060405161032a38038061032a833981016040819052602b91604e565b5f80546001600160a01b0319166001600160a01b03929092169190911790556079565b5f60208284031215605d575f5ffd5b81516001600160a01b03811681146072575f5ffd5b9392505050565b6102a4806100865f395ff3fe608060405234801561000f575f5ffd5b5060043610610064575f3560e01c806338ced8001161004d57806338ced8001461007a578063a86de69414610082578063d4b8399214610095575f5ffd5b806325b2316114610068578063334ecc8014610072575b5f5ffd5b6100706100c3565b005b610070610133565b61007061018b565b610070610090366004610257565b6101e3565b5f546100a7906001600160a01b031681565b6040516001600160a01b03909116815260200160405180910390f35b5f8054604080517fe97dcb6200000000000000000000000000000000000000000000000000000000815290516001600160a01b039092169263e97dcb629260048084019382900301818387803b15801561011b575f5ffd5b505af115801561012d573d5f5f3e3d5ffd5b50505050565b5f8054604080517ff7edf09900000000000000000000000000000000000000000000000000000000815290516001600160a01b039092169263f7edf0999260048084019382900301818387803b15801561011b575f5ffd5b5f8054604080517fb9966e5600000000000000000000000000000000000000000000000000000000815290516001600160a01b039092169263b9966e569260048084019382900301818387803b15801561011b575f5ffd5b5f546040517fc960174e000000000000000000000000000000000000000000000000000000008152600481018390526001600160a01b039091169063c960174e906024015f604051808303815f87803b15801561023e575f5ffd5b505af1158015610250573d5f5f3e3d5ffd5b5050505050565b5f60208284031215610267575f5ffd5b503591905056fea264697066735822122069a817b6e9d6fe4669bad24211a7627a92e1a8b6415376a90d908a898cf5b2b464736f6c634300081c0033","linkReferences":{}},"methodIdentifiers":{"callEnter()":"25b23161","checkAllowance(uint256)":"a86de694","deployAndSetTrick()":"334ecc80","takeoverOwnership()":"38ced800","target()":"d4b83992"},"id":0}