{"abi":[{"type":"function","name":"attack","inputs":[{"name":"_shop","type":"address","internalType":"contract Shop"}],"outputs":[],"stateMutability":"nonpayable"},{"type":"function","name":"price","inputs":[],"outputs":[{"name":"","type":"uint256","internalType":"uint256"}],"stateMutability":"view"},{"type":"function","name":"setPrice","inputs":[{"name":"newPrice","type":"uint256","internalType":"uint256"}],"outputs":[],"stateMutability":"nonpayable"}],"bytecode":{"object":"0x608060405260c85f553480156012575f5ffd5b5061015e806100205f395ff3fe608060405234801561000f575f5ffd5b506004361061003f575f3560e01c806391b7f5ed14610043578063a035b1fe14610057578063d018db3e1461006b575b5f5ffd5b6100556100513660046100d7565b5f55565b005b5f5460405190815260200160405180910390f35b6100556100793660046100ee565b8073ffffffffffffffffffffffffffffffffffffffff1663a6f2ae3a6040518163ffffffff1660e01b81526004015f604051808303815f87803b1580156100be575f5ffd5b505af11580156100d0573d5f5f3e3d5ffd5b5050505050565b5f602082840312156100e7575f5ffd5b5035919050565b5f602082840312156100fe575f5ffd5b813573ffffffffffffffffffffffffffffffffffffffff81168114610121575f5ffd5b939250505056fea264697066735822122082af86160eef3fc9a93a18f91e952994d3d1c40a02af57858389564caaa9158964736f6c634300081c0033","linkReferences":{}},"methodIdentifiers":{"attack(address)":"d018db3e","price()":"a035b1fe","setPrice(uint256)":"91b7f5ed"},"id":0}