{"abi":[{"type":"function","name":"getHashes","inputs":[],"outputs":[{"name":"","type":"bytes32","internalType":"bytes32"},{"name":"","type":"bytes32","internalType":"bytes32"},{"name":"","type":"bytes32","internalType":"bytes32"},{"name":"","type":"bytes32","internalType":"bytes32"}],"stateMutability":"pure"},{"type":"function","name":"testArrayEncoding","inputs":[],"outputs":[{"name":"","type":"bytes","internalType":"bytes"},{"name":"","type":"bytes","internalType":"bytes"},{"name":"","type":"bytes","internalType":"bytes"},{"name":"","type":"bytes","internalType":"bytes"}],"stateMutability":"pure"}],"bytecode":{"object":"0x6080604052348015600e575f5ffd5b506105768061001c5f395ff3fe608060405234801561000f575f5ffd5b5060043610610034575f3560e01c80634245d48e1461003857806374b4bff614610065575b5f5ffd5b61004061007d565b6040805194855260208501939093529183015260608201526080015b60405180910390f35b61006d610255565b60405161005c949392919061044a565b5f5f5f5f5f7f111111111111111111111111111111111111111111111111111111111111111190505f7f222222222222222222222222222222222222222222222222222222222222222290505f601b90505f6040518060600160405280858152602001848152602001838152506040516020016100fa91906104a1565b60408051601f19818403018152828252805160209182012060608401835287845283820187905283830186905291519193505f9161013a918491016104a1565b60408051601f19818403018152828252805160209182012060038085526080850190935293505f929190820160608036833701905050905086815f81518110610185576101856104d1565b60200260200101818152505085816001815181106101a5576101a56104d1565b60200260200101818152505084816002815181106101c5576101c56104d1565b6020026020010181815250505f816040516020016101e391906104fe565b6040516020818303038152906040528051906020012090505f60405180606001604052808a81526020018981526020018881525060405160200161022791906104a1565b60408051808303601f190181529190528051602090910120959d939c50909a50939850909650505050505050565b6060806060805f7f111111111111111111111111111111111111111111111111111111111111111190505f7f222222222222222222222222222222222222222222222222222222222222222290505f601b90505f6040518060600160405280858152602001848152602001838152506040516020016102d491906104a1565b60408051601f19818403018152606083018252868352602083810187905283830186905291519093505f9261030b929091016104a1565b60408051601f19818403018152606083018252878352602083810188905283830187905291519093505f91610342918491016104a1565b60408051601f1981840301815260038084526080840190925292505f91906020820160608036833701905050905087815f81518110610383576103836104d1565b60200260200101818152505086816001815181106103a3576103a36104d1565b60200260200101818152505085816002815181106103c3576103c36104d1565b6020026020010181815250505f816040516020016103e191906104fe565b60408051808303601f19018152919052959d949c50919a50939850919650505050505050565b5f81518084525f5b8181101561042b5760208185018101518683018201520161040f565b505f602082860101526020601f19601f83011685010191505092915050565b608081525f61045c6080830187610407565b828103602084015261046e8187610407565b905082810360408401526104828186610407565b905082810360608401526104968185610407565b979650505050505050565b6060810181835f5b60038110156104c85781518352602092830192909101906001016104a9565b50505092915050565b7f4e487b71000000000000000000000000000000000000000000000000000000005f52603260045260245ffd5b602080825282518282018190525f918401906040840190835b81811015610535578351835260209384019390920191600101610517565b50909594505050505056fea26469706673582212209f16436ae73acb7b3e87f340a2edddca13d383959ab1bc0d4094a1e2f354732d64736f6c634300081c0033","linkReferences":{}},"methodIdentifiers":{"getHashes()":"4245d48e","testArrayEncoding()":"74b4bff6"},"id":0}