{"abi":[{"type":"function","name":"empty1","inputs":[],"outputs":[{"name":"","type":"address","internalType":"address"}],"stateMutability":"view"},{"type":"function","name":"empty2","inputs":[],"outputs":[{"name":"","type":"address","internalType":"address"}],"stateMutability":"view"},{"type":"function","name":"owner","inputs":[],"outputs":[{"name":"","type":"address","internalType":"address"}],"stateMutability":"view"},{"type":"function","name":"setTime","inputs":[{"name":"_time","type":"uint256","internalType":"uint256"}],"outputs":[],"stateMutability":"nonpayable"}],"bytecode":{"object":"0x6080604052348015600e575f5ffd5b5061012c8061001c5f395ff3fe6080604052348015600e575f5ffd5b50600436106044575f3560e01c80633beb26c41460485780638da5cb5b14608f578063994ebc431460bd578063ab63424e1460ce575b5f5ffd5b608d605336600460e0565b600280547fffffffffffffffffffffffff0000000000000000000000000000000000000000166001600160a01b0392909216919091179055565b005b60025460a1906001600160a01b031681565b6040516001600160a01b03909116815260200160405180910390f35b5f5460a1906001600160a01b031681565b60015460a1906001600160a01b031681565b5f6020828403121560ef575f5ffd5b503591905056fea2646970667358221220bf2af63be84ec055fbb1a6953697eb2c502f2d8c79b136c131b1c378727de03a64736f6c634300081c0033","linkReferences":{}},"methodIdentifiers":{"empty1()":"994ebc43","empty2()":"ab63424e","owner()":"8da5cb5b","setTime(uint256)":"3beb26c4"},"id":0}