{"abi":[{"type":"function","name":"callApprove","inputs":[{"name":"token","type":"address","internalType":"address"},{"name":"spender","type":"address","internalType":"address"}],"outputs":[{"name":"success","type":"bool","internalType":"bool"}],"stateMutability":"nonpayable"},{"type":"function","name":"callTransferFrom","inputs":[{"name":"token","type":"address","internalType":"address"},{"name":"from","type":"address","internalType":"address"},{"name":"to","type":"address","internalType":"address"}],"outputs":[{"name":"success","type":"bool","internalType":"bool"}],"stateMutability":"nonpayable"}],"bytecode":{"object":"0x6080604052348015600e575f5ffd5b506103da8061001c5f395ff3fe608060405234801561000f575f5ffd5b5060043610610034575f3560e01c80630754be9d14610038578063855c2afa1461005f575b5f5ffd5b61004b610046366004610307565b610072565b604051901515815260200160405180910390f35b61004b61006d366004610338565b6101ad565b6040516001600160a01b038216602482015269d3c21bcecceda1000000604482018190525f91829060640160408051601f198184030181529181526020820180517bffffffffffffffffffffffffffffffffffffffffffffffffffffffff167f095ea7b300000000000000000000000000000000000000000000000000000000179052519091506001600160a01b0386169061010f908390610378565b5f604051808303815f865af19150503d805f8114610148576040519150601f19603f3d011682016040523d82523d5f602084013e61014d565b606091505b505080935050826101a55760405162461bcd60e51b815260206004820152601360248201527f417070726f76652063616c6c206661696c65640000000000000000000000000060448201526064015b60405180910390fd5b505092915050565b6040516001600160a01b0380841660248301528216604482015269d3c21bcecceda1000000606482018190525f91829060840160408051601f198184030181529181526020820180517bffffffffffffffffffffffffffffffffffffffffffffffffffffffff167f23b872dd00000000000000000000000000000000000000000000000000000000179052519091506001600160a01b03871690610252908390610378565b5f604051808303815f865af19150503d805f811461028b576040519150601f19603f3d011682016040523d82523d5f602084013e610290565b606091505b505080935050826102e35760405162461bcd60e51b815260206004820152601860248201527f5472616e7366657246726f6d2063616c6c206661696c65640000000000000000604482015260640161019c565b50509392505050565b80356001600160a01b0381168114610302575f5ffd5b919050565b5f5f60408385031215610318575f5ffd5b610321836102ec565b915061032f602084016102ec565b90509250929050565b5f5f5f6060848603121561034a575f5ffd5b610353846102ec565b9250610361602085016102ec565b915061036f604085016102ec565b90509250925092565b5f82515f5b81811015610397576020818601810151858301520161037d565b505f92019182525091905056fea2646970667358221220899b443d1b549a4e02ea1296170406d24d5e57fe8630d6f264a00dbe051adb2264736f6c634300081c0033","linkReferences":{}},"methodIdentifiers":{"callApprove(address,address)":"0754be9d","callTransferFrom(address,address,address)":"855c2afa"},"id":0}