{"abi":[{"type":"constructor","inputs":[{"name":"_target","type":"address","internalType":"address payable"}],"stateMutability":"nonpayable"},{"type":"fallback","stateMutability":"payable"},{"type":"receive","stateMutability":"payable"},{"type":"function","name":"target","inputs":[],"outputs":[{"name":"","type":"address","internalType":"contract IGt"}],"stateMutability":"view"}],"bytecode":{"object":"0x60a06040525f805460ff19169055348015610018575f5ffd5b5060405161023838038061023883398101604081905261003791610147565b6001600160a01b038116608081905260408051635ccb372b60e11b8152905163b9966e56916004808201925f9290919082900301818387803b15801561007b575f5ffd5b505af115801561008d573d5f5f3e3d5ffd5b50506080516040516364b00ba760e11b81526368666d606004820181905293506001600160a01b03909116915063c960174e906024015f604051808303815f87803b1580156100da575f5ffd5b505af11580156100ec573d5f5f3e3d5ffd5b505050506080516001600160a01b031663e97dcb626040518163ffffffff1660e01b81526004015f604051808303815f87803b15801561012a575f5ffd5b505af115801561013c573d5f5f3e3d5ffd5b505050505050610174565b5f60208284031215610157575f5ffd5b81516001600160a01b038116811461016d575f5ffd5b9392505050565b60805160af6101895f395f602e015260af5ff3fe608060405260043610601b575f3560e01c8063d4b8399214601f575b5f5ffd5b3480156029575f5ffd5b5060507f000000000000000000000000000000000000000000000000000000000000000081565b60405173ffffffffffffffffffffffffffffffffffffffff909116815260200160405180910390f3fea26469706673582212204a2d9b8de83898fab190aae17052eaaa67e1ff7fb8114cbc4b2ca7fb2a66ca0164736f6c634300081c0033","linkReferences":{}},"methodIdentifiers":{"target()":"d4b83992"},"id":0}