{"abi":[{"type":"function","name":"attackPrice","inputs":[],"outputs":[{"name":"","type":"uint256","internalType":"uint256"}],"stateMutability":"view"},{"type":"function","name":"buyShop","inputs":[{"name":"shopAddress","type":"address","internalType":"address"}],"outputs":[],"stateMutability":"nonpayable"},{"type":"function","name":"price","inputs":[],"outputs":[{"name":"","type":"uint256","internalType":"uint256"}],"stateMutability":"view"},{"type":"function","name":"setPriceTo100","inputs":[],"outputs":[],"stateMutability":"nonpayable"}],"bytecode":{"object":"0x608060405260645f553480156012575f5ffd5b50610157806100205f395ff3fe608060405234801561000f575f5ffd5b506004361061004a575f3560e01c80631abd502f1461004e578063a035b1fe14610059578063d517170a1461006e578063f6cc3a3e14610076575b5f5ffd5b61005760645f55565b005b5f545b60405190815260200160405180910390f35b61005c5f5481565b6100576100843660046100e7565b5f8190508073ffffffffffffffffffffffffffffffffffffffff1663a6f2ae3a6040518163ffffffff1660e01b81526004015f604051808303815f87803b1580156100cd575f5ffd5b505af11580156100df573d5f5f3e3d5ffd5b505050505050565b5f602082840312156100f7575f5ffd5b813573ffffffffffffffffffffffffffffffffffffffff8116811461011a575f5ffd5b939250505056fea264697066735822122017f84ba008eebd5900bf900f485013d1f596d6b591a6ffc8f61164f8d204a88064736f6c634300081c0033","linkReferences":{}},"methodIdentifiers":{"attackPrice()":"d517170a","buyShop(address)":"f6cc3a3e","price()":"a035b1fe","setPriceTo100()":"1abd502f"},"id":0}