{"abi":[{"type":"constructor","inputs":[{"name":"_stake","type":"address","internalType":"address"}],"stateMutability":"nonpayable"},{"type":"fallback","stateMutability":"payable"},{"type":"function","name":"amount","inputs":[],"outputs":[{"name":"","type":"uint256","internalType":"uint256"}],"stateMutability":"view"},{"type":"function","name":"initiateAttack","inputs":[],"outputs":[],"stateMutability":"nonpayable"},{"type":"function","name":"stake","inputs":[],"outputs":[{"name":"","type":"address","internalType":"contract IStake"}],"stateMutability":"view"},{"type":"function","name":"withdrawEth","inputs":[],"outputs":[],"stateMutability":"nonpayable"}],"bytecode":{"object":"0x6080604052348015600e575f5ffd5b50604051610308380380610308833981016040819052602b91604e565b5f80546001600160a01b0319166001600160a01b03929092169190911790556079565b5f60208284031215605d575f5ffd5b81516001600160a01b03811681146072575f5ffd5b9392505050565b610282806100865f395ff3fe60806040526004361061003e575f3560e01c80633a4b66f1146100ce578063a0ef91df14610109578063aa8c217c1461011d578063e0a1f3c814610140575b5f5466038d7ea4c680006001600160a01b0390911631106100cc575f546040516378f8ed8f60e11b815266038d7ea4c6800060048201526001600160a01b039091169063f1f1db1e906024016020604051808303815f875af11580156100a6573d5f5f3e3d5ffd5b505050506040513d601f19601f820116820180604052508101906100ca9190610226565b505b005b3480156100d9575f5ffd5b505f546100ec906001600160a01b031681565b6040516001600160a01b0390911681526020015b60405180910390f35b348015610114575f5ffd5b506100cc610154565b348015610128575f5ffd5b5061013260015481565b604051908152602001610100565b34801561014b575f5ffd5b506100cc610180565b60405133904780156108fc02915f818181858888f1935050505015801561017d573d5f5f3e3d5ffd5b50565b5f80546040516001600160a01b03909116919066071afd498d00009082818181858883f193505050501580156101b8573d5f5f3e3d5ffd5b505f546040516378f8ed8f60e11b815266038d7ea4c6800060048201526001600160a01b039091169063f1f1db1e906024016020604051808303815f875af1158015610206573d5f5f3e3d5ffd5b505050506040513d601f19601f8201168201806040525081019061017d91905b5f60208284031215610236575f5ffd5b81518015158114610245575f5ffd5b939250505056fea2646970667358221220811bbb5fc9edbfbbc6b405c56d205c48f43c95a849a4504a6ba4657b0064f02164736f6c634300081c0033","linkReferences":{}},"methodIdentifiers":{"amount()":"aa8c217c","initiateAttack()":"e0a1f3c8","stake()":"3a4b66f1","withdrawEth()":"a0ef91df"},"id":0}