{"abi":[{"type":"function","name":"approveToken","inputs":[{"name":"token","type":"address","internalType":"address"},{"name":"spender","type":"address","internalType":"address"},{"name":"amount","type":"uint256","internalType":"uint256"}],"outputs":[],"stateMutability":"nonpayable"},{"type":"function","name":"checkAllowance","inputs":[{"name":"token","type":"address","internalType":"address"},{"name":"owner","type":"address","internalType":"address"},{"name":"spender","type":"address","internalType":"address"}],"outputs":[{"name":"","type":"uint256","internalType":"uint256"}],"stateMutability":"view"},{"type":"function","name":"checkBalance","inputs":[{"name":"token","type":"address","internalType":"address"},{"name":"account","type":"address","internalType":"address"}],"outputs":[{"name":"","type":"uint256","internalType":"uint256"}],"stateMutability":"view"},{"type":"function","name":"transferFromToken","inputs":[{"name":"token","type":"address","internalType":"address"},{"name":"from","type":"address","internalType":"address"},{"name":"to","type":"address","internalType":"address"},{"name":"amount","type":"uint256","internalType":"uint256"}],"outputs":[],"stateMutability":"nonpayable"}],"bytecode":{"object":"0x6080604052348015600e575f5ffd5b5061046e8061001c5f395ff3fe608060405234801561000f575f5ffd5b506004361061004a575f3560e01c806377b76ec31461004e5780638ca5f77214610073578063da3e339714610086578063fb3c0d701461009b575b5f5ffd5b61006161005c36600461030f565b6100ae565b60405190815260200160405180910390f35b610061610081366004610340565b610139565b610099610094366004610380565b6101cd565b005b6100996100a93660046103ba565b61025c565b6040517f70a082310000000000000000000000000000000000000000000000000000000081526001600160a01b0382811660048301525f91908416906370a0823190602401602060405180830381865afa15801561010e573d5f5f3e3d5ffd5b505050506040513d601f19601f820116820180604052508101906101329190610402565b9392505050565b6040517fdd62ed3e0000000000000000000000000000000000000000000000000000000081526001600160a01b03838116600483015282811660248301525f919085169063dd62ed3e90604401602060405180830381865afa1580156101a1573d5f5f3e3d5ffd5b505050506040513d601f19601f820116820180604052508101906101c59190610402565b949350505050565b6040517f095ea7b30000000000000000000000000000000000000000000000000000000081526001600160a01b0383811660048301526024820183905284169063095ea7b3906044016020604051808303815f875af1158015610232573d5f5f3e3d5ffd5b505050506040513d601f19601f820116820180604052508101906102569190610419565b50505050565b6040517f23b872dd0000000000000000000000000000000000000000000000000000000081526001600160a01b0384811660048301528381166024830152604482018390528516906323b872dd906064016020604051808303815f875af11580156102c9573d5f5f3e3d5ffd5b505050506040513d601f19601f820116820180604052508101906102ed9190610419565b5050505050565b80356001600160a01b038116811461030a575f5ffd5b919050565b5f5f60408385031215610320575f5ffd5b610329836102f4565b9150610337602084016102f4565b90509250929050565b5f5f5f60608486031215610352575f5ffd5b61035b846102f4565b9250610369602085016102f4565b9150610377604085016102f4565b90509250925092565b5f5f5f60608486031215610392575f5ffd5b61039b846102f4565b92506103a9602085016102f4565b929592945050506040919091013590565b5f5f5f5f608085870312156103cd575f5ffd5b6103d6856102f4565b93506103e4602086016102f4565b92506103f2604086016102f4565b9396929550929360600135925050565b5f60208284031215610412575f5ffd5b5051919050565b5f60208284031215610429575f5ffd5b81518015158114610132575f5ffdfea2646970667358221220baf893b844b7fdefcb0a34971752048cbd852de3110859d986289885d0f5200c64736f6c634300081c0033","linkReferences":{}},"methodIdentifiers":{"approveToken(address,address,uint256)":"da3e3397","checkAllowance(address,address,address)":"8ca5f772","checkBalance(address,address)":"77b76ec3","transferFromToken(address,address,address,uint256)":"fb3c0d70"},"id":0}