{"abi":[{"type":"constructor","inputs":[],"stateMutability":"nonpayable"},{"type":"function","name":"destroyToken","inputs":[],"outputs":[],"stateMutability":"nonpayable"},{"type":"function","name":"targetToken","inputs":[],"outputs":[{"name":"","type":"address","internalType":"address"}],"stateMutability":"view"}],"bytecode":{"object":"0x6080604052600180546001600160a01b031990811673a16e02e87b7454126e5e10d957a927a7f5b5d2be1790915560028054909116735fbdb2315678afecb367f032d93f642f64180aa31790553480156056575f5ffd5b506001546040805160609290921b6001600160601b031916602080840191909152600160f81b603484015281516015818503018152603590930190915281519101205f80546001600160a01b0319166001600160a01b0392909216919091179055610230806100c45f395ff3fe608060405234801561000f575f5ffd5b5060043610610034575f3560e01c80632e4eaa1514610038578063327107f714610042575b5f5ffd5b61004061008a565b005b5f546100619073ffffffffffffffffffffffffffffffffffffffff1681565b60405173ffffffffffffffffffffffffffffffffffffffff909116815260200160405180910390f35b5f80546002546040805173ffffffffffffffffffffffffffffffffffffffff92831660248083019190915282518083039091018152604490910182526020810180517bffffffffffffffffffffffffffffffffffffffffffffffffffffffff167f87335b7a000000000000000000000000000000000000000000000000000000001790529051919092169161011e916101ce565b5f604051808303815f865af19150503d805f8114610157576040519150601f19603f3d011682016040523d82523d5f602084013e61015c565b606091505b50509050806101cb576040517f08c379a000000000000000000000000000000000000000000000000000000000815260206004820152600e60248201527f44657374726f79206661696c6564000000000000000000000000000000000000604482015260640160405180910390fd5b50565b5f82515f5b818110156101ed57602081860181015185830152016101d3565b505f92019182525091905056fea2646970667358221220bd2464a413b3ba456045973a997dbfdc95242b7858a9c5d875073256c503110564736f6c634300081c0033","linkReferences":{}},"methodIdentifiers":{"destroyToken()":"2e4eaa15","targetToken()":"327107f7"},"id":0}