{"abi":[{"type":"constructor","inputs":[{"name":"target","type":"address","internalType":"address"}],"stateMutability":"nonpayable"},{"type":"function","name":"solver","inputs":[],"outputs":[{"name":"","type":"address","internalType":"address"}],"stateMutability":"view"}],"bytecode":{"object":"0x608060405234801561000f575f5ffd5b506040516101c13803806101c183398101604081905261002e916100e1565b6040805180820190915260138082527f69602a60005260206000f3600052600a6016f300000000000000000000000000602083019081525f919082f05f80546001600160a01b0319166001600160a01b03838116918217909255604051631f87943360e01b81526004810191909152919250841690631f879433906024015f604051808303815f87803b1580156100c3575f5ffd5b505af11580156100d5573d5f5f3e3d5ffd5b5050505050505061010e565b5f602082840312156100f1575f5ffd5b81516001600160a01b0381168114610107575f5ffd5b9392505050565b60a78061011a5f395ff3fe6080604052348015600e575f5ffd5b50600436106026575f3560e01c806349a7a26d14602a575b5f5ffd5b5f5460489073ffffffffffffffffffffffffffffffffffffffff1681565b60405173ffffffffffffffffffffffffffffffffffffffff909116815260200160405180910390f3fea264697066735822122022b50eb854ca21480eb225bad9478f204a8136250e1d58fdfef8573227e4f66864736f6c634300081c0033","linkReferences":{}},"methodIdentifiers":{"solver()":"49a7a26d"},"id":0}