{"abi":[{"type":"function","name":"analyze","inputs":[],"outputs":[{"name":"imperAddr","type":"address","internalType":"address"},{"name":"controllerAddr","type":"address","internalType":"address"},{"name":"addrBytes","type":"bytes","internalType":"bytes"}],"stateMutability":"pure"},{"type":"function","name":"attemptTransfer","inputs":[],"outputs":[],"stateMutability":"nonpayable"},{"type":"function","name":"impersonate","inputs":[],"outputs":[],"stateMutability":"nonpayable"}],"bytecode":{"object":"0x6080604052348015600e575f5ffd5b506102118061001c5f395ff3fe608060405234801561000f575f5ffd5b506004361061003f575f3560e01c80635149fec114610043578063857a87471461004d578063de033b781461004b575b5f5ffd5b61004b6100c8565b005b604080517fa16e02e87b7454126e5e10d957a927a7f5b5d2be0000000000000000000000006020820152815160148183030181526034909101918290526100bf9173a16e02e87b7454126e5e10d957a927a7f5b5d2be917342069d82d9592991704e6e41bf2589a76ead1a9191610156565b60405180910390f35b6040517ff2fde38b00000000000000000000000000000000000000000000000000000000815273f39fd6e51aad88f6f4ce6ab8827279cfffb92266600482015273a16e02e87b7454126e5e10d957a927a7f5b5d2be9063f2fde38b906024015f604051808303815f87803b15801561013e575f5ffd5b505af1158015610150573d5f5f3e3d5ffd5b50505050565b73ffffffffffffffffffffffffffffffffffffffff8416815273ffffffffffffffffffffffffffffffffffffffff83166020820152606060408201525f82518060608401525f5b818110156101ba576020818601810151608086840101520161019d565b505f608082850101526080601f19601f83011684010191505094935050505056fea26469706673582212206face2c24c4b76cacaaec4cb2c69dfadf90a711bb6a4737def9daf54677f3f5a64736f6c634300081c0033","linkReferences":{}},"methodIdentifiers":{"analyze()":"857a8747","attemptTransfer()":"5149fec1","impersonate()":"de033b78"},"id":0}