{"abi":[{"type":"function","name":"price","inputs":[],"outputs":[{"name":"","type":"uint256","internalType":"uint256"}],"stateMutability":"view"},{"type":"function","name":"purchase","inputs":[],"outputs":[],"stateMutability":"nonpayable"}],"bytecode":{"object":"0x6080604052348015600e575f5ffd5b5060f58061001b5f395ff3fe6080604052348015600e575f5ffd5b50600436106030575f3560e01c806364edfbf0146034578063a035b1fe14603c575b5f5ffd5b603a6050565b005b606460405190815260200160405180910390f35b73a16e02e87b7454126e5e10d957a927a7f5b5d2be73ffffffffffffffffffffffffffffffffffffffff1663a6f2ae3a6040518163ffffffff1660e01b81526004015f604051808303815f87803b15801560a8575f5ffd5b505af115801560b9573d5f5f3e3d5ffd5b5050505056fea26469706673582212205d804e99a3696444a5e654ba282b3ab7e63e00d344d8d3ac76744612a3d41e6a64736f6c634300081c0033","linkReferences":{}},"methodIdentifiers":{"price()":"a035b1fe","purchase()":"64edfbf0"},"id":0}