{"abi":[{"type":"constructor","inputs":[{"name":"dexInstance","type":"address","internalType":"address"},{"name":"name","type":"string","internalType":"string"},{"name":"symbol","type":"string","internalType":"string"},{"name":"initialSupply","type":"uint256","internalType":"uint256"}],"stateMutability":"nonpayable"},{"type":"function","name":"allowance","inputs":[{"name":"owner","type":"address","internalType":"address"},{"name":"spender","type":"address","internalType":"address"}],"outputs":[{"name":"","type":"uint256","internalType":"uint256"}],"stateMutability":"view"},{"type":"function","name":"approve","inputs":[{"name":"spender","type":"address","internalType":"address"},{"name":"amount","type":"uint256","internalType":"uint256"}],"outputs":[{"name":"","type":"bool","internalType":"bool"}],"stateMutability":"nonpayable"},{"type":"function","name":"approve","inputs":[{"name":"owner","type":"address","internalType":"address"},{"name":"spender","type":"address","internalType":"address"},{"name":"amount","type":"uint256","internalType":"uint256"}],"outputs":[],"stateMutability":"nonpayable"},{"type":"function","name":"balanceOf","inputs":[{"name":"account","type":"address","internalType":"address"}],"outputs":[{"name":"","type":"uint256","internalType":"uint256"}],"stateMutability":"view"},{"type":"function","name":"decimals","inputs":[],"outputs":[{"name":"","type":"uint8","internalType":"uint8"}],"stateMutability":"view"},{"type":"function","name":"decreaseAllowance","inputs":[{"name":"spender","type":"address","internalType":"address"},{"name":"subtractedValue","type":"uint256","internalType":"uint256"}],"outputs":[{"name":"","type":"bool","internalType":"bool"}],"stateMutability":"nonpayable"},{"type":"function","name":"increaseAllowance","inputs":[{"name":"spender","type":"address","internalType":"address"},{"name":"addedValue","type":"uint256","internalType":"uint256"}],"outputs":[{"name":"","type":"bool","internalType":"bool"}],"stateMutability":"nonpayable"},{"type":"function","name":"name","inputs":[],"outputs":[{"name":"","type":"string","internalType":"string"}],"stateMutability":"view"},{"type":"function","name":"symbol","inputs":[],"outputs":[{"name":"","type":"string","internalType":"string"}],"stateMutability":"view"},{"type":"function","name":"totalSupply","inputs":[],"outputs":[{"name":"","type":"uint256","internalType":"uint256"}],"stateMutability":"view"},{"type":"function","name":"transfer","inputs":[{"name":"to","type":"address","internalType":"address"},{"name":"amount","type":"uint256","internalType":"uint256"}],"outputs":[{"name":"","type":"bool","internalType":"bool"}],"stateMutability":"nonpayable"},{"type":"function","name":"transferFrom","inputs":[{"name":"from","type":"address","internalType":"address"},{"name":"to","type":"address","internalType":"address"},{"name":"amount","type":"uint256","internalType":"uint256"}],"outputs":[{"name":"","type":"bool","internalType":"bool"}],"stateMutability":"nonpayable"},{"type":"event","name":"Approval","inputs":[{"name":"owner","type":"address","indexed":true,"internalType":"address"},{"name":"spender","type":"address","indexed":true,"internalType":"address"},{"name":"value","type":"uint256","indexed":false,"internalType":"uint256"}],"anonymous":false},{"type":"event","name":"Transfer","inputs":[{"name":"from","type":"address","indexed":true,"internalType":"address"},{"name":"to","type":"address","indexed":true,"internalType":"address"},{"name":"value","type":"uint256","indexed":false,"internalType":"uint256"}],"anonymous":false}],"bytecode":{"object":"0x608060405234801561000f575f5ffd5b50604051610df7380380610df783398101604081905261002e9161021c565b8282600361003c8382610329565b5060046100498282610329565b50505061005c338261008560201b60201c565b5050600580546001600160a01b0319166001600160a01b03939093169290921790915550610408565b6001600160a01b0382166100df5760405162461bcd60e51b815260206004820152601f60248201527f45524332303a206d696e7420746f20746865207a65726f206164647265737300604482015260640160405180910390fd5b8060025f8282546100f091906103e3565b90915550506001600160a01b0382165f908152602081905260408120805483929061011c9084906103e3565b90915550506040518181526001600160a01b038316905f907fddf252ad1be2c89b69c2b068fc378daa952ba7f163c4a11628f55a4df523b3ef9060200160405180910390a35050565b505050565b634e487b7160e01b5f52604160045260245ffd5b5f82601f83011261018d575f5ffd5b81516001600160401b038111156101a6576101a661016a565b604051601f8201601f19908116603f011681016001600160401b03811182821017156101d4576101d461016a565b6040528181528382016020018510156101eb575f5ffd5b5f5b82811015610209576020818601810151838301820152016101ed565b505f918101602001919091529392505050565b5f5f5f5f6080858703121561022f575f5ffd5b84516001600160a01b0381168114610245575f5ffd5b60208601519094506001600160401b03811115610260575f5ffd5b61026c8782880161017e565b604087015190945090506001600160401b03811115610289575f5ffd5b6102958782880161017e565b606096909601519497939650505050565b600181811c908216806102ba57607f821691505b6020821081036102d857634e487b7160e01b5f52602260045260245ffd5b50919050565b601f82111561016557805f5260205f20601f840160051c810160208510156103035750805b601f840160051c820191505b81811015610322575f815560010161030f565b5050505050565b81516001600160401b038111156103425761034261016a565b6103568161035084546102a6565b846102de565b6020601f821160018114610388575f83156103715750848201515b5f19600385901b1c1916600184901b178455610322565b5f84815260208120601f198516915b828110156103b75787850151825560209485019460019092019101610397565b50848210156103d457868401515f19600387901b60f8161c191681555b50505050600190811b01905550565b8082018082111561040257634e487b7160e01b5f52601160045260245ffd5b92915050565b6109e2806104155f395ff3fe608060405234801561000f575f5ffd5b50600436106100cf575f3560e01c806370a082311161007d578063a9059cbb11610058578063a9059cbb1461019e578063dd62ed3e146101b1578063e1f21c67146101e9575f5ffd5b806370a082311461015b57806395d89b4114610183578063a457c2d71461018b575f5ffd5b806323b872dd116100ad57806323b872dd14610126578063313ce567146101395780633950935114610148575f5ffd5b806306fdde03146100d3578063095ea7b3146100f157806318160ddd14610114575b5f5ffd5b6100db6101fe565b6040516100e8919061083c565b60405180910390f35b6101046100ff3660046108a2565b61028e565b60405190151581526020016100e8565b6002545b6040519081526020016100e8565b6101046101343660046108ca565b6102a7565b604051601281526020016100e8565b6101046101563660046108a2565b6102ca565b610118610169366004610904565b6001600160a01b03165f9081526020819052604090205490565b6100db610308565b6101046101993660046108a2565b610317565b6101046101ac3660046108a2565b6103c5565b6101186101bf366004610924565b6001600160a01b039182165f90815260016020908152604080832093909416825291909152205490565b6101fc6101f73660046108ca565b6103d2565b005b60606003805461020d90610955565b80601f016020809104026020016040519081016040528092919081815260200182805461023990610955565b80156102845780601f1061025b57610100808354040283529160200191610284565b820191905f5260205f20905b81548152906001019060200180831161026757829003601f168201915b5050505050905090565b5f3361029b818585610440565b60019150505b92915050565b5f336102b4858285610597565b6102bf858585610627565b506001949350505050565b335f8181526001602090815260408083206001600160a01b038716845290915281205490919061029b908290869061030390879061098d565b610440565b60606004805461020d90610955565b335f8181526001602090815260408083206001600160a01b0387168452909152812054909190838110156103b85760405162461bcd60e51b815260206004820152602560248201527f45524332303a2064656372656173656420616c6c6f77616e63652062656c6f7760448201527f207a65726f00000000000000000000000000000000000000000000000000000060648201526084015b60405180910390fd5b6102bf8286868403610440565b5f3361029b818585610627565b6005546001600160a01b03908116908416036104305760405162461bcd60e51b815260206004820152600f60248201527f496e76616c6964417070726f766572000000000000000000000000000000000060448201526064016103af565b61043b838383610440565b505050565b6001600160a01b0383166104bb5760405162461bcd60e51b8152602060048201526024808201527f45524332303a20617070726f76652066726f6d20746865207a65726f2061646460448201527f726573730000000000000000000000000000000000000000000000000000000060648201526084016103af565b6001600160a01b0382166105375760405162461bcd60e51b815260206004820152602260248201527f45524332303a20617070726f766520746f20746865207a65726f20616464726560448201527f737300000000000000000000000000000000000000000000000000000000000060648201526084016103af565b6001600160a01b038381165f8181526001602090815260408083209487168084529482529182902085905590518481527f8c5be1e5ebec7d5bd14f71427d1e84f3dd0314c0f7b2291e5b200ac8c7c3b925910160405180910390a3505050565b6001600160a01b038381165f908152600160209081526040808320938616835292905220545f19811461062157818110156106145760405162461bcd60e51b815260206004820152601d60248201527f45524332303a20696e73756666696369656e7420616c6c6f77616e636500000060448201526064016103af565b6106218484848403610440565b50505050565b6001600160a01b0383166106a35760405162461bcd60e51b815260206004820152602560248201527f45524332303a207472616e736665722066726f6d20746865207a65726f20616460448201527f647265737300000000000000000000000000000000000000000000000000000060648201526084016103af565b6001600160a01b03821661071f5760405162461bcd60e51b815260206004820152602360248201527f45524332303a207472616e7366657220746f20746865207a65726f206164647260448201527f657373000000000000000000000000000000000000000000000000000000000060648201526084016103af565b6001600160a01b0383165f90815260208190526040902054818110156107ad5760405162461bcd60e51b815260206004820152602660248201527f45524332303a207472616e7366657220616d6f756e742065786365656473206260448201527f616c616e6365000000000000000000000000000000000000000000000000000060648201526084016103af565b6001600160a01b038085165f908152602081905260408082208585039055918516815290812080548492906107e390849061098d565b92505081905550826001600160a01b0316846001600160a01b03167fddf252ad1be2c89b69c2b068fc378daa952ba7f163c4a11628f55a4df523b3ef8460405161082f91815260200190565b60405180910390a3610621565b602081525f82518060208401525f5b81811015610868576020818601810151604086840101520161084b565b505f604082850101526040601f19601f83011684010191505092915050565b80356001600160a01b038116811461089d575f5ffd5b919050565b5f5f604083850312156108b3575f5ffd5b6108bc83610887565b946020939093013593505050565b5f5f5f606084860312156108dc575f5ffd5b6108e584610887565b92506108f360208501610887565b929592945050506040919091013590565b5f60208284031215610914575f5ffd5b61091d82610887565b9392505050565b5f5f60408385031215610935575f5ffd5b61093e83610887565b915061094c60208401610887565b90509250929050565b600181811c9082168061096957607f821691505b60208210810361098757634e487b7160e01b5f52602260045260245ffd5b50919050565b808201808211156102a157634e487b7160e01b5f52601160045260245ffdfea26469706673582212203cd4c1b7082ade08b1906bb7e4e2d48dc6ac4de421d663d7c8d936f675cee87d64736f6c634300081c0033","linkReferences":{}},"methodIdentifiers":{"allowance(address,address)":"dd62ed3e","approve(address,address,uint256)":"e1f21c67","approve(address,uint256)":"095ea7b3","balanceOf(address)":"70a08231","decimals()":"313ce567","decreaseAllowance(address,uint256)":"a457c2d7","increaseAllowance(address,uint256)":"39509351","name()":"06fdde03","symbol()":"95d89b41","totalSupply()":"18160ddd","transfer(address,uint256)":"a9059cbb","transferFrom(address,address,uint256)":"23b872dd"},"id":5}