{"abi":[{"type":"function","name":"sweepToken","inputs":[{"name":"cryptovaultAddress","type":"address","internalType":"address"},{"name":"tokenAddress","type":"address","internalType":"address"}],"outputs":[],"stateMutability":"nonpayable"}],"bytecode":{"object":"0x6080604052348015600e575f5ffd5b506102458061001c5f395ff3fe608060405234801561000f575f5ffd5b5060043610610029575f3560e01c8063258836fe1461002d575b5f5ffd5b61004061003b3660046101a1565b610042565b005b6040517f70a0823100000000000000000000000000000000000000000000000000000000815273ffffffffffffffffffffffffffffffffffffffff83811660048301525f91908316906370a0823190602401602060405180830381865afa1580156100af573d5f5f3e3d5ffd5b505050506040513d601f19601f820116820180604052508101906100d391906101d2565b6040517f23b872dd00000000000000000000000000000000000000000000000000000000815273ffffffffffffffffffffffffffffffffffffffff858116600483015233602483015260448201839052919250908316906323b872dd906064016020604051808303815f875af115801561014f573d5f5f3e3d5ffd5b505050506040513d601f19601f8201168201806040525081019061017391906101e9565b50505050565b803573ffffffffffffffffffffffffffffffffffffffff8116811461019c575f5ffd5b919050565b5f5f604083850312156101b2575f5ffd5b6101bb83610179565b91506101c960208401610179565b90509250929050565b5f602082840312156101e2575f5ffd5b5051919050565b5f602082840312156101f9575f5ffd5b81518015158114610208575f5ffd5b939250505056fea2646970667358221220c93b19b5a64146b7d8da677b95c6f711ae702635817e2058b798b2e2a021104e64736f6c634300081c0033","linkReferences":{}},"methodIdentifiers":{"sweepToken(address,address)":"258836fe"},"id":0}