{"abi":[{"type":"function","name":"decodeCarouselEntry","inputs":[{"name":"entry","type":"uint256","internalType":"uint256"}],"outputs":[{"name":"animal","type":"uint256","internalType":"uint256"},{"name":"nextId","type":"uint256","internalType":"uint256"},{"name":"owner","type":"address","internalType":"address"}],"stateMutability":"pure"},{"type":"function","name":"showMasks","inputs":[],"outputs":[{"name":"animalMask","type":"uint256","internalType":"uint256"},{"name":"nextIdMask","type":"uint256","internalType":"uint256"},{"name":"ownerMask","type":"uint256","internalType":"uint256"}],"stateMutability":"pure"}],"bytecode":{"object":"0x6080604052348015600e575f5ffd5b506101598061001c5f395ff3fe608060405234801561000f575f5ffd5b5060043610610034575f3560e01c80638feb0de914610038578063b7fe8fef146100a5575b5f5ffd5b61006f61004636600461010c565b60b081901c9160a082901c61ffff169173ffffffffffffffffffffffffffffffffffffffff1690565b60408051938452602084019290925273ffffffffffffffffffffffffffffffffffffffff16908201526060015b60405180910390f35b604080517fffffffffffffffffffff00000000000000000000000000000000000000000000815275ffff0000000000000000000000000000000000000000602082015273ffffffffffffffffffffffffffffffffffffffff9181019190915260600161009c565b5f6020828403121561011c575f5ffd5b503591905056fea2646970667358221220886f2b8c3ea8c341b8ec95822773a16a564d9f76a4353d2e72d3e778241af40064736f6c634300081c0033","linkReferences":{}},"methodIdentifiers":{"decodeCarouselEntry(uint256)":"8feb0de9","showMasks()":"b7fe8fef"},"id":0}