{"abi":[{"type":"function","name":"getImplementation","inputs":[{"name":"proxy","type":"address","internalType":"address"}],"outputs":[{"name":"","type":"address","internalType":"address"}],"stateMutability":"view"},{"type":"function","name":"readSlot","inputs":[{"name":"target","type":"address","internalType":"address"},{"name":"slot","type":"bytes32","internalType":"bytes32"}],"outputs":[{"name":"","type":"bytes32","internalType":"bytes32"}],"stateMutability":"view"}],"bytecode":{"object":"0x608060405234801561001057600080fd5b50610144806100206000396000f3fe608060405234801561001057600080fd5b50600436106100365760003560e01c806315ac72ca1461003b57806316a907b114610097575b600080fd5b61006e6004803603602081101561005157600080fd5b503573ffffffffffffffffffffffffffffffffffffffff166100e2565b6040805173ffffffffffffffffffffffffffffffffffffffff9092168252519081900360200190f35b6100d0600480360360408110156100ad57600080fd5b5073ffffffffffffffffffffffffffffffffffffffff8135169060200135610108565b60408051918252519081900360200190f35b507f360894a13ba1a3210667c828492db98dca3e2076cc3735a920a3ca505d382bbc5490565b5491905056fea2646970667358221220e483bca8ff382534c2276c2d0256563624bd3df1d6a0852316d4b8ad7119da7c64736f6c634300060c0033","linkReferences":{}},"methodIdentifiers":{"getImplementation(address)":"15ac72ca","readSlot(address,bytes32)":"16a907b1"},"id":0}