{"abi":[{"type":"function","name":"buyItem","inputs":[{"name":"shop","type":"address","internalType":"address"}],"outputs":[],"stateMutability":"nonpayable"},{"type":"function","name":"myPrice","inputs":[],"outputs":[{"name":"","type":"uint256","internalType":"uint256"}],"stateMutability":"view"},{"type":"function","name":"price","inputs":[],"outputs":[{"name":"","type":"uint256","internalType":"uint256"}],"stateMutability":"view"},{"type":"function","name":"setPrice","inputs":[{"name":"newPrice","type":"uint256","internalType":"uint256"}],"outputs":[],"stateMutability":"nonpayable"}],"bytecode":{"object":"0x608060405260645f553480156012575f5ffd5b50610176806100205f395ff3fe608060405234801561000f575f5ffd5b506004361061004a575f3560e01c8063545ee7b51461004e57806391b7f5ed14610068578063a035b1fe1461007c578063dd62b03914610083575b5f5ffd5b6100565f5481565b60405190815260200160405180910390f35b61007a6100763660046100ef565b5f55565b005b5f54610056565b61007a610091366004610106565b8073ffffffffffffffffffffffffffffffffffffffff1663a6f2ae3a6040518163ffffffff1660e01b81526004015f604051808303815f87803b1580156100d6575f5ffd5b505af11580156100e8573d5f5f3e3d5ffd5b5050505050565b5f602082840312156100ff575f5ffd5b5035919050565b5f60208284031215610116575f5ffd5b813573ffffffffffffffffffffffffffffffffffffffff81168114610139575f5ffd5b939250505056fea26469706673582212206442fc14da5b2a7fb3bbe977f94bbdecc9ee89ec8ea7b248651d0911162db8a564736f6c634300081c0033","linkReferences":{}},"methodIdentifiers":{"buyItem(address)":"dd62b039","myPrice()":"545ee7b5","price()":"a035b1fe","setPrice(uint256)":"91b7f5ed"},"id":0}