{"abi":[{"type":"function","name":"checkIfUsed","inputs":[{"name":"locker","type":"address","internalType":"address"}],"outputs":[{"name":"","type":"bool","internalType":"bool"}],"stateMutability":"view"},{"type":"function","name":"getEmptyArrayHash","inputs":[],"outputs":[{"name":"","type":"bytes32","internalType":"bytes32"}],"stateMutability":"pure"},{"type":"function","name":"getMsgHash","inputs":[{"name":"locker","type":"address","internalType":"address"}],"outputs":[{"name":"","type":"bytes32","internalType":"bytes32"}],"stateMutability":"view"}],"bytecode":{"object":"0x6080604052348015600e575f5ffd5b506102f38061001c5f395ff3fe608060405234801561000f575f5ffd5b506004361061003f575f3560e01c8063067bcae71461004357806324b50e431461006b57806390144f591461008c575b5f5ffd5b61005661005136600461020b565b610094565b60405190151581526020015b60405180910390f35b61007e61007936600461020b565b61015f565b604051908152602001610062565b61007e6101d3565b604080515f8082526020820183529182906100b29083908101610245565b60408051808303601f190181529082905280516020909101207ff978fd6100000000000000000000000000000000000000000000000000000000825260048201819052915073ffffffffffffffffffffffffffffffffffffffff85169063f978fd6190602401602060405180830381865afa158015610133573d5f5f3e3d5ffd5b505050506040513d601f19601f820116820180604052508101906101579190610287565b949350505050565b5f8173ffffffffffffffffffffffffffffffffffffffff1663e4e6cf4f6040518163ffffffff1660e01b8152600401602060405180830381865afa1580156101a9573d5f5f3e3d5ffd5b505050506040513d601f19601f820116820180604052508101906101cd91906102a6565b92915050565b604080515f808252602082018352916101ef9082908101610245565b6040516020818303038152906040528051906020012091505090565b5f6020828403121561021b575f5ffd5b813573ffffffffffffffffffffffffffffffffffffffff8116811461023e575f5ffd5b9392505050565b602080825282518282018190525f918401906040840190835b8181101561027c57835183526020938401939092019160010161025e565b509095945050505050565b5f60208284031215610297575f5ffd5b8151801515811461023e575f5ffd5b5f602082840312156102b6575f5ffd5b505191905056fea2646970667358221220e144d877c1ec305d51751006c761d3adc45353cd878e3981dcc35e50dbf072e864736f6c634300081c0033","linkReferences":{}},"methodIdentifiers":{"checkIfUsed(address)":"067bcae7","getEmptyArrayHash()":"90144f59","getMsgHash(address)":"24b50e43"},"id":0}