{"abi":[{"type":"function","name":"computeAddressForInstance","inputs":[{"name":"instance","type":"address","internalType":"address"},{"name":"nonce","type":"uint256","internalType":"uint256"}],"outputs":[{"name":"","type":"address","internalType":"address"}],"stateMutability":"view"},{"type":"function","name":"destroyToken","inputs":[{"name":"token","type":"address","internalType":"address"},{"name":"to","type":"address","internalType":"address payable"}],"outputs":[],"stateMutability":"nonpayable"}],"bytecode":{"object":"0x6080604052348015600e575f5ffd5b506102018061001c5f395ff3fe608060405234801561000f575f5ffd5b5060043610610034575f3560e01c8063132f540f14610038578063e6acd307146100b3575b5f5ffd5b61008a61004636600461016a565b6040805160609390931b6bffffffffffffffffffffffff19166020808501919091526034808501939093528151808503909301835260549093019052805191012090565b60405173ffffffffffffffffffffffffffffffffffffffff909116815260200160405180910390f35b6100c66100c1366004610194565b6100c8565b005b6040517ef55d9d00000000000000000000000000000000000000000000000000000000815273ffffffffffffffffffffffffffffffffffffffff828116600483015283169062f55d9d906024015f604051808303815f87803b15801561012c575f5ffd5b505af115801561013e573d5f5f3e3d5ffd5b505050505050565b73ffffffffffffffffffffffffffffffffffffffff81168114610167575f5ffd5b50565b5f5f6040838503121561017b575f5ffd5b823561018681610146565b946020939093013593505050565b5f5f604083850312156101a5575f5ffd5b82356101b081610146565b915060208301356101c081610146565b80915050925092905056fea26469706673582212208f0208092821fa5bf1cc7812454ac0db5eaca381b8d94e1d37613abb7988c8c364736f6c634300081c0033","linkReferences":{}},"methodIdentifiers":{"computeAddressForInstance(address,uint256)":"132f540f","destroyToken(address,address)":"e6acd307"},"id":0}