{"abi":[{"type":"function","name":"calculateAddress","inputs":[{"name":"deployer","type":"address","internalType":"address"},{"name":"nonce","type":"uint256","internalType":"uint256"}],"outputs":[{"name":"","type":"address","internalType":"address"}],"stateMutability":"pure"}],"bytecode":{"object":"0x6080604052348015600e575f5ffd5b506101188061001c5f395ff3fe6080604052348015600e575f5ffd5b50600436106026575f3560e01c8063807e72d714602a575b5f5ffd5b6079603536600460a2565b6040805160609390931b6bffffffffffffffffffffffff19166020808501919091526034808501939093528151808503909301835260549093019052805191012090565b60405173ffffffffffffffffffffffffffffffffffffffff909116815260200160405180910390f35b5f5f6040838503121560b2575f5ffd5b823573ffffffffffffffffffffffffffffffffffffffff8116811460d4575f5ffd5b94602093909301359350505056fea264697066735822122064148018749eb44742131db0d533506146a3d10da98233a915f2534dd61ba64b64736f6c634300081c0033","linkReferences":{}},"methodIdentifiers":{"calculateAddress(address,uint256)":"807e72d7"},"id":0}