{"abi":[{"type":"constructor","inputs":[{"name":"_kingTarget","type":"address","internalType":"address"}],"stateMutability":"nonpayable"},{"type":"fallback","stateMutability":"payable"},{"type":"receive","stateMutability":"payable"},{"type":"function","name":"attack","inputs":[],"outputs":[],"stateMutability":"payable"},{"type":"function","name":"kingTarget","inputs":[],"outputs":[{"name":"","type":"address","internalType":"address"}],"stateMutability":"view"}],"bytecode":{"object":"0x6080604052348015600e575f5ffd5b50604051610210380380610210833981016040819052602b91604e565b5f80546001600160a01b0319166001600160a01b03929092169190911790556079565b5f60208284031215605d575f5ffd5b81516001600160a01b03811681146072575f5ffd5b9392505050565b61018a806100865f395ff3fe608060405260043610610028575f3560e01c80639e5faafc1461002a578063a928591914610032575b005b610028610086565b34801561003d575f5ffd5b505f5461005d9073ffffffffffffffffffffffffffffffffffffffff1681565b60405173ffffffffffffffffffffffffffffffffffffffff909116815260200160405180910390f35b5f805460405173ffffffffffffffffffffffffffffffffffffffff9091169034908381818185875af1925050503d805f81146100dd576040519150601f19603f3d011682016040523d82523d5f602084013e6100e2565b606091505b5050905080610151576040517f08c379a000000000000000000000000000000000000000000000000000000000815260206004820152600d60248201527f41747461636b206661696c656400000000000000000000000000000000000000604482015260640160405180910390fd5b5056fea264697066735822122080bdbe41c72efcb83590ec7d02193e817636ecb10166d601d67c05746b16429064736f6c634300081c0033","linkReferences":{}},"methodIdentifiers":{"attack()":"9e5faafc","kingTarget()":"a9285919"},"id":0}