{"abi":[{"type":"function","name":"checkOwner","inputs":[],"outputs":[{"name":"","type":"address","internalType":"address"}],"stateMutability":"view"},{"type":"function","name":"tryTransferOwnership","inputs":[],"outputs":[],"stateMutability":"nonpayable"}],"bytecode":{"object":"0x6080604052348015600e575f5ffd5b5061035e8061001c5f395ff3fe608060405234801561000f575f5ffd5b5060043610610034575f3560e01c80632a30b64314610038578063cdbce03d14610042575b5f5ffd5b610040610073565b005b61004a61017c565b60405173ffffffffffffffffffffffffffffffffffffffff909116815260200160405180910390f35b6040513360248201525f90819073a16e02e87b7454126e5e10d957a927a7f5b5d2be9060440160408051601f198184030181529181526020820180517bffffffffffffffffffffffffffffffffffffffffffffffffffffffff167ff2fde38b00000000000000000000000000000000000000000000000000000000179052516100fc91906102c2565b5f604051808303815f865af19150503d805f8114610135576040519150601f19603f3d011682016040523d82523d5f602084013e61013a565b606091505b5091509150816101785763f2fde38b6040518181523360048201525f5f6024835f73a16e02e87b7454126e5e10d957a927a7f5b5d2be617530f15050505b5050565b60408051600481526024810182526020810180517bffffffffffffffffffffffffffffffffffffffffffffffffffffffff167f8da5cb5b0000000000000000000000000000000000000000000000000000000017905290515f918291829173a16e02e87b7454126e5e10d957a927a7f5b5d2be916101fa91906102c2565b5f60405180830381855afa9150503d805f8114610232576040519150601f19603f3d011682016040523d82523d5f602084013e610237565b606091505b5091509150816102a7576040517f08c379a000000000000000000000000000000000000000000000000000000000815260206004820152601360248201527f4661696c656420746f20676574206f776e657200000000000000000000000000604482015260640160405180910390fd5b808060200190518101906102bb91906102ee565b9250505090565b5f82515f5b818110156102e157602081860181015185830152016102c7565b505f920191825250919050565b5f602082840312156102fe575f5ffd5b815173ffffffffffffffffffffffffffffffffffffffff81168114610321575f5ffd5b939250505056fea2646970667358221220aef8aada4f5b797b1757af463878e37d6b42066f567ea236264ba7276bc7919b64736f6c634300081c0033","linkReferences":{}},"methodIdentifiers":{"checkOwner()":"cdbce03d","tryTransferOwnership()":"2a30b643"},"id":0}