{"abi":[{"type":"constructor","inputs":[{"name":"_denial","type":"address","internalType":"address"}],"stateMutability":"nonpayable"},{"type":"receive","stateMutability":"payable"},{"type":"function","name":"denial","inputs":[],"outputs":[{"name":"","type":"address","internalType":"address"}],"stateMutability":"view"},{"type":"function","name":"withdrawFunds","inputs":[],"outputs":[],"stateMutability":"nonpayable"}],"bytecode":{"object":"0x6080604052348015600e575f5ffd5b506040516102dd3803806102dd833981016040819052602b91604e565b5f80546001600160a01b0319166001600160a01b03929092169190911790556079565b5f60208284031215605d575f5ffd5b81516001600160a01b03811681146072575f5ffd5b9392505050565b610257806100865f395ff3fe60806040526004361061002b575f3560e01c806324600fc31461016157806377fa529514610175575f5ffd5b3661015d575f805460408051600481526024810182526020810180517bffffffffffffffffffffffffffffffffffffffffffffffffffffffff167f855511cc00000000000000000000000000000000000000000000000000000000179052905173ffffffffffffffffffffffffffffffffffffffff909216916100ae91906101f5565b5f604051808303815f865af19150503d805f81146100e7576040519150601f19603f3d011682016040523d82523d5f602084013e6100ec565b606091505b505090508061015b576040517f08c379a000000000000000000000000000000000000000000000000000000000815260206004820152601a60248201527f41747461636b6572207265656e7472616e6365206661696c6564000000000000604482015260640160405180910390fd5b005b5f5ffd5b34801561016c575f5ffd5b5061015b6101c9565b348015610180575f5ffd5b505f546101a09073ffffffffffffffffffffffffffffffffffffffff1681565b60405173ffffffffffffffffffffffffffffffffffffffff909116815260200160405180910390f35b60405133904780156108fc02915f818181858888f193505050501580156101f2573d5f5f3e3d5ffd5b50565b5f82515f5b8181101561021457602081860181015185830152016101fa565b505f92019182525091905056fea26469706673582212205761e5e172b781ade6ab1adaace632bd42b5f47a8644f05a333b5ac7830c0ac364736f6c634300081c0033","linkReferences":{}},"methodIdentifiers":{"denial()":"77fa5295","withdrawFunds()":"24600fc3"},"id":0}