{"abi":[{"type":"constructor","inputs":[{"name":"_dexTwo","type":"address","internalType":"address"}],"stateMutability":"nonpayable"},{"type":"function","name":"dexTwo","inputs":[],"outputs":[{"name":"","type":"address","internalType":"contract DexTwo"}],"stateMutability":"view"},{"type":"function","name":"getOwner","inputs":[],"outputs":[{"name":"","type":"address","internalType":"address"}],"stateMutability":"view"},{"type":"function","name":"getTokenAddresses","inputs":[],"outputs":[{"name":"token1","type":"address","internalType":"address"},{"name":"token2","type":"address","internalType":"address"},{"name":"areSet","type":"bool","internalType":"bool"}],"stateMutability":"view"}],"bytecode":{"object":"0x6080604052348015600e575f5ffd5b5060405161032f38038061032f833981016040819052602b91604e565b5f80546001600160a01b0319166001600160a01b03929092169190911790556079565b5f60208284031215605d575f5ffd5b81516001600160a01b03811681146072575f5ffd5b9392505050565b6102a9806100865f395ff3fe608060405234801561000f575f5ffd5b506004361061003f575f3560e01c8063396b160014610043578063893d20e814610072578063ee8c24b81461007a575b5f5ffd5b5f54610055906001600160a01b031681565b6040516001600160a01b0390911681526020015b60405180910390f35b6100556100aa565b610082610123565b604080516001600160a01b039485168152939092166020840152151590820152606001610069565b5f5f5f9054906101000a90046001600160a01b03166001600160a01b0316638da5cb5b6040518163ffffffff1660e01b8152600401602060405180830381865afa1580156100fa573d5f5f3e3d5ffd5b505050506040513d601f19601f8201168201806040525081019061011e9190610246565b905090565b5f5f5f5f5f9054906101000a90046001600160a01b03166001600160a01b031663d21220a76040518163ffffffff1660e01b8152600401602060405180830381865afa925050508015610193575060408051601f3d908101601f1916820190925261019091810190610246565b60015b61019e57505f909192565b8093505f5f9054906101000a90046001600160a01b03166001600160a01b03166325be124e6040518163ffffffff1660e01b8152600401602060405180830381865afa92505050801561020e575060408051601f3d908101601f1916820190925261020b91810190610246565b60015b61021a575f9150610240565b9250826001600160a01b03821615158061023c57506001600160a01b03811615155b9250505b50909192565b5f60208284031215610256575f5ffd5b81516001600160a01b038116811461026c575f5ffd5b939250505056fea2646970667358221220ced80e6712fe3dffec4eb88e6beea8d8f59b153d07ed17797511559956b5288f64736f6c634300081c0033","linkReferences":{}},"methodIdentifiers":{"dexTwo()":"396b1600","getOwner()":"893d20e8","getTokenAddresses()":"ee8c24b8"},"id":5}