{"abi":[{"type":"constructor","inputs":[],"stateMutability":"nonpayable"},{"type":"function","name":"drain","inputs":[],"outputs":[],"stateMutability":"nonpayable"},{"type":"function","name":"takeUserTokens","inputs":[],"outputs":[],"stateMutability":"nonpayable"}],"bytecode":{"object":"0x61010060405273b7a5bd0345ef1cc5e66bf61bdec17d2461fbd96860805273eebe00ac0756308ac4aabfd76c05c4f3088b888360a05273f39fd6e51aad88f6f4ce6ab8827279cfffb9226660c05273a16e02e87b7454126e5e10d957a927a7f5b5d2be60e052348015610070575f5ffd5b5060e05160805160a051604051630df791e560e41b81526001600160a01b03928316600482015290821660248201525f604482015291169063df791e50906064015f604051808303815f87803b1580156100c8575f5ffd5b505af11580156100da573d5f5f3e3d5ffd5b5050505060805160a05160c05160e0516107ae61017f5f395f818161033d015281816103ed0152818161058401526106da01525f8181606101528181610115015281816101cd015261028101525f81816101f7015281816102b60152818161041501528181610555015281816105f3015261068301525f8181608b0152818161014a015281816103650152818161049d0152818161052d01526106ab01526107ae5ff3fe608060405234801561000f575f5ffd5b5060043610610034575f3560e01c8063197e658f146100385780639890220b14610042575b5f5ffd5b61004061004a565b005b610040610326565b6040516370a0823160e01b81526001600160a01b037f0000000000000000000000000000000000000000000000000000000000000000811660048301525f917f0000000000000000000000000000000000000000000000000000000000000000909116906370a0823190602401602060405180830381865afa1580156100d2573d5f5f3e3d5ffd5b505050506040513d601f19601f820116820180604052508101906100f6919061073b565b905080156101b6576040516323b872dd60e01b81526001600160a01b037f000000000000000000000000000000000000000000000000000000000000000081166004830152306024830152604482018390527f000000000000000000000000000000000000000000000000000000000000000016906323b872dd906064016020604051808303815f875af1158015610190573d5f5f3e3d5ffd5b505050506040513d601f19601f820116820180604052508101906101b49190610752565b505b6040516370a0823160e01b81526001600160a01b037f0000000000000000000000000000000000000000000000000000000000000000811660048301525f917f0000000000000000000000000000000000000000000000000000000000000000909116906370a0823190602401602060405180830381865afa15801561023e573d5f5f3e3d5ffd5b505050506040513d601f19601f82011682018060405250810190610262919061073b565b90508015610322576040516323b872dd60e01b81526001600160a01b037f000000000000000000000000000000000000000000000000000000000000000081166004830152306024830152604482018390527f000000000000000000000000000000000000000000000000000000000000000016906323b872dd906064016020604051808303815f875af11580156102fc573d5f5f3e3d5ffd5b505050506040513d601f19601f820116820180604052508101906103209190610752565b505b5050565b6040516370a0823160e01b81526001600160a01b037f0000000000000000000000000000000000000000000000000000000000000000811660048301527f000000000000000000000000000000000000000000000000000000000000000016906370a0823190602401602060405180830381865afa1580156103aa573d5f5f3e3d5ffd5b505050506040513d601f19601f820116820180604052508101906103ce919061073b565b15158061048157506040516370a0823160e01b81526001600160a01b037f0000000000000000000000000000000000000000000000000000000000000000811660048301527f000000000000000000000000000000000000000000000000000000000000000016906370a0823190602401602060405180830381865afa15801561045a573d5f5f3e3d5ffd5b505050506040513d601f19601f8201168201806040525081019061047e919061073b565b15155b15610739576040516370a0823160e01b81523060048201525f907f00000000000000000000000000000000000000000000000000000000000000006001600160a01b0316906370a0823190602401602060405180830381865afa1580156104ea573d5f5f3e3d5ffd5b505050506040513d601f19601f8201168201806040525081019061050e919061073b565b905080156105dc57604051630df791e560e41b81526001600160a01b037f0000000000000000000000000000000000000000000000000000000000000000811660048301527f000000000000000000000000000000000000000000000000000000000000000081166024830152604482018390527f0000000000000000000000000000000000000000000000000000000000000000169063df791e50906064015f604051808303815f87803b1580156105c5575f5ffd5b505af11580156105d7573d5f5f3e3d5ffd5b505050505b6040516370a0823160e01b81523060048201525f907f00000000000000000000000000000000000000000000000000000000000000006001600160a01b0316906370a0823190602401602060405180830381865afa158015610640573d5f5f3e3d5ffd5b505050506040513d601f19601f82011682018060405250810190610664919061073b565b9050801561073257604051630df791e560e41b81526001600160a01b037f0000000000000000000000000000000000000000000000000000000000000000811660048301527f000000000000000000000000000000000000000000000000000000000000000081166024830152604482018390527f0000000000000000000000000000000000000000000000000000000000000000169063df791e50906064015f604051808303815f87803b15801561071b575f5ffd5b505af115801561072d573d5f5f3e3d5ffd5b505050505b5050610326565b565b5f6020828403121561074b575f5ffd5b5051919050565b5f60208284031215610762575f5ffd5b81518015158114610771575f5ffd5b939250505056fea264697066735822122045327f8d992fa80a6d95d6a291fdb2e3a6db1c008809de977069ab43e2c27d4e64736f6c634300081c0033","linkReferences":{}},"methodIdentifiers":{"drain()":"9890220b","takeUserTokens()":"197e658f"},"id":0}