{"abi":[{"type":"constructor","inputs":[{"name":"_shopAddress","type":"address","internalType":"address"}],"stateMutability":"nonpayable"},{"type":"function","name":"attack","inputs":[],"outputs":[],"stateMutability":"nonpayable"},{"type":"function","name":"price","inputs":[],"outputs":[{"name":"","type":"uint256","internalType":"uint256"}],"stateMutability":"view"}],"bytecode":{"object":"0x6080604052348015600e575f5ffd5b50604051610187380380610187833981016040819052602b91604e565b5f80546001600160a01b0319166001600160a01b03929092169190911790556079565b5f60208284031215605d575f5ffd5b81516001600160a01b03811681146072575f5ffd5b9392505050565b610101806100865f395ff3fe6080604052348015600e575f5ffd5b50600436106030575f3560e01c80639e5faafc146034578063a035b1fe14603c575b5f5ffd5b603a6050565b005b60c860405190815260200160405180910390f35b5f8054604080517fa6f2ae3a000000000000000000000000000000000000000000000000000000008152905173ffffffffffffffffffffffffffffffffffffffff9092169263a6f2ae3a9260048084019382900301818387803b15801560b4575f5ffd5b505af115801560c5573d5f5f3e3d5ffd5b5050505056fea2646970667358221220b718d5c74ad48a5f2422ff14fe743820d61079ad1cb415e6b1268571f38338b664736f6c634300081c0033","linkReferences":{}},"methodIdentifiers":{"attack()":"9e5faafc","price()":"a035b1fe"},"id":0}