{"abi":[{"type":"function","name":"magicNumber","inputs":[],"outputs":[{"name":"","type":"uint256","internalType":"uint256"}],"stateMutability":"pure"}],"bytecode":{"object":"0x6080604052348015600e575f5ffd5b50607480601a5f395ff3fe6080604052348015600e575f5ffd5b50600436106026575f3560e01c806341837a2f14602a575b5f5ffd5b602a60405190815260200160405180910390f3fea2646970667358221220e0da6069780dcedbc2ce5ae1e7111cf5f5a38752a717ac711e740237ed1a5bde64736f6c634300081c0033","linkReferences":{}},"methodIdentifiers":{"magicNumber()":"41837a2f"},"id":0}