{"abi":[{"type":"constructor","inputs":[{"name":"_player","type":"address","internalType":"address"},{"name":"_forta","type":"address","internalType":"address"}],"stateMutability":"nonpayable"},{"type":"function","name":"forta","inputs":[],"outputs":[{"name":"","type":"address","internalType":"address"}],"stateMutability":"view"},{"type":"function","name":"handleTransaction","inputs":[{"name":"user","type":"address","internalType":"address"},{"name":"_msgData","type":"bytes","internalType":"bytes"}],"outputs":[],"stateMutability":"nonpayable"},{"type":"function","name":"player","inputs":[],"outputs":[{"name":"","type":"address","internalType":"address"}],"stateMutability":"view"},{"type":"function","name":"triggerRaiseAlert","inputs":[],"outputs":[],"stateMutability":"nonpayable"}],"bytecode":{"object":"0x60806040525f80546001600160a01b031990811673f39fd6e51aad88f6f4ce6ab8827279cfffb922661790915560018054909116735fbdb2315678afecb367f032d93f642f64180aa3179055348015610056575f5ffd5b50604051610327380380610327833981016040819052610075916100c0565b5f80546001600160a01b039384166001600160a01b031991821617909155600180549290931691161790556100f1565b80516001600160a01b03811681146100bb575f5ffd5b919050565b5f5f604083850312156100d1575f5ffd5b6100da836100a5565b91506100e8602084016100a5565b90509250929050565b610229806100fe5f395ff3fe608060405234801561000f575f5ffd5b506004361061004a575f3560e01c8063220ab6aa1461004e57806348db5f8914610063578063a3ebb28714610091578063d8670e1f14610099575b5f5ffd5b61006161005c366004610168565b6100ac565b005b5f54610075906001600160a01b031681565b6040516001600160a01b03909116815260200160405180910390f35b61006161010b565b600154610075906001600160a01b031681565b60015460405163087a43c160e01b81526001600160a01b0385811660048301529091169063087a43c1906024015f604051808303815f87803b1580156100f0575f5ffd5b505af1158015610102573d5f5f3e3d5ffd5b50505050505050565b6001545f5460405163087a43c160e01b81526001600160a01b03918216600482015291169063087a43c1906024015f604051808303815f87803b158015610150575f5ffd5b505af1158015610162573d5f5f3e3d5ffd5b50505050565b5f5f5f6040848603121561017a575f5ffd5b83356001600160a01b0381168114610190575f5ffd5b9250602084013567ffffffffffffffff8111156101ab575f5ffd5b8401601f810186136101bb575f5ffd5b803567ffffffffffffffff8111156101d1575f5ffd5b8660208284010111156101e2575f5ffd5b93966020919091019550929350505056fea26469706673582212207aebcc8e86ccc714bdbf05fb32fda3ebfc92cacfea34ac8d5077999d88835e5464736f6c634300081c0033","linkReferences":{}},"methodIdentifiers":{"forta()":"d8670e1f","handleTransaction(address,bytes)":"220ab6aa","player()":"48db5f89","triggerRaiseAlert()":"a3ebb287"},"id":0}