{"abi":[{"type":"constructor","inputs":[{"name":"_stakeContract","type":"address","internalType":"address payable"}],"stateMutability":"nonpayable"},{"type":"function","name":"attack","inputs":[],"outputs":[],"stateMutability":"nonpayable"},{"type":"function","name":"stakeContract","inputs":[],"outputs":[{"name":"","type":"address","internalType":"contract Stake"}],"stateMutability":"view"}],"bytecode":{"object":"0x6080604052348015600e575f5ffd5b506040516103b13803806103b1833981016040819052602b91604e565b5f80546001600160a01b0319166001600160a01b03929092169190911790556079565b5f60208284031215605d575f5ffd5b81516001600160a01b03811681146072575f5ffd5b9392505050565b61032b806100865f395ff3fe608060405234801561000f575f5ffd5b5060043610610034575f3560e01c80631a186227146100385780639e5faafc14610080575b5f5ffd5b5f546100579073ffffffffffffffffffffffffffffffffffffffff1681565b60405173ffffffffffffffffffffffffffffffffffffffff909116815260200160405180910390f35b61008861008a565b005b5f546040517f6e35c740000000000000000000000000000000000000000000000000000000008152670de0b6b3a7640000600482018190529173ffffffffffffffffffffffffffffffffffffffff1690636e35c740906024016020604051808303815f875af11580156100ff573d5f5f3e3d5ffd5b505050506040513d601f19601f8201168201806040525081019061012391906102b8565b6101745760405162461bcd60e51b815260206004820152601060248201527f5374616b6557455448206661696c65640000000000000000000000000000000060448201526064015b60405180910390fd5b5f546040517f7b23331900000000000000000000000000000000000000000000000000000000815230600482015273ffffffffffffffffffffffffffffffffffffffff9091169063f1f1db1e908290637b23331990602401602060405180830381865afa1580156101e7573d5f5f3e3d5ffd5b505050506040513d601f19601f8201168201806040525081019061020b91906102de565b6040518263ffffffff1660e01b815260040161022991815260200190565b6020604051808303815f875af1158015610245573d5f5f3e3d5ffd5b505050506040513d601f19601f8201168201806040525081019061026991906102b8565b6102b55760405162461bcd60e51b815260206004820152600e60248201527f556e7374616b65206661696c6564000000000000000000000000000000000000604482015260640161016b565b50565b5f602082840312156102c8575f5ffd5b815180151581146102d7575f5ffd5b9392505050565b5f602082840312156102ee575f5ffd5b505191905056fea264697066735822122079dbce9d83ee9458a4dbeb024ca85aadf7d82ba0ef37fa9c21edb10ca295ed5b64736f6c634300081c0033","linkReferences":{}},"methodIdentifiers":{"attack()":"9e5faafc","stakeContract()":"1a186227"},"id":0}