{"abi":[{"type":"fallback","stateMutability":"payable"},{"type":"function","name":"approveAdmin","inputs":[{"name":"puzzleProxy","type":"address","internalType":"address"}],"outputs":[],"stateMutability":"nonpayable"},{"type":"function","name":"multicall","inputs":[{"name":"data","type":"bytes[]","internalType":"bytes[]"}],"outputs":[],"stateMutability":"payable"},{"type":"function","name":"proposeAdmin","inputs":[{"name":"puzzleProxy","type":"address","internalType":"address"}],"outputs":[],"stateMutability":"nonpayable"}],"bytecode":{"object":"0x6080604052348015600e575f5ffd5b506104678061001c5f395ff3fe608060405260043610610033575f3560e01c8063147bf6c4146100355780636d73e66914610054578063ac9650d814610073575b005b348015610040575f5ffd5b5061003361004f3660046102d4565b610086565b34801561005f575f5ffd5b5061003361006e3660046102d4565b610153565b61003361008136600461030e565b6101dc565b6040513360248201525f9073ffffffffffffffffffffffffffffffffffffffff83169060440160408051601f198184030181529181526020820180517bffffffffffffffffffffffffffffffffffffffffffffffffffffffff167fa6376746000000000000000000000000000000000000000000000000000000001790525161010f919061037f565b5f60405180830381855af49150503d805f8114610147576040519150601f19603f3d011682016040523d82523d5f602084013e61014c565b606091505b5050505050565b6040513360248201525f9073ffffffffffffffffffffffffffffffffffffffff83169060440160408051601f198184030181529181526020820180517bffffffffffffffffffffffffffffffffffffffffffffffffffffffff167fa02fcc0a000000000000000000000000000000000000000000000000000000001790525161010f919061037f565b5f5b818110156102cf575f308484848181106101fa576101fa6103ab565b905060200281019061020c91906103d8565b60405161021a929190610422565b5f60405180830381855af49150503d805f8114610252576040519150601f19603f3d011682016040523d82523d5f602084013e610257565b606091505b50509050806102c6576040517f08c379a000000000000000000000000000000000000000000000000000000000815260206004820152601760248201527f4572726f7220776974682064656c656761746563616c6c000000000000000000604482015260640160405180910390fd5b506001016101de565b505050565b5f602082840312156102e4575f5ffd5b813573ffffffffffffffffffffffffffffffffffffffff81168114610307575f5ffd5b9392505050565b5f5f6020838503121561031f575f5ffd5b823567ffffffffffffffff811115610335575f5ffd5b8301601f81018513610345575f5ffd5b803567ffffffffffffffff81111561035b575f5ffd5b8560208260051b840101111561036f575f5ffd5b6020919091019590945092505050565b5f82515f5b8181101561039e5760208186018101518583015201610384565b505f920191825250919050565b7f4e487b71000000000000000000000000000000000000000000000000000000005f52603260045260245ffd5b5f5f8335601e198436030181126103ed575f5ffd5b83018035915067ffffffffffffffff821115610407575f5ffd5b60200191503681900382131561041b575f5ffd5b9250929050565b818382375f910190815291905056fea26469706673582212203e5914268f24779948e058d96984ea49d912ce3a875f9555165c6e955a1f6a6d64736f6c634300081c0033","linkReferences":{}},"methodIdentifiers":{"approveAdmin(address)":"6d73e669","multicall(bytes[])":"ac9650d8","proposeAdmin(address)":"147bf6c4"},"id":0}