{"abi":[{"type":"function","name":"attack","inputs":[],"outputs":[],"stateMutability":"nonpayable"},{"type":"function","name":"recoveryInstance","inputs":[],"outputs":[{"name":"","type":"address","internalType":"address"}],"stateMutability":"view"}],"bytecode":{"object":"0x60806040525f80546001600160a01b03191673a16e02e87b7454126e5e10d957a927a7f5b5d2be1790553480156033575f5ffd5b50610268806100415f395ff3fe608060405234801561000f575f5ffd5b5060043610610034575f3560e01c80639e5faafc14610038578063f775b28614610042575b5f5ffd5b61004061008a565b005b5f546100619073ffffffffffffffffffffffffffffffffffffffff1681565b60405173ffffffffffffffffffffffffffffffffffffffff909116815260200160405180910390f35b5f805460405160609190911b6bffffffffffffffffffffffff191660208201526001603482015260540160408051601f1981840301815290829052805160209091012033602483015291505f9073ffffffffffffffffffffffffffffffffffffffff83169060440160408051601f198184030181529181526020820180517bffffffffffffffffffffffffffffffffffffffffffffffffffffffff167fb421888e00000000000000000000000000000000000000000000000000000000179052516101559190610206565b5f604051808303815f865af19150503d805f811461018e576040519150601f19603f3d011682016040523d82523d5f602084013e610193565b606091505b5050905080610202576040517f08c379a000000000000000000000000000000000000000000000000000000000815260206004820152600e60248201527f44657374726f79206661696c6564000000000000000000000000000000000000604482015260640160405180910390fd5b5050565b5f82515f5b81811015610225576020818601810151858301520161020b565b505f92019182525091905056fea2646970667358221220157d98db90e41e56fc5dd756f9b74e53c7dc139696b1741f1a8d0b255ebd864864736f6c634300081c0033","linkReferences":{}},"methodIdentifiers":{"attack()":"9e5faafc","recoveryInstance()":"f775b286"},"id":0}