{"abi":[{"type":"function","name":"attack","inputs":[{"name":"victim","type":"address","internalType":"address"},{"name":"attacker","type":"address","internalType":"address"}],"outputs":[],"stateMutability":"nonpayable"}],"bytecode":{"object":"0x6080604052348015600e575f5ffd5b506101ac8061001c5f395ff3fe608060405234801561000f575f5ffd5b5060043610610029575f3560e01c80633c48664c1461002d575b5f5ffd5b61004061003b36600461011f565b610042565b005b6040517fa9059cbb00000000000000000000000000000000000000000000000000000000815273ffffffffffffffffffffffffffffffffffffffff83166004820152683635c9adc5dea00000602482015273a16e02e87b7454126e5e10d957a927a7f5b5d2be9063a9059cbb906044016020604051808303815f875af11580156100ce573d5f5f3e3d5ffd5b505050506040513d601f19601f820116820180604052508101906100f29190610150565b505050565b803573ffffffffffffffffffffffffffffffffffffffff8116811461011a575f5ffd5b919050565b5f5f60408385031215610130575f5ffd5b610139836100f7565b9150610147602084016100f7565b90509250929050565b5f60208284031215610160575f5ffd5b8151801515811461016f575f5ffd5b939250505056fea264697066735822122019e3657e075b7b947a4172431db67ecf39e3e85517c031d3c3d11bf0aa6efba664736f6c634300081c0033","linkReferences":{}},"methodIdentifiers":{"attack(address,address)":"3c48664c"},"id":0}