{"abi":[{"type":"function","name":"IMPERSONATOR","inputs":[],"outputs":[{"name":"","type":"address","internalType":"address"}],"stateMutability":"view"},{"type":"function","name":"attack","inputs":[],"outputs":[],"stateMutability":"nonpayable"},{"type":"function","name":"checkOwner","inputs":[],"outputs":[{"name":"","type":"address","internalType":"address"}],"stateMutability":"view"}],"bytecode":{"object":"0x6080604052348015600e575f5ffd5b5061020a8061001c5f395ff3fe608060405234801561000f575f5ffd5b506004361061003f575f3560e01c80639e5faafc14610043578063cdbce03d1461004d578063d210b0091461007e575b5f5ffd5b61004b610099565b005b610055610113565b60405173ffffffffffffffffffffffffffffffffffffffff909116815260200160405180910390f35b61005573a16e02e87b7454126e5e10d957a927a7f5b5d2be81565b6040517ff2fde38b00000000000000000000000000000000000000000000000000000000815233600482015273a16e02e87b7454126e5e10d957a927a7f5b5d2be9063f2fde38b906024015f604051808303815f87803b1580156100fb575f5ffd5b505af115801561010d573d5f5f3e3d5ffd5b50505050565b5f73a16e02e87b7454126e5e10d957a927a7f5b5d2be73ffffffffffffffffffffffffffffffffffffffff16638da5cb5b6040518163ffffffff1660e01b8152600401602060405180830381865afa158015610171573d5f5f3e3d5ffd5b505050506040513d601f19601f82011682018060405250810190610195919061019a565b905090565b5f602082840312156101aa575f5ffd5b815173ffffffffffffffffffffffffffffffffffffffff811681146101cd575f5ffd5b939250505056fea26469706673582212207a10e1ff87bac12a1ac4c8d3fae33cab807c375858d1c3996a7cf62fe9baf54d64736f6c634300081c0033","linkReferences":{}},"methodIdentifiers":{"IMPERSONATOR()":"d210b009","attack()":"9e5faafc","checkOwner()":"cdbce03d"},"id":0}