{"abi":[{"type":"function","name":"getEncodedData","inputs":[],"outputs":[{"name":"","type":"bytes[]","internalType":"bytes[]"}],"stateMutability":"pure"}],"bytecode":{"object":"0x6080604052348015600e575f5ffd5b506102c78061001c5f395ff3fe608060405234801561000f575f5ffd5b5060043610610029575f3560e01c8063acab1aca1461002d575b5f5ffd5b61003561004b565b60405161004291906101cb565b60405180910390f35b6040805160048152602481018252602080820180517bffffffffffffffffffffffffffffffffffffffffffffffffffffffff167fd0e30db000000000000000000000000000000000000000000000000000000000179052825160018082528185019094526060935f9282015b60608152602001906001900390816100b757905050905081815f815181106100e1576100e1610264565b60200260200101819052505f816040516024016100fe91906101cb565b60408051601f19818403018152918152602080830180517bffffffffffffffffffffffffffffffffffffffffffffffffffffffff167fac9650d80000000000000000000000000000000000000000000000000000000017905281516002808252606082019093529293505f92919082015b606081526020019060019003908161016f57905050905083815f8151811061019957610199610264565b602002602001018190525081816001815181106101b8576101b8610264565b6020908102919091010152949350505050565b5f602082016020835280845180835260408501915060408160051b8601019250602086015f5b8281101561025857868503603f19018452815180518087525f5b818110156102275760208184018101518983018201520161020b565b505f602082890101526020601f19601f830116880101965050506020820191506020840193506001810190506101f1565b50929695505050505050565b7f4e487b71000000000000000000000000000000000000000000000000000000005f52603260045260245ffdfea264697066735822122096bb4e83c945537e66cbcd008ae22e409c967d51146229534413ceb8a1b31aae64736f6c634300081c0033","linkReferences":{}},"methodIdentifiers":{"getEncodedData()":"acab1aca"},"id":0}