{"abi":[{"type":"fallback","stateMutability":"payable"},{"type":"function","name":"DEX_TWO","inputs":[],"outputs":[{"name":"","type":"address","internalType":"address"}],"stateMutability":"view"},{"type":"function","name":"TOKEN1","inputs":[],"outputs":[{"name":"","type":"address","internalType":"address"}],"stateMutability":"view"},{"type":"function","name":"TOKEN2","inputs":[],"outputs":[{"name":"","type":"address","internalType":"address"}],"stateMutability":"view"},{"type":"function","name":"startHack","inputs":[],"outputs":[],"stateMutability":"nonpayable"},{"type":"function","name":"swapTokens","inputs":[],"outputs":[],"stateMutability":"nonpayable"}],"bytecode":{"object":"0x60e060405273a16e02e87b7454126e5e10d957a927a7f5b5d2be60805273b7a5bd0345ef1cc5e66bf61bdec17d2461fbd96860a05273eebe00ac0756308ac4aabfd76c05c4f3088b888360c052348015610057575f5ffd5b5060805160a05160c05161083d6100e25f395f818161011e015281816102c401528181610410015281816104cf015261054701525f8181608801528181610157015281816102240152818161029c0152818161056f01526106f101525f818160eb015281816101f5015281816102f5015281816104a00152818161059e01526106bb015261083d5ff3fe608060405260043610610059575f3560e01c806373d002241161004257806373d00224146100c65780638d33b929146100da578063e795ed471461010d57610059565b806355c39aa1146100635780635ee04d7814610077575b610061610140565b005b34801561006e575f5ffd5b506100616106a4565b348015610082575f5ffd5b506100aa7f000000000000000000000000000000000000000000000000000000000000000081565b6040516001600160a01b03909116815260200160405180910390f35b3480156100d1575f5ffd5b50610061610140565b3480156100e5575f5ffd5b506100aa7f000000000000000000000000000000000000000000000000000000000000000081565b348015610118575f5ffd5b506100aa7f000000000000000000000000000000000000000000000000000000000000000081565b6040516370a0823160e01b81523360048201525f907f00000000000000000000000000000000000000000000000000000000000000006001600160a01b0316906370a0823190602401602060405180830381865afa1580156101a4573d5f5f3e3d5ffd5b505050506040513d601f19601f820116820180604052508101906101c89190610766565b90505f6101d660648361077d565b905080156106a05760405163095ea7b360e01b81526001600160a01b037f000000000000000000000000000000000000000000000000000000000000000081166004830152602482018390527f0000000000000000000000000000000000000000000000000000000000000000169063095ea7b3906044016020604051808303815f875af115801561026a573d5f5f3e3d5ffd5b505050506040513d601f19601f8201168201806040525081019061028e91906107b5565b506040516001600160a01b037f0000000000000000000000000000000000000000000000000000000000000000811660248301527f000000000000000000000000000000000000000000000000000000000000000081166044830152606482018390525f917f00000000000000000000000000000000000000000000000000000000000000009091169060840160408051601f198184030181529181526020820180517bffffffffffffffffffffffffffffffffffffffffffffffffffffffff16630df791e560e41b1790525161036591906107db565b5f604051808303815f865af19150503d805f811461039e576040519150601f19603f3d011682016040523d82523d5f602084013e6103a3565b606091505b50509050806103f95760405162461bcd60e51b815260206004820152600c60248201527f7377617031206661696c6564000000000000000000000000000000000000000060448201526064015b60405180910390fd5b6040516370a0823160e01b81523360048201525f907f00000000000000000000000000000000000000000000000000000000000000006001600160a01b0316906370a0823190602401602060405180830381865afa15801561045d573d5f5f3e3d5ffd5b505050506040513d601f19601f820116820180604052508101906104819190610766565b9050801561069d5760405163095ea7b360e01b81526001600160a01b037f000000000000000000000000000000000000000000000000000000000000000081166004830152602482018390527f0000000000000000000000000000000000000000000000000000000000000000169063095ea7b3906044016020604051808303815f875af1158015610515573d5f5f3e3d5ffd5b505050506040513d601f19601f8201168201806040525081019061053991906107b5565b506040516001600160a01b037f0000000000000000000000000000000000000000000000000000000000000000811660248301527f000000000000000000000000000000000000000000000000000000000000000081166044830152606482018390527f0000000000000000000000000000000000000000000000000000000000000000169060840160408051601f198184030181529181526020820180517bffffffffffffffffffffffffffffffffffffffffffffffffffffffff16630df791e560e41b1790525161060c91906107db565b5f604051808303815f865af19150503d805f8114610645576040519150601f19603f3d011682016040523d82523d5f602084013e61064a565b606091505b5050809250508161069d5760405162461bcd60e51b815260206004820152600c60248201527f7377617032206661696c6564000000000000000000000000000000000000000060448201526064016103f0565b50505b5050565b60405163095ea7b360e01b81526001600160a01b037f000000000000000000000000000000000000000000000000000000000000000081166004830152670de0b6b3a764000060248301527f0000000000000000000000000000000000000000000000000000000000000000169063095ea7b3906044016020604051808303815f875af1158015610737573d5f5f3e3d5ffd5b505050506040513d601f19601f8201168201806040525081019061075b91906107b5565b50610764610140565b565b5f60208284031215610776575f5ffd5b5051919050565b5f826107b0577f4e487b71000000000000000000000000000000000000000000000000000000005f52601260045260245ffd5b500490565b5f602082840312156107c5575f5ffd5b815180151581146107d4575f5ffd5b9392505050565b5f82515f5b818110156107fa57602081860181015185830152016107e0565b505f92019182525091905056fea26469706673582212204f303a0491a48070c24252871f985471ff7c2beeb90edbc2453bbeead7e796f064736f6c634300081c0033","linkReferences":{}},"methodIdentifiers":{"DEX_TWO()":"8d33b929","TOKEN1()":"5ee04d78","TOKEN2()":"e795ed47","startHack()":"55c39aa1","swapTokens()":"73d00224"},"id":0}