{"abi":[{"type":"function","name":"execute","inputs":[],"outputs":[],"stateMutability":"nonpayable"}],"bytecode":{"object":"0x6080604052348015600e575f5ffd5b50606780601a5f395ff3fe6080604052348015600e575f5ffd5b50600436106026575f3560e01c80636146195414602a575b5f5ffd5b602f33ff5b00fea2646970667358221220bc2be9cc60bd6ae286588fc6e1ac7010b9e695c6e4dff66dbd10033b10fa1ca164736f6c634300081c0033","linkReferences":{}},"methodIdentifiers":{"execute()":"61461954"},"id":0}