{"abi":[{"type":"constructor","inputs":[{"name":"_puzzleWallet","type":"address","internalType":"address"}],"stateMutability":"nonpayable"},{"type":"function","name":"whitelistAndDrain","inputs":[],"outputs":[],"stateMutability":"nonpayable"}],"bytecode":{"object":"0x60a0604052348015600e575f5ffd5b506040516106b33803806106b3833981016040819052602b91603b565b6001600160a01b03166080526066565b5f60208284031215604a575f5ffd5b81516001600160a01b0381168114605f575f5ffd5b9392505050565b60805161062861008b5f395f8181607b01528181610360015261039f01526106285ff3fe608060405234801561000f575f5ffd5b5060043610610029575f3560e01c8063763981521461002d575b5f5ffd5b610035610037565b005b6040517fe43252d700000000000000000000000000000000000000000000000000000000815230600482015273f39fd6e51aad88f6f4ce6ab8827279cfffb92266907f000000000000000000000000000000000000000000000000000000000000000073ffffffffffffffffffffffffffffffffffffffff169063e43252d7906024015f604051808303815f87803b1580156100d1575f5ffd5b505af11580156100e3573d5f5f3e3d5ffd5b505f9250600491506100f29050565b60405190808252806020026020018201604052801561012557816020015b60608152602001906001900390816101105790505b50604080515f8152602081019091529091507fd0e30db00000000000000000000000000000000000000000000000000000000090610166906044810161052e565b604051602081830303815290604052906001600160e01b0319166020820180516001600160e01b038381831617835250505050815f815181106101ab576101ab610547565b602090810291909101015260405173ffffffffffffffffffffffffffffffffffffffff831660248201525f604482018190526060606483015260848201527fb61d27f6000000000000000000000000000000000000000000000000000000009060a401604051602081830303815290604052906001600160e01b0319166020820180516001600160e01b0383818316178352505050508160018151811061025457610254610547565b60209081029190910101526040515f60248201527f9d51d9b70000000000000000000000000000000000000000000000000000000090604401604051602081830303815290604052906001600160e01b0319166020820180516001600160e01b038381831617835250505050816002815181106102d3576102d3610547565b60209081029190910101526040515f60248201527fb7b0422d0000000000000000000000000000000000000000000000000000000090604401604051602081830303815290604052906001600160e01b0319166020820180516001600160e01b0383818316178352505050508160038151811061035257610352610547565b60200260200101819052505f7f000000000000000000000000000000000000000000000000000000000000000073ffffffffffffffffffffffffffffffffffffffff1666038d7ea4c680007f00000000000000000000000000000000000000000000000000000000000000005063ac9650d860e01b846040516024016103d89190610574565b60408051601f198184030181529181526020820180516001600160e01b03167fffffffff0000000000000000000000000000000000000000000000000000000090941693909317909252905161042e91906105d7565b5f6040518083038185875af1925050503d805f8114610468576040519150601f19603f3d011682016040523d82523d5f602084013e61046d565b606091505b50509050806104dc576040517f08c379a000000000000000000000000000000000000000000000000000000000815260206004820152600d60248201527f41747461636b206661696c656400000000000000000000000000000000000000604482015260640160405180910390fd5b505050565b5f5b838110156104fb5781810151838201526020016104e3565b50505f910152565b5f815180845261051a8160208601602086016104e1565b601f01601f19169290920160200192915050565b602081525f6105406020830184610503565b9392505050565b7f4e487b71000000000000000000000000000000000000000000000000000000005f52603260045260245ffd5b5f602082016020835280845180835260408501915060408160051b8601019250602086015f5b828110156105cb57603f198786030184526105b6858351610503565b9450602093840193919091019060010161059a565b50929695505050505050565b5f82516105e88184602087016104e1565b919091019291505056fea26469706673582212208a0d9f4ff2fc13c095492bfd5fcd4e19696e5dfa866d817f1d87c96b3c9e896464736f6c634300081c0033","linkReferences":{}},"methodIdentifiers":{"whitelistAndDrain()":"76398152"},"id":0}