{"abi":[{"type":"function","name":"callFunction","inputs":[{"name":"target","type":"address","internalType":"address"},{"name":"signature","type":"string","internalType":"string"}],"outputs":[{"name":"success","type":"bool","internalType":"bool"},{"name":"data","type":"bytes","internalType":"bytes"}],"stateMutability":"view"},{"type":"function","name":"checkFactory","inputs":[{"name":"factory","type":"address","internalType":"address"}],"outputs":[{"name":"","type":"bytes","internalType":"bytes"}],"stateMutability":"view"}],"bytecode":{"object":"0x6080604052348015600e575f5ffd5b5061044d8061001c5f395ff3fe608060405234801561000f575f5ffd5b5060043610610034575f3560e01c806398c4e97214610038578063ae1e00ee14610061575b5f5ffd5b61004b61004636600461026a565b610082565b60405161005891906102d7565b60405180910390f35b61007461006f366004610316565b61015d565b6040516100589291906103da565b60405133602482015273ffffffffffffffffffffffffffffffffffffffff8216604482018190526060915f91829160640160408051601f198184030181529181526020820180517bffffffffffffffffffffffffffffffffffffffffffffffffffffffff167fd38def5b000000000000000000000000000000000000000000000000000000001790525161011691906103fc565b5f60405180830381855afa9150503d805f811461014e576040519150601f19603f3d011682016040523d82523d5f602084013e610153565b606091505b5095945050505050565b604080516004815260248101918290525f9160609173ffffffffffffffffffffffffffffffffffffffff8616916101959086906103fc565b60408051918290039091206020830180517bffffffffffffffffffffffffffffffffffffffffffffffffffffffff167fffffffff00000000000000000000000000000000000000000000000000000000909216919091179052516101f991906103fc565b5f60405180830381855afa9150503d805f8114610231576040519150601f19603f3d011682016040523d82523d5f602084013e610236565b606091505b50909590945092505050565b803573ffffffffffffffffffffffffffffffffffffffff81168114610265575f5ffd5b919050565b5f6020828403121561027a575f5ffd5b61028382610242565b9392505050565b5f5b838110156102a457818101518382015260200161028c565b50505f910152565b5f81518084526102c381602086016020860161028a565b601f01601f19169290920160200192915050565b602081525f61028360208301846102ac565b7f4e487b71000000000000000000000000000000000000000000000000000000005f52604160045260245ffd5b5f5f60408385031215610327575f5ffd5b61033083610242565b9150602083013567ffffffffffffffff81111561034b575f5ffd5b8301601f8101851361035b575f5ffd5b803567ffffffffffffffff811115610375576103756102e9565b604051601f8201601f19908116603f0116810167ffffffffffffffff811182821017156103a4576103a46102e9565b6040528181528282016020018710156103bb575f5ffd5b816020840160208301375f602083830101528093505050509250929050565b8215158152604060208201525f6103f460408301846102ac565b949350505050565b5f825161040d81846020870161028a565b919091019291505056fea2646970667358221220fa96c53cb634c37eda884491dddb536d72d1dddc9fb9eb496ba4a9c63895455064736f6c634300081c0033","linkReferences":{}},"methodIdentifiers":{"callFunction(address,string)":"ae1e00ee","checkFactory(address)":"98c4e972"},"id":0}