{"abi":[{"type":"function","name":"getFirstLocker","inputs":[],"outputs":[{"name":"","type":"address","internalType":"address"}],"stateMutability":"view"}],"bytecode":{"object":"0x6080604052348015600e575f5ffd5b506101608061001c5f395ff3fe608060405234801561000f575f5ffd5b5060043610610029575f3560e01c8063687333a01461002d575b5f5ffd5b61003561005e565b60405173ffffffffffffffffffffffffffffffffffffffff909116815260200160405180910390f35b6040517f809aab920000000000000000000000000000000000000000000000000000000081525f600482018190529073a16e02e87b7454126e5e10d957a927a7f5b5d2be9063809aab9290602401602060405180830381865afa1580156100c7573d5f5f3e3d5ffd5b505050506040513d601f19601f820116820180604052508101906100eb91906100f0565b905090565b5f60208284031215610100575f5ffd5b815173ffffffffffffffffffffffffffffffffffffffff81168114610123575f5ffd5b939250505056fea2646970667358221220cffcbc83b5b7ada80ff037ae065bd259bdf8145e02d7b5de5bc9b0a3775728a464736f6c634300081c0033","linkReferences":{}},"methodIdentifiers":{"getFirstLocker()":"687333a0"},"id":0}