{"abi":[{"type":"function","name":"owner","inputs":[],"outputs":[{"name":"","type":"address","internalType":"address"}],"stateMutability":"view"},{"type":"function","name":"setTime","inputs":[{"name":"_time","type":"uint256","internalType":"uint256"}],"outputs":[],"stateMutability":"nonpayable"},{"type":"function","name":"timeZone1Library","inputs":[],"outputs":[{"name":"","type":"address","internalType":"address"}],"stateMutability":"view"},{"type":"function","name":"timeZone2Library","inputs":[],"outputs":[{"name":"","type":"address","internalType":"address"}],"stateMutability":"view"}],"bytecode":{"object":"0x6080604052348015600e575f5ffd5b506101608061001c5f395ff3fe608060405234801561000f575f5ffd5b506004361061004a575f3560e01c806327d6974f1461004e5780633beb26c4146100975780633dc79422146100d45780638da5cb5b146100f3575b5f5ffd5b60015461006e9073ffffffffffffffffffffffffffffffffffffffff1681565b60405173ffffffffffffffffffffffffffffffffffffffff909116815260200160405180910390f35b6100d26100a5366004610113565b50600280547fffffffffffffffffffffffff00000000000000000000000000000000000000001633179055565b005b5f5461006e9073ffffffffffffffffffffffffffffffffffffffff1681565b60025461006e9073ffffffffffffffffffffffffffffffffffffffff1681565b5f60208284031215610123575f5ffd5b503591905056fea26469706673582212209cea8da9b003138a300369e85635a854a6985e297fb37fac94abdbd61f23a95064736f6c634300081c0033","linkReferences":{}},"methodIdentifiers":{"owner()":"8da5cb5b","setTime(uint256)":"3beb26c4","timeZone1Library()":"3dc79422","timeZone2Library()":"27d6974f"},"id":0}