{"abi":[{"type":"function","name":"whatIsTheMeaningOfLife","inputs":[],"outputs":[{"name":"","type":"uint256","internalType":"uint256"}],"stateMutability":"pure"}],"bytecode":{"object":"0x6080604052348015600e575f5ffd5b50607480601a5f395ff3fe6080604052348015600e575f5ffd5b50600436106026575f3560e01c8063650500c114602a575b5f5ffd5b602a60405190815260200160405180910390f3fea2646970667358221220e78e8298cb55f25fe49fa4aeca375ce33f4b5fc2f4ff81468c575edc520a739164736f6c634300081c0033","linkReferences":{}},"methodIdentifiers":{"whatIsTheMeaningOfLife()":"650500c1"},"id":0}