{"abi":[{"type":"constructor","inputs":[{"name":"_target","type":"address","internalType":"contract Fallback"}],"stateMutability":"nonpayable"},{"type":"function","name":"contribute","inputs":[],"outputs":[],"stateMutability":"payable"},{"type":"function","name":"getOwner","inputs":[],"outputs":[{"name":"","type":"address","internalType":"address"}],"stateMutability":"view"},{"type":"function","name":"target","inputs":[],"outputs":[{"name":"","type":"address","internalType":"contract Fallback"}],"stateMutability":"view"},{"type":"function","name":"triggerReceive","inputs":[],"outputs":[],"stateMutability":"payable"}],"bytecode":{"object":"0x6080604052348015600e575f5ffd5b5060405161033d38038061033d833981016040819052602b91604e565b5f80546001600160a01b0319166001600160a01b03929092169190911790556079565b5f60208284031215605d575f5ffd5b81516001600160a01b03811681146072575f5ffd5b9392505050565b6102b7806100865f395ff3fe60806040526004361061003e575f3560e01c8063893d20e814610042578063d4b8399214610072578063d7bb99ba14610090578063e70aa5bb1461009a575b5f5ffd5b34801561004d575f5ffd5b506100566100a2565b6040516001600160a01b03909116815260200160405180910390f35b34801561007d575f5ffd5b505f54610056906001600160a01b031681565b61009861011b565b005b610098610191565b5f5f5f9054906101000a90046001600160a01b03166001600160a01b0316638da5cb5b6040518163ffffffff1660e01b8152600401602060405180830381865afa1580156100f2573d5f5f3e3d5ffd5b505050506040513d601f19601f820116820180604052508101906101169190610254565b905090565b5f8054604080517fd7bb99ba00000000000000000000000000000000000000000000000000000000815290516001600160a01b039092169263d7bb99ba92600192600480820193929182900301818588803b158015610178575f5ffd5b505af115801561018a573d5f5f3e3d5ffd5b5050505050565b5f34116101fe576040517f08c379a000000000000000000000000000000000000000000000000000000000815260206004820152601560248201527f4e65656420746f2073656e6420736f6d65204554480000000000000000000000604482015260640160405180910390fd5b5f80546040516001600160a01b03909116906001908381818185875af1925050503d805f8114610249576040519150601f19603f3d011682016040523d82523d5f602084013e61024e565b606091505b50505050565b5f60208284031215610264575f5ffd5b81516001600160a01b038116811461027a575f5ffd5b939250505056fea26469706673582212209f90c9e596d434266f9842dc6e6ebb1caa3dade97f76c00a5c5e2635aaf9935764736f6c634300081c0033","linkReferences":{}},"methodIdentifiers":{"contribute()":"d7bb99ba","getOwner()":"893d20e8","target()":"d4b83992","triggerReceive()":"e70aa5bb"},"id":0}