{"abi":[{"type":"function","name":"horsePower","inputs":[],"outputs":[{"name":"","type":"uint256","internalType":"uint256"}],"stateMutability":"view"},{"type":"function","name":"initialize","inputs":[],"outputs":[],"stateMutability":"nonpayable"},{"type":"function","name":"setZeroHorsePower","inputs":[],"outputs":[],"stateMutability":"nonpayable"},{"type":"function","name":"upgradeToAndCall","inputs":[{"name":"newImplementation","type":"address","internalType":"address"},{"name":"data","type":"bytes","internalType":"bytes"}],"outputs":[],"stateMutability":"payable"},{"type":"function","name":"upgrader","inputs":[],"outputs":[{"name":"","type":"address","internalType":"address"}],"stateMutability":"view"}],"bytecode":{"object":"0x608060405234801561001057600080fd5b506104c9806100206000396000f3fe60806040526004361061005a5760003560e01c8063564f6d7111610043578063564f6d711461012c5780638129fc1c14610153578063af269745146101685761005a565b80634f1ef2861461005f578063551b2a6014610117575b600080fd5b6101156004803603604081101561007557600080fd5b6001600160a01b0382351691908101906040810160208201356401000000008111156100a057600080fd5b8201836020820111156100b257600080fd5b803590602001918460018302840111640100000000831117156100d457600080fd5b91908080601f016020809104026020016040519081016040528093929190818152602001838380828437600092019190915250929550610199945050505050565b005b34801561012357600080fd5b506101156101af565b34801561013857600080fd5b506101416101b6565b60408051918252519081900360200190f35b34801561015f57600080fd5b506101156101bc565b34801561017457600080fd5b5061017d61025e565b604080516001600160a01b039092168252519081900360200190f35b6101a1610273565b6101ab82826102da565b5050565b6000600155565b60015481565b600054610100900460ff16806101d557506101d56103e6565b806101e3575060005460ff16155b61021e5760405162461bcd60e51b815260040180806020018281038252602e815260200180610442602e913960400191505060405180910390fd5b600054610100900460ff16158015610249576000805460ff1961ff0019909116610100171660011790555b801561025b576000805461ff00191690555b50565b6000546201000090046001600160a01b031681565b6000546201000090046001600160a01b031633146102d8576040805162461bcd60e51b815260206004820152600d60248201527f43616e2774207570677261646500000000000000000000000000000000000000604482015290519081900360640190fd5b565b6102e3826103f7565b8051156101ab576000826001600160a01b0316826040518082805190602001908083835b602083106103265780518252601f199092019160209182019101610307565b6001836020036101000a038019825116818451168082178552505050505050905001915050600060405180830381855af49150503d8060008114610386576040519150601f19603f3d011682016040523d82523d6000602084013e61038b565b606091505b50509050806103e1576040805162461bcd60e51b815260206004820152600b60248201527f43616c6c206661696c6564000000000000000000000000000000000000000000604482015290519081900360640190fd5b505050565b60006103f13061043b565b15905090565b6104008161043b565b61025b5760405162461bcd60e51b81526004018080602001828103825260248152602001806104706024913960400191505060405180910390fd5b3b15159056fe496e697469616c697a61626c653a20636f6e747261637420697320616c726561647920696e697469616c697a65644e657720696d706c656d656e746174696f6e206973206e6f74206120636f6e7472616374a26469706673582212204ffd460d11d53ce8b1aa2236f4590cd940c690511cd58a14fb8bc90ed1c3fa5e64736f6c634300060c0033","linkReferences":{}},"methodIdentifiers":{"horsePower()":"564f6d71","initialize()":"8129fc1c","setZeroHorsePower()":"551b2a60","upgradeToAndCall(address,bytes)":"4f1ef286","upgrader()":"af269745"},"id":2}