{"abi":[{"type":"function","name":"RECOVERY","inputs":[],"outputs":[{"name":"","type":"address","internalType":"address"}],"stateMutability":"view"},{"type":"function","name":"getSimpleTokenAddress","inputs":[],"outputs":[{"name":"","type":"address","internalType":"address"}],"stateMutability":"pure"},{"type":"function","name":"triggerSelfDestruct","inputs":[],"outputs":[],"stateMutability":"nonpayable"}],"bytecode":{"object":"0x6080604052348015600e575f5ffd5b506101fc8061001c5f395ff3fe608060405234801561000f575f5ffd5b506004361061003f575f3560e01c80631b3d34bc1461004357806378ed5d811461004d57806391b286d514610091575b5f5ffd5b61004b6100ec565b005b61006873a16e02e87b7454126e5e10d957a927a7f5b5d2be81565b60405173ffffffffffffffffffffffffffffffffffffffff909116815260200160405180910390f35b6100686040517fa16e02e87b7454126e5e10d957a927a7f5b5d2be0000000000000000000000006020820152600160348201525f90819060540160408051601f19818403018152919052805160209091012060601c92915050565b5f6101486040517fa16e02e87b7454126e5e10d957a927a7f5b5d2be0000000000000000000000006020820152600160348201525f90819060540160408051601f19818403018152919052805160209091012060601c92915050565b6040517ef55d9d00000000000000000000000000000000000000000000000000000000815233600482015290915073ffffffffffffffffffffffffffffffffffffffff82169062f55d9d906024015f604051808303815f87803b1580156101ad575f5ffd5b505af11580156101bf573d5f5f3e3d5ffd5b505050505056fea2646970667358221220eeeec1292d423ef6fb3cfbcfc49659e7e820dec21ef691deb3e8efd3993e759e64736f6c634300081c0033","linkReferences":{}},"methodIdentifiers":{"RECOVERY()":"78ed5d81","getSimpleTokenAddress()":"91b286d5","triggerSelfDestruct()":"1b3d34bc"},"id":0}