{"abi":[{"type":"constructor","inputs":[{"name":"_instance","type":"address","internalType":"address"}],"stateMutability":"nonpayable"},{"type":"function","name":"attack","inputs":[],"outputs":[],"stateMutability":"nonpayable"},{"type":"function","name":"instance","inputs":[],"outputs":[{"name":"","type":"address","internalType":"address"}],"stateMutability":"view"}],"bytecode":{"object":"0x6080604052348015600e575f5ffd5b50604051610247380380610247833981016040819052602b91604e565b5f80546001600160a01b0319166001600160a01b03929092169190911790556079565b5f60208284031215605d575f5ffd5b81516001600160a01b03811681146072575f5ffd5b9392505050565b6101c1806100865f395ff3fe608060405234801561000f575f5ffd5b5060043610610034575f3560e01c8063022ec095146100385780639e5faafc14610080575b5f5ffd5b5f546100579073ffffffffffffffffffffffffffffffffffffffff1681565b60405173ffffffffffffffffffffffffffffffffffffffff909116815260200160405180910390f35b61008861008a565b005b5f5473ffffffffffffffffffffffffffffffffffffffff16633370204e611fff7d1337000022660000000000000000000000000000000000000000000000006040517fffffffff0000000000000000000000000000000000000000000000000000000060e085901b1681527fffffffffffffffff00000000000000000000000000000000000000000000000090911660048201526024016020604051808303815f8887f115801561013d573d5f5f3e3d5ffd5b50505050506040513d601f19601f820116820180604052508101906101629190610165565b50565b5f60208284031215610175575f5ffd5b81518015158114610184575f5ffd5b939250505056fea264697066735822122091b86fceb5f3077af7a52806f786f376c8c5b690f93a93ff70a3ce1a59eb135a64736f6c634300081c0033","linkReferences":{}},"methodIdentifiers":{"attack()":"9e5faafc","instance()":"022ec095"},"id":0}