{"abi":[{"type":"function","name":"getBalance","inputs":[{"name":"token","type":"address","internalType":"address"},{"name":"account","type":"address","internalType":"address"}],"outputs":[{"name":"","type":"uint256","internalType":"uint256"}],"stateMutability":"view"},{"type":"function","name":"getPlayer","inputs":[{"name":"token","type":"address","internalType":"address"}],"outputs":[{"name":"","type":"address","internalType":"address"}],"stateMutability":"view"}],"bytecode":{"object":"0x6080604052348015600e575f5ffd5b506102808061001c5f395ff3fe608060405234801561000f575f5ffd5b5060043610610034575f3560e01c80635c12cd4b14610038578063d4fac45d14610075575b5f5ffd5b61004b6100463660046101c6565b610096565b60405173ffffffffffffffffffffffffffffffffffffffff90911681526020015b60405180910390f35b6100886100833660046101e1565b61010a565b60405190815260200161006c565b5f8173ffffffffffffffffffffffffffffffffffffffff166348db5f896040518163ffffffff1660e01b8152600401602060405180830381865afa1580156100e0573d5f5f3e3d5ffd5b505050506040513d601f19601f820116820180604052508101906101049190610218565b92915050565b6040517f70a0823100000000000000000000000000000000000000000000000000000000815273ffffffffffffffffffffffffffffffffffffffff82811660048301525f91908416906370a0823190602401602060405180830381865afa158015610177573d5f5f3e3d5ffd5b505050506040513d601f19601f8201168201806040525081019061019b9190610233565b9392505050565b73ffffffffffffffffffffffffffffffffffffffff811681146101c3575f5ffd5b50565b5f602082840312156101d6575f5ffd5b813561019b816101a2565b5f5f604083850312156101f2575f5ffd5b82356101fd816101a2565b9150602083013561020d816101a2565b809150509250929050565b5f60208284031215610228575f5ffd5b815161019b816101a2565b5f60208284031215610243575f5ffd5b505191905056fea2646970667358221220990ac7c4702ccdc5dd7c5a291d1dcbb47334f1cbefd9e4079b6b0dad960fb29764736f6c634300081c0033","linkReferences":{}},"methodIdentifiers":{"getBalance(address,address)":"d4fac45d","getPlayer(address)":"5c12cd4b"},"id":0}