{"abi":[{"type":"constructor","inputs":[{"name":"_denial","type":"address","internalType":"address payable"}],"stateMutability":"nonpayable"},{"type":"fallback","stateMutability":"payable"},{"type":"receive","stateMutability":"payable"},{"type":"function","name":"denial","inputs":[],"outputs":[{"name":"","type":"address","internalType":"address"}],"stateMutability":"view"},{"type":"function","name":"setPartnerFinal","inputs":[],"outputs":[],"stateMutability":"nonpayable"}],"bytecode":{"object":"0x6080604052348015600e575f5ffd5b506040516103c23803806103c2833981016040819052602b91604e565b5f80546001600160a01b0319166001600160a01b03929092169190911790556079565b5f60208284031215605d575f5ffd5b81516001600160a01b03811681146072575f5ffd5b9392505050565b61033c806100865f395ff3fe608060405260043610610029575f3560e01c80630243ac52146100df57806377fa5295146100f357005b366100dd5760408051633b9aca0080825264077359402082019092525f9160208201640773594000803683370190505090506001815f8151811061006f5761006f610282565b602090810291909101015260015b633b9aca008110156100dd57816100956001836102aa565b815181106100a5576100a5610282565b6020026020010151816100b891906102c3565b8282815181106100ca576100ca610282565b602090810291909101015260010161007d565b005b3480156100ea575f5ffd5b506100dd610147565b3480156100fe575f5ffd5b505f5461011e9073ffffffffffffffffffffffffffffffffffffffff1681565b60405173ffffffffffffffffffffffffffffffffffffffff909116815260200160405180910390f35b5f805460405130602482015273ffffffffffffffffffffffffffffffffffffffff9091169060440160408051601f198184030181529181526020820180517bffffffffffffffffffffffffffffffffffffffffffffffffffffffff167f4e1c591400000000000000000000000000000000000000000000000000000000179052516101d291906102da565b5f604051808303815f865af19150503d805f811461020b576040519150601f19603f3d011682016040523d82523d5f602084013e610210565b606091505b505090508061027f576040517f08c379a000000000000000000000000000000000000000000000000000000000815260206004820152601560248201527f4661696c656420746f2073657420706172746e65720000000000000000000000604482015260640160405180910390fd5b50565b634e487b7160e01b5f52603260045260245ffd5b634e487b7160e01b5f52601160045260245ffd5b818103818111156102bd576102bd610296565b92915050565b80820281158282048414176102bd576102bd610296565b5f82515f5b818110156102f957602081860181015185830152016102df565b505f92019182525091905056fea264697066735822122003ab551ebbb3ef1cd266fefbd47845503a33adb31a3ea138cf033fab5fe5df2664736f6c634300081c0033","linkReferences":{}},"methodIdentifiers":{"denial()":"77fa5295","setPartnerFinal()":"0243ac52"},"id":0}