{"abi":[{"type":"function","name":"directTransfer","inputs":[],"outputs":[],"stateMutability":"nonpayable"},{"type":"function","name":"transfer","inputs":[],"outputs":[],"stateMutability":"nonpayable"}],"bytecode":{"object":"0x6080604052348015600e575f5ffd5b506101e28061001c5f395ff3fe608060405234801561000f575f5ffd5b5060043610610034575f3560e01c80638a4068dd146100385780639bfcbd6f14610040575b5f5ffd5b610040610042565b005b6040513360248201525f9060440160408051601f198184030181529181526020820180517bffffffffffffffffffffffffffffffffffffffffffffffffffffffff167ff2fde38b00000000000000000000000000000000000000000000000000000000179052519091505f90735fbdb2315678afecb367f032d93f642f64180aa3906100cf908490610180565b5f604051808303815f865af19150503d805f8114610108576040519150601f19603f3d011682016040523d82523d5f602084013e61010d565b606091505b505090508061017c576040517f08c379a000000000000000000000000000000000000000000000000000000000815260206004820152601360248201527f466163746f72792063616c6c206661696c656400000000000000000000000000604482015260640160405180910390fd5b5050565b5f82515f5b8181101561019f5760208186018101518583015201610185565b505f92019182525091905056fea26469706673582212200d559b8ede704182b5f6864d442892ecf983f0641b06f3b34df3ac3bb5d5ccc764736f6c634300081c0033","linkReferences":{}},"methodIdentifiers":{"directTransfer()":"9bfcbd6f","transfer()":"8a4068dd"},"id":0}