{"abi":[{"type":"fallback","stateMutability":"payable"},{"type":"function","name":"tryDirectTransfer","inputs":[{"name":"impersonator","type":"address","internalType":"address"}],"outputs":[],"stateMutability":"nonpayable"}],"bytecode":{"object":"0x6080604052348015600e575f5ffd5b5061011c8061001c5f395ff3fe608060405260043610601b575f3560e01c8063d323fa0f14601d575b005b3480156027575f5ffd5b50601b603336600460ae565b6040517ff2fde38b00000000000000000000000000000000000000000000000000000000815233600482015273ffffffffffffffffffffffffffffffffffffffff82169063f2fde38b906024015f604051808303815f87803b1580156096575f5ffd5b505af115801560a7573d5f5f3e3d5ffd5b5050505050565b5f6020828403121560bd575f5ffd5b813573ffffffffffffffffffffffffffffffffffffffff8116811460df575f5ffd5b939250505056fea2646970667358221220d4a02fedddc8a7cb2c028c72e618530552cf6109b013e78010d19861138e7d7664736f6c634300081c0033","linkReferences":{}},"methodIdentifiers":{"tryDirectTransfer(address)":"d323fa0f"},"id":0}