{"abi":[{"type":"function","name":"player","inputs":[],"outputs":[{"name":"","type":"address","internalType":"address"}],"stateMutability":"view"},{"type":"function","name":"setPlayerSol","inputs":[{"name":"magicNum","type":"address","internalType":"address"}],"outputs":[],"stateMutability":"nonpayable"}],"bytecode":{"object":"0x60806040525f80546001600160a01b03191673f39fd6e51aad88f6f4ce6ab8827279cfffb922661790553480156033575f5ffd5b50610187806100415f395ff3fe608060405234801561000f575f5ffd5b5060043610610034575f3560e01c806313e01f7c1461003857806348db5f891461004d575b5f5ffd5b61004b610046366004610117565b610095565b005b5f5461006c9073ffffffffffffffffffffffffffffffffffffffff1681565b60405173ffffffffffffffffffffffffffffffffffffffff909116815260200160405180910390f35b5f546040517f1f87943300000000000000000000000000000000000000000000000000000000815273ffffffffffffffffffffffffffffffffffffffff918216600482015290821690631f879433906024015f604051808303815f87803b1580156100fe575f5ffd5b505af1158015610110573d5f5f3e3d5ffd5b5050505050565b5f60208284031215610127575f5ffd5b813573ffffffffffffffffffffffffffffffffffffffff8116811461014a575f5ffd5b939250505056fea2646970667358221220335ee92cb408658204277c6c37f3cea5761daeadb3ccb564cee9bfe12457cd3664736f6c634300081c0033","linkReferences":{}},"methodIdentifiers":{"player()":"48db5f89","setPlayerSol(address)":"13e01f7c"},"id":0}