{"abi":[{"type":"constructor","inputs":[{"name":"_engineAddress","type":"address","internalType":"address"}],"stateMutability":"nonpayable"},{"type":"function","name":"attack","inputs":[],"outputs":[],"stateMutability":"nonpayable"},{"type":"function","name":"destroy","inputs":[],"outputs":[],"stateMutability":"nonpayable"},{"type":"function","name":"engineAddress","inputs":[],"outputs":[{"name":"","type":"address","internalType":"address"}],"stateMutability":"view"},{"type":"function","name":"getImplementation","inputs":[{"name":"proxy","type":"address","internalType":"address"}],"outputs":[{"name":"","type":"address","internalType":"address"}],"stateMutability":"view"}],"bytecode":{"object":"0x608060405234801561001057600080fd5b506040516103323803806103328339818101604052602081101561003357600080fd5b5051600080546001600160a01b039092166001600160a01b03199092169190911790556102cd806100656000396000f3fe608060405234801561001057600080fd5b506004361061004c5760003560e01c806315ac72ca1461005157806383197ef0146100935780639e5faafc1461009d578063d1f34f33146100a5575b600080fd5b6100776004803603602081101561006757600080fd5b50356001600160a01b03166100ad565b604080516001600160a01b039092168252519081900360200190f35b61009b6100d3565b005b61009b6100d7565b610077610288565b507f360894a13ba1a3210667c828492db98dca3e2076cc3735a920a3ca505d382bbc5490565b6000ff5b60008054604080517f8129fc1c00000000000000000000000000000000000000000000000000000000815290516001600160a01b0390921692638129fc1c9260048084019382900301818387803b15801561013157600080fd5b505af1158015610145573d6000803e3d6000fd5b505060008054604080516004808252602480830184526020830180517bffffffffffffffffffffffffffffffffffffffffffffffffffffffff167f83197ef00000000000000000000000000000000000000000000000000000000017815284517f4f1ef286000000000000000000000000000000000000000000000000000000008152309381018481529281019586528451604482015284516001600160a01b039097169950634f1ef2869850929693959194936064909301929091908190849084905b83811015610221578181015183820152602001610209565b50505050905090810190601f16801561024e5780820380516001836020036101000a031916815260200191505b509350505050600060405180830381600087803b15801561026e57600080fd5b505af1158015610282573d6000803e3d6000fd5b50505050565b6000546001600160a01b03168156fea264697066735822122014dfea63ea8be64b80631199894655e827dd8f6358dde8596ca25e82c65dcac564736f6c634300060c0033","linkReferences":{}},"methodIdentifiers":{"attack()":"9e5faafc","destroy()":"83197ef0","engineAddress()":"d1f34f33","getImplementation(address)":"15ac72ca"},"id":0}