{"abi":[{"type":"function","name":"callBuy","inputs":[],"outputs":[],"stateMutability":"nonpayable"},{"type":"function","name":"price","inputs":[],"outputs":[{"name":"","type":"uint256","internalType":"uint256"}],"stateMutability":"view"}],"bytecode":{"object":"0x6080604052348015600e575f5ffd5b50608080601a5f395ff3fe6080604052348015600e575f5ffd5b50600436106030575f3560e01c80637388d057146034578063a035b1fe146036575b5f5ffd5b005b606460405190815260200160405180910390f3fea264697066735822122092551749c1e4d511a65220b6422ea21af46d98a0a27092900d996a98ceb057d264736f6c634300081c0033","linkReferences":{}},"methodIdentifiers":{"callBuy()":"7388d057","price()":"a035b1fe"},"id":0}