{"abi":[{"type":"function","name":"attackShop","inputs":[{"name":"shopAddress","type":"address","internalType":"address"}],"outputs":[],"stateMutability":"nonpayable"},{"type":"function","name":"buyerPrice","inputs":[],"outputs":[{"name":"","type":"uint256","internalType":"uint256"}],"stateMutability":"view"},{"type":"function","name":"price","inputs":[],"outputs":[{"name":"","type":"uint256","internalType":"uint256"}],"stateMutability":"view"}],"bytecode":{"object":"0x6080604052348015600e575f5ffd5b506101348061001c5f395ff3fe6080604052348015600e575f5ffd5b5060043610603a575f3560e01c80631070f83514603e578063a035b1fe146053578063c43eb9b8146059575b5f5ffd5b60645b60405190815260200160405180910390f35b60646041565b6068606436600460c6565b606a565b005b8073ffffffffffffffffffffffffffffffffffffffff1663a6f2ae3a6040518163ffffffff1660e01b81526004015f604051808303815f87803b15801560ae575f5ffd5b505af115801560bf573d5f5f3e3d5ffd5b5050505050565b5f6020828403121560d5575f5ffd5b813573ffffffffffffffffffffffffffffffffffffffff8116811460f7575f5ffd5b939250505056fea2646970667358221220b7c5f6d9f21730dd6ff7d7547ccd23fe9651828fc7eeaedaf6ab5c461c134ba064736f6c634300081c0033","linkReferences":{}},"methodIdentifiers":{"attackShop(address)":"c43eb9b8","buyerPrice()":"1070f835","price()":"a035b1fe"},"id":0}