{"abi":[{"type":"function","name":"isLastFloor","inputs":[{"name":"_floor","type":"uint256","internalType":"uint256"}],"outputs":[{"name":"","type":"bool","internalType":"bool"}],"stateMutability":"nonpayable"}],"bytecode":{"object":"0x6080604052348015600e575f5ffd5b5060fd8061001b5f395ff3fe6080604052348015600e575f5ffd5b50600436106026575f3560e01c80635f9a4bca14602a575b5f5ffd5b603960353660046075565b604d565b604051901515815260200160405180910390f35b5f80548180605983608b565b91905055505f54600103606d57505f919050565b506001919050565b5f602082840312156084575f5ffd5b5035919050565b5f6001820160c0577f4e487b71000000000000000000000000000000000000000000000000000000005f52601160045260245ffd5b506001019056fea2646970667358221220260d344d4c4df7daa1ff89fb66e40d0c40540f51edc59293f88cdb2a1ff794dc64736f6c634300081c0033","linkReferences":{}},"methodIdentifiers":{"isLastFloor(uint256)":"5f9a4bca"},"id":0}