{"abi":[{"type":"constructor","inputs":[{"name":"_kingAddress","type":"address","internalType":"address"}],"stateMutability":"nonpayable"},{"type":"receive","stateMutability":"payable"},{"type":"function","name":"becomeKing","inputs":[],"outputs":[],"stateMutability":"payable"},{"type":"function","name":"kingContract","inputs":[],"outputs":[{"name":"","type":"address","internalType":"contract IKing"}],"stateMutability":"view"}],"bytecode":{"object":"0x6080604052348015600e575f5ffd5b5060405161024b38038061024b833981016040819052602b91604e565b5f80546001600160a01b0319166001600160a01b03929092169190911790556079565b5f60208284031215605d575f5ffd5b81516001600160a01b03811681146072575f5ffd5b9392505050565b6101c5806100865f395ff3fe60806040526004361061002b575f3560e01c806356b558d3146100815780636708cc63146100d5575f5ffd5b3661007d5760405162461bcd60e51b815260206004820152601860248201527f4920646f6e27742077616e7420796f7572206d6f6e657921000000000000000060448201526064015b60405180910390fd5b5f5ffd5b34801561008c575f5ffd5b505f546100ac9073ffffffffffffffffffffffffffffffffffffffff1681565b60405173ffffffffffffffffffffffffffffffffffffffff909116815260200160405180910390f35b6100dd6100df565b005b5f805460405173ffffffffffffffffffffffffffffffffffffffff9091169034908381818185875af1925050503d805f8114610136576040519150601f19603f3d011682016040523d82523d5f602084013e61013b565b606091505b505090508061018c5760405162461bcd60e51b815260206004820152601560248201527f4661696c656420746f206265636f6d65206b696e6700000000000000000000006044820152606401610074565b5056fea264697066735822122023e27ebe8ab583dd14320e7a46d1f02b334732380547ba06338f5769922e0db064736f6c634300081c0033","linkReferences":{}},"methodIdentifiers":{"becomeKing()":"6708cc63","kingContract()":"56b558d3"},"id":0}