{"abi":[{"type":"constructor","inputs":[{"name":"_instance","type":"address","internalType":"address"}],"stateMutability":"nonpayable"},{"type":"function","name":"attack","inputs":[],"outputs":[],"stateMutability":"nonpayable"}],"bytecode":{"object":"0x6080604052348015600e575f5ffd5b506040516101f23803806101f2833981016040819052602b91604e565b5f80546001600160a01b0319166001600160a01b03929092169190911790556079565b5f60208284031215605d575f5ffd5b81516001600160a01b03811681146072575f5ffd5b9392505050565b61016c806100865f395ff3fe608060405234801561000f575f5ffd5b5060043610610029575f3560e01c80639e5faafc1461002d575b5f5ffd5b610035610037565b005b5f546040517f3370204e0000000000000000000000000000000000000000000000000000000081527c0100002266000000000000000000000000000000000000000000000000600482018190527922660000000000000000000000000000000000000000000000009260019273ffffffffffffffffffffffffffffffffffffffff90911690633370204e90616000906024016020604051808303815f8887f11580156100e5573d5f5f3e3d5ffd5b50505050506040513d601f19601f8201168201806040525081019061010a9190610110565b50505050565b5f60208284031215610120575f5ffd5b8151801515811461012f575f5ffd5b939250505056fea2646970667358221220f0d6846a6721d66c003593ffa900103076f35a02d2d10923b98694956f3527f364736f6c634300081c0033","linkReferences":{}},"methodIdentifiers":{"attack()":"9e5faafc"},"id":0}