{"abi":[{"type":"constructor","inputs":[{"name":"_target","type":"address","internalType":"address"}],"stateMutability":"nonpayable"},{"type":"function","name":"callEnter","inputs":[],"outputs":[],"stateMutability":"nonpayable"},{"type":"function","name":"setOwner","inputs":[],"outputs":[],"stateMutability":"nonpayable"},{"type":"function","name":"target","inputs":[],"outputs":[{"name":"","type":"address","internalType":"contract IGatekeeperThree"}],"stateMutability":"view"}],"bytecode":{"object":"0x60a0604052348015600e575f5ffd5b50604051610247380380610247833981016040819052602b91603b565b6001600160a01b03166080526066565b5f60208284031215604a575f5ffd5b81516001600160a01b0381168114605f575f5ffd5b9392505050565b6080516101bd61008a5f395f8181605a0152818160a7015261012401526101bd5ff3fe608060405234801561000f575f5ffd5b506004361061003f575f3560e01c806325b231611461004357806340caae061461004d578063d4b8399214610055575b5f5ffd5b61004b6100a5565b005b61004b610122565b61007c7f000000000000000000000000000000000000000000000000000000000000000081565b60405173ffffffffffffffffffffffffffffffffffffffff909116815260200160405180910390f35b7f000000000000000000000000000000000000000000000000000000000000000073ffffffffffffffffffffffffffffffffffffffff1663e97dcb626040518163ffffffff1660e01b81526004015f604051808303815f87803b15801561010a575f5ffd5b505af115801561011c573d5f5f3e3d5ffd5b50505050565b7f000000000000000000000000000000000000000000000000000000000000000073ffffffffffffffffffffffffffffffffffffffff1663b9966e566040518163ffffffff1660e01b81526004015f604051808303815f87803b15801561010a575f5ffdfea26469706673582212203dbd5f61c2717ce0d5b214ede8aac3e7b5389b0f5cf4c772fa4233aa830214ae64736f6c634300081c0033","linkReferences":{}},"methodIdentifiers":{"callEnter()":"25b23161","setOwner()":"40caae06","target()":"d4b83992"},"id":0}