{"abi":[{"type":"fallback","stateMutability":"payable"},{"type":"function","name":"MAGIC","inputs":[],"outputs":[{"name":"","type":"bytes4","internalType":"bytes4"}],"stateMutability":"view"}],"bytecode":{"object":"0x6080604052348015600e575f5ffd5b5060b080601a5f395ff3fe608060405260043610601b575f3560e01c80635e41813d14602d575b604051630402962160e51b8152600481f35b3480156037575f5ffd5b506045630402962160e51b81565b6040517fffffffff00000000000000000000000000000000000000000000000000000000909116815260200160405180910390f3fea2646970667358221220873d1fa728bc8f36ef3c39ca8192e3123b27aeae9df7a77a96dbfa1f17813e7e64736f6c634300081c0033","linkReferences":{}},"methodIdentifiers":{"MAGIC()":"5e41813d"},"id":0}