{"abi":[{"type":"function","name":"analyzeEncoding","inputs":[{"name":"r","type":"uint256","internalType":"uint256"},{"name":"s","type":"uint256","internalType":"uint256"},{"name":"v","type":"uint256","internalType":"uint256"}],"outputs":[{"name":"encoded","type":"bytes","internalType":"bytes"},{"name":"hash","type":"bytes32","internalType":"bytes32"}],"stateMutability":"pure"},{"type":"function","name":"computeSignatureHash","inputs":[{"name":"r","type":"uint256","internalType":"uint256"},{"name":"s","type":"uint256","internalType":"uint256"},{"name":"v","type":"uint256","internalType":"uint256"}],"outputs":[{"name":"","type":"bytes32","internalType":"bytes32"}],"stateMutability":"pure"},{"type":"function","name":"findCollision","inputs":[],"outputs":[{"name":"","type":"bool","internalType":"bool"}],"stateMutability":"pure"}],"bytecode":{"object":"0x6080604052348015600e575f5ffd5b506103438061001c5f395ff3fe608060405234801561000f575f5ffd5b506004361061003f575f3560e01c80632ec5167b1461004357806386af895414610069578063e390b7b214610081575b5f5ffd5b610056610051366004610262565b6100a2565b6040519081526020015b60405180910390f35b6100716100ed565b6040519015158152602001610060565b61009461008f366004610262565b610211565b60405161006092919061028b565b5f6040518060600160405280858152602001848152602001838152506040516020016100ce91906102dd565b6040516020818303038152906040528051906020012090509392505050565b5f5f60405180606001604052806001815260200160028152602001600381525060405160200161011d91906102dd565b6040516020818303038152906040528051906020012090505f60405180606001604052806002815260200160018152602001600381525060405160200161016491906102dd565b6040516020818303038152906040528051906020012090505f6040518060600160405280600181526020016002815260200160038152506040516020016101ab91906102dd565b60408051601f1981840301815282825280516020918201206060840183526001845260028483015260038484015291519193505f916101ec918491016102dd565b6040516020818303038152906040528051906020012090508083149550505050505090565b60605f60405180606001604052808681526020018581526020018481525060405160200161023f91906102dd565b604051602081830303815290604052915081805190602001209050935093915050565b5f5f5f60608486031215610274575f5ffd5b505081359360208301359350604090920135919050565b604081525f83518060408401525f5b818110156102b7576020818701810151606086840101520161029a565b505f606082850101526060601f19601f8301168401019150508260208301529392505050565b6060810181835f5b60038110156103045781518352602092830192909101906001016102e5565b5050509291505056fea2646970667358221220b7b51ae607b32355e3090f25b59b556cdb8920a54a87fa88ca064f6781cdfbdd64736f6c634300081c0033","linkReferences":{}},"methodIdentifiers":{"analyzeEncoding(uint256,uint256,uint256)":"e390b7b2","computeSignatureHash(uint256,uint256,uint256)":"2ec5167b","findCollision()":"86af8954"},"id":0}