{"abi":[{"type":"constructor","inputs":[],"stateMutability":"payable"},{"type":"receive","stateMutability":"payable"},{"type":"function","name":"attack","inputs":[{"name":"target","type":"address","internalType":"address"}],"outputs":[],"stateMutability":"nonpayable"}],"bytecode":{"object":"0x608060405260cb80600f5f395ff3fe608060405260043610601e575f3560e01c8063d018db3e146028575f5ffd5b36602457005b5f5ffd5b3480156032575f5ffd5b506042603e366004605d565b6044565b005b8073ffffffffffffffffffffffffffffffffffffffff16ff5b5f60208284031215606c575f5ffd5b813573ffffffffffffffffffffffffffffffffffffffff81168114608e575f5ffd5b939250505056fea2646970667358221220e0392d5cda54d903c069812c01d44c0dc7906de15120a7a0c89b2b7623049a1d64736f6c634300081c0033","linkReferences":{}},"methodIdentifiers":{"attack(address)":"d018db3e"},"id":0}