{"abi":[{"type":"constructor","inputs":[{"name":"_target","type":"address","internalType":"address"}],"stateMutability":"nonpayable"},{"type":"function","name":"contribute","inputs":[],"outputs":[],"stateMutability":"payable"},{"type":"function","name":"destroy","inputs":[],"outputs":[],"stateMutability":"nonpayable"},{"type":"function","name":"target","inputs":[],"outputs":[{"name":"","type":"address","internalType":"address"}],"stateMutability":"view"}],"bytecode":{"object":"0x6080604052348015600e575f5ffd5b5060405161016d38038061016d833981016040819052602b91604e565b5f80546001600160a01b0319166001600160a01b03929092169190911790556079565b5f60208284031215605d575f5ffd5b81516001600160a01b03811681146072575f5ffd5b9392505050565b60e8806100855f395ff3fe608060405260043610602f575f3560e01c806383197ef0146033578063d4b83992146046578063d7bb99ba146044575b5f5ffd5b348015603d575f5ffd5b5060446098565b005b3480156050575f5ffd5b505f54606f9073ffffffffffffffffffffffffffffffffffffffff1681565b60405173ffffffffffffffffffffffffffffffffffffffff909116815260200160405180910390f35b5f5473ffffffffffffffffffffffffffffffffffffffff16fffea26469706673582212205a389e2709d0a06158cc15ff2f77a46bc4d52ea6a8b1fe515424b8a730a4d86f64736f6c634300081c0033","linkReferences":{}},"methodIdentifiers":{"contribute()":"d7bb99ba","destroy()":"83197ef0","target()":"d4b83992"},"id":0}