{"abi":[{"type":"constructor","inputs":[{"name":"_instance","type":"address","internalType":"address"}],"stateMutability":"nonpayable"},{"type":"fallback","stateMutability":"nonpayable"},{"type":"receive","stateMutability":"payable"},{"type":"function","name":"attack","inputs":[],"outputs":[],"stateMutability":"nonpayable"},{"type":"function","name":"denialInstance","inputs":[],"outputs":[{"name":"","type":"address","internalType":"address"}],"stateMutability":"view"}],"bytecode":{"object":"0x6080604052348015600e575f5ffd5b50604051610239380380610239833981016040819052602b91604e565b5f80546001600160a01b0319166001600160a01b03929092169190911790556079565b5f60208284031215605d575f5ffd5b81516001600160a01b03811681146072575f5ffd5b9392505050565b6101b3806100865f395ff3fe60806040526004361061002c575f3560e01c8063721c5a881461005f5780639e5faafc146100b357610054565b36610054575f5b64e8d4a51000811015610052578061004a81610140565b915050610033565b005b348015610052575f5ffd5b34801561006a575f5ffd5b505f5461008a9073ffffffffffffffffffffffffffffffffffffffff1681565b60405173ffffffffffffffffffffffffffffffffffffffff909116815260200160405180910390f35b3480156100be575f5ffd5b505f546040517f4e1c59140000000000000000000000000000000000000000000000000000000081523060048201526100529173ffffffffffffffffffffffffffffffffffffffff1690634e1c5914906024015f604051808303815f87803b158015610128575f5ffd5b505af115801561013a573d5f5f3e3d5ffd5b50505050565b5f60018201610176577f4e487b71000000000000000000000000000000000000000000000000000000005f52601160045260245ffd5b506001019056fea264697066735822122053257802759438996393cb217118306829abef372d5d88e757af5794bef8d4a864736f6c634300081c0033","linkReferences":{}},"methodIdentifiers":{"attack()":"9e5faafc","denialInstance()":"721c5a88"},"id":0}