{"abi":[{"type":"constructor","inputs":[],"stateMutability":"nonpayable"},{"type":"function","name":"coin","inputs":[],"outputs":[{"name":"","type":"address","internalType":"contract Coin"}],"stateMutability":"view"},{"type":"function","name":"donate10","inputs":[{"name":"dest_","type":"address","internalType":"address"}],"outputs":[],"stateMutability":"nonpayable"},{"type":"function","name":"owner","inputs":[],"outputs":[{"name":"","type":"address","internalType":"address"}],"stateMutability":"view"},{"type":"function","name":"setCoin","inputs":[{"name":"coin_","type":"address","internalType":"contract Coin"}],"outputs":[],"stateMutability":"nonpayable"},{"type":"function","name":"transferRemainder","inputs":[{"name":"dest_","type":"address","internalType":"address"}],"outputs":[],"stateMutability":"nonpayable"},{"type":"error","name":"NotEnoughBalance","inputs":[]},{"type":"error","name":"OnlyOwner","inputs":[]}],"bytecode":{"object":"0x6080604052348015600e575f5ffd5b505f80546001600160a01b031916331790556104008061002d5f395ff3fe608060405234801561000f575f5ffd5b5060043610610064575f3560e01c80638da5cb5b1161004d5780638da5cb5b146100ac578063e40b8658146100be578063f836afce146100d1575f5ffd5b806311df99951461006857806382e46b7514610097575b5f5ffd5b60015461007b906001600160a01b031681565b6040516001600160a01b03909116815260200160405180910390f35b6100aa6100a5366004610391565b6100e4565b005b5f5461007b906001600160a01b031681565b6100aa6100cc366004610391565b610148565b6100aa6100df366004610391565b61025b565b5f546001600160a01b0316331461010e57604051635fc483c560e01b815260040160405180910390fd5b600180547fffffffffffffffffffffffff0000000000000000000000000000000000000000166001600160a01b0392909216919091179055565b5f546001600160a01b0316331461017257604051635fc483c560e01b815260040160405180910390fd5b6001546040516327e235e360e01b81523060048201526001600160a01b039091169063a9059cbb90839083906327e235e390602401602060405180830381865afa1580156101c2573d5f5f3e3d5ffd5b505050506040513d601f19601f820116820180604052508101906101e691906103b3565b6040517fffffffff0000000000000000000000000000000000000000000000000000000060e085901b1681526001600160a01b03909216600483015260248201526044015b5f604051808303815f87803b158015610242575f5ffd5b505af1158015610254573d5f5f3e3d5ffd5b5050505050565b5f546001600160a01b0316331461028557604051635fc483c560e01b815260040160405180910390fd5b6001546040516327e235e360e01b8152306004820152600a916001600160a01b0316906327e235e390602401602060405180830381865afa1580156102cc573d5f5f3e3d5ffd5b505050506040513d601f19601f820116820180604052508101906102f091906103b3565b1015610328576040517fad3a8b9e00000000000000000000000000000000000000000000000000000000815260040160405180910390fd5b6001546040517fa9059cbb0000000000000000000000000000000000000000000000000000000081526001600160a01b038381166004830152600a60248301529091169063a9059cbb9060440161022b565b50565b6001600160a01b038116811461037a575f5ffd5b5f602082840312156103a1575f5ffd5b81356103ac8161037d565b9392505050565b5f602082840312156103c3575f5ffd5b505191905056fea26469706673582212204ea49a441d2ce9747d7a5d82e815e5e8c02af12131b37a2f7ef7d1d2a49c27ff64736f6c634300081c0033","linkReferences":{}},"methodIdentifiers":{"coin()":"11df9995","donate10(address)":"f836afce","owner()":"8da5cb5b","setCoin(address)":"82e46b75","transferRemainder(address)":"e40b8658"},"id":3}