{"abi":[{"type":"function","name":"owner","inputs":[],"outputs":[{"name":"","type":"address","internalType":"address"}],"stateMutability":"view"},{"type":"function","name":"setTime","inputs":[{"name":"_time","type":"uint256","internalType":"uint256"}],"outputs":[],"stateMutability":"nonpayable"},{"type":"function","name":"timeZone1Library","inputs":[],"outputs":[{"name":"","type":"address","internalType":"address"}],"stateMutability":"view"},{"type":"function","name":"timeZone2Library","inputs":[],"outputs":[{"name":"","type":"address","internalType":"address"}],"stateMutability":"view"}],"bytecode":{"object":"0x6080604052348015600e575f5ffd5b5061012c8061001c5f395ff3fe6080604052348015600e575f5ffd5b50600436106044575f3560e01c806327d6974f1460485780633beb26c41460765780633dc794221460bd5780638da5cb5b1460ce575b5f5ffd5b600154605a906001600160a01b031681565b6040516001600160a01b03909116815260200160405180910390f35b60bb608136600460e0565b600280547fffffffffffffffffffffffff0000000000000000000000000000000000000000166001600160a01b0392909216919091179055565b005b5f54605a906001600160a01b031681565b600254605a906001600160a01b031681565b5f6020828403121560ef575f5ffd5b503591905056fea2646970667358221220bc4592dd8365e6604f7e7b1006c2a09c9865fdab240544e2ec88a1b6de0a441c64736f6c634300081c0033","linkReferences":{}},"methodIdentifiers":{"owner()":"8da5cb5b","setTime(uint256)":"3beb26c4","timeZone1Library()":"3dc79422","timeZone2Library()":"27d6974f"},"id":0}