{"abi":[{"type":"function","name":"calculateIndex","inputs":[],"outputs":[{"name":"","type":"uint256","internalType":"uint256"}],"stateMutability":"pure"}],"bytecode":{"object":"0x6080604052348015600f57600080fd5b5060a38061001e6000396000f3fe6080604052348015600f57600080fd5b506004361060285760003560e01c8063d359fddc14602d575b600080fd5b60336045565b60408051918252519081900360200190f35b60408051600160208083018290528351808403820181529284019093528151919092012019019056fea265627a7a72315820b704ac37bbf0da6085f34580873bd8a6c66af583650afdecf702d5793205573c64736f6c63430005110032","linkReferences":{}},"methodIdentifiers":{"calculateIndex()":"d359fddc"},"id":0}