{"abi":[{"type":"constructor","inputs":[{"name":"_dexInstance","type":"address","internalType":"address"},{"name":"_token1","type":"address","internalType":"address"},{"name":"_token2","type":"address","internalType":"address"}],"stateMutability":"nonpayable"},{"type":"function","name":"dex","inputs":[],"outputs":[{"name":"","type":"address","internalType":"contract IDex"}],"stateMutability":"view"},{"type":"function","name":"drain","inputs":[],"outputs":[],"stateMutability":"nonpayable"},{"type":"function","name":"token1","inputs":[],"outputs":[{"name":"","type":"address","internalType":"address"}],"stateMutability":"view"},{"type":"function","name":"token2","inputs":[],"outputs":[{"name":"","type":"address","internalType":"address"}],"stateMutability":"view"}],"bytecode":{"object":"0x60a060405234801561000f575f5ffd5b5060405161078d38038061078d83398101604081905261002e9161007e565b6001600160a01b039283166080525f80549284166001600160a01b0319938416179055600180549190931691161790556100be565b80516001600160a01b0381168114610079575f5ffd5b919050565b5f5f5f60608486031215610090575f5ffd5b61009984610063565b92506100a760208501610063565b91506100b560408501610063565b90509250925092565b60805161068f6100fe5f395f818160820152818160da0152818161016e015281816102120152818161031e015281816104170152610523015261068f5ff3fe608060405234801561000f575f5ffd5b506004361061004a575f3560e01c806325be124e1461004e578063692058c21461007d5780639890220b146100a4578063d21220a7146100ae575b5f5ffd5b600154610061906001600160a01b031681565b6040516001600160a01b03909116815260200160405180910390f35b6100617f000000000000000000000000000000000000000000000000000000000000000081565b6100ac6100c0565b005b5f54610061906001600160a01b031681565b5f80546040516370a0823160e01b81526001600160a01b037f000000000000000000000000000000000000000000000000000000000000000081166004830152909116906370a0823190602401602060405180830381865afa158015610128573d5f5f3e3d5ffd5b505050506040513d601f19601f8201168201806040525081019061014c919061061c565b1180156101e257506001546040516370a0823160e01b81526001600160a01b037f0000000000000000000000000000000000000000000000000000000000000000811660048301525f9216906370a0823190602401602060405180830381865afa1580156101bc573d5f5f3e3d5ffd5b505050506040513d601f19601f820116820180604052508101906101e0919061061c565b115b1561061a575f546040516370a0823160e01b815233600482018190526001600160a01b03909216916323b872dd917f00000000000000000000000000000000000000000000000000000000000000009084906370a0823190602401602060405180830381865afa158015610258573d5f5f3e3d5ffd5b505050506040513d601f19601f8201168201806040525081019061027c919061061c565b6040516001600160e01b031960e086901b1681526001600160a01b03938416600482015292909116602483015260448201526064016020604051808303815f875af11580156102cd573d5f5f3e3d5ffd5b505050506040513d601f19601f820116820180604052508101906102f19190610633565b506001546040516370a0823160e01b815233600482018190526001600160a01b03909216916323b872dd917f00000000000000000000000000000000000000000000000000000000000000009084906370a0823190602401602060405180830381865afa158015610364573d5f5f3e3d5ffd5b505050506040513d601f19601f82011682018060405250810190610388919061061c565b6040516001600160e01b031960e086901b1681526001600160a01b03938416600482015292909116602483015260448201526064016020604051808303815f875af11580156103d9573d5f5f3e3d5ffd5b505050506040513d601f19601f820116820180604052508101906103fd9190610633565b505f546040516370a0823160e01b81526001600160a01b037f000000000000000000000000000000000000000000000000000000000000000081811660048401529216916323b872dd91339084906370a0823190602401602060405180830381865afa15801561046f573d5f5f3e3d5ffd5b505050506040513d601f19601f82011682018060405250810190610493919061061c565b6040516001600160e01b031960e086901b1681526001600160a01b03938416600482015292909116602483015260448201526064016020604051808303815f875af11580156104e4573d5f5f3e3d5ffd5b505050506040513d601f19601f820116820180604052508101906105089190610633565b506001546040516370a0823160e01b81526001600160a01b037f000000000000000000000000000000000000000000000000000000000000000081811660048401529216916323b872dd91339084906370a0823190602401602060405180830381865afa15801561057b573d5f5f3e3d5ffd5b505050506040513d601f19601f8201168201806040525081019061059f919061061c565b6040516001600160e01b031960e086901b1681526001600160a01b03938416600482015292909116602483015260448201526064016020604051808303815f875af11580156105f0573d5f5f3e3d5ffd5b505050506040513d601f19601f820116820180604052508101906106149190610633565b506100c0565b565b5f6020828403121561062c575f5ffd5b5051919050565b5f60208284031215610643575f5ffd5b81518015158114610652575f5ffd5b939250505056fea2646970667358221220b2744ccff6c934453a243807db6db6950df95545a71e3d252e80008caef4057664736f6c634300081c0033","linkReferences":{}},"methodIdentifiers":{"dex()":"692058c2","drain()":"9890220b","token1()":"d21220a7","token2()":"25be124e"},"id":0}