{"abi":[{"type":"function","name":"magicNumber","inputs":[],"outputs":[{"name":"","type":"bytes1","internalType":"bytes1"}],"stateMutability":"pure"}],"bytecode":{"object":"0x6080604052348015600e575f5ffd5b5060a580601a5f395ff3fe6080604052348015600e575f5ffd5b50600436106026575f3560e01c806341837a2f14602a575b5f5ffd5b60306065565b6040517fff00000000000000000000000000000000000000000000000000000000000000909116815260200160405180910390f35b5f602a5f5260205ff3fea2646970667358221220de386d6b59016fbe99f0c2a7bf0f3450f6074d04cd60c544f78399296a2d42e864736f6c634300081c0033","linkReferences":{}},"methodIdentifiers":{"magicNumber()":"41837a2f"},"id":0}