{"abi":[{"type":"function","name":"sendEth","inputs":[{"name":"_target","type":"address","internalType":"address payable"}],"outputs":[],"stateMutability":"payable"}],"bytecode":{"object":"0x6080604052348015600e575f5ffd5b5060b780601a5f395ff3fe608060405260043610601b575f3560e01c806376a54c6014601f575b5f5ffd5b602e602a3660046049565b6030565b005b8073ffffffffffffffffffffffffffffffffffffffff16ff5b5f602082840312156058575f5ffd5b813573ffffffffffffffffffffffffffffffffffffffff81168114607a575f5ffd5b939250505056fea2646970667358221220ee324aec9d66a96df4a817efe1b6b2de48a3a905e7fe0b13be6fbfbe56beed9e64736f6c634300081c0033","linkReferences":{}},"methodIdentifiers":{"sendEth(address)":"76a54c60"},"id":0}