{"abi":[{"type":"function","name":"setHorsePower","inputs":[{"name":"newHorsePower","type":"uint256","internalType":"uint256"}],"outputs":[],"stateMutability":"nonpayable"},{"type":"function","name":"setNewImplementation","inputs":[{"name":"newImpl","type":"address","internalType":"address"}],"outputs":[],"stateMutability":"nonpayable"},{"type":"function","name":"upgrader","inputs":[],"outputs":[{"name":"","type":"address","internalType":"address"}],"stateMutability":"view"}],"bytecode":{"object":"0x6080604052348015600e575f5ffd5b506101248061001c5f395ff3fe6080604052348015600e575f5ffd5b5060043610603a575f3560e01c80635661819e14603e578063adb3ce9214604e578063af269745146059575b5f5ffd5b604c604936600460a0565b50565b005b604c604936600460b6565b5f5460779073ffffffffffffffffffffffffffffffffffffffff1681565b60405173ffffffffffffffffffffffffffffffffffffffff909116815260200160405180910390f35b5f6020828403121560af575f5ffd5b5035919050565b5f6020828403121560c5575f5ffd5b813573ffffffffffffffffffffffffffffffffffffffff8116811460e7575f5ffd5b939250505056fea2646970667358221220de2e4e17e73e924ae0b3fafb8ea0f4391f50f4a1541afb4f90b602e81802428e64736f6c634300081c0033","linkReferences":{}},"methodIdentifiers":{"setHorsePower(uint256)":"5661819e","setNewImplementation(address)":"adb3ce92","upgrader()":"af269745"},"id":0}