{"abi":[{"type":"function","name":"testBug","inputs":[{"name":"r","type":"uint256","internalType":"uint256"},{"name":"s","type":"uint256","internalType":"uint256"},{"name":"v","type":"uint256","internalType":"uint256"}],"outputs":[{"name":"","type":"bytes32","internalType":"bytes32"}],"stateMutability":"pure"},{"type":"function","name":"testCorrect","inputs":[{"name":"r","type":"uint256","internalType":"uint256"},{"name":"s","type":"uint256","internalType":"uint256"},{"name":"v","type":"uint256","internalType":"uint256"}],"outputs":[{"name":"","type":"bytes32","internalType":"bytes32"}],"stateMutability":"pure"}],"bytecode":{"object":"0x6080604052348015600e575f5ffd5b5061026e8061001c5f395ff3fe608060405234801561000f575f5ffd5b5060043610610034575f3560e01c8063741cf1ba146100385780639bbedee51461005d575b5f5ffd5b61004b610046366004610170565b610070565b60405190815260200160405180910390f35b61004b61006b366004610170565b610125565b604080516003808252608082019092525f918291906020820160608036833701905050905084815f815181106100a8576100a8610199565b60200260200101818152505083816001815181106100c8576100c8610199565b60200260200101818152505082816002815181106100e8576100e8610199565b6020026020010181815250508060405160200161010591906101c6565b604051602081830303815290604052805190602001209150509392505050565b5f6040518060600160405280858152602001848152602001838152506040516020016101519190610208565b6040516020818303038152906040528051906020012090509392505050565b5f5f5f60608486031215610182575f5ffd5b505081359360208301359350604090920135919050565b7f4e487b71000000000000000000000000000000000000000000000000000000005f52603260045260245ffd5b602080825282518282018190525f918401906040840190835b818110156101fd5783518352602093840193909201916001016101df565b509095945050505050565b6060810181835f5b600381101561022f578151835260209283019290910190600101610210565b5050509291505056fea26469706673582212205d742dced2fb6b01dc72167a1f30a611e5754bbd8bfb8d6ded04932213f85f8d64736f6c634300081c0033","linkReferences":{}},"methodIdentifiers":{"testBug(uint256,uint256,uint256)":"9bbedee5","testCorrect(uint256,uint256,uint256)":"741cf1ba"},"id":0}