{"abi":[{"type":"constructor","inputs":[{"name":"_gatekeeper","type":"address","internalType":"address"}],"stateMutability":"nonpayable"},{"type":"function","name":"Gatekeeper","inputs":[],"outputs":[{"name":"","type":"address","internalType":"contract IGatekeeper"}],"stateMutability":"view"},{"type":"function","name":"attack","inputs":[],"outputs":[],"stateMutability":"nonpayable"}],"bytecode":{"object":"0x60a0604052348015600e575f5ffd5b5060405161030d38038061030d833981016040819052602b91603b565b6001600160a01b03166080526066565b5f60208284031215604a575f5ffd5b81516001600160a01b0381168114605f575f5ffd5b9392505050565b6080516102896100845f395f8181603d015261013101526102895ff3fe608060405234801561000f575f5ffd5b5060043610610034575f3560e01c806302097bbc146100385780639e5faafc14610088575b5f5ffd5b61005f7f000000000000000000000000000000000000000000000000000000000000000081565b60405173ffffffffffffffffffffffffffffffffffffffff909116815260200160405180910390f35b610090610092565b005b604080517fffffffffffffffff0000000000000000000000000000000000000000000000003261ffff166401000000001760c01b90811660248084019190915283518084039091018152604490920183526020820180517bffffffffffffffffffffffffffffffffffffffffffffffffffffffff167f3370204e0000000000000000000000000000000000000000000000000000000017905291515f917f000000000000000000000000000000000000000000000000000000000000000073ffffffffffffffffffffffffffffffffffffffff1691627cfc189161017591610227565b5f604051808303815f8787f1925050503d805f81146101af576040519150601f19603f3d011682016040523d82523d5f602084013e6101b4565b606091505b5050905080610223576040517f08c379a000000000000000000000000000000000000000000000000000000000815260206004820152600d60248201527f41747461636b206661696c656400000000000000000000000000000000000000604482015260640160405180910390fd5b5050565b5f82515f5b81811015610246576020818601810151858301520161022c565b505f92019182525091905056fea2646970667358221220c2bab498390fd87fd60e049809eefa88a09081dce64d9ff374f7aff60a0d7a0564736f6c634300081c0033","linkReferences":{}},"methodIdentifiers":{"Gatekeeper()":"02097bbc","attack()":"9e5faafc"},"id":0}