{"abi":[{"type":"function","name":"selfDestruct","inputs":[],"outputs":[],"stateMutability":"nonpayable"}],"bytecode":{"object":"0x6080604052348015600f57600080fd5b50606e80601d6000396000f3fe6080604052348015600f57600080fd5b506004361060285760003560e01c80639cb8a26a14602d575b600080fd5b60336035565b005b33fffea2646970667358221220ebf9b58cdd25bbdb53fad4af7d3d0b314ca4847fcba4c87a3caf15f9f8cadd5d64736f6c634300060c0033","linkReferences":{}},"methodIdentifiers":{"selfDestruct()":"9cb8a26a"},"id":0}