{"abi":[{"type":"constructor","inputs":[{"name":"_dexInstance","type":"address","internalType":"address"},{"name":"_token1","type":"address","internalType":"address"},{"name":"_token2","type":"address","internalType":"address"}],"stateMutability":"nonpayable"},{"type":"receive","stateMutability":"payable"},{"type":"function","name":"swap","inputs":[{"name":"fromToken","type":"address","internalType":"address"},{"name":"amount","type":"uint256","internalType":"uint256"}],"outputs":[],"stateMutability":"nonpayable"}],"bytecode":{"object":"0x6080604052348015600e575f5ffd5b50604051610697380380610697833981016040819052602b916085565b600280546001600160a01b039485166001600160a01b0319918216179091555f8054938516938216939093179092556001805491909316911617905560be565b80516001600160a01b03811681146080575f5ffd5b919050565b5f5f5f606084860312156096575f5ffd5b609d84606b565b925060a960208501606b565b915060b560408501606b565b90509250925092565b6105cc806100cb5f395ff3fe608060405260043610610020575f3560e01c8063d004f0f714610328575f5ffd5b36610324575f80546002546040516370a0823160e01b81526001600160a01b0391821660048201529116906370a0823190602401602060405180830381865afa15801561006f573d5f5f3e3d5ffd5b505050506040513d601f19601f8201168201806040525081019061009391906104e2565b11801561010f57506001546002546040516370a0823160e01b81526001600160a01b0391821660048201525f9291909116906370a0823190602401602060405180830381865afa1580156100e9573d5f5f3e3d5ffd5b505050506040513d601f19601f8201168201806040525081019061010d91906104e2565b115b15610322575f80546002546040516370a0823160e01b81526001600160a01b0391821660048201529116906370a0823190602401602060405180830381865afa15801561015e573d5f5f3e3d5ffd5b505050506040513d601f19601f8201168201806040525081019061018291906104e2565b90505f5b61032081101561031f575f546002546040516323b872dd60e01b81526001600160a01b039182166004820152306024820152604481018590529116906323b872dd906064016020604051808303815f875af11580156101e7573d5f5f3e3d5ffd5b505050506040513d601f19601f8201168201806040525081019061020b91906104f9565b506001546002546040516370a0823160e01b81526001600160a01b039182166004820181905291909216916323b872dd9190309084906370a0823190602401602060405180830381865afa158015610265573d5f5f3e3d5ffd5b505050506040513d601f19601f8201168201806040525081019061028991906104e2565b6040517fffffffff0000000000000000000000000000000000000000000000000000000060e086901b1681526001600160a01b03938416600482015292909116602483015260448201526064016020604051808303815f875af11580156102f2573d5f5f3e3d5ffd5b505050506040513d601f19601f8201168201806040525081019061031691906104f9565b50600101610186565b50505b005b5f5ffd5b348015610333575f5ffd5b5061032261034236600461051f565b5f546040516323b872dd60e01b8152336004820152306024820152604481018390526001600160a01b03909116906323b872dd906064016020604051808303815f875af1158015610395573d5f5f3e3d5ffd5b505050506040513d601f19601f820116820180604052508101906103b991906104f9565b506001546040516323b872dd60e01b8152336004820152306024820152604481018390526001600160a01b03909116906323b872dd906064016020604051808303815f875af115801561040e573d5f5f3e3d5ffd5b505050506040513d601f19601f8201168201806040525081019061043291906104f9565b505f54600280546001600160a01b039283169263a9059cbb92911690610459908590610554565b6040517fffffffff0000000000000000000000000000000000000000000000000000000060e085901b1681526001600160a01b03909216600483015260248201526044016020604051808303815f875af11580156104b9573d5f5f3e3d5ffd5b505050506040513d601f19601f820116820180604052508101906104dd91906104f9565b505050565b5f602082840312156104f2575f5ffd5b5051919050565b5f60208284031215610509575f5ffd5b81518015158114610518575f5ffd5b9392505050565b5f5f60408385031215610530575f5ffd5b82356001600160a01b0381168114610546575f5ffd5b946020939093013593505050565b8082028115828204841417610590577f4e487b71000000000000000000000000000000000000000000000000000000005f52601160045260245ffd5b9291505056fea26469706673582212203aa523bacffb3ec042f9835ba67b4c2ce255562ff54fe37440effb523c98748764736f6c634300081c0033","linkReferences":{}},"methodIdentifiers":{"swap(address,uint256)":"d004f0f7"},"id":0}