{"abi":[{"type":"function","name":"doApprove","inputs":[{"name":"token","type":"address","internalType":"address"},{"name":"spender","type":"address","internalType":"address"},{"name":"amount","type":"uint256","internalType":"uint256"}],"outputs":[],"stateMutability":"nonpayable"},{"type":"function","name":"doTransferFrom","inputs":[{"name":"token","type":"address","internalType":"address"},{"name":"from","type":"address","internalType":"address"},{"name":"to","type":"address","internalType":"address"},{"name":"amount","type":"uint256","internalType":"uint256"}],"outputs":[],"stateMutability":"nonpayable"}],"bytecode":{"object":"0x6080604052348015600e575f5ffd5b506102a78061001c5f395ff3fe608060405234801561000f575f5ffd5b5060043610610034575f3560e01c8063af47c6ef14610038578063dfc4a5161461004d575b5f5ffd5b61004b6100463660046101c9565b610060565b005b61004b61005b366004610211565b610105565b6040517f23b872dd00000000000000000000000000000000000000000000000000000000815273ffffffffffffffffffffffffffffffffffffffff84811660048301528381166024830152604482018390528516906323b872dd906064016020604051808303815f875af11580156100da573d5f5f3e3d5ffd5b505050506040513d601f19601f820116820180604052508101906100fe919061024b565b5050505050565b6040517f095ea7b300000000000000000000000000000000000000000000000000000000815273ffffffffffffffffffffffffffffffffffffffff83811660048301526024820183905284169063095ea7b3906044016020604051808303815f875af1158015610177573d5f5f3e3d5ffd5b505050506040513d601f19601f8201168201806040525081019061019b919061024b565b50505050565b803573ffffffffffffffffffffffffffffffffffffffff811681146101c4575f5ffd5b919050565b5f5f5f5f608085870312156101dc575f5ffd5b6101e5856101a1565b93506101f3602086016101a1565b9250610201604086016101a1565b9396929550929360600135925050565b5f5f5f60608486031215610223575f5ffd5b61022c846101a1565b925061023a602085016101a1565b929592945050506040919091013590565b5f6020828403121561025b575f5ffd5b8151801515811461026a575f5ffd5b939250505056fea26469706673582212206550a6a2039415094212836106030c00ef30d99a9caf0d4ee9ebbfd0a75a47a264736f6c634300081c0033","linkReferences":{}},"methodIdentifiers":{"doApprove(address,address,uint256)":"dfc4a516","doTransferFrom(address,address,address,uint256)":"af47c6ef"},"id":0}