{"abi":[{"type":"function","name":"readPassword","inputs":[{"name":"instance","type":"address","internalType":"address"}],"outputs":[{"name":"","type":"string","internalType":"string"}],"stateMutability":"view"}],"bytecode":{"object":"0x6080604052348015600e575f5ffd5b5061026e8061001c5f395ff3fe608060405234801561000f575f5ffd5b5060043610610029575f3560e01c8063d1c380d31461002d575b5f5ffd5b61004061003b3660046100cd565b610056565b60405161004d9190610129565b60405180910390f35b60608173ffffffffffffffffffffffffffffffffffffffff1663224b610b6040518163ffffffff1660e01b81526004015f60405180830381865afa1580156100a0573d5f5f3e3d5ffd5b505050506040513d5f823e601f3d908101601f191682016040526100c79190810190610188565b92915050565b5f602082840312156100dd575f5ffd5b813573ffffffffffffffffffffffffffffffffffffffff81168114610100575f5ffd5b9392505050565b5f5b83811015610121578181015183820152602001610109565b50505f910152565b602081525f8251806020840152610147816040850160208701610107565b601f01601f19169190910160400192915050565b7f4e487b71000000000000000000000000000000000000000000000000000000005f52604160045260245ffd5b5f60208284031215610198575f5ffd5b815167ffffffffffffffff8111156101ae575f5ffd5b8201601f810184136101be575f5ffd5b805167ffffffffffffffff8111156101d8576101d861015b565b604051601f8201601f19908116603f0116810167ffffffffffffffff811182821017156102075761020761015b565b60405281815282820160200186101561021e575f5ffd5b61022f826020830160208601610107565b9594505050505056fea2646970667358221220626bc17e6a1d8551b0fbbc4ce9ac2e08f3df073931638d5ea0107ba7b6e7845d64736f6c634300081c0033","linkReferences":{}},"methodIdentifiers":{"readPassword(address)":"d1c380d3"},"id":0}