{"abi":[{"type":"constructor","inputs":[{"name":"_doubleEntryPoint","type":"address","internalType":"address"}],"stateMutability":"nonpayable"},{"type":"function","name":"doubleEntryPoint","inputs":[],"outputs":[{"name":"","type":"address","internalType":"address"}],"stateMutability":"view"},{"type":"function","name":"handleTransaction","inputs":[{"name":"user","type":"address","internalType":"address"},{"name":"msgData","type":"bytes","internalType":"bytes"}],"outputs":[],"stateMutability":"nonpayable"}],"bytecode":{"object":"0x6080604052348015600e575f5ffd5b50604051610367380380610367833981016040819052602b91604e565b5f80546001600160a01b0319166001600160a01b03929092169190911790556079565b5f60208284031215605d575f5ffd5b81516001600160a01b03811681146072575f5ffd5b9392505050565b6102e1806100865f395ff3fe608060405234801561000f575f5ffd5b5060043610610034575f3560e01c806314a421e714610038578063220ab6aa14610080575b5f5ffd5b5f546100579073ffffffffffffffffffffffffffffffffffffffff1681565b60405173ffffffffffffffffffffffffffffffffffffffff909116815260200160405180910390f35b61009361008e3660046101e7565b610095565b005b5f805460408051306024820152612710604482015273ffffffffffffffffffffffffffffffffffffffff87811660648084019190915283518084039091018152608490920183526020820180517bffffffffffffffffffffffffffffffffffffffffffffffffffffffff167f9cd1a12100000000000000000000000000000000000000000000000000000000179052915191909216916101349161027f565b5f604051808303815f865af19150503d805f811461016d576040519150601f19603f3d011682016040523d82523d5f602084013e610172565b606091505b50509050806101e1576040517f08c379a000000000000000000000000000000000000000000000000000000000815260206004820152600b60248201527f43616c6c206661696c6564000000000000000000000000000000000000000000604482015260640160405180910390fd5b50505050565b5f5f5f604084860312156101f9575f5ffd5b833573ffffffffffffffffffffffffffffffffffffffff8116811461021c575f5ffd5b9250602084013567ffffffffffffffff811115610237575f5ffd5b8401601f81018613610247575f5ffd5b803567ffffffffffffffff81111561025d575f5ffd5b86602082840101111561026e575f5ffd5b939660209190910195509293505050565b5f82515f5b8181101561029e5760208186018101518583015201610284565b505f92019182525091905056fea2646970667358221220dd8a0ced38b5f4c241dd06e3832a953758021f1b568e7bb008bca6fe252464fa64736f6c634300081c0033","linkReferences":{}},"methodIdentifiers":{"doubleEntryPoint()":"14a421e7","handleTransaction(address,bytes)":"220ab6aa"},"id":0}