{"abi":[{"type":"constructor","inputs":[{"name":"_tokenAddress","type":"address","internalType":"address"}],"stateMutability":"nonpayable"},{"type":"function","name":"attack","inputs":[],"outputs":[],"stateMutability":"nonpayable"},{"type":"function","name":"tokenAddress","inputs":[],"outputs":[{"name":"","type":"address","internalType":"address"}],"stateMutability":"view"}],"bytecode":{"object":"0x608060405234801561001057600080fd5b506040516102c73803806102c78339818101604052602081101561003357600080fd5b5051600080546001600160a01b039092166001600160a01b0319909216919091179055610262806100656000396000f3fe608060405234801561001057600080fd5b50600436106100365760003560e01c80639d76ea581461003b5780639e5faafc1461006c575b600080fd5b610043610076565b6040805173ffffffffffffffffffffffffffffffffffffffff9092168252519081900360200190f35b610074610092565b005b60005473ffffffffffffffffffffffffffffffffffffffff1681565b6000805460408051336024820152670de0b6b3a764000060448083019190915282518083039091018152606490910182526020810180517bffffffffffffffffffffffffffffffffffffffffffffffffffffffff167fa9059cbb000000000000000000000000000000000000000000000000000000001781529151815173ffffffffffffffffffffffffffffffffffffffff90941693919290918291908083835b602083106101525780518252601f199092019160209182019101610133565b6001836020036101000a0380198251168184511680821785525050505050509050019150506000604051808303816000865af19150503d80600081146101b4576040519150601f19603f3d011682016040523d82523d6000602084013e6101b9565b606091505b505090508061022957604080517f08c379a000000000000000000000000000000000000000000000000000000000815260206004820152600f60248201527f5472616e73666572206661696c65640000000000000000000000000000000000604482015290519081900360640190fd5b5056fea2646970667358221220d7b4872721200414b6fdfbec69c15c2884be365db27a4da6c213c029a7385dbc64736f6c634300060c0033","linkReferences":{}},"methodIdentifiers":{"attack()":"9e5faafc","tokenAddress()":"9d76ea58"},"id":0}