{"abi":[{"type":"function","name":"generateSignature","inputs":[{"name":"lockId","type":"uint256","internalType":"uint256"},{"name":"signer","type":"address","internalType":"address"}],"outputs":[{"name":"v","type":"uint8","internalType":"uint8"},{"name":"r","type":"bytes32","internalType":"bytes32"},{"name":"s","type":"bytes32","internalType":"bytes32"}],"stateMutability":"pure"}],"bytecode":{"object":"0x6080604052348015600e575f5ffd5b5061017e8061001c5f395ff3fe608060405234801561000f575f5ffd5b5060043610610029575f3560e01c8063124f85511461002d575b5f5ffd5b61004061003b3660046100d2565b610063565b6040805160ff909416845260208401929092529082015260600160405180910390f35b5f5f5f5f6040518060400160405280601c81526020017f19457468657265756d205369676e6564204d6573736167653a0a33320000000081525090505f81876040516020016100b3929190610118565b60408051808303601f190190525250601b965f96508695509350505050565b5f5f604083850312156100e3575f5ffd5b82359150602083013573ffffffffffffffffffffffffffffffffffffffff8116811461010d575f5ffd5b809150509250929050565b5f83515f5b81811015610137576020818701810151858301520161011d565b50919091019182525060200191905056fea2646970667358221220eb5505a34c41e55b532363b423289b7ce47dc502c32e8744f330fd866773fdfd64736f6c634300081c0033","linkReferences":{}},"methodIdentifiers":{"generateSignature(uint256,address)":"124f8551"},"id":0}