{"abi":[{"type":"constructor","inputs":[{"name":"_instance","type":"address","internalType":"address"}],"stateMutability":"nonpayable"},{"type":"function","name":"attack","inputs":[],"outputs":[],"stateMutability":"nonpayable"},{"type":"function","name":"factory","inputs":[],"outputs":[{"name":"","type":"address","internalType":"address"}],"stateMutability":"view"},{"type":"function","name":"instance","inputs":[],"outputs":[{"name":"","type":"address","internalType":"address"}],"stateMutability":"view"}],"bytecode":{"object":"0x6080604052600180546001600160a01b031916735fbdb2315678afecb367f032d93f642f64180aa31790553480156034575f5ffd5b5060405161021a38038061021a8339810160408190526051916074565b5f80546001600160a01b0319166001600160a01b0392909216919091179055609f565b5f602082840312156083575f5ffd5b81516001600160a01b03811681146098575f5ffd5b9392505050565b61016e806100ac5f395ff3fe608060405234801561000f575f5ffd5b506004361061003f575f3560e01c8063022ec095146100435780639e5faafc1461008b578063c45a015514610095575b5f5ffd5b5f546100629073ffffffffffffffffffffffffffffffffffffffff1681565b60405173ffffffffffffffffffffffffffffffffffffffff909116815260200160405180910390f35b6100936100b5565b005b6001546100629073ffffffffffffffffffffffffffffffffffffffff1681565b5f546001546040517fa6f9dae100000000000000000000000000000000000000000000000000000000815273ffffffffffffffffffffffffffffffffffffffff918216600482015291169063a6f9dae1906024015f604051808303815f87803b158015610120575f5ffd5b505af1158015610132573d5f5f3e3d5ffd5b5050505056fea26469706673582212208f30c7fc6fe5250a2635812295dcc3e6c79259190534c1468619b7e3e70e020364736f6c634300081c0033","linkReferences":{}},"methodIdentifiers":{"attack()":"9e5faafc","factory()":"c45a0155","instance()":"022ec095"},"id":0}