{"abi":[{"type":"constructor","inputs":[{"name":"_locker","type":"address","internalType":"address"}],"stateMutability":"nonpayable"},{"type":"function","name":"attack","inputs":[],"outputs":[],"stateMutability":"nonpayable"},{"type":"function","name":"deployer","inputs":[],"outputs":[{"name":"","type":"address","internalType":"address"}],"stateMutability":"view"},{"type":"function","name":"getController","inputs":[],"outputs":[{"name":"","type":"address","internalType":"address"}],"stateMutability":"view"},{"type":"function","name":"locker","inputs":[],"outputs":[{"name":"","type":"address","internalType":"contract IECLocker"}],"stateMutability":"view"},{"type":"event","name":"Debug","inputs":[{"name":"message","type":"string","indexed":false,"internalType":"string"},{"name":"value","type":"bytes32","indexed":false,"internalType":"bytes32"}],"anonymous":false},{"type":"event","name":"DebugAddress","inputs":[{"name":"message","type":"string","indexed":false,"internalType":"string"},{"name":"value","type":"address","indexed":false,"internalType":"address"}],"anonymous":false}],"bytecode":{"object":"0x6080604052348015600e575f5ffd5b50604051610767380380610767833981016040819052602b916057565b5f80546001600160a01b039092166001600160a01b031992831617905560018054909116331790556082565b5f602082840312156066575f5ffd5b81516001600160a01b0381168114607b575f5ffd5b9392505050565b6106d88061008f5f395ff3fe608060405234801561000f575f5ffd5b506004361061004a575f3560e01c80633018205f1461004e5780639e5faafc14610072578063d5f394881461007c578063d7b96d4e1461008f575b5f5ffd5b6100566100a1565b6040516001600160a01b03909116815260200160405180910390f35b61007a61011a565b005b600154610056906001600160a01b031681565b5f54610056906001600160a01b031681565b5f5f5f9054906101000a90046001600160a01b03166001600160a01b031663f77c47916040518163ffffffff1660e01b8152600401602060405180830381865afa1580156100f1573d5f5f3e3d5ffd5b505050506040513d601f19601f820116820180604052508101906101159190610631565b905090565b7ffffffffffffffffffffffffffffffffebaaedce6af48a03bbfd25e8cd0364141601b60015f61014a828561065e565b5f546001546040516303e8cd5760e41b815260ff8716600482015260248101869052604481018490526001600160a01b0391821660648201529293501690633e8cd570906084015f604051808303815f87803b1580156101a8575f5ffd5b505af19250505080156101b9575060015b610392575f546001546040516303e8cd5760e41b8152601c6004820181905260248201869052604482018590526001600160a01b0392831660648301529550911690633e8cd570906084015f604051808303815f87803b15801561021b575f5ffd5b505af192505050801561022c575060015b61032c5761023b600285610683565b5f546001546040516303e8cd5760e41b8152601b6004820181905260248201879052604482018590526001600160a01b03928316606483015296509293501690633e8cd570906084015f604051808303815f87803b15801561029b575f5ffd5b505af19250505080156102ac575060015b6102bd576102b86103fe565b6103f8565b60408051818152601d918101919091527f53756363657373207769746820763d32372c20723d312c20733d6e2f3200000060608201525f60208201527f9b727ad7a6d995527744fb3b7ccd68fd2d4a769c01209e041e1014abd3518113906080015b60405180910390a16103f8565b60408051818152601d918101919091527f53756363657373207769746820763d32382c20723d312c20733d6e2d3100000060608201525f60208201527f9b727ad7a6d995527744fb3b7ccd68fd2d4a769c01209e041e1014abd35181139060800161031f565b60408051818152601d818301527f53756363657373207769746820763d32372c20723d312c20733d6e2d3100000060608201525f602082015290517f9b727ad7a6d995527744fb3b7ccd68fd2d4a769c01209e041e1014abd35181139181900360800190a15b50505050565b5f546001546040516303e8cd5760e41b8152601b600482018190525f1960248301819052604483018190526001600160a01b039384166064840152909390928392911690633e8cd570906084015f604051808303815f87803b158015610462575f5ffd5b505af1925050508015610473575060015b6105cb5750505f80546001546040516303e8cd5760e41b81526004810184905260248101849052604481018490526001600160a01b039182166064820152929350839283929190911690633e8cd570906084015f604051808303815f87803b1580156104dd575f5ffd5b505af19250505080156104ee575060015b61056157604080518181526013918101919091527f416c6c20617474656d707473206661696c65640000000000000000000000000060608201525f60208201527f9b727ad7a6d995527744fb3b7ccd68fd2d4a769c01209e041e1014abd3518113906080015b60405180910390a1505050565b604080518181526018818301527f537563636573732077697468207a65726f2076616c756573000000000000000060608201525f602082015290517f9b727ad7a6d995527744fb3b7ccd68fd2d4a769c01209e041e1014abd35181139181900360800190a1505050565b604080518181526017918101919091527f537563636573732077697468206d61782076616c75657300000000000000000060608201525f60208201527f9b727ad7a6d995527744fb3b7ccd68fd2d4a769c01209e041e1014abd351811390608001610554565b5f60208284031215610641575f5ffd5b81516001600160a01b0381168114610657575f5ffd5b9392505050565b8181038181111561067d57634e487b7160e01b5f52601160045260245ffd5b92915050565b5f8261069d57634e487b7160e01b5f52601260045260245ffd5b50049056fea2646970667358221220f4cf73d6156f2d09518542e2a1d91f249710441641251a4bd73ea30bbf6e9e1d64736f6c634300081c0033","linkReferences":{}},"methodIdentifiers":{"attack()":"9e5faafc","deployer()":"d5f39488","getController()":"3018205f","locker()":"d7b96d4e"},"id":0}