{"abi":[{"type":"constructor","inputs":[{"name":"_impersonator","type":"address","internalType":"address"},{"name":"_factory","type":"address","internalType":"address"}],"stateMutability":"nonpayable"},{"type":"function","name":"attemptOwnershipTransfer","inputs":[],"outputs":[],"stateMutability":"nonpayable"},{"type":"function","name":"checkFactory","inputs":[],"outputs":[],"stateMutability":"nonpayable"},{"type":"function","name":"deployer","inputs":[],"outputs":[{"name":"","type":"address","internalType":"address"}],"stateMutability":"view"},{"type":"function","name":"exploitViaLocker","inputs":[{"name":"locker","type":"address","internalType":"address"}],"outputs":[],"stateMutability":"nonpayable"},{"type":"function","name":"factory","inputs":[],"outputs":[{"name":"","type":"address","internalType":"address"}],"stateMutability":"view"},{"type":"function","name":"impersonator","inputs":[],"outputs":[{"name":"","type":"address","internalType":"address"}],"stateMutability":"view"}],"bytecode":{"object":"0x60e060405234801561000f575f5ffd5b506040516104a53803806104a583398101604081905261002e91610064565b6001600160a01b039182166080521660a0523360c052610095565b80516001600160a01b038116811461005f575f5ffd5b919050565b5f5f60408385031215610075575f5ffd5b61007e83610049565b915061008c60208401610049565b90509250929050565b60805160a05160c0516103cc6100d95f395f818161010701526102e801525f818160e001528181610138015261023e01525f81816095015261031001526103cc5ff3fe608060405234801561000f575f5ffd5b506004361061006f575f3560e01c8063bd7d0a431161004d578063bd7d0a43146100d3578063c45a0155146100db578063d5f3948814610102575f5ffd5b806352a0e4eb1461007357806354ca1e011461007d5780638136fd9014610090575b5f5ffd5b61007b610129565b005b61007b61008b366004610369565b610205565b6100b77f000000000000000000000000000000000000000000000000000000000000000081565b6040516001600160a01b03909116815260200160405180910390f35b61007b6102b8565b6100b77f000000000000000000000000000000000000000000000000000000000000000081565b6100b77f000000000000000000000000000000000000000000000000000000000000000081565b6040515f906001600160a01b037f000000000000000000000000000000000000000000000000000000000000000016908281818181865af19150503d805f811461018e576040519150601f19603f3d011682016040523d82523d5f602084013e610193565b606091505b5050905080610202576040517f08c379a000000000000000000000000000000000000000000000000000000000815260206004820152601760248201527f466163746f727920686173206e6f2066616c6c6261636b000000000000000000604482015260640160405180910390fd5b50565b6040517f3e8cd570000000000000000000000000000000000000000000000000000000008152601b600482018190526001600160a01b037f00000000000000000000000000000000000000000000000000000000000000008116602484018190525f604485018190526064850182905285949192909190851690633e8cd570906084015f604051808303815f87803b15801561029f575f5ffd5b505af19250505080156102b0575060015b505050505050565b6040517ff2fde38b0000000000000000000000000000000000000000000000000000000081526001600160a01b037f0000000000000000000000000000000000000000000000000000000000000000811660048301527f0000000000000000000000000000000000000000000000000000000000000000169063f2fde38b906024015f604051808303815f87803b158015610351575f5ffd5b505af1158015610363573d5f5f3e3d5ffd5b50505050565b5f60208284031215610379575f5ffd5b81356001600160a01b038116811461038f575f5ffd5b939250505056fea2646970667358221220bc406a6b61600e76bdb0392b8f2ef602e16d60c7758b81f4f31bc05ebd131a0864736f6c634300081c0033","linkReferences":{}},"methodIdentifiers":{"attemptOwnershipTransfer()":"bd7d0a43","checkFactory()":"52a0e4eb","deployer()":"d5f39488","exploitViaLocker(address)":"54ca1e01","factory()":"c45a0155","impersonator()":"8136fd90"},"id":0}