{"abi":[{"type":"function","name":"getCodeSize","inputs":[{"name":"_addr","type":"address","internalType":"address"}],"outputs":[{"name":"","type":"uint256","internalType":"uint256"}],"stateMutability":"view"},{"type":"function","name":"readSlot","inputs":[{"name":"_addr","type":"address","internalType":"address"},{"name":"slot","type":"uint256","internalType":"uint256"}],"outputs":[{"name":"","type":"bytes32","internalType":"bytes32"}],"stateMutability":"view"}],"bytecode":{"object":"0x6080604052348015600e575f5ffd5b506101058061001c5f395ff3fe6080604052348015600e575f5ffd5b50600436106030575f3560e01c8063b51c4f96146034578063fdb070a5146055575b5f5ffd5b6043603f366004608d565b3b90565b60405190815260200160405180910390f35b6043606036600460aa565b54919050565b803573ffffffffffffffffffffffffffffffffffffffff811681146088575f5ffd5b919050565b5f60208284031215609c575f5ffd5b60a3826066565b9392505050565b5f5f6040838503121560ba575f5ffd5b60c1836066565b94602093909301359350505056fea2646970667358221220d8711be6d7cfe6753b9312444844ec9246e33c9dc69f534831976834d574b76864736f6c634300081c0033","linkReferences":{}},"methodIdentifiers":{"getCodeSize(address)":"b51c4f96","readSlot(address,uint256)":"fdb070a5"},"id":0}