{"abi":[{"type":"constructor","inputs":[{"name":"_denial","type":"address","internalType":"address payable"}],"stateMutability":"nonpayable"},{"type":"fallback","stateMutability":"payable"},{"type":"receive","stateMutability":"payable"},{"type":"function","name":"denial","inputs":[],"outputs":[{"name":"","type":"address","internalType":"address"}],"stateMutability":"view"},{"type":"function","name":"setPartnerV2","inputs":[],"outputs":[],"stateMutability":"nonpayable"}],"bytecode":{"object":"0x6080604052348015600e575f5ffd5b506040516102c63803806102c6833981016040819052602b91604e565b5f80546001600160a01b0319166001600160a01b03929092169190911790556079565b5f60208284031215605d575f5ffd5b81516001600160a01b03811681146072575f5ffd5b9392505050565b610240806100865f395ff3fe60806040526004361061002c575f3560e01c8063036b30111461003b57806377fa52951461004f57610033565b3661003357005b5b610034565b005b348015610046575f5ffd5b506100396100a3565b34801561005a575f5ffd5b505f5461007a9073ffffffffffffffffffffffffffffffffffffffff1681565b60405173ffffffffffffffffffffffffffffffffffffffff909116815260200160405180910390f35b5f805460405130602482015273ffffffffffffffffffffffffffffffffffffffff9091169060440160408051601f198184030181529181526020820180517bffffffffffffffffffffffffffffffffffffffffffffffffffffffff167f4e1c5914000000000000000000000000000000000000000000000000000000001790525161012e91906101de565b5f604051808303815f865af19150503d805f8114610167576040519150601f19603f3d011682016040523d82523d5f602084013e61016c565b606091505b50509050806101db576040517f08c379a000000000000000000000000000000000000000000000000000000000815260206004820152601260248201527f73657420706172746e6572206661696c65640000000000000000000000000000604482015260640160405180910390fd5b50565b5f82515f5b818110156101fd57602081860181015185830152016101e3565b505f92019182525091905056fea264697066735822122099b3cbf32ae7406fbb6a584e1266db4e5415c741913b3de174b3442d99049e0464736f6c634300081c0033","linkReferences":{}},"methodIdentifiers":{"denial()":"77fa5295","setPartnerV2()":"036b3011"},"id":0}