{"abi":[{"type":"constructor","inputs":[{"name":"_target","type":"address","internalType":"address"}],"stateMutability":"nonpayable"},{"type":"function","name":"attempt","inputs":[],"outputs":[],"stateMutability":"nonpayable"},{"type":"function","name":"solve","inputs":[],"outputs":[],"stateMutability":"nonpayable"}],"bytecode":{"object":"0x6080604052348015600e575f5ffd5b5060405161029b38038061029b833981016040819052602b91604e565b5f80546001600160a01b0319166001600160a01b03929092169190911790556079565b5f60208284031215605d575f5ffd5b81516001600160a01b03811681146072575f5ffd5b9392505050565b610215806100865f395ff3fe608060405234801561000f575f5ffd5b5060043610610034575f3560e01c8063732b7a8d14610038578063890d69081461003a575b5f5ffd5b005b6100385f80546040516324da12f560e21b81526004810183905273ffffffffffffffffffffffffffffffffffffffff909116906393684bd490602401602060405180830381865afa158015610091573d5f5f3e3d5ffd5b505050506040513d601f19601f820116820180604052508101906100b591906101c8565b5f80546040516324da12f560e21b815260016004820152929350909173ffffffffffffffffffffffffffffffffffffffff909116906393684bd490602401602060405180830381865afa15801561010e573d5f5f3e3d5ffd5b505050506040513d601f19601f8201168201806040525081019061013291906101c8565b90505f5f5f9054906101000a900473ffffffffffffffffffffffffffffffffffffffff1673ffffffffffffffffffffffffffffffffffffffff166326bad99e6040518163ffffffff1660e01b8152600401602060405180830381865afa15801561019e573d5f5f3e3d5ffd5b505050506040513d601f19601f820116820180604052508101906101c291906101c8565b50505050565b5f602082840312156101d8575f5ffd5b505191905056fea26469706673582212202a412dd641a52f969dc4ea957831f0de772fc6cc2bd85a78de67f2d5eb8058f564736f6c634300081c0033","linkReferences":{}},"methodIdentifiers":{"attempt()":"732b7a8d","solve()":"890d6908"},"id":0}