{"abi":[{"type":"constructor","inputs":[{"name":"_instance","type":"address","internalType":"address"}],"stateMutability":"nonpayable"},{"type":"fallback","stateMutability":"payable"},{"type":"function","name":"instance","inputs":[],"outputs":[{"name":"","type":"address","internalType":"contract IMagicNum"}],"stateMutability":"view"}],"bytecode":{"object":"0x60a0604052348015600e575f5ffd5b5060405161017a38038061017a833981016040819052602b916086565b6001600160a01b0381166080819052604051631f87943360e01b8152306004820152631f879433906024015f604051808303815f87803b158015606c575f5ffd5b505af1158015607d573d5f5f3e3d5ffd5b505050505060b1565b5f602082840312156095575f5ffd5b81516001600160a01b038116811460aa575f5ffd5b9392505050565b60805160b46100c65f395f6033015260b45ff3fe608060405260043610601b575f3560e01c8063022ec095146024575b602a5f5260015ff35b348015602e575f5ffd5b5060557f000000000000000000000000000000000000000000000000000000000000000081565b60405173ffffffffffffffffffffffffffffffffffffffff909116815260200160405180910390f3fea26469706673582212207d555d0a0d36c7c7639474bacf249be86749433a724adbb87a15dd0be973f72264736f6c634300081c0033","linkReferences":{}},"methodIdentifiers":{"instance()":"022ec095"},"id":0}