{"abi":[{"type":"constructor","inputs":[{"name":"_instance","type":"address","internalType":"address"}],"stateMutability":"nonpayable"},{"type":"function","name":"FACTOR","inputs":[],"outputs":[{"name":"","type":"uint256","internalType":"uint256"}],"stateMutability":"view"},{"type":"function","name":"attack","inputs":[],"outputs":[],"stateMutability":"nonpayable"},{"type":"function","name":"coinFlipInstance","inputs":[],"outputs":[{"name":"","type":"address","internalType":"contract CoinFlip"}],"stateMutability":"view"},{"type":"function","name":"consecutiveWins","inputs":[],"outputs":[{"name":"","type":"uint256","internalType":"uint256"}],"stateMutability":"view"},{"type":"function","name":"lastBlockValue","inputs":[],"outputs":[{"name":"","type":"uint256","internalType":"uint256"}],"stateMutability":"view"}],"bytecode":{"object":"0x6080604052348015600e575f5ffd5b50604051610443380380610443833981016040819052602b91604f565b600280546001600160a01b0319166001600160a01b0392909216919091179055607a565b5f60208284031215605e575f5ffd5b81516001600160a01b03811681146073575f5ffd5b9392505050565b6103bc806100875f395ff3fe608060405234801561000f575f5ffd5b5060043610610064575f3560e01c8063d8fc46751161004d578063d8fc467514610090578063e6f334d714610099578063fbe8dc7f146100a1575f5ffd5b806335815b95146100685780639e5faafc14610086575b5f5ffd5b610073600160ff1b81565b6040519081526020015b60405180910390f35b61008e6100cc565b005b61007360015481565b6100735f5481565b6002546100b4906001600160a01b031681565b6040516001600160a01b03909116815260200161007d565b600254604080517fe6f334d70000000000000000000000000000000000000000000000000000000081529051600a926001600160a01b03169163e6f334d79160048083019260209291908290030181865afa15801561012d573d5f5f3e3d5ffd5b505050506040513d601f19601f820116820180604052508101906101519190610305565b106101bc576040517f08c379a000000000000000000000000000000000000000000000000000000000815260206004820152601460248201527f4c6576656c20616c726561647920736f6c766564000000000000000000000000604482015260640160405180910390fd5b5f6101c860014361031c565b405f1c905080600154036101da575f5ffd5b60018190555f6101ee600160ff1b83610341565b90505f816001146101ff575f610202565b60015b6002546040517f1d263f6700000000000000000000000000000000000000000000000000000000815282151560048201529192506001600160a01b031690631d263f67906024016020604051808303815f875af1158015610265573d5f5f3e3d5ffd5b505050506040513d601f19601f820116820180604052508101906102899190610360565b5060025f9054906101000a90046001600160a01b03166001600160a01b031663e6f334d76040518163ffffffff1660e01b8152600401602060405180830381865afa1580156102da573d5f5f3e3d5ffd5b505050506040513d601f19601f820116820180604052508101906102fe9190610305565b5f55505050565b5f60208284031215610315575f5ffd5b5051919050565b8181038181111561033b57634e487b7160e01b5f52601160045260245ffd5b92915050565b5f8261035b57634e487b7160e01b5f52601260045260245ffd5b500490565b5f60208284031215610370575f5ffd5b8151801515811461037f575f5ffd5b939250505056fea2646970667358221220ebe7eaf95c112c96c813debe4e6b6a1edd5bf60e5733ed24934ba123ec61521764736f6c634300081c0033","linkReferences":{}},"methodIdentifiers":{"FACTOR()":"35815b95","attack()":"9e5faafc","coinFlipInstance()":"fbe8dc7f","consecutiveWins()":"e6f334d7","lastBlockValue()":"d8fc4675"},"id":0}