{"abi":[{"type":"constructor","inputs":[{"name":"_impersonator","type":"address","internalType":"address"},{"name":"_factory","type":"address","internalType":"address"}],"stateMutability":"nonpayable"},{"type":"function","name":"deployer","inputs":[],"outputs":[{"name":"","type":"address","internalType":"address"}],"stateMutability":"view"},{"type":"function","name":"factory","inputs":[],"outputs":[{"name":"","type":"address","internalType":"address"}],"stateMutability":"view"},{"type":"function","name":"impersonator","inputs":[],"outputs":[{"name":"","type":"address","internalType":"address"}],"stateMutability":"view"},{"type":"function","name":"transferOwnership","inputs":[{"name":"newOwner","type":"address","internalType":"address"}],"outputs":[],"stateMutability":"nonpayable"},{"type":"function","name":"tryDelegate","inputs":[],"outputs":[],"stateMutability":"nonpayable"},{"type":"function","name":"tryExecute","inputs":[],"outputs":[],"stateMutability":"nonpayable"}],"bytecode":{"object":"0x60e060405234801561000f575f5ffd5b5060405161061238038061061283398101604081905261002e91610064565b6001600160a01b039182166080521660a0523360c052610095565b80516001600160a01b038116811461005f575f5ffd5b919050565b5f5f60408385031215610075575f5ffd5b61007e83610049565b915061008c60208401610049565b90509250929050565b60805160a05160c05161051e6100f45f395f818160f401528181610136015261026001525f818160cd015281816101d0015281816102fa015261035c01525f81816078015281816101fd015281816103270152610406015261051e5ff3fe608060405234801561000f575f5ffd5b506004361061006f575f3560e01c8063c45a01551161004d578063c45a0155146100c8578063d5f39488146100ef578063f2fde38b14610116575f5ffd5b80638136fd90146100735780638c26cb97146100b6578063bbc1afc4146100c0575b5f5ffd5b61009a7f000000000000000000000000000000000000000000000000000000000000000081565b6040516001600160a01b03909116815260200160405180910390f35b6100be610129565b005b6100be610253565b61009a7f000000000000000000000000000000000000000000000000000000000000000081565b61009a7f000000000000000000000000000000000000000000000000000000000000000081565b6100be610124366004610460565b610351565b6040516001600160a01b037f00000000000000000000000000000000000000000000000000000000000000001660248201525f9060440160408051601f198184030181529181526020820180517bffffffffffffffffffffffffffffffffffffffffffffffffffffffff1663f2fde38b60e01b179052517f1cff79cd0000000000000000000000000000000000000000000000000000000081529091506001600160a01b037f00000000000000000000000000000000000000000000000000000000000000001690631cff79cd90610227907f000000000000000000000000000000000000000000000000000000000000000090859060040161048d565b5f604051808303815f87803b15801561023e575f5ffd5b505af192505050801561024f575060015b5050565b6040516001600160a01b037f00000000000000000000000000000000000000000000000000000000000000001660248201525f9060440160408051601f198184030181529181526020820180517bffffffffffffffffffffffffffffffffffffffffffffffffffffffff1663f2fde38b60e01b179052517fb10cc7280000000000000000000000000000000000000000000000000000000081529091506001600160a01b037f0000000000000000000000000000000000000000000000000000000000000000169063b10cc72890610227907f000000000000000000000000000000000000000000000000000000000000000090859060040161048d565b336001600160a01b037f000000000000000000000000000000000000000000000000000000000000000016146103e7576040517f08c379a000000000000000000000000000000000000000000000000000000000815260206004820152600c60248201527f4f6e6c7920666163746f72790000000000000000000000000000000000000000604482015260640160405180910390fd5b60405163f2fde38b60e01b81526001600160a01b0382811660048301527f0000000000000000000000000000000000000000000000000000000000000000169063f2fde38b906024015f604051808303815f87803b158015610447575f5ffd5b505af1158015610459573d5f5f3e3d5ffd5b5050505050565b5f60208284031215610470575f5ffd5b81356001600160a01b0381168114610486575f5ffd5b9392505050565b6001600160a01b0383168152604060208201525f82518060408401525f5b818110156104c857602081860181015160608684010152016104ab565b505f606082850101526060601f19601f830116840101915050939250505056fea264697066735822122080843fe518fea7356ebb1867da366137156f8a5489c928b4a88e8a57a86ec0ae64736f6c634300081c0033","linkReferences":{}},"methodIdentifiers":{"deployer()":"d5f39488","factory()":"c45a0155","impersonator()":"8136fd90","transferOwnership(address)":"f2fde38b","tryDelegate()":"bbc1afc4","tryExecute()":"8c26cb97"},"id":0}