{"abi":[{"type":"function","name":"checkNearbyAddresses","inputs":[{"name":"start","type":"address","internalType":"address"}],"outputs":[{"name":"","type":"string","internalType":"string"}],"stateMutability":"view"},{"type":"function","name":"scanForTokens","inputs":[{"name":"dexAddress","type":"address","internalType":"address"}],"outputs":[{"name":"token1","type":"address","internalType":"address"},{"name":"token2","type":"address","internalType":"address"},{"name":"token1Balance","type":"uint256","internalType":"uint256"},{"name":"token2Balance","type":"uint256","internalType":"uint256"},{"name":"found","type":"bool","internalType":"bool"}],"stateMutability":"view"}],"bytecode":{"object":"0x6080604052348015600e575f5ffd5b506109c38061001c5f395ff3fe608060405234801561000f575f5ffd5b5060043610610034575f3560e01c80634563327c146100385780634b7e80d214610061575b5f5ffd5b61004b6100463660046106fa565b6100a9565b604051610058919061073e565b60405180910390f35b61007461006f3660046106fa565b610225565b604080516001600160a01b0396871681529590941660208601529284019190915260608301521515608082015260a001610058565b60408051602081019091525f81526060906001600160a01b0383169060015b600a811161021d575f6100db8285610784565b9050803b801561020857836100ef8461058e565b60405160200161010092919061079d565b60408051601f19818403018152600483526024830182526020830180516001600160e01b03167f95d89b410000000000000000000000000000000000000000000000000000000017905290519095505f9182916001600160a01b038616916101679161081e565b5f60405180830381855afa9150503d805f811461019f576040519150601f19603f3d011682016040523d82523d5f602084013e6101a4565b606091505b50915091508180156101b657505f8151115b156101e257856040516020016101cc9190610839565b6040516020818303038152906040529550610205565b856040516020016101f39190610879565b60405160208183030381529060405295505b50505b50508080610215906108b9565b9150506100c8565b509392505050565b60408051600480825260248083018452602080840180516001600160e01b039081167fd21220a7000000000000000000000000000000000000000000000000000000001790915285519384529183018552820180519091167f25be124e0000000000000000000000000000000000000000000000000000000017905291515f92839283928392839291839081906001600160a01b038b16906102c890869061081e565b5f60405180830381855afa9150503d805f8114610300576040519150601f19603f3d011682016040523d82523d5f602084013e610305565b606091505b50915091505f5f8b6001600160a01b031685604051610324919061081e565b5f60405180830381855afa9150503d805f811461035c576040519150601f19603f3d011682016040523d82523d5f602084013e610361565b606091505b509150915083801561037557506020835110155b15610391578280602001905181019061038e91906108d1565b9a505b8180156103a057506020815110155b156103bc57808060200190518101906103b991906108d1565b99505b6001600160a01b038b161561048d576040516001600160a01b038d811660248301525f9182918e169060440160408051601f198184030181529181526020820180516001600160e01b03166370a0823160e01b1790525161041d919061081e565b5f60405180830381855afa9150503d805f8114610455576040519150601f19603f3d011682016040523d82523d5f602084013e61045a565b606091505b509150915081801561046e57506020815110155b1561048a578080602001905181019061048791906108ec565b9a505b50505b6001600160a01b038a161561055e576040516001600160a01b038d811660248301525f9182918d169060440160408051601f198184030181529181526020820180516001600160e01b03166370a0823160e01b179052516104ee919061081e565b5f60405180830381855afa9150503d805f8114610526576040519150601f19603f3d011682016040523d82523d5f602084013e61052b565b606091505b509150915081801561053f57506020815110155b1561055b578080602001905181019061055891906108ec565b99505b50505b6001600160a01b038b1615158061057d57506001600160a01b038a1615155b965050505050505091939590929450565b6060815f036105d057505060408051808201909152600181527f3000000000000000000000000000000000000000000000000000000000000000602082015290565b815f5b81156105f957806105e3816108b9565b91506105f29050600a83610903565b91506105d3565b5f8167ffffffffffffffff81111561061357610613610922565b6040519080825280601f01601f19166020018201604052801561063d576020820181803683370190505b509050815b85156106da57610653600182610936565b90505f610661600a88610903565b61066c90600a610949565b6106769088610936565b610681906030610960565b90508060f81b83838151811061069957610699610979565b60200101907effffffffffffffffffffffffffffffffffffffffffffffffffffffffffffff191690815f1a9053506106d2600a88610903565b965050610642565b50949350505050565b6001600160a01b03811681146106f7575f5ffd5b50565b5f6020828403121561070a575f5ffd5b8135610715816106e3565b9392505050565b5f5b8381101561073657818101518382015260200161071e565b50505f910152565b602081525f825180602084015261075c81604085016020870161071c565b601f01601f19169190910160400192915050565b634e487b7160e01b5f52601160045260245ffd5b8082018082111561079757610797610770565b92915050565b5f83516107ae81846020880161071c565b7f436f6e7472616374206174202b0000000000000000000000000000000000000090830190815283516107e881600d84016020880161071c565b7f3a20000000000000000000000000000000000000000000000000000000000000600d9290910191820152600f01949350505050565b5f825161082f81846020870161071c565b9190910192915050565b5f825161084a81846020870161071c565b7f506f737369626c6520746f6b656e3b0000000000000000000000000000000000920191825250600f01919050565b5f825161088a81846020870161071c565b7f556e6b6e6f776e3b000000000000000000000000000000000000000000000000920191825250600801919050565b5f600182016108ca576108ca610770565b5060010190565b5f602082840312156108e1575f5ffd5b8151610715816106e3565b5f602082840312156108fc575f5ffd5b5051919050565b5f8261091d57634e487b7160e01b5f52601260045260245ffd5b500490565b634e487b7160e01b5f52604160045260245ffd5b8181038181111561079757610797610770565b808202811582820484141761079757610797610770565b60ff818116838216019081111561079757610797610770565b634e487b7160e01b5f52603260045260245ffdfea26469706673582212206dc6896736f7351c87589eb1b1af84d588fc9d42903d64ec1e85d27641f4068264736f6c634300081c0033","linkReferences":{}},"methodIdentifiers":{"checkNearbyAddresses(address)":"4563327c","scanForTokens(address)":"4b7e80d2"},"id":0}