{"abi":[{"type":"constructor","inputs":[],"stateMutability":"nonpayable"},{"type":"function","name":"destroyToken","inputs":[],"outputs":[],"stateMutability":"nonpayable"},{"type":"function","name":"target","inputs":[],"outputs":[{"name":"","type":"address","internalType":"address"}],"stateMutability":"view"}],"bytecode":{"object":"0x6080604052348015600e575f5ffd5b50604080517fa16e02e87b7454126e5e10d957a927a7f5b5d2be0000000000000000000000006020808301919091525f6034808401829052845180850390910181526054909301909352815191012081546001600160a01b03191660609190911c1790556101518061007f5f395ff3fe608060405234801561000f575f5ffd5b5060043610610034575f3560e01c80632e4eaa1514610038578063d4b8399214610042575b5f5ffd5b61004061008a565b005b5f546100619073ffffffffffffffffffffffffffffffffffffffff1681565b60405173ffffffffffffffffffffffffffffffffffffffff909116815260200160405180910390f35b5f546040517ef55d9d00000000000000000000000000000000000000000000000000000000815273f39fd6e51aad88f6f4ce6ab8827279cfffb92266600482015273ffffffffffffffffffffffffffffffffffffffff9091169062f55d9d906024015f604051808303815f87803b158015610103575f5ffd5b505af1158015610115573d5f5f3e3d5ffd5b5050505056fea26469706673582212201812622b3cf36e7907f45d795021ffeefe5e72a30167e8c51c3b29965f83eaf664736f6c634300081c0033","linkReferences":{}},"methodIdentifiers":{"destroyToken()":"2e4eaa15","target()":"d4b83992"},"id":0}