{"abi":[{"type":"constructor","inputs":[{"name":"_recovery","type":"address","internalType":"address"}],"stateMutability":"nonpayable"},{"type":"function","name":"attack","inputs":[],"outputs":[],"stateMutability":"nonpayable"},{"type":"function","name":"getTokenAddress","inputs":[],"outputs":[{"name":"","type":"address","internalType":"address"}],"stateMutability":"view"}],"bytecode":{"object":"0x60a0604052348015600e575f5ffd5b50604051610233380380610233833981016040819052602b91603b565b6001600160a01b03166080526066565b5f60208284031215604a575f5ffd5b81516001600160a01b0381168114605f575f5ffd5b9392505050565b6080516101b861007b5f395f50506101b85ff3fe608060405234801561000f575f5ffd5b5060043610610034575f3560e01c806310fe9ae8146100385780639e5faafc146100a8575b5f5ffd5b604080517fa16e02e87b7454126e5e10d957a927a7f5b5d2be0000000000000000000000006020808301919091525f60348301528251601c818403018152603c83018085528151919092012073ffffffffffffffffffffffffffffffffffffffff169052905190819003605c0190f35b6100b06100b2565b005b5f610104604080517fa16e02e87b7454126e5e10d957a927a7f5b5d2be0000000000000000000000006020808301919091525f60348301528251601c818403018152603c909201909252805191012090565b6040517ef55d9d00000000000000000000000000000000000000000000000000000000815233600482015290915073ffffffffffffffffffffffffffffffffffffffff82169062f55d9d906024015f604051808303815f87803b158015610169575f5ffd5b505af115801561017b573d5f5f3e3d5ffd5b505050505056fea264697066735822122044581fedfa961dc49ee6ed5411f61f8b426b077f52261ae9ae331bd723d0e60164736f6c634300081c0033","linkReferences":{}},"methodIdentifiers":{"attack()":"9e5faafc","getTokenAddress()":"10fe9ae8"},"id":0}