{"abi":[{"type":"constructor","inputs":[{"name":"_targetInstance","type":"address","internalType":"address"}],"stateMutability":"nonpayable"},{"type":"fallback","stateMutability":"nonpayable"},{"type":"function","name":"setSolver","inputs":[],"outputs":[],"stateMutability":"nonpayable"},{"type":"function","name":"targetInstance","inputs":[],"outputs":[{"name":"","type":"address","internalType":"address"}],"stateMutability":"view"}],"bytecode":{"object":"0x6080604052348015600e575f5ffd5b5060405161032d38038061032d833981016040819052602b91604e565b5f80546001600160a01b0319166001600160a01b03929092169190911790556079565b5f60208284031215605d575f5ffd5b81516001600160a01b03811681146072575f5ffd5b9392505050565b6102a7806100865f395ff3fe608060405234801561000f575f5ffd5b5060043610610034575f3560e01c806357c7dfb614610148578063f769c3e014610150575b5f805460408051600481526024810182526020810180517bffffffffffffffffffffffffffffffffffffffffffffffffffffffff167f1f87943300000000000000000000000000000000000000000000000000000000179052905173ffffffffffffffffffffffffffffffffffffffff909216916100b29190610245565b5f604051808303815f865af19150503d805f81146100eb576040519150601f19603f3d011682016040523d82523d5f602084013e6100f0565b606091505b50509050806101465760405162461bcd60e51b815260206004820152601460248201527f46616c6c6261636b2063616c6c206661696c656400000000000000000000000060448201526064015b60405180910390fd5b005b610146610198565b5f5461016f9073ffffffffffffffffffffffffffffffffffffffff1681565b60405173ffffffffffffffffffffffffffffffffffffffff909116815260200160405180910390f35b5f805460405173ffffffffffffffffffffffffffffffffffffffff909116908281818181865af19150503d805f81146101ec576040519150601f19603f3d011682016040523d82523d5f602084013e6101f1565b606091505b50509050806102425760405162461bcd60e51b815260206004820152600b60248201527f43616c6c206661696c6564000000000000000000000000000000000000000000604482015260640161013d565b50565b5f82515f5b81811015610264576020818601810151858301520161024a565b505f92019182525091905056fea2646970667358221220da5496eb502d8a5cc2b50363856c035330e1e546e157efab18e3c8360219e4f064736f6c634300081c0033","linkReferences":{}},"methodIdentifiers":{"setSolver()":"57c7dfb6","targetInstance()":"f769c3e0"},"id":0}