{"abi":[{"type":"constructor","inputs":[],"stateMutability":"nonpayable"},{"type":"function","name":"attack","inputs":[{"name":"data","type":"bytes","internalType":"bytes"}],"outputs":[],"stateMutability":"nonpayable"},{"type":"function","name":"delegCallToDelegate","inputs":[{"name":"data","type":"bytes","internalType":"bytes"}],"outputs":[],"stateMutability":"nonpayable"}],"bytecode":{"object":"0x6080604052348015600e575f5ffd5b506102b28061001c5f395ff3fe608060405234801561000f575f5ffd5b5060043610610034575f3560e01c80633095c05714610038578063449b586d1461004d575b5f5ffd5b61004b6100463660046101ff565b610060565b005b61004b61005b3660046101ff565b610135565b5f73b7a5bd0345ef1cc5e66bf61bdec17d2461fbd96873ffffffffffffffffffffffffffffffffffffffff16838360405161009c92919061026d565b5f604051808303815f865af19150503d805f81146100d5576040519150601f19603f3d011682016040523d82523d5f602084013e6100da565b606091505b50509050806101305760405162461bcd60e51b815260206004820152600b60248201527f43616c6c206661696c656400000000000000000000000000000000000000000060448201526064015b60405180910390fd5b505050565b5f73b7a5bd0345ef1cc5e66bf61bdec17d2461fbd96873ffffffffffffffffffffffffffffffffffffffff16838360405161017192919061026d565b5f60405180830381855af49150503d805f81146101a9576040519150601f19603f3d011682016040523d82523d5f602084013e6101ae565b606091505b50509050806101305760405162461bcd60e51b815260206004820152601360248201527f44656c656761746563616c6c206661696c6564000000000000000000000000006044820152606401610127565b5f5f60208385031215610210575f5ffd5b823567ffffffffffffffff811115610226575f5ffd5b8301601f81018513610236575f5ffd5b803567ffffffffffffffff81111561024c575f5ffd5b85602082840101111561025d575f5ffd5b6020919091019590945092505050565b818382375f910190815291905056fea264697066735822122085fd5882c77b17a69d7a8724e276026fadd9cd036adf8357d80f995d8bb4e1cc64736f6c634300081c0033","linkReferences":{}},"methodIdentifiers":{"attack(bytes)":"3095c057","delegCallToDelegate(bytes)":"449b586d"},"id":0}