{"abi":[{"type":"constructor","inputs":[{"name":"_instance","type":"address","internalType":"address"}],"stateMutability":"nonpayable"},{"type":"function","name":"callPwn","inputs":[],"outputs":[],"stateMutability":"nonpayable"},{"type":"function","name":"instance","inputs":[],"outputs":[{"name":"","type":"address","internalType":"address"}],"stateMutability":"view"}],"bytecode":{"object":"0x6080604052348015600e575f5ffd5b506040516102a53803806102a5833981016040819052602b91604e565b5f80546001600160a01b0319166001600160a01b03929092169190911790556079565b5f60208284031215605d575f5ffd5b81516001600160a01b03811681146072575f5ffd5b9392505050565b61021f806100865f395ff3fe608060405234801561000f575f5ffd5b5060043610610034575f3560e01c8063022ec095146100385780632e25f46f14610080575b5f5ffd5b5f546100579073ffffffffffffffffffffffffffffffffffffffff1681565b60405173ffffffffffffffffffffffffffffffffffffffff909116815260200160405180910390f35b61008861008a565b005b5f805460408051600481526024810182526020810180517bffffffffffffffffffffffffffffffffffffffffffffffffffffffff167f7464c7a900000000000000000000000000000000000000000000000000000000908117909152915191939273ffffffffffffffffffffffffffffffffffffffff169161010c91906101bd565b5f604051808303815f865af19150503d805f8114610145576040519150601f19603f3d011682016040523d82523d5f602084013e61014a565b606091505b50509050806101b9576040517f08c379a000000000000000000000000000000000000000000000000000000000815260206004820152600b60248201527f43616c6c206661696c6564000000000000000000000000000000000000000000604482015260640160405180910390fd5b5050565b5f82515f5b818110156101dc57602081860181015185830152016101c2565b505f92019182525091905056fea264697066735822122099d7e631b1572487f34a17f1e28375d36e2dc4914dafc251ccf74198de2fc55864736f6c634300081c0033","linkReferences":{}},"methodIdentifiers":{"callPwn()":"2e25f46f","instance()":"022ec095"},"id":0}