{"abi":[{"type":"constructor","inputs":[{"name":"_denial","type":"address","internalType":"address payable"}],"stateMutability":"nonpayable"},{"type":"fallback","stateMutability":"payable"},{"type":"receive","stateMutability":"payable"},{"type":"function","name":"calls","inputs":[],"outputs":[{"name":"","type":"uint256","internalType":"uint256"}],"stateMutability":"view"},{"type":"function","name":"denial","inputs":[],"outputs":[{"name":"","type":"address","internalType":"address"}],"stateMutability":"view"},{"type":"function","name":"setPartner","inputs":[],"outputs":[],"stateMutability":"nonpayable"}],"bytecode":{"object":"0x6080604052348015600e575f5ffd5b50604051610437380380610437833981016040819052602b91604e565b5f80546001600160a01b0319166001600160a01b03929092169190911790556079565b5f60208284031215605d575f5ffd5b81516001600160a01b03811681146072575f5ffd5b9392505050565b6103b1806100865f395ff3fe608060405260043610610037575f3560e01c80632c88c5f814610168578063305f72b71461017c57806377fa5295146101a45761003e565b3661003e57005b6001805f82825461004f9190610311565b90915550505f805460408051600481526024810182526020810180517bffffffffffffffffffffffffffffffffffffffffffffffffffffffff167f3ccfd60b00000000000000000000000000000000000000000000000000000000179052905173ffffffffffffffffffffffffffffffffffffffff909216916100d2919061034f565b5f604051808303815f865af19150503d805f811461010b576040519150601f19603f3d011682016040523d82523d5f602084013e610110565b606091505b50509050806101665760405162461bcd60e51b815260206004820152601160248201527f7265656e7472616e6379206661696c656400000000000000000000000000000060448201526064015b60405180910390fd5b005b348015610173575f5ffd5b506101666101f4565b348015610187575f5ffd5b5061019160015481565b6040519081526020015b60405180910390f35b3480156101af575f5ffd5b505f546101cf9073ffffffffffffffffffffffffffffffffffffffff1681565b60405173ffffffffffffffffffffffffffffffffffffffff909116815260200161019b565b5f805460405130602482015273ffffffffffffffffffffffffffffffffffffffff9091169060440160408051601f198184030181529181526020820180517bffffffffffffffffffffffffffffffffffffffffffffffffffffffff167f4e1c5914000000000000000000000000000000000000000000000000000000001790525161027f919061034f565b5f604051808303815f865af19150503d805f81146102b8576040519150601f19603f3d011682016040523d82523d5f602084013e6102bd565b606091505b505090508061030e5760405162461bcd60e51b815260206004820152601260248201527f73657420706172746e6572206661696c65640000000000000000000000000000604482015260640161015d565b50565b80820180821115610349577f4e487b71000000000000000000000000000000000000000000000000000000005f52601160045260245ffd5b92915050565b5f82515f5b8181101561036e5760208186018101518583015201610354565b505f92019182525091905056fea2646970667358221220e152989f82ff511defdaadc35aeeb3074baf9c88e10c9aacf33468f0571d391364736f6c634300081c0033","linkReferences":{}},"methodIdentifiers":{"calls()":"305f72b7","denial()":"77fa5295","setPartner()":"2c88c5f8"},"id":0}