{"abi":[{"type":"constructor","inputs":[],"stateMutability":"nonpayable"},{"type":"function","name":"invalidate","inputs":[],"outputs":[],"stateMutability":"nonpayable"}],"bytecode":{"object":"0x6080604052348015600e575f5ffd5b50606780601a5f395ff3fe6080604052348015600e575f5ffd5b50600436106026575f3560e01c80639fb2fff414602a575b5f5ffd5b602f33ff5b00fea26469706673582212204546389e032a4529fc36291d08fda5ff9e76dda9a14d4c9be122352054f9e3ed64736f6c634300081c0033","linkReferences":{}},"methodIdentifiers":{"invalidate()":"9fb2fff4"},"id":0}