{"abi":[{"type":"constructor","inputs":[{"name":"_target","type":"address","internalType":"address"}],"stateMutability":"nonpayable"},{"type":"function","name":"checkWin","inputs":[],"outputs":[],"stateMutability":"nonpayable"},{"type":"function","name":"exploit","inputs":[],"outputs":[],"stateMutability":"nonpayable"}],"bytecode":{"object":"0x6080604052348015600e575f5ffd5b50604051610315380380610315833981016040819052602b91604e565b5f80546001600160a01b0319166001600160a01b03929092169190911790556079565b5f60208284031215605d575f5ffd5b81516001600160a01b03811681146072575f5ffd5b9392505050565b61028f806100865f395ff3fe608060405234801561000f575f5ffd5b5060043610610034575f3560e01c806363d9b77014610038578063d24481ea14610042575b5f5ffd5b61004061004a565b005b610040610140565b5f5f5f9054906101000a90046001600160a01b03166001600160a01b03166326bad99e6040518163ffffffff1660e01b8152600401602060405180830381865afa15801561009a573d5f5f3e3d5ffd5b505050506040513d601f19601f820116820180604052508101906100be9190610242565b5f546040517fab3b92240000000000000000000000000000000000000000000000000000000081529192506001600160a01b03169063ab3b9224906101109060040160208082525f9082015260400190565b5f604051808303815f87803b158015610127575f5ffd5b505af1158015610139573d5f5f3e3d5ffd5b5050505050565b5f5f5f9054906101000a90046001600160a01b03166001600160a01b03166326bad99e6040518163ffffffff1660e01b8152600401602060405180830381865afa158015610190573d5f5f3e3d5ffd5b505050506040513d601f19601f820116820180604052508101906101b49190610242565b5f80546040517f93684bd40000000000000000000000000000000000000000000000000000000081526004810184905292935090916001600160a01b03909116906393684bd490602401602060405180830381865afa158015610219573d5f5f3e3d5ffd5b505050506040513d601f19601f8201168201806040525081019061023d9190610242565b505050565b5f60208284031215610252575f5ffd5b505191905056fea264697066735822122090f3ffd5c2619c6b97b415ea7540a41155dc24f55240e5999419ae32fc200cb164736f6c634300081c0033","linkReferences":{}},"methodIdentifiers":{"checkWin()":"d24481ea","exploit()":"63d9b770"},"id":0}