{"abi":[{"type":"function","name":"setImplementation","inputs":[{"name":"slot","type":"bytes32","internalType":"bytes32"},{"name":"newImpl","type":"address","internalType":"address"}],"outputs":[],"stateMutability":"nonpayable"}],"bytecode":{"object":"0x6080604052348015600e575f5ffd5b5060b580601a5f395ff3fe6080604052348015600e575f5ffd5b50600436106026575f3560e01c80634640e9f214602a575b5f5ffd5b60396035366004603b565b9055565b005b5f5f60408385031215604b575f5ffd5b82359150602083013573ffffffffffffffffffffffffffffffffffffffff811681146074575f5ffd5b80915050925092905056fea2646970667358221220a62f6344e725a5c6ba38ce9592409a07518722605f1137ad34cccd41ee3c0a8d64736f6c634300081c0033","linkReferences":{}},"methodIdentifiers":{"setImplementation(bytes32,address)":"4640e9f2"},"id":0}