{"abi":[{"type":"function","name":"destroyToken","inputs":[{"name":"tokenAddress","type":"address","internalType":"address"}],"outputs":[],"stateMutability":"nonpayable"}],"bytecode":{"object":"0x6080604052348015600e575f5ffd5b506101b58061001c5f395ff3fe608060405234801561000f575f5ffd5b5060043610610029575f3560e01c806315b22d841461002d575b5f5ffd5b61004061003b366004610119565b610042565b005b6040513360248201525f9073ffffffffffffffffffffffffffffffffffffffff83169060440160408051601f198184030181529181526020820180517bffffffffffffffffffffffffffffffffffffffffffffffffffffffff167ef55d9d00000000000000000000000000000000000000000000000000000000179052516100ca9190610153565b5f604051808303815f865af19150503d805f8114610103576040519150601f19603f3d011682016040523d82523d5f602084013e610108565b606091505b5050905080610115575f5ffd5b5050565b5f60208284031215610129575f5ffd5b813573ffffffffffffffffffffffffffffffffffffffff8116811461014c575f5ffd5b9392505050565b5f82515f5b818110156101725760208186018101518583015201610158565b505f92019182525091905056fea2646970667358221220060073a8ce3d0066995f8261be2d1dcd65cdf917b588571ff712b5548d6759bc64736f6c634300081c0033","linkReferences":{}},"methodIdentifiers":{"destroyToken(address)":"15b22d84"},"id":0}