{"abi":[{"type":"constructor","inputs":[{"name":"_magicNum","type":"address","internalType":"address"}],"stateMutability":"nonpayable"},{"type":"function","name":"magicNum","inputs":[],"outputs":[{"name":"","type":"address","internalType":"address"}],"stateMutability":"view"},{"type":"function","name":"setAsSolver","inputs":[],"outputs":[],"stateMutability":"nonpayable"},{"type":"function","name":"whatIsTheMeaningOfLife","inputs":[],"outputs":[{"name":"","type":"uint8","internalType":"uint8"}],"stateMutability":"pure"}],"bytecode":{"object":"0x6080604052348015600e575f5ffd5b506040516101e03803806101e0833981016040819052602b91604e565b5f80546001600160a01b0319166001600160a01b03929092169190911790556079565b5f60208284031215605d575f5ffd5b81516001600160a01b03811681146072575f5ffd5b9392505050565b61015a806100865f395ff3fe608060405234801561000f575f5ffd5b506004361061003f575f3560e01c80633ee89d7014610043578063650500c11461004d578063efd603df14610061575b5f5ffd5b61004b6100a5565b005b604051602a81526020015b60405180910390f35b5f546100809073ffffffffffffffffffffffffffffffffffffffff1681565b60405173ffffffffffffffffffffffffffffffffffffffff9091168152602001610058565b5f546040517f1f87943300000000000000000000000000000000000000000000000000000000815230600482015273ffffffffffffffffffffffffffffffffffffffff90911690631f879433906024015f604051808303815f87803b15801561010c575f5ffd5b505af115801561011e573d5f5f3e3d5ffd5b5050505056fea2646970667358221220a76ff7363b2f6c70681d62643b43b2cf7659d1c96eb8b4413e68eb261f856c3a64736f6c634300081c0033","linkReferences":{}},"methodIdentifiers":{"magicNum()":"efd603df","setAsSolver()":"3ee89d70","whatIsTheMeaningOfLife()":"650500c1"},"id":0}