{"abi":[{"type":"function","name":"attemptImpersonation","inputs":[],"outputs":[],"stateMutability":"nonpayable"},{"type":"function","name":"checkController","inputs":[],"outputs":[{"name":"","type":"address","internalType":"address"}],"stateMutability":"view"}],"bytecode":{"object":"0x6080604052348015600e575f5ffd5b506102fe8061001c5f395ff3fe608060405234801561000f575f5ffd5b5060043610610034575f3560e01c80634fd6167d146100385780636aa9ba9614610042575b5f5ffd5b610040610073565b005b61004a610207565b60405173ffffffffffffffffffffffffffffffffffffffff909116815260200160405180910390f35b7f19457468657265756d205369676e6564204d6573736167653a0a3332000000005f908152610539601c52603c90206040516303e8cd5760e41b815260016004820181905260248201819052604482018190523060648301529081908190738ff3801288a85ea261e4277d44e1131ea736f77b90633e8cd570906084015f604051808303815f87803b158015610107575f5ffd5b505af1925050508015610118575060015b506040516303e8cd5760e41b8152601a6004820181905260248201849052604482018390523060648301529350738ff3801288a85ea261e4277d44e1131ea736f77b90633e8cd570906084015f604051808303815f87803b15801561017b575f5ffd5b505af192505050801561018c575060015b506040516303e8cd5760e41b8152601d6004820181905260248201849052604482018390523060648301529350738ff3801288a85ea261e4277d44e1131ea736f77b90633e8cd570906084015f604051808303815f87803b1580156101ef575f5ffd5b505af1925050508015610200575060015b5050505050565b5f738ff3801288a85ea261e4277d44e1131ea736f77b73ffffffffffffffffffffffffffffffffffffffff1663f77c47916040518163ffffffff1660e01b8152600401602060405180830381865afa158015610265573d5f5f3e3d5ffd5b505050506040513d601f19601f82011682018060405250810190610289919061028e565b905090565b5f6020828403121561029e575f5ffd5b815173ffffffffffffffffffffffffffffffffffffffff811681146102c1575f5ffd5b939250505056fea2646970667358221220a06f747181aacab6ba4054ffc50f7a9c7d5088d4c4b4c511fb76cf76aac6394864736f6c634300081c0033","linkReferences":{}},"methodIdentifiers":{"attemptImpersonation()":"4fd6167d","checkController()":"6aa9ba96"},"id":0}