{"abi":[{"type":"constructor","inputs":[{"name":"_naughtcoin","type":"address","internalType":"address"}],"stateMutability":"nonpayable"},{"type":"function","name":"drainTokens","inputs":[],"outputs":[],"stateMutability":"nonpayable"},{"type":"function","name":"naughtcoin","inputs":[],"outputs":[{"name":"","type":"address","internalType":"contract IERC20"}],"stateMutability":"view"}],"bytecode":{"object":"0x60a0604052348015600e575f5ffd5b506040516102fe3803806102fe833981016040819052602b91603b565b6001600160a01b03166080526066565b5f60208284031215604a575f5ffd5b81516001600160a01b0381168114605f575f5ffd5b9392505050565b60805161027461008a5f395f8181603d0152818160c2015261017e01526102745ff3fe608060405234801561000f575f5ffd5b5060043610610034575f3560e01c8063c7c65be814610038578063ef1706ce14610088575b5f5ffd5b61005f7f000000000000000000000000000000000000000000000000000000000000000081565b60405173ffffffffffffffffffffffffffffffffffffffff909116815260200160405180910390f35b610090610092565b005b6040517f70a082310000000000000000000000000000000000000000000000000000000081523360048201525f907f000000000000000000000000000000000000000000000000000000000000000073ffffffffffffffffffffffffffffffffffffffff16906370a0823190602401602060405180830381865afa15801561011c573d5f5f3e3d5ffd5b505050506040513d601f19601f820116820180604052508101906101409190610201565b6040517f23b872dd000000000000000000000000000000000000000000000000000000008152336004820152306024820152604481018290529091507f000000000000000000000000000000000000000000000000000000000000000073ffffffffffffffffffffffffffffffffffffffff16906323b872dd906064016020604051808303815f875af11580156101d9573d5f5f3e3d5ffd5b505050506040513d601f19601f820116820180604052508101906101fd9190610218565b5050565b5f60208284031215610211575f5ffd5b5051919050565b5f60208284031215610228575f5ffd5b81518015158114610237575f5ffd5b939250505056fea26469706673582212209c656d2027a2e2b585637dad2ebad88201517301b739bd1e0054f8f67a510e8664736f6c634300081c0033","linkReferences":{}},"methodIdentifiers":{"drainTokens()":"ef1706ce","naughtcoin()":"c7c65be8"},"id":0}