{"abi":[{"type":"constructor","inputs":[{"name":"_instance","type":"address","internalType":"address"}],"stateMutability":"nonpayable"},{"type":"function","name":"upgrade","inputs":[{"name":"implementation","type":"address","internalType":"address"}],"outputs":[],"stateMutability":"nonpayable"}],"bytecode":{"object":"0x6080604052348015600e575f5ffd5b506040516102da3803806102da833981016040819052602b91604e565b5f80546001600160a01b0319166001600160a01b03929092169190911790556079565b5f60208284031215605d575f5ffd5b81516001600160a01b03811681146072575f5ffd5b9392505050565b610254806100865f395ff3fe608060405234801561000f575f5ffd5b5060043610610029575f3560e01c80630900f0101461002d575b5f5ffd5b61004061003b3660046101b8565b610042565b005b5f80546040805173ffffffffffffffffffffffffffffffffffffffff858116602483015260448201839052600260648301527f30780000000000000000000000000000000000000000000000000000000000006084808401919091528351808403909101815260a490920183526020820180517bffffffffffffffffffffffffffffffffffffffffffffffffffffffff167fb72ffbe40000000000000000000000000000000000000000000000000000000017905291519190921691610107916101f2565b5f604051808303815f865af19150503d805f8114610140576040519150601f19603f3d011682016040523d82523d5f602084013e610145565b606091505b50509050806101b4576040517f08c379a000000000000000000000000000000000000000000000000000000000815260206004820152600e60248201527f55706772616465206661696c6564000000000000000000000000000000000000604482015260640160405180910390fd5b5050565b5f602082840312156101c8575f5ffd5b813573ffffffffffffffffffffffffffffffffffffffff811681146101eb575f5ffd5b9392505050565b5f82515f5b8181101561021157602081860181015185830152016101f7565b505f92019182525091905056fea2646970667358221220db4b1fa18d645597289667ad408e4f1414291e0668fcd4be3d4134320fe31ebd64736f6c634300081c0033","linkReferences":{}},"methodIdentifiers":{"upgrade(address)":"0900f010"},"id":0}