{"abi":[{"type":"function","name":"whatIsTheMagicNumber","inputs":[],"outputs":[{"name":"","type":"uint256","internalType":"uint256"}],"stateMutability":"pure"}],"bytecode":{"object":"0x6080604052348015600e575f5ffd5b50607480601a5f395ff3fe6080604052348015600e575f5ffd5b50600436106026575f3560e01c8063b9afacbd14602a575b5f5ffd5b602a60405190815260200160405180910390f3fea2646970667358221220e480c416d96623488d7c8e9fc3fb492db52d7fd83726c77422cc7f52cdffd78c64736f6c634300081c0033","linkReferences":{}},"methodIdentifiers":{"whatIsTheMagicNumber()":"b9afacbd"},"id":0}