{"abi":[{"type":"function","name":"horsePower","inputs":[],"outputs":[{"name":"","type":"uint256","internalType":"uint256"}],"stateMutability":"view"},{"type":"function","name":"initialize","inputs":[],"outputs":[],"stateMutability":"nonpayable"},{"type":"function","name":"upgrader","inputs":[],"outputs":[{"name":"","type":"address","internalType":"address"}],"stateMutability":"view"}],"bytecode":{"object":"0x608060405234801561001057600080fd5b5061022c806100206000396000f3fe608060405234801561001057600080fd5b50600436106100415760003560e01c8063564f6d71146100465780638129fc1c14610060578063af2697451461006a575b600080fd5b61004e61009b565b60408051918252519081900360200190f35b6100686100a1565b005b61007261018f565b6040805173ffffffffffffffffffffffffffffffffffffffff9092168252519081900360200190f35b60015481565b600054610100900460ff16806100ba57506100ba6101b1565b806100c8575060005460ff16155b61011d576040517f08c379a000000000000000000000000000000000000000000000000000000000815260040180806020018281038252602e8152602001806101c9602e913960400191505060405180910390fd5b600054610100900460ff16158015610148576000805460ff1961ff0019909116610100171660011790555b600080547fffffffffffffffffffff0000000000000000000000000000000000000000ffff16336201000002178155600155801561018c576000805461ff00191690555b50565b60005462010000900473ffffffffffffffffffffffffffffffffffffffff1681565b60006101bc306101c2565b15905090565b3b15159056fe496e697469616c697a61626c653a20636f6e747261637420697320616c726561647920696e697469616c697a6564a26469706673582212204611b0bff91dfab56f5d3249b030d9f38bc26e06c49cf5acddab01ba2398f82264736f6c634300060c0033","linkReferences":{}},"methodIdentifiers":{"horsePower()":"564f6d71","initialize()":"8129fc1c","upgrader()":"af269745"},"id":2}