{"abi":[{"type":"function","name":"getDexInfo","inputs":[{"name":"dex","type":"address","internalType":"address"}],"outputs":[{"name":"owner","type":"address","internalType":"address"},{"name":"token1","type":"address","internalType":"address"},{"name":"token2","type":"address","internalType":"address"},{"name":"hasTokens","type":"bool","internalType":"bool"}],"stateMutability":"view"}],"bytecode":{"object":"0x6080604052348015600e575f5ffd5b5061025a8061001c5f395ff3fe608060405234801561000f575f5ffd5b5060043610610029575f3560e01c80634942bb331461002d575b5f5ffd5b61004061003b3660046101e7565b61007e565b60405161007594939291906001600160a01b039485168152928416602084015292166040820152901515606082015260800190565b60405180910390f35b5f5f5f5f5f859050806001600160a01b0316638da5cb5b6040518163ffffffff1660e01b8152600401602060405180830381865afa9250505080156100e0575060408051601f3d908101601f191682019092526100dd91810190610209565b60015b6100ec575f94506100ef565b94505b806001600160a01b031663d21220a76040518163ffffffff1660e01b8152600401602060405180830381865afa925050508015610149575060408051601f3d908101601f1916820190925261014691810190610209565b60015b610158575f93505f915061015f565b9350600191505b806001600160a01b03166325be124e6040518163ffffffff1660e01b8152600401602060405180830381865afa9250505080156101b9575060408051601f3d908101601f191682019092526101b691810190610209565b60015b6101c5575f92506101c8565b92505b509193509193565b6001600160a01b03811681146101e4575f5ffd5b50565b5f602082840312156101f7575f5ffd5b8135610202816101d0565b9392505050565b5f60208284031215610219575f5ffd5b8151610202816101d056fea26469706673582212206b81b99817bf22cb7512f4a52a4e38c772c559246d58d376fb5f3545bbd702fe64736f6c634300081c0033","linkReferences":{}},"methodIdentifiers":{"getDexInfo(address)":"4942bb33"},"id":0}