{"abi":[{"type":"constructor","inputs":[{"name":"_instance","type":"address","internalType":"address"}],"stateMutability":"nonpayable"},{"type":"receive","stateMutability":"payable"},{"type":"function","name":"attack","inputs":[],"outputs":[],"stateMutability":"nonpayable"},{"type":"function","name":"drain","inputs":[],"outputs":[],"stateMutability":"nonpayable"},{"type":"function","name":"instance","inputs":[],"outputs":[{"name":"","type":"address","internalType":"contract IStake"}],"stateMutability":"view"}],"bytecode":{"object":"0x60a060405234801561000f575f5ffd5b506040516103e43803806103e483398101604081905261002e9161003f565b6001600160a01b031660805261006c565b5f6020828403121561004f575f5ffd5b81516001600160a01b0381168114610065575f5ffd5b9392505050565b60805161034661009e5f395f8181603e01528181608701528181610112015281816101a6015261029c01526103465ff3fe608060405260043610610036575f3560e01c8063022ec095146101015780639890220b146101505780639e5faafc14610164575f5ffd5b366100fd57337f00000000000000000000000000000000000000000000000000000000000000006001600160a01b0316036100fb576040516301b8d71d60e61b815266071afd498d000060048201527f00000000000000000000000000000000000000000000000000000000000000006001600160a01b031690636e35c740906024016020604051808303815f875af11580156100d5573d5f5f3e3d5ffd5b505050506040513d601f19601f820116820180604052508101906100f991906102d3565b505b005b5f5ffd5b34801561010c575f5ffd5b506101347f000000000000000000000000000000000000000000000000000000000000000081565b6040516001600160a01b03909116815260200160405180910390f35b34801561015b575f5ffd5b506100fb610178565b34801561016f575f5ffd5b506100fb610280565b6040517f7b2333190000000000000000000000000000000000000000000000000000000081523060048201527f00000000000000000000000000000000000000000000000000000000000000006001600160a01b03169063f1f1db1e908290637b23331990602401602060405180830381865afa1580156101fb573d5f5f3e3d5ffd5b505050506040513d601f19601f8201168201806040525081019061021f91906102f9565b6040518263ffffffff1660e01b815260040161023d91815260200190565b6020604051808303815f875af1158015610259573d5f5f3e3d5ffd5b505050506040513d601f19601f8201168201806040525081019061027d91906102d3565b50565b6040516301b8d71d60e61b815266071afd498d000060048201527f00000000000000000000000000000000000000000000000000000000000000006001600160a01b031690636e35c7409060240161023d565b5f602082840312156102e3575f5ffd5b815180151581146102f2575f5ffd5b9392505050565b5f60208284031215610309575f5ffd5b505191905056fea264697066735822122077567e0e680eb75d64f217da9abe83ba45d51123af89a2279da733f630b6dde464736f6c634300081c0033","linkReferences":{}},"methodIdentifiers":{"attack()":"9e5faafc","drain()":"9890220b","instance()":"022ec095"},"id":0}