{"abi":[{"type":"constructor","inputs":[{"name":"_target","type":"address","internalType":"address"}],"stateMutability":"nonpayable"},{"type":"function","name":"changeOwner","inputs":[],"outputs":[],"stateMutability":"nonpayable"},{"type":"function","name":"createAndInitiateTrick","inputs":[],"outputs":[],"stateMutability":"nonpayable"},{"type":"function","name":"enter","inputs":[],"outputs":[],"stateMutability":"nonpayable"},{"type":"function","name":"getBlockTimestamp","inputs":[],"outputs":[{"name":"","type":"uint256","internalType":"uint256"}],"stateMutability":"view"},{"type":"function","name":"setAllowance","inputs":[],"outputs":[],"stateMutability":"nonpayable"},{"type":"function","name":"target","inputs":[],"outputs":[{"name":"","type":"address","internalType":"contract IGatekeeperThree"}],"stateMutability":"view"}],"bytecode":{"object":"0x6080604052348015600e575f5ffd5b506040516104a33803806104a3833981016040819052602b91604e565b5f80546001600160a01b0319166001600160a01b03929092169190911790556079565b5f60208284031215605d575f5ffd5b81516001600160a01b03811681146072575f5ffd5b9392505050565b61041d806100865f395ff3fe608060405234801561000f575f5ffd5b506004361061006f575f3560e01c80639c315aa81161004d5780639c315aa814610098578063d4b83992146100a0578063e97dcb62146100ca575f5ffd5b8063531755731461007357806362a094771461007d578063796b89b914610085575b5f5ffd5b61007b6100d2565b005b61007b610142565b6040514281526020015b60405180910390f35b61007b61019a565b5f546100b2906001600160a01b031681565b6040516001600160a01b03909116815260200161008f565b61007b6102b8565b5f8054604080517ff7edf09900000000000000000000000000000000000000000000000000000000815290516001600160a01b039092169263f7edf0999260048084019382900301818387803b15801561012a575f5ffd5b505af115801561013c573d5f5f3e3d5ffd5b50505050565b5f8054604080517fb9966e5600000000000000000000000000000000000000000000000000000000815290516001600160a01b039092169263b9966e569260048084019382900301818387803b15801561012a575f5ffd5b5f425f80546040516024810184905292935090916001600160a01b039091169060440160408051601f198184030181529181526020820180517bffffffffffffffffffffffffffffffffffffffffffffffffffffffff167fc960174e000000000000000000000000000000000000000000000000000000001790525161022091906103bb565b5f604051808303815f865af19150503d805f8114610259576040519150601f19603f3d011682016040523d82523d5f602084013e61025e565b606091505b50509050806102b45760405162461bcd60e51b815260206004820152601860248201527f676574416c6c6f77616e63652063616c6c206661696c6564000000000000000060448201526064015b60405180910390fd5b5050565b5f805460408051600481526024810182526020810180517bffffffffffffffffffffffffffffffffffffffffffffffffffffffff167fe97dcb620000000000000000000000000000000000000000000000000000000017905290516001600160a01b039092169161032991906103bb565b5f604051808303815f865af19150503d805f8114610362576040519150601f19603f3d011682016040523d82523d5f602084013e610367565b606091505b50509050806103b85760405162461bcd60e51b815260206004820152600c60248201527f456e746572206661696c6564000000000000000000000000000000000000000060448201526064016102ab565b50565b5f82515f5b818110156103da57602081860181015185830152016103c0565b505f92019182525091905056fea2646970667358221220381b5e699d61c706ef0602a4d28f8741e56c5254373ad0fcef93520188d7bd7964736f6c634300081c0033","linkReferences":{}},"methodIdentifiers":{"changeOwner()":"62a09477","createAndInitiateTrick()":"53175573","enter()":"e97dcb62","getBlockTimestamp()":"796b89b9","setAllowance()":"9c315aa8","target()":"d4b83992"},"id":0}