{"abi":[{"type":"constructor","inputs":[{"name":"_instance","type":"address","internalType":"address"}],"stateMutability":"nonpayable"},{"type":"function","name":"buyHack","inputs":[],"outputs":[],"stateMutability":"nonpayable"},{"type":"function","name":"instance","inputs":[],"outputs":[{"name":"","type":"address","internalType":"address"}],"stateMutability":"view"},{"type":"function","name":"price","inputs":[],"outputs":[{"name":"","type":"uint256","internalType":"uint256"}],"stateMutability":"view"}],"bytecode":{"object":"0x6080604052348015600e575f5ffd5b506040516101ea3803806101ea833981016040819052602b916053565b5f80546001600160a01b0319166001600160a01b039290921691909117905560c8600155607e565b5f602082840312156062575f5ffd5b81516001600160a01b03811681146077575f5ffd5b9392505050565b61015f8061008b5f395ff3fe608060405234801561000f575f5ffd5b506004361061003f575f3560e01c8063022ec09514610043578063a035b1fe1461008c578063d77e85541461009d575b5f5ffd5b5f546100629073ffffffffffffffffffffffffffffffffffffffff1681565b60405173ffffffffffffffffffffffffffffffffffffffff90911681526020015b60405180910390f35b600154604051908152602001610083565b6100a56100a7565b005b5f8054604080517fa6f2ae3a000000000000000000000000000000000000000000000000000000008152905173ffffffffffffffffffffffffffffffffffffffff90921692839263a6f2ae3a92600480820193929182900301818387803b158015610110575f5ffd5b505af1158015610122573d5f5f3e3d5ffd5b505050505056fea2646970667358221220709d038ce5071040b526a52a1fd2c1738d16c0071e4819ed63b6ade91557655b64736f6c634300081c0033","linkReferences":{}},"methodIdentifiers":{"buyHack()":"d77e8554","instance()":"022ec095","price()":"a035b1fe"},"id":0}