{"abi":[{"type":"constructor","inputs":[{"name":"_dex","type":"address","internalType":"address"}],"stateMutability":"nonpayable"},{"type":"function","name":"checkDrained","inputs":[],"outputs":[{"name":"","type":"bool","internalType":"bool"},{"name":"","type":"uint256","internalType":"uint256"},{"name":"","type":"uint256","internalType":"uint256"}],"stateMutability":"view"},{"type":"function","name":"dex","inputs":[],"outputs":[{"name":"","type":"address","internalType":"contract Dex"}],"stateMutability":"view"},{"type":"function","name":"drainDex","inputs":[],"outputs":[],"stateMutability":"nonpayable"},{"type":"function","name":"multiSwap","inputs":[{"name":"iterations","type":"uint256","internalType":"uint256"}],"outputs":[],"stateMutability":"nonpayable"},{"type":"function","name":"token1","inputs":[],"outputs":[{"name":"","type":"address","internalType":"address"}],"stateMutability":"view"},{"type":"function","name":"token2","inputs":[],"outputs":[{"name":"","type":"address","internalType":"address"}],"stateMutability":"view"}],"bytecode":{"object":"0x6080604052348015600e575f5ffd5b506040516112cb3803806112cb833981016040819052602b91604e565b5f80546001600160a01b0319166001600160a01b03929092169190911790556079565b5f60208284031215605d575f5ffd5b81516001600160a01b03811681146072575f5ffd5b9392505050565b611245806100865f395ff3fe608060405234801561000f575f5ffd5b506004361061006f575f3560e01c8063692058c21161004d578063692058c2146100d2578063b156e205146100e4578063d21220a7146100f7575f5ffd5b80630db60e24146100735780630fabd1541461007d57806325be124e146100a7575b5f5ffd5b61007b61010a565b005b61008561085b565b6040805193151584526020840192909252908201526060015b60405180910390f35b6002546100ba906001600160a01b031681565b6040516001600160a01b03909116815260200161009e565b5f546100ba906001600160a01b031681565b61007b6100f2366004611136565b610998565b6001546100ba906001600160a01b031681565b5f5f9054906101000a90046001600160a01b03166001600160a01b031663d21220a76040518163ffffffff1660e01b8152600401602060405180830381865afa158015610159573d5f5f3e3d5ffd5b505050506040513d601f19601f8201168201806040525081019061017d919061114d565b6001805473ffffffffffffffffffffffffffffffffffffffff19166001600160a01b039283161790555f54604080516312df092760e11b8152905191909216916325be124e9160048083019260209291908290030181865afa1580156101e5573d5f5f3e3d5ffd5b505050506040513d601f19601f82011682018060405250810190610209919061114d565b6002805473ffffffffffffffffffffffffffffffffffffffff19166001600160a01b03928316179055600154161580159061024e57506002546001600160a01b031615155b61029f5760405162461bcd60e51b815260206004820152600e60248201527f546f6b656e73206e6f742073657400000000000000000000000000000000000060448201526064015b60405180910390fd5b5f5460405163095ea7b360e01b81526001600160a01b03909116600482018190525f1960248301529063095ea7b3906044015f604051808303815f87803b1580156102e8575f5ffd5b505af11580156102fa573d5f5f3e3d5ffd5b50505f8054600154604051633de222bb60e21b81526001600160a01b03918216600482015233602482015292945016915063f7888aec90604401602060405180830381865afa15801561034f573d5f5f3e3d5ffd5b505050506040513d601f19601f82011682018060405250810190610373919061117a565b5f8054600254604051633de222bb60e21b81526001600160a01b039182166004820152336024820152939450919291169063f7888aec90604401602060405180830381865afa1580156103c8573d5f5f3e3d5ffd5b505050506040513d601f19601f820116820180604052508101906103ec919061117a565b905081156105e8575f8054600154604051633de222bb60e21b81526001600160a01b0391821660048201529116602482018190529063f7888aec90604401602060405180830381865afa158015610445573d5f5f3e3d5ffd5b505050506040513d601f19601f82011682018060405250810190610469919061117a565b5f8054600254604051633de222bb60e21b81526001600160a01b03918216600482015291166024820181905292935090919063f7888aec90604401602060405180830381865afa1580156104bf573d5f5f3e3d5ffd5b505050506040513d601f19601f820116820180604052508101906104e3919061117a565b5f805460015460025460405163bfd7e00d60e01b81526001600160a01b039283166004820152908216602482015260448101899052939450879391169063bfd7e00d90606401602060405180830381865afa158015610544573d5f5f3e3d5ffd5b505050506040513d601f19601f82011682018060405250810190610568919061117a565b905082811115610576578391505b5f54600154600254604051630df791e560e41b81526001600160a01b03928316600482015290821660248201526044810185905291169063df791e50906064015f604051808303815f87803b1580156105cd575f5ffd5b505af11580156105df573d5f5f3e3d5ffd5b50505050505050505b5f54600254604051633de222bb60e21b81526001600160a01b03918216600482015233602482015291169063f7888aec90604401602060405180830381865afa158015610637573d5f5f3e3d5ffd5b505050506040513d601f19601f8201168201806040525081019061065b919061117a565b90508015610857575f8054600154604051633de222bb60e21b81526001600160a01b0391821660048201529116602482018190529063f7888aec90604401602060405180830381865afa1580156106b4573d5f5f3e3d5ffd5b505050506040513d601f19601f820116820180604052508101906106d8919061117a565b5f8054600254604051633de222bb60e21b81526001600160a01b03918216600482015291166024820181905292935090919063f7888aec90604401602060405180830381865afa15801561072e573d5f5f3e3d5ffd5b505050506040513d601f19601f82011682018060405250810190610752919061117a565b5f805460025460015460405163bfd7e00d60e01b81526001600160a01b039283166004820152908216602482015260448101889052939450869391169063bfd7e00d90606401602060405180830381865afa1580156107b3573d5f5f3e3d5ffd5b505050506040513d601f19601f820116820180604052508101906107d7919061117a565b9050838111156107e5578291505b5f54600254600154604051630df791e560e41b81526001600160a01b03928316600482015290821660248201526044810185905291169063df791e50906064015f604051808303815f87803b15801561083c575f5ffd5b505af115801561084e573d5f5f3e3d5ffd5b50505050505050505b5050565b6001545f90819081906001600160a01b0316158061088257506002546001600160a01b0316155b1561089257505f92839250829150565b5f8054600154604051633de222bb60e21b81526001600160a01b0391821660048201529116602482018190529063f7888aec90604401602060405180830381865afa1580156108e3573d5f5f3e3d5ffd5b505050506040513d601f19601f82011682018060405250810190610907919061117a565b5f8054600254604051633de222bb60e21b81526001600160a01b03918216600482015291166024820181905292935090919063f7888aec90604401602060405180830381865afa15801561095d573d5f5f3e3d5ffd5b505050506040513d601f19601f82011682018060405250810190610981919061117a565b905081158061098e575080155b9591945092509050565b5f5f9054906101000a90046001600160a01b03166001600160a01b031663d21220a76040518163ffffffff1660e01b8152600401602060405180830381865afa1580156109e7573d5f5f3e3d5ffd5b505050506040513d601f19601f82011682018060405250810190610a0b919061114d565b6001805473ffffffffffffffffffffffffffffffffffffffff19166001600160a01b039283161790555f54604080516312df092760e11b8152905191909216916325be124e9160048083019260209291908290030181865afa158015610a73573d5f5f3e3d5ffd5b505050506040513d601f19601f82011682018060405250810190610a97919061114d565b6002805473ffffffffffffffffffffffffffffffffffffffff19166001600160a01b039283161790556001541615801590610adc57506002546001600160a01b031615155b610b285760405162461bcd60e51b815260206004820152600e60248201527f546f6b656e73206e6f74207365740000000000000000000000000000000000006044820152606401610296565b5f5460405163095ea7b360e01b81526001600160a01b03909116600482018190525f1960248301529063095ea7b3906044015f604051808303815f87803b158015610b71575f5ffd5b505af1158015610b83573d5f5f3e3d5ffd5b505f925050505b81811015610857575f8054600154604051633de222bb60e21b81526001600160a01b0391821660048201529116602482018190529063f7888aec90604401602060405180830381865afa158015610be3573d5f5f3e3d5ffd5b505050506040513d601f19601f82011682018060405250810190610c07919061117a565b5f8054600254604051633de222bb60e21b81526001600160a01b03918216600482015291166024820181905292935090919063f7888aec90604401602060405180830381865afa158015610c5d573d5f5f3e3d5ffd5b505050506040513d601f19601f82011682018060405250810190610c81919061117a565b9050811580610c8e575080155b15610c995750505050565b610ca46002846111a5565b5f03610eed575f8054600154604051633de222bb60e21b81526001600160a01b03918216600482015233602482015291169063f7888aec90604401602060405180830381865afa158015610cfa573d5f5f3e3d5ffd5b505050506040513d601f19601f82011682018060405250810190610d1e919061117a565b90508015610ee7575f805460015460025460405163bfd7e00d60e01b81526001600160a01b039283166004820152908216602482015260448101859052849392919091169063bfd7e00d90606401602060405180830381865afa158015610d87573d5f5f3e3d5ffd5b505050506040513d601f19601f82011682018060405250810190610dab919061117a565b9050838110610e62575f5460015460025460405163bfd7e00d60e01b81526001600160a01b03928316600482015290821660248201526044810188905287945091169063bfd7e00d90606401602060405180830381865afa158015610e12573d5f5f3e3d5ffd5b505050506040513d601f19601f82011682018060405250810190610e36919061117a565b905083811115610e6257610e4b8460016111cc565b610e5585876111e5565b610e5f91906111fc565b91505b5f82118015610e715750828211155b15610ee4575f54600154600254604051630df791e560e41b81526001600160a01b03928316600482015290821660248201526044810185905291169063df791e50906064015f604051808303815f87803b158015610ecd575f5ffd5b505af1158015610edf573d5f5f3e3d5ffd5b505050505b50505b5061112c565b5f8054600254604051633de222bb60e21b81526001600160a01b03918216600482015233602482015291169063f7888aec90604401602060405180830381865afa158015610f3d573d5f5f3e3d5ffd5b505050506040513d601f19601f82011682018060405250810190610f61919061117a565b9050801561112a575f805460025460015460405163bfd7e00d60e01b81526001600160a01b039283166004820152908216602482015260448101859052849392919091169063bfd7e00d90606401602060405180830381865afa158015610fca573d5f5f3e3d5ffd5b505050506040513d601f19601f82011682018060405250810190610fee919061117a565b90508481106110a5575f5460025460015460405163bfd7e00d60e01b81526001600160a01b03928316600482015290821660248201526044810187905286945091169063bfd7e00d90606401602060405180830381865afa158015611055573d5f5f3e3d5ffd5b505050506040513d601f19601f82011682018060405250810190611079919061117a565b9050848111156110a55761108e8560016111cc565b61109886866111e5565b6110a291906111fc565b91505b5f821180156110b45750828211155b15611127575f54600254600154604051630df791e560e41b81526001600160a01b03928316600482015290821660248201526044810185905291169063df791e50906064015f604051808303815f87803b158015611110575f5ffd5b505af1158015611122573d5f5f3e3d5ffd5b505050505b50505b505b5050600101610b8a565b5f60208284031215611146575f5ffd5b5035919050565b5f6020828403121561115d575f5ffd5b81516001600160a01b0381168114611173575f5ffd5b9392505050565b5f6020828403121561118a575f5ffd5b5051919050565b634e487b7160e01b5f52601260045260245ffd5b5f826111b3576111b3611191565b500690565b634e487b7160e01b5f52601160045260245ffd5b808201808211156111df576111df6111b8565b92915050565b80820281158282048414176111df576111df6111b8565b5f8261120a5761120a611191565b50049056fea26469706673582212201daffc5d2f22125131a4ce8eea134dbf98d5459ceb769c44ab76873f47213a7064736f6c634300081c0033","linkReferences":{}},"methodIdentifiers":{"checkDrained()":"0fabd154","dex()":"692058c2","drainDex()":"0db60e24","multiSwap(uint256)":"b156e205","token1()":"d21220a7","token2()":"25be124e"},"id":5}