{"abi":[{"type":"constructor","inputs":[{"name":"_gatekeeper","type":"address","internalType":"address"}],"stateMutability":"nonpayable"},{"type":"receive","stateMutability":"payable"},{"type":"function","name":"gatekeeper","inputs":[],"outputs":[{"name":"","type":"address","internalType":"address"}],"stateMutability":"view"},{"type":"function","name":"startAttack","inputs":[],"outputs":[],"stateMutability":"nonpayable"}],"bytecode":{"object":"0x60a060405234801561000f575f5ffd5b5060405161034238038061034283398101604081905261002e9161003f565b6001600160a01b031660805261006c565b5f6020828403121561004f575f5ffd5b81516001600160a01b0381168114610065575f5ffd5b9392505050565b6080516102a461009e5f395f81816053015281816093015281816101010152818161019d01526101ff01526102a45ff3fe608060405260043610610028575f3560e01c806377c00de01461002c578063a59c9c2714610042575b5f5ffd5b348015610037575f5ffd5b50610040610091565b005b34801561004d575f5ffd5b506100757f000000000000000000000000000000000000000000000000000000000000000081565b6040516001600160a01b03909116815260200160405180910390f35b7f00000000000000000000000000000000000000000000000000000000000000006001600160a01b031663b9966e566040518163ffffffff1660e01b81526004015f604051808303815f87803b1580156100e9575f5ffd5b505af11580156100fb573d5f5f3e3d5ffd5b505050507f00000000000000000000000000000000000000000000000000000000000000006001600160a01b031663f7edf0996040518163ffffffff1660e01b81526004015f604051808303815f87803b158015610157575f5ffd5b505af1158015610169573d5f5f3e3d5ffd5b50506040517fc960174e000000000000000000000000000000000000000000000000000000008152426004820181905292507f00000000000000000000000000000000000000000000000000000000000000006001600160a01b0316915063c960174e906024015f604051808303815f87803b1580156101e7575f5ffd5b505af11580156101f9573d5f5f3e3d5ffd5b505050507f00000000000000000000000000000000000000000000000000000000000000006001600160a01b031663e97dcb626040518163ffffffff1660e01b81526004015f604051808303815f87803b158015610255575f5ffd5b505af1158015610267573d5f5f3e3d5ffd5b505050505056fea2646970667358221220b62052cf779bcbe453402522bece0c651225f1df62340bcc491593e3fe28f91d64736f6c634300081c0033","linkReferences":{}},"methodIdentifiers":{"gatekeeper()":"a59c9c27","startAttack()":"77c00de0"},"id":0}