{"abi":[{"type":"function","name":"dummy1","inputs":[],"outputs":[{"name":"","type":"address","internalType":"address"}],"stateMutability":"view"},{"type":"function","name":"dummy2","inputs":[],"outputs":[{"name":"","type":"address","internalType":"address"}],"stateMutability":"view"},{"type":"function","name":"setTime","inputs":[{"name":"_time","type":"uint256","internalType":"uint256"}],"outputs":[],"stateMutability":"nonpayable"},{"type":"function","name":"storedTime","inputs":[],"outputs":[{"name":"","type":"address","internalType":"address"}],"stateMutability":"view"}],"bytecode":{"object":"0x6080604052348015600e575f5ffd5b506101e48061001c5f395ff3fe608060405234801561000f575f5ffd5b506004361061004a575f3560e01c80630687371c1461004e5780631d527cde146100975780632545d8b7146100b75780633beb26c4146100d6575b5f5ffd5b60025461006e9073ffffffffffffffffffffffffffffffffffffffff1681565b60405173ffffffffffffffffffffffffffffffffffffffff909116815260200160405180910390f35b60015461006e9073ffffffffffffffffffffffffffffffffffffffff1681565b5f5461006e9073ffffffffffffffffffffffffffffffffffffffff1681565b6100e96100e4366004610144565b6100eb565b005b60408051602081018390520160405160208183030381529060405261010f9061015b565b600280547fffffffffffffffffffffffff00000000000000000000000000000000000000001660609290921c91909117905550565b5f60208284031215610154575f5ffd5b5035919050565b805160208201516bffffffffffffffffffffffff198116919060148210156101a7576bffffffffffffffffffffffff196bffffffffffffffffffffffff198360140360031b1b82161692505b505091905056fea2646970667358221220fc0455bc7e33cb6b97d99948d1c29f2342350d14c70f6a35bcd0ed1c6f9e38cf64736f6c634300081c0033","linkReferences":{}},"methodIdentifiers":{"dummy1()":"2545d8b7","dummy2()":"1d527cde","setTime(uint256)":"3beb26c4","storedTime()":"0687371c"},"id":0}