{"abi":[{"type":"function","name":"horsePower","inputs":[],"outputs":[{"name":"","type":"uint256","internalType":"uint256"}],"stateMutability":"view"},{"type":"function","name":"initialize","inputs":[],"outputs":[],"stateMutability":"nonpayable"},{"type":"function","name":"upgradeToAndCall","inputs":[{"name":"newImplementation","type":"address","internalType":"address"},{"name":"data","type":"bytes","internalType":"bytes"}],"outputs":[],"stateMutability":"nonpayable"},{"type":"function","name":"upgrader","inputs":[],"outputs":[{"name":"","type":"address","internalType":"address"}],"stateMutability":"view"}],"bytecode":{"object":"0x608060405234801561001057600080fd5b5061027d806100206000396000f3fe608060405234801561001057600080fd5b506004361061004c5760003560e01c80634f1ef28614610051578063564f6d71146101165780638129fc1c14610130578063af26974514610138575b600080fd5b6101146004803603604081101561006757600080fd5b73ffffffffffffffffffffffffffffffffffffffff823516919081019060408101602082013564010000000081111561009f57600080fd5b8201836020820111156100b157600080fd5b803590602001918460018302840111640100000000831117156100d357600080fd5b91908080601f016020809104026020016040519081016040528093929190818152602001838380828437600092019190915250929550610169945050505050565b005b61011e6101f3565b60408051918252519081900360200190f35b6101146101f9565b61014061022b565b6040805173ffffffffffffffffffffffffffffffffffffffff9092168252519081900360200190f35b60005473ffffffffffffffffffffffffffffffffffffffff1633146101ef57604080517f08c379a000000000000000000000000000000000000000000000000000000000815260206004820152600d60248201527f43616e2774207570677261646500000000000000000000000000000000000000604482015290519081900360640190fd5b5050565b60015481565b6103e8600155600080547fffffffffffffffffffffffff00000000000000000000000000000000000000001633179055565b60005473ffffffffffffffffffffffffffffffffffffffff168156fea264697066735822122076e0f90eae63fdcd505d6b43727a230595feaea25027acacbb4187eecb08144c64736f6c634300060c0033","linkReferences":{}},"methodIdentifiers":{"horsePower()":"564f6d71","initialize()":"8129fc1c","upgradeToAndCall(address,bytes)":"4f1ef286","upgrader()":"af269745"},"id":0}