{"abi":[{"type":"constructor","inputs":[],"stateMutability":"nonpayable"},{"type":"function","name":"requestDonation","inputs":[],"outputs":[{"name":"","type":"bool","internalType":"bool"}],"stateMutability":"nonpayable"},{"type":"function","name":"wallet","inputs":[],"outputs":[{"name":"","type":"address","internalType":"contract Wallet"}],"stateMutability":"view"}],"bytecode":{"object":"0x6080604052348015600e575f5ffd5b506040516019906055565b604051809103905ff0801580156031573d5f5f3e3d5ffd5b505f80546001600160a01b0319166001600160a01b03929092169190911790556061565b60cc8061012d83390190565b60c08061006d5f395ff3fe6080604052348015600e575f5ffd5b50600436106030575f3560e01c806325143638146034578063521eb273146048575b5f5ffd5b604051600181526020015b60405180910390f35b5f5460669073ffffffffffffffffffffffffffffffffffffffff1681565b60405173ffffffffffffffffffffffffffffffffffffffff9091168152602001603f56fea26469706673582212200b1a688b2ca00e44203c5f8f3b6a8eb23c3f26d2c38c057c044bf0c67a5fb0ca64736f6c634300081c00336080604052348015600e575f5ffd5b5060b280601a5f395ff3fe6080604052348015600e575f5ffd5b50600436106030575f3560e01c8063e40b8658146034578063f836afce146034575b5f5ffd5b6042603f3660046044565b50565b005b5f602082840312156053575f5ffd5b813573ffffffffffffffffffffffffffffffffffffffff811681146075575f5ffd5b939250505056fea26469706673582212205cbfe786ffa9fc4f9e42e3211757c7d727dfada628bc37253afe549a9eebfe8a64736f6c634300081c0033","linkReferences":{}},"methodIdentifiers":{"requestDonation()":"25143638","wallet()":"521eb273"},"id":0}