{"abi":[{"type":"function","name":"donate10","inputs":[{"name":"dest","type":"address","internalType":"address"}],"outputs":[],"stateMutability":"nonpayable"},{"type":"function","name":"transferRemainder","inputs":[{"name":"dest","type":"address","internalType":"address"}],"outputs":[],"stateMutability":"nonpayable"}],"bytecode":{"object":"0x6080604052348015600e575f5ffd5b5060b280601a5f395ff3fe6080604052348015600e575f5ffd5b50600436106030575f3560e01c8063e40b8658146034578063f836afce146034575b5f5ffd5b6042603f3660046044565b50565b005b5f602082840312156053575f5ffd5b813573ffffffffffffffffffffffffffffffffffffffff811681146075575f5ffd5b939250505056fea26469706673582212205cbfe786ffa9fc4f9e42e3211757c7d727dfada628bc37253afe549a9eebfe8a64736f6c634300081c0033","linkReferences":{}},"methodIdentifiers":{"donate10(address)":"f836afce","transferRemainder(address)":"e40b8658"},"id":0}