{"abi":[{"type":"constructor","inputs":[{"name":"_recoveryInstance","type":"address","internalType":"address"}],"stateMutability":"nonpayable"},{"type":"function","name":"attack","inputs":[],"outputs":[],"stateMutability":"nonpayable"},{"type":"function","name":"computeTokenAddress","inputs":[],"outputs":[{"name":"","type":"address","internalType":"address"}],"stateMutability":"view"},{"type":"function","name":"recoveryInstance","inputs":[],"outputs":[{"name":"","type":"address","internalType":"address"}],"stateMutability":"view"}],"bytecode":{"object":"0x60806040525f6001553480156012575f5ffd5b50604051610270380380610270833981016040819052602f916052565b5f80546001600160a01b0319166001600160a01b0392909216919091179055607d565b5f602082840312156061575f5ffd5b81516001600160a01b03811681146076575f5ffd5b9392505050565b6101e68061008a5f395ff3fe608060405234801561000f575f5ffd5b506004361061003f575f3560e01c806387684d5e146100435780639e5faafc146100ba578063f775b286146100c4575b5f5ffd5b6100915f805460015460405160609290921b6bffffffffffffffffffffffff191660208301526034820152819060540160408051601f19818403018152919052805160209091012092915050565b60405173ffffffffffffffffffffffffffffffffffffffff909116815260200160405180910390f35b6100c26100e3565b005b5f546100919073ffffffffffffffffffffffffffffffffffffffff1681565b5f6101325f805460015460405160609290921b6bffffffffffffffffffffffff191660208301526034820152819060540160408051601f19818403018152919052805160209091012092915050565b6040517ef55d9d00000000000000000000000000000000000000000000000000000000815233600482015290915073ffffffffffffffffffffffffffffffffffffffff82169062f55d9d906024015f604051808303815f87803b158015610197575f5ffd5b505af11580156101a9573d5f5f3e3d5ffd5b505050505056fea264697066735822122012a5be1edf280e9486daf69e36e2d7adece5ec8f1244fbaa65807e063c0c121964736f6c634300081c0033","linkReferences":{}},"methodIdentifiers":{"attack()":"9e5faafc","computeTokenAddress()":"87684d5e","recoveryInstance()":"f775b286"},"id":0}