{"abi":[{"type":"function","name":"analyzeBuggyLoad","inputs":[{"name":"_signature","type":"bytes","internalType":"bytes"}],"outputs":[{"name":"slot1","type":"bytes32","internalType":"bytes32"},{"name":"slot2","type":"bytes32","internalType":"bytes32"},{"name":"slot3","type":"bytes32","internalType":"bytes32"}],"stateMutability":"pure"},{"type":"function","name":"analyzeSignature","inputs":[{"name":"_signature","type":"bytes","internalType":"bytes"}],"outputs":[{"name":"r","type":"bytes32","internalType":"bytes32"},{"name":"s","type":"bytes32","internalType":"bytes32"},{"name":"v","type":"uint8","internalType":"uint8"}],"stateMutability":"pure"},{"type":"function","name":"computeMsgHash","inputs":[{"name":"lockId","type":"uint256","internalType":"uint256"}],"outputs":[{"name":"","type":"bytes32","internalType":"bytes32"}],"stateMutability":"pure"},{"type":"function","name":"testEcrecover","inputs":[{"name":"msgHash","type":"bytes32","internalType":"bytes32"},{"name":"v","type":"uint8","internalType":"uint8"},{"name":"r","type":"bytes32","internalType":"bytes32"},{"name":"s","type":"bytes32","internalType":"bytes32"}],"outputs":[{"name":"","type":"address","internalType":"address"}],"stateMutability":"pure"}],"bytecode":{"object":"0x6080604052348015600e575f5ffd5b5061032d8061001c5f395ff3fe608060405234801561000f575f5ffd5b506004361061004a575f3560e01c806304458e4a1461004e57806328f8ec9914610090578063850e7a27146100c8578063f22c4d4a1461010e575b5f5ffd5b61007061005c3660046101ee565b606081015160208201516040909201519092565b604080519384526020840192909252908201526060015b60405180910390f35b6100a361009e3660046102a1565b61015c565b60405173ffffffffffffffffffffffffffffffffffffffff9091168152602001610087565b6100f06100d63660046101ee565b6020810151604082015160609092015190925f9190911a90565b60408051938452602084019290925260ff1690820152606001610087565b61014e61011c3660046102e0565b7f19457468657265756d205369676e6564204d6573736167653a0a3332000000005f908152601c91909152603c902090565b604051908152602001610087565b604080515f8082526020820180845287905260ff861692820192909252606081018490526080810183905260019060a0016020604051602081039080840390855afa1580156101ad573d5f5f3e3d5ffd5b5050604051601f1901519695505050505050565b7f4e487b71000000000000000000000000000000000000000000000000000000005f52604160045260245ffd5b5f602082840312156101fe575f5ffd5b813567ffffffffffffffff811115610214575f5ffd5b8201601f81018413610224575f5ffd5b803567ffffffffffffffff81111561023e5761023e6101c1565b604051601f8201601f19908116603f0116810167ffffffffffffffff8111828210171561026d5761026d6101c1565b604052818152828201602001861015610284575f5ffd5b816020840160208301375f91810160200191909152949350505050565b5f5f5f5f608085870312156102b4575f5ffd5b84359350602085013560ff811681146102cb575f5ffd5b93969395505050506040820135916060013590565b5f602082840312156102f0575f5ffd5b503591905056fea2646970667358221220c4af2e73041b88fefdefb871fdb2a6affaec3d6f95caa15c4aa4e69d964fa1cb64736f6c634300081c0033","linkReferences":{}},"methodIdentifiers":{"analyzeBuggyLoad(bytes)":"04458e4a","analyzeSignature(bytes)":"850e7a27","computeMsgHash(uint256)":"f22c4d4a","testEcrecover(bytes32,uint8,bytes32,bytes32)":"28f8ec99"},"id":0}