{"abi":[{"type":"fallback","stateMutability":"payable"},{"type":"function","name":"setPartner","inputs":[{"name":"denial","type":"address","internalType":"address"}],"outputs":[],"stateMutability":"nonpayable"}],"bytecode":{"object":"0x6080604052348015600e575f5ffd5b5061017a8061001c5f395ff3fe60806040526004361061001d575f3560e01c8063a16d596014610035575b600160025b61002c81836100cc565b9150610022565b005b348015610040575f5ffd5b5061003361004f36600461010a565b6040517f4e1c591400000000000000000000000000000000000000000000000000000000815230600482015273ffffffffffffffffffffffffffffffffffffffff821690634e1c5914906024015f604051808303815f87803b1580156100b3575f5ffd5b505af11580156100c5573d5f5f3e3d5ffd5b5050505050565b80820180821115610104577f4e487b71000000000000000000000000000000000000000000000000000000005f52601160045260245ffd5b92915050565b5f6020828403121561011a575f5ffd5b813573ffffffffffffffffffffffffffffffffffffffff8116811461013d575f5ffd5b939250505056fea26469706673582212200eb3a7a1522016e712875ba1b42d32bcd3c6b9dd3e05893edc6ef2a4cf9dca2464736f6c634300081c0033","linkReferences":{}},"methodIdentifiers":{"setPartner(address)":"a16d5960"},"id":0}