{"abi":[{"type":"constructor","inputs":[],"stateMutability":"nonpayable"},{"type":"function","name":"approve","inputs":[{"name":"spender","type":"address","internalType":"address"},{"name":"amount","type":"uint256","internalType":"uint256"}],"outputs":[{"name":"","type":"bool","internalType":"bool"}],"stateMutability":"nonpayable"},{"type":"function","name":"balanceOf","inputs":[{"name":"account","type":"address","internalType":"address"}],"outputs":[{"name":"","type":"uint256","internalType":"uint256"}],"stateMutability":"view"},{"type":"function","name":"mint","inputs":[{"name":"to","type":"address","internalType":"address"},{"name":"amount","type":"uint256","internalType":"uint256"}],"outputs":[],"stateMutability":"nonpayable"},{"type":"function","name":"owner","inputs":[],"outputs":[{"name":"","type":"address","internalType":"address"}],"stateMutability":"view"},{"type":"function","name":"transfer","inputs":[{"name":"to","type":"address","internalType":"address"},{"name":"amount","type":"uint256","internalType":"uint256"}],"outputs":[{"name":"","type":"bool","internalType":"bool"}],"stateMutability":"nonpayable"},{"type":"function","name":"transferFrom","inputs":[{"name":"from","type":"address","internalType":"address"},{"name":"to","type":"address","internalType":"address"},{"name":"amount","type":"uint256","internalType":"uint256"}],"outputs":[{"name":"","type":"bool","internalType":"bool"}],"stateMutability":"nonpayable"}],"bytecode":{"object":"0x6080604052348015600e575f5ffd5b50600280546001600160a01b031916331790556104128061002e5f395ff3fe608060405234801561000f575f5ffd5b506004361061006f575f3560e01c806370a082311161004d57806370a08231146100c35780638da5cb5b146100f9578063a9059cbb14610124575f5ffd5b8063095ea7b31461007357806323b872dd1461009b57806340c10f19146100ae575b5f5ffd5b610086610081366004610307565b610137565b60405190151581526020015b60405180910390f35b6100866100a936600461032f565b610164565b6100c16100bc366004610307565b6101ff565b005b6100eb6100d1366004610369565b6001600160a01b03165f9081526020819052604090205490565b604051908152602001610092565b60025461010c906001600160a01b031681565b6040516001600160a01b039091168152602001610092565b610086610132366004610307565b610292565b335f9081526001602081815260408084206001600160a01b03871685529091529091208290555b92915050565b6001600160a01b0383165f9081526001602090815260408083203384529091528120805483919083906101989084906103b6565b90915550506001600160a01b0384165f90815260208190526040812080548492906101c49084906103b6565b90915550506001600160a01b0383165f90815260208190526040812080548492906101f09084906103c9565b90915550600195945050505050565b6002546001600160a01b03163314610277576040517f08c379a000000000000000000000000000000000000000000000000000000000815260206004820152600a60248201527f4f6e6c79206f776e657200000000000000000000000000000000000000000000604482015260640160405180910390fd5b6001600160a01b039091165f90815260208190526040902055565b335f908152602081905260408120805483919083906102b29084906103b6565b90915550506001600160a01b0383165f90815260208190526040812080548492906102de9084906103c9565b909155506001949350505050565b80356001600160a01b0381168114610302575f5ffd5b919050565b5f5f60408385031215610318575f5ffd5b610321836102ec565b946020939093013593505050565b5f5f5f60608486031215610341575f5ffd5b61034a846102ec565b9250610358602085016102ec565b929592945050506040919091013590565b5f60208284031215610379575f5ffd5b610382826102ec565b9392505050565b7f4e487b71000000000000000000000000000000000000000000000000000000005f52601160045260245ffd5b8181038181111561015e5761015e610389565b8082018082111561015e5761015e61038956fea26469706673582212203b1c58aaf889c7cfaf6081c5d7224827a038d07d68c2a28477a0f0710387ca4c64736f6c634300081c0033","linkReferences":{}},"methodIdentifiers":{"approve(address,uint256)":"095ea7b3","balanceOf(address)":"70a08231","mint(address,uint256)":"40c10f19","owner()":"8da5cb5b","transfer(address,uint256)":"a9059cbb","transferFrom(address,address,uint256)":"23b872dd"},"id":0}