{"abi":[{"type":"function","name":"buyShop","inputs":[],"outputs":[],"stateMutability":"nonpayable"},{"type":"function","name":"price","inputs":[],"outputs":[{"name":"","type":"uint256","internalType":"uint256"}],"stateMutability":"view"}],"bytecode":{"object":"0x6080604052348015600e575f5ffd5b5060fa8061001b5f395ff3fe6080604052348015600e575f5ffd5b50600436106030575f3560e01c8063a035b1fe146034578063d030d082146048575b5f5ffd5b606460405190815260200160405180910390f35b604e6050565b005b5f73a16e02e87b7454126e5e10d957a927a7f5b5d2be90508073ffffffffffffffffffffffffffffffffffffffff1663a6f2ae3a6040518163ffffffff1660e01b81526004015f604051808303815f87803b15801560ac575f5ffd5b505af115801560bd573d5f5f3e3d5ffd5b505050505056fea26469706673582212206e7a9a92a1889da6354b7489b6eb3fe012135c024d869f22ce8613dc77bd1e3a64736f6c634300081c0033","linkReferences":{}},"methodIdentifiers":{"buyShop()":"d030d082","price()":"a035b1fe"},"id":0}