{"abi":[{"type":"constructor","inputs":[{"name":"_target","type":"address","internalType":"address"}],"stateMutability":"nonpayable"},{"type":"function","name":"breakIt","inputs":[],"outputs":[],"stateMutability":"nonpayable"},{"type":"function","name":"tryWin","inputs":[],"outputs":[],"stateMutability":"nonpayable"}],"bytecode":{"object":"0x6080604052348015600e575f5ffd5b5060405160ee38038060ee833981016040819052602991604c565b5f80546001600160a01b0319166001600160a01b03929092169190911790556077565b5f60208284031215605b575f5ffd5b81516001600160a01b03811681146070575f5ffd5b9392505050565b606c8060825f395ff3fe6080604052348015600e575f5ffd5b50600436106030575f3560e01c806344d62f901460345780636a1f9e19146034575b5f5ffd5b00fea26469706673582212204e1562f2f386977342fa406ce3585733f758f869faf8992ef1f6f1a0c18fed4164736f6c634300081c0033","linkReferences":{}},"methodIdentifiers":{"breakIt()":"6a1f9e19","tryWin()":"44d62f90"},"id":0}