{"abi":[{"type":"function","name":"factoryAddress","inputs":[],"outputs":[{"name":"","type":"address","internalType":"address"}],"stateMutability":"view"},{"type":"function","name":"invokeFactory","inputs":[{"name":"_instance","type":"address","internalType":"address"}],"outputs":[],"stateMutability":"nonpayable"}],"bytecode":{"object":"0x60806040525f80546001600160a01b031916735fbdb2315678afecb367f032d93f642f64180aa31790553480156033575f5ffd5b50610187806100415f395ff3fe608060405234801561000f575f5ffd5b5060043610610034575f3560e01c80631eb954b814610038578063966dae0e1461004d575b5f5ffd5b61004b610046366004610117565b610095565b005b5f5461006c9073ffffffffffffffffffffffffffffffffffffffff1681565b60405173ffffffffffffffffffffffffffffffffffffffff909116815260200160405180910390f35b5f546040517f1b567ced00000000000000000000000000000000000000000000000000000000815273ffffffffffffffffffffffffffffffffffffffff838116600483015290911690631b567ced906024015f604051808303815f87803b1580156100fe575f5ffd5b505af1158015610110573d5f5f3e3d5ffd5b5050505050565b5f60208284031215610127575f5ffd5b813573ffffffffffffffffffffffffffffffffffffffff8116811461014a575f5ffd5b939250505056fea264697066735822122055f78860046c754e83b4cd8f0efd34aced0c53d56316306bdff51a0d70f3172f64736f6c634300081c0033","linkReferences":{}},"methodIdentifiers":{"factoryAddress()":"966dae0e","invokeFactory(address)":"1eb954b8"},"id":0}