{"abi":[{"type":"function","name":"firstCall","inputs":[],"outputs":[{"name":"","type":"bool","internalType":"bool"}],"stateMutability":"view"},{"type":"function","name":"isLastFloor","inputs":[{"name":"_floor","type":"uint256","internalType":"uint256"}],"outputs":[{"name":"","type":"bool","internalType":"bool"}],"stateMutability":"nonpayable"}],"bytecode":{"object":"0x60806040525f805460ff19166001179055348015601a575f5ffd5b5060ca8060265f395ff3fe6080604052348015600e575f5ffd5b50600436106030575f3560e01c80631660d0b11460345780635f9a4bca146053575b5f5ffd5b5f54603f9060ff1681565b604051901515815260200160405180910390f35b603f605e366004607e565b5f805460ff161560765750505f805460ff1916815590565b506001919050565b5f60208284031215608d575f5ffd5b503591905056fea2646970667358221220fd1f94587caf464fac467889ee4865e7ec354a30497156144d25b262c1f4432264736f6c634300081c0033","linkReferences":{}},"methodIdentifiers":{"firstCall()":"1660d0b1","isLastFloor(uint256)":"5f9a4bca"},"id":0}