{"abi":[{"type":"function","name":"callAllowance","inputs":[{"name":"weth","type":"address","internalType":"address"},{"name":"owner","type":"address","internalType":"address"},{"name":"spender","type":"address","internalType":"address"}],"outputs":[{"name":"success","type":"bool","internalType":"bool"},{"name":"data","type":"bytes","internalType":"bytes"}],"stateMutability":"nonpayable"},{"type":"function","name":"checkWETH","inputs":[{"name":"weth","type":"address","internalType":"address"}],"outputs":[{"name":"codeSize","type":"uint256","internalType":"uint256"},{"name":"isContract","type":"bool","internalType":"bool"}],"stateMutability":"view"}],"bytecode":{"object":"0x6080604052348015600e575f5ffd5b506102a58061001c5f395ff3fe608060405234801561000f575f5ffd5b5060043610610034575f3560e01c806301dc4f7f146100385780635b6485fa14610068575b5f5ffd5b61004e610046366004610197565b3b9081151590565b604080519283529015156020830152015b60405180910390f35b61007b6100763660046101b7565b610089565b60405161005f929190610219565b6040805173ffffffffffffffffffffffffffffffffffffffff848116602483015283811660448084019190915283518084039091018152606490920183526020820180517bffffffffffffffffffffffffffffffffffffffffffffffffffffffff167fdd62ed3e0000000000000000000000000000000000000000000000000000000017905291515f92606092908716916101249190610254565b5f604051808303815f865af19150503d805f811461015d576040519150601f19603f3d011682016040523d82523d5f602084013e610162565b606091505b5090969095509350505050565b803573ffffffffffffffffffffffffffffffffffffffff81168114610192575f5ffd5b919050565b5f602082840312156101a7575f5ffd5b6101b08261016f565b9392505050565b5f5f5f606084860312156101c9575f5ffd5b6101d28461016f565b92506101e06020850161016f565b91506101ee6040850161016f565b90509250925092565b5f5b838110156102115781810151838201526020016101f9565b50505f910152565b8215158152604060208201525f825180604084015261023f8160608501602087016101f7565b601f01601f1916919091016060019392505050565b5f82516102658184602087016101f7565b919091019291505056fea2646970667358221220edca62b742d9e536eca05d81dd56c26286cc0967886f3368ee7ea148b53701d264736f6c634300081c0033","linkReferences":{}},"methodIdentifiers":{"callAllowance(address,address,address)":"5b6485fa","checkWETH(address)":"01dc4f7f"},"id":0}