{"abi":[{"type":"constructor","inputs":[{"name":"_impersonator","type":"address","internalType":"address"},{"name":"_locker","type":"address","internalType":"address"}],"stateMutability":"nonpayable"},{"type":"fallback","stateMutability":"nonpayable"},{"type":"function","name":"deployer","inputs":[],"outputs":[{"name":"","type":"address","internalType":"address"}],"stateMutability":"view"},{"type":"function","name":"impersonator","inputs":[],"outputs":[{"name":"","type":"address","internalType":"contract Impersonator"}],"stateMutability":"view"},{"type":"function","name":"locker","inputs":[],"outputs":[{"name":"","type":"address","internalType":"contract ECLocker"}],"stateMutability":"view"},{"type":"function","name":"solve","inputs":[],"outputs":[],"stateMutability":"nonpayable"}],"bytecode":{"object":"0x6080604052348015600e575f5ffd5b506040516103cd3803806103cd833981016040819052602b916084565b5f80546001600160a01b039384166001600160a01b031991821617909155600180549290931691811691909117909155600280549091163317905560b0565b80516001600160a01b0381168114607f575f5ffd5b919050565b5f5f604083850312156094575f5ffd5b609b83606a565b915060a760208401606a565b90509250929050565b610310806100bd5f395ff3fe608060405234801561000f575f5ffd5b506004361061004a575f3560e01c80638136fd9014610161578063890d69081461018f578063d5f3948814610197578063d7b96d4e146101aa575b5f546001600160a01b03163314806100e557505f5f9054906101000a90046001600160a01b03166001600160a01b0316638da5cb5b6040518163ffffffff1660e01b8152600401602060405180830381865afa1580156100ac573d5f5f3e3d5ffd5b505050506040513d601f19601f820116820180604052508101906100d091906102ad565b6001600160a01b0316336001600160a01b0316145b1561015f575f546002546040517ff2fde38b0000000000000000000000000000000000000000000000000000000081526001600160a01b03918216600482015291169063f2fde38b906024015f604051808303815f87803b158015610148575f5ffd5b505af115801561015a573d5f5f3e3d5ffd5b505050505b005b5f54610173906001600160a01b031681565b6040516001600160a01b03909116815260200160405180910390f35b61015f6101bd565b600254610173906001600160a01b031681565b600154610173906001600160a01b031681565b5f5f5f9054906101000a90046001600160a01b03166001600160a01b0316638da5cb5b6040518163ffffffff1660e01b8152600401602060405180830381865afa15801561020d573d5f5f3e3d5ffd5b505050506040513d601f19601f8201168201806040525081019061023191906102ad565b90505f60015f9054906101000a90046001600160a01b03166001600160a01b031663f77c47916040518163ffffffff1660e01b8152600401602060405180830381865afa158015610284573d5f5f3e3d5ffd5b505050506040513d601f19601f820116820180604052508101906102a891906102ad565b505050565b5f602082840312156102bd575f5ffd5b81516001600160a01b03811681146102d3575f5ffd5b939250505056fea2646970667358221220451d54ee667a75e9a16014b7168afcee4a48662f5e7ca678e700fdb144c310e264736f6c634300081c0033","linkReferences":{}},"methodIdentifiers":{"deployer()":"d5f39488","impersonator()":"8136fd90","locker()":"d7b96d4e","solve()":"890d6908"},"id":2}