{"abi":[{"type":"constructor","inputs":[{"name":"_target","type":"address","internalType":"address"}],"stateMutability":"nonpayable"},{"type":"function","name":"setTreasuryHigh","inputs":[],"outputs":[],"stateMutability":"nonpayable"},{"type":"function","name":"target","inputs":[],"outputs":[{"name":"","type":"address","internalType":"contract IHigherOrder"}],"stateMutability":"view"}],"bytecode":{"object":"0x6080604052348015600e575f5ffd5b506040516102be3803806102be833981016040819052602b91604e565b5f80546001600160a01b0319166001600160a01b03929092169190911790556079565b5f60208284031215605d575f5ffd5b81516001600160a01b03811681146072575f5ffd5b9392505050565b610238806100865f395ff3fe608060405234801561000f575f5ffd5b5060043610610034575f3560e01c8063c0dd1a1e14610038578063d4b8399214610042575b5f5ffd5b61004061008a565b005b5f546100619073ffffffffffffffffffffffffffffffffffffffff1681565b60405173ffffffffffffffffffffffffffffffffffffffff909116815260200160405180910390f35b604080516001602480830191909152825180830382018152604490920183526020820180517bffffffffffffffffffffffffffffffffffffffffffffffffffffffff167f211c85ab00000000000000000000000000000000000000000000000000000000179052610100908201525f805492519192909173ffffffffffffffffffffffffffffffffffffffff909116906101259084906101d6565b5f604051808303815f865af19150503d805f811461015e576040519150601f19603f3d011682016040523d82523d5f602084013e610163565b606091505b50509050806101d2576040517f08c379a000000000000000000000000000000000000000000000000000000000815260206004820152601c60248201527f726567697374657254726561737572792063616c6c206661696c656400000000604482015260640160405180910390fd5b5050565b5f82515f5b818110156101f557602081860181015185830152016101db565b505f92019182525091905056fea2646970667358221220a82bb190320df48b0a99253456e82bbebeb4a20464764ce77e4dd441dfca5f9d64736f6c634300081c0033","linkReferences":{}},"methodIdentifiers":{"setTreasuryHigh()":"c0dd1a1e","target()":"d4b83992"},"id":0}