{"abi":[{"type":"function","name":"buyFromShop","inputs":[{"name":"shopAddress","type":"address","internalType":"address"}],"outputs":[],"stateMutability":"nonpayable"},{"type":"function","name":"price","inputs":[],"outputs":[{"name":"","type":"uint256","internalType":"uint256"}],"stateMutability":"view"}],"bytecode":{"object":"0x608060405260645f553480156012575f5ffd5b50610123806100205f395ff3fe6080604052348015600e575f5ffd5b50600436106030575f3560e01c8063a035b1fe146034578063d9fdd80f146048575b5f5ffd5b5f5460405190815260200160405180910390f35b6057605336600460b5565b6059565b005b8073ffffffffffffffffffffffffffffffffffffffff1663a6f2ae3a6040518163ffffffff1660e01b81526004015f604051808303815f87803b158015609d575f5ffd5b505af115801560ae573d5f5f3e3d5ffd5b5050505050565b5f6020828403121560c4575f5ffd5b813573ffffffffffffffffffffffffffffffffffffffff8116811460e6575f5ffd5b939250505056fea2646970667358221220624e0456d96468548b9f063a9920623766b8e7a48079d03f87706dcc0a1612ea64736f6c634300081c0033","linkReferences":{}},"methodIdentifiers":{"buyFromShop(address)":"d9fdd80f","price()":"a035b1fe"},"id":0}