{"abi":[{"type":"function","name":"solve","inputs":[],"outputs":[{"name":"","type":"uint8","internalType":"uint8"}],"stateMutability":"pure"}],"bytecode":{"object":"0x6080604052348015600e575f5ffd5b50607480601a5f395ff3fe6080604052348015600e575f5ffd5b50600436106026575f3560e01c8063890d690814602a575b5f5ffd5b60408051602a815290519081900360200190f3fea2646970667358221220562d36e712fccd793ab8eb1f344b5e8f1b4afc0d1ab38ac207d2f7a3a46e8df364736f6c634300081c0033","linkReferences":{}},"methodIdentifiers":{"solve()":"890d6908"},"id":0}