{"abi":[{"type":"constructor","inputs":[{"name":"_dexAddress","type":"address","internalType":"address"}],"stateMutability":"nonpayable"},{"type":"function","name":"drain","inputs":[],"outputs":[],"stateMutability":"nonpayable"}],"bytecode":{"object":"0x60e060405234801561000f575f5ffd5b50604051610a1c380380610a1c83398101604081905261002e91610127565b6001600160a01b03811660808190526040805163d21220a760e01b8152905163d21220a7916004808201926020929091908290030181865afa158015610076573d5f5f3e3d5ffd5b505050506040513d601f19601f8201168201806040525081019061009a9190610127565b6001600160a01b031660a0816001600160a01b0316815250506080516001600160a01b03166325be124e6040518163ffffffff1660e01b8152600401602060405180830381865afa1580156100f1573d5f5f3e3d5ffd5b505050506040513d601f19601f820116820180604052508101906101159190610127565b6001600160a01b031660c05250610154565b5f60208284031215610137575f5ffd5b81516001600160a01b038116811461014d575f5ffd5b9392505050565b60805160a05160c05161080d61020f5f395f8181610109015281816101a601528181610293015281816103300152818161041d015281816105710152818161061e01526106c401525f818160e1015281816101ce0152818161026b01528181610358015281816103f5015281816104e501526106ec01525f8181605f01528181610138015281816101fd015281816102c2015281816103870152818161044c015281816104ba015281816105f1015261071b015261080d5ff3fe608060405234801561000f575f5ffd5b5060043610610029575f3560e01c80639890220b1461002d575b5f5ffd5b610035610037565b005b6040517f095ea7b30000000000000000000000000000000000000000000000000000000081527f00000000000000000000000000000000000000000000000000000000000000006001600160a01b0316600482018190525f1960248301529063095ea7b3906044015f604051808303815f87803b1580156100b6575f5ffd5b505af11580156100c8573d5f5f3e3d5ffd5b5050604051630df791e560e41b81526001600160a01b037f0000000000000000000000000000000000000000000000000000000000000000811660048301527f000000000000000000000000000000000000000000000000000000000000000081166024830152600a60448301527f000000000000000000000000000000000000000000000000000000000000000016925063df791e5091506064015f604051808303815f87803b15801561017b575f5ffd5b505af115801561018d573d5f5f3e3d5ffd5b5050604051630df791e560e41b81526001600160a01b037f0000000000000000000000000000000000000000000000000000000000000000811660048301527f000000000000000000000000000000000000000000000000000000000000000081166024830152601460448301527f000000000000000000000000000000000000000000000000000000000000000016925063df791e5091506064015f604051808303815f87803b158015610240575f5ffd5b505af1158015610252573d5f5f3e3d5ffd5b5050604051630df791e560e41b81526001600160a01b037f0000000000000000000000000000000000000000000000000000000000000000811660048301527f000000000000000000000000000000000000000000000000000000000000000081166024830152601860448301527f000000000000000000000000000000000000000000000000000000000000000016925063df791e5091506064015f604051808303815f87803b158015610305575f5ffd5b505af1158015610317573d5f5f3e3d5ffd5b5050604051630df791e560e41b81526001600160a01b037f0000000000000000000000000000000000000000000000000000000000000000811660048301527f000000000000000000000000000000000000000000000000000000000000000081166024830152601e60448301527f000000000000000000000000000000000000000000000000000000000000000016925063df791e5091506064015f604051808303815f87803b1580156103ca575f5ffd5b505af11580156103dc573d5f5f3e3d5ffd5b5050604051630df791e560e41b81526001600160a01b037f0000000000000000000000000000000000000000000000000000000000000000811660048301527f000000000000000000000000000000000000000000000000000000000000000081166024830152602960448301527f000000000000000000000000000000000000000000000000000000000000000016925063df791e5091506064015f604051808303815f87803b15801561048f575f5ffd5b505af11580156104a1573d5f5f3e3d5ffd5b50506040516370a0823160e01b81526001600160a01b037f0000000000000000000000000000000000000000000000000000000000000000811660048301525f93507f00000000000000000000000000000000000000000000000000000000000000001691506370a0823190602401602060405180830381865afa15801561052b573d5f5f3e3d5ffd5b505050506040513d601f19601f8201168201806040525081019061054f9190610778565b6040516370a0823160e01b81523360048201529091505f906001600160a01b037f000000000000000000000000000000000000000000000000000000000000000016906370a0823190602401602060405180830381865afa1580156105b6573d5f5f3e3d5ffd5b505050506040513d601f19601f820116820180604052508101906105da9190610778565b6040516370a0823160e01b81526001600160a01b037f0000000000000000000000000000000000000000000000000000000000000000811660048301529192505f917f000000000000000000000000000000000000000000000000000000000000000016906370a0823190602401602060405180830381865afa158015610663573d5f5f3e3d5ffd5b505050506040513d601f19601f820116820180604052508101906106879190610778565b90505f83610695838261078f565b61069f91906107b8565b9050828111156106ad5750602d5b604051630df791e560e41b81526001600160a01b037f0000000000000000000000000000000000000000000000000000000000000000811660048301527f000000000000000000000000000000000000000000000000000000000000000081166024830152602d60448301527f0000000000000000000000000000000000000000000000000000000000000000169063df791e50906064015f604051808303815f87803b15801561075c575f5ffd5b505af115801561076e573d5f5f3e3d5ffd5b5050505050505050565b5f60208284031215610788575f5ffd5b5051919050565b80820281158282048414176107b257634e487b7160e01b5f52601160045260245ffd5b92915050565b5f826107d257634e487b7160e01b5f52601260045260245ffd5b50049056fea264697066735822122080bef7d1cc328f27e9482c3b847d6a1579b0b7ed6c221b7680ebcdb60a84247e64736f6c634300081c0033","linkReferences":{}},"methodIdentifiers":{"drain()":"9890220b"},"id":0}