{"abi":[{"type":"constructor","inputs":[{"name":"_instance","type":"address","internalType":"address"}],"stateMutability":"nonpayable"},{"type":"function","name":"callInitialize","inputs":[],"outputs":[],"stateMutability":"nonpayable"},{"type":"function","name":"instance","inputs":[],"outputs":[{"name":"","type":"address","internalType":"address"}],"stateMutability":"view"},{"type":"function","name":"resetInitializer","inputs":[],"outputs":[],"stateMutability":"nonpayable"}],"bytecode":{"object":"0x60a0604052348015600e575f5ffd5b506040516102f63803806102f6833981016040819052602b91603b565b6001600160a01b03166080526066565b5f60208284031215604a575f5ffd5b81516001600160a01b0381168114605f575f5ffd5b9392505050565b6080516102726100845f395f81816048015261013601526102725ff3fe608060405234801561000f575f5ffd5b506004361061003f575f3560e01c8063022ec09514610043578063aadac5e314610093578063ec51ea1f1461009d575b5f5ffd5b61006a7f000000000000000000000000000000000000000000000000000000000000000081565b60405173ffffffffffffffffffffffffffffffffffffffff909116815260200160405180910390f35b61009b6100c5565b005b61009b5f7fb53127684a568b3173ae13b9f8a046b1d8d700ecba88d7455aa5e5c02563c55b55565b60408051600481526024810182526020810180517bffffffffffffffffffffffffffffffffffffffffffffffffffffffff167f8129fc1c0000000000000000000000000000000000000000000000000000000017905290515f9173ffffffffffffffffffffffffffffffffffffffff7f000000000000000000000000000000000000000000000000000000000000000016916101619190610210565b5f60405180830381855af49150503d805f8114610199576040519150601f19603f3d011682016040523d82523d5f602084013e61019e565b606091505b505090508061020d576040517f08c379a000000000000000000000000000000000000000000000000000000000815260206004820152601160248201527f496e697469616c697a65206661696c6564000000000000000000000000000000604482015260640160405180910390fd5b50565b5f82515f5b8181101561022f5760208186018101518583015201610215565b505f92019182525091905056fea264697066735822122080523592457eb9dd769d6b9fc04aa14060ff68d210ec1c668be699eb2cc0d6ec64736f6c634300081c0033","linkReferences":{}},"methodIdentifiers":{"callInitialize()":"aadac5e3","instance()":"022ec095","resetInitializer()":"ec51ea1f"},"id":0}