{"abi":[{"type":"constructor","inputs":[{"name":"stakeInstance","type":"address","internalType":"address"}],"stateMutability":"nonpayable"},{"type":"function","name":"WETH_ADDRESS","inputs":[],"outputs":[{"name":"","type":"address","internalType":"address"}],"stateMutability":"view"},{"type":"function","name":"approveWeth","inputs":[],"outputs":[],"stateMutability":"nonpayable"},{"type":"function","name":"depositEthToWeth","inputs":[],"outputs":[],"stateMutability":"payable"},{"type":"function","name":"stakeWeth","inputs":[],"outputs":[],"stateMutability":"nonpayable"},{"type":"function","name":"unstake","inputs":[],"outputs":[],"stateMutability":"nonpayable"}],"bytecode":{"object":"0x60a06040525f80546001600160a01b03191673a16e02e87b7454126e5e10d957a927a7f5b5d2be179055348015610034575f5ffd5b5060405161058a38038061058a83398101604081905261005391610064565b6001600160a01b0316608052610091565b5f60208284031215610074575f5ffd5b81516001600160a01b038116811461008a575f5ffd5b9392505050565b6080516104d36100b75f395f818161015a0152818161024701526103c901526104d35ff3fe608060405260043610610058575f3560e01c80632def6620116100415780632def6620146100ac578063552188a7146100c0578063a73d990e146100c8575f5ffd5b8063040141e51461005c57806329d9362e14610096575b5f5ffd5b348015610067575f5ffd5b505f5461007a906001600160a01b031681565b6040516001600160a01b03909116815260200160405180910390f35b3480156100a1575f5ffd5b506100aa6100dc565b005b3480156100b7575f5ffd5b506100aa6101c9565b6100aa610322565b3480156100d3575f5ffd5b506100aa610397565b60408051683635c9adc5dea0000060248083019190915282518083039091018152604490910182526020810180517bffffffffffffffffffffffffffffffffffffffffffffffffffffffff167f6e35c7400000000000000000000000000000000000000000000000000000000017905290515f916001600160a01b037f00000000000000000000000000000000000000000000000000000000000000001691610185919061044b565b5f604051808303815f865af19150503d805f81146101be576040519150601f19603f3d011682016040523d82523d5f602084013e6101c3565b606091505b50505050565b60408051683635c9adc5dea0000060248083019190915282518083039091018152604490910182526020810180517bffffffffffffffffffffffffffffffffffffffffffffffffffffffff167ff1f1db1e0000000000000000000000000000000000000000000000000000000017905290515f916001600160a01b037f00000000000000000000000000000000000000000000000000000000000000001691610272919061044b565b5f604051808303815f865af19150503d805f81146102ab576040519150601f19603f3d011682016040523d82523d5f602084013e6102b0565b606091505b505090508061031f576040517f08c379a000000000000000000000000000000000000000000000000000000000815260206004820152600e60248201527f556e7374616b65206661696c6564000000000000000000000000000000000000604482015260640160405180910390fd5b50565b5f8054604080517fd0e30db000000000000000000000000000000000000000000000000000000000815290516001600160a01b039092169263d0e30db0923492600480820193929182900301818588803b15801561037e575f5ffd5b505af1158015610390573d5f5f3e3d5ffd5b5050505050565b5f546040517f095ea7b30000000000000000000000000000000000000000000000000000000081526001600160a01b037f000000000000000000000000000000000000000000000000000000000000000081166004830152683635c9adc5dea0000060248301529091169063095ea7b3906044016020604051808303815f875af1158015610427573d5f5f3e3d5ffd5b505050506040513d601f19601f8201168201806040525081019061031f9190610477565b5f82515f5b8181101561046a5760208186018101518583015201610450565b505f920191825250919050565b5f60208284031215610487575f5ffd5b81518015158114610496575f5ffd5b939250505056fea264697066735822122052465686fcd4a869583ec28971008552736da4944945270bd92a462af08744ed64736f6c634300081c0033","linkReferences":{}},"methodIdentifiers":{"WETH_ADDRESS()":"040141e5","approveWeth()":"a73d990e","depositEthToWeth()":"552188a7","stakeWeth()":"29d9362e","unstake()":"2def6620"},"id":0}