{"abi":[{"type":"function","name":"analyzeShifts","inputs":[],"outputs":[{"name":"shift1","type":"uint256","internalType":"uint256"},{"name":"shift2","type":"uint256","internalType":"uint256"},{"name":"shift3","type":"uint256","internalType":"uint256"}],"stateMutability":"pure"},{"type":"function","name":"testEncoding","inputs":[{"name":"animal","type":"string","internalType":"string"}],"outputs":[{"name":"encoded","type":"uint256","internalType":"uint256"},{"name":"shiftedBy176","type":"uint256","internalType":"uint256"},{"name":"shiftedBy160","type":"uint256","internalType":"uint256"}],"stateMutability":"pure"}],"bytecode":{"object":"0x6080604052348015600e575f5ffd5b506101e68061001c5f395ff3fe608060405234801561000f575f5ffd5b5060043610610034575f3560e01c806348286a55146100385780634ca14c571461006a575b5f5ffd5b61004b6100463660046100cf565b610072565b6040805193845260208401929092529082015260600160405180910390f35b61004b6100b9565b5f5f5f60a0858560405160200161008a92919061013d565b6040516020818303038152906040526100a29061014c565b901c9560b087901b955060a087901b945092505050565b60b060a05f6100c88284610172565b9050909192565b5f5f602083850312156100e0575f5ffd5b823567ffffffffffffffff8111156100f6575f5ffd5b8301601f81018513610106575f5ffd5b803567ffffffffffffffff81111561011c575f5ffd5b85602082840101111561012d575f5ffd5b6020919091019590945092505050565b818382375f9101908152919050565b8051602080830151919081101561016c575f198160200360031b1b821691505b50919050565b818103818111156101aa577f4e487b71000000000000000000000000000000000000000000000000000000005f52601160045260245ffd5b9291505056fea2646970667358221220656d2b623092ab0a4fe2d87981758fdefb557018fc6bf9ee91283972ac75f89264736f6c634300081c0033","linkReferences":{}},"methodIdentifiers":{"analyzeShifts()":"4ca14c57","testEncoding(string)":"48286a55"},"id":0}