{"abi":[{"type":"constructor","inputs":[{"name":"_stakeContract","type":"address","internalType":"address"}],"stateMutability":"nonpayable"},{"type":"receive","stateMutability":"payable"},{"type":"function","name":"allowance","inputs":[{"name":"owner","type":"address","internalType":"address"},{"name":"spender","type":"address","internalType":"address"}],"outputs":[{"name":"","type":"uint256","internalType":"uint256"}],"stateMutability":"view"},{"type":"function","name":"stakeContract","inputs":[],"outputs":[{"name":"","type":"address","internalType":"address"}],"stateMutability":"view"},{"type":"function","name":"transferFrom","inputs":[{"name":"","type":"address","internalType":"address"},{"name":"","type":"address","internalType":"address"},{"name":"","type":"uint256","internalType":"uint256"}],"outputs":[{"name":"","type":"bool","internalType":"bool"}],"stateMutability":"pure"}],"bytecode":{"object":"0x60a0604052348015600e575f5ffd5b506040516102af3803806102af833981016040819052602b91603b565b6001600160a01b03166080526066565b5f60208284031215604a575f5ffd5b81516001600160a01b0381168114605f575f5ffd5b9392505050565b60805161022b6100845f395f818160520152610101015261022b5ff3fe608060405260043610610036575f3560e01c80631a1862271461004157806323b872dd1461009e578063dd62ed3e146100d1575f5ffd5b3661003d57005b5f5ffd5b34801561004c575f5ffd5b506100747f000000000000000000000000000000000000000000000000000000000000000081565b60405173ffffffffffffffffffffffffffffffffffffffff90911681526020015b60405180910390f35b3480156100a9575f5ffd5b506100c16100b836600461018b565b60019392505050565b6040519015158152602001610095565b3480156100dc575f5ffd5b506100f06100eb3660046101c4565b6100fe565b604051908152602001610095565b5f7f000000000000000000000000000000000000000000000000000000000000000073ffffffffffffffffffffffffffffffffffffffff168273ffffffffffffffffffffffffffffffffffffffff160361015a57505f1961015d565b505f5b92915050565b803573ffffffffffffffffffffffffffffffffffffffff81168114610186575f5ffd5b919050565b5f5f5f6060848603121561019d575f5ffd5b6101a684610163565b92506101b460208501610163565b9150604084013590509250925092565b5f5f604083850312156101d5575f5ffd5b6101de83610163565b91506101ec60208401610163565b9050925092905056fea26469706673582212202131e1e1a59e8ad9cb46956c3eb64ebfd0419ee619ba2da41f125f6cb3b6f1d164736f6c634300081c0033","linkReferences":{}},"methodIdentifiers":{"allowance(address,address)":"dd62ed3e","stakeContract()":"1a186227","transferFrom(address,address,uint256)":"23b872dd"},"id":0}