{"abi":[{"type":"constructor","inputs":[{"name":"_vault","type":"address","internalType":"address"}],"stateMutability":"nonpayable"},{"type":"function","name":"vault","inputs":[],"outputs":[{"name":"","type":"address","internalType":"address"}],"stateMutability":"view"}],"bytecode":{"object":"0x60a0604052348015600e575f5ffd5b5060405161012a38038061012a833981016040819052602b91603b565b6001600160a01b03166080526066565b5f60208284031215604a575f5ffd5b81516001600160a01b0381168114605f575f5ffd5b9392505050565b60805160af61007b5f395f602e015260af5ff3fe6080604052348015600e575f5ffd5b50600436106026575f3560e01c8063fbfa77cf14602a575b5f5ffd5b60507f000000000000000000000000000000000000000000000000000000000000000081565b60405173ffffffffffffffffffffffffffffffffffffffff909116815260200160405180910390f3fea26469706673582212204198b279c6464f29c9e14c31b817824703e0ccf518a9f80908028003e089d4fb64736f6c634300081c0033","linkReferences":{}},"methodIdentifiers":{"vault()":"fbfa77cf"},"id":0}