{"abi":[{"type":"function","name":"checkDexState","inputs":[{"name":"dex","type":"address","internalType":"address"}],"outputs":[{"name":"owner","type":"address","internalType":"address"},{"name":"token1","type":"address","internalType":"address"},{"name":"token2","type":"address","internalType":"address"}],"stateMutability":"view"}],"bytecode":{"object":"0x6080604052348015600e575f5ffd5b506103938061001c5f395ff3fe608060405234801561000f575f5ffd5b5060043610610029575f3560e01c806381ae619c1461002d575b5f5ffd5b61004061003b3660046102f4565b61006b565b604080516001600160a01b039485168152928416602084015292168183015290519081900360600190f35b60408051600481526024810182526020810180516001600160e01b03167f8da5cb5b0000000000000000000000000000000000000000000000000000000017905290515f9182918291829182916001600160a01b038816916100cd9190610316565b5f60405180830381855afa9150503d805f8114610105576040519150601f19603f3d011682016040523d82523d5f602084013e61010a565b606091505b5060408051600481526024810182526020810180516001600160e01b03167fd21220a70000000000000000000000000000000000000000000000000000000017905290519294509092505f9182916001600160a01b038a169161016d9190610316565b5f60405180830381855afa9150503d805f81146101a5576040519150601f19603f3d011682016040523d82523d5f602084013e6101aa565b606091505b5060408051600481526024810182526020810180516001600160e01b03167f25be124e0000000000000000000000000000000000000000000000000000000017905290519294509092505f9182916001600160a01b038c169161020d9190610316565b5f60405180830381855afa9150503d805f8114610245576040519150601f19603f3d011682016040523d82523d5f602084013e61024a565b606091505b509150915085801561025e57506020855110155b1561027a57848060200190518101906102779190610342565b98505b83801561028957506020835110155b156102a557828060200190518101906102a29190610342565b97505b8180156102b457506020815110155b156102d057808060200190518101906102cd9190610342565b96505b5050505050509193909250565b6001600160a01b03811681146102f1575f5ffd5b50565b5f60208284031215610304575f5ffd5b813561030f816102dd565b9392505050565b5f82515f5b81811015610335576020818601810151858301520161031b565b505f920191825250919050565b5f60208284031215610352575f5ffd5b815161030f816102dd56fea26469706673582212206513051706d1ea3366d72a142f2e4502f935c83808176aa8ef245ad75b052f0d64736f6c634300081c0033","linkReferences":{}},"methodIdentifiers":{"checkDexState(address)":"81ae619c"},"id":0}