{"abi":[{"type":"constructor","inputs":[],"stateMutability":"nonpayable"},{"type":"function","name":"setSolver","inputs":[{"name":"_solver","type":"address","internalType":"address"}],"outputs":[],"stateMutability":"nonpayable"},{"type":"function","name":"solver","inputs":[],"outputs":[{"name":"","type":"address","internalType":"address"}],"stateMutability":"view"}],"bytecode":{"object":"0x6080604052348015600e575f5ffd5b506101468061001c5f395ff3fe608060405234801561000f575f5ffd5b5060043610610034575f3560e01c80631f8794331461003857806349a7a26d1461008e575b5f5ffd5b61008c6100463660046100d6565b5f80547fffffffffffffffffffffffff00000000000000000000000000000000000000001673ffffffffffffffffffffffffffffffffffffffff92909216919091179055565b005b5f546100ad9073ffffffffffffffffffffffffffffffffffffffff1681565b60405173ffffffffffffffffffffffffffffffffffffffff909116815260200160405180910390f35b5f602082840312156100e6575f5ffd5b813573ffffffffffffffffffffffffffffffffffffffff81168114610109575f5ffd5b939250505056fea26469706673582212205b1e8b5c965a996a400de02a3e689fe0366005323290b1ce9b201ee1d808bf4064736f6c634300081c0033","linkReferences":{}},"methodIdentifiers":{"setSolver(address)":"1f879433","solver()":"49a7a26d"},"id":2}