{"abi":[{"type":"constructor","inputs":[{"name":"_password","type":"string","internalType":"string"}],"stateMutability":"nonpayable"},{"type":"function","name":"authenticate","inputs":[{"name":"passkey","type":"string","internalType":"string"}],"outputs":[],"stateMutability":"nonpayable"},{"type":"function","name":"getCleared","inputs":[],"outputs":[{"name":"","type":"bool","internalType":"bool"}],"stateMutability":"view"},{"type":"function","name":"info","inputs":[],"outputs":[{"name":"","type":"string","internalType":"string"}],"stateMutability":"pure"},{"type":"function","name":"info1","inputs":[],"outputs":[{"name":"","type":"string","internalType":"string"}],"stateMutability":"pure"},{"type":"function","name":"info2","inputs":[{"name":"param","type":"string","internalType":"string"}],"outputs":[{"name":"","type":"string","internalType":"string"}],"stateMutability":"pure"},{"type":"function","name":"info42","inputs":[],"outputs":[{"name":"","type":"string","internalType":"string"}],"stateMutability":"pure"},{"type":"function","name":"infoNum","inputs":[],"outputs":[{"name":"","type":"uint8","internalType":"uint8"}],"stateMutability":"view"},{"type":"function","name":"method7123949","inputs":[],"outputs":[{"name":"","type":"string","internalType":"string"}],"stateMutability":"pure"},{"type":"function","name":"password","inputs":[],"outputs":[{"name":"","type":"string","internalType":"string"}],"stateMutability":"view"},{"type":"function","name":"theMethodName","inputs":[],"outputs":[{"name":"","type":"string","internalType":"string"}],"stateMutability":"view"}],"bytecode":{"object":"0x6001805460ff1916602a17905560e0604052602160808181529061097960a03960029061002c908261010b565b506003805460ff19169055348015610042575f5ffd5b5060405161099a38038061099a833981016040819052610061916101c5565b5f61006c828261010b565b505061028a565b634e487b7160e01b5f52604160045260245ffd5b600181811c9082168061009b57607f821691505b6020821081036100b957634e487b7160e01b5f52602260045260245ffd5b50919050565b601f82111561010657805f5260205f20601f840160051c810160208510156100e45750805b601f840160051c820191505b81811015610103575f81556001016100f0565b50505b505050565b81516001600160401b0381111561012457610124610073565b610138816101328454610087565b846100bf565b6020601f82116001811461016a575f83156101535750848201515b5f19600385901b1c1916600184901b178455610103565b5f84815260208120601f198516915b828110156101995787850151825560209485019460019092019101610179565b50848210156101b657868401515f19600387901b60f8161c191681555b50505050600190811b01905550565b5f602082840312156101d5575f5ffd5b81516001600160401b038111156101ea575f5ffd5b8201601f810184136101fa575f5ffd5b80516001600160401b0381111561021357610213610073565b604051601f8201601f19908116603f011681016001600160401b038111828210171561024157610241610073565b604052818152828201602001861015610258575f5ffd5b5f5b828110156102765760208185018101518383018201520161025a565b505f91810160200191909152949350505050565b6106e2806102975f395ff3fe608060405234801561000f575f5ffd5b50600436106100b9575f3560e01c8063aa613b2911610072578063d4c3cf4411610058578063d4c3cf4414610148578063f0bc708114610150578063f157a1e314610158575f5ffd5b8063aa613b2914610114578063c253aebe14610129575f5ffd5b80632cbd79a5116100a25780632cbd79a5146100ee578063370158ea146100f65780633c848d78146100fe575f5ffd5b80632133b6a9146100bd578063224b610b146100e6575b5f5ffd5b6100d06100cb3660046103b9565b610160565b6040516100dd919061048e565b60405180910390f35b6100d0610229565b6100d06102b4565b6100d06102d4565b60035460ff1660405190151581526020016100dd565b6101276101223660046103b9565b6102f4565b005b6001546101369060ff1681565b60405160ff90911681526020016100dd565b6100d0610358565b6100d0610378565b6100d0610398565b6040517f68656c6c6f000000000000000000000000000000000000000000000000000000602082015260609060250160405160208183030381529060405280519060200120826040516020016101b691906104c0565b60405160208183030381529060405280519060200120036101f0576040518060800160405280604681526020016106046046913992915050565b505060408051808201909152601081527f57726f6e6720706172616d657465722e00000000000000000000000000000000602082015290565b5f8054610235906104db565b80601f0160208091040260200160405190810160405280929190818152602001828054610261906104db565b80156102ac5780601f10610283576101008083540402835291602001916102ac565b820191905f5260205f20905b81548152906001019060200180831161028f57829003601f168201915b505050505081565b60606040518060600160405280602d8152602001610680602d9139905090565b60606040518060600160405280602781526020016105b060279139905090565b5f6040516020016103059190610513565b604051602081830303815290604052805190602001208160405160200161032c91906104c0565b6040516020818303038152906040528051906020012003610355576003805460ff191660011790555b50565b60606040518060600160405280602d81526020016105d7602d9139905090565b606060405180606001604052806036815260200161064a60369139905090565b60028054610235906104db565b634e487b7160e01b5f52604160045260245ffd5b5f602082840312156103c9575f5ffd5b813567ffffffffffffffff8111156103df575f5ffd5b8201601f810184136103ef575f5ffd5b803567ffffffffffffffff811115610409576104096103a5565b604051601f8201601f19908116603f0116810167ffffffffffffffff81118282101715610438576104386103a5565b60405281815282820160200186101561044f575f5ffd5b816020840160208301375f91810160200191909152949350505050565b5f5b8381101561048657818101518382015260200161046e565b50505f910152565b602081525f82518060208401526104ac81604085016020870161046c565b601f01601f19169190910160400192915050565b5f82516104d181846020870161046c565b9190910192915050565b600181811c908216806104ef57607f821691505b60208210810361050d57634e487b7160e01b5f52602260045260245ffd5b50919050565b5f5f83545f8160011c9050600182168061052e57607f821691505b60208210810361054c57634e487b7160e01b5f52602260045260245ffd5b8080156105605760018114610575576105a3565b60ff19841687528215158302870194506105a3565b5f888152602090205f5b8481101561059b5781548982015260019091019060200161057f565b505082870194505b5092969550505050505056fe596f752077696c6c2066696e64207768617420796f75206e65656420696e20696e666f3128292e54727920696e666f3228292c206275742077697468202268656c6c6f22206173206120706172616d657465722e5468652070726f706572747920696e666f4e756d20686f6c647320746865206e756d626572206f6620746865206e65787420696e666f206d6574686f6420746f2063616c6c2e496620796f75206b6e6f77207468652070617373776f72642c207375626d697420697420746f2061757468656e74696361746528292e7468654d6574686f644e616d6520697320746865206e616d65206f6620746865206e657874206d6574686f642ea26469706673582212203a33df661ad5872973f82de64759865e4a5f7ba5641061b18d1140eb599a473864736f6c634300081c0033546865206d6574686f64206e616d65206973206d6574686f64373132333934392e","linkReferences":{}},"methodIdentifiers":{"authenticate(string)":"aa613b29","getCleared()":"3c848d78","info()":"370158ea","info1()":"d4c3cf44","info2(string)":"2133b6a9","info42()":"2cbd79a5","infoNum()":"c253aebe","method7123949()":"f0bc7081","password()":"224b610b","theMethodName()":"f157a1e3"},"id":2}