{"abi":[{"type":"constructor","inputs":[{"name":"_target","type":"address","internalType":"address"}],"stateMutability":"nonpayable"},{"type":"function","name":"attack","inputs":[{"name":"newController","type":"address","internalType":"address"}],"outputs":[],"stateMutability":"nonpayable"},{"type":"function","name":"target","inputs":[],"outputs":[{"name":"","type":"address","internalType":"address"}],"stateMutability":"view"}],"bytecode":{"object":"0x6080604052348015600e575f5ffd5b5060405161022c38038061022c833981016040819052602b91604e565b5f80546001600160a01b0319166001600160a01b03929092169190911790556079565b5f60208284031215605d575f5ffd5b81516001600160a01b03811681146072575f5ffd5b9392505050565b6101a6806100865f395ff3fe608060405234801561000f575f5ffd5b5060043610610034575f3560e01c8063d018db3e14610038578063d4b839921461004d575b5f5ffd5b61004b610046366004610136565b610095565b005b5f5461006c9073ffffffffffffffffffffffffffffffffffffffff1681565b60405173ffffffffffffffffffffffffffffffffffffffff909116815260200160405180910390f35b5f80546040517f3e8cd570000000000000000000000000000000000000000000000000000000008152601b60048201819052602482018490526044820184905273ffffffffffffffffffffffffffffffffffffffff85811660648401529093928392911690633e8cd570906084015f604051808303815f87803b15801561011a575f5ffd5b505af115801561012c573d5f5f3e3d5ffd5b5050505050505050565b5f60208284031215610146575f5ffd5b813573ffffffffffffffffffffffffffffffffffffffff81168114610169575f5ffd5b939250505056fea26469706673582212206998cc200458321bf771d38b446c28e9f6fa6e515c5e76016949ca91bdd83a2964736f6c634300081c0033","linkReferences":{}},"methodIdentifiers":{"attack(address)":"d018db3e","target()":"d4b83992"},"id":0}