{"abi":[{"type":"constructor","inputs":[{"name":"coinFlipAddress","type":"address","internalType":"address"}],"stateMutability":"nonpayable"},{"type":"function","name":"FACTOR","inputs":[],"outputs":[{"name":"","type":"uint256","internalType":"uint256"}],"stateMutability":"view"},{"type":"function","name":"coinFlip","inputs":[],"outputs":[{"name":"","type":"address","internalType":"contract ICoinFlip"}],"stateMutability":"view"},{"type":"function","name":"flipCorrectly","inputs":[],"outputs":[],"stateMutability":"nonpayable"}],"bytecode":{"object":"0x6080604052348015600e575f5ffd5b5060405161029b38038061029b833981016040819052602b91604e565b5f80546001600160a01b0319166001600160a01b03929092169190911790556079565b5f60208284031215605d575f5ffd5b81516001600160a01b03811681146072575f5ffd5b9392505050565b610215806100865f395ff3fe608060405234801561000f575f5ffd5b506004361061003f575f3560e01c80632b29e5151461004357806335815b951461004d5780635ac947cb1461006b575b5f5ffd5b61004b6100af565b005b610058600160ff1b81565b6040519081526020015b60405180910390f35b5f5461008a9073ffffffffffffffffffffffffffffffffffffffff1681565b60405173ffffffffffffffffffffffffffffffffffffffff9091168152602001610062565b5f6100bb600143610175565b4090505f6100cd600160ff1b8361019a565b6001146100da575f6100dd565b60015b5f546040517f1d263f67000000000000000000000000000000000000000000000000000000008152821515600482015291925073ffffffffffffffffffffffffffffffffffffffff1690631d263f67906024016020604051808303815f875af115801561014c573d5f5f3e3d5ffd5b505050506040513d601f19601f8201168201806040525081019061017091906101b9565b505050565b8181038181111561019457634e487b7160e01b5f52601160045260245ffd5b92915050565b5f826101b457634e487b7160e01b5f52601260045260245ffd5b500490565b5f602082840312156101c9575f5ffd5b815180151581146101d8575f5ffd5b939250505056fea264697066735822122084ecca766f67d4d794a1fcd481719485f380fdd9c9ed755bc4e09031a0ad63f164736f6c634300081c0033","linkReferences":{}},"methodIdentifiers":{"FACTOR()":"35815b95","coinFlip()":"5ac947cb","flipCorrectly()":"2b29e515"},"id":0}