{"abi":[{"type":"constructor","inputs":[{"name":"_target","type":"address","internalType":"address"}],"stateMutability":"nonpayable"},{"type":"receive","stateMutability":"payable"},{"type":"function","name":"target","inputs":[],"outputs":[{"name":"","type":"address","internalType":"address"}],"stateMutability":"view"}],"bytecode":{"object":"0x60a0604052348015600e575f5ffd5b5060405161015c38038061015c833981016040819052602b91603b565b6001600160a01b03166080526066565b5f60208284031215604a575f5ffd5b81516001600160a01b0381168114605f575f5ffd5b9392505050565b60805160e161007b5f395f6060015260e15ff3fe608060405260043610601e575f3560e01c8063d4b83992146051575f5ffd5b36604d575f5a90505b6108fc5a1115604d575f5b600a8110156048575a6002901b91506001016032565b506027565b5f5ffd5b348015605b575f5ffd5b5060827f000000000000000000000000000000000000000000000000000000000000000081565b60405173ffffffffffffffffffffffffffffffffffffffff909116815260200160405180910390f3fea2646970667358221220d4a9266f267cddea41715312b0d957eb189a88867096561744a2e12be94444e264736f6c634300081c0033","linkReferences":{}},"methodIdentifiers":{"target()":"d4b83992"},"id":0}