{"abi":[{"type":"function","name":"triggerAttack","inputs":[],"outputs":[],"stateMutability":"nonpayable"}],"bytecode":{"object":"0x6080604052348015600e575f5ffd5b506101448061001c5f395ff3fe608060405234801561000f575f5ffd5b5060043610610029575f3560e01c806320d5a9ba1461002d575b5f5ffd5b610035610037565b005b6040517fa9059cbb0000000000000000000000000000000000000000000000000000000081527310c6e9530f1c1af873a391030a1d9e8ed0630d266004820152683635c9adc5dea00000602482015273a16e02e87b7454126e5e10d957a927a7f5b5d2be9063a9059cbb906044016020604051808303815f875af11580156100c1573d5f5f3e3d5ffd5b505050506040513d601f19601f820116820180604052508101906100e591906100e8565b50565b5f602082840312156100f8575f5ffd5b81518015158114610107575f5ffd5b939250505056fea2646970667358221220ae44278d0246170cf9b19d03e95e1b9cab1ed5c7db422344d7c1ac195ee37aad64736f6c634300081c0033","linkReferences":{}},"methodIdentifiers":{"triggerAttack()":"20d5a9ba"},"id":0}