{"abi":[{"type":"function","name":"getCallCount","inputs":[],"outputs":[{"name":"","type":"uint256","internalType":"uint256"}],"stateMutability":"view"},{"type":"function","name":"isLastFloor","inputs":[{"name":"_floor","type":"uint256","internalType":"uint256"}],"outputs":[{"name":"","type":"bool","internalType":"bool"}],"stateMutability":"nonpayable"}],"bytecode":{"object":"0x6080604052348015600e575f5ffd5b506101108061001c5f395ff3fe6080604052348015600e575f5ffd5b50600436106030575f3560e01c80635f9a4bca146034578063a96b2dc0146058575b5f5ffd5b6043603f3660046087565b6067565b60405190151581526020015b60405180910390f35b5f54604051908152602001604f565b5f60015f5f82825460779190609d565b90915550505f5460011492915050565b5f602082840312156096575f5ffd5b5035919050565b8082018082111560d4577f4e487b71000000000000000000000000000000000000000000000000000000005f52601160045260245ffd5b9291505056fea26469706673582212205896165206c3dbb869abe279be240f602a66990e0e7910fc14e82915c9b6ef6c64736f6c634300081c0033","linkReferences":{}},"methodIdentifiers":{"getCallCount()":"a96b2dc0","isLastFloor(uint256)":"5f9a4bca"},"id":0}