{"abi":[{"type":"function","name":"buy","inputs":[],"outputs":[],"stateMutability":"nonpayable"},{"type":"function","name":"isSold","inputs":[],"outputs":[{"name":"","type":"bool","internalType":"bool"}],"stateMutability":"view"},{"type":"function","name":"price","inputs":[],"outputs":[{"name":"","type":"uint256","internalType":"uint256"}],"stateMutability":"view"}],"bytecode":{"object":"0x608060405260645f553480156012575f5ffd5b506101fa806100205f395ff3fe608060405234801561000f575f5ffd5b506004361061003f575f3560e01c8063a035b1fe14610043578063a6f2ae3a1461005e578063e852e74114610068575b5f5ffd5b61004b5f5481565b6040519081526020015b60405180910390f35b610066610085565b005b6001546100759060ff1681565b6040519015158152602001610055565b5f3390505f548173ffffffffffffffffffffffffffffffffffffffff1663a035b1fe6040518163ffffffff1660e01b8152600401602060405180830381865afa1580156100d4573d5f5f3e3d5ffd5b505050506040513d601f19601f820116820180604052508101906100f891906101ad565b10158015610109575060015460ff16155b156101aa576001805460ff191681179055604080517fa035b1fe000000000000000000000000000000000000000000000000000000008152905173ffffffffffffffffffffffffffffffffffffffff83169163a035b1fe9160048083019260209291908290030181865afa158015610183573d5f5f3e3d5ffd5b505050506040513d601f19601f820116820180604052508101906101a791906101ad565b5f555b50565b5f602082840312156101bd575f5ffd5b505191905056fea2646970667358221220ee6d448d145a851df05a7a72d25ff9903103983a879ba1789fcece3f04b136f664736f6c634300081c0033","linkReferences":{}},"methodIdentifiers":{"buy()":"a6f2ae3a","isSold()":"e852e741","price()":"a035b1fe"},"id":2}