{"abi":[{"type":"function","name":"createAndExploit","inputs":[{"name":"factory","type":"address","internalType":"address"}],"outputs":[{"name":"","type":"address","internalType":"address"}],"stateMutability":"nonpayable"},{"type":"function","name":"exploit","inputs":[{"name":"naughtCoin","type":"address","internalType":"address"}],"outputs":[],"stateMutability":"nonpayable"}],"bytecode":{"object":"0x6080604052348015600e575f5ffd5b506103388061001c5f395ff3fe608060405234801561000f575f5ffd5b5060043610610034575f3560e01c80630aeb4ddf14610038578063c72dc1151461004d575b5f5ffd5b61004b61004636600461028f565b61007c565b005b61006061005b36600461028f565b61017d565b6040516001600160a01b03909116815260200160405180910390f35b6040516370a0823160e01b815233600482015281905f906001600160a01b038316906370a0823190602401602060405180830381865afa1580156100c2573d5f5f3e3d5ffd5b505050506040513d601f19601f820116820180604052508101906100e691906102b1565b6040517f23b872dd00000000000000000000000000000000000000000000000000000000815233600482015260016024820152604481018290529091506001600160a01b038316906323b872dd906064016020604051808303815f875af1158015610153573d5f5f3e3d5ffd5b505050506040513d601f19601f8201168201806040525081019061017791906102c8565b50505050565b6040517f7726f7760000000000000000000000000000000000000000000000000000000081523360048201525f9081906001600160a01b03841690637726f776906024016020604051808303815f875af11580156101dd573d5f5f3e3d5ffd5b505050506040513d601f19601f8201168201806040525081019061020191906102e7565b6040516370a0823160e01b815233600482015290915081905f906001600160a01b038316906370a0823190602401602060405180830381865afa15801561024a573d5f5f3e3d5ffd5b505050506040513d601f19601f8201168201806040525081019061026e91906102b1565b5091949350505050565b6001600160a01b038116811461028c575f5ffd5b50565b5f6020828403121561029f575f5ffd5b81356102aa81610278565b9392505050565b5f602082840312156102c1575f5ffd5b5051919050565b5f602082840312156102d8575f5ffd5b815180151581146102aa575f5ffd5b5f602082840312156102f7575f5ffd5b81516102aa8161027856fea2646970667358221220757bf8b750091c7c61e27ba822cf657534434d07c42688dc8bc6dedb4c0a23e364736f6c634300081c0033","linkReferences":{}},"methodIdentifiers":{"createAndExploit(address)":"c72dc115","exploit(address)":"0aeb4ddf"},"id":0}