{"abi":[{"type":"function","name":"instance","inputs":[],"outputs":[{"name":"","type":"address","internalType":"address"}],"stateMutability":"view"},{"type":"function","name":"recoverAndDestroy","inputs":[{"name":"nonce","type":"uint256","internalType":"uint256"}],"outputs":[],"stateMutability":"nonpayable"}],"bytecode":{"object":"0x60806040525f80546001600160a01b03191673a16e02e87b7454126e5e10d957a927a7f5b5d2be1790553480156033575f5ffd5b506101c7806100415f395ff3fe608060405234801561000f575f5ffd5b5060043610610034575f3560e01c8063022ec09514610038578063848fc50e14610080575b5f5ffd5b5f546100579073ffffffffffffffffffffffffffffffffffffffff1681565b60405173ffffffffffffffffffffffffffffffffffffffff909116815260200160405180910390f35b61009361008e36600461017a565b610095565b005b5f6100fb825f805460405160609190911b6bffffffffffffffffffffffff1916602082015260348101839052819060540160408051601f19818403018152919052805160209091012073ffffffffffffffffffffffffffffffffffffffff169392505050565b6040517ef55d9d00000000000000000000000000000000000000000000000000000000815233600482015290915073ffffffffffffffffffffffffffffffffffffffff82169062f55d9d906024015f604051808303815f87803b158015610160575f5ffd5b505af1158015610172573d5f5f3e3d5ffd5b505050505050565b5f6020828403121561018a575f5ffd5b503591905056fea2646970667358221220006a9d4b38e5ca3227946335f92046c24d45ed9ba95cf195ba56406a218619af64736f6c634300081c0033","linkReferences":{}},"methodIdentifiers":{"instance()":"022ec095","recoverAndDestroy(uint256)":"848fc50e"},"id":0}