{"abi":[{"type":"function","name":"getDepositData","inputs":[],"outputs":[{"name":"","type":"bytes","internalType":"bytes"}],"stateMutability":"pure"},{"type":"function","name":"getMulticallWithDeposit","inputs":[],"outputs":[{"name":"","type":"bytes","internalType":"bytes"}],"stateMutability":"pure"}],"bytecode":{"object":"0x6080604052348015600e575f5ffd5b506102758061001c5f395ff3fe608060405234801561000f575f5ffd5b5060043610610034575f3560e01c806338a4215914610038578063b40e3fa41461007d575b5f5ffd5b6100676040805160048152602481019091526020810180516001600160e01b0316630d0e30db60e41b17905290565b6040516100749190610196565b60405180910390f35b604080516001808252818301909252610067916060915f91816020015b606081526020019060019003908161009a579050506040805160048152602481019091526020810180516001600160e01b0316630d0e30db60e41b17905281519192509082905f906100ee576100ee6101af565b60200260200101819052508060405160240161010a91906101dc565b60408051601f198184030181529190526020810180516001600160e01b03167fac9650d80000000000000000000000000000000000000000000000000000000017905292915050565b5f81518084525f5b818110156101775760208185018101518683018201520161015b565b505f602082860101526020601f19601f83011685010191505092915050565b602081525f6101a86020830184610153565b9392505050565b7f4e487b71000000000000000000000000000000000000000000000000000000005f52603260045260245ffd5b5f602082016020835280845180835260408501915060408160051b8601019250602086015f5b8281101561023357603f1987860301845261021e858351610153565b94506020938401939190910190600101610202565b5092969550505050505056fea2646970667358221220500f1c55135d42ea9162b93cea2dd5be83394713d2d2e2bd66492234bdfb0bb564736f6c634300081c0033","linkReferences":{}},"methodIdentifiers":{"getDepositData()":"38a42159","getMulticallWithDeposit()":"b40e3fa4"},"id":0}