{"abi":[{"type":"receive","stateMutability":"payable"},{"type":"function","name":"withdrawFunds","inputs":[],"outputs":[],"stateMutability":"nonpayable"}],"bytecode":{"object":"0x6080604052348015600e575f5ffd5b5060ed8061001b5f395ff3fe608060405260043610601e575f3560e01c806324600fc3146043575f5ffd5b36603f575f5b620186a05a1115603d5780603681607b565b9150506024565b005b5f5ffd5b348015604d575f5ffd5b50603d60405133904780156108fc02915f818181858888f193505050501580156078573d5f5f3e3d5ffd5b50565b5f6001820160b0577f4e487b71000000000000000000000000000000000000000000000000000000005f52601160045260245ffd5b506001019056fea26469706673582212209aa48da891dc7d753514109e043273a32446fe5f3e538dec4c3bad24195b6e7f64736f6c634300081c0033","linkReferences":{}},"methodIdentifiers":{"withdrawFunds()":"24600fc3"},"id":0}