{"abi":[{"type":"constructor","inputs":[{"name":"_dex","type":"address","internalType":"address"}],"stateMutability":"nonpayable"},{"type":"function","name":"dex","inputs":[],"outputs":[{"name":"","type":"address","internalType":"contract Dex"}],"stateMutability":"view"},{"type":"function","name":"probeOwner","inputs":[],"outputs":[{"name":"","type":"address","internalType":"address"}],"stateMutability":"view"},{"type":"function","name":"probeTokens","inputs":[],"outputs":[{"name":"","type":"address","internalType":"address"},{"name":"","type":"address","internalType":"address"}],"stateMutability":"view"}],"bytecode":{"object":"0x6080604052348015600e575f5ffd5b50604051610313380380610313833981016040819052602b91604e565b5f80546001600160a01b0319166001600160a01b03929092169190911790556079565b5f60208284031215605d575f5ffd5b81516001600160a01b03811681146072575f5ffd5b9392505050565b61028d806100865f395ff3fe608060405234801561000f575f5ffd5b506004361061003f575f3560e01c80631c980e1014610043578063692058c214610070578063edea05ab1461009a575b5f5ffd5b61004b6100a2565b604080516001600160a01b039384168152929091166020830152015b60405180910390f35b5f54610082906001600160a01b031681565b6040516001600160a01b039091168152602001610067565b6100826101ae565b5f8054604080517fd21220a7000000000000000000000000000000000000000000000000000000008152905183926001600160a01b03169163d21220a79160048083019260209291908290030181865afa925050508015610120575060408051601f3d908101601f1916820190925261011d9181019061022a565b60015b61012c57505f91829150565b5f5f9054906101000a90046001600160a01b03166001600160a01b03166325be124e6040518163ffffffff1660e01b8152600401602060405180830381865afa925050508015610199575060408051601f3d908101601f191682019092526101969181019061022a565b60015b6101a557925f92509050565b90939092509050565b5f5f5f9054906101000a90046001600160a01b03166001600160a01b0316638da5cb5b6040518163ffffffff1660e01b8152600401602060405180830381865afa92505050801561021c575060408051601f3d908101601f191682019092526102199181019061022a565b60015b61022557505f90565b919050565b5f6020828403121561023a575f5ffd5b81516001600160a01b0381168114610250575f5ffd5b939250505056fea26469706673582212200725f51dff4ec27ce56a0a8e3a9d3e64f4d8f49698da4b23380eb86a7e2e1c7364736f6c634300081c0033","linkReferences":{}},"methodIdentifiers":{"dex()":"692058c2","probeOwner()":"edea05ab","probeTokens()":"1c980e10"},"id":5}