{"abi":[{"type":"function","name":"attack","inputs":[],"outputs":[],"stateMutability":"nonpayable"},{"type":"function","name":"recoveryInstance","inputs":[],"outputs":[{"name":"","type":"address","internalType":"address"}],"stateMutability":"view"}],"bytecode":{"object":"0x60806040525f80546001600160a01b03191673a16e02e87b7454126e5e10d957a927a7f5b5d2be1790553480156033575f5ffd5b50610205806100415f395ff3fe608060405234801561000f575f5ffd5b5060043610610034575f3560e01c80639e5faafc14610038578063f775b28614610042575b5f5ffd5b61004061008a565b005b5f546100619073ffffffffffffffffffffffffffffffffffffffff1681565b60405173ffffffffffffffffffffffffffffffffffffffff909116815260200160405180910390f35b5f805460405160609190911b6bffffffffffffffffffffffff191660208201526001603482015260540160408051601f1981840301815290829052805160209091012033602483015291505f9073ffffffffffffffffffffffffffffffffffffffff83169060440160408051601f198184030181529181526020820180517bffffffffffffffffffffffffffffffffffffffffffffffffffffffff167ef55d9d000000000000000000000000000000000000000000000000000000001790525161015491906101a3565b5f604051808303815f865af19150503d805f811461018d576040519150601f19603f3d011682016040523d82523d5f602084013e610192565b606091505b505090508061019f575f5ffd5b5050565b5f82515f5b818110156101c257602081860181015185830152016101a8565b505f92019182525091905056fea2646970667358221220b4fce729465da48d8e25c9b5e02d950aaf9cf0e9ebea4b61bce770c766dc63b564736f6c634300081c0033","linkReferences":{}},"methodIdentifiers":{"attack()":"9e5faafc","recoveryInstance()":"f775b286"},"id":0}