{"abi":[{"type":"function","name":"getImplementation","inputs":[],"outputs":[{"name":"impl","type":"address","internalType":"address"}],"stateMutability":"view"}],"bytecode":{"object":"0x6080604052348015600f57600080fd5b5060b78061001e6000396000f3fe6080604052348015600f57600080fd5b506004361060285760003560e01c8063aaf10f4214602d575b600080fd5b6033605c565b6040805173ffffffffffffffffffffffffffffffffffffffff9092168252519081900360200190f35b7f360894a13ba1a3210667c828492db98dca3e2076cc3735a920a3ca505d382bbc549056fea2646970667358221220a0600ab2bdcd4a644d108008b6dc9fe3241934ef9ad9ebfb7783d8b23a4b6f6964736f6c634300060c0033","linkReferences":{}},"methodIdentifiers":{"getImplementation()":"aaf10f42"},"id":0}