{"abi":[{"type":"function","name":"horsePower","inputs":[],"outputs":[{"name":"","type":"uint256","internalType":"uint256"}],"stateMutability":"view"},{"type":"function","name":"initialize","inputs":[],"outputs":[],"stateMutability":"nonpayable"},{"type":"function","name":"setZeroHorsePowerAndUpgrader","inputs":[],"outputs":[],"stateMutability":"nonpayable"},{"type":"function","name":"upgradeToAndCall","inputs":[{"name":"newImplementation","type":"address","internalType":"address"},{"name":"data","type":"bytes","internalType":"bytes"}],"outputs":[],"stateMutability":"payable"},{"type":"function","name":"upgrader","inputs":[],"outputs":[{"name":"","type":"address","internalType":"address"}],"stateMutability":"view"}],"bytecode":{"object":"0x608060405234801561001057600080fd5b50610495806100206000396000f3fe60806040526004361061005a5760003560e01c8063564f6d7111610043578063564f6d711461012c5780638129fc1c14610153578063af269745146101685761005a565b80633f36856b1461005f5780634f1ef28614610076575b600080fd5b34801561006b57600080fd5b50610074610199565b005b6100746004803603604081101561008c57600080fd5b6001600160a01b0382351691908101906040810160208201356401000000008111156100b757600080fd5b8201836020820111156100c957600080fd5b803590602001918460018302840111640100000000831117156100eb57600080fd5b91908080601f0160208091040260200160405190810160405280939291908181526020018383808284376000920191909152509295506101cf945050505050565b34801561013857600080fd5b506101416101e5565b60408051918252519081900360200190f35b34801561015f57600080fd5b506100746101eb565b34801561017457600080fd5b5061017d610292565b604080516001600160a01b039092168252519081900360200190f35b6000600181905580547fffffffffffffffffffff0000000000000000000000000000000000000000ffff16336201000002179055565b6101d76102a7565b6101e1828261030e565b5050565b60015481565b600054610100900460ff1680610204575061020461041a565b80610212575060005460ff16155b61024d5760405162461bcd60e51b815260040180806020018281038252602e815260200180610432602e913960400191505060405180910390fd5b600054610100900460ff16158015610278576000805460ff1961ff0019909116610100171660011790555b6000600155801561028f576000805461ff00191690555b50565b6000546201000090046001600160a01b031681565b6000546201000090046001600160a01b0316331461030c576040805162461bcd60e51b815260206004820152600d60248201527f43616e2774207570677261646500000000000000000000000000000000000000604482015290519081900360640190fd5b565b6103178261028f565b8051156101e1576000826001600160a01b0316826040518082805190602001908083835b6020831061035a5780518252601f19909201916020918201910161033b565b6001836020036101000a038019825116818451168082178552505050505050905001915050600060405180830381855af49150503d80600081146103ba576040519150601f19603f3d011682016040523d82523d6000602084013e6103bf565b606091505b5050905080610415576040805162461bcd60e51b815260206004820152600b60248201527f43616c6c206661696c6564000000000000000000000000000000000000000000604482015290519081900360640190fd5b505050565b60006104253061042b565b15905090565b3b15159056fe496e697469616c697a61626c653a20636f6e747261637420697320616c726561647920696e697469616c697a6564a2646970667358221220c0e596d978844cca34f8c56b67607b56018a02b245d49ddb689b5e716bbc276d64736f6c634300060c0033","linkReferences":{}},"methodIdentifiers":{"horsePower()":"564f6d71","initialize()":"8129fc1c","setZeroHorsePowerAndUpgrader()":"3f36856b","upgradeToAndCall(address,bytes)":"4f1ef286","upgrader()":"af269745"},"id":2}