{"abi":[{"type":"constructor","inputs":[{"name":"_impersonator","type":"address","internalType":"address"}],"stateMutability":"nonpayable"},{"type":"function","name":"checkOwner","inputs":[],"outputs":[{"name":"","type":"address","internalType":"address"}],"stateMutability":"view"},{"type":"function","name":"deployer","inputs":[],"outputs":[{"name":"","type":"address","internalType":"address"}],"stateMutability":"view"},{"type":"function","name":"impersonator","inputs":[],"outputs":[{"name":"","type":"address","internalType":"contract IImpersonator"}],"stateMutability":"view"},{"type":"function","name":"tryTransfer","inputs":[],"outputs":[],"stateMutability":"nonpayable"}],"bytecode":{"object":"0x6080604052348015600e575f5ffd5b50604051610282380380610282833981016040819052602b916057565b5f80546001600160a01b039092166001600160a01b031992831617905560018054909116331790556082565b5f602082840312156066575f5ffd5b81516001600160a01b0381168114607b575f5ffd5b9392505050565b6101f38061008f5f395ff3fe608060405234801561000f575f5ffd5b506004361061004a575f3560e01c806377f6b3581461004e5780638136fd9014610058578063cdbce03d14610086578063d5f394881461008e575b5f5ffd5b6100566100a1565b005b5f5461006a906001600160a01b031681565b6040516001600160a01b03909116815260200160405180910390f35b61006a610117565b60015461006a906001600160a01b031681565b5f546001546040517ff2fde38b0000000000000000000000000000000000000000000000000000000081526001600160a01b03918216600482015291169063f2fde38b906024015f604051808303815f87803b1580156100ff575f5ffd5b505af1158015610111573d5f5f3e3d5ffd5b50505050565b5f5f5f9054906101000a90046001600160a01b03166001600160a01b0316638da5cb5b6040518163ffffffff1660e01b8152600401602060405180830381865afa158015610167573d5f5f3e3d5ffd5b505050506040513d601f19601f8201168201806040525081019061018b9190610190565b905090565b5f602082840312156101a0575f5ffd5b81516001600160a01b03811681146101b6575f5ffd5b939250505056fea26469706673582212208057923dafb9f67714c472b5cbb6718311460da31ce80bcfb8b43571018ac82764736f6c634300081c0033","linkReferences":{}},"methodIdentifiers":{"checkOwner()":"cdbce03d","deployer()":"d5f39488","impersonator()":"8136fd90","tryTransfer()":"77f6b358"},"id":0}