{"abi":[{"type":"function","name":"getAnimalMask","inputs":[],"outputs":[{"name":"","type":"uint256","internalType":"uint256"}],"stateMutability":"pure"},{"type":"function","name":"getAnimalMaskCorrect","inputs":[],"outputs":[{"name":"","type":"uint256","internalType":"uint256"}],"stateMutability":"pure"},{"type":"function","name":"getExpectedAnimalMask","inputs":[],"outputs":[{"name":"","type":"uint256","internalType":"uint256"}],"stateMutability":"pure"}],"bytecode":{"object":"0x6080604052348015600e575f5ffd5b506101148061001c5f395ff3fe6080604052348015600e575f5ffd5b5060043610603a575f3560e01c80630c6aae8f14603e57806313c99e2a14603e578063d150e13b146072575b5f5ffd5b7fffffffffffffffffffff000000000000000000000000000000000000000000005b60405190815260200160405180910390f35b60605f609c7dffffffffffffffffffff0000000000000000000000000000000000000000601060a1565b905090565b8082018082111560d8577f4e487b71000000000000000000000000000000000000000000000000000000005f52601160045260245ffd5b9291505056fea26469706673582212206e134fd90f458a304e545fa1833a2f5497249508fb0b557f4453f03c03cce15b64736f6c634300081c0033","linkReferences":{}},"methodIdentifiers":{"getAnimalMask()":"0c6aae8f","getAnimalMaskCorrect()":"13c99e2a","getExpectedAnimalMask()":"d150e13b"},"id":0}