{"abi":[{"type":"function","name":"allowance","inputs":[{"name":"","type":"address","internalType":"address"},{"name":"","type":"address","internalType":"address"}],"outputs":[{"name":"","type":"uint256","internalType":"uint256"}],"stateMutability":"view"},{"type":"function","name":"transferFrom","inputs":[{"name":"","type":"address","internalType":"address"},{"name":"","type":"address","internalType":"address"},{"name":"","type":"uint256","internalType":"uint256"}],"outputs":[{"name":"","type":"bool","internalType":"bool"}],"stateMutability":"nonpayable"}],"bytecode":{"object":"0x6080604052348015600e575f5ffd5b506101588061001c5f395ff3fe608060405234801561000f575f5ffd5b5060043610610034575f3560e01c806323b872dd14610038578063dd62ed3e14610064575b5f5ffd5b61004f6100463660046100b8565b60019392505050565b60405190151581526020015b60405180910390f35b6100826100723660046100f1565b683635c9adc5dea0000092915050565b60405190815260200161005b565b803573ffffffffffffffffffffffffffffffffffffffff811681146100b3575f5ffd5b919050565b5f5f5f606084860312156100ca575f5ffd5b6100d384610090565b92506100e160208501610090565b9150604084013590509250925092565b5f5f60408385031215610102575f5ffd5b61010b83610090565b915061011960208401610090565b9050925092905056fea26469706673582212205f36276fe27bef1f196e83c219935b1f626b145e6969aa3244436cc0caff823a64736f6c634300081c0033","linkReferences":{}},"methodIdentifiers":{"allowance(address,address)":"dd62ed3e","transferFrom(address,address,uint256)":"23b872dd"},"id":0}