{"abi":[{"type":"constructor","inputs":[],"stateMutability":"nonpayable"},{"type":"function","name":"destroyIt","inputs":[],"outputs":[],"stateMutability":"nonpayable"},{"type":"function","name":"targetToken","inputs":[],"outputs":[{"name":"","type":"address","internalType":"address"}],"stateMutability":"view"}],"bytecode":{"object":"0x60a060405273a16e02e87b7454126e5e10d957a927a7f5b5d2be6080525f805460ff60a01b1916600160a01b1790553480156038575f5ffd5b506080515f546040805160609390931b6001600160601b031916602080850191909152600160a01b90920460f81b7fff00000000000000000000000000000000000000000000000000000000000000166034840152805160158185030181526035909301905281519101205f80546001600160a01b0319166001600160a01b039290921691909117905560805161022b6100d75f395f505061022b5ff3fe608060405234801561000f575f5ffd5b5060043610610034575f3560e01c8063327107f7146100385780633677ed3a14610080575b5f5ffd5b5f546100579073ffffffffffffffffffffffffffffffffffffffff1681565b60405173ffffffffffffffffffffffffffffffffffffffff909116815260200160405180910390f35b61008861008a565b005b5f8054604080513360248083019190915282518083039091018152604490910182526020810180517bffffffffffffffffffffffffffffffffffffffffffffffffffffffff167f87335b7a00000000000000000000000000000000000000000000000000000000179052905173ffffffffffffffffffffffffffffffffffffffff9092169161011991906101c9565b5f604051808303815f865af19150503d805f8114610152576040519150601f19603f3d011682016040523d82523d5f602084013e610157565b606091505b50509050806101c6576040517f08c379a000000000000000000000000000000000000000000000000000000000815260206004820152600e60248201527f44657374726f79206661696c6564000000000000000000000000000000000000604482015260640160405180910390fd5b50565b5f82515f5b818110156101e857602081860181015185830152016101ce565b505f92019182525091905056fea26469706673582212208531de698e2d6b12889eb3c58e291176e9f5214ebee3a1172b4c942a83cf418464736f6c634300081c0033","linkReferences":{}},"methodIdentifiers":{"destroyIt()":"3677ed3a","targetToken()":"327107f7"},"id":0}