{"abi":[{"type":"function","name":"attack","inputs":[],"outputs":[],"stateMutability":"nonpayable"},{"type":"function","name":"attackWithArrayEncoding","inputs":[],"outputs":[],"stateMutability":"nonpayable"}],"bytecode":{"object":"0x6080604052348015600e575f5ffd5b5061026e8061001c5f395ff3fe608060405234801561000f575f5ffd5b5060043610610034575f3560e01c806397ec3665146100385780639e5faafc1461003a575b5f5ffd5b005b7f19457468657265756d205369676e6564204d6573736167653a0a3332000000005f908152610539601c52603c81206040516024810183905260016044820181905260648201819052336084830152610038939181908390738ff3801288a85ea261e4277d44e1131ea736f77b9060a40160408051601f198184030181529181526020820180517bffffffffffffffffffffffffffffffffffffffffffffffffffffffff166303e8cd5760e41b179052516100f5919061020c565b5f604051808303815f865af19150503d805f811461012e576040519150601f19603f3d011682016040523d82523d5f602084013e610133565b606091505b50509050806102055760405160016024820181905260448201859052606482018490523360848301529450738ff3801288a85ea261e4277d44e1131ea736f77b9060a40160408051601f198184030181529181526020820180517bffffffffffffffffffffffffffffffffffffffffffffffffffffffff166303e8cd5760e41b179052516101c1919061020c565b5f604051808303815f865af19150503d805f81146101fa576040519150601f19603f3d011682016040523d82523d5f602084013e6101ff565b606091505b50909150505b5050505050565b5f82515f5b8181101561022b5760208186018101518583015201610211565b505f92019182525091905056fea26469706673582212202bd705a0911fe3eaedd50610b6d67c272cae8a207ac5581b1a4b76c75a0b549364736f6c634300081c0033","linkReferences":{}},"methodIdentifiers":{"attack()":"9e5faafc","attackWithArrayEncoding()":"97ec3665"},"id":0}