{"abi":[{"type":"constructor","inputs":[{"name":"_naughtCoin","type":"address","internalType":"address"}],"stateMutability":"nonpayable"},{"type":"function","name":"checkBalance","inputs":[{"name":"account","type":"address","internalType":"address"}],"outputs":[{"name":"","type":"uint256","internalType":"uint256"}],"stateMutability":"view"},{"type":"function","name":"getPlayer","inputs":[],"outputs":[{"name":"","type":"address","internalType":"address"}],"stateMutability":"view"},{"type":"function","name":"naughtCoin","inputs":[],"outputs":[{"name":"","type":"address","internalType":"address"}],"stateMutability":"view"}],"bytecode":{"object":"0x6080604052348015600e575f5ffd5b5060405161041c38038061041c833981016040819052602b91604e565b5f80546001600160a01b0319166001600160a01b03929092169190911790556079565b5f60208284031215605d575f5ffd5b81516001600160a01b03811681146072575f5ffd5b9392505050565b610396806100865f395ff3fe608060405234801561000f575f5ffd5b506004361061003f575f3560e01c80633308f42d146100435780635f515226146100685780636856876d14610089575b5f5ffd5b61004b61009b565b6040516001600160a01b0390911681526020015b60405180910390f35b61007b6100763660046102e0565b6101ad565b60405190815260200161005f565b5f5461004b906001600160a01b031681565b5f805460408051600481526024810182526020810180517bffffffffffffffffffffffffffffffffffffffffffffffffffffffff167f48db5f89000000000000000000000000000000000000000000000000000000001790529051839283926001600160a01b03909116916101109190610302565b5f60405180830381855afa9150503d805f8114610148576040519150601f19603f3d011682016040523d82523d5f602084013e61014d565b606091505b5091509150816101925760405162461bcd60e51b815260206004820152600b60248201526a10d85b1b0819985a5b195960aa1b60448201526064015b60405180910390fd5b808060200190518101906101a6919061032e565b9250505090565b5f80546040516001600160a01b0384811660248301528392839291169060440160408051601f198184030181529181526020820180517bffffffffffffffffffffffffffffffffffffffffffffffffffffffff167f70a0823100000000000000000000000000000000000000000000000000000000179052516102309190610302565b5f60405180830381855afa9150503d805f8114610268576040519150601f19603f3d011682016040523d82523d5f602084013e61026d565b606091505b5091509150816102ad5760405162461bcd60e51b815260206004820152600b60248201526a10d85b1b0819985a5b195960aa1b6044820152606401610189565b808060200190518101906102c19190610349565b949350505050565b6001600160a01b03811681146102dd575f5ffd5b50565b5f602082840312156102f0575f5ffd5b81356102fb816102c9565b9392505050565b5f82515f5b818110156103215760208186018101518583015201610307565b505f920191825250919050565b5f6020828403121561033e575f5ffd5b81516102fb816102c9565b5f60208284031215610359575f5ffd5b505191905056fea26469706673582212209e70e85527e4b0ac4aab50f29a4f8f66767d5100cd28b72884bbe1658990257d64736f6c634300081c0033","linkReferences":{}},"methodIdentifiers":{"checkBalance(address)":"5f515226","getPlayer()":"3308f42d","naughtCoin()":"6856876d"},"id":0}