{"abi":[{"type":"function","name":"calculateAddress","inputs":[{"name":"creator","type":"address","internalType":"address"},{"name":"nonce","type":"uint256","internalType":"uint256"}],"outputs":[{"name":"","type":"address","internalType":"address"}],"stateMutability":"pure"},{"type":"function","name":"destroyToken","inputs":[{"name":"tokenAddress","type":"address","internalType":"address"},{"name":"to","type":"address","internalType":"address payable"}],"outputs":[],"stateMutability":"nonpayable"}],"bytecode":{"object":"0x6080604052348015600e575f5ffd5b506102528061001c5f395ff3fe608060405234801561000f575f5ffd5b5060043610610034575f3560e01c8063807e72d714610038578063e6acd30714610104575b5f5ffd5b6100db6100463660046101bb565b604080518082018252600181527f6000000000000000000000000000000000000000000000000000000000000000602091820152815160609490941b6bffffffffffffffffffffffff19168482015260c09290921b7fffffffffffffffff0000000000000000000000000000000000000000000000001660348401528051601c818503018152603c9093019052815191012090565b60405173ffffffffffffffffffffffffffffffffffffffff909116815260200160405180910390f35b6101176101123660046101e5565b610119565b005b6040517ef55d9d00000000000000000000000000000000000000000000000000000000815273ffffffffffffffffffffffffffffffffffffffff828116600483015283169062f55d9d906024015f604051808303815f87803b15801561017d575f5ffd5b505af115801561018f573d5f5f3e3d5ffd5b505050505050565b73ffffffffffffffffffffffffffffffffffffffff811681146101b8575f5ffd5b50565b5f5f604083850312156101cc575f5ffd5b82356101d781610197565b946020939093013593505050565b5f5f604083850312156101f6575f5ffd5b823561020181610197565b9150602083013561021181610197565b80915050925092905056fea26469706673582212206d8130dab906fdc4217a12e86cde54514da019f3ba3681dde8a18cfb21eea6be64736f6c634300081c0033","linkReferences":{}},"methodIdentifiers":{"calculateAddress(address,uint256)":"807e72d7","destroyToken(address,address)":"e6acd307"},"id":0}