{"abi":[{"type":"function","name":"createInstance","inputs":[{"name":"_player","type":"address","internalType":"address"}],"outputs":[{"name":"","type":"address","internalType":"address"}],"stateMutability":"payable"},{"type":"function","name":"owner","inputs":[],"outputs":[{"name":"","type":"address","internalType":"address"}],"stateMutability":"view"},{"type":"function","name":"renounceOwnership","inputs":[],"outputs":[],"stateMutability":"nonpayable"},{"type":"function","name":"transferOwnership","inputs":[{"name":"newOwner","type":"address","internalType":"address"}],"outputs":[],"stateMutability":"nonpayable"},{"type":"function","name":"validateInstance","inputs":[{"name":"_instance","type":"address","internalType":"address payable"},{"name":"","type":"address","internalType":"address"}],"outputs":[{"name":"","type":"bool","internalType":"bool"}],"stateMutability":"view"},{"type":"event","name":"OwnershipTransferred","inputs":[{"name":"previousOwner","type":"address","indexed":true,"internalType":"address"},{"name":"newOwner","type":"address","indexed":true,"internalType":"address"}],"anonymous":false}],"bytecode":{"object":"0x6080604052348015600e575f5ffd5b50601633601a565b6069565b5f80546001600160a01b038381166001600160a01b0319831681178455604051919092169283917f8be0079c531659141344cd1fd0a4f28419497f9722a3daafe3b4186f6b6457e09190a35050565b610dfa806100765f395ff3fe608060405260043610610058575f3560e01c80638da5cb5b116100415780638da5cb5b146100a2578063d38def5b146100be578063f2fde38b14610108575f5ffd5b8063715018a61461005c5780637726f77614610072575b5f5ffd5b348015610067575f5ffd5b50610070610127565b005b610085610080366004610508565b61013a565b6040516001600160a01b0390911681526020015b60405180910390f35b3480156100ad575f5ffd5b505f546001600160a01b0316610085565b3480156100c9575f5ffd5b506100f86100d836600461052a565b506001600160a01b039081165f9081526001602052604090205416311590565b6040519015158152602001610099565b348015610113575f5ffd5b50610070610122366004610508565b6103a2565b61012f610432565b6101385f61048b565b565b5f66038d7ea4c680003410156101975760405162461bcd60e51b815260206004820152601c60248201527f4d7573742073656e64206174206c6561737420302e303031204554480000000060448201526064015b60405180910390fd5b5f6040516101a4906104e7565b604051809103905ff0801580156101bd573d5f5f3e3d5ffd5b50604080517f3894e5160000000000000000000000000000000000000000000000000000000081526004810191909152600c60448201527f496e697469616c546f6b656e00000000000000000000000000000000000000006064820152620186a060248201529091506001600160a01b03821690633894e516906084015f604051808303815f87803b158015610251575f5ffd5b505af1158015610263573d5f5f3e3d5ffd5b50506040517fd60000000000000000000000000000000000000000000000000000000000000060208201527f940000000000000000000000000000000000000000000000000000000000000060218201526bffffffffffffffffffffffff19606085901b1660228201527f0100000000000000000000000000000000000000000000000000000000000000603682015260370191506102ff9050565b60408051808303601f1901815282825280516020918201206001600160a01b038581165f9081526001909352928220805473ffffffffffffffffffffffffffffffffffffffff19169390911692831790559134908381818185875af1925050503d805f8114610389576040519150601f19603f3d011682016040523d82523d5f602084013e61038e565b606091505b505090508061039b575f5ffd5b5092915050565b6103aa610432565b6001600160a01b0381166104265760405162461bcd60e51b815260206004820152602660248201527f4f776e61626c653a206e6577206f776e657220697320746865207a65726f206160448201527f6464726573730000000000000000000000000000000000000000000000000000606482015260840161018e565b61042f8161048b565b50565b5f546001600160a01b031633146101385760405162461bcd60e51b815260206004820181905260248201527f4f776e61626c653a2063616c6c6572206973206e6f7420746865206f776e6572604482015260640161018e565b5f80546001600160a01b0383811673ffffffffffffffffffffffffffffffffffffffff19831681178455604051919092169283917f8be0079c531659141344cd1fd0a4f28419497f9722a3daafe3b4186f6b6457e09190a35050565b6108638061056283390190565b6001600160a01b038116811461042f575f5ffd5b5f60208284031215610518575f5ffd5b8135610523816104f4565b9392505050565b5f5f6040838503121561053b575f5ffd5b8235610546816104f4565b91506020830135610556816104f4565b80915050925092905056fe6080604052348015600e575f5ffd5b506108478061001c5f395ff3fe608060405234801561000f575f5ffd5b5060043610610029575f3560e01c80633894e5161461002d575b5f5ffd5b61004061003b3660046100b6565b610042565b005b8133826040516100519061007c565b61005d9392919061016b565b604051809103905ff080158015610076573d5f5f3e3d5ffd5b50505050565b610637806101db83390190565b7f4e487b71000000000000000000000000000000000000000000000000000000005f52604160045260245ffd5b5f5f604083850312156100c7575f5ffd5b823567ffffffffffffffff8111156100dd575f5ffd5b8301601f810185136100ed575f5ffd5b803567ffffffffffffffff81111561010757610107610089565b604051601f8201601f19908116603f0116810167ffffffffffffffff8111828210171561013657610136610089565b60405281815282820160200187101561014d575f5ffd5b816020840160208301375f6020928201830152969401359450505050565b606081525f84518060608401525f5b81811015610197576020818801810151608086840101520161017a565b505f608082850101526080601f19601f83011684010191505073ffffffffffffffffffffffffffffffffffffffff8416602083015282604083015294935050505056fe608060405234801561000f575f5ffd5b5060405161063738038061063783398101604081905261002e91610088565b5f61003984826101ed565b506001600160a01b039091165f90815260016020526040902055506102a7565b634e487b7160e01b5f52604160045260245ffd5b80516001600160a01b0381168114610083575f5ffd5b919050565b5f5f5f6060848603121561009a575f5ffd5b83516001600160401b038111156100af575f5ffd5b8401601f810186136100bf575f5ffd5b80516001600160401b038111156100d8576100d8610059565b604051601f8201601f19908116603f011681016001600160401b038111828210171561010657610106610059565b60405281815282820160200188101561011d575f5ffd5b5f5b8281101561013b5760208185018101518383018201520161011f565b505f602083830101528095505050506101566020850161006d565b6040949094015192959394509192915050565b600181811c9082168061017d57607f821691505b60208210810361019b57634e487b7160e01b5f52602260045260245ffd5b50919050565b601f8211156101e857805f5260205f20601f840160051c810160208510156101c65750805b601f840160051c820191505b818110156101e5575f81556001016101d2565b50505b505050565b81516001600160401b0381111561020657610206610059565b61021a816102148454610169565b846101a1565b6020601f82116001811461024c575f83156102355750848201515b5f19600385901b1c1916600184901b1784556101e5565b5f84815260208120601f198516915b8281101561027b578785015182556020948501946001909201910161025b565b508482101561029857868401515f19600387901b60f8161c191681555b50505050600190811b01905550565b610383806102b45f395ff3fe608060405260043610610040575f3560e01c8062f55d9d1461006757806306fdde031461008857806327e235e3146100b2578063a9059cbb146100eb575f5ffd5b366100635761005034600a61022a565b335f908152600160205260409020819055005b5f5ffd5b348015610072575f5ffd5b5061008661008136600461026b565b61010a565b005b348015610093575f5ffd5b5061009c610123565b6040516100a9919061028d565b60405180910390f35b3480156100bd575f5ffd5b506100dd6100cc36600461026b565b60016020525f908152604090205481565b6040519081526020016100a9565b3480156100f6575f5ffd5b506100866101053660046102d8565b6101ae565b8073ffffffffffffffffffffffffffffffffffffffff16ff5b5f805461012f90610302565b80601f016020809104026020016040519081016040528092919081815260200182805461015b90610302565b80156101a65780601f1061017d576101008083540402835291602001916101a6565b820191905f5260205f20905b81548152906001019060200180831161018957829003601f168201915b505050505081565b335f908152600160205260409020548111156101c8575f5ffd5b335f908152600160205260409020546101e290829061033a565b335f908152600160205260408082209290925573ffffffffffffffffffffffffffffffffffffffff93909316835290912055565b634e487b7160e01b5f52601160045260245ffd5b808202811582820484141761024157610241610216565b92915050565b73ffffffffffffffffffffffffffffffffffffffff81168114610268575f5ffd5b50565b5f6020828403121561027b575f5ffd5b813561028681610247565b9392505050565b602081525f82518060208401525f5b818110156102b9576020818601810151604086840101520161029c565b505f604082850101526040601f19601f83011684010191505092915050565b5f5f604083850312156102e9575f5ffd5b82356102f481610247565b946020939093013593505050565b600181811c9082168061031657607f821691505b60208210810361033457634e487b7160e01b5f52602260045260245ffd5b50919050565b818103818111156102415761024161021656fea26469706673582212206fd3d4c88654ea9da2b910a21de7dd5a7da66e7395ec090ef51fbf309a829e3564736f6c634300081c0033a2646970667358221220215c8fc29e3da3c3991eab9de65972be4e2351c132e91336622dc8073f98184a64736f6c634300081c0033a26469706673582212202e676c7d48edf8e7f34ec59db102abd245b549caea24665b0b9bb41ce496978164736f6c634300081c0033","linkReferences":{}},"methodIdentifiers":{"createInstance(address)":"7726f776","owner()":"8da5cb5b","renounceOwnership()":"715018a6","transferOwnership(address)":"f2fde38b","validateInstance(address,address)":"d38def5b"},"id":3}