{"abi":[{"type":"function","name":"checkFactory","inputs":[{"name":"factory","type":"address","internalType":"address"},{"name":"instance","type":"address","internalType":"address"},{"name":"player","type":"address","internalType":"address"}],"outputs":[{"name":"","type":"bool","internalType":"bool"}],"stateMutability":"view"},{"type":"function","name":"tryCreateInstance","inputs":[{"name":"factory","type":"address","internalType":"address"}],"outputs":[{"name":"","type":"address","internalType":"address"}],"stateMutability":"nonpayable"}],"bytecode":{"object":"0x6080604052348015600e575f5ffd5b506102cc8061001c5f395ff3fe608060405234801561000f575f5ffd5b5060043610610034575f3560e01c8063b283fda914610038578063eba79bd714610075575b5f5ffd5b61004b6100463660046101f9565b610098565b60405173ffffffffffffffffffffffffffffffffffffffff90911681526020015b60405180910390f35b610088610083366004610214565b61012d565b604051901515815260200161006c565b6040517f7726f7760000000000000000000000000000000000000000000000000000000081523360048201525f9073ffffffffffffffffffffffffffffffffffffffff831690637726f776906024016020604051808303815f875af1158015610103573d5f5f3e3d5ffd5b505050506040513d601f19601f82011682018060405250810190610127919061025c565b92915050565b6040517fd38def5b00000000000000000000000000000000000000000000000000000000815273ffffffffffffffffffffffffffffffffffffffff838116600483015282811660248301525f919085169063d38def5b90604401602060405180830381865afa9250505080156101c0575060408051601f3d908101601f191682019092526101bd91810190610277565b60015b6101cb57505f6101ce565b90505b9392505050565b73ffffffffffffffffffffffffffffffffffffffff811681146101f6575f5ffd5b50565b5f60208284031215610209575f5ffd5b81356101ce816101d5565b5f5f5f60608486031215610226575f5ffd5b8335610231816101d5565b92506020840135610241816101d5565b91506040840135610251816101d5565b809150509250925092565b5f6020828403121561026c575f5ffd5b81516101ce816101d5565b5f60208284031215610287575f5ffd5b815180151581146101ce575f5ffdfea2646970667358221220d5ae7926a130ff3b09a9ebe930acc6f3890b80f1e689c5c58d3c4b6b813539b664736f6c634300081c0033","linkReferences":{}},"methodIdentifiers":{"checkFactory(address,address,address)":"eba79bd7","tryCreateInstance(address)":"b283fda9"},"id":0}