{"abi":[{"type":"function","name":"getCodeAt","inputs":[{"name":"addr","type":"address","internalType":"address"}],"outputs":[{"name":"","type":"bytes","internalType":"bytes"}],"stateMutability":"view"},{"type":"function","name":"tryTransferAsLocker","inputs":[{"name":"impersonator","type":"address","internalType":"address"},{"name":"locker","type":"address","internalType":"address"}],"outputs":[],"stateMutability":"nonpayable"}],"bytecode":{"object":"0x6080604052348015600e575f5ffd5b506102758061001c5f395ff3fe608060405234801561000f575f5ffd5b5060043610610034575f3560e01c80631bbaa67b146100385780632ca8a0a51461004d575b5f5ffd5b61004b610046366004610176565b610076565b005b61006061005b3660046101a7565b6100f4565b60405161006d91906101c7565b60405180910390f35b6040517ff2fde38b00000000000000000000000000000000000000000000000000000000815233600482015273ffffffffffffffffffffffffffffffffffffffff83169063f2fde38b906024015f604051808303815f87803b1580156100da575f5ffd5b505af11580156100ec573d5f5f3e3d5ffd5b505050505050565b6060813b5f8167ffffffffffffffff81111561011257610112610212565b6040519080825280601f01601f19166020018201604052801561013c576020820181803683370190505b509050815f60208301863c9392505050565b803573ffffffffffffffffffffffffffffffffffffffff81168114610171575f5ffd5b919050565b5f5f60408385031215610187575f5ffd5b6101908361014e565b915061019e6020840161014e565b90509250929050565b5f602082840312156101b7575f5ffd5b6101c08261014e565b9392505050565b602081525f82518060208401525f5b818110156101f357602081860181015160408684010152016101d6565b505f604082850101526040601f19601f83011684010191505092915050565b7f4e487b71000000000000000000000000000000000000000000000000000000005f52604160045260245ffdfea2646970667358221220226676408ff40d935ac0b4a945b5062410fddcd9bee8cf124571d84f0fa6661464736f6c634300081c0033","linkReferences":{}},"methodIdentifiers":{"getCodeAt(address)":"2ca8a0a5","tryTransferAsLocker(address,address)":"1bbaa67b"},"id":0}