{"abi":[{"type":"constructor","inputs":[{"name":"_shop","type":"address","internalType":"address"}],"stateMutability":"nonpayable"},{"type":"function","name":"attack","inputs":[],"outputs":[],"stateMutability":"nonpayable"},{"type":"function","name":"isAttack","inputs":[],"outputs":[{"name":"","type":"bool","internalType":"bool"}],"stateMutability":"view"},{"type":"function","name":"price","inputs":[],"outputs":[{"name":"","type":"uint256","internalType":"uint256"}],"stateMutability":"view"},{"type":"function","name":"shop","inputs":[],"outputs":[{"name":"","type":"address","internalType":"contract ShopInterface"}],"stateMutability":"view"}],"bytecode":{"object":"0x60806040525f805460ff19166001179055348015601a575f5ffd5b5060405161029c38038061029c8339810160408190526037916060565b5f80546001600160a01b0390921661010002610100600160a81b0319909216919091179055608b565b5f60208284031215606f575f5ffd5b81516001600160a01b03811681146084575f5ffd5b9392505050565b610204806100985f395ff3fe608060405234801561000f575f5ffd5b506004361061004a575f3560e01c80630881fa0d1461004e57806318f53e2b146100825780639e5faafc1461009e578063a035b1fe146100a8575b5f5ffd5b5f546100659061010090046001600160a01b031681565b6040516001600160a01b0390911681526020015b60405180910390f35b5f5461008e9060ff1681565b6040519015158152602001610079565b6100a66100be565b005b6100b0610122565b604051908152602001610079565b5f60019054906101000a90046001600160a01b03166001600160a01b031663a6f2ae3a6040518163ffffffff1660e01b81526004015f604051808303815f87803b15801561010a575f5ffd5b505af115801561011c573d5f5f3e3d5ffd5b50505050565b5f5f60019054906101000a90046001600160a01b03166001600160a01b031663e852e7416040518163ffffffff1660e01b8152600401602060405180830381865afa158015610173573d5f5f3e3d5ffd5b505050506040513d601f19601f8201168201806040525081019061019791906101a8565b156101a25750606390565b50606490565b5f602082840312156101b8575f5ffd5b815180151581146101c7575f5ffd5b939250505056fea2646970667358221220c464d8efcfc67e3cec2525e587f7325cb28278f58b5f7555908537f74f4893c864736f6c634300081c0033","linkReferences":{}},"methodIdentifiers":{"attack()":"9e5faafc","isAttack()":"18f53e2b","price()":"a035b1fe","shop()":"0881fa0d"},"id":0}