{"abi":[{"type":"constructor","inputs":[{"name":"_target","type":"address","internalType":"address"}],"stateMutability":"nonpayable"},{"type":"function","name":"attack","inputs":[{"name":"_key","type":"bytes8","internalType":"bytes8"}],"outputs":[],"stateMutability":"nonpayable"},{"type":"function","name":"generateKey","inputs":[],"outputs":[{"name":"","type":"bytes8","internalType":"bytes8"}],"stateMutability":"view"},{"type":"function","name":"target","inputs":[],"outputs":[{"name":"","type":"address","internalType":"contract GatekeeperOne"}],"stateMutability":"view"}],"bytecode":{"object":"0x6080604052348015600e575f5ffd5b506040516102f43803806102f4833981016040819052602b91604e565b5f80546001600160a01b0319166001600160a01b03929092169190911790556079565b5f60208284031215605d575f5ffd5b81516001600160a01b03811681146072575f5ffd5b9392505050565b61026e806100865f395ff3fe608060405234801561000f575f5ffd5b506004361061003f575f3560e01c8063763d446d14610043578063922dd7d914610058578063d4b839921461008b575b5f5ffd5b6100566100513660046101c6565b6100cf565b005b6040517f123456780000226600000000000000000000000000000000000000000000000081526020015b60405180910390f35b5f546100aa9073ffffffffffffffffffffffffffffffffffffffff1681565b60405173ffffffffffffffffffffffffffffffffffffffff9091168152602001610082565b5f80546040517fffffffffffffffff0000000000000000000000000000000000000000000000008416602482015273ffffffffffffffffffffffffffffffffffffffff90911690615ffd9060440160408051601f198184030181529181526020820180517bffffffffffffffffffffffffffffffffffffffffffffffffffffffff167f3370204e0000000000000000000000000000000000000000000000000000000017905251610180919061020c565b5f604051808303815f8787f1925050503d805f81146101ba576040519150601f19603f3d011682016040523d82523d5f602084013e6101bf565b606091505b5050505050565b5f602082840312156101d6575f5ffd5b81357fffffffffffffffff00000000000000000000000000000000000000000000000081168114610205575f5ffd5b9392505050565b5f82515f5b8181101561022b5760208186018101518583015201610211565b505f92019182525091905056fea2646970667358221220261e0cef7234733fbf6bc38c289abd66692611694d3ff17b40ff46aed889a0e564736f6c634300081c0033","linkReferences":{}},"methodIdentifiers":{"attack(bytes8)":"763d446d","generateKey()":"922dd7d9","target()":"d4b83992"},"id":0}