{"abi":[{"type":"constructor","inputs":[{"name":"_attacker","type":"address","internalType":"address"}],"stateMutability":"nonpayable"},{"type":"receive","stateMutability":"payable"},{"type":"function","name":"attacker","inputs":[],"outputs":[{"name":"","type":"address","internalType":"address"}],"stateMutability":"view"}],"bytecode":{"object":"0x60a0604052348015600e575f5ffd5b50604051610170380380610170833981016040819052602b91603b565b6001600160a01b03166080526066565b5f60208284031215604a575f5ffd5b81516001600160a01b0381168114605f575f5ffd5b9392505050565b60805160ef6100815f395f818160240152606e015260ef5ff3fe608060405260043610601e575f3560e01c806348eb76ee14605f575f5ffd5b36605b577f000000000000000000000000000000000000000000000000000000000000000073ffffffffffffffffffffffffffffffffffffffff16ff5b5f5ffd5b3480156069575f5ffd5b5060907f000000000000000000000000000000000000000000000000000000000000000081565b60405173ffffffffffffffffffffffffffffffffffffffff909116815260200160405180910390f3fea2646970667358221220b108c655346016403b898fa3b9ba8e7134ab28d1c75ea965f274b82a620903a864736f6c634300081c0033","linkReferences":{}},"methodIdentifiers":{"attacker()":"48eb76ee"},"id":0}