{"abi":[{"type":"function","name":"isLastFloor","inputs":[{"name":"","type":"uint256","internalType":"uint256"}],"outputs":[{"name":"","type":"bool","internalType":"bool"}],"stateMutability":"nonpayable"}],"bytecode":{"object":"0x60806040525f805460ff191690553480156017575f5ffd5b5060bc8060235f395ff3fe6080604052348015600e575f5ffd5b50600436106026575f3560e01c80635f9a4bca14602a575b5f5ffd5b603960353660046070565b604d565b604051901515815260200160405180910390f35b5f805460ff1615605f57506001919050565b50505f805460ff1916600117815590565b5f60208284031215607f575f5ffd5b503591905056fea2646970667358221220b2d52ebb32e38a3624c5bd03e16bd97d22cfb01a798fd5e46918a15e51f4430864736f6c634300081c0033","linkReferences":{}},"methodIdentifiers":{"isLastFloor(uint256)":"5f9a4bca"},"id":0}