{"abi":[{"type":"function","name":"calculateMsgHash","inputs":[{"name":"lockId","type":"uint256","internalType":"uint256"}],"outputs":[{"name":"","type":"bytes32","internalType":"bytes32"}],"stateMutability":"pure"},{"type":"function","name":"getPrefix","inputs":[],"outputs":[{"name":"","type":"bytes","internalType":"bytes"}],"stateMutability":"pure"}],"bytecode":{"object":"0x6080604052348015600e575f5ffd5b506101668061001c5f395ff3fe608060405234801561000f575f5ffd5b5060043610610034575f3560e01c806312d05d3d14610038578063c8c1efe214610080575b5f5ffd5b604080518082018252601c81527f19457468657265756d205369676e6564204d6573736167653a0a3332000000006020820152905161007791906100ce565b60405180910390f35b6100c061008e366004610119565b7f19457468657265756d205369676e6564204d6573736167653a0a3332000000005f908152601c91909152603c902090565b604051908152602001610077565b602081525f82518060208401525f5b818110156100fa57602081860181015160408684010152016100dd565b505f604082850101526040601f19601f83011684010191505092915050565b5f60208284031215610129575f5ffd5b503591905056fea2646970667358221220ee8adcd70a1eb0f49cd749b2446e218ad6841db93b0c55dd3a6012b4ca69fdef64736f6c634300081c0033","linkReferences":{}},"methodIdentifiers":{"calculateMsgHash(uint256)":"c8c1efe2","getPrefix()":"12d05d3d"},"id":0}