{"abi":[{"type":"function","name":"deploy","inputs":[],"outputs":[{"name":"","type":"address","internalType":"address"}],"stateMutability":"nonpayable"},{"type":"function","name":"getLastDeployed","inputs":[],"outputs":[{"name":"","type":"address","internalType":"address"}],"stateMutability":"view"},{"type":"function","name":"lastDeployed","inputs":[],"outputs":[{"name":"","type":"address","internalType":"address"}],"stateMutability":"view"}],"bytecode":{"object":"0x6080604052348015600e575f5ffd5b506101a78061001c5f395ff3fe608060405234801561000f575f5ffd5b506004361061003f575f3560e01c80631e41f17a14610043578063775c300c1461006b578063f7e0a27a14610073575b5f5ffd5b5f546001600160a01b03165b6040516001600160a01b03909116815260200160405180910390f35b61004f610085565b5f5461004f906001600160a01b031681565b6040805180820190915260168082527f600a600c600039600a6000f3602a60805260206080f300000000000000000000602083019081525f9291839182f090506001600160a01b038116610139576040517f08c379a000000000000000000000000000000000000000000000000000000000815260206004820152601060248201527f4661696c656420746f206465706c6f7900000000000000000000000000000000604482015260640160405180910390fd5b5f80547fffffffffffffffffffffffff0000000000000000000000000000000000000000166001600160a01b0383161790559291505056fea2646970667358221220188feac5f4fc24a1ee43ba3b2b76c16cbad37fb5db02afc72b0bd3a20603c46164736f6c634300081c0033","linkReferences":{}},"methodIdentifiers":{"deploy()":"775c300c","getLastDeployed()":"1e41f17a","lastDeployed()":"f7e0a27a"},"id":0}