{"abi":[{"type":"function","name":"BURN","inputs":[],"outputs":[{"name":"","type":"address","internalType":"address"}],"stateMutability":"view"},{"type":"function","name":"getPlayerBalance","inputs":[{"name":"token","type":"address","internalType":"address"},{"name":"player","type":"address","internalType":"address"}],"outputs":[{"name":"","type":"uint256","internalType":"uint256"}],"stateMutability":"view"},{"type":"function","name":"stealTokens","inputs":[{"name":"token","type":"address","internalType":"address"},{"name":"from","type":"address","internalType":"address"}],"outputs":[],"stateMutability":"nonpayable"}],"bytecode":{"object":"0x6080604052348015600e575f5ffd5b506103758061001c5f395ff3fe608060405234801561000f575f5ffd5b506004361061003f575f3560e01c806358860c0614610043578063c0a2526c14610058578063eff2f7391461007e575b5f5ffd5b6100566100513660046102d8565b61009f565b005b61006161dead81565b6040516001600160a01b0390911681526020015b60405180910390f35b61009161008c3660046102d8565b61024b565b604051908152602001610075565b6040516370a0823160e01b81526001600160a01b03828116600483015283915f918316906370a0823190602401602060405180830381865afa1580156100e7573d5f5f3e3d5ffd5b505050506040513d601f19601f8201168201806040525081019061010b9190610309565b90505f81116101615760405162461bcd60e51b815260206004820152600a60248201527f4e6f2062616c616e63650000000000000000000000000000000000000000000060448201526064015b60405180910390fd5b6040517f23b872dd0000000000000000000000000000000000000000000000000000000081526001600160a01b03848116600483015261dead6024830152604482018390525f91908416906323b872dd906064016020604051808303815f875af11580156101d1573d5f5f3e3d5ffd5b505050506040513d601f19601f820116820180604052508101906101f59190610320565b9050806102445760405162461bcd60e51b815260206004820152600f60248201527f5472616e73666572206661696c656400000000000000000000000000000000006044820152606401610158565b5050505050565b6040516370a0823160e01b81526001600160a01b0382811660048301525f91908416906370a0823190602401602060405180830381865afa158015610292573d5f5f3e3d5ffd5b505050506040513d601f19601f820116820180604052508101906102b69190610309565b9392505050565b80356001600160a01b03811681146102d3575f5ffd5b919050565b5f5f604083850312156102e9575f5ffd5b6102f2836102bd565b9150610300602084016102bd565b90509250929050565b5f60208284031215610319575f5ffd5b5051919050565b5f60208284031215610330575f5ffd5b815180151581146102b6575f5ffdfea2646970667358221220c6d078b459e3c79f8a38d285c93b5dc1e15f8a1e361b936cd8b57e39f25a5ee664736f6c634300081c0033","linkReferences":{}},"methodIdentifiers":{"BURN()":"c0a2526c","getPlayerBalance(address,address)":"eff2f739","stealTokens(address,address)":"58860c06"},"id":0}