{"abi":[{"type":"constructor","inputs":[{"name":"_stakeInstance","type":"address","internalType":"address"}],"stateMutability":"nonpayable"},{"type":"function","name":"allowance","inputs":[{"name":"","type":"address","internalType":"address"},{"name":"","type":"address","internalType":"address"}],"outputs":[{"name":"","type":"uint256","internalType":"uint256"}],"stateMutability":"view"},{"type":"function","name":"approve","inputs":[{"name":"","type":"address","internalType":"address"},{"name":"","type":"uint256","internalType":"uint256"}],"outputs":[{"name":"","type":"bool","internalType":"bool"}],"stateMutability":"nonpayable"},{"type":"function","name":"balanceOf","inputs":[{"name":"","type":"address","internalType":"address"}],"outputs":[{"name":"","type":"uint256","internalType":"uint256"}],"stateMutability":"view"},{"type":"function","name":"decimals","inputs":[],"outputs":[{"name":"","type":"uint8","internalType":"uint8"}],"stateMutability":"pure"},{"type":"function","name":"stakeInstance","inputs":[],"outputs":[{"name":"","type":"address","internalType":"address"}],"stateMutability":"view"},{"type":"function","name":"transferFrom","inputs":[{"name":"","type":"address","internalType":"address"},{"name":"","type":"address","internalType":"address"},{"name":"","type":"uint256","internalType":"uint256"}],"outputs":[{"name":"","type":"bool","internalType":"bool"}],"stateMutability":"nonpayable"}],"bytecode":{"object":"0x60a0604052348015600e575f5ffd5b506040516102d63803806102d6833981016040819052602b91603b565b6001600160a01b03166080526066565b5f60208284031215604a575f5ffd5b81516001600160a01b0381168114605f575f5ffd5b9392505050565b60805161025961007d5f395f60eb01526102595ff3fe608060405234801561000f575f5ffd5b506004361061006f575f3560e01c806370a082311161004d57806370a08231146100c4578063d3882f1e146100e6578063dd62ed3e14610132575f5ffd5b8063095ea7b31461007357806323b872dd1461009e578063313ce567146100b5575b5f5ffd5b610089610081366004610170565b600192915050565b60405190151581526020015b60405180910390f35b6100896100ac366004610198565b60019392505050565b60405160128152602001610095565b6100d86100d23660046101d2565b505f1990565b604051908152602001610095565b61010d7f000000000000000000000000000000000000000000000000000000000000000081565b60405173ffffffffffffffffffffffffffffffffffffffff9091168152602001610095565b6100d86101403660046101f2565b5f1992915050565b803573ffffffffffffffffffffffffffffffffffffffff8116811461016b575f5ffd5b919050565b5f5f60408385031215610181575f5ffd5b61018a83610148565b946020939093013593505050565b5f5f5f606084860312156101aa575f5ffd5b6101b384610148565b92506101c160208501610148565b929592945050506040919091013590565b5f602082840312156101e2575f5ffd5b6101eb82610148565b9392505050565b5f5f60408385031215610203575f5ffd5b61020c83610148565b915061021a60208401610148565b9050925092905056fea264697066735822122068ef4f3e71e2a195e03c37630ea96a02025cf181689ebe7a7a440b8205a3fb4164736f6c634300081c0033","linkReferences":{}},"methodIdentifiers":{"allowance(address,address)":"dd62ed3e","approve(address,uint256)":"095ea7b3","balanceOf(address)":"70a08231","decimals()":"313ce567","stakeInstance()":"d3882f1e","transferFrom(address,address,uint256)":"23b872dd"},"id":0}