{"abi":[{"type":"constructor","inputs":[{"name":"_denial","type":"address","internalType":"address payable"}],"stateMutability":"nonpayable"},{"type":"fallback","stateMutability":"payable"},{"type":"receive","stateMutability":"payable"},{"type":"function","name":"denial","inputs":[],"outputs":[{"name":"","type":"address","internalType":"address"}],"stateMutability":"view"},{"type":"function","name":"setPartnerV3","inputs":[],"outputs":[],"stateMutability":"nonpayable"}],"bytecode":{"object":"0x6080604052348015600e575f5ffd5b50604051610352380380610352833981016040819052602b91604e565b5f80546001600160a01b0319166001600160a01b03929092169190911790556079565b5f60208284031215605d575f5ffd5b81516001600160a01b03811681146072575f5ffd5b9392505050565b6102cc806100865f395ff3fe608060405260043610610029575f3560e01c80635d56509d1461009a57806377fa5295146100ae57005b36610098575b60408051620f42408082526301e8482082019092526001915f9190602082016301e84800803683370190505090505f5b620f4240811015610090578082828151811061007d5761007d61023d565b602090810291909101015260010161005f565b50505061002f565b005b3480156100a5575f5ffd5b50610098610102565b3480156100b9575f5ffd5b505f546100d99073ffffffffffffffffffffffffffffffffffffffff1681565b60405173ffffffffffffffffffffffffffffffffffffffff909116815260200160405180910390f35b5f805460405130602482015273ffffffffffffffffffffffffffffffffffffffff9091169060440160408051601f198184030181529181526020820180517bffffffffffffffffffffffffffffffffffffffffffffffffffffffff167f4e1c5914000000000000000000000000000000000000000000000000000000001790525161018d919061026a565b5f604051808303815f865af19150503d805f81146101c6576040519150601f19603f3d011682016040523d82523d5f602084013e6101cb565b606091505b505090508061023a576040517f08c379a000000000000000000000000000000000000000000000000000000000815260206004820152601560248201527f4661696c656420746f2073657420706172746e65720000000000000000000000604482015260640160405180910390fd5b50565b7f4e487b71000000000000000000000000000000000000000000000000000000005f52603260045260245ffd5b5f82515f5b81811015610289576020818601810151858301520161026f565b505f92019182525091905056fea2646970667358221220aaa3d9c630b7eb9797432b19e18cda191b8ba1bd4e9d1188ced45280ea93ab8f64736f6c634300081c0033","linkReferences":{}},"methodIdentifiers":{"denial()":"77fa5295","setPartnerV3()":"5d56509d"},"id":0}