{"abi":[{"type":"function","name":"drainTokens","inputs":[{"name":"token","type":"address","internalType":"address"}],"outputs":[],"stateMutability":"nonpayable"}],"bytecode":{"object":"0x6080604052348015600e575f5ffd5b5061021b8061001c5f395ff3fe608060405234801561000f575f5ffd5b5060043610610029575f3560e01c8063fc0c833a1461002d575b5f5ffd5b61004061003b366004610175565b610042565b005b6040517f70a0823100000000000000000000000000000000000000000000000000000000815232600482015281905f9073ffffffffffffffffffffffffffffffffffffffff8316906370a0823190602401602060405180830381865afa1580156100ae573d5f5f3e3d5ffd5b505050506040513d601f19601f820116820180604052508101906100d291906101af565b6040517f23b872dd0000000000000000000000000000000000000000000000000000000081523260048201523060248201526044810182905290915073ffffffffffffffffffffffffffffffffffffffff8316906323b872dd906064016020604051808303815f875af115801561014b573d5f5f3e3d5ffd5b505050506040513d601f19601f8201168201806040525081019061016f91906101c6565b50505050565b5f60208284031215610185575f5ffd5b813573ffffffffffffffffffffffffffffffffffffffff811681146101a8575f5ffd5b9392505050565b5f602082840312156101bf575f5ffd5b5051919050565b5f602082840312156101d6575f5ffd5b815180151581146101a8575f5ffdfea2646970667358221220170ad873d62885a35701d166aa2f092342f0fc7c51725b54388dd197a4ecec7b64736f6c634300081c0033","linkReferences":{}},"methodIdentifiers":{"drainTokens(address)":"fc0c833a"},"id":0}