{"abi":[{"type":"function","name":"takeOwnership","inputs":[{"name":"target","type":"address","internalType":"address"}],"outputs":[],"stateMutability":"nonpayable"}],"bytecode":{"object":"0x6080604052348015600e575f5ffd5b506101248061001c5f395ff3fe6080604052348015600e575f5ffd5b50600436106026575f3560e01c80636b57833914602a575b5f5ffd5b6039603536600460b6565b603b565b005b6040517ff2fde38b00000000000000000000000000000000000000000000000000000000815233600482015273ffffffffffffffffffffffffffffffffffffffff82169063f2fde38b906024015f604051808303815f87803b158015609e575f5ffd5b505af115801560af573d5f5f3e3d5ffd5b5050505050565b5f6020828403121560c5575f5ffd5b813573ffffffffffffffffffffffffffffffffffffffff8116811460e7575f5ffd5b939250505056fea2646970667358221220f6429c75e22474dd4f0d6dc2d811f5de582c57acd9b01a00a67d69d7dfe1d61164736f6c634300081c0033","linkReferences":{}},"methodIdentifiers":{"takeOwnership(address)":"6b578339"},"id":0}