{"abi":[{"type":"function","name":"destroySimpleToken","inputs":[{"name":"token","type":"address","internalType":"address"},{"name":"to","type":"address","internalType":"address payable"}],"outputs":[],"stateMutability":"nonpayable"},{"type":"function","name":"findTokenAddress","inputs":[{"name":"instance","type":"address","internalType":"address"}],"outputs":[{"name":"","type":"address","internalType":"address"}],"stateMutability":"view"}],"bytecode":{"object":"0x6080604052348015600e575f5ffd5b506103308061001c5f395ff3fe608060405234801561000f575f5ffd5b5060043610610034575f3560e01c80630926634114610038578063aae6a8c714610074575b5f5ffd5b61004b6100463660046101ed565b610089565b60405173ffffffffffffffffffffffffffffffffffffffff909116815260200160405180910390f35b61008761008236600461020f565b61014b565b005b5f8060015b60148160ff1611610144576040517fff0000000000000000000000000000000000000000000000000000000000000060f883901b811660208301525f91869060210160408051601f19818403018152908290526100ef939291602001610246565b60408051601f19818403018152919052805160209091012090508073ffffffffffffffffffffffffffffffffffffffff81161561012f5792506101449050565b5050808061013c906102b7565b91505061008e565b5092915050565b6040517ef55d9d00000000000000000000000000000000000000000000000000000000815273ffffffffffffffffffffffffffffffffffffffff828116600483015283169062f55d9d906024015f604051808303815f87803b1580156101af575f5ffd5b505af11580156101c1573d5f5f3e3d5ffd5b505050505050565b73ffffffffffffffffffffffffffffffffffffffff811681146101ea575f5ffd5b50565b5f602082840312156101fd575f5ffd5b8135610208816101c9565b9392505050565b5f5f60408385031215610220575f5ffd5b823561022b816101c9565b9150602083013561023b816101c9565b809150509250929050565b7fff00000000000000000000000000000000000000000000000000000000000000841681526bffffffffffffffffffffffff198360601b1660018201525f82515f5b818110156102a55760208186018101516015868401015201610288565b505f9201601501918252509392505050565b5f60ff821660ff81036102f1577f4e487b71000000000000000000000000000000000000000000000000000000005f52601160045260245ffd5b6001019291505056fea2646970667358221220137869c64d25c5841458ab3d289378fcb276f64ba4e93aa8fbcdc553827a87c564736f6c634300081c0033","linkReferences":{}},"methodIdentifiers":{"destroySimpleToken(address,address)":"aae6a8c7","findTokenAddress(address)":"09266341"},"id":0}