{"abi":[{"type":"function","name":"allowance","inputs":[{"name":"","type":"address","internalType":"address"}],"outputs":[{"name":"","type":"uint256","internalType":"uint256"}],"stateMutability":"view"},{"type":"function","name":"transferFrom","inputs":[{"name":"","type":"address","internalType":"address"},{"name":"","type":"address","internalType":"address"},{"name":"","type":"uint256","internalType":"uint256"}],"outputs":[{"name":"","type":"bool","internalType":"bool"}],"stateMutability":"nonpayable"}],"bytecode":{"object":"0x6080604052348015600e575f5ffd5b506101298061001c5f395ff3fe6080604052348015600e575f5ffd5b50600436106030575f3560e01c806323b872dd1460345780633e5beab914605d575b5f5ffd5b6048603f36600460a2565b60019392505050565b60405190151581526020015b60405180910390f35b606e606836600460d6565b505f1990565b6040519081526020016054565b803573ffffffffffffffffffffffffffffffffffffffff81168114609d575f5ffd5b919050565b5f5f5f6060848603121560b3575f5ffd5b60ba84607b565b925060c660208501607b565b9150604084013590509250925092565b5f6020828403121560e5575f5ffd5b60ec82607b565b939250505056fea264697066735822122074dcb9145e7e9879dd0a3ff1be97930a19ee8ae77ee44699fd5eaa04ea9c974364736f6c634300081c0033","linkReferences":{}},"methodIdentifiers":{"allowance(address)":"3e5beab9","transferFrom(address,address,uint256)":"23b872dd"},"id":0}