{"abi":[{"type":"function","name":"horsePower","inputs":[],"outputs":[{"name":"","type":"uint256","internalType":"uint256"}],"stateMutability":"view"},{"type":"function","name":"initialize","inputs":[],"outputs":[],"stateMutability":"nonpayable"},{"type":"function","name":"upgrader","inputs":[],"outputs":[{"name":"","type":"address","internalType":"address"}],"stateMutability":"view"}],"bytecode":{"object":"0x608060405234801561001057600080fd5b5060f68061001f6000396000f3fe6080604052348015600f57600080fd5b5060043610603c5760003560e01c8063564f6d711460415780638129fc1c146059578063af269745146061575b600080fd5b60476090565b60408051918252519081900360200190f35b605f6096565b005b6067609e565b6040805173ffffffffffffffffffffffffffffffffffffffff9092168252519081900360200190f35b60015481565b61c350600155565b60005462010000900473ffffffffffffffffffffffffffffffffffffffff168156fea26469706673582212204f892b6e621c3b9524f429633a5f5eb99ac30602abeebb7c2b113b5218ee9b8c64736f6c634300060c0033","linkReferences":{}},"methodIdentifiers":{"horsePower()":"564f6d71","initialize()":"8129fc1c","upgrader()":"af269745"},"id":2}