{"abi":[{"type":"constructor","inputs":[{"name":"goodSamaritanAddress","type":"address","internalType":"address"}],"stateMutability":"nonpayable"},{"type":"function","name":"coin","inputs":[],"outputs":[{"name":"","type":"address","internalType":"contract ICoin"}],"stateMutability":"view"},{"type":"function","name":"goodSamaritan","inputs":[],"outputs":[{"name":"","type":"address","internalType":"contract IGoodSamaritan"}],"stateMutability":"view"},{"type":"function","name":"notify","inputs":[{"name":"_amount","type":"uint256","internalType":"uint256"}],"outputs":[],"stateMutability":"nonpayable"},{"type":"function","name":"owner","inputs":[],"outputs":[{"name":"","type":"address","internalType":"address"}],"stateMutability":"view"},{"type":"function","name":"retrigger","inputs":[],"outputs":[],"stateMutability":"nonpayable"},{"type":"function","name":"wallet","inputs":[],"outputs":[{"name":"","type":"address","internalType":"contract IWallet"}],"stateMutability":"view"}],"bytecode":{"object":"0x608060405234801561000f575f5ffd5b5060405161064138038061064183398101604081905261002e9161015d565b60038054336001600160a01b0319918216179091555f80549091166001600160a01b03831690811782556040805163521eb27360e01b8152905163521eb273916004808201926020929091908290030181865afa158015610091573d5f5f3e3d5ffd5b505050506040513d601f19601f820116820180604052508101906100b5919061015d565b600180546001600160a01b0319166001600160a01b038316908117909155604080516311df999560e01b8152905192935090916311df9995916004808201926020929091908290030181865afa158015610111573d5f5f3e3d5ffd5b505050506040513d601f19601f82011682018060405250810190610135919061015d565b600280546001600160a01b0319166001600160a01b03929092169190911790555061018a9050565b5f6020828403121561016d575f5ffd5b81516001600160a01b0381168114610183575f5ffd5b9392505050565b6104aa806101975f395ff3fe608060405234801561000f575f5ffd5b506004361061006f575f3560e01c80638da5cb5b1161004d5780638da5cb5b146100c757806398d078b4146100da578063c124202d146100ef575f5ffd5b806311df999514610073578063521eb273146100a25780636e9c9da5146100b5575b5f5ffd5b600254610086906001600160a01b031681565b6040516001600160a01b03909116815260200160405180910390f35b600154610086906001600160a01b031681565b5f54610086906001600160a01b031681565b600354610086906001600160a01b031681565b6100ed6100e836600461041a565b6100f7565b005b6100ed610342565b6002546001546040516327e235e360e01b81526001600160a01b039182166004820152600a9291909116906327e235e390602401602060405180830381865afa158015610146573d5f5f3e3d5ffd5b505050506040513d601f19601f8201168201806040525081019061016a9190610431565b1061024f575f805460408051600481526024810182526020810180517bffffffffffffffffffffffffffffffffffffffffffffffffffffffff166304a286c760e31b17905290516001600160a01b03909216916101c79190610448565b5f604051808303815f865af19150503d805f8114610200576040519150601f19603f3d011682016040523d82523d5f602084013e610205565b606091505b50509050806102495760405162461bcd60e51b815260206004820152600b60248201526a10d85b1b0819985a5b195960aa1b60448201526064015b60405180910390fd5b506100f7565b6002546040516327e235e360e01b81523060048201525f916001600160a01b0316906327e235e390602401602060405180830381865afa158015610295573d5f5f3e3d5ffd5b505050506040513d601f19601f820116820180604052508101906102b99190610431565b9050801561033e576002546003546040517fa9059cbb0000000000000000000000000000000000000000000000000000000081526001600160a01b0391821660048201526024810184905291169063a9059cbb906044015f604051808303815f87803b158015610327575f5ffd5b505af1158015610339573d5f5f3e3d5ffd5b505050505b5050565b5f805460408051600481526024810182526020810180517bffffffffffffffffffffffffffffffffffffffffffffffffffffffff166304a286c760e31b17905290516001600160a01b039092169161039a9190610448565b5f604051808303815f865af19150503d805f81146103d3576040519150601f19603f3d011682016040523d82523d5f602084013e6103d8565b606091505b50509050806104175760405162461bcd60e51b815260206004820152600b60248201526a10d85b1b0819985a5b195960aa1b6044820152606401610240565b50565b5f6020828403121561042a575f5ffd5b5035919050565b5f60208284031215610441575f5ffd5b5051919050565b5f82515f5b81811015610467576020818601810151858301520161044d565b505f92019182525091905056fea2646970667358221220399d0f0edb345890c5405e1aaf64a78e74e147f3ec0f8ca91ac8c9af9f74abac64736f6c634300081c0033","linkReferences":{}},"methodIdentifiers":{"coin()":"11df9995","goodSamaritan()":"6e9c9da5","notify(uint256)":"98d078b4","owner()":"8da5cb5b","retrigger()":"c124202d","wallet()":"521eb273"},"id":0}