{"abi":[{"type":"function","name":"getSlotAsUint","inputs":[],"outputs":[{"name":"","type":"uint256","internalType":"uint256"}],"stateMutability":"pure"}],"bytecode":{"object":"0x6080604052348015600f57600080fd5b50609f8061001e6000396000f3fe6080604052348015600f57600080fd5b506004361060285760003560e01c8063ca17c59814602d575b600080fd5b60336045565b60408051918252519081900360200190f35b7f360894a13ba1a3210667c828492db98dca3e2076cc3735a920a3ca505d382bbc9056fea264697066735822122035bf796100f8bf9a98f5eb53dfa21888b7ea22b6e5919be9aa635e6c38c0798264736f6c634300060c0033","linkReferences":{}},"methodIdentifiers":{"getSlotAsUint()":"ca17c598"},"id":0}