{"abi":[{"type":"constructor","inputs":[{"name":"_shop","type":"address","internalType":"address"}],"stateMutability":"nonpayable"},{"type":"function","name":"attack","inputs":[],"outputs":[],"stateMutability":"nonpayable"},{"type":"function","name":"price","inputs":[],"outputs":[{"name":"","type":"uint256","internalType":"uint256"}],"stateMutability":"view"},{"type":"function","name":"shop","inputs":[],"outputs":[{"name":"","type":"address","internalType":"contract Shop"}],"stateMutability":"view"}],"bytecode":{"object":"0x6080604052348015600e575f5ffd5b50604051610268380380610268833981016040819052602b91604e565b5f80546001600160a01b0319166001600160a01b03929092169190911790556079565b5f60208284031215605d575f5ffd5b81516001600160a01b03811681146072575f5ffd5b9392505050565b6101e2806100865f395ff3fe608060405234801561000f575f5ffd5b506004361061003f575f3560e01c80630881fa0d146100435780639e5faafc14610072578063a035b1fe1461007c575b5f5ffd5b5f54610055906001600160a01b031681565b6040516001600160a01b0390911681526020015b60405180910390f35b61007a610092565b005b610084610102565b604051908152602001610069565b5f8054604080517fa6f2ae3a00000000000000000000000000000000000000000000000000000000815290516001600160a01b039092169263a6f2ae3a9260048084019382900301818387803b1580156100ea575f5ffd5b505af11580156100fc573d5f5f3e3d5ffd5b50505050565b5f5f5f9054906101000a90046001600160a01b03166001600160a01b031663e852e7416040518163ffffffff1660e01b8152600401602060405180830381865afa158015610152573d5f5f3e3d5ffd5b505050506040513d601f19601f820116820180604052508101906101769190610186565b6101805750606490565b50600190565b5f60208284031215610196575f5ffd5b815180151581146101a5575f5ffd5b939250505056fea26469706673582212200fb4deb965868dcbfcf40d7a8b06bed9a6a3abcc248b4b9a6a7811a91327fff364736f6c634300081c0033","linkReferences":{}},"methodIdentifiers":{"attack()":"9e5faafc","price()":"a035b1fe","shop()":"0881fa0d"},"id":0}