{"abi":[{"type":"function","name":"callDestroy","inputs":[{"name":"token","type":"address","internalType":"address"},{"name":"to","type":"address","internalType":"address payable"}],"outputs":[],"stateMutability":"nonpayable"}],"bytecode":{"object":"0x6080604052348015600e575f5ffd5b506101518061001c5f395ff3fe608060405234801561000f575f5ffd5b5060043610610029575f3560e01c806330d065551461002d575b5f5ffd5b61004061003b3660046100e4565b610042565b005b6040517ef55d9d00000000000000000000000000000000000000000000000000000000815273ffffffffffffffffffffffffffffffffffffffff828116600483015283169062f55d9d906024015f604051808303815f87803b1580156100a6575f5ffd5b505af11580156100b8573d5f5f3e3d5ffd5b505050505050565b73ffffffffffffffffffffffffffffffffffffffff811681146100e1575f5ffd5b50565b5f5f604083850312156100f5575f5ffd5b8235610100816100c0565b91506020830135610110816100c0565b80915050925092905056fea264697066735822122091e7d7bfb99e73c1524d650378344b0611f87fe0756b7a28395e4eeaa6fd240264736f6c634300081c0033","linkReferences":{}},"methodIdentifiers":{"callDestroy(address,address)":"30d06555"},"id":0}