{"abi":[{"type":"constructor","inputs":[{"name":"recoveryAddress","type":"address","internalType":"address"},{"name":"nonce","type":"uint8","internalType":"uint8"}],"stateMutability":"nonpayable"},{"type":"function","name":"getSimpleToken","inputs":[],"outputs":[{"name":"","type":"address","internalType":"address"}],"stateMutability":"view"},{"type":"function","name":"simpleTokenAddress","inputs":[],"outputs":[{"name":"","type":"address","internalType":"address"}],"stateMutability":"view"}],"bytecode":{"object":"0x60a0604052348015600e575f5ffd5b506040516101bb3803806101bb833981016040819052602b916096565b6001600160a01b0382166080526040516001600160601b0319606084901b16602082015260ff821660348201525f9060540160408051601f1981840301815291905280516020909101205f80546001600160a01b03191660609290921c9190911790555060db915050565b5f5f6040838503121560a6575f5ffd5b82516001600160a01b038116811460bb575f5ffd5b602084015190925060ff8116811460d0575f5ffd5b809150509250929050565b60805160cd6100ee5f395f505060cd5ff3fe6080604052348015600e575f5ffd5b50600436106030575f3560e01c806309aa82ec146034578063aa16902c14607b575b5f5ffd5b5f5460529073ffffffffffffffffffffffffffffffffffffffff1681565b60405173ffffffffffffffffffffffffffffffffffffffff909116815260200160405180910390f35b5f5473ffffffffffffffffffffffffffffffffffffffff16605256fea26469706673582212203bcef5e37f447668c55c9c0ce84c5ca769c8511bd8862418b1297dd43bdaee0f64736f6c634300081c0033","linkReferences":{}},"methodIdentifiers":{"getSimpleToken()":"aa16902c","simpleTokenAddress()":"09aa82ec"},"id":0}