{"abi":[{"type":"constructor","inputs":[{"name":"_target","type":"address","internalType":"address"}],"stateMutability":"nonpayable"},{"type":"function","name":"setTreasuryHigh","inputs":[],"outputs":[],"stateMutability":"nonpayable"},{"type":"function","name":"target","inputs":[],"outputs":[{"name":"","type":"address","internalType":"contract IHigherOrder"}],"stateMutability":"view"}],"bytecode":{"object":"0x6080604052348015600e575f5ffd5b506040516102b93803806102b9833981016040819052602b91604e565b5f80546001600160a01b0319166001600160a01b03929092169190911790556079565b5f60208284031215605d575f5ffd5b81516001600160a01b03811681146072575f5ffd5b9392505050565b610233806100865f395ff3fe608060405234801561000f575f5ffd5b5060043610610034575f3560e01c8063c0dd1a1e14610038578063d4b8399214610042575b5f5ffd5b61004061008a565b005b5f546100619073ffffffffffffffffffffffffffffffffffffffff1681565b60405173ffffffffffffffffffffffffffffffffffffffff909116815260200160405180910390f35b6040805161012c60248083019190915282518083039091018152604490910182526020810180517bffffffffffffffffffffffffffffffffffffffffffffffffffffffff167f211c85ab000000000000000000000000000000000000000000000000000000001790525f805492519192909173ffffffffffffffffffffffffffffffffffffffff909116906101209084906101d1565b5f604051808303815f865af19150503d805f8114610159576040519150601f19603f3d011682016040523d82523d5f602084013e61015e565b606091505b50509050806101cd576040517f08c379a000000000000000000000000000000000000000000000000000000000815260206004820152601760248201527f72656769737465725472656173757279206661696c6564000000000000000000604482015260640160405180910390fd5b5050565b5f82515f5b818110156101f057602081860181015185830152016101d6565b505f92019182525091905056fea26469706673582212209f96a6c265c418c4e1af260d02772ccc28a5976c404e5e06dbdf80921802886b64736f6c634300081c0033","linkReferences":{}},"methodIdentifiers":{"setTreasuryHigh()":"c0dd1a1e","target()":"d4b83992"},"id":0}