{"abi":[{"type":"constructor","inputs":[{"name":"_instance","type":"address","internalType":"address"}],"stateMutability":"nonpayable"},{"type":"function","name":"FACTOR","inputs":[],"outputs":[{"name":"","type":"uint256","internalType":"uint256"}],"stateMutability":"view"},{"type":"function","name":"attack","inputs":[],"outputs":[],"stateMutability":"nonpayable"},{"type":"function","name":"instance_address","inputs":[],"outputs":[{"name":"","type":"address","internalType":"address"}],"stateMutability":"view"}],"bytecode":{"object":"0x6080604052600160ff1b6001553480156016575f5ffd5b5060405161029a38038061029a8339810160408190526033916056565b5f80546001600160a01b0319166001600160a01b03929092169190911790556081565b5f602082840312156065575f5ffd5b81516001600160a01b0381168114607a575f5ffd5b9392505050565b61020c8061008e5f395ff3fe608060405234801561000f575f5ffd5b506004361061003f575f3560e01c806335815b95146100435780637f62771a1461005f5780639e5faafc146100a3575b5f5ffd5b61004c60015481565b6040519081526020015b60405180910390f35b5f5461007e9073ffffffffffffffffffffffffffffffffffffffff1681565b60405173ffffffffffffffffffffffffffffffffffffffff9091168152602001610056565b6100ab6100ad565b005b5f6100b960014361016c565b600154904091505f906100cc9083610191565b5f546040517f1d263f670000000000000000000000000000000000000000000000000000000081526001808416146004820181905292935073ffffffffffffffffffffffffffffffffffffffff90911690631d263f67906024016020604051808303815f875af1158015610142573d5f5f3e3d5ffd5b505050506040513d601f19601f8201168201806040525081019061016691906101b0565b50505050565b8181038181111561018b57634e487b7160e01b5f52601160045260245ffd5b92915050565b5f826101ab57634e487b7160e01b5f52601260045260245ffd5b500490565b5f602082840312156101c0575f5ffd5b815180151581146101cf575f5ffd5b939250505056fea264697066735822122073dfcca4217673537e0e9b3e2ce580b497327417913c7b5c1e3aedd97c27fc9964736f6c634300081c0033","linkReferences":{}},"methodIdentifiers":{"FACTOR()":"35815b95","attack()":"9e5faafc","instance_address()":"7f62771a"},"id":0}