{"abi":[{"type":"constructor","inputs":[{"name":"_target","type":"address","internalType":"address"}],"stateMutability":"nonpayable"},{"type":"function","name":"directWin","inputs":[],"outputs":[],"stateMutability":"nonpayable"},{"type":"function","name":"exploitXOR","inputs":[],"outputs":[],"stateMutability":"nonpayable"},{"type":"function","name":"solve","inputs":[],"outputs":[],"stateMutability":"nonpayable"}],"bytecode":{"object":"0x6080604052348015600e575f5ffd5b5060405161018d38038061018d833981016040819052602b91604e565b5f80546001600160a01b0319166001600160a01b03929092169190911790556079565b5f60208284031215605d575f5ffd5b81516001600160a01b03811681146072575f5ffd5b9392505050565b610107806100865f395ff3fe6080604052348015600e575f5ffd5b5060043610603a575f3560e01c806342b6161814603e5780637ae4c44a146040578063890d690814603e575b5f5ffd5b005b603e5f8054604080517f932289cc0000000000000000000000000000000000000000000000000000000081526004810191909152604481019290925261ffff602483015273ffffffffffffffffffffffffffffffffffffffff169063932289cc906064015f604051808303815f87803b15801560ba575f5ffd5b505af115801560cb573d5f5f3e3d5ffd5b5050505056fea26469706673582212205e4b88044e39591a3b3c4deaf31d522a6c08eb846dba349259ac9abb1989b62564736f6c634300081c0033","linkReferences":{}},"methodIdentifiers":{"directWin()":"42b61618","exploitXOR()":"7ae4c44a","solve()":"890d6908"},"id":0}