{"abi":[{"type":"function","name":"drain","inputs":[{"name":"_instance","type":"address","internalType":"address"}],"outputs":[],"stateMutability":"nonpayable"},{"type":"function","name":"transferTokens","inputs":[{"name":"_instance","type":"address","internalType":"address"},{"name":"_to","type":"address","internalType":"address"}],"outputs":[],"stateMutability":"nonpayable"}],"bytecode":{"object":"0x6080604052348015600e575f5ffd5b506103178061001c5f395ff3fe608060405234801561000f575f5ffd5b5060043610610034575f3560e01c80636a092e7914610038578063ece531321461004d575b5f5ffd5b61004b61004636600461025a565b610060565b005b61004b61005b36600461028b565b61015a565b6040516370a0823160e01b81523060048201526001600160a01b0383169063a9059cbb90839083906370a0823190602401602060405180830381865afa1580156100ac573d5f5f3e3d5ffd5b505050506040513d601f19601f820116820180604052508101906100d091906102ab565b6040517fffffffff0000000000000000000000000000000000000000000000000000000060e085901b1681526001600160a01b03909216600483015260248201526044015b6020604051808303815f875af1158015610131573d5f5f3e3d5ffd5b505050506040513d601f19601f8201168201806040525081019061015591906102c2565b505050565b6040516370a0823160e01b815273f39fd6e51aad88f6f4ce6ab8827279cfffb9226660048201525f906001600160a01b038316906370a0823190602401602060405180830381865afa1580156101b2573d5f5f3e3d5ffd5b505050506040513d601f19601f820116820180604052508101906101d691906102ab565b6040517f23b872dd00000000000000000000000000000000000000000000000000000000815273f39fd6e51aad88f6f4ce6ab8827279cfffb922666004820152306024820152604481018290529091506001600160a01b038316906323b872dd90606401610115565b80356001600160a01b0381168114610255575f5ffd5b919050565b5f5f6040838503121561026b575f5ffd5b6102748361023f565b91506102826020840161023f565b90509250929050565b5f6020828403121561029b575f5ffd5b6102a48261023f565b9392505050565b5f602082840312156102bb575f5ffd5b5051919050565b5f602082840312156102d2575f5ffd5b815180151581146102a4575f5ffdfea2646970667358221220a673c5ea2487e9ce562c7a3142ce2de364447776f1c18e24dc7fed189deec76a64736f6c634300081c0033","linkReferences":{}},"methodIdentifiers":{"drain(address)":"ece53132","transferTokens(address,address)":"6a092e79"},"id":4}