{"abi":[{"type":"constructor","inputs":[{"name":"_naughtCoin","type":"address","internalType":"address"}],"stateMutability":"nonpayable"},{"type":"function","name":"checkPlayerBalance","inputs":[],"outputs":[{"name":"","type":"uint256","internalType":"uint256"}],"stateMutability":"view"},{"type":"function","name":"executeAttack","inputs":[],"outputs":[],"stateMutability":"nonpayable"},{"type":"function","name":"naughtCoin","inputs":[],"outputs":[{"name":"","type":"address","internalType":"address"}],"stateMutability":"view"},{"type":"function","name":"player","inputs":[],"outputs":[{"name":"","type":"address","internalType":"address"}],"stateMutability":"view"}],"bytecode":{"object":"0x6080604052348015600e575f5ffd5b506040516104cf3803806104cf833981016040819052602b916057565b5f80546001600160a01b039092166001600160a01b031992831617905560018054909116331790556082565b5f602082840312156066575f5ffd5b81516001600160a01b0381168114607b575f5ffd5b9392505050565b6104408061008f5f395ff3fe608060405234801561000f575f5ffd5b506004361061004a575f3560e01c8063422490ee1461004e57806348db5f89146100585780636856876d14610088578063cce113071461009a575b5f5ffd5b6100566100b0565b005b60015461006b906001600160a01b031681565b6040516001600160a01b0390911681526020015b60405180910390f35b5f5461006b906001600160a01b031681565b6100a26102c6565b60405190815260200161007f565b5f80546001546040516001600160a01b0391821660248201528392919091169060440160408051601f198184030181529181526020820180516001600160e01b03166370a0823160e01b1790525161010891906103c7565b5f604051808303815f865af19150503d805f8114610141576040519150601f19603f3d011682016040523d82523d5f602084013e610146565b606091505b50915091508161019d5760405162461bcd60e51b815260206004820152601560248201527f4661696c656420746f206765742062616c616e6365000000000000000000000060448201526064015b60405180910390fd5b5f818060200190518101906101b291906103f3565b5f80546001546040516001600160a01b03918216602482015230604482015260648101859052939450919291169060840160408051601f198184030181529181526020820180516001600160e01b03167f23b872dd000000000000000000000000000000000000000000000000000000001790525161023191906103c7565b5f604051808303815f865af19150503d805f811461026a576040519150601f19603f3d011682016040523d82523d5f602084013e61026f565b606091505b50509050806102c05760405162461bcd60e51b815260206004820152600f60248201527f5472616e73666572206661696c656400000000000000000000000000000000006044820152606401610194565b50505050565b5f80546001546040516001600160a01b03918216602482015283928392169060440160408051601f198184030181529181526020820180516001600160e01b03166370a0823160e01b1790525161031d91906103c7565b5f60405180830381855afa9150503d805f8114610355576040519150601f19603f3d011682016040523d82523d5f602084013e61035a565b606091505b5091509150816103ac5760405162461bcd60e51b815260206004820152601560248201527f4661696c656420746f206765742062616c616e636500000000000000000000006044820152606401610194565b808060200190518101906103c091906103f3565b9250505090565b5f82515f5b818110156103e657602081860181015185830152016103cc565b505f920191825250919050565b5f60208284031215610403575f5ffd5b505191905056fea26469706673582212202a371f51bb6d96ef8508e654fb9ff2a74d7f86ac7e74a1410a0bc0c08db0c07c64736f6c634300081c0033","linkReferences":{}},"methodIdentifiers":{"checkPlayerBalance()":"cce11307","executeAttack()":"422490ee","naughtCoin()":"6856876d","player()":"48db5f89"},"id":0}