{"abi":[{"type":"constructor","inputs":[{"name":"_denial","type":"address","internalType":"address"}],"stateMutability":"nonpayable"},{"type":"fallback","stateMutability":"payable"},{"type":"receive","stateMutability":"payable"},{"type":"function","name":"denial","inputs":[],"outputs":[{"name":"","type":"address","internalType":"address"}],"stateMutability":"view"}],"bytecode":{"object":"0x6080604052348015600e575f5ffd5b50604051610268380380610268833981016040819052602b916094565b5f80546001600160a01b0319166001600160a01b038316908117909155604051631387164560e21b8152306004820152634e1c5914906024015f604051808303815f87803b158015607a575f5ffd5b505af1158015608b573d5f5f3e3d5ffd5b505050505060bf565b5f6020828403121560a3575f5ffd5b81516001600160a01b038116811460b8575f5ffd5b9392505050565b61019c806100cc5f395ff3fe608060405260043610610021575f3560e01c806377fa52951461012c576100c6565b366100c6575f5460016001600160a01b03909116311080159061004d57505f54600160a01b900460ff16155b156100c4575f805460ff60a01b198116600160a01b17825560408051633ccfd60b60e01b815290516001600160a01b0390921692633ccfd60b9260048084019382900301818387803b1580156100a1575f5ffd5b505af11580156100b3573d5f5f3e3d5ffd5b50505f805460ff60a01b1916905550505b005b5f5460016001600160a01b0390911631106100c4575f805460408051633ccfd60b60e01b815290516001600160a01b0390921692633ccfd60b9260048084019382900301818387803b15801561011a575f5ffd5b505af11580156100c4573d5f5f3e3d5ffd5b348015610137575f5ffd5b505f5461014a906001600160a01b031681565b6040516001600160a01b03909116815260200160405180910390f3fea26469706673582212201c42a8623e84e25455ffa6ef9dd8dca5eaac0c0e97bdbda538cf000ae49fb3a264736f6c634300081c0033","linkReferences":{}},"methodIdentifiers":{"denial()":"77fa5295"},"id":0}