{"abi":[{"type":"constructor","inputs":[{"name":"_carousel","type":"address","internalType":"address"}],"stateMutability":"nonpayable"},{"type":"function","name":"attack","inputs":[],"outputs":[],"stateMutability":"nonpayable"},{"type":"function","name":"carousel","inputs":[],"outputs":[{"name":"","type":"address","internalType":"contract MagicAnimalCarousel"}],"stateMutability":"view"}],"bytecode":{"object":"0x6080604052348015600e575f5ffd5b506040516104ef3803806104ef833981016040819052602b91604e565b5f80546001600160a01b0319166001600160a01b03929092169190911790556079565b5f60208284031215605d575f5ffd5b81516001600160a01b03811681146072575f5ffd5b9392505050565b610469806100865f395ff3fe608060405234801561000f575f5ffd5b5060043610610034575f3560e01c80638f8fa52f146100385780639e5faafc14610066575b5f5ffd5b5f5461004a906001600160a01b031681565b6040516001600160a01b03909116815260200160405180910390f35b61006e610070565b005b5f54604051632acee48960e21b815260206004820152600360248201527f646f67000000000000000000000000000000000000000000000000000000000060448201526001600160a01b039091169063ab3b9224906064015f604051808303815f87803b1580156100df575f5ffd5b505af11580156100f1573d5f5f3e3d5ffd5b505050505f5f5f9054906101000a90046001600160a01b03166001600160a01b03166326bad99e6040518163ffffffff1660e01b8152600401602060405180830381865afa158015610145573d5f5f3e3d5ffd5b505050506040513d601f19601f82011682018060405250810190610169919061039d565b60408051600c8082528183019092529192505f91906020820181803683370190505090505f60f81b815f815181106101a3576101a36103b4565b60200101906001600160f81b03191690815f1a9053505f60f81b816001815181106101d0576101d06103b4565b60200101906001600160f81b03191690815f1a90535060025b600c81101561022757604160f81b828281518110610209576102096103b4565b60200101906001600160f81b03191690815f1a9053506001016101e9565b505f546040516324c8a27360e21b81526001600160a01b039091169063932289cc9061025990849086906004016103e1565b5f604051808303815f87803b158015610270575f5ffd5b505af1158015610282573d5f5f3e3d5ffd5b50505f54604051632acee48960e21b815260206004820152600360248201527f77696e000000000000000000000000000000000000000000000000000000000060448201526001600160a01b03909116925063ab3b922491506064015f604051808303815f87803b1580156102f5575f5ffd5b505af1158015610307573d5f5f3e3d5ffd5b50505f8054604080516324c8a27360e21b81526004810191909152600660448201527f77696e6e65720000000000000000000000000000000000000000000000000000606482015260248101929092526001600160a01b0316925063932289cc91506084015f604051808303815f87803b158015610383575f5ffd5b505af1158015610395573d5f5f3e3d5ffd5b505050505050565b5f602082840312156103ad575f5ffd5b5051919050565b7f4e487b71000000000000000000000000000000000000000000000000000000005f52603260045260245ffd5b604081525f83518060408401525f5b8181101561040d57602081870181015160608684010152016103f0565b505f606082850101526060601f19601f830116840101915050826020830152939250505056fea2646970667358221220985463162bb7cbfd4a8c24ce3a0976098b73d7fd8d784ee1136eb37ebca3f17864736f6c634300081c0033","linkReferences":{}},"methodIdentifiers":{"attack()":"9e5faafc","carousel()":"8f8fa52f"},"id":0}