{"abi":[{"type":"function","name":"getBalance","inputs":[],"outputs":[{"name":"","type":"uint256","internalType":"uint256"}],"stateMutability":"view"},{"type":"function","name":"instance","inputs":[],"outputs":[{"name":"","type":"address","internalType":"address"}],"stateMutability":"view"},{"type":"function","name":"setInstance","inputs":[{"name":"_instance","type":"address","internalType":"address"}],"outputs":[],"stateMutability":"nonpayable"}],"bytecode":{"object":"0x608060405234801561001057600080fd5b50610164806100206000396000f3fe608060405234801561001057600080fd5b50600436106100415760003560e01c8063022ec095146100465780630a353a041461007757806312065fe0146100ac575b600080fd5b61004e6100c6565b6040805173ffffffffffffffffffffffffffffffffffffffff9092168252519081900360200190f35b6100aa6004803603602081101561008d57600080fd5b503573ffffffffffffffffffffffffffffffffffffffff166100e2565b005b6100b4610129565b60408051918252519081900360200190f35b60005473ffffffffffffffffffffffffffffffffffffffff1681565b600080547fffffffffffffffffffffffff00000000000000000000000000000000000000001673ffffffffffffffffffffffffffffffffffffffff92909216919091179055565b60009056fea2646970667358221220a90c0441ab610fd05096757c4a123c506c2f564ef2fa649852c97d7cffe321de64736f6c634300060c0033","linkReferences":{}},"methodIdentifiers":{"getBalance()":"12065fe0","instance()":"022ec095","setInstance(address)":"0a353a04"},"id":0}