{"abi":[{"type":"function","name":"changeHorsePower","inputs":[],"outputs":[],"stateMutability":"nonpayable"},{"type":"function","name":"horsePower","inputs":[],"outputs":[{"name":"","type":"uint256","internalType":"uint256"}],"stateMutability":"view"},{"type":"function","name":"upgrader","inputs":[],"outputs":[{"name":"","type":"address","internalType":"address"}],"stateMutability":"view"}],"bytecode":{"object":"0x608060405234801561001057600080fd5b5060f68061001f6000396000f3fe6080604052348015600f57600080fd5b5060043610603c5760003560e01c8063564f6d711460415780636a18263f146059578063af269745146061575b600080fd5b60476090565b60408051918252519081900360200190f35b605f6096565b005b6067609e565b6040805173ffffffffffffffffffffffffffffffffffffffff9092168252519081900360200190f35b60015481565b6107e8600155565b60005462010000900473ffffffffffffffffffffffffffffffffffffffff168156fea26469706673582212202d99f6171e966620be46cf1ce364db0097c1d04b8b72c8b4149495c4ea968ce464736f6c634300060c0033","linkReferences":{}},"methodIdentifiers":{"changeHorsePower()":"6a18263f","horsePower()":"564f6d71","upgrader()":"af269745"},"id":2}