{"abi":[{"type":"constructor","inputs":[{"name":"_targetContract","type":"address","internalType":"address"}],"stateMutability":"nonpayable"},{"type":"function","name":"executeDestroy","inputs":[],"outputs":[],"stateMutability":"nonpayable"},{"type":"function","name":"targetContract","inputs":[],"outputs":[{"name":"","type":"address","internalType":"address"}],"stateMutability":"view"}],"bytecode":{"object":"0x6080604052348015600e575f5ffd5b506040516101ba3803806101ba833981016040819052602b91604e565b5f80546001600160a01b0319166001600160a01b03929092169190911790556079565b5f60208284031215605d575f5ffd5b81516001600160a01b03811681146072575f5ffd5b9392505050565b610134806100865f395ff3fe6080604052348015600e575f5ffd5b50600436106030575f3560e01c80632df4481b146034578063bd90df7014603c575b5f5ffd5b603a6083565b005b5f54605a9073ffffffffffffffffffffffffffffffffffffffff1681565b60405173ffffffffffffffffffffffffffffffffffffffff909116815260200160405180910390f35b5f546040517ef55d9d00000000000000000000000000000000000000000000000000000000815233600482015273ffffffffffffffffffffffffffffffffffffffff9091169062f55d9d906024015f604051808303815f87803b15801560e7575f5ffd5b505af115801560f8573d5f5f3e3d5ffd5b5050505056fea2646970667358221220ff34499aac02d1ce27f8453e93f4c8de0123b1c04835bf7e3c1c41689385b3f464736f6c634300081c0033","linkReferences":{}},"methodIdentifiers":{"executeDestroy()":"2df4481b","targetContract()":"bd90df70"},"id":0}