{"abi":[{"type":"constructor","inputs":[{"name":"_target","type":"address","internalType":"address payable"}],"stateMutability":"nonpayable"},{"type":"fallback","stateMutability":"payable"},{"type":"receive","stateMutability":"payable"},{"type":"function","name":"callEnter","inputs":[],"outputs":[],"stateMutability":"nonpayable"},{"type":"function","name":"target","inputs":[],"outputs":[{"name":"","type":"address","internalType":"contract IGt"}],"stateMutability":"view"}],"bytecode":{"object":"0x60a0604052348015600e575f5ffd5b506040516101d43803806101d4833981016040819052602b91603b565b6001600160a01b03166080526066565b5f60208284031215604a575f5ffd5b81516001600160a01b0381168114605f575f5ffd5b9392505050565b6080516101516100835f395f81816053015260a001526101515ff3fe608060405260043610610028575f3560e01c806325b231611461002c578063d4b8399214610042575b5f5ffd5b348015610037575f5ffd5b5061004061009e565b005b34801561004d575f5ffd5b506100757f000000000000000000000000000000000000000000000000000000000000000081565b60405173ffffffffffffffffffffffffffffffffffffffff909116815260200160405180910390f35b7f000000000000000000000000000000000000000000000000000000000000000073ffffffffffffffffffffffffffffffffffffffff1663e97dcb626040518163ffffffff1660e01b81526004015f604051808303815f87803b158015610103575f5ffd5b505af1158015610115573d5f5f3e3d5ffd5b5050505056fea26469706673582212207c85e2bb06dfee582e67ae33a837456d5562eca5eeb5c381d9f9121e977c1f7d64736f6c634300081c0033","linkReferences":{}},"methodIdentifiers":{"callEnter()":"25b23161","target()":"d4b83992"},"id":0}