{"abi":[{"type":"function","name":"setTime","inputs":[{"name":"_time","type":"uint256","internalType":"uint256"}],"outputs":[],"stateMutability":"nonpayable"},{"type":"function","name":"storedTime","inputs":[],"outputs":[{"name":"","type":"uint256","internalType":"uint256"}],"stateMutability":"view"}],"bytecode":{"object":"0x6080604052348015600e575f5ffd5b5060ac80601a5f395ff3fe6080604052348015600e575f5ffd5b50600436106030575f3560e01c80630687371c1460345780633beb26c414604e575b5f5ffd5b603c60025481565b60405190815260200160405180910390f35b605e60593660046060565b600255565b005b5f60208284031215606f575f5ffd5b503591905056fea264697066735822122099c7b6af5ac20a579e8c4d3840dd30adb4844d6fd275ecf559e68598fd18c1c164736f6c634300081c0033","linkReferences":{}},"methodIdentifiers":{"setTime(uint256)":"3beb26c4","storedTime()":"0687371c"},"id":0}