{"abi":[{"type":"constructor","inputs":[{"name":"_dexInstance","type":"address","internalType":"address"}],"stateMutability":"nonpayable"},{"type":"function","name":"drain","inputs":[],"outputs":[],"stateMutability":"nonpayable"},{"type":"function","name":"token1Balance","inputs":[],"outputs":[{"name":"","type":"uint256","internalType":"uint256"}],"stateMutability":"view"},{"type":"function","name":"token2Balance","inputs":[],"outputs":[{"name":"","type":"uint256","internalType":"uint256"}],"stateMutability":"view"}],"bytecode":{"object":"0x608060405234801561000f575f5ffd5b5060405161059938038061059983398101604081905261002e9161014e565b600280546001600160a01b0319166001600160a01b0383169081179091556040805163d21220a760e01b8152905163d21220a7916004808201926020929091908290030181865afa158015610085573d5f5f3e3d5ffd5b505050506040513d601f19601f820116820180604052508101906100a9919061014e565b5f80546001600160a01b0319166001600160a01b03928316179055600254604080516312df092760e11b8152905191909216916325be124e9160048083019260209291908290030181865afa158015610104573d5f5f3e3d5ffd5b505050506040513d601f19601f82011682018060405250810190610128919061014e565b600180546001600160a01b0319166001600160a01b03929092169190911790555061017b565b5f6020828403121561015e575f5ffd5b81516001600160a01b0381168114610174575f5ffd5b9392505050565b610411806101885f395ff3fe608060405234801561000f575f5ffd5b506004361061003f575f3560e01c806368a455f1146100435780639890220b1461005d578063b9ffa6a814610067575b5f5ffd5b61004b61006f565b60405190815260200160405180910390f35b6100656100df565b005b61004b610394565b6001546040516370a0823160e01b81523060048201525f916001600160a01b0316906370a08231906024015b602060405180830381865afa1580156100b6573d5f5f3e3d5ffd5b505050506040513d601f19601f820116820180604052508101906100da91906103c4565b905090565b5f80546040516370a0823160e01b81523060048201526001600160a01b03909116906370a0823190602401602060405180830381865afa158015610125573d5f5f3e3d5ffd5b505050506040513d601f19601f8201168201806040525081019061014991906103c4565b905080156101bf576002545f54600154604051630df791e560e41b81526001600160a01b03928316600482015290821660248201526044810184905291169063df791e50906064015f604051808303815f87803b1580156101a8575f5ffd5b505af11580156101ba573d5f5f3e3d5ffd5b505050505b6001546040516370a0823160e01b81523060048201525f916001600160a01b0316906370a0823190602401602060405180830381865afa158015610205573d5f5f3e3d5ffd5b505050506040513d601f19601f8201168201806040525081019061022991906103c4565b9050801561029f576002546001545f54604051630df791e560e41b81526001600160a01b03928316600482015290821660248201526044810184905291169063df791e50906064015f604051808303815f87803b158015610288575f5ffd5b505af115801561029a573d5f5f3e3d5ffd5b505050505b5f546002546040516370a0823160e01b81526001600160a01b0391821660048201529116906370a0823190602401602060405180830381865afa1580156102e8573d5f5f3e3d5ffd5b505050506040513d601f19601f8201168201806040525081019061030c91906103c4565b15801561038457506001546002546040516370a0823160e01b81526001600160a01b0391821660048201529116906370a0823190602401602060405180830381865afa15801561035e573d5f5f3e3d5ffd5b505050506040513d601f19601f8201168201806040525081019061038291906103c4565b155b1561038d575050565b50506100df565b5f80546040516370a0823160e01b81523060048201526001600160a01b03909116906370a082319060240161009b565b5f602082840312156103d4575f5ffd5b505191905056fea264697066735822122040828c7c9ae9aeac2501c79d52645ddc7d6861624d0c6030caf325bce882629064736f6c634300081c0033","linkReferences":{}},"methodIdentifiers":{"drain()":"9890220b","token1Balance()":"b9ffa6a8","token2Balance()":"68a455f1"},"id":0}