{"abi":[{"type":"function","name":"compareEncodings","inputs":[{"name":"r","type":"bytes32","internalType":"bytes32"},{"name":"s","type":"bytes32","internalType":"bytes32"},{"name":"v","type":"uint8","internalType":"uint8"}],"outputs":[{"name":"arrayHash","type":"bytes32","internalType":"bytes32"},{"name":"separateHash","type":"bytes32","internalType":"bytes32"},{"name":"equal","type":"bool","internalType":"bool"}],"stateMutability":"pure"},{"type":"function","name":"testEncoding","inputs":[{"name":"r","type":"uint256","internalType":"uint256"},{"name":"s","type":"uint256","internalType":"uint256"},{"name":"v","type":"uint256","internalType":"uint256"}],"outputs":[{"name":"","type":"bytes","internalType":"bytes"},{"name":"","type":"bytes32","internalType":"bytes32"}],"stateMutability":"pure"},{"type":"function","name":"testEncodingSeparate","inputs":[{"name":"r","type":"uint256","internalType":"uint256"},{"name":"s","type":"uint256","internalType":"uint256"},{"name":"v","type":"uint256","internalType":"uint256"}],"outputs":[{"name":"","type":"bytes","internalType":"bytes"},{"name":"","type":"bytes32","internalType":"bytes32"}],"stateMutability":"pure"}],"bytecode":{"object":"0x6080604052348015600e575f5ffd5b506102cc8061001c5f395ff3fe608060405234801561000f575f5ffd5b506004361061003f575f3560e01c8063b7edd22414610043578063c26d96d81461006d578063d15204d914610080575b5f5ffd5b6100566100513660046101b0565b6100b0565b6040516100649291906101d9565b60405180910390f35b61005661007b3660046101b0565b610103565b61009361008e36600461022b565b610129565b604080519384526020840192909252151590820152606001610064565b60605f5f6040518060600160405280878152602001868152602001858152506040516020016100df9190610266565b60408051808303601f19018152919052805160208201209097909650945050505050565b60408051602081018590529081018390526060818101839052905f9081906080016100df565b60408051606081018252848152602080820185905260ff84168284015291515f92839283926101589201610266565b60408051808303601f19018152828252805160209182012090830189905290820187905260ff861660608301529350608001604051602081830303815290604052805190602001209150818314905093509350939050565b5f5f5f606084860312156101c2575f5ffd5b505081359360208301359350604090920135919050565b604081525f83518060408401525f5b8181101561020557602081870181015160608684010152016101e8565b505f606082850101526060601f19601f8301168401019150508260208301529392505050565b5f5f5f6060848603121561023d575f5ffd5b8335925060208401359150604084013560ff8116811461025b575f5ffd5b809150509250925092565b6060810181835f5b600381101561028d57815183526020928301929091019060010161026e565b5050509291505056fea264697066735822122032e9397c2b0fdb06cecc0e7fe44db9f4cf399f3413000ecb36004d52d332382464736f6c634300081c0033","linkReferences":{}},"methodIdentifiers":{"compareEncodings(bytes32,bytes32,uint8)":"d15204d9","testEncoding(uint256,uint256,uint256)":"b7edd224","testEncodingSeparate(uint256,uint256,uint256)":"c26d96d8"},"id":0}