{"abi":[{"type":"function","name":"lastSender","inputs":[],"outputs":[{"name":"","type":"address","internalType":"address"}],"stateMutability":"view"},{"type":"function","name":"message","inputs":[],"outputs":[{"name":"","type":"string","internalType":"string"}],"stateMutability":"view"},{"type":"function","name":"postMessage","inputs":[{"name":"_message","type":"string","internalType":"string"}],"outputs":[],"stateMutability":"nonpayable"},{"type":"function","name":"readMessage","inputs":[],"outputs":[{"name":"","type":"string","internalType":"string"},{"name":"","type":"address","internalType":"address"}],"stateMutability":"view"}],"bytecode":{"object":"0x6080604052348015600e575f5ffd5b506104e08061001c5f395ff3fe608060405234801561000f575f5ffd5b506004361061004a575f3560e01c8063031d5d011461004e578063256fec881461006d5780636630f88f146100b2578063e21f37ce146100c7575b5f5ffd5b6100566100dc565b60405161006492919061029a565b60405180910390f35b60015461008d9073ffffffffffffffffffffffffffffffffffffffff1681565b60405173ffffffffffffffffffffffffffffffffffffffff9091168152602001610064565b6100c56100c03660046102d1565b610191565b005b6100cf6101cc565b604051610064919061033f565b6001545f8054606092829173ffffffffffffffffffffffffffffffffffffffff90911690829061010b90610358565b80601f016020809104026020016040519081016040528092919081815260200182805461013790610358565b80156101825780601f1061015957610100808354040283529160200191610182565b820191905f5260205f20905b81548152906001019060200180831161016557829003601f168201915b50505050509150915091509091565b5f61019d8284836103f0565b5050600180547fffffffffffffffffffffffff0000000000000000000000000000000000000000163317905550565b5f80546101d890610358565b80601f016020809104026020016040519081016040528092919081815260200182805461020490610358565b801561024f5780601f106102265761010080835404028352916020019161024f565b820191905f5260205f20905b81548152906001019060200180831161023257829003601f168201915b505050505081565b5f81518084525f5b8181101561027b5760208185018101518683018201520161025f565b505f602082860101526020601f19601f83011685010191505092915050565b604081525f6102ac6040830185610257565b905073ffffffffffffffffffffffffffffffffffffffff831660208301529392505050565b5f5f602083850312156102e2575f5ffd5b823567ffffffffffffffff8111156102f8575f5ffd5b8301601f81018513610308575f5ffd5b803567ffffffffffffffff81111561031e575f5ffd5b85602082840101111561032f575f5ffd5b6020919091019590945092505050565b602081525f6103516020830184610257565b9392505050565b600181811c9082168061036c57607f821691505b60208210810361038a57634e487b7160e01b5f52602260045260245ffd5b50919050565b634e487b7160e01b5f52604160045260245ffd5b601f8211156103eb57805f5260205f20601f840160051c810160208510156103c95750805b601f840160051c820191505b818110156103e8575f81556001016103d5565b50505b505050565b67ffffffffffffffff83111561040857610408610390565b61041c836104168354610358565b836103a4565b5f601f84116001811461044d575f85156104365750838201355b5f19600387901b1c1916600186901b1783556103e8565b5f83815260208120601f198716915b8281101561047c578685013582556020948501946001909201910161045c565b5086821015610498575f1960f88860031b161c19848701351681555b505060018560011b018355505050505056fea2646970667358221220b5b7432faf16e3cbeae459cbcc50053f3c1941ef0fe773fa45e9fa9a75b379a964736f6c634300081c0033","linkReferences":{}},"methodIdentifiers":{"lastSender()":"256fec88","message()":"e21f37ce","postMessage(string)":"6630f88f","readMessage()":"031d5d01"},"id":0}