{"abi":[{"type":"function","name":"owner","inputs":[],"outputs":[{"name":"","type":"address","internalType":"address"}],"stateMutability":"view"},{"type":"function","name":"setTime","inputs":[{"name":"_time","type":"uint256","internalType":"uint256"}],"outputs":[],"stateMutability":"nonpayable"}],"bytecode":{"object":"0x6080604052348015600e575f5ffd5b5060d880601a5f395ff3fe6080604052348015600e575f5ffd5b50600436106030575f3560e01c80633beb26c41460345780638da5cb5b146045575b5f5ffd5b6043603f366004608c565b5f55565b005b5f5460639073ffffffffffffffffffffffffffffffffffffffff1681565b60405173ffffffffffffffffffffffffffffffffffffffff909116815260200160405180910390f35b5f60208284031215609b575f5ffd5b503591905056fea264697066735822122075ea6a7ee229b828b6901078ccfc17d9faafbd8a75a4092035e80cd424fee65464736f6c634300081c0033","linkReferences":{}},"methodIdentifiers":{"owner()":"8da5cb5b","setTime(uint256)":"3beb26c4"},"id":0}