{"abi":[{"type":"constructor","inputs":[{"name":"_dex","type":"address","internalType":"address"},{"name":"_token1","type":"address","internalType":"address"},{"name":"_token2","type":"address","internalType":"address"}],"stateMutability":"nonpayable"},{"type":"function","name":"attack","inputs":[],"outputs":[],"stateMutability":"nonpayable"},{"type":"function","name":"calls","inputs":[],"outputs":[{"name":"","type":"uint256","internalType":"uint256"}],"stateMutability":"view"},{"type":"function","name":"isOwner","inputs":[],"outputs":[{"name":"","type":"bool","internalType":"bool"}],"stateMutability":"view"},{"type":"function","name":"token1","inputs":[],"outputs":[{"name":"","type":"address","internalType":"contract IERC20"}],"stateMutability":"view"},{"type":"function","name":"token2","inputs":[],"outputs":[{"name":"","type":"address","internalType":"contract IERC20"}],"stateMutability":"view"}],"bytecode":{"object":"0x60a060405234801561000f575f5ffd5b5060405161034638038061034683398101604081905261002e9161006d565b50506001600160a01b03166080525f80546001600160a01b031916331790556100ad565b80516001600160a01b0381168114610068575f5ffd5b919050565b5f5f5f6060848603121561007f575f5ffd5b61008884610052565b925061009660208501610052565b91506100a460408501610052565b90509250925092565b60805161027a6100cc5f395f818161015a01526101e7015261027a5ff3fe608060405234801561000f575f5ffd5b5060043610610064575f3560e01c80638f32d59b1161004d5780638f32d59b146100af5780639e5faafc146100d2578063d21220a7146100dc575f5ffd5b806325be124e14610068578063305f72b714610098575b5f5ffd5b60025461007b906001600160a01b031681565b6040516001600160a01b0390911681526020015b60405180910390f35b6100a160035481565b60405190815260200161008f565b6100c25f546001600160a01b0316331490565b604051901515815260200161008f565b6100da6100ef565b005b60015461007b906001600160a01b031681565b600180546001600160a01b038082167fffffffffffffffffffffffff00000000000000000000000000000000000000009283168117845560028054808416941684179055604051630df791e560e41b81526004810191909152602481019290925260448201929092527f00000000000000000000000000000000000000000000000000000000000000009091169063df791e50906064015f604051808303815f87803b15801561019d575f5ffd5b505af11580156101af573d5f5f3e3d5ffd5b505060025460018054604051630df791e560e41b81526001600160a01b039384166004820152908316602482015260448101919091527f0000000000000000000000000000000000000000000000000000000000000000909116925063df791e5091506064015f604051808303815f87803b15801561022c575f5ffd5b505af115801561023e573d5f5f3e3d5ffd5b5050505056fea26469706673582212205a49efa58d310bceaf808d60f15d05e68abd38991f8ca5fc450924306c7bfef764736f6c634300081c0033","linkReferences":{}},"methodIdentifiers":{"attack()":"9e5faafc","calls()":"305f72b7","isOwner()":"8f32d59b","token1()":"d21220a7","token2()":"25be124e"},"id":0}