{"abi":[{"type":"constructor","inputs":[{"name":"_locker","type":"address","internalType":"address"}],"stateMutability":"nonpayable"},{"type":"function","name":"getLockId","inputs":[],"outputs":[{"name":"","type":"uint256","internalType":"uint256"}],"stateMutability":"view"},{"type":"function","name":"getMsgHash","inputs":[],"outputs":[{"name":"","type":"bytes32","internalType":"bytes32"}],"stateMutability":"view"},{"type":"function","name":"locker","inputs":[],"outputs":[{"name":"","type":"address","internalType":"contract IECLocker"}],"stateMutability":"view"},{"type":"function","name":"tryChangeController","inputs":[],"outputs":[],"stateMutability":"nonpayable"}],"bytecode":{"object":"0x6080604052348015600e575f5ffd5b506040516102c83803806102c8833981016040819052602b91604e565b5f80546001600160a01b0319166001600160a01b03929092169190911790556079565b5f60208284031215605d575f5ffd5b81516001600160a01b03811681146072575f5ffd5b9392505050565b610242806100865f395ff3fe608060405234801561000f575f5ffd5b506004361061004a575f3560e01c8063041c0d2b1461004e5780631040b0bc146100695780638ff334a214610071578063d7b96d4e1461007b575b5f5ffd5b6100566100a5565b6040519081526020015b60405180910390f35b61005661011e565b61007961016e565b005b5f5461008d906001600160a01b031681565b6040516001600160a01b039091168152602001610060565b5f5f5f9054906101000a90046001600160a01b03166001600160a01b03166366fa19326040518163ffffffff1660e01b8152600401602060405180830381865afa1580156100f5573d5f5f3e3d5ffd5b505050506040513d601f19601f8201168201806040525081019061011991906101f5565b905090565b5f5f5f9054906101000a90046001600160a01b03166001600160a01b031663e4e6cf4f6040518163ffffffff1660e01b8152600401602060405180830381865afa1580156100f5573d5f5f3e3d5ffd5b5f80546040517f3e8cd570000000000000000000000000000000000000000000000000000000008152601b60048201526024810183905260448101929092523360648301526001600160a01b031690633e8cd570906084015f604051808303815f87803b1580156101dd575f5ffd5b505af11580156101ef573d5f5f3e3d5ffd5b50505050565b5f60208284031215610205575f5ffd5b505191905056fea26469706673582212207ee468688bfa620c2ab9875675a5785c5a3db6a50df43a968347c9c12a26f2c264736f6c634300081c0033","linkReferences":{}},"methodIdentifiers":{"getLockId()":"041c0d2b","getMsgHash()":"1040b0bc","locker()":"d7b96d4e","tryChangeController()":"8ff334a2"},"id":0}