{"abi":[{"type":"constructor","inputs":[{"name":"_engine","type":"address","internalType":"address"}],"stateMutability":"nonpayable"},{"type":"function","name":"attack","inputs":[],"outputs":[],"stateMutability":"nonpayable"},{"type":"function","name":"destroy","inputs":[],"outputs":[],"stateMutability":"nonpayable"},{"type":"function","name":"engine","inputs":[],"outputs":[{"name":"","type":"address","internalType":"address"}],"stateMutability":"view"}],"bytecode":{"object":"0x608060405234801561001057600080fd5b5060405161030f38038061030f8339818101604052602081101561003357600080fd5b5051600080546001600160a01b039092166001600160a01b03199092169190911790556102aa806100656000396000f3fe608060405234801561001057600080fd5b50600436106100415760003560e01c806383197ef0146100465780639e5faafc14610050578063c9d4623f14610058575b600080fd5b61004e610089565b005b61004e61008d565b610060610258565b6040805173ffffffffffffffffffffffffffffffffffffffff9092168252519081900360200190f35b6000ff5b60008054604080517f8129fc1c000000000000000000000000000000000000000000000000000000008152905173ffffffffffffffffffffffffffffffffffffffff90921692638129fc1c9260048084019382900301818387803b1580156100f457600080fd5b505af1158015610108573d6000803e3d6000fd5b505060008054604080516004808252602480830184526020830180517bffffffffffffffffffffffffffffffffffffffffffffffffffffffff167f83197ef00000000000000000000000000000000000000000000000000000000017815284517f4f1ef2860000000000000000000000000000000000000000000000000000000081523093810184815292810195865284516044820152845173ffffffffffffffffffffffffffffffffffffffff9097169950634f1ef2869850929693959194936064909301929091908190849084905b838110156101f15781810151838201526020016101d9565b50505050905090810190601f16801561021e5780820380516001836020036101000a031916815260200191505b509350505050600060405180830381600087803b15801561023e57600080fd5b505af1158015610252573d6000803e3d6000fd5b50505050565b60005473ffffffffffffffffffffffffffffffffffffffff168156fea264697066735822122033848e0a2c2652c025233ff4a72970576d4cfa12ada5a724e1d35c1c0863843564736f6c634300060c0033","linkReferences":{}},"methodIdentifiers":{"attack()":"9e5faafc","destroy()":"83197ef0","engine()":"c9d4623f"},"id":0}