{"abi":[{"type":"function","name":"generateToken","inputs":[{"name":"_name","type":"string","internalType":"string"},{"name":"_initialSupply","type":"uint256","internalType":"uint256"}],"outputs":[],"stateMutability":"nonpayable"}],"bytecode":{"object":"0x6080604052348015600e575f5ffd5b506108478061001c5f395ff3fe608060405234801561000f575f5ffd5b5060043610610029575f3560e01c80633894e5161461002d575b5f5ffd5b61004061003b3660046100b6565b610042565b005b8133826040516100519061007c565b61005d9392919061016b565b604051809103905ff080158015610076573d5f5f3e3d5ffd5b50505050565b610637806101db83390190565b7f4e487b71000000000000000000000000000000000000000000000000000000005f52604160045260245ffd5b5f5f604083850312156100c7575f5ffd5b823567ffffffffffffffff8111156100dd575f5ffd5b8301601f810185136100ed575f5ffd5b803567ffffffffffffffff81111561010757610107610089565b604051601f8201601f19908116603f0116810167ffffffffffffffff8111828210171561013657610136610089565b60405281815282820160200187101561014d575f5ffd5b816020840160208301375f6020928201830152969401359450505050565b606081525f84518060608401525f5b81811015610197576020818801810151608086840101520161017a565b505f608082850101526080601f19601f83011684010191505073ffffffffffffffffffffffffffffffffffffffff8416602083015282604083015294935050505056fe608060405234801561000f575f5ffd5b5060405161063738038061063783398101604081905261002e91610088565b5f61003984826101ed565b506001600160a01b039091165f90815260016020526040902055506102a7565b634e487b7160e01b5f52604160045260245ffd5b80516001600160a01b0381168114610083575f5ffd5b919050565b5f5f5f6060848603121561009a575f5ffd5b83516001600160401b038111156100af575f5ffd5b8401601f810186136100bf575f5ffd5b80516001600160401b038111156100d8576100d8610059565b604051601f8201601f19908116603f011681016001600160401b038111828210171561010657610106610059565b60405281815282820160200188101561011d575f5ffd5b5f5b8281101561013b5760208185018101518383018201520161011f565b505f602083830101528095505050506101566020850161006d565b6040949094015192959394509192915050565b600181811c9082168061017d57607f821691505b60208210810361019b57634e487b7160e01b5f52602260045260245ffd5b50919050565b601f8211156101e857805f5260205f20601f840160051c810160208510156101c65750805b601f840160051c820191505b818110156101e5575f81556001016101d2565b50505b505050565b81516001600160401b0381111561020657610206610059565b61021a816102148454610169565b846101a1565b6020601f82116001811461024c575f83156102355750848201515b5f19600385901b1c1916600184901b1784556101e5565b5f84815260208120601f198516915b8281101561027b578785015182556020948501946001909201910161025b565b508482101561029857868401515f19600387901b60f8161c191681555b50505050600190811b01905550565b610383806102b45f395ff3fe608060405260043610610040575f3560e01c8062f55d9d1461006757806306fdde031461008857806327e235e3146100b2578063a9059cbb146100eb575f5ffd5b366100635761005034600a61022a565b335f908152600160205260409020819055005b5f5ffd5b348015610072575f5ffd5b5061008661008136600461026b565b61010a565b005b348015610093575f5ffd5b5061009c610123565b6040516100a9919061028d565b60405180910390f35b3480156100bd575f5ffd5b506100dd6100cc36600461026b565b60016020525f908152604090205481565b6040519081526020016100a9565b3480156100f6575f5ffd5b506100866101053660046102d8565b6101ae565b8073ffffffffffffffffffffffffffffffffffffffff16ff5b5f805461012f90610302565b80601f016020809104026020016040519081016040528092919081815260200182805461015b90610302565b80156101a65780601f1061017d576101008083540402835291602001916101a6565b820191905f5260205f20905b81548152906001019060200180831161018957829003601f168201915b505050505081565b335f908152600160205260409020548111156101c8575f5ffd5b335f908152600160205260409020546101e290829061033a565b335f908152600160205260408082209290925573ffffffffffffffffffffffffffffffffffffffff93909316835290912055565b634e487b7160e01b5f52601160045260245ffd5b808202811582820484141761024157610241610216565b92915050565b73ffffffffffffffffffffffffffffffffffffffff81168114610268575f5ffd5b50565b5f6020828403121561027b575f5ffd5b813561028681610247565b9392505050565b602081525f82518060208401525f5b818110156102b9576020818601810151604086840101520161029c565b505f604082850101526040601f19601f83011684010191505092915050565b5f5f604083850312156102e9575f5ffd5b82356102f481610247565b946020939093013593505050565b600181811c9082168061031657607f821691505b60208210810361033457634e487b7160e01b5f52602260045260245ffd5b50919050565b818103818111156102415761024161021656fea26469706673582212206fd3d4c88654ea9da2b910a21de7dd5a7da66e7395ec090ef51fbf309a829e3564736f6c634300081c0033a2646970667358221220215c8fc29e3da3c3991eab9de65972be4e2351c132e91336622dc8073f98184a64736f6c634300081c0033","linkReferences":{}},"methodIdentifiers":{"generateToken(string,uint256)":"3894e516"},"id":2}