{"abi":[{"type":"constructor","inputs":[{"name":"goodSamAddress","type":"address","internalType":"address"}],"stateMutability":"nonpayable"},{"type":"function","name":"goodSamaritan","inputs":[],"outputs":[{"name":"","type":"address","internalType":"contract IGoodSamaritan"}],"stateMutability":"view"},{"type":"function","name":"loop","inputs":[],"outputs":[],"stateMutability":"nonpayable"},{"type":"function","name":"notify","inputs":[{"name":"amount","type":"uint256","internalType":"uint256"}],"outputs":[],"stateMutability":"nonpayable"},{"type":"function","name":"startDonation","inputs":[],"outputs":[],"stateMutability":"nonpayable"}],"bytecode":{"object":"0x6080604052348015600e575f5ffd5b50604051610313380380610313833981016040819052602b91604e565b5f80546001600160a01b0319166001600160a01b03929092169190911790556079565b5f60208284031215605d575f5ffd5b81516001600160a01b03811681146072575f5ffd5b9392505050565b61028d806100865f395ff3fe608060405234801561000f575f5ffd5b506004361061004a575f3560e01c80636e9c9da51461004e57806398d078b41461007c578063a92100cb14610091578063bcabbfb114610099575b5f5ffd5b5f54610060906001600160a01b031681565b6040516001600160a01b03909116815260200160405180910390f35b61008f61008a36600461021a565b6100a1565b005b61008f610119565b61008f6101a6565b5f5f9054906101000a90046001600160a01b03166001600160a01b031663251436386040518163ffffffff1660e01b81526004016020604051808303815f875af11580156100f1573d5f5f3e3d5ffd5b505050506040513d601f19601f820116820180604052508101906101159190610231565b5050565b5f5b620186a08110156101a3575f5f9054906101000a90046001600160a01b03166001600160a01b031663251436386040518163ffffffff1660e01b81526004016020604051808303815f875af1158015610176573d5f5f3e3d5ffd5b505050506040513d601f19601f8201168201806040525081019061019a9190610231565b5060010161011b565b50565b5f5f9054906101000a90046001600160a01b03166001600160a01b031663251436386040518163ffffffff1660e01b81526004016020604051808303815f875af11580156101f6573d5f5f3e3d5ffd5b505050506040513d601f19601f820116820180604052508101906101a39190610231565b5f6020828403121561022a575f5ffd5b5035919050565b5f60208284031215610241575f5ffd5b81518015158114610250575f5ffd5b939250505056fea264697066735822122008d6bc0deb6311d5807c0ed96e1412e73f31f7eee89fb1bedf685f2ba3931b4064736f6c634300081c0033","linkReferences":{}},"methodIdentifiers":{"goodSamaritan()":"6e9c9da5","loop()":"a92100cb","notify(uint256)":"98d078b4","startDonation()":"bcabbfb1"},"id":0}