{"abi":[{"type":"constructor","inputs":[{"name":"_instanceAddress","type":"address","internalType":"address"}],"stateMutability":"nonpayable"},{"type":"function","name":"instance","inputs":[],"outputs":[{"name":"","type":"address","internalType":"contract IInstance"}],"stateMutability":"view"},{"type":"function","name":"revealPassword","inputs":[],"outputs":[{"name":"","type":"string","internalType":"string"}],"stateMutability":"view"}],"bytecode":{"object":"0x6080604052348015600e575f5ffd5b5060405161031b38038061031b833981016040819052602b91604e565b5f80546001600160a01b0319166001600160a01b03929092169190911790556079565b5f60208284031215605d575f5ffd5b81516001600160a01b03811681146072575f5ffd5b9392505050565b610295806100865f395ff3fe608060405234801561000f575f5ffd5b5060043610610034575f3560e01c8063022ec095146100385780633a1f16d614610081575b5f5ffd5b5f546100579073ffffffffffffffffffffffffffffffffffffffff1681565b60405173ffffffffffffffffffffffffffffffffffffffff90911681526020015b60405180910390f35b610089610096565b6040516100789190610150565b5f8054604080517f224b610b000000000000000000000000000000000000000000000000000000008152905160609373ffffffffffffffffffffffffffffffffffffffff9093169263224b610b92600480820193918290030181865afa158015610102573d5f5f3e3d5ffd5b505050506040513d5f823e601f3d908101601f1916820160405261012991908101906101af565b905090565b5f5b83811015610148578181015183820152602001610130565b50505f910152565b602081525f825180602084015261016e81604085016020870161012e565b601f01601f19169190910160400192915050565b7f4e487b71000000000000000000000000000000000000000000000000000000005f52604160045260245ffd5b5f602082840312156101bf575f5ffd5b815167ffffffffffffffff8111156101d5575f5ffd5b8201601f810184136101e5575f5ffd5b805167ffffffffffffffff8111156101ff576101ff610182565b604051601f8201601f19908116603f0116810167ffffffffffffffff8111828210171561022e5761022e610182565b604052818152828201602001861015610245575f5ffd5b61025682602083016020860161012e565b9594505050505056fea2646970667358221220ae563b491b61754ceeee9612e821ac980d4737c222bafb080b56c12480d35ab864736f6c634300081c0033","linkReferences":{}},"methodIdentifiers":{"instance()":"022ec095","revealPassword()":"3a1f16d6"},"id":0}