{"abi":[{"type":"constructor","inputs":[{"name":"_weth","type":"address","internalType":"address"}],"stateMutability":"payable"},{"type":"function","name":"StakeETH","inputs":[],"outputs":[],"stateMutability":"payable"},{"type":"function","name":"StakeWETH","inputs":[{"name":"amount","type":"uint256","internalType":"uint256"}],"outputs":[{"name":"","type":"bool","internalType":"bool"}],"stateMutability":"nonpayable"},{"type":"function","name":"Stakers","inputs":[{"name":"","type":"address","internalType":"address"}],"outputs":[{"name":"","type":"bool","internalType":"bool"}],"stateMutability":"view"},{"type":"function","name":"Unstake","inputs":[{"name":"amount","type":"uint256","internalType":"uint256"}],"outputs":[{"name":"","type":"bool","internalType":"bool"}],"stateMutability":"nonpayable"},{"type":"function","name":"UserStake","inputs":[{"name":"","type":"address","internalType":"address"}],"outputs":[{"name":"","type":"uint256","internalType":"uint256"}],"stateMutability":"view"},{"type":"function","name":"WETH","inputs":[],"outputs":[{"name":"","type":"address","internalType":"address"}],"stateMutability":"view"},{"type":"function","name":"totalStaked","inputs":[],"outputs":[{"name":"","type":"uint256","internalType":"uint256"}],"stateMutability":"view"}],"bytecode":{"object":"0x60806040526040516107e43803806107e48339810160408190526020916057565b345f5f828254602e91906082565b9091555050600380546001600160a01b0319166001600160a01b039290921691909117905560a6565b5f602082840312156066575f5ffd5b81516001600160a01b0381168114607b575f5ffd5b9392505050565b8082018082111560a057634e487b7160e01b5f52601160045260245ffd5b92915050565b610731806100b35f395ff3fe60806040526004361061006e575f3560e01c8063817b1cd21161004c578063817b1cd2146100e9578063ad5c4648146100fd578063ede85eb714610134578063f1f1db1e14610162575f5ffd5b80636e35c7401461007257806378e7ed2f146100a65780637b233319146100b0575b5f5ffd5b34801561007d575f5ffd5b5061009161008c366004610632565b610181565b60405190151581526020015b60405180910390f35b6100ae610422565b005b3480156100bb575f5ffd5b506100db6100ca366004610649565b60016020525f908152604090205481565b60405190815260200161009d565b3480156100f4575f5ffd5b506100db5f5481565b348015610108575f5ffd5b5060035461011c906001600160a01b031681565b6040516001600160a01b03909116815260200161009d565b34801561013f575f5ffd5b5061009161014e366004610649565b60026020525f908152604090205460ff1681565b34801561016d575f5ffd5b5061009161017c366004610632565b6104cb565b5f66038d7ea4c6800082116101dd5760405162461bcd60e51b815260206004820152600e60248201527f446f6e277420626520636865617000000000000000000000000000000000000060448201526064015b60405180910390fd5b600354604080513360248201523060448083019190915282518083039091018152606490910182526020810180517bffffffffffffffffffffffffffffffffffffffffffffffffffffffff167fdd62ed3e0000000000000000000000000000000000000000000000000000000017905290515f926001600160a01b03169161026491610676565b5f604051808303815f865af19150503d805f811461029d576040519150601f19603f3d011682016040523d82523d5f602084013e6102a2565b606091505b50915050826102b0826105b1565b10156102fe5760405162461bcd60e51b815260206004820181905260248201527f486f7720616d2049206d6f76696e67207468652066756e647320686f6e65793f60448201526064016101d4565b825f5f82825461030e91906106cf565b9091555050335f90815260016020526040812080548592906103319084906106cf565b909155505060035460408051336024820152306044820152606480820187905282518083039091018152608490910182526020810180517bffffffffffffffffffffffffffffffffffffffffffffffffffffffff167f23b872dd0000000000000000000000000000000000000000000000000000000017905290515f926001600160a01b0316916103c191610676565b5f604051808303815f865af19150503d805f81146103fa576040519150601f19603f3d011682016040523d82523d5f602084013e6103ff565b606091505b5050335f908152600260205260409020805460ff19166001179055949350505050565b66038d7ea4c6800034116104785760405162461bcd60e51b815260206004820152600e60248201527f446f6e277420626520636865617000000000000000000000000000000000000060448201526064016101d4565b345f5f82825461048891906106cf565b9091555050335f90815260016020526040812080543492906104ab9084906106cf565b9091555050335f908152600260205260409020805460ff19166001179055565b335f908152600160205260408120548211156105295760405162461bcd60e51b815260206004820152600f60248201527f446f6e277420626520677265656479000000000000000000000000000000000060448201526064016101d4565b335f90815260016020526040812080548492906105479084906106e8565b92505081905550815f5f82825461055e91906106e8565b90915550506040515f90339084908381818185875af1925050503d805f81146105a2576040519150601f19603f3d011682016040523d82523d5f602084013e6105a7565b606091505b5090949350505050565b5f60208251101561062a5760405162461bcd60e51b815260206004820152602560248201527f44617461206c656e677468206d757374206265206174206c656173742033322060448201527f627974657300000000000000000000000000000000000000000000000000000060648201526084016101d4565b506020015190565b5f60208284031215610642575f5ffd5b5035919050565b5f60208284031215610659575f5ffd5b81356001600160a01b038116811461066f575f5ffd5b9392505050565b5f82515f5b81811015610695576020818601810151858301520161067b565b505f920191825250919050565b7f4e487b71000000000000000000000000000000000000000000000000000000005f52601160045260245ffd5b808201808211156106e2576106e26106a2565b92915050565b818103818111156106e2576106e26106a256fea26469706673582212207d969f9a2369458ee2814211646da3c9b560c89c1271dd279c9b8da6a2f729bc64736f6c634300081c0033","linkReferences":{}},"methodIdentifiers":{"StakeETH()":"78e7ed2f","StakeWETH(uint256)":"6e35c740","Stakers(address)":"ede85eb7","Unstake(uint256)":"f1f1db1e","UserStake(address)":"7b233319","WETH()":"ad5c4648","totalStaked()":"817b1cd2"},"id":5}