{"abi":[{"type":"constructor","inputs":[],"stateMutability":"payable"},{"type":"receive","stateMutability":"payable"},{"type":"function","name":"triggerSelfDestruct","inputs":[],"outputs":[],"stateMutability":"nonpayable"}],"bytecode":{"object":"0x60806040525f80546001600160a01b03191673a16e02e87b7454126e5e10d957a927a7f5b5d2be179055608b8060345f395ff3fe608060405260043610601e575f3560e01c80631b3d34bc146028575f5ffd5b36602457005b5f5ffd5b3480156032575f5ffd5b506039603b565b005b5f5473ffffffffffffffffffffffffffffffffffffffff16fffea264697066735822122033bda34c02b679000f498a4afaef73f0fa1787e14a2b1e5dffd9274f805c183164736f6c634300081c0033","linkReferences":{}},"methodIdentifiers":{"triggerSelfDestruct()":"1b3d34bc"},"id":0}