{"abi":[{"type":"function","name":"horsePower","inputs":[],"outputs":[{"name":"","type":"uint256","internalType":"uint256"}],"stateMutability":"view"},{"type":"function","name":"setNewUpgrader","inputs":[{"name":"newUpgrader","type":"address","internalType":"address"}],"outputs":[],"stateMutability":"nonpayable"},{"type":"function","name":"upgradable","inputs":[],"outputs":[],"stateMutability":"nonpayable"},{"type":"function","name":"upgrader","inputs":[],"outputs":[{"name":"","type":"address","internalType":"address"}],"stateMutability":"view"}],"bytecode":{"object":"0x608060405234801561001057600080fd5b506101d0806100206000396000f3fe608060405234801561001057600080fd5b506004361061004c5760003560e01c8063564f6d71146100515780635ddb47ce1461006b578063af269745146100a0578063f4d26fec146100d1575b600080fd5b6100596100d9565b60408051918252519081900360200190f35b61009e6004803603602081101561008157600080fd5b503573ffffffffffffffffffffffffffffffffffffffff166100df565b005b6100a861012c565b6040805173ffffffffffffffffffffffffffffffffffffffff9092168252519081900360200190f35b61009e61014e565b60015481565b6000805473ffffffffffffffffffffffffffffffffffffffff90921662010000027fffffffffffffffffffff0000000000000000000000000000000000000000ffff909216919091179055565b60005462010000900473ffffffffffffffffffffffffffffffffffffffff1681565b7f360894a13ba1a3210667c828492db98dca3e2076cc3735a920a3ca505d382bbc80547fffffffffffffffffffffffff000000000000000000000000000000000000000016600117905556fea2646970667358221220fbbfd54f47584a600d247977cef9e74f2636a56caad9387d13be19b98980ae1364736f6c634300060c0033","linkReferences":{}},"methodIdentifiers":{"horsePower()":"564f6d71","setNewUpgrader(address)":"5ddb47ce","upgradable()":"f4d26fec","upgrader()":"af269745"},"id":2}