{"abi":[{"type":"constructor","inputs":[],"stateMutability":"nonpayable"},{"type":"function","name":"add_liquidity","inputs":[{"name":"token_address","type":"address","internalType":"address"},{"name":"amount","type":"uint256","internalType":"uint256"}],"outputs":[],"stateMutability":"nonpayable"},{"type":"function","name":"approve","inputs":[{"name":"spender","type":"address","internalType":"address"},{"name":"amount","type":"uint256","internalType":"uint256"}],"outputs":[],"stateMutability":"nonpayable"},{"type":"function","name":"balanceOf","inputs":[{"name":"token","type":"address","internalType":"address"},{"name":"account","type":"address","internalType":"address"}],"outputs":[{"name":"","type":"uint256","internalType":"uint256"}],"stateMutability":"view"},{"type":"function","name":"getSwapAmount","inputs":[{"name":"from","type":"address","internalType":"address"},{"name":"to","type":"address","internalType":"address"},{"name":"amount","type":"uint256","internalType":"uint256"}],"outputs":[{"name":"","type":"uint256","internalType":"uint256"}],"stateMutability":"view"},{"type":"function","name":"owner","inputs":[],"outputs":[{"name":"","type":"address","internalType":"address"}],"stateMutability":"view"},{"type":"function","name":"renounceOwnership","inputs":[],"outputs":[],"stateMutability":"nonpayable"},{"type":"function","name":"setTokens","inputs":[{"name":"_token1","type":"address","internalType":"address"},{"name":"_token2","type":"address","internalType":"address"}],"outputs":[],"stateMutability":"nonpayable"},{"type":"function","name":"swap","inputs":[{"name":"from","type":"address","internalType":"address"},{"name":"to","type":"address","internalType":"address"},{"name":"amount","type":"uint256","internalType":"uint256"}],"outputs":[],"stateMutability":"nonpayable"},{"type":"function","name":"token1","inputs":[],"outputs":[{"name":"","type":"address","internalType":"address"}],"stateMutability":"view"},{"type":"function","name":"token2","inputs":[],"outputs":[{"name":"","type":"address","internalType":"address"}],"stateMutability":"view"},{"type":"function","name":"transferOwnership","inputs":[{"name":"newOwner","type":"address","internalType":"address"}],"outputs":[],"stateMutability":"nonpayable"},{"type":"event","name":"OwnershipTransferred","inputs":[{"name":"previousOwner","type":"address","indexed":true,"internalType":"address"},{"name":"newOwner","type":"address","indexed":true,"internalType":"address"}],"anonymous":false}],"bytecode":{"object":"0x6080604052348015600e575f5ffd5b50601633601a565b6069565b5f80546001600160a01b038381166001600160a01b0319831681178455604051919092169283917f8be0079c531659141344cd1fd0a4f28419497f9722a3daafe3b4186f6b6457e09190a35050565b610468806100765f395ff3fe608060405234801561000f575f5ffd5b50600436106100c4575f3560e01c80638da5cb5b1161007d578063df791e5011610058578063df791e5014610181578063f2fde38b14610194578063f7888aec146101a7575f5ffd5b80638da5cb5b1461014b578063cbc7854e1461015b578063d21220a71461016e575f5ffd5b8063264e8893116100ad578063264e88931461010c578063635bc0c21461011f578063715018a614610143575f5ffd5b8063095ea7b3146100c857806325be124e146100dc575b5f5ffd5b6100da6100d636600461037f565b5050565b005b6002546100ef906001600160a01b031681565b6040516001600160a01b0390911681526020015b60405180910390f35b6100da61011a36600461037f565b6101bc565b61013561012d3660046103a7565b5f9392505050565b604051908152602001610103565b6100da6101c4565b5f546001600160a01b03166100ef565b6100da6101693660046103e1565b6101d7565b6001546100ef906001600160a01b031681565b6100da61018f3660046103a7565b505050565b6100da6101a2366004610412565b61021a565b6101356101b53660046103e1565b5f92915050565b6100d66102af565b6101cc6102af565b6101d55f610308565b565b6101df6102af565b600180546001600160a01b0393841673ffffffffffffffffffffffffffffffffffffffff199182161790915560028054929093169116179055565b6102226102af565b6001600160a01b0381166102a35760405162461bcd60e51b815260206004820152602660248201527f4f776e61626c653a206e6577206f776e657220697320746865207a65726f206160448201527f646472657373000000000000000000000000000000000000000000000000000060648201526084015b60405180910390fd5b6102ac81610308565b50565b5f546001600160a01b031633146101d55760405162461bcd60e51b815260206004820181905260248201527f4f776e61626c653a2063616c6c6572206973206e6f7420746865206f776e6572604482015260640161029a565b5f80546001600160a01b0383811673ffffffffffffffffffffffffffffffffffffffff19831681178455604051919092169283917f8be0079c531659141344cd1fd0a4f28419497f9722a3daafe3b4186f6b6457e09190a35050565b80356001600160a01b038116811461037a575f5ffd5b919050565b5f5f60408385031215610390575f5ffd5b61039983610364565b946020939093013593505050565b5f5f5f606084860312156103b9575f5ffd5b6103c284610364565b92506103d060208501610364565b929592945050506040919091013590565b5f5f604083850312156103f2575f5ffd5b6103fb83610364565b915061040960208401610364565b90509250929050565b5f60208284031215610422575f5ffd5b61042b82610364565b939250505056fea2646970667358221220811d687218ce3a48210ce54cfa9f529be77c6cf6f6a4bdb8dac4e9e702924bbd64736f6c634300081c0033","linkReferences":{}},"methodIdentifiers":{"add_liquidity(address,uint256)":"264e8893","approve(address,uint256)":"095ea7b3","balanceOf(address,address)":"f7888aec","getSwapAmount(address,address,uint256)":"635bc0c2","owner()":"8da5cb5b","renounceOwnership()":"715018a6","setTokens(address,address)":"cbc7854e","swap(address,address,uint256)":"df791e50","token1()":"d21220a7","token2()":"25be124e","transferOwnership(address)":"f2fde38b"},"id":2}