{"abi":[{"type":"constructor","inputs":[{"name":"_shop","type":"address","internalType":"contract Shop"}],"stateMutability":"nonpayable"},{"type":"function","name":"buyItem","inputs":[],"outputs":[],"stateMutability":"nonpayable"},{"type":"function","name":"price","inputs":[],"outputs":[{"name":"","type":"uint256","internalType":"uint256"}],"stateMutability":"view"}],"bytecode":{"object":"0x60a0604052348015600e575f5ffd5b5060405161017e38038061017e833981016040819052602b91603b565b6001600160a01b03166080526066565b5f60208284031215604a575f5ffd5b81516001600160a01b0381168114605f575f5ffd5b9392505050565b60805161010161007d5f395f605201526101015ff3fe6080604052348015600e575f5ffd5b50600436106030575f3560e01c8063795612d6146034578063a035b1fe14603c575b5f5ffd5b603a6050565b005b606560405190815260200160405180910390f35b7f000000000000000000000000000000000000000000000000000000000000000073ffffffffffffffffffffffffffffffffffffffff1663a6f2ae3a6040518163ffffffff1660e01b81526004015f604051808303815f87803b15801560b4575f5ffd5b505af115801560c5573d5f5f3e3d5ffd5b5050505056fea2646970667358221220ed1b8692288903d4a8517a7d75bd3c8473b6dee696a949d715c81c2a0af6937764736f6c634300081c0033","linkReferences":{}},"methodIdentifiers":{"buyItem()":"795612d6","price()":"a035b1fe"},"id":0}