{"abi":[{"type":"constructor","inputs":[{"name":"_dex","type":"address","internalType":"address"}],"stateMutability":"nonpayable"},{"type":"receive","stateMutability":"payable"},{"type":"function","name":"approveSpender","inputs":[{"name":"amount","type":"uint256","internalType":"uint256"}],"outputs":[],"stateMutability":"nonpayable"},{"type":"function","name":"dex","inputs":[],"outputs":[{"name":"","type":"address","internalType":"address"}],"stateMutability":"view"},{"type":"function","name":"drain","inputs":[],"outputs":[],"stateMutability":"nonpayable"},{"type":"function","name":"token1","inputs":[],"outputs":[{"name":"","type":"address","internalType":"address"}],"stateMutability":"view"},{"type":"function","name":"token2","inputs":[],"outputs":[{"name":"","type":"address","internalType":"address"}],"stateMutability":"view"}],"bytecode":{"object":"0x608060405234801561000f575f5ffd5b5060405161084438038061084483398101604081905261002e91610153565b5f80546001600160a01b0319166001600160a01b0383169081179091556040805163d21220a760e01b8152905163d21220a7916004808201926020929091908290030181865afa158015610084573d5f5f3e3d5ffd5b505050506040513d601f19601f820116820180604052508101906100a89190610153565b60015f6101000a8154816001600160a01b0302191690836001600160a01b03160217905550806001600160a01b03166325be124e6040518163ffffffff1660e01b8152600401602060405180830381865afa158015610109573d5f5f3e3d5ffd5b505050506040513d601f19601f8201168201806040525081019061012d9190610153565b600280546001600160a01b0319166001600160a01b039290921691909117905550610180565b5f60208284031215610163575f5ffd5b81516001600160a01b0381168114610179575f5ffd5b9392505050565b6106b78061018d5f395ff3fe60806040526004361061005b575f3560e01c8063692058c211610041578063692058c21461014c5780639890220b1461016a578063d21220a71461017e575f5ffd5b806325be124e146100f257806331a72b3b1461012d575f5ffd5b366100ee576002546040516370a0823160e01b81523060048201525f916001600160a01b0316906370a0823190602401602060405180830381865afa1580156100a6573d5f5f3e3d5ffd5b505050506040513d601f19601f820116820180604052508101906100ca919061062d565b11156100ec576002546001546100ec916001600160a01b03908116911661019d565b005b5f5ffd5b3480156100fd575f5ffd5b50600254610111906001600160a01b031681565b6040516001600160a01b03909116815260200160405180910390f35b348015610138575f5ffd5b506100ec610147366004610644565b61028d565b348015610157575f5ffd5b505f54610111906001600160a01b031681565b348015610175575f5ffd5b506100ec61030d565b348015610189575f5ffd5b50600154610111906001600160a01b031681565b6040516370a0823160e01b81523060048201525f906001600160a01b038416906370a0823190602401602060405180830381865afa1580156101e1573d5f5f3e3d5ffd5b505050506040513d601f19601f82011682018060405250810190610205919061062d565b5f546040517fdf791e500000000000000000000000000000000000000000000000000000000081526001600160a01b03868116600483015285811660248301526044820184905292935091169063df791e50906064015f604051808303815f87803b158015610272575f5ffd5b505af1158015610284573d5f5f3e3d5ffd5b50505050505050565b5f546040517fe1f21c67000000000000000000000000000000000000000000000000000000008152336004820152306024820152604481018390526001600160a01b039091169063e1f21c67906064015f604051808303815f87803b1580156102f4575f5ffd5b505af1158015610306573d5f5f3e3d5ffd5b5050505050565b6001546040516323b872dd60e01b81523360048201523060248201526103e860448201526001600160a01b03909116906323b872dd906064016020604051808303815f875af1158015610362573d5f5f3e3d5ffd5b505050506040513d601f19601f82011682018060405250810190610386919061065b565b506002546040516323b872dd60e01b81523360048201523060248201526103e860448201526001600160a01b03909116906323b872dd906064016020604051808303815f875af11580156103dc573d5f5f3e3d5ffd5b505050506040513d601f19601f82011682018060405250810190610400919061065b565b5060015460025461041d916001600160a01b03908116911661019d565b600254600154610439916001600160a01b03908116911661019d565b6001546040516370a0823160e01b81523060048201526001600160a01b039091169063a9059cbb90339083906370a0823190602401602060405180830381865afa158015610489573d5f5f3e3d5ffd5b505050506040513d601f19601f820116820180604052508101906104ad919061062d565b6040517fffffffff0000000000000000000000000000000000000000000000000000000060e085901b1681526001600160a01b03909216600483015260248201526044016020604051808303815f875af115801561050d573d5f5f3e3d5ffd5b505050506040513d601f19601f82011682018060405250810190610531919061065b565b506002546040516370a0823160e01b81523060048201526001600160a01b039091169063a9059cbb90339083906370a0823190602401602060405180830381865afa158015610582573d5f5f3e3d5ffd5b505050506040513d601f19601f820116820180604052508101906105a6919061062d565b6040517fffffffff0000000000000000000000000000000000000000000000000000000060e085901b1681526001600160a01b03909216600483015260248201526044016020604051808303815f875af1158015610606573d5f5f3e3d5ffd5b505050506040513d601f19601f8201168201806040525081019061062a919061065b565b50565b5f6020828403121561063d575f5ffd5b5051919050565b5f60208284031215610654575f5ffd5b5035919050565b5f6020828403121561066b575f5ffd5b8151801515811461067a575f5ffd5b939250505056fea2646970667358221220e0863ec89d27610650b524259dc090e4bec9570265b904c07ff8d6418604b73b64736f6c634300081c0033","linkReferences":{}},"methodIdentifiers":{"approveSpender(uint256)":"31a72b3b","dex()":"692058c2","drain()":"9890220b","token1()":"d21220a7","token2()":"25be124e"},"id":0}