{"abi":[{"type":"constructor","inputs":[{"name":"_signature","type":"bytes","internalType":"bytes"}],"stateMutability":"nonpayable"},{"type":"function","name":"attack","inputs":[{"name":"impersonator","type":"address","internalType":"address"}],"outputs":[],"stateMutability":"nonpayable"},{"type":"function","name":"signature","inputs":[],"outputs":[{"name":"","type":"bytes","internalType":"bytes"}],"stateMutability":"view"}],"bytecode":{"object":"0x608060405234801561000f575f5ffd5b5060405161057a38038061057a83398101604081905261002e91610054565b5f610039828261019d565b5050610257565b634e487b7160e01b5f52604160045260245ffd5b5f60208284031215610064575f5ffd5b81516001600160401b03811115610079575f5ffd5b8201601f81018413610089575f5ffd5b80516001600160401b038111156100a2576100a2610040565b604051601f8201601f19908116603f011681016001600160401b03811182821017156100d0576100d0610040565b6040528181528282016020018610156100e7575f5ffd5b5f5b82811015610105576020818501810151838301820152016100e9565b505f91810160200191909152949350505050565b600181811c9082168061012d57607f821691505b60208210810361014b57634e487b7160e01b5f52602260045260245ffd5b50919050565b601f82111561019857805f5260205f20601f840160051c810160208510156101765750805b601f840160051c820191505b81811015610195575f8155600101610182565b50505b505050565b81516001600160401b038111156101b6576101b6610040565b6101ca816101c48454610119565b84610151565b6020601f8211600181146101fc575f83156101e55750848201515b5f19600385901b1c1916600184901b178455610195565b5f84815260208120601f198516915b8281101561022b578785015182556020948501946001909201910161020b565b508482101561024857868401515f19600387901b60f8161c191681555b50505050600190811b01905550565b610316806102645f395ff3fe608060405234801561000f575f5ffd5b5060043610610034575f3560e01c806351ff484714610038578063d018db3e14610056575b5f5ffd5b61004061006b565b60405161004d9190610178565b60405180910390f35b6100696100643660046101c3565b6100f6565b005b5f8054610077906101fd565b80601f01602080910402602001604051908101604052809291908181526020018280546100a3906101fd565b80156100ee5780601f106100c5576101008083540402835291602001916100ee565b820191905f5260205f20905b8154815290600101906020018083116100d157829003601f168201915b505050505081565b6040517f61a423b100000000000000000000000000000000000000000000000000000000815273ffffffffffffffffffffffffffffffffffffffff8216906361a423b190610148905f90600401610235565b5f604051808303815f87803b15801561015f575f5ffd5b505af1158015610171573d5f5f3e3d5ffd5b5050505050565b602081525f82518060208401525f5b818110156101a45760208186018101516040868401015201610187565b505f604082850101526040601f19601f83011684010191505092915050565b5f602082840312156101d3575f5ffd5b813573ffffffffffffffffffffffffffffffffffffffff811681146101f6575f5ffd5b9392505050565b600181811c9082168061021157607f821691505b60208210810361022f57634e487b7160e01b5f52602260045260245ffd5b50919050565b602081525f5f83545f8160011c9050600182168061025457607f821691505b60208210810361027257634e487b7160e01b5f52602260045260245ffd5b602086018290526040860181801561029157600181146102a7576102d3565b60ff198516825283151560051b820195506102d3565b5f898152602090205f5b858110156102cd578154848201526001909101906020016102b1565b83019650505b509397965050505050505056fea2646970667358221220d14ee8f2cd1622313d20f5fa86fb4eb90b42eb8a638b5295fe003f0b2a754b6564736f6c634300081c0033","linkReferences":{}},"methodIdentifiers":{"attack(address)":"d018db3e","signature()":"51ff4847"},"id":0}