{"abi":[{"type":"function","name":"setSolver","inputs":[],"outputs":[],"stateMutability":"nonpayable"},{"type":"function","name":"solver","inputs":[],"outputs":[{"name":"","type":"address","internalType":"address"}],"stateMutability":"view"}],"bytecode":{"object":"0x6080604052348015600e575f5ffd5b5061012f8061001c5f395ff3fe6080604052348015600e575f5ffd5b50600436106030575f3560e01c806349a7a26d14603457806357c7dfb614607b575b5f5ffd5b5f5460529073ffffffffffffffffffffffffffffffffffffffff1681565b60405173ffffffffffffffffffffffffffffffffffffffff909116815260200160405180910390f35b60816083565b005b5f5f6040517f602a60005260206000f30000000000000000000000000000000000000000000081526009815ff05f80547fffffffffffffffffffffffff00000000000000000000000000000000000000001673ffffffffffffffffffffffffffffffffffffffff9290921691909117905550505056fea2646970667358221220a991dc97dcb89a23ad6eb4f0b4ca1a7571f9af4319af502b177905914a8e0a2c64736f6c634300081c0033","linkReferences":{}},"methodIdentifiers":{"setSolver()":"57c7dfb6","solver()":"49a7a26d"},"id":0}