{"abi":[{"type":"fallback","stateMutability":"payable"},{"type":"function","name":"counter","inputs":[],"outputs":[{"name":"","type":"uint256","internalType":"uint256"}],"stateMutability":"view"}],"bytecode":{"object":"0x6080604052348015600e575f5ffd5b5060e080601a5f395ff3fe608060405260043610601b575f3560e01c806361bc221a146044575b60246002426068565b5f0360425760015f5f828254603891906086565b90915550601b9050565b005b348015604e575f5ffd5b5060565f5481565b60405190815260200160405180910390f35b5f82608157634e487b7160e01b5f52601260045260245ffd5b500690565b8082018082111560a457634e487b7160e01b5f52601160045260245ffd5b9291505056fea2646970667358221220b324c2359c24b16346b5dc10a94b26f2469eead03ab62af312e1170f62bc30a064736f6c634300081c0033","linkReferences":{}},"methodIdentifiers":{"counter()":"61bc221a"},"id":0}