{"abi":[{"type":"function","name":"horsePower","inputs":[],"outputs":[{"name":"","type":"uint256","internalType":"uint256"}],"stateMutability":"view"},{"type":"function","name":"setHorsePower","inputs":[{"name":"newPower","type":"uint256","internalType":"uint256"}],"outputs":[],"stateMutability":"nonpayable"},{"type":"function","name":"upgradeToAndCall","inputs":[{"name":"newImplementation","type":"address","internalType":"address"},{"name":"data","type":"bytes","internalType":"bytes"}],"outputs":[],"stateMutability":"payable"},{"type":"function","name":"upgrader","inputs":[],"outputs":[{"name":"","type":"address","internalType":"address"}],"stateMutability":"view"}],"bytecode":{"object":"0x608060405234801561001057600080fd5b506103e1806100206000396000f3fe60806040526004361061003f5760003560e01c80634f1ef28614610044578063564f6d71146100fc5780635661819e14610123578063af2697451461014d575b600080fd5b6100fa6004803603604081101561005a57600080fd5b6001600160a01b03823516919081019060408101602082013564010000000081111561008557600080fd5b82018360208201111561009757600080fd5b803590602001918460018302840111640100000000831117156100b957600080fd5b91908080601f01602080910402602001604051908101604052809392919081815260200183838082843760009201919091525092955061017e945050505050565b005b34801561010857600080fd5b506101116102f0565b60408051918252519081900360200190f35b34801561012f57600080fd5b506100fa6004803603602081101561014657600080fd5b50356102f6565b34801561015957600080fd5b506101626102fb565b604080516001600160a01b039092168252519081900360200190f35b6000546201000090046001600160a01b031633146101e3576040805162461bcd60e51b815260206004820152600d60248201527f43616e2774207570677261646500000000000000000000000000000000000000604482015290519081900360640190fd5b6101ec82610310565b8051156102ec576000826001600160a01b0316826040518082805190602001908083835b6020831061022f5780518252601f199092019160209182019101610210565b6001836020036101000a038019825116818451168082178552505050505050905001915050600060405180830381855af49150503d806000811461028f576040519150601f19603f3d011682016040523d82523d6000602084013e610294565b606091505b50509050806102ea576040805162461bcd60e51b815260206004820152600b60248201527f43616c6c206661696c6564000000000000000000000000000000000000000000604482015290519081900360640190fd5b505b5050565b60015481565b600155565b6000546201000090046001600160a01b031681565b61031981610378565b6103545760405162461bcd60e51b815260040180806020018281038252602d81526020018061037f602d913960400191505060405180910390fd5b7f360894a13ba1a3210667c828492db98dca3e2076cc3735a920a3ca505d382bbc55565b3b15159056fe455243313936373a206e657720696d706c656d656e746174696f6e206973206e6f74206120636f6e7472616374a26469706673582212203872935c7c92519d43af9b7b7507d5598584b92ce7243696ad1231e0963cec8264736f6c634300060c0033","linkReferences":{}},"methodIdentifiers":{"horsePower()":"564f6d71","setHorsePower(uint256)":"5661819e","upgradeToAndCall(address,bytes)":"4f1ef286","upgrader()":"af269745"},"id":2}