{"abi":[{"type":"function","name":"checkWinCondition","inputs":[{"name":"factory","type":"address","internalType":"address"},{"name":"instance","type":"address","internalType":"address"},{"name":"player","type":"address","internalType":"address"}],"outputs":[{"name":"","type":"bool","internalType":"bool"},{"name":"","type":"bytes","internalType":"bytes"}],"stateMutability":"view"}],"bytecode":{"object":"0x6080604052348015600e575f5ffd5b5061037f8061001c5f395ff3fe608060405234801561000f575f5ffd5b5060043610610029575f3560e01c80631fe916281461002d575b5f5ffd5b61004061003b3660046101a0565b610057565b60405161004e9291906101e0565b60405180910390f35b6040517fd38def5b00000000000000000000000000000000000000000000000000000000815273ffffffffffffffffffffffffffffffffffffffff838116600483015282811660248301525f9160609186169063d38def5b90604401602060405180830381865afa9250505080156100ec575060408051601f3d908101601f191682019092526100e991810190610234565b60015b61015c576100f861025a565b806308c379a003610121575061010c6102c5565b806101175750610123565b5f92509050610170565b505b3d80801561014c576040519150601f19603f3d011682016040523d82523d5f602084013e610151565b606091505b505f92509050610170565b60408051602081019091525f815290925090505b935093915050565b803573ffffffffffffffffffffffffffffffffffffffff8116811461019b575f5ffd5b919050565b5f5f5f606084860312156101b2575f5ffd5b6101bb84610178565b92506101c960208501610178565b91506101d760408501610178565b90509250925092565b8215158152604060208201525f82518060408401525f5b8181101561021457602081860181015160608684010152016101f7565b505f606082850101526060601f19601f8301168401019150509392505050565b5f60208284031215610244575f5ffd5b81518015158114610253575f5ffd5b9392505050565b5f60033d11156102705760045f5f3e505f5160e01c5b90565b601f8201601f1916810167ffffffffffffffff811182821017156102be577f4e487b71000000000000000000000000000000000000000000000000000000005f52604160045260245ffd5b6040525050565b5f60443d10156102d25790565b6040513d600319016004823e80513d602482011167ffffffffffffffff821117156102fc57505090565b808201805167ffffffffffffffff811115610318575050505090565b3d8401600319018282016020011115610332575050505090565b61034160208285010185610273565b50939250505056fea26469706673582212205409dd9473a67588701ff25904bc5c8c1c9761a5c26b67d1c922150d6bf89d6f64736f6c634300081c0033","linkReferences":{}},"methodIdentifiers":{"checkWinCondition(address,address,address)":"1fe91628"},"id":0}