{"abi":[{"type":"constructor","inputs":[{"name":"_owner","type":"address","internalType":"address"}],"stateMutability":"nonpayable"},{"type":"function","name":"owner","inputs":[],"outputs":[{"name":"","type":"address","internalType":"address"}],"stateMutability":"view"},{"type":"function","name":"pwn","inputs":[],"outputs":[],"stateMutability":"nonpayable"}],"bytecode":{"object":"0x6080604052348015600e575f5ffd5b50604051610165380380610165833981016040819052602b91604e565b5f80546001600160a01b0319166001600160a01b03929092169190911790556079565b5f60208284031215605d575f5ffd5b81516001600160a01b03811681146072575f5ffd5b9392505050565b60e0806100855f395ff3fe6080604052348015600e575f5ffd5b50600436106030575f3560e01c80638da5cb5b146034578063dd365b8b14607b575b5f5ffd5b5f5460529073ffffffffffffffffffffffffffffffffffffffff1681565b60405173ffffffffffffffffffffffffffffffffffffffff909116815260200160405180910390f35b60a85f80547fffffffffffffffffffffffff00000000000000000000000000000000000000001633179055565b00fea26469706673582212206e6ca9680ef11a743932cc4302a7e0b7f798dfecb45c4f45c242df1f5ec6098464736f6c634300081c0033","linkReferences":{}},"methodIdentifiers":{"owner()":"8da5cb5b","pwn()":"dd365b8b"},"id":2}